S01E00006170702D626F6F746C6F616465722D737069666C6173682E733337B6
S31508000000000400207500000881000008810000082F
S31508000010A70B0A0100000000010203650040000862
S31508000020040B00001F130008AF1600086C06000832
S31508000030A90A0008470B0008850B0008450C0008AC
S315080000407D0900088B0C0008570D00080000000009
S31508000050FFFFFFFF05480068202100EA010020B1E4
S315080000600348016842688D46104770472C000040D7
S3150800007000400008FFF7EEFF00F00DF800F040F82A
S3150800008005E00000854670474248008870474FF4EF
S31508000090017000F099B838B500F0C4F84FF20F04B3
S315080000A03D4D28B140F2052028806C80012032BDE4
S315080000B03A480068C00615D56888A0421ED1288827
S315080000C040F2022188421CBF40F20621884215D020
S315080000D040F2011188421EBFB0F58A7F40F2111125
S315080000E088420BD02E4C208A40F6A721884205D19B
S315080000F02068FFF7C7FF6068804700BF002032BD51
S3150800010038B50400274872B60168490849000160F5
S3150800011000F0CEF821480068000910F001000CBF75
S315080001202149224902E0CD2201F8012B204A9142B9
S31508000130F9D32049204A214B03E011F8015B02F864
S31508000140015B9A42F9D31E491E4A002301E001F8D1
S31508000150013B9142FBD3104A53884FF20F05AB423D
S3150800016040F205210AD113888B4205D030B1180A0E
S31508000170012818BF022801D1194601E004B9002157
S31508000180044801804CF23C30508000F033FABDE858
S3150800019032407CE7B40C0020000000202C00004010
S315080001A000400008FCED00E0000000209800002058
S315080001B000040020541A000800040020040400204B
S315080001C004040020BD0C00200E4A302111600E4A9E
S315080001D011600E4A116010210D4A1160010A0029AA
S315080001E00C4908BF000208804FF20F004880BFF391
S315080001F05F8F094800210160416008480849086086
S31508000200704700003020004030C8004030C0004031
S3150800021010E00040000000201C4000400400FA05E1
S315080002200CED00E00020704780B500F023FA0121AC
S31508000230062000F02CFA062000F065FA01210720B6
S3150800024000F025FA072000F053FA1748016821F054
S315080002501001016001BD0000052800D9704710B5DE
S31508000260DFE800F01721030F1C17104C2088411EE9
S315080002702180C0B9072000F051FA42F210702080A0
S3150800028010BD072000F03FFABDE81040062000F038
S3150800029045BABDE81040062000F02ABABDE810406D
S315080002A0062000F030BA10BD00BC0040B60C002095
S315080002B0604951200860704738B55F49C9780429F4
S315080002C0B4BF302460244FF4F071B1FBF4F1451A41
S315080002D01E2DBCBF4FF40170FFF776FF5748584AEA
S315080002E0072101600021416081604FF000711160B3
S315080002F005FB04F1C91C8908491E416031BD4E4AF7
S3150800030001215170D8E72DE9F0414F4F4D4D7888BE
S31508000310494E4FF6FF78404540F2DC541CD14B4815
S31508000320018802237F22B81C00F016FA7888404517
S3150800033004BF02207880A869800703D4A86940F022
S315080003400200A8610120B070788828602046FFF76F
S31508000350D6FF2046BDE8F081A8698007EED5374864
S315080003600068C00348BF00F051F8B0780028F0D103
S31508000370A868A9687A8810F0010003D10F2A08D264
S31508000380521C06E0890704D5397811B1032AA8BF9B
S31508000390424492B2022A3870B8BF02227A8028688C
S315080003A079888842CED1A86900F00300032808D0CE
S315080003B0A869204940F00100A8610120E8615120A0
S315080003C008600020C6E710B504462148017869B9D7
S315080003D0C078072818BF092810D0032818BF112885
S315080003E00CD013281CBF15280B2807D019480168FC
S315080003F041F48071016001E000F0D8F92046FFF76A
S3150800040082FF0100F8D110BD0220DCE70B480C4A38
S31508000410002141608160016821F00201016000212C
S31508000420054841704FF000711160817809B10021CB
S315080004308170704700800040B80C002010E000E092
S3150800044004ED00E00440004000040020501A0008B3
S315080004509607080838400040007870470021016078
S315080004608180C18001817047F8B504460D4616465D
S31508000470002711E02068803020600020E08080207E
S315080004802081A088401CA080BFB2E088411C20447F
S31508000490E180807AE8557F1CB8B2B0420CD2E08879
S315080004A021898842F0D32068802204F10A0100F0ED
S315080004B04AFB0100DED0F2BD0020F2BD17207047CE
S315080004C010B5044600F0DFF82046BDE8104000F0FD
S315080004D072BD2DE9F041A4B000F056FD00F0D3F846
S315080004E000F0A8FD0121684600F0ACFD3F4C04F180
S315080004F0800500206860A86000F040FA00280FBF59
S31508000500E8608168E96040882880684600F069FEEE
S315080005100028074644D1BDF80610BDF804600DEB67
S31508000520010000F10A0828788007F6B20ED5E968B6
S3150800053061B1686832184B1E22EA030710B1A86831
S31508000540B84203D2384600F0A0FBAF60324668686E
S31508000550414600F017FB074680B9686832462146CF
S3150800056000F0F1FA002000E0401CB04206DA215CF7
S3150800057018F800209142F7D0832706E068683018FB
S31508000580002F6860C1D01B2FBFD00420FFF764FE80
S315080005900121384600F0ADFD384624B0BDE8F081AB
S315080005A0172FF0D10020F8E770B5DAB0044636A860
S315080005B0FFF754FF012000904FF402630C4A36A956
S315080005C001A800F0ACFE0FF2A4050FF2940600F0A5
S315080005D05AF8200014BF3246002201A9284601F025
S315080005E066F85028F3D05AB070BD0000240C0020DD
S315080005F00404002038B5FFF747FD044601F07AF8F1
S31508000600B4F58A7F40F2111508D100F0BDFC00F060
S31508000610F7FC0028FBD02846FFF7D6FDFFF704FEB7
S3150800062000F042FA18B14FF40170FFF7CDFD00F063
S315080006302AF840F20110844218BFAC4209D0B4F53A
S315080006408A7F1FBF40F20520844240F2032084427D
S3150800065001D1012000E0002001F04EF8002032BD53
S31508000660CF1800080B190008590400086904000887
S31508000670BD0400081B48012181604EF6BE21416079
S315080006800121016070471849012008607047F0B5DC
S31508000690C2085202154CA518830010F0040014BFB6
S315080006A06E68A65803F00C030F279F40BE43994077
S315080006B0314308B16960F0BDA150F0BD012100F0D9
S315080006C007029140094AC00802EB40204161704781
S315080006D0012100F007029140044AC00802EB4020BD
S315080006E001617047006000400860004000B00040AB
S315080006F01149C20801EB4221012200F0070002FA63
S3150800070000F0486170470C49C20801EB42210122FA
S3150800071000F0070002FA00F008617047C108064AAF
S3150800072002EB41210123CA6800F0070003FA00F032
S315080007305040C8607047000000B0004038B5144605
S315080007407F2C08BF0024164D29431A4604FB0311C3
S31508000750BDE8384001F014B870B51E0004461546C9
S315080007601CD04BF23460814212D1092E28BF0826CC
S3150800077033467F2240F612012046FFF7DFFF324656
S315080007800FF22001204601F014F838B940F2A271A0
S3150800079033462A462046BDE87040CFE770BD0000C4
S315080007A000000808FFFFFFFFFFFFFFFF07490A6871
S315080007B0032809D34B6D43F001034B650B689B1A5D
S315080007C0C3F313038342F9D370470000382000406F
S315080007D010B5044602E0FF2000F0FEFF2046441E46
S315080007E0C0B20028F7D110BD10B5044601E000F0EC
S315080007F0F9FF2046441EC0B20028F8D110BD10B536
S3150800080004462002000E00F0E7FF2004000E00F068
S31508000810E3FFE0B2BDE8104000F0DEBF10B500F01F
S31508000820E1FF044600F0DEFF40EA042010BD80B573
S3150800083001E080B5FF2000F0CFFFBDE8014000F0E1
S31508000840D1BF38B500F0D5FF9F20FFF7F0FFFFF7BF
S31508000850F0FF04460220FFF7BBFFFFF7DFFF054660
S3150800086000F0C9FF012C0AD01F2C3ED0202C4FD0F7
S315080008709D2C60D0C22C15D0EF2C06D072E044F225
S31508000880140085426ED1012032BD43F21200854222
S3150800089004D044F21400854202D063E0022032BD3F
S315080008A0032032BD42F212002D1A10D06D1E10D050
S315080008B06D1E10D06D1E12D04FF4A4602D1A10D0E4
S315080008C040F2DF202D1A08D0ED1E0CD04AE0042095
S315080008D032BD052032BD062032BD072032BD0820B4
S315080008E032BD092032BD0A2032BD44F2014085429C
S315080008F008D044F20150854208D048F201408542AA
S3150800090002D02FE00B2032BD0C2032BD0D2032BDA7
S3150800091042F212002D1A06D06D1E06D06D1E06D0A4
S315080009206D1E06D01EE00E2032BD0F2032BD1020EF
S3150800093032BD112032BD44F209002D1A08D0ED1F30
S3150800094008D06D1E08D06D1E08D06D1E08D009E0AF
S31508000950122032BD132032BD142032BD152032BDFF
S31508000960162032BD002032BD80B500F042FF0620B9
S31508000970FFF75DFFBDE8014000F03DBF80B500F020
S31508000980EAF90028FBD1FFF75CFF401E15284ED870
S31508000990DFE800F00B0E1114171A1D202326292C48
S315080009A02F3235383B3E4144474A0FF2CC3002BD20
S315080009B00FF2DC3002BD0FF2F03002BD0FF200403C
S315080009C002BD0FF2144002BD0FF2244002BD0FF221
S315080009D0384002BD0FF2484002BD0FF25C4002BD2E
S315080009E00FF26C4002BD0FF2804002BD0FF290403C
S315080009F002BD0FF2A44002BD0FF2B44002BD0FF2D1
S31508000A00C84002BD0FF2D84002BD0FF2EC4002BD4D
S31508000A100FF2FC4002BD0FF2105002BD0FF220503B
S31508000A2002BD0FF2345002BD0FF2445002BD002041
S31508000A3002BD000010B5044600F08DF90028FBD170
S31508000A4014B9FFF7FEFE05E02078010002D1FFF792
S31508000A50F8FE2070401E152824D8DFE800F01A1486
S31508000A601A14171A1A1D1D2017171A14171A1D0BF0
S31508000A700E1114174FF4004010BD4FF4803010BD0E
S31508000A804FF4003010BD4FF4802010BD4FF4002005
S31508000A9010BD4FF4801010BD4FF4001010BD4FF478
S31508000AA0000010BD002010BD10B500F0BBFE00F020
S31508000AB0A6FE00F0CCFE00F0CEFE42F210742046F0
S31508000AC000F0C2FE00F095FEAB20FFF7B0FE00F086
S31508000AD092FE204600F0B8FEFFF7B3FE08B986205E
S31508000AE010BD0B3803280BD2FFF73EFF00F081FE3E
S31508000AF00120FFF79CFE0020FFF799FE00F07BFE21
S31508000B00002010BD38B50446B4F5004F0D46104612
S31508000B1003D2C4F50041A94206D2FFF78BFF8442EF
S31508000B2004D2001BA84201D3012032BD002032BDE9
S31508000B3010B50C46FFF77BFE2046FFF760FEBDE8C2
S31508000B401040032050E670B50D4600F076F808B957
S31508000B50852070BD00F0FFF80028FBD100F049FEA3
S31508000B6021460320FFF7E4FF03E0FFF762FE05F8DE
S31508000B70010B3046461E80B20028F6D100F03BFE37
S31508000B80002070BD2DE9F84F894600F056F808B9DF
S31508000B90852050E0374600F0DEF80028FBD100F04B
S31508000BA028FE21460320FFF7C3FF3846471E80B2BA
S31508000BB028B1FFF73EFEFF28F7D087203BE000F07C
S31508000BC01AFE200640F201174FF4807808D0200A52
S31508000BD0000200F580703119814203D3051B04E039
S31508000BE0BE4201DA354600E04546300022D0AB4623
S31508000BF0CA4600F0B0F80028FBD1FFF7B5FE00F0B2
S31508000C00F8FD21460220FFF793FF03E01AF8010BCF
S31508000C10FFF70DFE5846A0F1010B80B20028F5D16A
S31508000C20761B00F0E8FDADB22C19B6B2BE42A94457
S31508000C30DADAD7E70020BDE8F28F16460446002226
S31508000C4031465FE780B500F086F80028FBD100F052
S31508000C50D0FDB920FFF7EBFD00F0CDFDBDE8014062
S31508000C6000F0FCBD38B504460D4600F074F80028BF
S31508000C70FBD1FFF779FE00F0BCFD29462046FFF7B9
S31508000C8057FFBDE8314000F0B6BD2DE9F8430446EC
S31508000C9000208DF800000D466846FFF7CBFE9DF84C
S31508000CA000108046A1F10E0240F6FF764FF6FF705F
S31508000CB0042A4FF48037814638BF064607D3A1F188
S31508000CC0120002283CBF4FF4004747F6FF79354229
S31508000CD018BF82203DD1344218BF812039D16A46D7
S31508000CE0A9B22046FFF70EFF08B9852031E0BCB946
S31508000CF0454515D100F02FF80028FBD1FFF734FE43
S31508000D0000F077FDC720FFF792FD00F074FD1FE0A5
S31508000D1021462020FFF7A6FF04F58054A5F5805547
S31508000D20002D18BF14EA090FF2D1BD420ED3214691
S31508000D30D820FFF797FF3C19ED1BF6E72146202040
S31508000D40FFF790FF04F58054A5F58055002DF5D1E1
S31508000D500020BDE8F28310B500F04BFD0520FFF733
S31508000D6066FDFFF766FD044600F045FD14F0010038
S31508000D7018BF012010BD0000020203009A01003CC2
S31508000D8000100000000010005819000801000000BB
S31508000D90020203009A010008001000000000040087
S31508000DA06419000801000000020203009A010018F5
S31508000DB00010000000001000701900080100000073
S31508000DC0020203009A01340F00100000000004001C
S31508000DD07C19000801000000020203009A01001EA7
S31508000DE00010000000000800881900080100000033
S31508000DF0020203009A01003C0010000000001000E7
S31508000E009419000801000000020203009A01007804
S31508000E100010000000001000A019000801000000E2
S31508000E20020203009A01007800100000000020006A
S31508000E30AC19000801000000020203009A010050E4
S31508000E400010000000002000B8190008010000008A
S31508000E50020213009A01F000001000000000800052
S31508000E60C419000801000000020203009A01001CD0
S31508000E700010000000000800D0190008010000005A
S31508000E80020203009A01003000100000000008006A
S31508000E90DC19000801000000020203009A01007034
S31508000EA00010000000001000E8190008010000000A
S31508000EB002020300000C00180000010000000400F4
S31508000EC0F41900080100000002020300000C0028C3
S31508000ED00000010000000800FC19000801000000DD
S31508000EE002020300000C0050000001000000100080
S31508000EF0041A00080100000002020300000C00A00A
S31508000F0000000100000020000C1A00080100000083
S31508000F10020203009A01000200100000008000008F
S31508000F20141A000801000000020203009A010004D6
S31508000F300010000000000100201A0008010000004F
S31508000F40020203009A0100060010000000000200D9
S31508000F502C1A000801000000020203009A0100088A
S31508000F600010000000000400381A00080100000004
S31508000F70020203009A01000C00100000000008009D
S31508000F80441A00080100000080B52748682141611D
S31508000F90022181600121016009200921FFF777FB01
S31508000FA0BDE8044004210A20FFF771BB1F4800680A
S31508000FB04006FBD570471E49CA685207FCD508602B
S31508000FC0704710B5044603E014F8010BFFF7F3FF6A
S31508000FD020780028F8D110BD10B5044600090A2863
S31508000FE0ACBF37303030C0B2FFF7E5FF04F00F0072
S31508000FF00A28BDE81040ACBF37303030C0B2DAE757
S315080010000A48006810F0020018BF0120704710B5A2
S315080010100446FFF7F5FF20B1054800682070002058
S3150800102010BD012010BD000054C8004048C800404B
S315080010303CC8004080B56846FFF7E9FF0028FAD0AB
S3150800104001BD00000170012201290CBF8021402149
S315080010508180427000218270C18001812048016030
S315080010600E218162016821F01001016000214163AF
S315080010704162426170472DE9F041194F194E044605
S3150800108000F032F890464FF0FF303060C7F82C80F9
S31508001090002078620D46386840F001003860FFF796
S315080010A0F2FA012C0FD135B9FFF7AAFF00F00100BB
S315080010B080F0010002E02846FFF7A9FF28B900F0F2
S315080010C013F800200AE0012008E03068C007E6D5DA
S315080010D05FEA0800E3D000F007F81620BDE8F081C3
S315080010E000F0004000A8004038684008400038601A
S315080010F0704738B504460D4600F009F800F007F8C1
S315080011002A462146BDE838401820FFF7D9B92A46AD
S3150800111021461820FFF7D4B970B5044682B00020DE
S3150800112020814AF6B43220786946FFF7A4FF08B151
S315080011301C2076BD9DF80000032818BF182801D189
S31508001140182076BD042801D1172076BD012801D0C4
S31508001150212076BD002500E06D1CA188EDB2091D91
S315080011608D420BDA601900F10A01207840F2DD227F
S31508001170FFF781FF0028EFD0262076BD0025002046
S3150800118006E00146EDB260196D1C007B00F06AFBB3
S31508001190A288E9B29142F4D3A37AE17AC918FF2961
S315080011A001D0222076BDA5182E7BB6EB102F01D0D4
S315080011B0232076BD697BC0B2814201D0242076BD4A
S315080011C0A078834207D0401EC0B2834201D12720AF
S315080011D076BD252076BD901C20810220E080002067
S315080011E076BD38B504466078012804D040D3032874
S315080011F03CD033D33CE02078012816D13B256846FD
S31508001200FFF705FF0028FAD04320FFF7D4FE207821
S3150800121040F2DD220021FFF72EFF30B12846451E99
S31508001220C0B20028F0D11B2032BD022060702046D3
S31508001230FFF772FF050018BFFFF7FCFE272D19D12F
S31508001240A0782278411EC9B20620FFF739F9002D89
S31508001250EDD10320FFF700F8002032BDFFF7EAFEC4
S3150800126000F023F8A078401CA070E0E7172032BDF4
S31508001270182032BDA80603D52278A1781520E4E700
S31508001280680603D4182D18BF1C2D07D121782846C7
S31508001290FFF72FFF04206070284632BD172DD6D1E0
S315080012A000F003F803206070E0E72278A1780620B2
S315080012B0FFF706B9F8B504460D4616461F4607E079
S315080012C03046A047294600F0E0FA05467F1E761C00
S315080012D0B8B20028F4D12846F2BD38B50C461546F2
S315080012E005E0014614F8010B00F0CFFA6D1EA9B20D
S315080012F00029F6D132BDF8B504460D4616461F46F6
S31508001300286823683A4631469847040005D1E868B4
S315080013103A463146FFF7E1FFE8602046F2BD70B570
S315080013208AB004460E98A072238162600D46022296
S3150800133028686946FFF707FCBDF8000048B3286827
S31508001340202201A9FFF7FFFB00200FF29C3101AA1A
S315080013500B5C125C9A421CD1401C0828F7DBBDF8CE
S315080013600C0040BAA8B9079801BA202911D306BAC1
S31508001370FFF704FBC06886420BD2202201A94FF072
S31508001380FF30FFF7AAFFC349884202D1079800BA7F
S31508001390286025604FF0FF30E060002020740AB016
S315080013A070BD2DE9F84F8B4604469BF81B70D06834
S315080013B0B849802FA8BF802788421E4653D1002EE1
S315080013C04FD0B06800904FF0FF384FF000090BEB94
S315080013D0490000F1480A9AF800500DE0FFF753F962
S315080013E0E80240F0006200984FF400634146FFF7B8
S315080013F061FF6D1C8046ADB29AF80100A84205DA75
S3150800140009F10109B9F1060F02DAE0E7FF2DE5D186
S31508001410DBF844006FEA0801884224D1A0687368A3
S3150800142000BA7A0859469847C8B9E06805BAA06864
S3150800143002BAB0683B464FF0FF31FFF73BFFC043A7
S3150800144085420CD140F6A720ABF810000122A0680F
S31508001450736800BA0BF110011030984708B14220A2
S3150800146002E0172000E04320BDE8F28F2DE9F04F97
S31508001470894609F1040583B08046D5F800A0A888F6
S31508001480ADF8000014460423524600F00AF901009C
S3150800149010D1BAF8000040BA80B20190BAF802003A
S315080014A047BABFB2F80706D501984FF208618842D5
S315080014B018BF46207CD1B7F5026FC8BF4E2077DC2F
S315080014C0002F74D00198DFF8D0B109F13C0668B155
S315080014D04FF20861401A6FD040F2FC51401A00F0F2
S315080014E0BF80FF387BD0FE3879D0D1E0287B08B1A1
S315080014F051205DE08D2F28BF4F2059D23B4609F178
S31508001500180200F0CDF8010052D1F278802AA8BF5F
S31508001510802202F10C00874201BFA88A40BA00F473
S315080015207F40B0F5007F45D1E88A40BA4EF2503187
S31508001530884202BF288E40F6A72188423AD1688E93
S3150800154000F47F41B1F5807F01BFA96909BADBF8CC
S315080015501C3099422ED1BBF8181040F20323994249
S315080015600DD1B0F5847F25DB706C410522D14B493E
S31508001570081AB0F5683F1DD8B0F5005F1AD34FF6C4
S31508001580FF70288609F124014FF0FF30FFF7A5FE0A
S31508001590E96909BAC943884204BF3078042809D1E1
S315080015A070780B2818BF062804D10120287300205C
S315080015B0BDE8FE8F4520FBE7287B002852D0BDF802
S315080015C000008742B4BF3C460446234600F06BF849
S315080015D00100EDD13F1BBFB2002FF0D1E7E7287B12
S315080015E000283FD0042300F05EF80100E0D1DAF8C5
S315080015F0000005BADBF81C003F1F8542BFB238BFA2
S315080016004820D5D3F16B7819884228BF4920CFD214
S3150800161001984FF6035188420AD14CB122682946EF
S315080016200220904720B14A20C2E7BF1BBFB27519F6
S31508001630002FBCD0BDF800008742B4BF3E46064620
S31508001640334600F030F80100B2D1002CEDD06368C3
S3150800165072085146284698470028E6D04B20A7E747
S31508001660287B08B94120A3E7042F18BF4C209FD137
S315080016702A68042300F014F8010099D123464A4643
S3150800168009F1240109F1140003B0BDE8F04F88E61A
S3150800169044208DE7E320BBDE0000000800000408B4
S315080016A04946404627E652464946404623E670B52F
S315080016B00D46044628898028164603DA4F2070BD51
S315080016C0A87A78B9324629462046FFF7CFFE002881
S315080016D0F6D0172807D1286861688847172802D1E5
S315080016E0002070BD502070BD534C414249425220E3
S315080016F000000000FEF788BE10B504460020FEF77D
S31508001700ABFD24BB0020FEF74FFF50B90120FEF7C2
S315080017104BFF30B90520FEF79FFD40F20120FEF78A
S3150800172053FD0420FEF798FD0120FEF795FDBDE860
S31508001730104040F20320FEF747BD0FF23400FFF7D2
S3150800174040FCFFF733FC40F20220FEF73DFDFEF7B2
S31508001750C0FE0400F1D00FF22000FFF732FC20464D
S31508001760FFF73AFC01A0FFF72CFCF0E70D0A000092
S315080017700D0A4F6B0D0A00000D0A45525220000053
S31508001780814212D210441144401E491E93B2002BC6
S315080017901EBF11F8013900F80139521EF6D17047FB
S315080017A011F8013B00F8013B521E93B2002BF7D10A
S315080017B0704710B500E0521E93B223B100F005F849
S315080017C0F9D0181B10BD002010BD10F8013B11F808
S315080017D0014BA3427047000017494A685207FCD5D7
S315080017E008607047144841688907FCD50068C0B28C
S315080017F07047124900E0124910200860704780B50A
S3150800180009210920FEF743FF04210A20FEF73FFFBE
S3150800181009210B20FEF73BFFBDE8044001210C20FF
S31508001820FEF735BF07480021C160016141601021FC
S3150800183041600221016070473CC8004014B2004074
S3150800184010B2004054C8004080B2FEF7AFBF012175
S315080018500F20FEF71CBF0F20FEF73ABF0F20FEF73A
S315080018602DBF00000A46090241EA12214840C0F38A
S315080018700311484080EA003041010206C9B2D20E7F
S3150800188041EA0221484080B270470A0A484000F0FF
S31508001890FF0008214308C00746BF034858401846BA
S315080018A0491EF7D1504070472083B8ED2748018A72
S315080018B040F6A772914202BF408A4FF47F41084220
S315080018C003D1022801DB0120704700207047F8B5D4
S315080018D004461D4E012030700D46FFF7E7FF18B984
S315080018E04FF40170FEF770FC1848876A294644F4DD
S315080018F08070B847002131700FF2540618B929468E
S3150800190044F40070B847305CF2BD2DE9F041044656
S3150800191088465600FFF7CAFF18B94FF40170FEF75C
S3150800192053FC0A480FF22805476A00233246414607
S315080019302046B84720B93346002241462046B847D4
S31508001940285CBDE8F0810000BC0C002000000808F7
S31508001950000202024B4B4647533235464C3230386A
S315080019604B0000005732355832304256000000000E
S315080019705732355138304256000000004D5832353E
S315080019804C323030364500004D5832354C34303004
S31508001990364500004D5832354C3830303645000053
S315080019A04D58323552383033354600004D583235A9
S315080019B04C313630364500004D58323555313633C0
S315080019C0354500004D583235523634333546000019
S315080019D041543235444630343141000041543235A1
S315080019E053463034310000004154323544463038CD
S315080019F0314100004D323550323000004D323550FD
S31508001A00343000004D323550383000004D323550F4
S31508001A1031360000495332354C51303235420000D8
S31508001A20495332354C51353132420000495332352B
S31508001A304C51303130420000495332354C51303226
S31508001A4030420000495332354C51303430420000A0
S30D08001A50EE0800000100FFFF8B
S705080000757D
