S01200007468726561642D746573742E7333377D
S1130000185C0020C520030079340000CD190300DA
S1130010A70B0000000000000000FFFF54000000D8
S113002004180F00000000000000000000000000A1
S113003000000000000000000000000000000000BC
S11300400000000000000000000000009300000019
S113005000000000185C0020C52003007934000073
S1130060CD190300A70A0A010002000004180FAC0E
S113007000269300000000000000000000000000C3
S1130080000000000000000000000000000000006C
S1130090000000000000000000000000FFFFFFFF60
S11300A0FFFFFFFFFFFFFFFF00E003000000000071
S11300B000000000FFFFFFFFFFFFFFFF1000000034
S11300C0000000000000000000000000000000002C
S11300D0000000000000000000000000D77F0020A6
S11300E0D77F0020185C0020988603004C2803006A
S11300F0404D0020701700200000040000000000A4
S1130200185C0020C520030079340000CD190300D8
S1130210D5190300D1190300D9190300E519030006
S1130220E5190300E5190300E5190300E5190300C6
S1130230DD190300E5190300E5190300A1280000F6
S1130240E97A000089050100B11B0000E501010005
S1130250E90501008F050100910501008B050100EE
S1130260B94C0200034F02007D7000001F560000CD
S1130270E5190300E519030017050000E51903005B
S1130280E5190300214F0200E5190300E5190300F5
S1130290E5190300E5190300E5190300E519030056
S11302A0E5190300E5190300E5190300EB05010056
S11302B08D050100FD72000023060100E51903000D
S11302C095240300E5190300E5190300E51903006B
S11302D0E5190300E5190300E5190300E519030016
S11302E07149724A01E021B1491E1369DB07FAD44E
S11302F001B9BAE0506001201060106910F0060FD7
S113030005D0410700D5B3E0800700D5B3E0002055
S11303107047F0B513460022002936D0624C634D75
S11303208BB98B4231D250F8046BEE605B1C08260B
S11303302E60264601E036B3761E2F69FF07FAD4F5
S1130340002EEED11FE0EFF3108672B600230EE00C
S11303502F6907F01907102F08BF2F602F693F0777
S1130360F6D550F8047BEF605B1C10272F608B429E
S1130370F4D306B962B6264601E026B1761E286992
S1130380C007FAD40EB96FF002021046F0BD2DE991
S1130390F84F474F0D4639680446002041F00101EB
S11303A09B4639604FEA92088146AA4602E0B1446E
S11303B00AEB860AC14517D204EB89063046FFF7DB
S11303C08FFF010022D1C6F30A00C0F50060860841
S11303D0A8EB0900B04238BF06465A46314650469B
S11303E0FFF797FF0100E2D021682A68914209D003
S11303F02046FFF775FF010004D15A460121284623
S1130400FFF787FF3968490849003960BDE8F28F72
S11304102749254A0B6843F001030B6088600120DB
S113042048604869400704D50868400840000860EF
S11304301EE04869800704D5086840084000086049
S113044019E00220486001E022B1521E4869C00749
S1130450FAD422B9086840084000086005E008683A
S1130460400840000860002070476FF002007047A9
S11304704FF0FF3070476FF001007047002386E7AC
S11304800B48016841F00101016046F21A31C16470
S11304904FF4807141604169C907FCD40021C164F3
S11304A00020704700000000809698000C000E4069
S11304B008000E40072802D23549085C7047FF2027
S11304C07047072802D23349085C7047FF20704701
S11304D038B50446304800EB8105A8780009FFF7D9
S11304E0E9FF2071A87800F00F00FFF7EAFF6071C0
S11304F0FF2814BF01200020E8702146E878A0718D
S1130500287860706878254DA070284600F0A3F81C
S11305100120A86031BD10B5214984B01CC96846CA
S11305201CC02048204A0178D36814682340DB07A4
S11305302DD503292BD2184C12691C4B04EB8104D2
S1130540E4781CB114B2002C48BF002223F8112017
S11305500123174A147803FA01F121431170154A53
S1130560117891B100211478CC40E40708D50170CA
S11305708B401078584010706846FFF7A9FF1FBDE4
S1130580491CC9B20329EED31FBD032101701FBD4D
S11305902838030030380300D465002000200040D0
S11305A01C380300A67F002038200040E0650020AE
S11305B0A77F0020A77E0020890001EB401000F1F6
S11305C084400260704730B5002A446BDFF8345130
S11305D01ABF1022DFF83031DFF830312340002415
S11305E0A84237D1DFF8280151B101290CD00229E2
S11305F01ED003290CD0062915D0812918D023E058
S113060001680468006816E001680468006802E094
S1130610416844684068090C01F4FE41C4F3034492
S11306202143000C0CE08168806801F00F0107E0B1
S113063041684468406801F4FE4104F00F0421431A
S113064000F0F00040EA010404FA02F0DFF8C410FC
S11306501843086030BD38B504460D460220A0603A
S11306600022A9782046FFF7AEFF287969786B79D4
S1130670020242EA016242EA0342EB7842EAC3021E
S1130680EB790BB142F000522B7A0BB142F0040229
S1130690AB790BB142F002026B7A0BB142F001026A
S11306A0AB78F32806D1180004D10429BCBF042078
S11306B060F31B6218064CBF42F0E00042EA4310AC
S11306C02061154960690840A9780A0644BF21F0F1
S11306D080010843297840EA4140E97A09B140F4AD
S11306E0804060610221AA7A2046FFF765FF2879DD
S11306F0F32804F13000BDE838400CBF0122002289
S1130700102159E700200040FFFF00800080FFFF18
S11307101082E00F34200040F8BFE1FF42DE704752
S113072038B504460D4600F0F3FB01F05CFA01F025
S113073067FA2946204601F069FA2B4622466949A0
S1130740012001F0FAFB29462046BDE83440E5E7E4
S113075065482DE9F047654D01682E1D4FF420686A
S11307607165016AB16562490A68F2654968316672
S1130770416A7166816AB166C16AF166016B31676B
S1130780806B706796F8340040074CBFF46BB46B11
S113079001F085FC0022F2648442564A014624BFDB
S11307A0A2F1200AA2452746316505F19003DFF83E
S11307B048C1DFF848E118D3A0693064E46974647F
S11307C0746DC4F30804062C13D1704511D360452D
S11307D00FD200884DF64264A0420AD130685860B6
S11307E040F201787068986003E00027376477640A
S11307F007464348814202D2014600E0091D0846EB
S1130800904203D20C68B4F1CD3FF7D03D49081AA9
S1130810B0640021002005EB8004401C0628E16739
S1130820F9D3002003E0C0B205EB8004E1679742EE
S113083023D252F8041D7145F9D36145F7D2CC0790
S1130840F5D5002405EB8409D9F87C90894502D0BC
S1130850641C062CF6D3062CE9D1002814BF401ED4
S11308600520E0E7B16F002405EB8402641CD2F894
S11308708070D767052CF7D319600146481EC9B2AA
S11308800029EFD1706DC0F30800032810D00428AC
S113089011D0052812D0062813D00C2817D01228FE
S11308A018D119480068800719D540F2025816E09B
S11308B040F6012813E040F6022810E040F6032831
S11308C00DE0B8F5206F0AD140F6042807E040F6A1
S11308D0052804E018B1322838BF40F607284046FE
S11308E0BDE8F0873838030004ED00E00000002084
S11308F000E300E0185C00204C280300B40400006E
S11309009C000020185C00201C20054080B50023BA
S113091000931346012201F027FC01BD00F046BEFE
S113092000F044BE10B54C00014600F01FFD224605
S113093001F0F9FBA04201D0002010BD012010BD40
S113094080B500F013FD01F074FC00B10120C0B2C9
S113095002BDDFF8000B407D00B101207047DFF8D5
S1130960F42A117B01B9704780B50146106A01F081
S1130970B6FC20B1BDE8044040F27111BEE201BDF5
S113098080B500F0F3FC01F0C7FB00F0030003287E
S113099001D1012002BD002002BD80B5B0F5004F99
S11309A007D100F0CCFDDFF8C00A00F0C8FCBDF8A8
S11309B00000DFF8741AC883002002BD2DE9F04F4F
S11309C0440900F01F050027DFF8F08A00E07F1CCF
S11309D098F80660F8B2B04236D2D8F80800FFB2F0
S11309E050F827004FF0000C01E00CF1010CC67E1A
S11309F05FFA8CFEB645EAD2D0F81CE05FFA8CFCB4
S1130A00142616FB0CF6B6449EF8086006F007069A
S1130A10A642EAD19EF80960B542E6DB9EF801B031
S1130A209EF8009006EB0B0AAAEB090AAA45DCDB48
S1130A3011B1AC1B4C440C7012B19EF8081011702B
S1130A401BB1C3F800E000E00020BDE8F08F4009CE
S1130A5018BF40F01800704710B5DFF8844A206AC8
S1130A6001F0E7FB0246206ABDE81040002101F0D6
S1130A70FCBB0B38102834BFDFF8440ADFF8640AE3
S1130A80006870473EB568460021002200230EC06E
S1130A90DFF8940901788DF80010817A0A0018BFF4
S1130AA0022914D10079DFF8385A00F0BBF8044663
S1130AB000F00EF858B1286A0122002101F02EFB43
S1130AC000F006F818B140F25B2100F066FB37BD78
S1130AD0286A6A46214601F060BB2DE9F0410446CC
S1130AE004F01F001B2886B034D2002000906B460F
S1130AF0002200212046FFF761FF07002AD020468C
S1130B00FFF7B7FF5FEA000824D0DFF84869DFF891
S1130B10B459F06B804515D001A84146062201F076
S1130B2039FC306AC6F83C8001A901F01FFC88B981
S1130B30306A03A901F028FCB5F91C10306A01F0F1
S1130B40F0FB38B90098B06277620098002818BFAB
S1130B50C06801E08A200EE0F06229798C421CBF53
S1130B602C71FFF78FFF96F90D00C101306A09B2AD
S1130B7001F000FE002006B0BDE8F081DFF8440972
S1130B8000797047DFF83C09B0F91C00002854BF15
S1130B9005216FF0040108180A2190FBF1F040B21E
S1130BA070470A2110FB01F0FFE7F8B500F5D77292
S1130BB040F277239A4201D38B20F2BDDFF89448A8
S1130BC0DFF80059A26A0A23002A1EBFAE7F06F08E
S1130BD0C006802E12D0A67B86B992F9026016FB5D
S1130BE003F7B842B8BF16FB03F007DB92F9032002
S1130BF012FB03F68642B8BF12FB03F0217B61B1FE
S1130C000146206A01F08DFB18B140F2B92100F0D1
S1130C10C4FA206A01F098FB01E010FB03F0A883FA
S1130C200020F2BD38B50446FFF723FF90B100233E
S1130C30002200212046FFF7C1FE58B104F01F0531
S1130C401B2D07D22046FFF702FF18B90B2D01DB3D
S1130C50284632BDFF2032BD7047C0B2704710F144
S1130C60630F01DA0020704710F1240F01DBFF202D
S1130C70704764300002411100EB91608004000E63
S1130C80704770B5DFF8CC47DFF8085A00202064BD
S1130C90687828B101F072FD012818BF032801D13A
S1130CA0002070BDE16ADFF8343ADFF81828002923
S1130CB01FBFA66A3669002E022817D123649069E3
S1130CC000F5FA709061E07C18B1002000216422E4
S1130CD003E0E87829794FF4A0722070A280617053
S1130CE0A878A0708020E080002030E0DFF8F05980
S1130CF09069AE4213D1DFF8EC39236400F57A70C1
S1130D009061E07C88B90879207001228B78087999
S1130D109A40101891F903201018401E0CE0236427
S1130D2000F5FA709061E07C18B100202080642006
S1130D3005E0487820708878607008780001A08009
S1130D404879A07008890001E080C8880001A0608B
S1130D5000F0FBFBE07094F90200010048BF404240
S1130D60C0B270BD70B50446DFF8E866257896F920
S1130D70140008B18C2070BDFFF783FFB075DFF855
S1130D801429DFF8400741780174690101F5807185
S1130D9081619379716C002BB37B1DBFAD1EEDB2E5
S1130DA021F0020141F0020173B9127862B1627854
S1130DB0920609D56FF00102327541F00101826992
S1130DC002F50872826104E049084FF0FF304900DF
S1130DD030757164032000F001F96A1C306A4FF425
S1130DE0807392B2214601F0F1FC691C884203DA57
S1130DF040F21B4100F0D1F9002070BD000000005A
S1130E00F8B5DFF8505695F914100024091D04298B
S1130E100FD8DFE801F0080E10100300FFF7A2FF5F
S1130E20040008D0F2BD2C75286A01F07BF98D20EE
S1130E30F2BD8C20F2BD01F0E5FCE8B1286CDFF8CE
S1130E409C18884218D1A87DB0B1DFF8440A006824
S1130E50002811D5DFF83C0AC168C160012200688E
S1130E6000F00F0002FA00F0401E014204D100F02D
S1130E70B3FB642001F0C8FC01F0E0FC064695F9E0
S1130E80140010F1010F1CBF95F9140010F1020FAA
S1130E9029D195F91400DFF82C764042287501F029
S1130EA0D3FC7862296C387949B9FFF7BBFE014657
S1130EB06A6C286A07F1100301F066F90BE0FFF78A
S1130EC0B1FE07F11001009101466A6C286AD5F859
S1130ED040C02B46E04760B1002028758C244FF0B9
S1130EE0FF30786202E0002028758D24286A01F022
S1130EF019F9304601F0DFFC2046F2BDDFF8140A90
S1130F00FFF70EBC2046BDE8104001F0D4BC000041
S1130F10F8B501F093FCDFF810550446A87A0128CF
S1130F2003D1204601F0C7FCF1BDDFF8EC19DFF86E
S1130F302465DFF8E079402008600122306A01214D
S1130F4001F0ECF8DFF8D4194FF40010086069469A
S1130F500FF2840000680090306A01F0FFFB18B1C2
S1130F6040F2C74100F006FE02208DF800006946F9
S1130F70306A01F0D0FB18B140F2C94100F0FAFD2B
S1130F80306A01F0EDF80021002001F097FC00F038
S1130F900DFB0120A87296F91400001D072810D833
S1130FA0DFE800F0130F0707040B0B0B01F019FD2A
S1130FB00BE06FF00300307507E0892000F041FB7F
S1130FC003E040F2ED4100F0D5FD204601F073FC52
S1130FD001F0BAFDF1BD0000040100002DE9F04D5F
S1130FE0DFF844540446A87AA04282B063D00FF2DA
S1130FF0CC01DFF82C690968DFF81889DFF854742C
S1131000DFF818A9009103284FF4001B4FD8DFE83C
S113101000F047023E2B01F0A0FD386A694601F05A
S11310209DFB18B140F20A5100F04AF802208DF8F5
S113103000006946386A01F06EFB18B140F20C51A9
S113104000F03EF86879002814BF00220222386AB2
S1131050022101F0DCFD18B140F2115100F030F82A
S11310600320032CA87218D0CAF800B00220A8727A
S11310702879FFF7D7FD0146386A002201F08DF880
S113108018B140F2215100F01BF8022C13D0002CAF
S113109018BF032C0FD10020A872C6F800B00AE0D4
S11310A0022C08D1CAF800B00220A87203E040F272
S11310B0375100F005F8BDE8F38D0000040200008C
S11310C04046FFF72DBB000010B5032804460ED898
S11310D0DFE800F009020909FFF71AFFBDE8104034
S11310E0002000F0C7BB012000F0C4FBE1E1BDE833
S11310F0104040F2555101E780B500F00FF804D5D7
S113110000210175006A01F00DF8DFF8340A407A15
S1131110012802D1BDE80140FAE601BDDFF8240A46
S113112090F9141000297047DFF8140A407A7047C8
S113113080B5032801DB012002BDDFF8041A4872E0
S1131140897A884218BFFFF7BFFF002002BD2DE94E
S11311507C4FDFF8F06903EA010BD6E9068929EA36
S1131160010528EA000402EA000A45EA0B0544EAFC
S11311700A044D4508BF44450DD0CDE9002302467D
S1131180306A0B4601F0ECFA18B140F27D5100F0E0
S113119004F8C6E90645BDE8738F0FF6E010FFF7C3
S11311A0BFBA38B5AB4D0446287BE8B1200018BF60
S11311B0DFF8942904D1A87C08B1402200E0002281
S11311C00023DFF884090021FFF7C1FF002C14BFBE
S11311D008220022286A082101F019FD20B1BDE887
S11311E0344040F2B95189E631BDF8B50446022CC9
S11311F00FF6881503DB40F2E25100F0A5F8954E96
S1131200307B002840F09780874FB87A012803D0BC
S11312104FF4BD6100F098F8002107F1280000F0B8
S11312206BFF306218B940F2EB5100F08DF8306A70
S1131230052101F02EF918B140F2EE5100F084F8C6
S1131240306A0FF64C1101F0F5FC18B140F2EF5181
S113125000F07AF8306A01F021FD18B14FF4BE6154
S113126000F072F84FF0FF30DFF8E0280623014663
S1131270FFF76DFF306A4FF0011101F008F818B163
S113128040F2056100F060F8306A4FF480320021CA
S113129000F0EBFF306A09224FF0FF3101F0B7FC98
S11312A018B140F20C6100F04FF8012030730223B2
S11312B0DFF89C0800F043F8BDF80000C0054CBFFF
S11312C00020BDF80000707301F09CFAFFF769FF7D
S11312D0F88BFFF762FB01F061FD00F081F83879CB
S11312E0FFF7FBFB18B140F21F6100F02DF8F8790D
S11312F000F040F8387A00F054F8307C00F082F8BE
S1131300787900F0C7F800F020F900F0EDF8B07C2F
S113131000F0ECFAB7F91C00FFF747FC388C00F03A
S113132085F8788C00F0A2F8B87900F0CDF8601E4A
S11313308041C00FB8722046FFF7C6FEF1BD018898
S11313407F22684601F09EBD2846FFF7E9B980B5C3
S113135000F00CF8012100F023FF10F5007F02D10A
S11313606FF07F0002BD8005001602BDDFF8D407D0
S1131370006A704710B504463648017B51B1611EBE
S11313808941006AC90F01F0DBFC18B140F25A61CF
S1131390FFF703FF2000DFF8A81718BF0120C8716A
S11313A010BDF8B5044601F049FA05461E48294E19
S11313B00472377BFFF7CDFA00F0010080F00100E2
S11313C0074204D0306A84F0010101F01EFE284671
S11313D0BDE8F24001F06FBADFF86407007A7047A5
S11313E01C48017B01B9704780B5006ADFF86417B7
S11313F0002201F092FC20B1BDE8044040F2856176
S11314007CE501BDDFF83C27117B107401B97047FE
S113141080B50146106A01F087FC20B1BDE80440A4
S11314204FF4D2616AE501BDC05F00202549DFF8B1
S113143014370884197B01B9704780B50146186ACE
S1131440002201F063FC20B1BDE8044040F2A16138
S113145054E501BD48650020DFF8E406008C7047C0
S1131460DFF8DC06408C7047548003001549DFF830
S1131470D4364884197B01B9704780B50146186A8F
S1131480002201F03CFC20B1BDE8044040F2B76109
S113149034E501BDDFF8A8164A79824200D17047CD
S11314A010B58C7A4871012C02D0FFF731FD00E0B1
S11314B010BD2046BDE8104090E50000887A030086
S11314C0305F0020C05F002010B50446FFF74EFFD8
S11314D0214601F0A0FDDFF86806847110BD00000C
S11314E048650020345F002038B504467F2C0CD1B9
S11314F000F025F8DFF86006FFF721FFBDF80000D3
S11315007E24C00558BFBDF8004001F097F9054698
S1131510FFF71FFA60B960B27E2805D1DFF8241600
S1131520896A09B191F904007E28B8BFFFF717FA58
S1131530DFF80C060473284601F0BDF931BD4FF6FF
S1131540FF70ADF8000002237047DFF8F40590F94E
S11315500C007E2807D1DFF8EC05806A08B97F20EB
S1131560704790F90400704710B501F057FD8004EE
S11315701AD500F02BF801F051FDC0044CBF032034
S11315800120002101F04CFD01F048FD00F0FF00B6
S11315904FF47A7111FB00F104F14800BDE81040EA
S11315A0DFF8B825FFF7B2B9BDE8104010B500F078
S11315B00DF804F1480000F0E0FDFFF7E1F920B96F
S11315C0BDE81040002101F02BBD10BDDFF87445CB
S11315D004F1600000F0D1BD80B501F01FFD4005AD
S11315E0BDE804404CBF03200120002101F066B98E
S11315F010B5DFF8504594F9140003280DD100F01C
S113160030F9DFF83C154FF0FF3048620022216BBF
S1131610BDE81040402001F088B910BD38B504463B
S1131620FFF7C4FFDFF81C5501F01FF9686314B11C
S113163001F0BDF801E000206874BDE8314001F01C
S1131640D0B938B50446DFF8F814DFF8F8544FF091
S1131650FF30486201F009F9686395F91400012824
S113166002DABDE831407FE7A87D08B1686BA86362
S113167000202875286A00F055FDA87B10B10120D0
S1131680E87331BD2046BDE838400022002101F056
S11316904CB900004C61002010B501F0B3F8DFF83C
S11316A0A44498B1FFF76CF980B104F1480000F04C
S11316B064FD01F0B7FC002101F0B2FCDFF8A024C6
S11316C042F2107104F16000FFF720F9A07C18B118
S11316D0BDE8104000F06BBA10BD00008F2100007F
S11316E0AC1B0000952100002DE9F043DFF85444C1
S11316F00FF28849206A89B005AA022101F069F82D
S1131700050003D140F6E70100F0A8F89DF81400A5
S1131710DFF82C64BDF8168007281CBF70790028F8
S113172019D1B8F1060F16DB08F108008B2812D284
S1131730002000904346DFF82C74206A3A4629467C
S113174001F04FF8404503D04FF4106100F086F8E3
S11317503878000602D5FFF707FF7CE001208DF8FA
S11317600800CDF804806A46206A294601F035F85D
S113177018B140F6171100F071F8787800F00700FE
S113178002281ED1FFF712FF94F91400032808BFA2
S1131790B8F1060F11D19DF80D0070B178780009E9
S11317A000F0010500F05DF84FF0FF3070622A464A
S11317B000218F2001F0B9F84DE0F07900284AD1DA
S11317C005E09DF80D0010B10020FFF711FFF0793E
S11317D09DF80D10084203D040F63F1100F03EF88A
S11317E0F07958B17878800608D5307A30B1206A1B
S11317F001F00EFC30B1FFF7B7FE03E0FFF7D6FEB1
S1131800002060743878401C404503D040F65F11D6
S113181000F024F807EB0805307928700020687080
S11318209DF80E00A87095F90200FFF718FAE87009
S113183008F10801FF202871C9B20098000C6871F2
S11318400098000AA8710098E8713846627C01F09B
S1131850EBFB0020607409B0BDE8F0834846FEF756
S11318605FBF00202075206A00F05CBC0FF21430CA
S1131870FEF756BFDFF8C812897A012907D1DFF8CD
S1131880E8120B7898421CBF087001F068B97047E1
S1131890044008404C50084010B5DFF8A402446AE4
S11318A0002C14D400F0D0FF001B40F2E93180B2C8
S11318B088420CD3A34890F91400032803D1BDE84F
S11318C01040002094E6BDE810408920B9E610BD20
S11318D010B540B900F06CFF00F0B0FF0446FFF70C
S11318E0DBFFFFF70FBBBDE81040D5E738B5954DDA
S11318F00446287B60B1200002D100F083FF08B1C8
S1131900402200E00022002340200021FFF71FFCBA
S1131910AC7431BD7C1B00000840084018600846C8
S1131920186008442DE9F04780461446600688B0E4
S11319301D4648BF002002D4200602D50120FFF72F
S1131940ABFEA0037F4E2DD500207074694640463F
S113195001F00BFA30BB9DF80800844F02280DD12A
S1131960BDF8000001F0B4FCFF2815D0396831F847
S113197010004FF4567108420ED113E0032811D120
S1131980684601F0C4FCFF2806D0396831F810001D
S11319904FF45671084205D0306A01F0E3F908B9F2
S11319A001207074600410D500F02CFF68B1FEF7BC
S11319B0E7FF50B101F0E2FC074601F033FB874238
S11319C003D00021384601F02BFB200744BF4046DA
S11319D0FFF78AFEE00548BFFFF7C6FD4FF4185035
S11319E0044218BFFFF7E2FDE00244BF0120FFF705
S11319F015FE600244BF0120FFF710FEE00144BF62
S1131A000020FFF70BFE96F914000FF2701701285F
S1131A1069DB306ADFF8289121034FF0FF3A33D5B0
S1131A2096F9141001295EDB96F9141003295ADA89
S1131A3000218DF8181001218DF8141003A900F06D
S1131A40A6FC0398306300F010FF7063B07D08B10A
S1131A50706BB06396F91400012804D002280ED1EB
S1131A60032030753FE000203075306A00F05AFBE7
S1131A70C9F824A0B07BA8B9316B002218E04FF458
S1131A80016100F077F82EE014F0845F13D0002198
S1131A90317500F047FB042000F08BFEC9F824A048
S1131AA0B07B10B10120F0731DE0002200218D20D5
S1131AB000F03BFF17E0A00248BF892002D4A00138
S1131AC003D58820FFF7BDFD0DE0600048BFFFF798
S1131AD083FDA00007D526480068400403D40021F4
S1131AE0002000F0EBFEA00744BF4046FFF780FD56
S1131AF0002C04D5FFF75AFD4046FFF779FD05F0A9
S1131B0002010023994211D0404600F003FB022851
S1131B1002D0032802D005E0892000E08D20FFF7E1
S1131B2090FD03E040F67B0100F024F805F0040189
S1131B300023994218BF01F093FC08B0BDE8F08778
S1131B40C05F002048650020406700600A00FA93E7
S1131B505680030064770020588003001D090000AC
S1131B602109000034760020BA7F0020FC5E0020AA
S1131B70044008403846FEF7D3BD00007068792E53
S1131B80630000006C69627261696C2E6100000080
S1131B900000000001006003010101016400B600BF
S1131BA06400C000000000000B000000000070474B
S1131BB001F062BC80B501210C4801F00BFD042149
S1131BC0072002F075F80A480A490B4A016004210B
S1131BD01160022141620421084A1160816A41F0C6
S1131BE00201816201BD024802F0B2B8000508009A
S1131BF0002005400108030080E200E000E100E06D
S1131C00602080F31188704702F078B903460A46D1
S1131C1099A10420FFE70CB480B502AA00F055F89E
S1131C2001BC5DF80CFB00B589B000F0B7FF0021E2
S1131C300791069105910491039102910191024645
S1131C408E49009100230FF248210120FFF7E3FFA2
S1131C508B48C17843780278039181680291818826
S1131C6001918178009143200FF23021FFF7D3FFD7
S1131C7009B000BD8349087070470EB410B504461E
S1131C8080480078A1B080B102F0C2F868B1802227
S1131C906946022000F0B5F823AB224600210FF27A
S1131CA0791002F09EF900F0DBF821B010BC5DF869
S1131CB010FB0C220021744802F011BB724931F868
S1131CC01020521C21F8102070472DE9F0410746DE
S1131CD06C480078A2B00C469046002690B93800B3
S1131CE018BF012F0ED0042F18BF052F0AD0312F93
S1131CF018BF332F06D0372F1EBF3B2F4FF6FF716F
S1131D008F4275D102F084F8002871D0802202A994
S1131D10384600F076F8002C68D007E08DF804000F
S1131D20012201A9002000F077F8641C207801004A
S1131D305CD0A0F130020A2A05D20A2101FB060078
S1131D40A0F13006F1E7422818BF44280CD04628F9
S1131D5027D0572808D0622836D0662821D06C288E
S1131D601CD070281DD0D9E7422807D158F8042B7D
S1131D706946012002F0DDFA01220DE0572858F8E7
S1131D80042B694604D1012002F0D3FA022203E0B5
S1131D90012002F0CEFA04226946C3E758F8046B26
S1131DA0C3E758F8041B462807D10026885D00289D
S1131DB01EBF761CF6B2FF2EF8D1F2B2002000F05E
S1131DC02BF898B90026B0E758F8047BB8B200287D
S1131DD0ABD002F02CFF0546B8B202F010FF01466A
S1131DE0EAB2002000F018F800289ED000F038F87D
S1131DF022B0BDE8F081122804BF002003F01FBC0C
S1131E00704710B5214C616001462270606802F091
S1131E1005F8607010BD0000F8B515000C461B4EA7
S1131E201CD07078317873680F1AFFB2EDB2BD42DE
S1131E30B8BF2F463A462146184402F0EEF97078AE
S1131E4038187070ED1B3C44E8B238B17068711CEE
S1131E5002F047F80028E4D00120F2BD0020F2BDD2
S1131E6010B50A4C6068611C02F03BF808B101200F
S1131E7010BD607010BD000057460000647700205C
S1131E80EC460300BB7F0020C0760020CC76002007
S1131E904242387042424242574242004242425712
S1131EA0444200002DE9F0410125012818BF2028F3
S1131EB094B004460F4690461E4623D10AA82549ED
S1131EC0242200F077FA68460AA9242200F072FA64
S1131ED01020012C18BF202CADF82400ADF82600EA
S1131EE008D0022C18BF212C04D0032C1CBF222C98
S1131EF0232C14D1012E0197ADF80C8004D14FF49A
S1131F00805005E001200BE0022E03D14FF4405035
S1131F10ADF80A006946204603F0B4FB0546E8B272
S1131F2014B0BDE8F08180B503F04FFCC0B202BD2F
S1131F3080B503F047FDC0B202BD0CB480B50A46BB
S1131F40014602AB044802F04CF802BC00205DF8E4
S1131F500CFB0000405003005F5900007047000074
S1131F60890001EB401000F18440026070470000DA
S1131F7010B50446FFF744FE4E484AF6E8510160A6
S1131F80C162016B01F00F01022913D14A4A0121F8
S1131F901160806B00F00300012818BF022809D1EA
S1131FA000221C214548FFF7DBFF002200214448A2
S1131FB0FFF7D6FF200A0028424808BF24024FF248
S1131FC00F0104804180BFF35F8FBFF34F8F3E4802
S1131FD03E4A016801F4E06111430160BFF34F8F91
S1131FE000BFFDE780B5002000F009F830B9BDE876
S1131FF00440E3210FF2EC00FEF792BB01BD2DE992
S1132000F042334C216842428D1815F01F0108D06C
S1132010002802D44842054403E04842284400F121
S113202020052C48A5F12006A84224BF2A48864250
S113203003D3EFF30880854201D300202DE000F0A4
S1132040FDFB81462548006810F0010718BF03F026
S11320503EFD206801468D4206D2A84224BFCD2110
S113206000F80119F9D206E02038002201E000F856
S1132070012B8842FBD32560304603F02FFDE2207C
S113208001E006F8010BAE42FBD30FB103F0FCFCF8
S1132090484600F010FC20682038BDE8F0820C4867
S11320A0006870470A480068203870470C48704739
S11320B00000000008300E404040084060300E40F0
S11320C074300E40000000200CED00E00400FA051E
S11320D00C610020404D00207017002094ED00E0BA
S11320E0000000206D6963726F2D696E7465726EF5
S11320F0616C2E630000000038B50446214804607A
S11321000D46204600F0B8F929462046BDE8344083
S113211000F07EB90120704703F03ABF084611462B
S113212000F0CBB970470846114604F0E5BD022023
S1132130704700207047002070470120704700203E
S1132140704710B50C4611461A46034620460D4CFE
S113215064682468A04710BD0A4840684068004786
S1132160084840688068004710B582B0049C009419
S1132170044C64686469A04716BD024949688969CA
S113218008470000D46200200C3000F099B80C30ED
S113219000F0A8B80C3000F0B7B80C3000F03ABD2D
S11321A00C3004F00DBE00007B630000E763000008
S11321B0F36300001D640000316400002F2100005F
S11321C033210000372100003B2100003F210000A3
S11321D00120704738B500F01BF800212561E1604B
S11321E0BDE8324004F0EFBD38B500F011F82169C4
S11321F0E26829400D0018BF01251143E16004F095
S1132200E2FD15B10020042134BD0020002134BDBD
S113221004460D4604F0DABD38B5FFF7F9FF22692C
S1132220E1682A4021EA0205E56004F0CCFD284675
S113223032BD8069704770B582B005460C0006BF98
S11322400FF25C00006820681646009006B9EE683C
S113225031462846FFF7E0FF32466946284604F037
S1132260EAF80CB10098206073BDF8B500F10C07D2
S11322700C4615463846FFF7ABFF022628B12A461E
S113228021463846FFF7D7FF00263046F2BD80B519
S11322900C3001F00111FFF79DFF002002BD00008A
S11322A0FFFFFFFF38B504460D4603F0A6FE08B94C
S11322B0022032BDA9B22046BDE8344000F023B963
S11322C038B50446154689B2FFF7ECFF010005D185
S11322D029462046BDE8344003F0B2BE32BD0C307E
S11322E003F0B1BF70B500F00AF8010006D1324620
S11322F029462046BDE8704003F0EABE70BD04469E
S113230015461E4689B2CDE770B5FFF7F8FF010008
S113231006D1324629462046BDE8704003F099BEF6
S113232070BD7CB50D466946044600F02DF89DF855
S113233000102A46204604F04DFD04F10C06014627
S1132340304604F0EBF876BD30B583B069460446F8
S113235000F01AF804F10C05284604F015F90246B9
S11323609DF80010204604F09DFD3EBD38B50C4696
S113237000F10C050021284604F0D0F82146284637
S1132380BDE8344004F0BDB80C3004F0F7B80C30AC
S113239003F0A1BC62B38B0708D0521E11F8013BB5
S11323A000F8013B00F024808B07F6D1830740F04E
S11323B0208000BF103A07D330B4B1E83810103A87
S11323C0A0E83810F9D230BC530724BFB1E8081094
S11323D0A0E8081044BF51F8043B40F8043BD2077E
S11323E024BF31F8022B20F8022B44BF0B78037072
S11323F07047083A07D3B1E80810083A40F8043B9C
S113240040F804CBF7D25307E4E7000001207047FB
S113241010B5044603F08BFC08B1002010BD204623
S113242010BD70B50D00044614BF012600261F21FF
S1132430304604F08BFD0020606225621F21304687
S113244004F084FD4FF6FF76002001E0401CC0B28A
S1132450E968884209D2A968182212FB00F21144E3
S1132460C989B142F2DA0E00F0D13146204600F0BB
S11324704AF8304670BD704710B5044603F003FDBA
S1132480A06A0100DFF8301208BFDFF8300288606C
S113249010BD38B500F10C050C462846FFF7B6FF11
S11324A028B103F075FD012801D0022032BD214678
S11324B02846BDE8344003F038BD10B50C4603F09F
S11324C049FD1CB103F064FD0128FBD110BDF0B53A
S11324D004467B48066883B00D466946204604F0EE
S11324E04DF8B5F91220012747F6FF70247982428E
S11324F007D09DF80010304604F06CFCA04238BFB1
S113250000273846FEBD2DE9F04F85B04FF0000995
S11325108DF801900446684F8DF800900D46386898
S1132520D7F804A00290CDF804A0204600F0C1F82A
S11325308046266AD4F824B000F0EBF8002818BFCF
S1132540D34505D1BBF1000F02D0A8B240454BD012
S1132550002E1CBFB068002801D0F06808B9032021
S11325609CE0CA4601E00AF1010AF068824518D2EB
S1132570B068182101FB0AF10144A8B2CA8990424B
S113258022BF088AAAB29042EDD301208DF8000040
S11325908B462046FFF79BFF0028E4D001208DF8EE
S11325A0010003A9204603F0E9FF204603F0ECFFF5
S11325B082469DF80100C0B1217900F073F83868B3
S11325C060B3B04223D17A680AB35A451FD1A9B285
S11325D0884506D00023204603F0D8FF5FEA0009AF
S11325E012D1C4F824B0658057E09DF8000048B1CA
S11325F0BBF912209DF80C10A4F10C0004F0EAFBC6
S11326000146DAE7012049E000F04BF83FE00168B9
S113261021B13268914208BF416800D0316800F0AE
S113262045F881465FEA090004D1DBF8001000F0A8
S11326303DF881465FEA09000FD100F06AF810B155
S11326403E60C7F804B0C4F824B0658001235A463C
S1132650A9B2204603F09AFF81465FEA090005D13A
S1132660BA685946A4F10C00904716E000F051F8FE
S113267098B10298386001987860386808B100F021
S113268014F800F00EF8786838B100F00EF87A68A3
S113269000234146204603F079FF484605B0BDE8D3
S11326A0F08F5146204603F059BF0168204604F0DC
S11326B0EBB9408870470000DC62002077240000FA
S11326C0D462002001281CBF0428022801D1012063
S11326D070470020704738B500F03CF840B1687886
S11326E0FFF7F0FF20B1287869780843400701D547
S11326F0012032BD00F00DF828B103F049FC400779
S113270001D5022032BD29462046BDE8344003F0FD
S1132710BFBE20467AE60C30DDE738B500F01AF883
S113272038B16878FFF7CEFF00281CBF687804280A
S113273001D1012032BDFFF7ECFF28B103F028FCE2
S1132740800701D5022032BD29462046BDE8344029
S113275003F0C6BE0D4604462878B3E70C30DCE728
S113276030B583B00C30DDE90645CDE9004503F012
S113277058FB3EBD0C3004F05BB9000000207047EC
S113278038B51446FEF73CFB05466CB128000BD067
S11327900A48007818B10A490120087004E00022B0
S11327A00021284600F0C1F8284632BD7047704722
S11327B07047044908707047000000005665002007
S11327C057650020CB7F0020012070470C3004F0B7
S11327D0C2B80846114604F02BB80846114604F066
S11327E049B870B50C4615461E460C30FFF7ECFF91
S11327F038B1049B324629462046BDE8704003F0B8
S11328004BBB70BD0020704704F00EBC38B50A48BD
S11328100C4601884FF6FF75ADF8005002237F2265
S1132820684604F08BFCBDF80000A84202D020806A
S1132830012032BD002032BD5A800300EFF3118025
S1132840602181F31188704780B504F038FD04F0ED
S113285043FD80B202BD80B504F031FD04F03CFDBF
S1132860FA21B0FBF1F080B202BD80B504F027FD7F
S1132870BDE8044004F030BD80B504F07CFB07489B
S113288000214160001D04F0A7FC20B139210FF2A2
S11328901400FDF745FF002002BD00000077002072
S11328A000F008B873797374656D2D74696D657281
S11328B02E630000704780F3118870470120704731
S11328C038B504466048614D002912BF00210178E3
S11328D0491C01700120012100F0A7FD2878411C4A
S11328E089B2032000F0A1FD200003D000F096FB84
S11328F0002808D500F092FB40054CBF03200120BE
S11329000021FFF7DBFF524844702846BDE83840F9
S113291001224FF47A71FFF733BF80B5FEF7ECFB69
S1132920BDE80240312004F0FDBE38B50446402C19
S1132930154606D100F072FB00F08020B0F1004F84
S113294003D000210020FFF7B9FF002C3AD0402C1F
S113295024D0882C18BF892C38D08C2C38D08D2CBE
S11329602DD08F2C39D13B48007804280FD155B194
S11329703949022008704CF25032BDE838403749DA
S1132980002004F0A9BFFEF7B7FB312021E0FEF7D9
S1132990B3FB002D0CBF312000201AE0FEF7ACFB86
S11329A005F01AF828482E4900780978884204D29C
S11329B0BDE834400021012082E7402009E0FFF710
S11329C0F5FE03E0FEF798FB002002E0FEF794FB1F
S11329D08D20BDE8324004F0A5BEBDE83440B421EA
S11329E045E01D480078022800D0704780B51D4896
S11329F00078012807D0032810D11B48007802284A
S1132A0018BF7C280AD11549002004F0A4FFFEF762
S1132A1073FBBDE80240002004F084BE01BD38B55C
S1132A20FFF70CFF05460C480078002410B9FDF7A9
S1132A3087FF04462846FFF73EFF1CB1BDE831403E
S1132A4000F00EBD31BD0000CC7F00200A7F0020C5
S1132A504C610020F2630020D07F00201B2900007D
S1132A60F5630020CE7F0020CF7F0020E9210FF204
S1132A700800FDF755BE00006D61632D7068792E66
S1132A8063000000890001EB401000F18440026003
S1132A90704730B5524887B00068040E684604F0A9
S1132AA09DFF8F2C10DA4F484F4C016841F004020F
S1132AB002604FF05013002230255543521C6351DD
S1132AC0062AF9D3016001E0902C06DA4748016830
S1132AD0C909C90141F0200101609DF801000128E4
S1132AE004D14348016841F00401016000220D2132
S1132AF04048FFF7C7FF40490120086003AC04F0D9
S1132B0087FF04F08CFB05F0B4F83C48D0E90023BF
S1132B10CDE9012301208DF8070001A805F048F94B
S1132B2005F0BCFBFFF7A8FE35480FC884E80F008A
S1132B3008208DF8180003A805F0BCFB07B030BDD1
S1132B4040F20160FFF714BA80B50021002000F0C4
S1132B5067FABDE8014000F059B805F0B9BB002898
S1132B6018BF00F00EBC00F00DBC80B505F0F3FBFF
S1132B70014624480C2938BF00EB810002BD80B512
S1132B8005F0EDFB20490204120E51F8221000F06A
S1132B90FF0001EB800002BD0000000010B505F04D
S1132BA0DAFB044605F0DBFBC0B208B9012C07D1FF
S1132BB0072C11D8DFE804F004100608080A0C0EEC
S1132BC0002010BD092010BD022010BD032010BD3F
S1132BD00B2010BD062010BD44F0800010BD000085
S1132BE0FC81E00FB0400E4000A000402C400E409D
S1132BF064310E4054300E4010300E40FC47030048
S1132C00B4480300C4480300044A030070470C306E
S1132C1003F07CBB38B50D46044689B2FFF773FC5C
S1132C20010005D1A9B22046BDE8344003F01BBB26
S1132C3032BD000070B50C4684B000F10C05237E53
S1132C40627EA17E284605F01CFC684604F10C0156
S1132C500C22FFF79FFB6946284604F04FF8211D1C
S1132C60284600F08CF9060003D1284605F040FC04
S1132C700646300005D10FF21C11284603F0E7FF89
S1132C800646300003D1284605F082FB064621683B
S1132C90284600F006F8304604B070BD0C3005F04C
S1132CA070BB70B58AB004460D4668460FF2C00189
S1132CB02422FFF77FFB05B96D46002601E00100E1
S1132CC005D135F81610F2B2204605F094FB010048
S1132CD006D105EB4600F2B2C188204605F094FB0C
S1132CE0010007D105EBC60000F10C01F2B2204649
S1132CF005F0A3FB761C032EE1DB0AB070BD032AAA
S1132D00BCBF0C3005F077BB01207047032ABCBF61
S1132D100C3005F079BB01207047032ABCBF0C308E
S1132D2005F08BBB0120704738B500F015F828B1C9
S1132D3021462846BDE8344005F096BB022032BD4A
S1132D4038B500F009F828B121462846BDE83440DA
S1132D5005F080BB022032BD00F10C050C4628466C
S1132D6005F00CBB0C3005F09BBB084602F07EBF9F
S1132D70FFFFFFFFFFFFFFFFFFFFFFFF000000005B
S1132D80000000000000000000000000000000003F
S1132D9000000000000002080000000010B5144C00
S1132DA0207858B91348018808237F22201D00F099
S1132DB069F8201D00F011F80120207010BD10B535
S1132DC00B4C01460822201D01F027FA201D00F0BB
S1132DD004F80120207010BD074880B50146082280
S1132DE0064801F01AFABDE80140FEF7F9BA0000FE
S1132DF0587700205C8003005C7700206477002013
S1132E0038B50C4611461A467F2908BF002141F205
S1132E10F0139C4218D154490B6849680024D5B278
S1132E207DB30355641C1B0A521EE4B2042CF6D372
S1132E30E4B2082C25D2D3B2002B1FBF0155090AD6
S1132E40521E641CF4D131BD04F47045C4F30B0369
S1132E50B5F5805F11FB02F108BF43F07E630BD030
S1132E60B5F5005F1CBF04F47044B4F5405F08D1AD
S1132E7043F07C6343F40113C918BDE8384001F002
S1132E80CCB931BD70B51E00044615461BD04BF2BB
S1132E903460814211D1092E28BF082633467F228F
S1132EA041F202012046FFF7ABFF32462F4920468C
S1132EB001F01CFA38B941F2F01133462A46204693
S1132EC0BDE870409CE770BD2DE9F8430746002437
S1132ED0F807884615466FF00F06DFF8949002D580
S1132EE0652100F049F8E80702D5662100F044F8AE
S1132EF007F47041B1F5805FC7F30B000CD140F0CB
S1132F007E64B4F17E6F264604D32819401E194905
S1132F10884210D36B210CE0B1F5005F18BFB1F506
S1132F20405F05D140F07C6444F40114264602E07D
S1132F30722100F021F8002706E0F05DFF2802D09E
S1132F407C2100F019F87F1CAF42F6D36A08414691
S1132F50204605F02DFB28B14846BDE8F443852101
S1132F60FDF7DEBBBDE8F183F081E00FF447030019
S1132F70E84703000008E00F4846FDF7D1BB70B5F1
S1132F800D4682B00446287858B90021204603F043
S1132F904BFB0021204603F09DFB0021204603F05B
S1132FA0A1FB2878002814BF0420287900F027F812
S1132FB014BF287968798DF801002046FFF7ADFB2E
S1132FC006001AD12878002814BF0220A87900F03E
S1132FD016F814BFA879E8798DF801002046FFF7A8
S1132FE07AFB060009D1287838B16988204603F0B5
S1132FF027FB0121204603F017FB304676BD8DF8F0
S1133000000069462878002870470C3003F062BB42
S11330100C3003F071BB084603F0A0BE00207047DB
S1133020012070470020704770B50446A0480D4643
S11330300178164619B14188491C418070BD20466B
S113304005F0E3FA80B1FEF7C7F938B1A078002E95
S113305014BF40F0010000F0FE00A0702946204695
S1133060BDE870402E2200E070BD70B504460D46E8
S11330701646601C01F04CF910F0070F1ABF41F618
S11330804901884200260121002000F0CEF9207871
S1133090411C89B2022000F0C8F932462946204674
S11330A001F060FF18B1BDE8704005F06FBD8048C5
S11330B08188491C818070BD2DE9F04FA5B001F0D5
S11330C09CFF7B4E814600257088A84600B1758020
S11330D0B188080003D00D2000F0A7F9B5805FEA9D
S11330E0090042D001F08BFD040018BF2578601C54
S11330F001F00EF910F0070F1BBF41F64901884299
S1133100C3464FF02E0B484601F091FD2018CBF139
S113311000010844A0F10801082202A801F07DF88A
S113312002AFF878FDF798FD2946FDF796FD834632
S113313097F902008DF804005E480078B0B1B068D9
S1133140002812D004A8802106F08EF86B1CCDF85C
S11331500080DBB20022494604A801F06DFF9DF90E
S11331600420B368594604A898479EE0484606F0F0
S113317089F90028504D1ED00521484601F0A4FFCE
S113318082460320FEF79AFD4C4F4D490AF0070092
S11331903870FF20087084F801B09DF80400A07016
S11331A09DF80800E070484606F03FFD03284846B5
S11331B002D107F077FE6AE006F027FD00F0050073
S11331C0042807D03878032804D1484604F0F5FAD7
S11331D000285CD105F00EFD18B105F00BFD0128A7
S11331E002D13878002860D1F268100004D00021A0
S11331F048469047002858D12878032818BF042847
S113320005D0022821D12F480078C0071DD405F02D
S1133210F1FC032819D1484606F0BFFDB0F5004F74
S113322013D1484606F0DCFD2749098881420CD0B9
S1133230484606F0EAFC000707D4484606F0E5FCD9
S1133240400632D5387801282FD12878042804BFC5
S11332503878012809D11D495FEACA6081F80080E5
S113326003D504F082F94FF00108387820B1012821
S11332700AD0032804D00AE0484607F0C7F906E05C
S1133280484608F01FFB02E0484608F069FB28782E
S113329004280AD10D48007888F00101084204D0BE
S11332A00A490020087004F060F925B0BDE8F08FE9
S11332B0D07B0020566500202A770020CE7F002096
S11332C0CF7F00202E7700208A610020FF7E00201F
S11332D0F8B5274D2E68040001D1FF20F2BDFFF799
S11332E0ADFA244F29683A7821F8124036F8021BC7
S11332F0A142FBD1FFF7DFFA29683A78B01E401AE1
S11333004010C1B2914208BFFF20C0B2F2BD2DE906
S1133310F843194C174D26688146287806EBC007F8
S1133320FFF78CFA804608224946384600F075FFBC
S1133330F88800E00836F188814202BF31883A8873
S11333409142F7D171887A88914202BFB188BA88D4
S11333509142EFD14046FFF7AEFA20682A78301A3E
S1133360C010C1B2914208BFFF20C0B2BDE8F283D1
S1133370005F0020EB630020045F00200020704702
S11333807047704770477047704770477047704781
S113339070B5044643381E4D08D0401E012809D993
S11333A0801E01280ED9C01F31D02AE0BDE870402C
S11333B00AF08FB80AF065F820B10AF08AF80028FC
S11333C0FBD170BD134E307808BB01203070002053
S11333D00AF0F8F8442C11D00CD3462C05D00DD3A8
S11333E0472C07D140F6010001E040F60200FEF749
S11333F0BFFD03E0E9212846FDF792F90020307073
S113340070BD2846BDE87040FB21FDF789B970BD49
S1133410D0500300B37F0020002070477047002085
S11334207047704770477047704770470020704777
S11334307047704770477047704770477047002067
S11334407047704700207047704770477047704757
S113345070477047704770477047704770477047B0
S1133460FDF7FABA70471CB5059C0194049C0094BE
S1133470FFF7F8FF13BD00000AF012B9890001EB51
S1133480401000F1844002607047890001EB401055
S113349000F18440006870470122DFF8A81610B5D7
S11334A0884232BF0022DFF8A016884201D21446B7
S11334B000E002241021DFF89406FFF7DFFFDFF8B5
S11334C09C07016821F0807141EA0461016010BD2C
S11334D0DFF87C16DFF87C360A6802F04072984206
S11334E038BF002204D3DFF87837984238BF01226E
S11334F0086820F0407040EA02600860704738B500
S113350000F013F841F6713020600AF00EF9002142
S113351005E038B500F009F841F671322260FFF792
S1133520D7FF0DB10020206031BDDFF83847256892
S113353005B101257047C01C0F2801D20007704750
S11335404FF070407047000038B50446002500F085
S11335502FF9DFF8FC26DFF89016944208D0DFF844
S1133560F426944206D0DFF8F026944204D006E014
S1133570086802E0486800E0886800F00700401E20
S113358003281BD8DFE800F002050C080AF00FF945
S113359004E00AF012F901E00AF00CF905460DE026
S11335A00AF0B6F8DFF8B4160968090E01F0010153
S11335B00122491C02FA01F1B0FBF1F5284632BDA3
S11335C0DFF8A4164A68D20702D40A680242FCD182
S11335D07047000070B5020A0C4602F00F02002189
S11335E0521E092ADFF88C5614D8DFE802F00514BD
S11335F01313071619131C20DFF85055C0F30436B3
S113360011B10846FFF7DCFF224631462846BDE8E3
S1133610704033E770BD1035F0E730350121EDE738
S113362038351021EAE740354FF48031E6E7DFF81A
S11336304856E3E770B5DFF83416DFF814260E6851
S1133640DFF81016DFF81446012510F478105DD069
S1133650B0F5003F2AD0B0F5802F21D0B0F5002F6F
S113366054D0B0F5202F27D0B0F5402F46D0B0F578
S1133670602F66D0B0F5901F3BD0B0F5A01F24D0CA
S1133680B0F5B01F2AD0B0F5D01F1CD0B0F5E01FA4
S113369022D0B0F5001F2CD0B0F5381F39D04FE040
S11336A00AF045F8E168C1F308210AE00AF03FF89E
S11336B0A168C1F3082104E00AF039F86169C1F393
S11336C00421491C12E0104615E01046FFF73CFFA8
S11336D0216A01F00F0107E008460CE00846FFF7F5
S11336E033FFA16A01F0030105FA01F1B0FBF1F621
S11336F027E0DFF86405FFF727FF1FE0DFF87C050C
S113370000F056F807281CD0092819D10AF00FF840
S113371014E0DFF86C0500F04BF804280CD00728FF
S11337200FD008280CD10AF002F82168C1F3042153
S1133730491C01FB00F604E00AF014F8064600E018
S11337400026304670BD0000030903F00F03012278
S11337505B1E072BDFF8041528D8DFE803F0040606
S11337600A0E10141C27086800E04869C0F30420FE
S113377070470868C0F300607047C86800E0886854
S1133780C0F308207047DFF8FC3498420ED1086A71
S113379000F00F0006E0DFF8F034984206D1886AA2
S11337A000F0030002FA00F0401E7047002070474A
S11337B0014601F00F010120491E0729DFF8D0243A
S11337C049D8DFE801F0040F1348202E4836506A28
S11337D000F0070002283AD002D3042804D01CD3F6
S11337E00520704711690FE002207047516901F00C
S11337F00701491E03292FD8DFE801F00F02031146
S1133800F2E706207047916901F00701012904D00D
S11338100229E9D0042902D07047032070470A2006
S11338207047116811F001010FD0012914D109204A
S11338307047DFF86014096801F03001102904D0E2
S1133840202904D0302904D0704707207047042071
S113385070470820704700207047000070B500F0E2
S11338600F0003240325401E0728DFF824640FD823
S1133870DFE800F0042E347C31607C6A0229DFF832
S1133880C40206D003291AD004291AD005291DD050
S113389070BD0424002501220121284600F0BAF855
S11338A0FFF72DFE7460DFF8E403FFF7C3FEFFF7B4
S11338B0F3FD09F02DFFBDE87040002129E6012544
S11338C0E9E702240225FFF7E7FDE4E70124FAE72C
S11338D006F1100404E006F1180401E006F11404F2
S11338E0012908D0022909D003290ED0062913D0B2
S11338F00A291DD070BD0020206070BD0122012165
S1133900002000F087F80220F6E7012201210120BF
S113391000F080F80120EFE709F0FAFEFFF7BCFDA4
S113392001220021DFF84C03FFF7A8FD0320E3E7A1
S11339300420E1E7072902D0092902D070BD002044
S113394000E00120306070BD012906D0042915D0A3
S113395007290CD0082918D070BD0020DFF83413D3
S11339600A6822F0300242EA0010086070BD0122A9
S11339700121042000F04EF80120EFE7012201218B
S1133980022000F047F80220E8E70320E6E770B5DC
S113399000F03DF801220021022000F03BF8217CD8
S11339A0DFF8F85200200229296808BF01204908DD
S11339B040EA41002860082122782846FFF75EFD8E
S11339C06868E17AC00841EAC0006860617AA0884A
S11339D041EAC020A860EE68207AFFF7ACFDE288D7
S11339E006F07F6141EAC221A27A1143227A41EAB8
S11339F0C2110843E860A17B607B090141EA003001
S1133A00E17B0843217B40EA0140286170BD044604
S1133A101120CDE62DE9F84F04288246904671D84E
S1133A20DFE800F04C473D03420001260220012755
S1133A3000240029DFF83892984D5ED0BAF1020FC5
S1133A4002BF2868C0F3011000284FF0000B0AD110
S1133A502868C0074FF0010B05D5286820F0300016
S1133A6040F010002860EE6300F04EF80028FBD010
S1133A70B8F1000F46D0394600F047F80028FAD0D4
S1133A80BAF1020F3ED1BBF1000F3BD02868C0074A
S1133A901BD501222021022000F0C9F819E00426D8
S1133AA0082003270224C4E7102620200527042425
S1133AB0BFE74026802007270624BAE74FF4807624
S1133AC04FF4007009270824B3E70021022000F016
S1133AD08DF8022000F01CF8044601220021022087
S1133AE0FFF798FF2146022000F036F8EE633946CE
S1133AF000F00BF80028FAD004E0E86300F004F8C2
S1133B000028FBD1BDE8F18F21464846FFF7BDBC34
S1133B10401E0328604912D8DFE800F0020C0608B2
S1133B200869C0F308007047086800E0886800F07E
S1133B307F0070475A480068C0F30A0070470020AD
S1133B40704700000148E8010190D00300400E4096
S1133B5004000E4041787D0170B5401E0D460328D7
S1133B6005F07F014C4C404E3DD8DFE800F0022ABE
S1133B70101DC5F308051A213046FFF786FC0028FE
S1133B80F9D12069400A45EA4020206170BD0D4604
S1133B9018213046FFF779FC0028F9D12068C009C4
S1133BA045EAC010206070BD0D4619213046FFF76C
S1133BB06CFC0028F9D1A068C00945EAC010A060D7
S1133BC070BD2B480068606920F0300040F01000A0
S1133BD06061C5F3C310FFF7AEFC216A314A11409E
S1133BE029430843206270BD80400E402B48026880
S1133BF0C2F30112002A18BF002907D0202902D0DD
S1133C00302903D005E04FF4000103E04FF44001F4
S1133C1000E02549C26E0A408A42FBD1490204D51C
S1133C20C06F800A00F0010070470120704710B592
S1133C3002280AD10B0004D01C4B4FF480645C644E
S1133C40196012B1BDE81040D0E7012010BD00009A
S1133C5002001A0003001C000500200000410E4071
S1133C60015A620240000E4040410E40F85E0020BE
S1133C7090400E40B0400E4050410E4006000C00F3
S1133C8098002E0060061400700716000005080056
S1133C9070400E405C410E4010400E4024400E40E7
S1133CA09C400E4000F8FF0FFF03E10764400E4004
S1133CB010B5214B1C6890FAA0F2B2FA82F224EA01
S1133CC0000091400843186010BD1C4901200860A1
S1133CD0704730B51A481B4B01680020002203EBE3
S1133CE0C204194D64682D686D070FD453F832501F
S1133CF0B5F5007F18BFB5F5806F05D0B5F5006F39
S1133D0018BFB5F5803F01D144F480740F4D2D6880
S1133D10ED0553F8325048BF24F01C04294202D068
S1133D20214208BF2843521C092AD8D3C10348BFE3
S1133D3020F01C0030BD000000500E4008500E4022
S1133D4004500E409C460300E841E00F88300E40CA
S1133D500168C90707D58168890704D48168C90740
S1133D60FCD401214160704780B501216B48FFF705
S1133D7031FC6B4901200860002009F055FD012346
S1133D8004220221052009F091FD0120FDF772FFB4
S1133D9000F011F8FDF78DFF62490120087009F069
S1133DA079FE012340226049604809F041FE6049E0
S1133DB00860C00F02BD10B5012201210420FFF7E5
S1133DC029FE5C485C4C016841F00101016000225D
S1133DD0C16841F08071C1600023584958480860A7
S1133DE058480260584A1360022323601523574C35
S1133DF0236000230364564B0B65564911604FF44E
S1133E008071554A1160016841F48071016010BDF0
S1133E104848006800B10120C0B27047D122027046
S1133E204170090A81704D490A78C270501C0870AB
S1133E30042070472DE9F84F80464D1DFEF704FD20
S1133E40002782464FF6FF7B454C15E008EB070040
S1133E50594610F8026C304609F028FE83464F4656
S1133E6039480068C00707D536480068C00503D53F
S1133E7020680028FCD02670FFF7CAFF40B3F8B2D0
S1133E80E9B2884224D2FEF7DFFCA0EB0A0080B23C
S1133E90B0F5FA7F22DCF8B210B95B260127DFE720
S1133EA007F10109FFB2012F08BF6E1FD7D0EDB291
S1133EB0E81E874208BF5E46D1D0A81E874208BFCD
S1133EC04FEA1B26CBD0681E8742BFD15D26C6E7CA
S1133ED0FFB2EDB2AF4208BF002000D00120BDE820
S1133EE0F28F10B50C460246217800200529A4BFA4
S1133EF01046FFF79FFF0421217010BD00B50C4848
S1133F00006891B04022694609F07DFD20B1C2B23B
S1133F1069461220FDF76FFF11B000BD00250800AF
S1133F2010881442A97F0020B06800207C3B030065
S1133F30F45E0020F0ED00E0F00004E0B00F00E0DB
S1133F4055CEACC5000E00E0800E00E0100004E089
S1133F50FF0300400D000100040304E0A87F0020DB
S1133F60200000E070B51346104402E0A4192C7040
S1133F705B1EDCB24CB101F00F060909451E0A2E86
S1133F802846B4BF30243724F0E7104470BDF0B5A0
S1133F90002341B1002806D501232D21B0F1004FA3
S1133FA0117018BF4042002100248D4D55F8247033
S1133FB0002601E0C01B761CB842FBD2F7B20FB951
S1133FC00F0005D0DBB206F13001D1545B1C012196
S1133FD0641C092CEADBDBB23030D054581CC0B26C
S1133FE0F0BD2DE9F24F804696B013A80190154616
S1133FF003A89B4603AE002700248DF800000BE0C5
S1134000012405460198864205D300F0DCF8002817
S11340104FD100F0CEF86D1C9DF800002978301ABD
S11340200A000BD0252903D014B906F8011BE9E7CF
S1134030002C14BF00246D1C29780A0000F0AF8006
S1134040B1F1250216D00B3A092A40F28980283AA8
S11340507DD00A3A12D0521E41D0521E5FD0083A87
S11340605DD0121F3ED0D21E3CD0921E57D0D21E1D
S11340706DD0C7E7252006F8010BC3E7DBF8000085
S113408002904FF0000A0BF1040000F1040BD0F889
S11340900090CA45B6D2029810F80A10022230469F
S11340A0FFF760FF06460198864205D300F08BF8BF
S11340B000287AD100F07DF8A9F1010082453CBFC7
S11340C0202006F8010B0198864205D300F07BF806
S11340D000286AD100F06DF80AF1010AD9E75BF80B
S11340E0040BC8E75BF8049B00F067F800285CD178
S11340F000F05FF84FF0000A01E00AF1010A5FFAEC
S11341008AFA19F80A000028F7D19DF85800524697
S11341104946C047002848D15744FFB272E76C298A
S11341200AD16A785BF8040B752A0EBF00210121BD
S1134130642A07D16D1C05E075295BF8040B0CBFDC
S1134140002101213246FFF722FF36185AE75BF8B7
S1134150041B0222C9B23046FFF704FF064651E7AA
S11341606A780124782A18BF582AF8D16D1C0024D3
S1134170681E322904D15BF8040B042281B2EAE7F9
S113418034297FF43DAF5BF8049B04224FEA1941C4
S11341903046FFF7E7FE04221FFA89F1DCE700F05E
S11341A00CF810B9F019C0B200E0002017B0BDE857
S11341B0F08FF719FFB203AE704706469DF858001A
S11341C0F2B203A940479DF80000361A9DF8580042
S11341D0F2B203A9404701A112E000000D0A000059
S11341E0104703000CB438B5044604AA00F010F8D4
S11341F005462046FFF7EFFF284632BC5DF80CFB6E
S11342000CB480B502AA00F003F802BC5DF80CFB04
S113421080B501F03AFBC0B202BD814233D21044F2
S11342201144401E491E10E011F8013900F801390B
S1134230121F11F8013900F8013911F8013900F899
S1134240013911F8013900F8013992B2042AEBDA84
S113425093B2002B1EBF11F8013900F80139521E28
S1134260F6D1704711F8013B00F8013B121F11F819
S1134270013B00F8013B11F8013B00F8013B11F848
S1134280013B00F8013B92B2042AEBDA93B2002B13
S11342901EBF11F8013B00F8013B521EF6D17047D6
S11342A010E011F8013B00F8013B121F11F8013B2B
S11342B000F8013B11F8013B00F8013B11F8013B08
S11342C000F8013B92B2042AEBDA93B2002B1EBF32
S11342D011F8013B00F8013B521EF6D17047130060
S11342E003D00A46194609F0F5BB704710B500E043
S11342F0521E93B223B100F005F8F9D0181B10BD7B
S1134300002010BD10F8013B11F8014BA342704787
S11343104178007801E00178407800EB012080B218
S113432070470170090A417070470A0A02704170AF
S1134330704710B50023040014BF1C46C3F10304E6
S1134340E4B25B1C0A55120A042BF4DB10BD30B531
S11343500024050014BF2546C4F10505EDB2641C14
S11343604A55120A42EA03621B0A062CF1DB30BDED
S113437030B54A788B78CC78097818B120461D4638
S11343800C4602E0154608461A4645EA002044EA6F
S1134390022141EA004030BD00B583B020B10622BD
S11343A0684600F02AF803E006226846FFF735FF66
S11343B09DF800209DF8010040EA02219DF80200CA
S11343C002069DF8030042EA00429DF8040042EA16
S11343D000229DF80500104303B000BD10B5002372
S11343E000E05B1CDCB28C4205D210F8014B944215
S11343F0F7D0002010BD012010BD10B5002304E04B
S1134400541EE41A0C5DC4545B1C9342F8DB10BDCB
S113441010B5002480B14FF6FF7202E0944206D03A
S1134420641CA4B2035D002BF8D1944204D1792119
S11344300FF2F400FCF774F9204610BD10F8012BBC
S113444011F8013B0AB19A42F8D0D01A40B2704731
S113445030B5994228BF1946002303E00833401CB5
S1134460521C9BB203F10804A14203DB04781578C3
S1134470AC42F3D08B420CDA007812785040C0433F
S11344808024C0B201E064085B1C8B4201DA044260
S1134490F9D198B230BDF8B555052D0E02F00707D5
S11344A004460E462A46FFF7B8FE47B1FF20615D79
S11344B0725DF840014022EA000008436055F1BDF6
S11344C000210FF27802002805E000F00F03D35C0E
S11344D05918C9B20009F8D1084670476128A8BF25
S11344E0572107DA4128A8BF372103DA3A28B4BF95
S11344F030210021401AC0B270474108400021F029
S1134500AA3120F0553008438108800021F0CC31D5
S113451020F0333008430109000121F0F03120F08C
S11345200F30084370470000627974652D75746913
S11345306C69746965732E63000000000001010258
S113454001020203010202030203030410B5DFF8AF
S1134550D84AFDF7ABFD6061FDF7A4FDA061606979
S1134560E06118B100F007F8652803DABDE81040EF
S11345709D21A3E010BD10B5DFF8AC4AA069E16944
S1134580884202D2AF2100F0F3FBA069E169401A2E
S11345904FF6FE71084010BDDFF88C1A4A6990424C
S11345A003D3C969884200F036BD00207047002853
S11345B018BFFFF7F1BF0120704730B1DFF8681A68
S11345C04969401A4010401C80B27047010001D173
S11345D000207047DFF8501A496901EB4000801E43
S11345E070474088C0F30C00C01C0004800C4000DD
S11345F0001D80B2704710B50446FFF7F2FF04EBCC
S11346004000DFF8241A4FF6FF7300E0801CCA69EB
S1134610904202D202889A42F8D010BDDFF80C1AF8
S113462008607047DFF8041A0FF2840008607047CE
S11346302DE9F843DFF8F05980462889A0B3B8F88B
S11346400200000430D4DFF8E4490FF2640120686A
S1134650DFF8DC9909F072FA20B94FF4BA714846D0
S1134660FCF75EF8002701E07F1CBFB2288987426F
S113467004DB4FF4BB714846FCF752F8286A216802
S113468000EBC706306808B9316003E009F056FA58
S11346900028E9D1B088401CB0804046FFF7A1FF54
S11346A0F18801EB4000F080BDE8F18300000000D8
S11346B0756E636C61696D65640000000FF680308F
S11346C0FCF72EB870B50446DFF85C098078012841
S11346D01AD12088FFF77AFF04002FD0022526463E
S11346E03046FFF7A5FF708840F40040708036F82C
S11346F01500FFF76BFF060002D070880004EFD5A9
S11347006D1C042D1ADAEAE7022817D1FEF796F891
S113471005462088FFF75AFF06000AD070888004F7
S113472003D540F2392100F023FB3088C0F30E009A
S113473020802846BDE87040FEF7BDB870BD00B5C6
S1134740ADF5806DADB04FF49662694600F073F834
S11347500DF5806D2DB000BD2DE9F8430746884660
S1134760FFF73FFF45007888C0F30D007880800490
S113477022D5FEF763F804463846FFF71EFF81464C
S11347804046FFF71AFF0646AAB239464046FFF7ED
S113479044FD0020DFF8901806E001EB4002938905
S11347A04B4508BF9681401C0A789042F5DB2046B1
S11347B0BDE8F243FEF77FB8AAB239464046BDE8E9
S11347C0F843FFF72ABD10B50C4601E0FFF713FFCD
S11347D0A04202D241880904F8D510BD70B5DFF8B3
S11347E048580446A878012804BF686A00281DD1E7
S11347F0204609F0CAF9022818DB0021204609F0F6
S1134800D4F90DE0012100F0A0FA78B93046FFF7A1
S1134810DDFE0088000409D43146204609F0F4F98D
S113482006463000EED16C62012070BD2046FFF7D1
S113483049FF002070BD2DE9F74FDFF8EC47002059
S1134840E080606292B0FDF7F9FF0121A1704FF0A2
S1134850000AA188ADF802100021A180E16901914C
S1134860FEF729F82089C200206A92B20021FFF7DE
S113487036FD0DF10200FFF725FFFDF7DFFF21787C
S113488062785518FEF717F8EDB206E004EB46001F
S11348900C30FFF717FF06F1010A5FFA8AF6AE4201
S11348A0F4DB129848B1002501E080476D1C129892
S11348B0EDB250F825000100F7D1D4F814904FF070
S11348C0000B01250DF1080A0198814502D3BBF1C3
S11348D0000F37D0BBF1000F06D0ABF101005FFA37
S11348E080FB5AF82B8004E04846FFF784FEC84654
S11348F08146B8F8020000F44041B1F5004FE3D11D
S113490040F48040A8F80200022638F81600FFF7A9
S11349105DFE070012D0788801040FD440F40040F3
S113492078803846FFF784FEBBF1100FBDBF4AF80C
S11349302B700BF101005FFA80FB0025761C042E1E
S1134940E3DBC1E7002DB8D0656A55B12888FFF7CD
S11349503DFE6888000447BF002060622846FFF7D8
S1134960B1FE0020ADF800008246606A0025A0B3C5
S11349700088002100F0E9F9ADF80000002100F002
S1134980E4F90646BDF8000000F051F9054630464A
S113499000F04DF98246BDF8500050451ADB300056
S11349A018D000F044F90746304600F028F90146D3
S11349B013983A46FFF731FC3046FFF707FE18B16B
S11349C04188C1F30D0141800022606A314609F03B
S11349D045F902E00020ADF800006669B346B04630
S11349E00BE03088000404D5D6F80E0008B1FEF7B9
S11349F015FD3046FFF7FFFD06460198864223D297
S1134A003046FFF7EEFD81463046FFF7D6FDBDF890
S1134A100010884206D10AEB0500C01C801040003B
S1134A2000F1040970880004DBD55846FFF7C5FD82
S1134A30318801F40041084330801FFA89F00BEB00
S1134A40400B06EB4008D4E70220A0700DF10200F1
S1134A50FFF738FE6846FFF735FE129860B14FF055
S1134A60000902E0804709F1010912985FFA89F907
S1134A7050F829000100F5D16769B94611E0022612
S1134A8039F81600FFF7A2FD20B10088C0F30E002C
S1134A9029F81600761C042EF2DB4846FFF7ABFD1E
S1134AA08146C145EBD30BE00746FFF7A4FD414621
S1134AB0FFF789FE4845F7D3019881452BD1374646
S1134AC0474549D23846FFF796FD002F0646F6D0F3
S1134AD078880004F3D500F088F8B84204D17888C7
S1134AE0C0F30D007880EAE704D201463846FFF7A8
S1134AF033FEE4E7019707E03046FFF77CFD4146CB
S1134B00FFF761FE37460646464504D2308800F07A
S1134B106DF88642F0D337B100F067F801001CBF8E
S1134B203846FFF719FE0198B946C3E73846FFF740
S1134B3058FD06465846FFF740FD8146720092B282
S1134B4039465846FFF769FB002249460DF1020039
S1134B5009F033F80BEB460BFDF770FE064617E041
S1134B6021784018401EC0B204EB40000021878920
S1134B708181380009D0FFF729FD00F037FA0022BF
S1134B8039460DF1020009F018F86078401E607093
S1134B9060780100E4D10021201D09F03FF8FFF7FF
S1134BA015FD070006D1BDF80200A080C4F81CB0B2
S1134BB00020A0703046FDF77EFE002FB6D1BDF870
S1134BC0000078B10446FFF701FD07001CBF0AEBA3
S1134BD005007880204600F012F8139952462844C4
S1134BE0FFF71BFB15B0BDE8F08F3888C0F30E004B
S1134BF0ECE480B5FFF7EAFCBDE80240D7E410B569
S1134C00040012D0FFF7F5FF18B940F2394100F063
S1134C10AFF82046FFF7DAFC38B10188090402D561
S1134C20D0F80A0010BD083010BD002010BD10B52A
S1134C30010013D0FFF7CAFC0446FFF7B8FC18B90B
S1134C4040F2534100F094F844B12088000401D5A7
S1134C50208910BD6088C0F30C0010BD002010BD79
S1134C602DE9F04104460D46FFF7B0FC060040D0A4
S1134C70FFF79DFC0FF2C85718B940F2664100F0E7
S1134C80A0F82046FFF7D3FF80463046FFF7B3FC79
S1134C90454504462DD003DB40F26E4100F091F807
S1134CA03088000448BF358123D475803046FFF72F
S1134CB098FC06EB4005FDF7C1FDDFF86C13CA69EB
S1134CC0661B944204BFCD610026FDF7F4FDB6B225
S1134CD0082E06DA32462846BDE8F041FF21FFF7E8
S1134CE0FEBA082200212846FFF7F9FAA6F10800C7
S1134CF06880BDE8F081F8B507460C46FFF766FC0E
S1134D0006463846FFF793FF051B8442ADB21BD01D
S1134D1003DB4FF4936100F02BF8AEB1308800044C
S1134D2006D5D6F80A0034812844C6F80A00F1BD35
S1134D303846FFF764FF22464119FFF76EFA214611
S1134D403846BDE8F4408BE7F1BD38B50C46FFF7B3
S1134D503DFC05000AD0FFF72AFC18B940F2AB412C
S1134D6000F006F805EB4400808832BD002032BD17
S1134D700FF2CC40FBF7D4BCF8B50C461546FFF750
S1134D8025FC06000FF2B84714D0FFF710FC18B941
S1134D9040F2B64100F015F82846FFF717FCFFF77C
S1134DA006FC18B940F2B74100F00BF806EB4400DA
S1134DB08580F1BD3846BDE8F44040F2BA41FBF7C6
S1134DC0AFBC3846FBF7ACBC70B504460D460026B4
S1134DD008E0FFF72CFF294686192046FFF7B5FFA8
S1134DE0B6B204462000F4D1304670BD38B5C01CBC
S1134DF08D4C80104500A06AADB218B140F2CF418D
S1134E00FFF7B6FFA069E169411AC903B5EB114F79
S1134E1005DA690049420844A062012032BD00203D
S1134E2032BD81490020886270472DE9F84F04465D
S1134E30E01C80107C4D40000027001DAE690FF27D
S1134E40004AB4F5005F88461FFA80F904DB40F29B
S1134E50E6415046FBF764FCFDF7F0FC8346E86945
S1134E60A96A09B9301A03E05FEA080202D0081AF5
S1134E70461008E0701A4610B0B220B940F20C5146
S1134E805046FBF74DFCB6B24E4515DBEF6907EB18
S1134E904900E861A86A28B1B8F1000F04BF00EB2B
S1134EA04900A86200207C80B880F880388004F132
S1134EB008016889081868815846FDF7FCFC1FB989
S1134EC001211F20FEF7B1FA3846BDE8F24FFFF783
S1134ED074BBF8B504460D46164600210A20FFF7B8
S1134EE0A4FF0746FFF772FB48B10681C0F80A40E9
S1134EF0018841F400410180C0F80E503846F2BDEB
S1134F0070B504460D4611462846FFF78EFF064647
S1134F103CB1300005D0FFF772FE2A462146FFF768
S1134F207CF9304670BDF8B504460D46164615E0CA
S1134F302846FFF77CFEB7B2874288BF074628465B
S1134F40FFF75DFE01463A462046FFF766F9012168
S1134F502846FFF7FAFE3C440546F61BB0B200288B
S1134F60E6D1F1BD2DE9F84381460E461446FDF71E
S1134F7065FC2D4D8046287801002BD0401E2870FA
S1134F80C0B205EB4000A9788789F9B98181384618
S1134F90FFF71CFB00F02AF83846FFF730FE3246D4
S1134FA04946FFF73AF93846FFF729FE2246002121
S1134FB03044FFF794F900223946281D08F0FDFD1E
S1134FC04046FDF778FC0120BDE8F2836878401C78
S1134FD06870E1E7A019012180B2FFF726FF0700FE
S1134FE0DAD14046FDF767FC0020EDE720B14188A7
S1134FF04DF6FF7211404180704738B5FDF71EFC35
S1135000044600210B4808F009FE05462046FDF73A
S113501052FC284632BD8041C00F7047024900202F
S11350208880704700000000D476002010610020C2
S113503040520000D87600202DE9F041044688460D
S113504017461E464046FFF7DAFDC5194046FFF7EE
S1135050EEFDB919884203DA40F2B151FFF788FE38
S1135060300013D00698010003D132462946204669
S113507004E0012832462146284603D1BDE8F04128
S1135080FFF7CBB8BDE8F041FFF70AB9BDE8F081FE
S113509010B50C46FFF7B3FD00B1005D10BD38B587
S11350A00C461546FFF7ABFD00B1055531BD38B5CB
S11350B00446FFF7BCFD05462046FFF7A0FD294640
S11350C0BDE8384000221BE770B50D46691C044654
S11350D0C9B2FFF7DDFF060229462046FFF7D8FFD5
S11350E0301880B270BD00B583B002238DF804205F
S11350F0120A8DF80520012200920A46014601A8F1
S1135100FFF79AFF07BD10B50446FFF745FA10B143
S1135110A4F108000CE010BD10B5FFF757FA040025
S113512004D0FFF75EFA04EB400001E0002010BD5C
S1135130BDE81040FFF741BAF8B504460D46FFF745
S113514045FA060016D07088C0F30C072846FFF70E
S11351503DFA07F00101CF19FFF743FA07EB4007C7
S11351602046FFF7D9FFA84203D040F26E61FFF753
S1135170FFFD7780F1BD2DE9F0410C46FFF726FADB
S113518005002DD06888C0F30C0606F001008019D4
S1135190001B04F00101471AE01C20F0030028441E
S11351A000F108082846FFF702FABFB208B1A64288
S11351B003D240F28A61FFF7DBFDB44210D0092F1D
S11351C00EDB6C80082200214046FFF788F8A7F127
S11351D00800A8F802004046BDE8F041FFF7EDB929
S11351E00020BDE8F08170B5044682B02068FFF766
S11351F08AFFADF8000000B3FFF7E8F905001CD002
S113520000880FF23C06000404D540F2A561304644
S1135210FBF786FA6846FFF755FABDF80000FFF77A
S1135220D5F90546FFF7C3F920B940F2AB61304622
S1135230FBF776FA05F10800206073BD000000005A
S11352406275666665722D6D616E6167656D656E0A
S1135250742E6300012100F01F029140DFF8302713
S113526005E0012100F01F029140DFF828274009E2
S113527042F820107047012100F01F029140DFF82E
S11352801827F4E710B5012818BF2028DFF80C47C9
S113529005D04FF4BD71DFF80807FBF741FA20464B
S11352A010BD426892884089401A824201DA012086
S11352B07047002070473EB5012818BF202834D11C
S11352C0012818BF202830D1FFF7DCFF0446FDF782
S11352D0B5FA0546A06901AB6A4602A909F05DFD6D
S11352E000992289206889B200F024F82846FDF745
S11352F0E2FAA06909F0C9FD012816D121682089C4
S11353008988401A218A88420FDBA06990F83110FD
S1135310022903D109F03FFD022804DAA06990F8BC
S11353203100012801D100F001F837BDA069002146
S113533009F083BD70B504460D461646FDF77EFAA6
S1135340E188A9420CD22288521A521992FBF6F330
S113535006FB13222280A288AA18511AA180E58094
S1135360BDE87040FDF7A7BAF8B5012818BF20289A
S11353700C46154616D1FFF785FF0646307B10B163
S113538001207073F1BD707B18B13046BDE8F24066
S1135390B2E00FF2CD1700F006F818B100F003F8F0
S11353A00028FBD1F1BDB0693B462A46214609F0ED
S11353B050BE70B505460E46FFF764FF012D18BFB9
S11353C0202D044640D1A069016890F83200E8B964
S11353D00420886400F031F9A0690068C16C002ED3
S11353E007D041F00401C1640B20FFF733FF05210E
S11353F006E021F00401C1640B20FFF732FF002115
S1135400A0690068BDE8704009F0A8BE04204863A4
S113541000F013F9A0690068816B002E07D041F0F9
S1135420040181630B20FFF715FF052106E021F03D
S1135430040181630B20FFF714FF0021A0690068B9
S1135440BDE8704009F00FBF70BD38B50446DFF801
S11354505405814230D0DFF84455A869A0422BD1CD
S11354602A89286899B2FFF765FF29680020C88057
S113547002E0284600F021F8204609F08CFC0328BD
S11354801ADA2A68E889698A93884143002B89B229
S1135490EFD05388128840188342B8BF914205DB8D
S11354A09A42E6D28342A8BF9142E2DA2046BDE89E
S11354B03440012109F0C1BC31BD38B50446DFF8E0
S11354C0E834E089658A216802466843084400F1AB
S11354D00801A06909F075FDA06909F05CFC0228C7
S11354E001DBFFF723FF608AA18A401C90FBF1F2E5
S11354F001FB1200608231BDFEB50446207B68BB0F
S113550060680FF25D074188084400F10805A0694E
S11355106B4601AA02A909F060FC60688188009AC0
S1135520891A019A8E1A4188008888420ED26089AD
S1135530421AA0693B46294609F08BFD70B96068A0
S113554061894288711A561800F10805A0693B4622
S1135550F2B2294609F07DFD00B96073F7BD000081
S113556070B5DFF83854A96981421C4615D16868C2
S11355708188A14238BF8488FDF760F969686B8926
S11355804A88A4B2A21892FBF3F603FB16224A80BF
S113559069688A88121B8A80E2E670BD38B50D46B8
S11355A0FFF770FE112D044609D1A069002109F00E
S11355B055FC002020732046BDE832409CE7132DA3
S11355C006D1A069012109F049FC0120207331BDF5
S11355D0206801880844057220680188228900F047
S11355E043F901808188491C8180A06909F04DFC40
S11355F0226821899288891A89B220B9E2898A426B
S1135600A8BF012105DA012808D1208A814205DBDF
S11356100021A069BDE8344009F00FBC31BD80B55C
S1135620DFF888030169090606D509F009FEBDE81B
S1135630044001460120B1E701BD0B201BE6F8B58B
S11356400C461546FFF71EFE0646EAB2306880880F
S11356503189891A884201DB0120F2BD00270DE05F
S1135660FDF7ECF831680B8814F8012B19447F1C02
S11356700A7231680A88338900F0FCF8AF42EFD32C
S11356800020F2BDF8B5012818BF202804460D46B5
S11356903AD100F0DFF910B9204600F06CF820464A
S11356A0FFF7F0FD06462046FFF7ECFD012C18BF7E
S11356B0202C29D1DFF8F8120160DFF8F8124160DC
S11356C08021012C18BF202C0181418151D1012C52
S11356D016BF202CDFF8E0020020012C18BF202C7C
S11356E0B06111D1DFF8D402A98CA861DFF8D0022F
S11356F0E861F181EA8C32828A4207D21C21304669
S113570003F0B2FD0220F2BD0120F2BDB06990F8B1
S11357103130012B0CD0338993FBF1F701FB1733A4
S1135720002B02BF92FBF1F301FB13210029E5D109
S1135730294609F06BF9E8B9B069017F007E0123BD
S1135740022208F0B3F8287C012807D10121204661
S1135750FFF72FFEB069FFF7EAFD0AE00020708230
S1135760F189308990FBF1F0B08200F070F900F01B
S11357706EF90020F2BD58B5012818BF2028044650
S113578012D100F067F9F0B9204600F03FF9204645
S1135790FFF778FD012C18BF202C06460FD1B06905
S11357A009F0FBF910B152BD012052BDB06990F867
S11357B03100012803D100212046FFF7FAFD1C2106
S11357C0304603F051FD002052BDF8B501280646CD
S11357D018BF20280F4634460AD1FFF753FD05466B
S11357E03046FFF768FD2868808818B92620F2BD86
S11357F00120F2BDFDF722F80646286841880844D6
S1135800007A3870286841882A8900F02DF8418090
S11358108188491E012C18BF202C81801FD1A869C2
S113582090F83100012803D119E02846FFF745FE1E
S1135830A86909F0B0FA022811DA2A68E889698AA5
S113584053881288414389B240188342B8BF9142B9
S113585005DB9A42E9D28342A8BF9142E5DA304699
S1135860FDF729F80020F2BD491C91FBF2F302FB7D
S113587013117047521C92FBF3FC03FB1C220A8099
S11358808A88521C8A80FDF716B810B5012818BF03
S113589020280BD113460A4601460FF21500FEF7E5
S11358A0A0FB002400B90124204610BD012010BD36
S11358B02DE9F84F814601281CBF202801208A4683
S11358C093464AD1FFF7DEFC074600247868018836
S11358D0084400F10808002627E0FCF7AFFF7968C8
S11358E00B881AF8012B19440A7279680A887B8993
S11358F0521C92FBF3FC03FB1C220A808A88521C74
S11359008A8009884D1EAD41FCF7D5FFED0F761C4A
S11359105DB1351BEDB22A4641464846FFF724FDEA
S113592078682C19E4B200F10808F0B258450AD29C
S113593000213846FFF7B5FC0028CED1387B00287B
S1135940F6D0222009E05C4506DAABEB040292B201
S113595041464846FFF708FD0020BDE8F28FF8B540
S113596001260746012F18BF202F0C4615460DD1DE
S1135970FFF788FC012F18BF202F05D180692A4624
S1135980214609F084FA06463046F2BD0120F2BDF4
S113599000E100E080E100E080E200E0FC6600203D
S11359A010390300097000F04B540000000001405E
S11359B0EC6500207466002018670020F45D002068
S11359C0745E002038B50446012C18BF202C1BD16E
S11359D0FFF758FC012C18BF202C054612D168682B
S11359E080880028FBD1A86909F0F3F90028F6D1D2
S11359F0A86909F0A7F98006F1D5A86909F0A2F908
S1135A008004ECD5002032BD012032BD70B50546BE
S1135A10FFF738FC0646012D346818BF202D0DD140
S1135A20B06990F83110012908D0022109F0FAF880
S1135A300020708200F00BF800F009F8FCF7FEFE7D
S1135A400021A18021806180E180FFF789BC30467C
S1135A50FFF733BD80B5012818BF202806D1FFF712
S1135A6011FC00281CBF0068002801D1012002BDE0
S1135A70002002BD0D48016821F480310160016FEE
S1135A80490849000167704710B5FCF7D7FE044682
S1135A90FFF7F0FF064800F00DF804480521016700
S1135AA0016841F480310160204624E024ED00E0E7
S1135AB0385F002038B504460525204609F014FC5B
S1135AC010346D1EF9D1BDE8314009F035BC80B504
S1135AD0FFF7D0FFBDE8014009F02EBC10B5044625
S1135AE0FCF7ACFE004901E0385F00206209520176
S1135AF04A6000220A70BDE81040FCF7DCBE0000DA
S1135B00DFF8A41904220968C00002FA00F0084072
S1135B1018BF0120C0B270470422C900002814BF76
S1135B20DFF86809DFF8840902FA01F101607047BF
S1135B3001207047704748B1DFF878296FF0FF0102
S1135B401160000ADFF870190002086070472DE93F
S1135B50F04304460D469046DFF86009DFF86079AB
S1135B60D0F80090DFF85C09042104EA000205EA99
S1135B7001030020834208BF824283B009F10C066E
S1135B804DD0DFF844090068210348BF7862E10280
S1135B9048BFB862E0000BD5DFF83019086800F0A0
S1135BA07F40B0F1007F03D1DFF8241902200860A0
S1135BB014F0C05F04D0B869FFF7BDFF0020B861DE
S1135BC0E0071FD500F05BF9002200F047FB01203D
S1135BD009F051FDF08000210120FCF76EFC79787A
S1135BE0002914BFDFF8EC18DFF8381A4FF400105E
S1135BF008607869FFF79FFF00207861307840F0F3
S1135C000800307005F0040300218B4207D0012105
S1135C103046FCF7E9FA25F0040504430D43D6E9C0
S1135C20120104400D400020854208BF84420CD07C
S1135C30B96822462B46484688474FF0FF307862C1
S1135C40B862200744BF002038625FEAC8700BD5F1
S1135C50F9680020F86001203870080004D0386921
S1135C6003B0BDE8F0430847BDE8F78370B508B951
S1135C70012070BDDFF86028DFF8604851681268C1
S1135C80402303FA02F22368DFF83C4A2468C4F391
S1135C908114521E032C01F1005192B29BB20BD11C
S1135CA00025EE18083E16408E5D46556D1C082DE5
S1135CB0F7DB0472002070BD022C0AD19D1E154032
S1135CC05B1E4D5D05801A40895C45EA0121018017
S1135CD0EFE7022070BD80B509B9012002BD0B7B3E
S1135CE0DFF8DC27002B14BF936A536A13F1010F0A
S1135CF001D1022002BD0A461946283009F0C4FE2B
S1135D00002002BD10B504461120FDF751FD042802
S1135D1001D0022010BD20460AF0DDF8204600F034
S1135D20BEFFDFF8E81960200860002010BD2DE9EF
S1135D30F04104460FF27C0084B004F10C080068C2
S1135D40029008F108070026BE67C7E91066BE8501
S1135D50FE85642038867886B886F8863887788702
S1135D600D464FF6FF7038804046FFF7E1FEC0B1A4
S1135D704046FFF7C7FF060013D102A9404600F0D2
S1135D801BFD0646BA6F4FF0FF31404600F0BEFAE5
S1135D9000F075F84FF0C05204231046042109F0B6
S1135DA0F2FF28001CBF2046A847304604B0BDE8D7
S1135DB0F08100000000000098B5044620788107B7
S1135DC02ED5616A61B300F0FD012170606A4069FB
S1135DD0006810F1010F03D0BDE892400AF0D5BD70
S1135DE0D4E9122303F004030027BB4203D141F09A
S1135DF00200207091BD4FF480312046FCF7F4F985
S1135E00D4E9122302400B4008BFBA4208D0A4F1DF
S1135E100C0001B0DFF8A8168968BDE89040084777
S1135E2091BD2DE9DC430446DDE90867D4E912019C
S1135E309043994306EA020807EA030940EA080086
S1135E4041EA0901C4E9120122F0010823F0000922
S1135E5000F07EFD80B100F012F807EA090106EABD
S1135E60080040F0C05241F004034046494609F09E
S1135E708AFF2046FFF7A0FF0020BDE8D68300205C
S1135E8001900090704700680100DFF8341608BFE5
S1135E90DFF8F408886070472DE9F0415FEA0108F3
S1135EA086B0044615461E461AD0280018BF002C9A
S1135EB016D000F08BFFDFF80876396A8C4206D1E1
S1135EC07988BF88ADF8001000F07DFF1DE000F078
S1135ED07AFF6A4601A920460BF084FA040001D136
S1135EE000201FE09DF80400002818BF08280AD0ED
S1135EF000F06CFF3C62BDF800107980BDF806101C
S1135F00B98000F060FFBDF80670A8198742BDF89B
S1135F100000B8BFBD1B83199BB2AAB24146012041
S1135F200BF0E9F806B0BDE8F08110B500F034FEDE
S1135F3070B1F020044201D0012010BDDFF82C091B
S1135F400168090904F00F0242EA0111016000200E
S1135F5010BD000010B500240021002203280FD832
S1135F60DFE800F003020F12012420460AF03AF899
S1135F7034B1DFF84C45A069FFF7DDFD0020A061D6
S1135F8010BD01240121F0E7012401210122ECE7E5
S1135F90DFF81C05006800F07060B0F1807F18BF66
S1135FA0B0F1007F19D0B0F1407F18D0B0F1806F0C
S1135FB01CBFB0F1A06FB0F1E06F0ED0B0F1006F74
S1135FC017D0B0F1106F0CD0B0F1206F1CBFB0F13E
S1135FD0306FB0F1406F0CD005E002207047032011
S1135FE0704705207047DFF88808006810F0060F36
S1135FF001D00420704701207047DFF84809006889
S113600000F0A000401E8041C00F704710B5044648
S113601000F0BCFB204602F0B1F978B1204600F054
S11360200CFB58B1032100200BF0AAF810F1010F6A
S113603001D1032010BDDFF810190860002010BD45
S113604010B5FFF7E3FF040008BF09F094FF2046F2
S113605010BD70B584B0BAB31378002B04BF537865
S1136060002B31D070CA6B4670C312F80C3D1C0073
S11360700FD09588BDF806406B431B19ADF8063068
S113608014789DF801301B1B8DF8013000238DF826
S1136090003001239DF8014000E05B1C01259D4078
S11360A0A542FAD392888DF800306E0804FB026290
S11360B0B2FBF5F2ADF804209DF800208DF8012024
S11360C06A4600F005F801E000F002F804B070BD83
S11360D02DE9FE4F83461446FFF798FF5FEA000957
S11360E040F0AF80DFF86478DFF8D4633868B061DB
S11360F0002C79D094F90310E08809F0DDFA3868AF
S1136100F0614FF0010AA178481E8DF8080022784A
S11361106078174621B98DF808104FF0000A00275F
S11361208046B84538BFB8461AB9451EAD41ED0F93
S113613000E00025A0880BF0D3FBDFF8A4184FF68D
S1136140040265B3CB6A9BB2934208BF5B1CF38025
S11361500027034601E040087F1C80B2B0F5807F31
S1136160F9D8FFB2082F05D1FF23FF28CB6210D83E
S1136170401C0EE05FB10122BA40FF28CA6208D871
S11361809BB27A1ED34003F00102101801E00122F1
S1136190CA624FF4000208278A62B84604E0F38812
S11361A093421CBFCB62F28082B232B180B2421EF3
S11361B0FF2A88BFFF220A6001E000200860002057
S11361C0019053469DF808000090424639460BF171
S11361D028000BF029FB25B1DFF844184FF4801098
S11361E00860A068F06202E0F069FFF7A4FCDFF841
S11361F03C182020086001200BF083FB00F0E6FD32
S113620007460BF03BFBF46A9CB104200BF0F2FA56
S113621010B104200BF037FA20460BF061FB014665
S1136220012204200BF03FFA00F0010090F0010974
S113623003D10BF02FFB09F083FE384600F0C3FDB9
S11362404846BDE8FE8F38B500F0A6FC002518B11D
S113625060B209F057FA0546284632BD00230120F2
S1136260002109F090BD80B5002009F0A5FE0020B2
S113627002BD012809D00BD3032803D008D24FF064
S1136280C05006E04FF0005003E04FF0605000E0D3
S11362900020DFF8D0170A6822F06052104308602B
S11362A04FF400108B49DFF8C0270860DFF8E408DA
S11362B0016821F0060141F0040101604FF08051B2
S11362C011600421416100207047DFF8A017062007
S11362D008600020DFF8981708604FF08050DFF85E
S11362E0941708604FF40011DFF8380301604FF091
S11362F06051016000207047002819BF0220DFF8B8
S113630078170220DFF874170860704738B50D4617
S11363101446FFF70DFC70B32A07DFF86007DFF8B7
S1136320581705D5220747BF08220A6008220260D1
S1136330EA0705D5E20747BF012008600121016093
S1136340680708D561074CBFDFF83417DFF8341746
S11363504FF400700860A80704D5600800F001003D
S1136360FFF7CAFFE80606D5DFF8AC08E1064CBF24
S113637000211B210160002032BD2DE9FC470026CD
S11363800F0018BF0127022982461446994603D1FB
S113639000F02FF8002024E000F018FD484D80465E
S11363A0E868010018BFA04212D10120EC600190FE
S11363B00090C5F81090002200F02BF82E70504683
S11363C00BF08EFA01463A4602200BF06CF90646B1
S11363D0404600F0F8FC002E03BF0020E8600120D6
S11363E00020BDE8F68780B502200BF018FA00F013
S11363F029BC00B583B00020019000220120009048
S113640000F007F802200BF03EF92D490020C86087
S113641007BD00230020002109F0B5BCDFF8FC070C
S1136420274900680978800A00F001000843704792
S113643002200BF0DFB970B5406A0025002816462B
S11364401EBF4069002805460C46F00748BF0BF004
S113645019FBF00317D5266816F1010F0ED1DFF8EA
S11364605808016800291FBF0A68002AC8680AF092
S1136470B3F90AF028FA0646266002E030460AF02C
S113648084FA05B12E6070BD00000000EC100846CF
S113649038B5DFF828480B7822684978C2EA034205
S11364A042EA016527E00000EC100840EC100844C3
S11364B0044008401870084418700846D46200204C
S11364C0606300200100181890500840280F002134
S11364D00040084618600846301008401C0F002190
S11364E038B5DFF8D84722680B784978120C43EAAC
S11364F0024242EA0125FFF71BFB00B125600020A0
S113650032BD70B500F090F9002628B104F12801DD
S113651028460BF0C7FA0646304670BD70B50446EF
S11365200D4694F86000032801D1022070BD261D99
S1136530316A357081B12046FBF7C9FF40B930623A
S11365402046FCF7B6F801462046FBF7DCFF03E0E3
S1136550E9B2204600F002F8002070BD10B50C46E8
S113656090F86010032901D1022010BDFFF7E0FA72
S113657010B1E0B20BF04AFB002010BD80B5084614
S11365800BF0E5FA002002BD0BF0E9BA2DE9F04169
S113659004460F466069012815461E463DD000F0AA
S11365A0D7F9002839D0FFF7F3FC012803D00121E3
S11365B00120FBF782FFA889D5F804803F1ABFB2F7
S11365C0402F06D3A968B809484308EB801807F0A0
S11365D03F070BF081FD404507D10BF080FDA96812
S11365E0884204BFF6B2002E10D0A96840460BF0D2
S11365F0A8FD08B1022011E00BF088FD002814BFAB
S1136600DFF85C07DFF860070BF08DFE2046FFF72C
S1136610D3FB0121F8B20BF0FFFD0020BDE8F081AF
S11366200000000018600844C9B280B5002914BFF6
S113663020220022202100F02CBB20210AF01AB8CD
S113664058B5064688B20BF04BF904463046FFF7BE
S11366506FFA18B1DFF8140761420160002052BDDF
S1136660F8B5074600F032F8032618B300F0AEFB85
S11366700746DFF8B813022008606A480068000E75
S113668000F00F00082818BF072803D0092818BFF6
S11366900C2804D1DFF8AC020068800304D4E9B20A
S11366A020460AF08DFD064600F029F8384600F031
S11366B08AFB06E0EAB2214607F19000FBF76AFE86
S11366C000263046F2BD00008C4008400C461546BA
S11366D0FFF72EBAC9B2002914BF082200220821EC
S11366E009F0AABFC9B2002914BF4FF48072002276
S11366F04FF4807109F0A0BF082109F0BBBFDFF897
S1136700781602200860704700000000440008402A
S113671000280CBFDFF81403DFF85C064FF4807127
S11367200160704770B5DFF84846DFF848162578F1
S1136730DFF84826ED074FF4806303D505000CBF4E
S113674013600B602678B6074FF4006503D5060086
S11367500CBF15600D602678760703D506000CBFC4
S113676053604B6023781B0703D508B9556070BD8F
S11367704D6070BD002814BFDFF80403DFF8040384
S11367804FF4806101607047355B000038B5044602
S11367900D46680800F00100FFF7C4FF05F004008F
S11367A0FFF7E8FF2046FFF748FF20B105F001009E
S11367B0BDE83240ACE731BDF8B500F035F870B350
S11367C0A878E978884201D00120F2BD68780100F8
S11367D002D1FFF77AFD01E0FFF74BFDA878DFF85F
S11367E0A06540F6FF7700280EBF3760204600F012
S11367F0E0F8E87840B9DFF8801237636020086079
S11368004020DFF8741509E0DFF87012602008609A
S1136810204600F0E7F84020DFF848150860002023
S1136820F2BD00000440084004460D46FFF780B95D
S113683038B50C466A460AF0D5FD050018BF002C91
S113684010D02078010018BF08280BD000F0BEFA41
S1136850DFF830150D62BDF800204A8062888A8016
S113686000F0B1FA284632BD00000000800F00217C
S11368700C50084010B50C46002818BF002C84B0FA
S113688006D0032806D2002200210AF0ABFD08B985
S1136890012055E000680090BDF800209DF802102A
S11368A0120401F0070002D4821F022A01D302203D
S11368B046E007280CBF012000202073080900F0DF
S11368C001006073C1F380102074C1F3C0006074D0
S11368D0C1F34010A07408F03FFE0246C0B238B3C2
S11368E0207A00B90222BDF80000831F9BB2D2B205
S11368F001A901200AF0FFFB01A841784900E173D6
S11369009DF90410A173217AC9B18178C378007903
S113691041EA032141EA00409DF8091040EA01617F
S1136920DFF8640400682246343009F071F806E0A8
S1136930E0736FF07F00A0730020206020720020BD
S113694004B010BD88400840200F00211870084092
S11369502046FFF7EDB8F8B50C469BB200F023F8DB
S113696006DAB3FA83F1D1F1190148BF002507D43F
S113697000F019F8BABFB3FA83F1C1F1190506257D
S11369800121AB1D01FA03F6B7B291B28F4288BF61
S11369900F46FFF7CDF820B1EAB2394620460AF097
S11369A038FBB0B2F2BDB3FA83F1C1F11901062983
S11369B0704780B5FFF7BCF880B10020FFF7A0F85E
S11369C0DFF8C823012111604FF40051DFF8C02320
S11369D0116018B1BDE80440002123E001BD0000AE
S11369E02C50084010B5FFF7A3F8B8B10120FFF709
S11369F087F8044601210020FFF78EF8DFF884139E
S1136A000020086209F0A8FDDFF888134FF4005055
S1136A1008601CB1BDE81040012103E010BD000076
S1136A204C5008460120FFF777B80000884008461C
S1136A3010B50CB214F1010F01D1012010BDFFF704
S1136A4077F870B143F6FF70844206DA14F5804F8C
S1136A50B4BF4FF48040C4F30E00DFF84413086061
S1136A60002010BD18600840944008467000084497
S1136A708400084094400844440008464400084404
S1136A801C6008461C6008442DE9F84F054600F0D8
S1136A9083F8002608B9BDE8F28FDFF81CB2DFF8EE
S1136AA00473DBF80080D7F80090D7F804A02146DF
S1136AB005F1280008F0EEFCDBF80040386879683E
S1136AC0DFF8AC2248450ED01378870A03F0FE03A2
S1136AD007F001073B43C00A03F0FD0300F0010087
S1136AE043EA4000107051450FD010788B0A00F033
S1136AF0FB0003F0010340EA8300C90A00F0F70039
S1136B0001F0010140EAC10010704FF6FF712889BD
S1136B10884205D05268100002D02989284690473F
S1136B20444532D00021002C1EBF20680028A168F3
S1136B30284600F034F8002C1CBF2068002801D03F
S1136B40206920B9B04600270024002104E0D0F8D1
S1136B5008800768C489416805F1280008F00DFF22
S1136B60060007D14246394605F1280008F001FF26
S1136B70060001D030468EE7214605F1280008F0D2
S1136B8071FE05F1280008F0F0FE287840F00200BC
S1136B902870EFE7700008400C46FEF7C9BF70B5D7
S1136BA00E0082B00546DFF800420AD10022072118
S1136BB009F042FD00F034F858B30020C4E90000A5
S1136BC073BDFEF7B5FFF8B1DFF8CC1107200860FC
S1136BD00121307920707079009068460BF00EFC2A
S1136BE00099C14000F00F0040EA01106070B079D4
S1136BF0A070F079E0703168DFF8B001016030799D
S1136C00DFF89811401C086007220721284609F084
S1136C1013FD73BD000000004C0008405C500840A8
S1136C202846FEF785BF10B5FFF7B6FF20B1E0B2E6
S1136C30BDE8104008F01FBDDFF8740110BD80B539
S1136C400AF0EAFDBDE8044000210AF035BE70B543
S1136C5005460C4600F023F8CCB1A078092801D3EE
S1136C60012070BDE1780929FAD200F00F0040EA52
S1136C700116FFF7D5FF50B1DFF8380161680160F4
S1136C80DFF834012178017061784170C67000200A
S1136C9070BD09F0D1FC00B10120C0B202BD80B5C5
S1136CA0FEF746FF30B1BDE804404821DFF8040197
S1136CB002F0DABA01BD0000F00F0021280F002114
S1136CC0F8B5D2B2022A3CBFDBB2042B01D30120B7
S1136CD0F2BD5408394D01272E5D03EB8202C9B27F
S1136CE007FA02F2002914BF16439643FEF720FF69
S1136CF000B12E550020F2BD0BF094BB38B50D4603
S1136D000446298804F1380008F096FD288004F12F
S1136D104000698808F090FD688004F13E00A9886D
S1136D2008F08AFDA88004F13C00E98808F084FD9D
S1136D30E88004F12800298908F08CFD288104F1F9
S1136D402800698908F08EFD6881FFF701FE18B1FB
S1136D5004F1280008F009FE002032BD0BF03DBC10
S1136D60C0CF6A0088400846E0673500240F002140
S1136D702C7C0020A000084488400844A000084659
S1136D802410084060630020D462002028100840CA
S1136D90241008445410084404000844180008400F
S1136DA040300840A0000840740F0021780F0021F3
S1136DB000FEFFFF2C0F0021700F0021720F002135
S1136DC0C9B2FFF730BF00B962B67047EFF3108065
S1136DD072B67047F8B50F46144647F6FF718C42F9
S1136DE001D1FF20F2BD2D4E716800291CBFB1688E
S1136DF0002901D0F16811B92A21FAF737FD384684
S1136E000BF030FC012F01460BD10622F16831F959
S1136E1012108C4203DA521E12B2002AF6D1501C10
S1136E2039E0B1F90000A042B8BF044603DB1C48B6
S1136E308442B8BF0446A4F1C800282290FBF2F0B3
S1136E4042423078034612B25D1E9542BCBF421ED8
S1136E5012B24D6805EBC2004668B0F9020010FB9F
S1136E60046000284FBF002000F5FA704FF47A76D2
S1136E70B0FBF6F0521C12B29A4203DA35F83260D3
S1136E808642E6D205EBC20131F8081C814238BFC4
S1136E90084600B90120C0B2F2BD00BF4877002007
S1136EA0C880FFFFD0B5274E0F46716800291CBF6C
S1136EB0B1680029144601D0F16811B92A21FAF702
S1136EC0D5FC012F0BD1082CA8BF072401DA200020
S1136ED000D0641EF068E4B230F91400D0BD200084
S1136EE001D11948D0BD38460BF0BCFB022C4168D7
S1136EF002DAB0F90200D0BD002F0CBFFC22F82248
S1136F00944202DBB0F90000D0BD3078401EC0B21C
S1136F10002200E0521C824201EBC20302DA1E8905
S1136F20A642F7D24FF47A715A68B3F9020011FB02
S1136F3004F1891A00EBD07201EB620191FBF0F0CD
S1136F4000B2D0BD487700200CFEFFFF28B90348EB
S1136F50016003480068FAF789BC70479063002019
S1136F60D4620020012100F01F029140514A4009DF
S1136F7042F82010704730B54F48504D0FC887B0C5
S1136F8003AC84E80F0068460021002200230EC0F1
S1136F9002208DF80600012149484A4CFCF71AFBEF
S1136FA04FF6FF70E0616A46002120460BF0BCFBFF
S1136FB000208DF80E0003A920460BF069FB42481F
S1136FC0FCF738FB9DF80E1001228A40491C8DF80D
S1136FD00E10B0FBF2F0C9B20B29286002D23B4973
S1136FE08842E8D23A48FCF725FB3A492A68B1FBC3
S1136FF0F0F339480021E3FB0201384A00230BF087
S1137000C9FB37490860002036490870A06920F0A0
S11370101000A0610A20FFF7A5FF33494FF48060F8
S1137020086007B0002030BD38B500F01BF80446F6
S11370300D4605E04FF6E85000F02AF800F00CF891
S113704000218D424FF6E950F4D88442F2D2A0B226
S113705000F01EF8002032BD24484FF0FF31241800
S11370604D41704715491C4A09680023E0FB012380
S113707010461946194A00230BF08CBB1C480168C2
S1137080C90604D510218160012016490870704793
S1137090010081B00BD017490A6892B20B68ADF8B1
S11370A00030BDF800309B1A9BB28342F6D301B086
S11370B07047000080E200E0CC720300C875002035
S11370C000020400008001404041050081841E004C
S11370D05000020000B0710B20A1070040420F00D5
S11370E0CC750020B97F002000E100E01802FFFF0A
S11370F00C8001402480014010B52F4C01202070E9
S113710082B0002006F05EFA38B1002006F05AFA88
S113711018B100202070492016BD02237F220021CF
S1137120684600F00BF8BDF80000B0F57F7F03D08F
S113713000202070072016BD002016BD10B5FF29C1
S113714007DC1D4C247844B1BDE81040C9B205F0F9
S1137150EDBEBDE81040FBF795BE10BD2DE9F04132
S11371600446FF2C0D461646984615DC1248007856
S1137170C0B1134F387820B14FF4CE710F48F9F7EE
S1137180CFFA0120387043462A463146E0B206F071
S11371903BF80020387005E042463146BDE8F04136
S11371A0FBF792BEBDE8F08103490978002918BFB6
S11371B006F02BB970470000B67F00207C720300F4
S11371C0B77F0020012100F01F029140DFF8E02288
S11371D0400942F82010704770B50546FBF72EFBB6
S11371E0002600242821DFF8CC2201FB06F31344F7
S11371F09B7F13B1761C042EF7DB042E08BFDFF847
S1137200B84208D02DB17143114401238B772E600D
S113721001E0DFF8A842FBF74EFB204670BD10B535
S1137220DFF89C02017809B1002010BD0121017032
S1137230DFF89002DFF89042FCF7CCF90321DFF885
S11372408C02FCF70BFB032020710121DFF8800284
S1137250FCF7C0F920460BF02CFBDFF87812DFF8BE
S1137260784201200BF00EFBE069C00AC002E06125
S113727040F2FF70A061002020601D20FFF7A2FFF4
S1137280DFF858124FF000500860A021E06940F088
S11372900100E061DFF81C0201F0E6FFDFF84012B4
S11372A000200870DFF83C120870DFF83C12086018
S11372B0DFF838120860DFF83812086010BD70B5C6
S11372C08A4E002334688448026830688442F9D1C5
S11372D0981844EB030170BD30B54FF4FA5200F036
S11372E004F8C00B40EA414030BDA2FB004502FB5C
S11372F0015514F5804045F1000170472DE9F04730
S1137300FBF79CFA744D8246E869296900EA010694
S113731026F00500A86170071ED5714FDFF8C481FF
S1137320DFF8D491012038702C6800F022F8201A7C
S113733000F026F800F078F8204600F085F82C6874
S1137340E86C98F8001029B1D9F80010401A611AB5
S11373508842EAD300203870F00705D50120A861DF
S113736062480168491C01605046BDE8F047FBF7DC
S1137370A2BAE86920F00400E861D9F80000704777
S11373802DE9F0430026044600252821494871438D
S11373904718387F7D77002841D0D7E900018D4216
S11373A007D828BF844204D2001BA941C7E90001C1
S11373B035E0F87F08B938772DE0D7E90001D7E93F
S11373C00223201AD7E9028965EB01010BF0E2F9E7
S11373D0B8EB020069EB0301C7E9000138693969B8
S11373E00128786909DB0818F428786113D3D7E9F0
S11373F00001401C61F1FF3108E0401AF428786173
S113740009D3D7E90001401E61F10001C7E9000179
S11374107869F4387861B86908B101207877761C06
S1137420042EB2DBBDE8F08310B5002428212148E6
S113743061434218507F18B1116A926920469047FF
S1137440641C042CF2DB10BDF0B54FF0FF32134680
S11374500021184C28254D436619367F46B1254432
S1137460D5E900679F4203D82EBF964232463B4679
S1137470491C0429EEDB00214FF0FF34A34208BF6E
S1137480A24212D08B426FF0640401D8A24200D30E
S113749022461949174B08600421196010185863D3
S11374A00121586840F0040058600E480170F0BD96
S11374B080E200E0A8640020011000F0041000F055
S11374C0B17F002000050800885F0020050020002F
S11374D080091200945F00200820044000E100E0CD
S11374E0AF7F0020B07F00203C700020407000205F
S11374F044700020202004403870002010B5DFF8CC
S1137500804304F10800FDF7DDF804F10A00FDF7FB
S1137510D9F804F10C00FDF7D5F8BDE81040DFF808
S11375206403FDF7CFB810B5DFF85423DFF8583300
S113753014781B78234306D1DFF850331B780C2BC7
S113754003D0022906D0002010BD012908BF02F192
S11375500C0301D002F10A0301460022184606F08A
S11375602CFB0BF0C7F9012010BDDFF8140341799F
S113757019B9012141710BF0BDB97047DFF8080357
S1137580007800B1704710B50BF070FBDFF8F042E3
S1137590208128B9002104F10A0006F03FFB208174
S11375A0208928B9002104F10C0006F037FB208162
S11375B02089002804BF207800280ED16079022891
S11375C003D00BF08AFD208138B9607928B10BF023
S11375D02AFF208108B10020607110BDA84880797D
S11375E0704780B5A0F10B01102901D3002002BD22
S11375F0A3498871042000F02AF8012002BD00008C
S11376009F480178491E00220329027000D970475F
S113761080B5DFE801F002060A0EBDE801400BF078
S1137620EFBFBDE801400CF03DB8BDE8014001F0FA
S113763022BC8079F9F751FA20B1F4210FF26820C5
S1137640F9F76EF8BDE801400BF054B901BD38B547
S113765004460BF0DFFB8A4D687940B10020687165
S113766001F0C8FA032804BF40200CF0FEF9287882
S113767008B1002032BD86480078052808BF0BF009
S1137680DAF92C7000F007F818B1FFF7B9FF012000
S113769032BD022032BD38B5FBF7D0F80446784D30
S11376A005F10A0006F06CFAA0B105F10C0006F031
S11376B067FA78B176486979007808430AD10BF003
S11376C025FA38B973480CF0E9FC00F0010080F0A9
S11376D0010500E000252046FBF7EDF8284632BD01
S11376E010B56B49664C00200870208120706081C1
S11376F0A081FDF793FC0CF05BFE60700CF058FE6B
S1137700A07064480CF0BEFD63480CF0BBFD4FF460
S1137710A05162480CF06EFE00206071BDE810407C
S11377200BF0FBB92DE9F04104465D48544E057851
S1137730308928B940F28F110FF26C10F8F7F0FF7E
S1137740281FDFF85081524F0ED0801E012814D814
S113775005203870214628460CF007F908B900F0D6
S113776018F8002030810BE0312C05D0387802283D
S113777003D1200001D10120F070347100F009F828
S1137780042D04D07079012804BF02207071BDE873
S1137790F08103203870002140460CF023BD38B539
S11377A0374D297904460BF0BAFA28B929792046CD
S11377B0BDE8344004F055BF31BD2DE9F84304461B
S11377C0FDF71DFA471D05212046FDF77DFC054602
S11377D038460CF0C9FE05F44C483E5C280701D538
S11377E0042E4AD12F4806704FF4406005424FF6EC
S11377F0FF7906D0F81CFCF78BFD484508BF48F01C
S1137800400805F44060B0F5006F06D1781DFCF720
S11378107FFD484508BF48F01008012E4CF6500083
S113782015D0022E16D0032E0ED0042E08D0062E0C
S113783021D0072E08D0082E15D07C2E0ED01CE0A7
S113784020460BF0CFF9C0B90020BDE8F283B8F5AB
S1137850484FF9D0B8F54C4F0FD1F5E7B8F54C4F78
S1137860F2D08045F8E74CF64040804505D1074802
S113787000780728F0E78045E6D00120E5E700001E
S1137880FC7E00207C7A002056650020CC6100201C
S1137890D07F00200C630020D0610020E07B00201A
S11378A0F2630020CF7F00206D61632D61726269F5
S11378B07465722E6300000010B53F4A014652F809
S11378C021301C0005D0002442F82140BDE81040BE
S11378D0184710BD0020EFE72DE9F84304460E4693
S11378E03000154603D10CF063FE281831E027461A
S11378F0022F0FF2D40802DB4B2100F050F8DFF81E
S1137900B89059F8270010B14C2100F048F8B5F1AF
S1137910004F02D34D2100F042F849F827602000BF
S113792002D0502100F03BF8244E254B3068012250
S11379302946FAF706FC38B10CF03AFE0546204613
S1137940FFF7BAFF681E04E03068BDE8F243FAF7B7
S113795003BCBDE8F2832DE9F04105462F46022F12
S11379600E460FF2640802DB5D2100F018F8FAF706
S113797065FF0446104850F82710B1420AD100218F
S113798040F8271015B1642100F009F80B4800688D
S1137990FAF7E6FB2046BDE8F041FAF78CBF404613
S11379A0F8F7BEBE0BF034B8010008BF0120020195
S11379B00449002090E70000347C00206865002022
S11379C0D5780000A579000073796D626F6C2D7411
S11379D0696D65722E630000012070470B494A6887
S11379E00B68920002F03C02C3F381131A438270C5
S11379F00A6802F03F0242708A68C96802F0F00225
S1137A00C1F303111143017070470000E0FF0FE060
S1137A1010B526480FC88AB006AC84E80F0006A843
S1137A2000F04DFA01A822491422FAF7C3FC694672
S1137A306846FAF7EBFE18B1BDF80000ADF80A008D
S1137A4001A8FBF7A4FF00F03FF81A4805F08DFEEB
S1137A5000F03AF804211120FBF700FF0022002176
S1137A600320FBF7D7FF03211348FBF7F7FE03219D
S1137A701248FBF7F3FE03211148FBF7EFFE0CF06D
S1137A80A6FD0CF051FE01A80E491422FAF792FC4F
S1137A9001A80AF057FD012304220521002005F066
S1137AA005FFFAF787F800200AB010BD4847030025
S1137AB03447030000F0490202001A0003001C00CE
S1137AC00500200058470300012201210220FBF792
S1137AD0A1BF0000012100F01F029140DFF86822DD
S1137AE0400942F82010704700BF38B5DFF85C4207
S1137AF0E068216808400CD5DFF854020068056886
S1137B00290003D000F017F80021A8474FF00040E7
S1137B100DE040000CD5DFF83C0200680568290040
S1137B2003D000F008F80121A8474FF08040A0607E
S1137B30BDE831404CE00021C0E90011F6E000BF8F
S1137B4038B5DFF81442216801290CBF012500254E
S1137B504128B8BF002003DB5028B4BF0120022015
S1137B60DFF8F81101EBC001D1E90023DFF8F011CF
S1137B70C1E90023DFF8EC1101EBC001D1E90023D6
S1137B80DFF8E411C1E9002329001CBF4AF6E851DB
S1137B902160002818BF022801D002D2012000F081
S1137BA028FB0DB10020206031BD7049096800EB4D
S1137BB08000A1EBE00080F30800C0B270476C487D
S1137BC04FF040410160416821F0404141607047FD
S1137BD0F0B56049624B0A68002053F8304044B164
S1137BE0156803EBC0041DB115792679B54200D29E
S1137BF02246401C0628F0DB0A6011465D480A68EC
S1137C005AB10268120A1202026002680979114329
S1137C100160416941F0804102E0416921F0804105
S1137C204B4A514C41610021136854F8315045B11D
S1137C301E6804EBC1051EB12E791F79BE4200D225
S1137C402B46491C0629F0DB13601A6862B10268EE
S1137C5022F47F4202600268197942EA012101603C
S1137C60416941F0004102E0416921F00041416174
S1137C70F0BDF8B540490120087000F053F800F059
S1137C804DF834493D48394B0860314908603C4857
S1137C900168406DC1F3074100F0FF00FF2912BFE6
S1137CA0FF281921902001EB810200EBD2021A6017
S1137CB0C0000522B0FBF2F0401832490860684663
S1137CC0FFF78CFE9DF8010001281BD14120234CB5
S1137CD02D4D244FFFF769FF207125603920FFF7F0
S1137CE064FF06465020FFF760FF3E73BD602073BB
S1137CF0A5604820FFF759FF38753D6100F016F87C
S1137D00FFF71EFFFFF75BFF0020FFF7E3FE1F49AD
S1137D1001200860FFF75CFF0020F2BD302112480B
S1137D2001F0A2BA30210E4801F09EBA1848154954
S1137D30006809680006400D052290FBF2F0081A5D
S1137D4000F307007047000080E200E024300E409A
S1137D502C7100202871002008300E405071002042
S1137D60C070002038710020F070002030710020B5
S1137D702C300E401C300E40B27F002020710020B9
S1137D80B081E00F347100203F7B000000E100E08F
S1137D9020300E40890001EB401000F18440026065
S1137DA07047890001EB401000F18440006870477F
S1137DB070B5DFF89C140A680378920903B10423B0
S1137DC0447804B10224857805B10825C678007981
S1137DD0012E18BF002643EA821222432A4332436B
S1137DE01043086070BDDFF85C04DFF868240168A4
S1137DF01288C1F3032102F12803491C02EB530248
S1137E00283201EB8103B2FBF3F2521E0368072A06
S1137E1034BF12064FF0E06223F0EE631A4342F4DB
S1137E2080120260DFF83024B2F90020002A13D453
S1137E3092B202F1280302EB53024B08283203EBFF
S1137E404101B2FBF1F14268072934BF09017021F5
S1137E5022F07002114341607047F8B50446DFF820
S1137E60FC53686AC007FCD4DFF8E063306810F0A4
S1137E70030704D001220D212846FFF78BFFA742F8
S1137E8002D1DCB9002214E02FB9012C03D1DFF8B0
S1137E90B81302200870686AC007FCD430688008F0
S1137EA044EA80003060686AC007FCD4220018BF2E
S1137EB001222846BDE8F8400D216BE7F1BD70B5FD
S1137EC00446DFF8A00382B002210160006800F0DC
S1137ED00F00022840F08B80DFF88C03006810F15B
S1137EE0010F13D0DFF88403416802681160C16890
S1137EF082681160416902691160C1698269116017
S1137F00416A026A1160C16A806A0160E0884B2894
S1137F1038BF00200DD3B0F5FA7F38BF4FF0805042
S1137F2007D340F6C411884234BF4FF000504FF0DD
S1137F304050DFF83C53DFF83C332969B4F90C2096
S1137F40DFF800631940D243084340EAD270286145
S1137F500021306A40F0807030623046FFF721FF24
S1137F6000B1042000F034F9706920F0C040706161
S1137F70306840F0060030606846FFF72FFD9DF83A
S1137F800100012815D19DF80000032811DADFF85B
S1137F90B802017869B9A968DFF8DC2241F001016F
S1137FA0A96071691140DFF8D42211437161012184
S1137FB001702089DFF89C120880A089DFF89812EC
S1137FC00880A088DFF89812088000F0CEF8A07B23
S1137FD020B1012805D1DFF8A80201E0DFF8A402EE
S1137FE0F06060880122012100F010F808B9002037
S1137FF076BDA27A02B1012205212846FFF7CAFE06
S11380006078FFF72AFF012076BD00002DE9F847CC
S1138010A0F5E163B3F5966F00F2A580B0F5E16FCA
S1138020DFF864524FF4966807D92C6801234FF4A3
S1138030E169260EC4F3074A08E02C68C146002310
S11380404FF41678C4F3072604F0FF0ADFF8F4416E
S113805027683F0F07F0030700974FF0000E009FBB
S113806053EA0727F44614D07F1E1ED0FF3F0ED0DC
S11380707F1E14D0FF3F08D07F1E0ED0FF3F02D0DA
S11380807F1E08D016E0AF680AE0AF680EE06F68A4
S113809006E06F680AE02F6902E02F6906E0EF68E6
S11380A04FEA176CC7F3074E04E0EF68C7F3072CD9
S11380B007F0FF0EA0EB0909A6EB0A0000FB09F08C
S11380C0B0FBF8F05044ACEB0E0707FB09F786420F
S11380D0B7FBF8F828BF5045F04444D3C44528BF43
S11380E0F04540D35AB12269DFF8A071002B14BFC8
S11380F0022600263A4042EA00203043206179B348
S1138100DFF88C010068C0B2042802DA686983B120
S11381100CE0A8690099032925D8DFE801F00A07D3
S11381200402000E07E0C0F3074004E0C0F3072098
S113813001E000F0FF00000330F4704113D1216A24
S113814021F4704108432062B8F1E70FA06928BF09
S11381504FF0E708400A43EA480141EA4020A061A1
S11381600120BDE8F2870020FBE710B535494B6AD2
S11381700C68E4074FF0FF3203F0070312D5022B1B
S113818010D3142815D3143814281FD30F220868C9
S113819020F47F4040EA022040EA02300860BDE853
S11381A0104020E60C68E40709D4022B07D20A2801
S11381B001D20322EBE70A380A2807D3E6E70C6862
S11381C0E407E4D5022BE2D22828DFD20722DEE737
S11381D038B504461B4D00212846FFF7E2FD686AC6
S11381E0C00844EAC0006862BDE832401C48008808
S11381F0BBE710B5022100220300264BDC6A08BF4E
S11382000021012C03D14AF6E8540122DC62022841
S113821018680CBF20F0740040F074001860986B6C
S113822040F0080098631C48046824F4406444EA5D
S113823081210160986B20F0080098630AB1002046
S1138240D86210BD4C300E40AB7F002040300E4051
S113825018300E40D67E0020DA7E002054300E40C6
S1138260D87E002038300E401C83E00F3880E00FA9
S11382703C300E40FEFFFFCF000F0EF0B4C0400BA9
S1138280372110B7774020571883E00FFD80FFFF98
S11382900082E00F64310E403C400E400448016807
S11382A0090C09048160014801607047AC7000202A
S11382B01CA400400549027B0A7002684A604268B7
S11382C08A608068C8600020704700BF487700203B
S11382D07047000038B5FBF7FCFC0446FBF7F5FCDF
S11382E00020002124FA01F2D20712D51D481E4CA9
S11382F030F8110006284CF23C324FF20F031ED125
S11383006088984217D12188080A0C2813DA084695
S113831013E0491C89B21129E4D314490880088860
S113832040F20171884205D11148D0E90023114877
S1138330C0E9002331BD4FF4C0606280EDE740F234
S11383400725A84201BF618899422188A942E4D146
S113835062800846E1E705480088000A7047034840
S113836000887047583B030000000020D27E0020A4
S113837094000020A868002001207047802108F0A4
S113838079B980B50FF28811FAF74BF8002002BDD5
S113839010B504460FF27010008886B00023ADF8C3
S11383A00C00002203A8029000210220019000206A
S11383B0009000F01DF8010009D103A802900023E9
S11383C00420019000220220009000F010F8010027
S11383D00BD104A80021C0E90011029000910820EB
S11383E001900023012200F002F806B010BD012123
S11383F0204608F057B900B585B000F012F8022104
S113840001910021009108E000B585B000F009F861
S11384100421019102210091012108F043F905B0E2
S113842000BD531C8DF80C10DBB20904090E8DF845
S11384300D10002203A902917047E0B50291531C6C
S113844008210191DBB2002100910122012108F0F1
S113845029F90EBD80B5C9B2002914BF4FF480328A
S113846000224FF4803108E080B5C9B2002914BF5E
S11384704FF0807200224FF0807108F0DDF8002088
S113848002BD1206C9B2120A42EA01611B06DA09E8
S113849002F4F01280B5114341F0B0020F49ECE749
S11384A010B5FFF769FF0224A8B10D480068000E5B
S11384B000F00F0002281CBF032807280BD109482D
S11384C0094904600968890302D4102181600024E9
S11384D0064902200860204610BD0000B8011F01B3
S11384E004400840884008468840084088400844C2
S11384F080B50FF2180109788DF800100122694641
S1138500FEF7AEF802BD0000FFFF0000050000000A
S11385105C7D0300BC7E0300F07B030003000000CD
S1138520DFF800F0B95D0020DFF800F0495D0020BD
S1138530DFF800F0B55D002038B504460D460CF0B8
S11385402BF9012C02D1FFF7EBFF02E02846FFF7DD
S1138550EBFF18B10CF029F9012032BD0CF025F91C
S1138560002032BD10B5C20782B01BD402884FF67A
S1138570FF739A4201D00A0014D18408A400800732
S113858022684EBFC2EA0140100C41EA004000904C
S11385900CF002F9042269462046FFF7C9FF18B11E
S11385A00CF003F9012016BD0CF0FFF8002016BDF5
S11385B070B504460D46164604E00CF0F6F8241D8A
S11385C02D1DB61EB6B1012E01D0A00706D535F873
S11385D0021B2046FFF7C6FFA41C761E022EF1D311
S11385E00CF0DAF8042229462046FFF7A1FF002800
S11385F0E3D001E0002070BD0CF0D7F8012070BD7D
S11386007047002070470CF0F5B8012070477047A0
S113861080B50FF24C10FCF701F8FEF76FFF0FF274
S11386204C10FBF7FBFF0AF06DFA0FF25010FBF74A
S1138630F5FF0CF025FB0FF25010FBF7EFFF0CF0E9
S113864063FCA1A0FBF7EAFF0DF074F80FF24C10E5
S1138650FBF7E4FFDFF8DC08FCF734F80FF24C100A
S1138660FBF7DCFFFFF7CCFF0FF24810FBF7D6FF58
S11386700DF0A6FA0FF24810FBF7D0FFDFF8B808A8
S1138680FCF720F80FF24C10FBF7C8FFDFF8AC083A
S1138690FCF718F80FF24C10FBF7C0FFDFF8A00846
S11386A0FCF710F80FF25410FBF7B8FFDFF8E008FE
S11386B0FCF708F80FF25C10FBF7B0FFDFF8D40802
S11386C0FCF700F80FF26010FBF7A8FFDFF8C8080A
S11386D0FBF7F8FF0FF26810FBF7A0FFDFF8BC0808
S11386E0FBF7F0FF0FF26C10FBF798FFDFF8B00810
S11386F00BF064FD0FF27010FBF790FF0DF068FFB4
S11387000FF26C10FBF78AFF0EF0B7FA0FF2681045
S1138710FBF784FFDFF89008FBF7D4FFDFF88C0841
S1138720FBF7D0FF0FF26010FBF778FFDFF880084B
S1138730FBF7C8FF0FF27010FBF770FF0EF03DFB64
S11387400FF27010FBF76AFFDFF86808FBF7BAFF57
S1138750DFF86408FBF7B6FFBDE80140FBF762BF32
S11387604D41432061726269746572004D4143203A
S1138770696E6469726563740000000072657472E6
S113878079207461626C6500364C6F5750414E20FD
S1138790667261676D656E74730000006D756C744C
S11387A06963617374207461626C650077616B65E1
S11387B0757000006170706C69636174696F6E003C
S11387C0666F726D2D656E657267792D7363616E68
S11387D0000000006E6574776F726B2064617461D1
S11387E000000000736C656570792062726F6164CB
S11387F0636173742068656164657200676C6F629D
S1138800616C2061646472657373207461626C6569
S1138810000000006C6F63616C2073657276657292
S11388202064617461000000626F7264657220727A
S11388306F75746572204E44206461746100000099
S11388406368696C64206164647265737320746125
S1138850626C6500737461636B206576656E742069
S11388607175657565000000436F4150000000009C
S11388704A50616B65000000436F6D6D69737369E5
S11388806F6E696E670000007363616E20726573BA
S1138890756C747320666F7220636F6D6D6973738A
S11388A0696F6E657200000044544C53204A6F692E
S11388B06E0000006C6F6F706261636B206D657396
S11388C073616765730000005544500070B5DFF8AC
S11388D060460546E0882A0601D4062D04D140F0FE
S11388E0040005F07F0503E011B94FF6FB71084061
S11388F02E46022E1CBF032E042EE08008D0052E27
S11389000DD0062E18BF072E02D0F02100F043F937
S1138910A570A07804280CBF0120002001E00325E5
S1138920F6E70AF0C8F8E0884FF6F4710840062E1E
S113893008BF40F0020004D0022E14BF032E40F002
S11389400800E08070BD10B5F2B00EF08DFD0CF0A3
S1138950FCF90FF024FA11F00CFB0BF067FF11F097
S113896009FD11F045FD12F028FB12F0A0FB12F0F6
S1138970A7FB13F042F902F073F90120F8F735FC74
S113898013F0CCFAFEF7ACFEFAF726FADFF8A045AE
S11389900020A0704FF6FE70F8F768FD0020E0801C
S11389A013F011FC13F063FE15F0B6FE17F073F923
S11389B00EF04AF80EF0F4F9BC237F22082142A8F5
S11389C0FEF7BCFB00F004F901A816F004FFBDF8A3
S11389D054014FF6FF71884236D0BDF8040098BBAD
S11389E0082342AA0E210DF1060013F00AFF1023FA
S11389F044AA032113F005FF082348AA022113F017
S1138A0000FF08234AAA072113F0FBFE10234CAAF7
S1138A10052113F0F6FE15F0F7FEBDF854210121EF
S1138A2013F0D0FEDFF8C827002115F0E7FE03237A
S1138A3057AA002113F0E5FE0DF10601401AADF826
S1138A40040001A816F03CFFBDF8040000281EBF76
S1138A509DF8020000280120002100F0CFF872B038
S1138A6010BD38B5DFF880170FF2341400200880E9
S1138A70FBF76CFDFBF778F9DFF870074168C9076D
S1138A8003D5006810F0300F10D10FF268052946A5
S1138A900020F9F752FA29460120F9F74EFA204648
S1138AA0BDE8344040F2AF11F7F73ABEFEF724FBBD
S1138AB020B14FF4DA712046F7F732FEF9F7B3F834
S1138AC00FF24C00DFF868440BF00EFD607004F107
S1138AD008000BF0BCFADFF81C1700200860DFF870
S1138AE018170860FFF737FC0DF069F8BDE831404E
S1138AF029E70000537461636B2F486172647761E6
S1138B007265204D69736D617463680D0A0000001D
S1138B10000000000000000080B5FFF7A2FFBDE8E0
S1138B20024000200DF038B8DFF8C816086070471E
S1138B30DFF8C41608607047DFF8C4160860704791
S1138B4010B50020F8F7C4FEDFF8B806007818B1B5
S1138B500FF23000FBF7F3FDF9F756F8F9F75FFF72
S1138B60FAF7AAFA02F0FFFF0AF058F9DFF88C4688
S1138B7004F108000BF0F4FA6078BDE810400BF043
S1138B80DBBC00001186000000000000DFF86C066A
S1138B9040780BF0D1BC0FF20800F7F7C1BD00001C
S1138BA069702D737461636B2E630000F8F754BC15
S1138BB0DFF848168979890758BFF8F737BC70473A
S1138BC0F8F74EBCF8F752BCF7F7EBBF006800901B
S1138BD004237F220C216846FEF7B0BA80B5F7F76C
S1138BE0D1FFBDE80240FAF725BCF7F7C7BFDFF8AD
S1138BF018067047DFF804060078704770B504461D
S1138C00DFF82C03067804700D46C188032C05D1C7
S1138C1041F40041C18001F0DEFF02E0C1F30E0126
S1138C20C180200004BF012009F045FF2A463146D7
S1138C302046BDE8704018F06BB8F8B506465E22D1
S1138C400021FBF74CFBDFF8E8522878012806F1F5
S1138C50280421D0DFF8B4751022B91C3046FBF784
S1138C60DCFA06F1100012F005FA06F1180012F011
S1138C701BFA082207F1120106F12000FBF7CDFAD6
S1138C80F8F7EEFB2080F7F779FFA070A878E07082
S1138C90F7F778FF20712CE015F00AFD0746102243
S1138CA007F114013046FBF7B8FA082207F1240152
S1138CB006F12000FBF7B1FA082207F12C0106F1B6
S1138CC01000FBF7AAFA07F1580004230188218059
S1138CD07F22807AA0700C210FF258500068009017
S1138CE06846FEF72BFA9DF8030020719DF80200F8
S1138CF0E070A878032804D1A87900075CBF052098
S1138D00E070F1BD2DE9F041044620000D4604D188
S1138D102846BDE8F04118F094B8012C04D1DFF8DE
S1138D20F00418F0A0F820E0022C20DB984E00217B
S1138D30304604F03AFF022704E04146304604F08E
S1138D4063FF7F1C80465FEA080010D0FBF757FFE3
S1138D5000281CBF016A0029EFD0F9B2A142ECD16E
S1138D60811C10222846FBF758FA012000E000205D
S1138D70BDE8F0812DE9FF4104460F46844D0021F2
S1138D80284604F012FF1DE0FBF739FF060015D05A
S1138D903078800612D5002C18BF002F07D03B4630
S1138DA022463946B01CFBF753FBB84206D1338840
S1138DB0326AF169DBB2B01C0AF09AFE41462846D9
S1138DC004F022FF80465FEA0800DDD10FF268401C
S1138DD00FC86C4684E80F00002300220021684677
S1138DE00AF086FEBDE8FF813EB5694C00212046AD
S1138DF004F0DBFE15E0FBF702FF70B10178C90750
S1138E000BD5016A0291821CC16901910021009174
S1138E100121837C00200AF043FE2946204604F009
S1138E20F3FE05462800E6D1002002900190009050
S1138E300023002200210AF033FE37BDAA2101706D
S1138E40BB214170CC218170DD21C1707047DFF8F6
S1138E50C4130A7882421CBF0870FAF700BB70473B
S1138E6010B5044618F081FC20B92046BDE8104036
S1138E7011F0BDBE10BD00B5F7B04FF481720021F2
S1138E8035A8FBF72CFA35A816F01AFD35A816F00C
S1138E9019FDBC22002106A8FBF721FA4FF6FF704A
S1138EA0ADF86400BC2306AA7F210820FEF756F91A
S1138EB0042200216846FBF712FA00F02DF808227C
S1138EC0002104A8FBF70BFA082304AA7F2105203C
S1138ED0FEF744F90822002102A8FBF700FA082350
S1138EE002AA7F210720FEF739F911F097F811F053
S1138EF0D3FD00208DF80400042301AA7F21032060
S1138F00FEF72CF926480BF0AFF8FFF71CFD002004
S1138F10FAF79DFA77B000BD04236A467F210C203E
S1138F20FEF71CB90021DFF8F0020BF05BB900007A
S1138F3028770020967F0020647800209E7A002005
S1138F409E7F002038B5DFF8D052DFF8D0422846A3
S1138F500BF098F9DFF8C80200780C2810D02068CC
S1138F60142804D10120FAF772FA002006E04FF425
S1138F70FA7128460BF036F92068401C206031BD98
S1138F80002020600320BDE83240FEF760BB0000F3
S1138F90C67A0020E87E0020EA7E0020F07E0020D1
S1138FA030770020F9F7CCBD88770020E27E0020DE
S1138FB0D0770020F67E00209A7F002070B58F4C79
S1138FC02078032888B07CD0012803BF9448007817
S1138FD00C28702076D108237F22052105A8FEF7EE
S1138FE0ADF805A817F0A2FE08237F22072103A8E5
S1138FF0FEF7A4F8082203A98A48FBF70EF9082310
S11390007F22062101A8FEF799F801A8F9F7E5FEE9
S113901015F0ABFB15F04CFB054605F15806B07A8C
S1139020FEF7DFFA3088F8F721FA05F11400FBF7B0
S1139030EFF9C1B205F1140001F0F8FD05F12400C7
S113904001F0C3FD05F12C0012F01EFB0FF2F81025
S1139050FFF7BCFDBDF80000FFF7AAFD9DF9030072
S1139060F7F79FFD9DF8020000F030F811F0EFFFD4
S113907010F0DEFF01F09BF9A078062809D1002149
S11390800320FFF7BBFD01220021002010F090FA1D
S113909017E0F8F7E1F9800502D102F04BFB10E08C
S11390A0A078032818BF042804D0022805D1A07989
S11390B0C00702D402F085FB03E040F28151FFF7C0
S11390C06AFD00200AF041FD08B070BD0021FFF7E1
S11390D0FDBB80B516F086FE13F0C9FA13F0D8FA7A
S11390E046488078062803D0BDE801400EF04FBA08
S11390F001BD80B541480178032905D14A49098851
S11391004FF6FF72914201D193200BE0807804283E
S113911018BF702006D145480078042818BF0528D8
S113912004D13D20BDE802400AF09FBC11F045F98E
S1139130BDE80140FEF719BA00B59FB007A8602149
S113914000F092F807A8FFF778FD0FF2001000680E
S113915000909DF848008DF80300F8F77DF9ADF80C
S113916000006A4625488078062818BF9DF8470005
S11391708DF8020004237F210C20FDF7EFFF0FF28E
S1139180D00005A9D0E90023CDE90523284817F02C
S113919010FE082305AA7F210520FDF7DFFF0FF24B
S11391A0B8002049D0E90023CDE9032303A808220D
S11391B0FBF733F8082303AA7F210720FDF7CEFF2E
S11391C00FF29C001249D0E90023CDE9012301A844
S11391D00822FBF722F8082301AA7F210620FDF7C5
S11391E0BDFF1FB000BD0000DA760020E881E00F6B
S11391F000F8FF07DC7B0020EC7B002028770020B0
S113920040770020F36300205C770020D47A0020AC
S113921064770020BC7F0020546100204477002044
S1139220CC610020707800208A610020D07F00206B
S1139230087700200000000000000000000000008B
S1139240000000000000000000000000000000001A
S1139250000000000000000000000000000000000A
S11392600000000000000000002219F005B8000012
S11392702DE9F8430446FBF74BF80546E01CFBF7E1
S113928047F80646601DFBF743F8804600274FF475
S11392904060054208BF40274FF44C4005422ED0A1
S11392A0680658BF47F020074FF6FF794E4508BFC0
S11392B047F0010705D0FFF783FC864208BF47F05B
S11392C0020705F44060B0F5006F03D0B0F5406FBD
S11392D00CD014E0C84508BF47F004070FD0FFF7CF
S11392E065FC80450BD147F0080708E00822611DA2
S11392F0DFF87C08FAF7FAFF08B947F01007384698
S1139300BDE8F2832DE9F04FADB080461546FBF77A
S113931076FC0646701CFAF7FBFF8246701C0BF0C5
S113932023F93044441C611C0120FBF721F88146D9
S113933000271AF440407CD0B0F5004F11D0B0F5AE
S1139340404F08BFA4F1080700200090694620465A
S11393500BF00DFB040021D1384601F094FD88B9CF
S113936067E0A01EFAF7D4FFFFF77AFD0700EBD100
S1139370701C0BF016FC0700E6D101210E20FAF751
S113938054F856E0002E18BF002F52D0034600F0C8
S113939074F800284DD00120287065E0082C19D1FC
S11393A00098C0B210F042FF054601A910F04DFF2D
S11393B08346BBF1000F16D125A9284610F004FE00
S11393C0002E1CBF002F002833D000F1100300F042
S11393D054F82EE0102C2CD14FF0FF35DFF89477A1
S11393E0DFF894B7E5E710F041FF38B9002E18BF55
S11393F0002F1ED000F040F860B91AE0002E18BF0C
S1139400002F16D03278711C05A8FAF706FF00F079
S113941033F870B1102C26D0009BDBB24A46394693
S11394204046FFF7EEF820B94FF440401AEA000F27
S113943001D1022018E000F01AF818F07BFC78B98A
S113944000F015F811F039FC50B900F010F802F0F2
S113945041F928B901210F20F9F7E7FF042003E0BF
S1139460284610F04BFF01202DB0BDE8F08F0023FB
S11394702A463946484670475B463A463146701C90
S11394800BF09DBB2DE9F04F85B08046FBF7B7FB91
S11394900546681CFAF73CFF0646E8788DF802009A
S11394A006F00709F00800F0010A300A00F0010094
S11394B08DF8030006F4405400208DF801004FF0AD
S11394C0000B681CFFF7D4FE074617F0440014BFD6
S11394D0052004200121F9F7A8FF15B12878801E82
S11394E028704FF6FF6000EA0601681CFAF719FFBE
S11394F0681CF9F7A4FFD0B14FF0040B002405B1A8
S11395002C784046FBF793FB0646681CFAF700FFED
S113951007465FEACB7040F1EF8000F04DFB801E00
S11395205FEA8B71C0B201D5801FC0B2E5E0BAF129
S1139530000F0CBF002CB4F5805F13D14EF6F7601A
S11395400640DFF838060078012818BF03284FF6D4
S1139550FF7408D0052818BF062804D0072806D0B1
S11395600C282BD016E1B9F1000FFBD130E0B9F192
S1139570030FF7D117F0030003D1FFF721FBA0423B
S1139580F0D117F01C00EDD09DF8030008B14BF0AA
S1139590200BDFF8EC0500781AEA000FAED00DF1CD
S11395A0010239464046FFF7ADFE022869D1B9F100
S11395B0000F64D1002D45D10024A2E75FEA090120
S11395C006D0B9F1010F0ED0B9F1030FD2D0E1E00A
S11395D00C2801D1B807FAD5B6F5004FD4D0B6F5AA
S11395E0404FF4D1D0E70A2F1CBF062F122F25D1EC
S11395F0780758BF4FF0010B10D5DFF888050088B5
S1139600000404D5DFF880050078042815D0DFF8BD
S11396107C050078022810D04FF0410B16F440402E
S113962008D0B0F5004FAFD0B0F5404F05D14BF0A6
S1139630020BA9E7BAF1000FA6D1ABE0252FA3D006
S1139640322FCEE74046FBF7F2FA064695F800A023
S113965000F0B2FA0746A6EB0A00221805EB0A004E
S1139660411CE81992B2401CFAF7D7FDAAEB070097
S1139670C0B22F70311A89B200F0B2F840E7B9F1E4
S1139680030F30D100F098FA2844461C30460BF002
S113969067F9305C04282CD14046FBF7C8FA002D4A
S11396A0824689D02F7800F087FA019030460BF07B
S11396B057F9064601990198AAEB01012844891B30
S11396C06218811992B2491C401CFAF7A6FDB81B16
S11396D02870681CFAF71CFE0146681DFAF721FE83
S11396E0AAEB0601C7E710B94BF0100B06E70128F7
S11396F0FCD00121102062E00220211AC91D8DF83E
S113970000108442A1BF611C8E429DF800108E425D
S113971040DB221A2844411C92B2E81DFAF77DFD71
S11397200DB185F800B004220021681CFAF7D7FDBA
S11397303946681DFAF7F5FD9DF8010018B10321BB
S1139740404600F075FA681CF9F77CFE18B1072151
S1139750404600F06DFAB9F1010F39D15FEACB70E0
S113976013D502A9404619F0B2FB70B1FFF71EFAF7
S11397700146BDF80C00884207D00DF0BBFE58B17D
S1139780BDF80C0011F033FA30B96946404618F0C0
S1139790A8FD08B900201EE000F020F8404600F0C3
S11397A0FCFAB0F5004F15D1404600F019FB9DF8C6
S11397B00210044610F0E0FD20B101211120F9F758
S11397C034FEE7E79DF80210204610F0EAFD01E0C0
S11397D000F004F8012005B0BDE8F08F9DF80010FA
S11397E04046FBF73DBA2DE9F64F85B08246052188
S11397F0FBF76AFC04465046FBF701FA0490C01DCF
S1139800019000200599DFF8885302900870834680
S1139810FFF7D6F9ADF800008046DFF87813FF2093
S11398200870EF1C00F0C5F904280CBF4FF00109C3
S1139830D94600F0BEF906280CBF01260026E0092F
S113984000F0010080F001008DF80C004FF67F70ED
S1139850044000F0AEF9052808BF4FF6FF7825D084
S113986000F0A7F9032802D056EA09001ED001210E
S11398705046FBF76AFA8346002201215046FBF763
S11398807BFAB9F1000F09D05846FBF7B8F94FF647
S1139890FF7858B106990078087007E036B1584649
S11398A0FBF7ADF910B1FAF736FD804600F07EF90A
S11398B0C0074AD500F07AF9800708D5082604F4D1
S11398C04060B0F5406F0CD040F20B3107E0022647
S11398D004F44060B0F5006F03D040F20F3100F0A3
S11398E061F94146281DFAF71CFDA81D0290324675
S11398F00199FAF792FCA819871D01988019019023
S1139900BDF80000404508BF44F0400404D00146BF
S11399103846FAF706FDBF1C9A480078800748BF0E
S113992044F4404404F44040B0F5404F06D10822CA
S11399308F493846FAF771FC083706E0FFF736F925
S113994001463846FAF7EDFCBF1C00F02FF900F091
S1139950050004280ED05046FBF769F90646504628
S113996000F036F9301A210702D4C0B2672801DBAF
S113997044F48054504600F03EF90199401A5FFACD
S113998080F842463846FAF748FC01984744804438
S113999000F00CF9C0073DD5E008C7F17D016A1C51
S11399A000F0010056180100029918BF123E002968
S11399B00ED079490978029B81F001010843009097
S11399C0F2B2394650460BF0E4FC8046B8F1FF0F82
S11399D06ED0B8F1FE0F1BD101200090A6F1120247
S11399E0029BD2B2394650460BF0D3FC804644F475
S11399F08054B8F1FF0F44F0080459D005215046B3
S1139A00FBF762FB40F0080205215046FBF76BFBB5
S1139A1047440DE05046FBF70AF90499A0EB08000F
S1139A200E18F6B2324641463846FAF7F6FBBF192D
S1139A30504609F03CF908B144F010042146681C72
S1139A40FAF76FFC00F0B2F800F00500042804F007
S1139A5007060BD02EB951480178491C0170E970F2
S1139A600CE04F480178491C0170E970032E05D1C0
S1139A7000F0A2F8284447494078087000F096F8AE
S1139A8000F00500042858D0200756D50AF0BEFE81
S1139A9010F1010F0CD0012E0CD1FFF7ABF8032805
S1139AA008D0B9F1000F05D100F083F8032801D0E4
S1139AB0002059E000F07DF8032806D15846FBF752
S1139AC09EF881460024002627E0B9F1000F05D056
S1139AD0DFF8A490FF260020102420E000F066F8B0
S1139AE0C00604D510F0C2FB814601260DE068468D
S1139AF010F0B1FB5FEA000903D14FF46C7100F080
S1139B0051F8009800F07F00461C00F052F8082439
S1139B10022802D1FEF777FD01E00AF06BFE029005
S1139B20F6B20196002000902346781B411E4A4657
S1139B30C9B2681C0AF081FF07445FEA0B0004D035
S1139B405A4601215046FBF717F9781B401C287030
S1139B50781B7F2803DB40F2D33100F023F805990A
S1139B60012008709DF80C0007B0BDE8F08F0000DC
S1139B7064770020684C0100704C0100CC61002027
S1139B80F96300202E7700202A770020D07F002060
S1139B900A7F0020F2630020FA630020FE7E00208A
S1139BA0FD7E00200FF21800F6F7BABD504600F013
S1139BB02CB8504600F039B8681C0AF0D5BC000037
S1139BC069702D6D61632D6865616465722E630033
S1139BD080B5FBF714F860B10178CA0705D4401DBD
S1139BE00AF0C2FC401DC0B202BD880701D50F2097
S1139BF002BD092002BD38B50446FBF700F805464E
S1139C002046FFF7E5FF284432BD0021FBF740BAA8
S1139C100A460021FBF743BA80B5FAF7F0FF18B102
S1139C20017841F08001017001BD0421FBF730BAD5
S1139C300A46FFE70421FBF732BA80B50521FBF79A
S1139C4043FA00F4406002BD38B50446FAF7D7FF82
S1139C5005462046FFF7D9FFC00701D5E81D32BDF0
S1139C6005F10A0032BD80B5FFF7EEFFBBE038B561
S1139C7004460D46FFF7E8FF2946FAF752FB00F0C9
S1139C802AF84FF6FF718D4206BF4FF6DF7101EAE5
S1139C90000240F020022046BDE838400521FBF7D1
S1139CA022BA10B50C46FFF7CFFF2146BDE810409D
S1139CB00822FAF7B2BA38B504460D46FFF7BDFFDD
S1139CC0A84207D000F007F84FF2FF31084045EAF8
S1139CD00002E0E731BD05212046FBF7F5B92DE987
S1139CE0F04104460D46FFF790FF0646F00704D402
S1139CF08B210FF25420F6F713FDB0071AD5204636
S1139D00FAF77DFF80462046FAF791FF0746A0F157
S1139D100F0292B208F10F0108F10900FAF77DFA77
S1139D20B91F89B22046FAF79BFF06F0FD012046D1
S1139D30FFF76EFF4FF400612046FFF7BCFF4FF6BC
S1139D40FE708542204607D1FFF75FFF40F02001F7
S1139D502046FFF75DFF0AE0FFF757FF00F0DF0141
S1139D602046FFF755FF29462046FFF780FF0120D4
S1139D70BDE8F08110B50446FFF75FFF48B1B0F5C8
S1139D80006F08D12046FFF76EFF4FF6FF7188423F
S1139D9001D1012010BD002010BD80B50521FBF7C5
S1139DA093F900F4404002BD38B50446FAF727FFA2
S1139DB005462046FFF729FFC00701D5E81D32BD3F
S1139DC02046FFF718FF05462046FFF7E6FFB0F5EB
S1139DD0404F0CBF6FF007006FF00100284432BD04
S1139DE080B5FFF7E1FFBDE80240FAF791BA38B554
S1139DF00446FFF70AFFC00703D5BDE83140FEF76C
S1139E00DFBEFFF768FF05462046FAF7F8FE083084
S1139E10690611D44FF440410D4202D14FF6FF7050
S1139E2032BD05F44061B1F5006F08BF001D03D0D9
S1139E30B1F5406F08BF0A30BDE83240FAF768BA9E
S1139E4010B50446FFF7E1FE000703D52046BDE840
S1139E501040C5E74FF6FE7010BD2DE9F0471D46D2
S1139E60012610B140F6010006E0002A1ABF0326BD
S1139E7040F6214040F62100002914BF4FF4404130
S1139E804FF4004141EA0008002010F08BF918B1AA
S1139E9048F4805040F00808089C16F0020714BFEC
S1139EA00F2009202018002180B2FAF7BEFF814656
S1139EB008B3FAF7BCFE82464846FAF7A0FE5246BB
S1139EC00021FAF70CFA31464846FFF7A1FE48464E
S1139ED0FAF795FE461D41463046FAF722FAB01CC1
S1139EE0002F14BF0823022325B122462946184413
S1139EF0FAF793F94846BDE8F087F8B504460D46ED
S1139F00681D002180B2FAF790FF060001D10020FD
S1139F10F2BDFAF78CFE07463046FAF770FE3A4671
S1139F200021FAF7DCF904213046FFF771FE3CB159
S1139F303046FAF764FE2A462146401DFAF76DF9C9
S1139F403046F2BD0000000069702D7061636B65DE
S1139F50742D6865616465722E63000000B583B07A
S1139F6048B100F072F86846C17941F00201C1714C
S1139F70F8F733FF07BDF8F72FFF07BD80B5DFF80B
S1139F80A80C4179092905D1032000F015FABDE890
S1139F90014081E107291ED0491E072915D8DFE8B1
S1139FA001F00A0406040D202011042000E003201F
S1139FB0BDE8024000E2BDE8014052E2BDE80240D3
S1139FC0072079E2BDE8014066E1BDE8044040F2C3
S1139FD0753101F084BAC07A18B1BDE8014001F0CE
S1139FE01BBA01BDDFF8400C4179072900D0704746
S1139FF080B5C07A032818BF07280ED1DFF8540CA7
S113A000008900F0F4FE08D0FDF7AFFABDE8044083
S113A0109621DFF8F80C0AF0E5B801BDDFF8380C3A
S113A02000B5007883B020B1DFF8E40C16F07EFEB2
S113A03007BD00F00AF89DF8000000F0FD008DF85F
S113A0400000684616F072FE07BD04216846F6F764
S113A05069BC2DE9F84304468846DFF8009C5E227B
S113A06000214846FAF73BF9102200214846FAF746
S113A07036F905220FF25401DFF8AC5B0FF25406F7
S113A0804846FAF7CAF809F128070220F8700320B5
S113A09038714FF6FF7038800020E8810DE018EA2F
S113A0A0000F09D0B078F27821184844FAF7B5F8CF
S113A0B0E88931880843E881361D30880100EED1F3
S113A0C094F82A00B870BDE8F1830000656D6265FC
S113A0D072000000010000100200100804002008B3
S113A0E00800280210002B0120002C0140002D1034
S113A0F08000180800013D2000015D0100000000FF
S113A10038B504460D46FEF775FD20B1BDE8324072
S113A110702009F03EBD00F009F8002009F039FD77
S113A12029462046BDE8344015F02CBA294620467D
S113A1308FE7F8B500F08AF8002802BFDFF8FC0BBF
S113A14000780C2826D100211020FAF76EFEDFF8E3
S113A150D87A388208B918201DE0002009F0E7FCFD
S113A16000210220FEF74AFD4FF6FB7000EA0501CC
S113A170FFF7DDFF0FF0E7FE388AFAF740FD102203
S113A180FF21FAF7ACF83146BDE8F8400522022079
S113A19009F0D0B97020BDE8F24000F0BBBDF8B5BD
S113A1A0DFF8847A0446F8890D46160019BF00F0DA
S113A1B04F014F2900F04700472801D0022019E041
S113A1C0FEF718FD002802BFDFF8700B00780C289A
S113A1D00FD1DFF8880A80F82B502046FEF7F4FCF4
S113A1E00120F8713E72002009F0A7FCBDE8F1409F
S113A1F052E07020BDE8F24009F09FBC70B500F059
S113A20025F8002802BFDFF8340B00780C2818D199
S113A210FFF78CFFDFF8444ADFF80C5A94F92C005E
S113A220FEF7D2FC0FF0A4FE6E611021204600F070
S113A230FDFC0020E871287209F07FFCBDE8704045
S113A2402AE0BDE87040702009F077BC04460D4652
S113A2501646FEF7CFBC80B5FEF7CCFC042802BF3F
S113A260DFF8C409C07A002803D100F097FE00206B
S113A27000E07020BDE8024009F063BC20F08001DA
S113A280042900D0704780B50121FEF71FFBDFF8D9
S113A2908C1C0020087001BD80B5FFF7BFFEF8F7E5
S113A2A09BFDDFF8B80990F82B0020F08001042909
S113A2B008D101210320FEF709FBDFF8500A09F059
S113A2C0E1FF02E00121FEF701FB00F0C9FC0021DF
S113A2D00220FEF793FCDFF85019022008710120D8
S113A2E0BDE80240E8E038B50446DFF83C09008ADE
S113A2F00D46FAF784FC10B1204400F80B5C31BD24
S113A3002DE9FC4106460F4690461C46FFF786FEA3
S113A310DFF81459687920B1702000F0FBFC0020AC
S113A32043E010F0C4FE3046FDF75BF93846FEF713
S113A3304BFC4046FEF746FC0C98DFF84C6C0021C1
S113A340FEF7C4FA308840F0010030800020FEF7A8
S113A3502FFC0899204600F069FC072068713088BA
S113A36040F400403080A87B400704D5DFF8280C77
S113A37000F02BFC04E0FFF768FE684600F025FCC3
S113A3800A9811F081F90B9811F0A2F9FEF7A1FED9
S113A390012015F091F8DFF88C088078FFF7DEFDD6
S113A3A0FEF7CAFE00F02EF90120BDE8F681DFF8C1
S113A3B0781807204871704770B5DFF86C486679E3
S113A3C0054600F04DFC012E08D12079010005D08E
S113A3D0401E20710120BDE870406DE0A0790100AD
S113A3E012D0401EA07109F0E3FFDFF83858297835
S113A3F000F034FF05F1080009F0F4FE0820607154
S113A40028788000287070BDDFF8500890F82B0081
S113A410FFF734FFF8F7E0FC29460020FEF7EEFBD7
S113A420BDE8704000F065BD10B50C468AB0014629
S113A43008226846F9F7E1FF2022002102A8F9F773
S113A4404EFF02AA0821684618F09AFE082202A9C3
S113A4502046F9F7D2FFE07940F00200E0710AB03B
S113A46010BD10B5DFF8C047607A401CC0B21B288D
S113A4700EDA6169C140C907F7D56072FDF7B1F81A
S113A480E07958B900F0C9FB072807D0012206E09B
S113A490BDE810400022032100203DE200220021FB
S113A4A000200FF048FABDE810404FF49671DFF831
S113A4B0740C09F097BE00002DE9FF41064668467A
S113A4C000F013FCDFF85C47DFF85C57DFF88C77AB
S113A4D0DFF8248C00F005FC6E7107F1280668791A
S113A4E0401E062800F28780DFE800F0041F505C5D
S113A4F05F8566004FF6FF776078E78078B1308833
S113A50001E009F055FFB842FBD0FEF75BFBA078F1
S113A510FFF724FD0A206872FFF7A3FF70E0696962
S113A5200522032009F006F86AE0DFF8FC1BE07856
S113A53009780840DFF85C1A097808420AD0A8694B
S113A54020B94FF442714046F6F7EAF8A969684623
S113A550884755E00022082105F12C00F9F73EFF59
S113A56028B105F12C01DFF8A807FFF75DFF05F11D
S113A5702C00F8F732FC97F85D30298807F13D028A
S113A58068460CF0DAFEDFF8D01C10E0012013F06E
S113A590D8FC20B940F227314046F6F7C1F842F61C
S113A5A0E06104E041F2883101E04FF4967104F176
S113A5B0080009F017FE23E000F09BFC00F02DFBDF
S113A5C0062807D100F01EF80122002100200EF019
S113A5D0EFFF0DE0072802D100F014F808E0A0789E
S113A5E0FFF7BCFCF078FFF749FE172000F0D6FC1B
S113A5F0FEF7A2FD04E04FF454714046F6F790F8DC
S113A600BDE8FF8100210320FEF7F8BA2DE9F041EF
S113A61092B0804608F080FF05464046FAF707FBF3
S113A620441B4046FAF7EBFA0619F6B21A2EC0F2AA
S113A6308E804046FFF7B1FBB0F5004F78D040461E
S113A640FFF7ABFBB0F5004F72D042220021684601
S113A650F9F745FE08AC2878A07040466F78FFF7FC
S113A660A3FB0146082206A8F9F7D7FD1022A91C6E
S113A6706846F9F7D2FD082205F1120104A8F9F79A
S113A680CCFD03214046FAF703FDE070012140466A
S113A690FAF7FEFC607102214046FAF7F9FCA0715A
S113A6A04046FAF7ACFA0830F9F732FEADF820006C
S113A6B007F001002071F80800F001008DF8400057
S113A6C03809E07105F11A073544381DA8420AD249
S113A6D03878122804BF7878022804D1B81CF9F716
S113A6E017FEA0833F1D381DA8420AD238780F28D0
S113A6F004BF7878022804D1B81CF9F709FEE08376
S113A7003F1DB81CA8420BD23878082808D17A78A3
S113A710112A05D2A276B91C0DF12A00F9F77DFDA4
S113A720DFF804054079012803D1684600F013F8E6
S113A7300DE0DFF808060078012803D1684618F018
S113A74027FE04E0052804BF684612F022FD12B07B
S113A750BDE8F08100BF2DE9F84FDFF8C894DFF8B9
S113A760C8448046B9F8060008F1200700F03FFB12
S113A77094F9020097F906100CBF4FF0010A4FF04C
S113A780000A8842F879B4BF01250025421E92418F
S113A790D20F8DF80120E1784A1E9241DFF8741C33
S113A7A00978D20F8DF80020062962790CBF0126A2
S113A7B00026012A09D1022807DBB878032804D12E
S113A7C0072903D198F8400078B989E0387938B17D
S113A7D0B97E080004D008F12A0011F0F3FE20B974
S113A7E0A07B00F0470047287AD10022082104F119
S113A7F02400F9F7F3FD78B90022082108F11800C4
S113A800F9F7ECFD40B9082208F1180104F124001D
S113A810F9F76CFD002863D1A07BDFF840B4C007D2
S113A8200CD5002210215846F9F7D8FD30B9102272
S113A83041465846F9F75AFD002851D1A07B4007FC
S113A8400CD5002208210BF12000F9F7C7FD28B927
S113A85000F048F8F9F74AFD002841D1A17B090727
S113A8600BF1280003D501883A88914238D19DF82C
S113A87001109DF800209DF800302940324311401A
S113A8809DF80120324382F001022B4341EA0A0180
S113A8901A40114324D0F9788170B979A1703988AC
S113A8A00180414600F0B9F907280CBFF88BB88B3A
S113A8B020801022F879E0705846F9F7AEFC00F0D9
S113A8C011F8F9F7AAFC4FF6FE70A9F8060008F192
S113A8D0180104F11C00BDE8F84F0822F9F79DBCEB
S113A8E0BDE8F18F082208F110010BF12000704738
S113A8F038B5DFF8684304F12805A878FCF771FE41
S113A9002888FEF75FF904F1200000F05EF9204684
S113A910BDE83440102189E1F0B5020085B040F073
S113A9209180C14DCD4C6879012833D10022082192
S113A93005F11C00F9F752FDB8B9FFF7D9FFE87922
S113A94070B100F06AF9062808D10022082104F148
S113A9501800F9F743FD08B1062002E0072000E0E3
S113A960022005B0BDE8F040A6E5287A68B1FFF7FB
S113A970BFFF18F0EAFD012014F09EFD0720687166
S113A98005B0BDE8F04000F0D9BC05B0BDE8F0402A
S113A990022011E5022903D105B0BDE8F040CFE162
S113A9A0042904D105B0BDE8F04012F07DBB0329B1
S113A9B041D1288AFAF723F9EB8903F0080632001B
S113A9C004F128014FF6FF770FD14FF0000C002857
S113A9D01CBF30F81C20BA4208D10CF101025FFA06
S113A9E082FCBCF1080FF2DB1CE00A88BA4218D0E2
S113A9F018064CBF04F11800002003909B074CBFBD
S113AA0004F1100300230020019002931020009011
S113AA102346CE7891F90410A87A0496FFF770FCC7
S113AA2016E01EB905B0BDE8F040C3E105B0BDE8CD
S113AA30F04070206EE105290AD105B0BDE8F04070
S113AA4012F0CABB022903D105B0BDE8F04061E1B0
S113AA5005B0F0BD74484079062804BF0720FFF70D
S113AA602BBD704738B5704D0446687903280DD165
S113AA700CF034FA1CB1BDE8324004201CE5092076
S113AA8068714FF4FA61BDE8344010E531BD6648A1
S113AA904079022804BF0420FFF78EBC7047DFF81A
S113AAA0741C4A78002814BF42F0010002F0FE0032
S113AAB048707047DFF85C0C40786BE070B50C00B0
S113AAC086B00646DFF8085C03D11A2028700020FF
S113AAD03DE068461421FEF7C7FB112CA8BF1024E3
S113AAE008208DF800008DF80140224631460DF112
S113AAF00200F9F792FBDFF81C6CA21C92B26946C3
S113AB0006F11A00F9F789FB3019122100F81C1F0D
S113AB1002214170DFF8181C0A88120A8270098821
S113AB20C170717809070ED50F210171022141719D
S113AB30DFF8EC1C0A88120A82710988C1717078E6
S113AB40000748BF241D04F1200028700120FFF7EE
S113AB50A6FF06B070BD10B5040004D0FEF74AF895
S113AB6008B1702003E0204600F005F80020BDE89D
S113AB701040F8F757BCDFF89C1B4A78002814BF34
S113AB8042F0080002F0F70048707047DFF8840BC9
S113AB904078C00800F00100704780B52248407931
S113ABA0022818BF03280CD007280CD1DFF8640B47
S113ABB04078C00705D413F07BFD90F8560040069A
S113ABC001D5012002BD002002BD01460822DFF8A4
S113ABD0640CF9F722BB10B5DFF8AC4320880004FD
S113ABE003D440F2375100F0A1FBDFF8E41A1A2035
S113ABF008700321DFF81C0B0170417841F020013B
S113AC0041702078C00703D400F007F8022803D16C
S113AC10BDE810400CF03EBE10BDDFF8F807007828
S113AC2070470000846100205478002070B50D4600
S113AC30112D0446A8BF1025DFF8D86A1022002180
S113AC40B01CF9F74CFB2A462146B01CBDE8704005
S113AC50F9F7E3BA98780020BE7F0020F47700204B
S113AC6038B5DFF8D45BDFF8244400206871E8725B
S113AC704FF6FE70FDF79CFF11F0F9FC4FF6FF70E4
S113AC80E0800822002105F11C00F9F728FBFF20D1
S113AC9020710020DFF8A41BBB4D08702888C0F386
S113ACA00E0028800AF051F80DF079F8DFF8901BB7
S113ACB0002008700CF0D8FB10F09FFF11F083FA0D
S113ACC010F07BF90CF00AFE0020FFF7E8FE0120EB
S113ACD0207000F006F828884FF6FE71084028809E
S113ACE031BD04F1080009F0CDBA80B5DFF89C133A
S113ACF0C9884FF6FF72914201D1002002BD01467E
S113AD00DFF8400B16F0AFF8012002BD9861002077
S113AD105C77002010B50446DFF81C1B0020088275
S113AD20FDF768FF20B92046BDE8104008F0FFBEDB
S113AD30BDE8104001210020FDF760BFCC61002078
S113AD40F8B5DFF8F45A288AF9F759FFFF240027E9
S113AD50060014D00020315CA21F9142BCBF8C1DA0
S113AD60E4B2401C1028F6DB0020315CA142BCBFD9
S113AD707F1CFFB2401C1028F7DB380003D1BDE86C
S113AD80F2400120C6E709F013FB90FBF7F107FB43
S113AD901101C9B20020325CA24206DA0A0002D1D3
S113ADA00B30A87204E0491EC9B2401C1028F2DB23
S113ADB0BDE8F14070B5DFF8804A208AF9F71FFF3B
S113ADC00546002609F0F4FA00F011F81EBF002D24
S113ADD025F81600761C082EF4DBA17ABDE8704035
S113ADE0012000FA01F10522032008F0A3BB4FF66D
S113ADF0FF718842704770B5044620000FBFDFF82A
S113AE00480A0120A0400843DFF82C1A98B01546E0
S113AE1048611E465E2200216846F9F760FA1E99D1
S113AE20082208A8F9F7F9F9324629466846F9F7DD
S113AE30F4F91F9E102231460DF12D00F9F7EDF9BA
S113AE401D9D0822294604A8F9F7E7F920998DF8F1
S113AE502A4030460FF01CF9284610F015FC1C98C7
S113AE6047214FF6FF7290421CBFADF828004F21D6
S113AE706846FFF745F918B070BD01461022DFF8A7
S113AE80CC09F9F7CAB938B50446DFF8AC5900F073
S113AE901CF820B12046BDE8324018F07CBE05F114
S113AEA0340032BD38B5DFF8905904466879042877
S113AEB002D100F00AF810B16879072804D12046BD
S113AEC0BDE8324000F04CBD31BD0022102105F137
S113AED03400F9F783BADFF83C050078072805D079
S113AEE0DFF854094079022802D10320FFF7E4BABD
S113AEF0704710220021DFF85409F9F7F0B980B542
S113AF00FFF7F7FFDFF830094079042804D1BDE8E2
S113AF1002400520FFF7D0BA01BD0000D57F002014
S113AF2010B55A4C60791B2811DB0B20607104F1B9
S113AF30200009F0A7F900F0F0F8DFF8FC18002071
S113AF40C8720021BDE810400420FDF757BE13F07D
S113AF50AFFB5A3012F044F801466079C140C9078A
S113AF6048BF0EF074FC6079401C6071322104F11A
S113AF702000BDE8104009F035B980B5FCF72EFB80
S113AF80DFF8B418087301BD2E770020DFF8C40879
S113AF9070470000CD7F002014780020002100E0DD
S113AFA001212DE9F041DFF8906804467079072803
S113AFB00D464ED1F07ADFF8D48001000AD006287D
S113AFC018BF072845D108F10800BDE8F041002169
S113AFD009F008B9DFF880783878002814BF002019
S113AFE00220B071280028D100F0B9FB072070714D
S113AFF0DFF868080188C1F30E01018000F02BF826
S113B0004FF6FF70A8F80600DFF80804007802285D
S113B01018BF0FF0EDF90822002106F11C00F9F722
S113B0205EF9387848B90CF01FFADFF810180020E0
S113B03008704FF6FE70FDF7BBFDDFF81468802240
S113B04000213046F9F74BF9B4703571BDE8F04191
S113B0501EE0BDE8F08180B511F009FB09F075FE32
S113B0600CF09DFEDFF8D8170020087010F0C5FD25
S113B07011F0A9F80FF0A1FF0CF030FCDFF8DC07A9
S113B08001884FF6FE721140018001BD84610020E9
S113B09038B5DFF8A417A44CDFF8B4570020C87201
S113B0A0FF202071FFF71DFE012068700822022096
S113B0B0287000214FF6FF702881A5F8440005F19F
S113B0C00A00F9F70CF9FFF7A8FDE87020F08000FA
S113B0D0042807D101210320FDF7F8FB04F1140033
S113B0E009F0D0F8DFF870070078BDE83240002896
S113B0F014BF02200120B9E084B8000080B5DFF855
S113B100600709F0BFF800F008F8DFF82C170020FA
S113B110C8721220BDE8024040E7DFF83407C07867
S113B120FFF7ACB88C610020E87B00202DE9F041EA
S113B130DFF80457DFF81847EF7A13F0B9FA00285C
S113B1400FBF012690F85600400900F0010620794F
S113B15010B10020E8727CE0022FDFF8CC8121D10D
S113B1602078010032D0401EDFF8EC162070C0B207
S113B170097880B900291EBFDFF8E80600780028A6
S113B18003D00CF071F9022020700020DFF8AC1617
S113B1900870012003E0002914BF02200120BDE84B
S113B1A0F04163E0A879010018BF012F0ED0401EC2
S113B1B0A87109F0FDF8617800F050F800F0BAF8D1
S113B1C00420E87260788000607042E0FDF712FDB0
S113B1D0052804BFA078142808D114F07DF828B1FC
S113B1E00020E87214F017F815200BE0FDF702FDBB
S113B1F005280AD113F096FA38B10020E87214F049
S113B20010F81620BDE8F041C8E6FDF7F3FC052868
S113B21012D1FFF702FD022818BF06280CD15EB137
S113B22018F093F90020E872FDF786FFBDE8F041BD
S113B23000210320FDF7E2BC14F02DFD0FF040FFC8
S113B2400820E872002108F12000BDE8F04108F070
S113B250C9BFBDE8F0810000400D03004FF47A72CD
S113B260514390FBF1F201FB120170472DE9F041CB
S113B2700646DFF8B48086B008F1080009F002F849
S113B280DFF8B455012EEE7204D045D3032E0FD04F
S113B29006D341E000200EF0DBF940F2EE2104E099
S113B2A001200EF0D5F940F2E24100F043F837E016
S113B2B0DFF89C6501A906F10A0015F0D4FD41F6FA
S113B2C0583100F037F8F41C524F2078FEF7D6FFBF
S113B2D03878042808D1DFF89015012008709621E9
S113B2E008F1140008F07EFF607830B9082206F1F6
S113B2F00A0105F11C00F8F790FF387896F8312020
S113B30004280CBF012300230020009006F1210132
S113B31001A80EF010FA03E040F6180100F006F858
S113B32006B0BDE8F0810000846100200FF25450A3
S113B330F5F7F6B908F1080008F054BF2DE9F0411B
S113B340344D2878062882B003D140F61E01FFF759
S113B350EDFFDFF8E444DFF81465DFF8F48400203F
S113B360E07208F1020706F1080008F08BFFFFF70E
S113B37049F9B87818B1FFF76EFE0CF075F8DFF8EC
S113B380C004007868B9F88808F10A0116F00CF8CE
S113B39008F134010A7B8B6800924A68096816F048
S113B3A0A1FC2878042804D1DFF8BC14002008701C
S113B3B012E002280CD1DFF8A4040078C00758BFBB
S113B3C018F07EFC387818F04BFE18F0A8F803E06B
S113B3D0032808BF18F074FCFDF7AEFE3878122875
S113B3E006D10B20707106F1200008F04BFF0CE031
S113B3F011280AD1FCF7F2F80146207B884204D0D8
S113B4004FF47A72032113F06DFABDE8F34113F09F
S113B4108DB900002A77002070B5DFF81C44DFF8EE
S113B4203004E17A491E062900F108054FF6FF763B
S113B43051D8DFE801F025393E1950040C000020F2
S113B440E0724FF6FE70DFF82814088008E0DFF899
S113B4501C5405F1140008F015FFEE800020E07282
S113B4601420BDE8704099E5C01C417811B100205A
S113B470E07270BD0078FEF701FFBDE8704007E69A
S113B4802888B0420ED0A87C022803DA287E20281F
S113B49008DB01E003281ADADFF8D813287E0978DC
S113B4A0884214D2022013E02888B0420FD102202F
S113B4B003E0A98FB14203D10320BDE8704035E613
S113B4C000F144013C222846F8F7A7FEAE8703208A
S113B4D0BDE87040CAE6BDE8704040F6AB010FF22B
S113B4E0A430F5F71DB9D449C97A032905D1002838
S113B4F018BFFFF723BF032018E6704738B50D4681
S113B50004462888FFF773FC27D02B7E217E05F1A3
S113B510130204F1130018F09CF810B101281EDB8B
S113B5201BE0A17CA87C884221D12888C0F30900B3
S113B530411E20888941C0F30902501E8041C00F7A
S113B540B0EBD17F15D1E868E26801021302090E5D
S113B5501B0E8B4205D0994201DA012032BD002036
S113B56032BD0BB9904202D1298A228A914280418C
S113B570C00F32BD70B5154682B004461E463C224B
S113B580F8F74BFE2846FEF70FFC01460822A01CE4
S113B590F8F743FEB27B716B04F11900F8F73DFE36
S113B5A0B07B84F829000020B16EF8F7E1FE44F87E
S113B5B02C0F0020F16EF8F7DBFE606068460EF099
S113B5C0F1FD28B170680099814238BF0EF081FD09
S113B5D07068A060B07C207373BD2DE9F04F8B467A
S113B5E00BF11C0691B08046B06D019002214046DB
S113B5F00BF1C004F9F74CFD2568074629460020E5
S113B600F8F7B6FE814695F806A06A790198514686
S113B61018F058F810B914F0ABFA55E030880199D5
S113B620ADF8080005220DF11B00F8F7F6FD8DF8C2
S113B63020A078B216F040FA074616F065FA24798D
S113B6408246204616F060FA0546308880050BD104
S113B65089480268100007D069460BF1130090472F
S113B66010B19DF8000003E05046A84288BF284668
S113B6708DF81A00E019ADF8180029F07F40059004
S113B6809DF81A0000B3724E06F1080102A8FFF7F4
S113B69035FF60B13C2206F1080106F14400F8F7D9
S113B6A0BCFD5B46424602A906F108000AE006F129
S113B6B0440102A8FFF722FF30B15B46424602A9CB
S113B6C006F14400FFF756FF11B0BDE8F08F00000B
S113B6D0D07A002070B5044608465749C97A032930
S113B6E015460CD15A4E082206F10A01F8F7FEFD60
S113B6F028B9F06BA84204D1706B844205D20020B3
S113B70070BD3CBF281A4028F9D27463F563012048
S113B71070BD0000D47A00204D48836B934201D35E
S113B720002070470181511C816301207047000093
S113B730D863002080B5FDF739FA4D49088000F040
S113B7400EF83D48072141710621C17240F2DC51D7
S113B7504A4808F047FDBDE801400DF04FBF002105
S113B7600520FDF74BBA7FB53348C17A062927D1A6
S113B7700021C17200253948414E018841F400413D
S113B78041F00101018003200021FDF737FA3B4815
S113B79008F078FD0EF07BFE0CF07CF80EF038FF1C
S113B7A004460AE03268694602EBC50015F05BFB0B
S113B7B0022168460EF05FF86D1CEDB2A542F1DB84
S113B7C07FBD10B5FFF7CBFF1B48284C0721417103
S113B7D0C172FDF7EBF900F47C40E080FFF71DFA3D
S113B7E0042804D1002104F1140008F0FBFC0EF03D
S113B7F069F804F10800BDE8104040F2DC5108F09B
S113B800F1BC80B50C48C17A072908D10021C17266
S113B810FEF7F9FEBDE80240184808F033BD01BD4B
S113B820DA6300200448C07A072804BF0A20FFF71F
S113B8307DBC7047E67A0020547800209A7A002074
S113B840997A00207078002000F8FF07887800209B
S113B85098780020A27800209C7B00202E7700207E
S113B860A46100200E7C0020D57F0020846100208C
S113B8706C62002055620020987B00208C610020BF
S113B880045F00206A6F696E2E63000070B512F0C9
S113B8900FFF304C90F8560000074CBF2578002568
S113B8A0284607F0FDFD06000BD007F035FE2A46BA
S113B8B0211DF8F7B2FC3046BDE870400121FBF7CA
S113B8C032BE70BD30B585B00446F9F798F9451D10
S113B8D0284608F049FE285C072821D1FDF766F9BF
S113B8E04FF6FF7188421EBF1B4C207803282ED0D0
S113B8F0042818BF07282AD0184D284608F0CEFB84
S113B90028BB2078062802D014F032F9F8B108F0E8
S113B9104FFD00F07F00411C284608F063FC16E050
S113B920042814D12046FEF738FAB0F5404F2046DB
S113B93005D1FEF739FA694615F095FA04E0FEF7E9
S113B9404FFA694615F069FA68460DF0E3FF05B051
S113B95030BD0000D07A00202A7700200062002049
S113B9602DE9F04794B080460121F9F791FB824616
S113B97002214046DFF8787CF9F78AFB38704046AC
S113B980FEF753F9072804BF97F90000F7F75CFDA9
S113B99001F059F800F00500042803D14046F7F7F8
S113B9A050FDDDE005214046F9F78EFB0006C00E90
S113B9B010F0010533D0404615F0F9FE16F025F9D4
S113B9C06946404617F083FA48B3FDF7EFF8BDF82F
S113B9D0041081422ED14046F9F711F981464046C0
S113B9E0FEF7F6F804464046F9F721F99DF80010F1
S113B9F0001B461AF6B209EB040032460144F8F77C
S113BA000CFC311989B24046F9F72AF9BDF8021045
S113BA104046FEF72CF901F016F801F00FF8404605
S113BA2009F076FA10B3404609F086FA5FEA000896
S113BA3013D195E09DF801000228FADB404617F087
S113BA406CFA4FF6FE714046FEF749F900230022D6
S113BA50FF21404600F08BFC82E052460121F9F7B9
S113BA601EFB3A7802214046F9F719FB02A9404629
S113BA7017F00AFA002873D00DF113000FF0B9FD86
S113BA8000286DD1002210210DF12300F8F7A6FC47
S113BA90002865D19DF82300FF280CBF1420122034
S113BAA00121F7F7C2FC25B102A9404600F03FF995
S113BAB056E0DFF8785C287850B102A800F079F8F5
S113BAC030B16A6810004BD041460020904747E0EF
S113BAD09DF83800112843D102A818F0BBFC0028B7
S113BAE03ED0DFF84C2CBDF84C00128890421EBFAB
S113BAF0DFF8402C128890421EBFDFF83C2C1288DD
S113BB00904219D10DF1230015F0BCF940B30DF1A9
S113BB102B0015F038F920B90DF12B0015F057F969
S113BB20F0B10DF1130015F0ADF9C8B1002202A96E
S113BB3040460BF0EBF913E044F64C5188420FD128
S113BB409DF82300FF280CBF0022424602A940466C
S113BB500CF0B4FA20B1404615F029FE16F055F861
S113BB6014B0BDE8F087F0B593B00FF20C64DFF8C1
S113BB70805ADFF8B86C15E00021304602F04EF828
S113BB8007466FF07F0028706946384617F07CF945
S113BB9020B940F209112046F4F7C2FD694638463F
S113BBA000F0C5F8304601F0EBFF0028E4D013B0F4
S113BBB0F0BD38B5DFF8784C218801B300F13005C9
S113BBC02978112909D118F045FC30B12088698AF7
S113BBD081421CBFA98A81420FD0287806280ED141
S113BBE06868F8F798FB2188884206D06868801C4A
S113BBF0F8F791FB2188884201D1012032BD002051
S113BC0032BD2DE9F041DFF8244B0546207894B08D
S113BC108846B0B32846FEF708F8032831D008F167
S113BC201B0708F13406787D3A280DD13068007876
S113BC30B074643825D02138032822D9163820D08E
S113BC40801E01281DD911E011280FD1404618F09B
S113BC5001FC58B1308A44F64C5188421FBF40F26F
S113BC60222188424FF2BF0188420AD069463846F1
S113BC7015F0DAF838B1FCF799FFBDF800108842E6
S113BC8001D100201AE03878FF280CD12846F9F7B2
S113BC900EFA050011D001A917F0F6F801A92846FB
S113BCA000F057FD03E04146284600F052FD62686B
S113BCB0100002D0294600209047012014B0BDE8AE
S113BCC0F0812DE9F04780460D46FDF794FF0646C6
S113BCD0686BB11D471A4046F8F7A9FF0446301DAA
S113BCE0F8F719FB81464046F8F789FF696B611A3A
S113BCF000EB010AE86A2838B11D8842BFB203D0BC
S113BD0040F2671100F034FA696B1FFA8AF2B01D31
S113BD10F8F783FAE11B89B24046F8F7A1FF301D1A
S113BD20A9EB0701BDE8F04789B2F8F7FEBA2DE99F
S113BD30F84380468946FEF783F8064648460FF0E6
S113BD4083F8C8B94FF6FE75AE42DFF8A478DFF881
S113BD50B84C03D009F10B0020607E804946404670
S113BD6000F00CF8002121607D8028B1494640464E
S113BD7000F004F80028F9D1BDE8F1832DE9F04F73
S113BD8082468B4697B00BF11B0015F0A0F80646CF
S113BD900BF11B0018F0F0FB814666B95046FDF725
S113BDA034FF000707D50BF11B000EF0BEFFFF2880
S113BDB018BF012500D100255046FDF726FF0007D6
S113BDC00BF10907DFF8284818D5002E08BF002D0D
S113BDD014D1B87CFF2811D00BF11B010BF10B001F
S113BDE00FF00FFF50B96088694615F016F85346F6
S113BDF06A460021012018F095FD01E155EA06008C
S113BE004FF6FE782AD05046FEF71AF80546454507
S113BE1009D15046FDF7C1FFB0F5004F03D150469C
S113BE20FDF721FF0546454518D028460BF062FB77
S113BE3018B128460EF0C8FE80B10BF10B0015F0C6
S113BE400DF820B90BF10B0014F0DFF930B1012328
S113BE502A460BF11301002010F060F95046FDF75B
S113BE609CFFFF25B0F5404F504604D1FDF79CFFE1
S113BE7000F001FB09E0FDF790FFB0F5004F05D19C
S113BE805046FDF7ADFFF7F723FA054694F9001085
S113BE9028460EF0CCFC59EA06004DD00BF12C00DC
S113BEA0017929293ED13978002902BF00688078B8
S113BEB06D282DD15046F8F7BAFE0021F8F7B5FFEA
S113BEC00028814699D05046F8F7B1FE0446504602
S113BED0F8F795FE05464846F8F791FE22462946AE
S113BEE0F8F79BF904A9484616F0CEFF04A9484682
S113BEF0FFF7E7FE04A9484616F0C6FF04A9484622
S113BF00FFF77FFE30BB04A9484600F0A0F821E00B
S113BF1059465046FFF7D5FE5946504616F0B4FF31
S113BF2001206EE059465046FFF76BFE90B9594622
S113BF30504600F08CF80DE0DFF8D00A00780228B3
S113BF4008D17878022805DA5B465246002103209E
S113BF5018F0D2FC00F046FB00F0010080F0010074
S113BF6030434DD1787802284ADB0BF10B0014F0F2
S113BF7089FF002844D10BF11B0014F083FF002833
S113BF803ED1002210210BF10B00F8F727FA00280C
S113BF9036D10BF11B0014F0C5FF88BB0BF11B005D
S113BFA014F0C7FF60BB0BF11B0014F09BFF38BB00
S113BFB07878401E78705146584616F06FFF504608
S113BFC0FDF72AFEB87CFF2810D14FF6FF715046CA
S113BFD0FDF785FE08F0ECF9DFF8342A1278012128
S113BFE09140491E01EA0003022205E04146504601
S113BFF0FDF775FE0023FF225946504600F08DF9E7
S113C000002017B0BDE8F08FF8B504460121F8F719
S113C0109CFEDFF8185810B90022214611E00121D6
S113C0202046F8F7D1FE06460021F8F7FEFE070089
S113C0300CD0F8F7E4FD32462146F8F774FF0022ED
S113C04039462846BDE8F84001F0B7BDF1BDF8B562
S113C0500D4605F13006044637783A2F13D0112FD8
S113C0600FD17068801DF8F756F960B92888B0F5CB
S113C070A06F0FDD2B4622460021022018F03CFC65
S113C080F1BD062FF2D12946204618F019F90028EF
S113C090ECD0F1BD694605F11B0014F0C5FE08B3F0
S113C0A0BDF80000DFF86C19081808281AD2112FFF
S113C0B05DD1DFF86419BDF80000097800F00700CD
S113C0C001F00701884252D1FCF770FDDFF84C19EA
S113C0D0098888424BD1284618F0BCF9284611F04B
S113C0E074FDF1BD062F39D0112F15D0292F3AD068
S113C0F03A2F3CD12888042839DB70680078B07561
S113C100042170684078F075284618F093F82946A1
S113C110204600F054F8F1BD284618F09BF930B3DE
S113C1202046FDF782FD032804D12946204617F056
S113C130A5FCF1BDB08A44F64C51884209D1E87E91
S113C140FF280CBF00222246294620460BF0B6FFEA
S113C150F1BD2946204609F0F5FBF1BD29462046EC
S113C16018F007FCF1BD40F2772100F001F8F1BDB1
S113C1700FF20400F4F7D4BA6469737061746368ED
S113C1802E63000070B50D460446E86BB0B120463E
S113C190F8F735FD06462046F8F749FDEA6BB5F891
S113C1A040103044801A814203D040F28221FFF7CC
S113C1B0DFFF2846BDE8704007F05EBC70BD2DE986
S113C1C0F041884608F13C0598B0064628680028E6
S113C1D078D0A97A012956D080296FD141463046BA
S113C1E0FFF7D0FF08F11B0014F071FE070008D020
S113C1F0102208F11B010DF12300F8F70EF80024BA
S113C20000E008243046FDF700FDC00648BF44F0B6
S113C21020043046FDF7F9FCDFF804683388C006D3
S113C220A88848BF44F02004834208D2C21A286870
S113C23092B200211844F8F752F83088A880002FF1
S113C240A888059014BF08F11B03002328680490F4
S113C250224600200390002181200290402001907A
S113C26008F10B00009006A818F016F9040029D074
S113C270FDF7D2FC00200090FF23012206A92046EE
S113C28000F023F81EE000F11C056A4680212846D0
S113C29018F0DBFBB0B100F0A5F9000712D50021BE
S113C2A0284614F0C1FD68B99DF80000012300225E
S113C2B005F1080110F006F8012803D14146304683
S113C2C0FFF760FF18B0BDE8F081F8B504460D46ED
S113C2D016461F4618F046F805F11B0014F0F7FD4A
S113C2E020B905F11B0014F01DFE30B11EB100F0A1
S113C2F0C6F80120F2BD0020F2BD36B105F11B00E5
S113C30018F03AF908B100F0BAF8069B3A46294603
S113C310204601B0BDE8F040FFE7F8B5044601F15E
S113C3201B0715461E46384614F0DCFD18B938467E
S113C33014F0E8FD28B1F87B012804BF204606F07C
S113C340ADFE384614F0F5FD18B9384614F0CAFDB0
S113C35010B1FF2D08BF002532462946387801B0B8
S113C360FF282046BDE8F0400CBF012300232DE93F
S113C370F0410D46FF2D92B0044616461F4608BFF5
S113C3800225FDF742FCC0074FF6FE781CD5204677
S113C390FDF753FCB0F5006F16D100F02BF94045C2
S113C3A004D02046FDF731FC80060DD5002120463F
S113C3B000F040FA00285BD0012805D1172206219D
S113C3C0204608F0A9FC2FE0002F14BF15201320ED
S113C3D00121F7F72AF805212046F8F775FE000732
S113C3E00CD46946204616F04FFD38B16846FFF775
S113C3F0E0FB00F0010080F0010700E00127204687
S113C400FDF71BFCB0F5006F03D0B0F5406F13D0FF
S113C41029E000F0EFF8404508D1C4484268100014
S113C42002D0214600209047012021E000F0E2F8EC
S113C4300EF0BEFB38420EE02046FDF705FC00F08E
S113C4401AF8FF280FD0DFF8DC15096811F810007E
S113C450400708D5002F06D0204606F068FB401E92
S113C4608041C00F04E032462946204608F054FCBF
S113C47012B0BDE8F081014600200EF099B82946BB
S113C4802046C1E538B5044625882846FDF7BDFB9E
S113C49000F0050004283CD02846FDF7B6FBC00791
S113C4A026D52846FDF7C9FBB0F5006F20D12846F4
S113C4B0FDF7D9FB4FF6FE71884204D02846FDF7FC
S113C4C0A4FB800614D50121284600F0B3F968B115
S113C4D001280DD1A17801F00F01C1F106018840B6
S113C4E0172110FB01F0A080BA2032BDA92032BD73
S113C4F02846FDF79AFB01280BD128460DF03FF89A
S113C500010002D02080182032BD20880028FAD1F2
S113C51032BD002032BDF8B504460D466E1EB6414C
S113C520FDF78BFB074605212046F8F7CDFDF60FF6
S113C53000F00700032815D12046F8F760FB441DDE
S113C540204608F011F8205C04284AD1FCF752FB7D
S113C550032846D10EB117F07AFC2846BDE8F24014
S113C56007F083BA3EBBB7F5006F3AD100F042F84A
S113C570402D064615D100F035F8C00711D5B00599
S113C5800FD12046FDF741FB0007354603D5304661
S113C5900BF064FB0546284615F07EF8002114F0E4
S113C5A0F2FF4FF6FE7086421BDABDE8F44001212B
S113C5B00920F6F73ABFFF20B7F5404F05D12046D2
S113C5C0FDF742FBFFF757FF06E0B7F5004F03D135
S113C5D000F010F8F6F77CFEBDE8F44000210EF000
S113C5E026B9F1BDDFF84004007870470000000070
S113C5F0E26300202046FDF736BB38B50446FDF75C
S113C6001CFB0546DFF804040078032818BF04283F
S113C61005D0022812D1FFF7E5FFC0070ED420464B
S113C620FDF7F3FA00071AD4B5F5006F08D1FFF748
S113C630E1FFDFF8F8130988884210D0002032BDEA
S113C640B5F5406FFAD12046FDF7FEFA0822DFF86F
S113C650E013F7F74BFE401E8041C00F32BD0120AE
S113C66032BD2DE9F84381460E46FDF7E6FA002572
S113C6700746B7F5006F03D14846FDF7F4FA01E029
S113C6804FF6FE70002FDFF8AC73DFF8AC431BBF2E
S113C6904FF6FF7188424FF00108A8463978606868
S113C6A0491C081860604846FFF7A7FF58B1402EA0
S113C6B008D12078401C2070C0B2042803DB072076
S113C6C0FEF76CFC2570300006D10125B8F1000F8F
S113C6D00FD001210B2015E0312E08BF0026F5D024
S113C6E08D2EF3D1B8F1000F14BF0C2008200121C6
S113C6F008E030000CBF062007200121F6F795FE64
S113C70039780A20F6F791FE3146484606F07CFD5A
S113C71050B93146484608F02FFB28B92A4631461D
S113C7204846BDE8F843F6E6BDE8F183E87B00201F
S113C730D6630020D8630020DA63002038B50446AD
S113C7400D4608F0EBFF29462046BDE8384000229C
S113C750E1E6F8B50D460446687AE8B9288805F19B
S113C7603007A0F108067968E86AB2B2F7F755FD18
S113C770E86A78602E80387868722046F8F757FAAD
S113C780A0F1080189B22046F8F76AFA2146284642
S113C790BDE8F44016F082BBF1BD30B5054605F4A2
S113C7A07F40B0F57C4F85B04FF6FF743BD1B5F5B3
S113C7B07C4F02D113F0FBFA36E04FF6104085426D
S113C7C019DA102200216846F7F789FD6946E8B2B4
S113C7D018F022F9402826DB00224021684613F095
S113C7E00DFD4FF6FE75A8421ED1684613F009FDF3
S113C7F0A84219D117E04FF63042954204DA05F009
S113C8000F0013F0D2FD0FE04FF6384085420ADAEC
S113C81082480088A04206D07F4B1B7803F00703B0
S113C8201A43954200D0204605B030BDF67E002064
S113C830F47E00202DE9F04196B00D464FF6FF76C8
S113C8408046ADF8046002A916F041FBA8B3BDF818
S113C8500C00ADF804000AF04DFE30B3BDF804003E
S113C8600EF0C5F9F0B94046FDF7C5F99DF808107A
S113C8700844851DBDF80A0004A914F0CEFA404608
S113C880F8F7D5F906464046F8F7B9F9711B401890
S113C89080B200902B4604AA0021012017F0ECFF7F
S113C8A00020AEE0BDF80C7091E0BDF80C000BF078
S113C8B0D5F90746B742F7D1F2E75B4C5B4F2078D6
S113C8C000073FD504A9404616F0DEFA0DF12B000F
S113C8D00EF02BFAFF2803D00EF059F9074676E044
S113C8E00DF12B000EF0D2FB28B90DF12B0013F043
S113C8F08CFC002850D001A90DF12B0014F094FAFF
S113C900E8B1BDF804000AF0F5FD0028C8D1BDF86F
S113C910040000F47F40B0F57C4F07D1BDF804005B
S113C920FFF73BFFB042ADF80400B9D0BDF80400F6
S113C9300BF094F9B04223D0BDF8047043E02078A2
S113C940000704D439884046FDF7C9F958E06A461F
S113C95080210DF12B0018F078F8002851D09DF8B3
S113C960000001230DF102020DF133010FF0AAFCC6
S113C970022846D1BDF802000BF070F9B04201D193
S113C98001203EE0BDF802104046FDF7A8F900F092
S113C9905AF800F053F833E00DF11B010DF12B00B0
S113C9A013F0A7FC06464FF6FE77BE4223D0FCF7F1
S113C9B0FDF8864218BF374605D10DF11B000EF075
S113C9C035FC002817D000F03EF800F037F800F0EE
S113C9D03AF8800610D54046FDF745F939468842B5
S113C9E008BF002D08D1BDF8040014F025FE012174
S113C9F01E20F6F71AFD53E739464046FDF737F98E
S113CA00022016B0BDE8F081F07B00202A770020D8
S113CA10F7630020D003FFFF867700208A77002089
S113CA20E6630020FC5E00202E7700208A6100204F
S113CA3070780020CC7F0020F47B002040F00801B7
S113CA404046FDF7E5B84046FDF7DFB810B5DFF81E
S113CA50004BDFF8003B2488001B06E010B5DFF82C
S113CA60F84ADFF8F03A24681B1B03EB400000236C
S113CA7004E030F8134021F813405B1C9342F8DBC8
S113CA80002010BD2DE9F04182B004460D46164643
S113CA900027DFF8C08A01E0BF1CFFB2B74217DAF3
S113CAA0E819E95D4078DFF8A83A1B8801EB00201B
S113CAB0ADF80000012207EBD77004EB6000C01A48
S113CAC000F09DFB0100E7D0F6F762FC002000E0D7
S113CAD00120BDE8F681F8B504460F461546002648
S113CAE00DE000F019F8BDF8000004EB4601000A5F
S113CAF048707F1CBDF8000004F81600761CB6EBE5
S113CB00550FEEDBE80706D500F006F8BDF8000087
S113CB10611901F8010CF1BD01226946B8B295E72B
S113CB20DFF82C2ADFF82C1A1288801A01EB400156
S113CB300220FBF701BDDFF8241ADFF8242A095C80
S113CB40125CDFF8203A185C10B102F5997292B2C7
S113CB5041EAC21080B27047DFF8003ADFF8082AD1
S113CB601B5C012B1CBF32F81000081802EB4000BC
S113CB70704738B50C46DFF8F4190D782A4621467B
S113CB80FFF764FF208801001CBF4FF6FF71884245
S113CB900BD0012000E0401CC1B2A94207D2C0B2B0
S113CBA034F8101022889142F5D0002032BD0120C3
S113CBB032BDF0B5DFF8A01987B008600C226946D1
S113CBC00020FFF74BFFBDF81600BDF80C2003460C
S113CBD0040A012000254FF6FF763DF81570BDF8D4
S113CBE00010B94203D1B74218BF002F00D1002072
S113CBF06D1C062DF1DBB21A914218BF0020DBB286
S113CC00C4F1FF018B4218BF002007B0F0BD2DE92D
S113CC10F24F0446DFF858690020307070809CB0F1
S113CC20DFF850090088ADF8020007A9FFF7A1FF5B
S113CC3083460120707009A9DFF83C090588DFF8F4
S113CC403C09B0F80080DFF808090788BDF802A0A5
S113CC503846FFF78EFFB8B1BBF1000F3DD0BDF8E9
S113CC601C10BDF824004FF6FE72914202D1012837
S113CC7004D10CE0012908BF90422ED00846BDF82B
S113CC802410884229D202E0BBF1000F24D00020F6
S113CC907070029750460695CDF810800122DFF897
S113CCA0CC1891F800804044ADF806006946BDF800
S113CCB00600FFF7CBFEDFF8C808008805904FF6A2
S113CCC0FF79BDF80000000B404518BF0F2801D1C3
S113CCD0200021D0002516E0012470780028D8D047
S113CCE03846CDF808A0CDF818800495D6E7059805
S113CCF005FB00F4E01900F051FCBDF80200201817
S113CD0000F04CFC6D1C4545F1DB012030704D20DA
S113CD10F6F73EFB0025F7E0BDF80650012201A915
S113CD202846FFF793FEBDF80400C04300F0FF005F
S113CD30ADF804006F1CDFF84C080588BDF804004A
S113CD40A84218BF01244FF0000A20E0401CC1B2E1
S113CD50A94218D2C0B2DFF83018BDF80E208346BD
S113CD6031F81B109142F1D1FFF7E5FE4FF68071C7
S113CD700840BDF80C104FF680721140884204BF81
S113CD801C9800F80BA00AF101001FFA80FABDF804
S113CD900400824507DA022203A9B8B2FFF756FE5F
S113CDA0BF1C0020D3E7002001E0401C80B2A84251
S113CDB017DA1C99095C8142F7D0012411E02AF8A2
S113CDC01070BDF8060000EB4300401C00F0DAFAD6
S113CDD0BDF80200C0F3C710401C00EBD07007EB95
S113CDE060070498DFF880A7BFB287420EDA00F02C
S113CDF099F8BDF80000484508D0030A00F07F0107
S113CE00BDF804007F1C834202DB012400252DE0D1
S113CE10002000E0401CA842D3DA1C9A125C9A421B
S113CE20F8D1C0B2FF28CCD0DFF83027125C7F29BC
S113CE300CBF4FF0000C8C4694450BDABDF800C0D3
S113CE40DFF820E71EF800E04FEA0C6C4FEADC7CC8
S113CE50F44501D00124B4E7012AB0D07F293AF87F
S113CE60100008BF00210818A9E76D1CDFF81C0793
S113CE700088854204DA3AF815004845F5D10124C2
S113CE8077800498BFB2874207DA00F04BF8BDF808
S113CE9000007F1C4845F4D039E7002CFCD10298EF
S113CEA001220BA980B2FFF7D1FDBDF82C00484543
S113CEB00DD105E0401C80B2202813DB2034A4B23D
S113CEC00699029A891A8C4205DB012030700020F1
S113CED01DB0BDE8F08FA51820220BA9A8B2FFF75A
S113CEE0B5FD00200BA931F810104945E2D0A8B2D5
S113CEF0FFF716FE203CA4B2E0E70298059905FB73
S113CF00010000F04BFB6D1C4545F6DB0120307041
S113CF10494600F046F818B100F035F90028D6D19A
S113CF200120D5E70122694638468FE52DE9F04214
S113CF300F46DFF85016DFF8285609888F4204465A
S113CF40164699460CD2DFF81416C95D30467F2880
S113CF5008BF0020884203DAE95D894500D11CB985
S113CF6040F2D54100F00AFA31463846FFF7F4FDA5
S113CF700188DFF8F005C05D60B1384600F02BFA97
S113CF80E95D012908BF207009D0022914BF20607F
S113CF90208004E04A462046BDE8F0429BE5BDE817
S113CFA0F0822DE9F34FDFF8A805DFF8C0150488F7
S113CFB0DFF8BC050978407883B000281ABFDFF891
S113CFC0B405008820460D18DFF8B8050088ADF8D0
S113CFD00800ADB2C04300F0FF0000EB013000F5E3
S113CFE05060ADF802002B1BDFF8680501220DF13B
S113CFF0020100F0D7FA6E1C0100B6B23AD1002546
S113D000DFF8847513E0E8B2FFF795FDADF804008E
S113D010331B37F81500ADF806000222DFF834059B
S113D02000F0BFFA010025D1B61CB6B26D1CBDF8E4
S113D03008008542E7DB002500E06D1CBDF8080010
S113D040854280F29B80DFF81C05405D8DF80A0064
S113D0504FF0000A1BE001220DF102011FFA89F0D2
S113D060FFF7F4FCBB19DFF8EC0400F091F90100C0
S113D07009F101097AD17F1CFFB2B7EB1B6FEADB20
S113D080DFF80C05405D3618B6B20AF1010ADFF884
S113D090CC04475D5FFA8AF0B842CED25FFA8AF1D7
S113D0A0E8B2FFF759FD80469DF80A00B8F80090F1
S113D0B0C00140EA0520ADF80000012FBDF80000D2
S113D0C00EBF40F07F005FFA8AFA4AEA0000ADF82A
S113D0D00000311BDFF87C0400EB41004FF6FF71C8
S113D0E0771C89451EBFBDF80010BDF81020914281
S113D0F0BFB219D19DF80C100029C6D0012269468F
S113D100FBF756FA01003E4630D1DFF85404A8F884
S113D1100060425DDFF87C0450F825103046FFF7CC
S113D120B1FC0028ACD124E0DFF83414495D491C7B
S113D13001EBD1714FEAC15B01226946FBF738FA72
S113D14001003E4612D1A8F800609DF80A0098B18B
S113D1504946E8B200F03FF90190331BDFF8F403CD
S113D1604FEA1B6200F01DFA010089D0F6F710F9AE
S113D170002005B0BDE8F08F00277DE7DFF8F0035D
S113D18046800120F5E7DFF8EC032DE9F04106883D
S113D190DFF8BC03DFF8D85304886878DFF8B48379
S113D1A0002882B012BF2046304626460122694636
S113D1B0FFF74CFCBDF8000001280CBF4FF6FE70D1
S113D1C0401EADF80000DFF8A40307783846471E78
S113D1D080B258B116FA87F0001B012200F00FF854
S113D1E00100F3D0F6F7D4F8002006E0687880F068
S113D1F001006870002028700120BDE8F6816946AE
S113D20008EB4000FBF7D4B92DE9FE4F0D46DFF8DB
S113D210741309888842044617461E464FF00009D5
S113D2204FF001080CD2CD49095D38467F2808BF6C
S113D2300020884204DACA49095D8E4200D11DB932
S113D24040F2F95100F09AF839462046FFF784FC81
S113D2500190C74F787820B1C748B0F800A0BC4807
S113D26003E0C648B0F800A0C2483978008849B93C
S113D2707988081AC84909888842B4BF43204420E1
S113D280F6F786F801980188B648005DF8B12046A3
S113D29000F0A1F8012E08BF297803D0022E0CBF9C
S113D2A029882968814267D001980088401E00F0CF
S113D2B069F8B748065D7888AAF10101891B8142A3
S113D2C001DB002837D1387868BB452046E002915D
S113D2D0CB4622E002980BEBDB7300EB630000F01B
S113D2E0F3F805EB0B0015F80B10407801EB002068
S113D2F0711E8B4580B207D1BDF8001001F0FF010B
S113D30000F0FF00ADF80010BDF8001088420BF1EA
S113D310020018BFC8465FFA80FBB345DADBB8F1F8
S113D320000FC1D028E0BDF802100020FFF739FE3D
S113D33010B34FF0010978888949401C788080B285
S113D3400A5D2946FFF79EFBB0B1814C7B88248897
S113D35080485B1E00F01CF8010002D0F6F718F8B4
S113D3600AE0B9F1000F02D0FFF70DFF20B10199D7
S113D3707888088080197880BDE8F78F0FF22C2018
S113D380F3F7CEB901220DF1020180B2FFF75EBBC3
S113D3901B1B01220DF1020100EB4300FBF708B94E
S113D3A070B582B004460025192601226946A0B250
S113D3B0FFF74CFBBDF80000641C20B14FF6FF7171
S113D3C0884203D004E06D1C761EEED168B276BDAF
S113D3D0E84340B276BD38B50C460021009160495F
S113D3E00D5C2A4621466846FFF775FB681C00EB76
S113D3F0D07004EB600080B2FFF7D2FF00280099E0
S113D40048BFC04341FA80F032BDF0B55D49098898
S113D4100446554883B0264630F816508C4202D252
S113D4205048805D18B940F23D71FFF7A7FF4C48A2
S113D430865D701C00EBD07005EB6007B8B2FFF797
S113D440AFFF19280FD210FA87F0414F414B3F88A4
S113D4500021ADF80410C01B012201A903EB400018
S113D460FBF7A6F860B129462046FFF7B4FF009009
S113D4703346401C00907F2269462046FFF7C4FED5
S113D480F7BD70B53A48017882B00024D1B940782C
S113D490002814BF37482E480588344806780CE025
S113D4A0284650FA86F000F00FF8BDF80000002876
S113D4B01EBF4FF6FF718842641C3046461EC0B240
S113D4C00028EDD1E0B276BD0122694680B2FFF7B3
S113D4D0BDBAF8B5264C20780027002835D11C4861
S113D4E00588607800281ABF224806882E461F48FF
S113D4F007783846471EC0B202281FDB304650FA70
S113D50087F0FFF7E1FFBDF800000028F1D01C48C8
S113D5100088FFB207FB006000F040F80020ADF87F
S113D5200000BB190B485B1B0122694600F03AF866
S113D530010018BFF5F72CFF3846F2BD3046FFF75F
S113D540EFFAF8B208B901202070F8B2F2BD000079
S113D5506080030000E00300A87A0020346F030019
S113D560246F0300146F030068700020838003009D
S113D570EC7E002064800300628003006680030068
S113D5805E8003006A800300F86E03006C80030071
S113D590C0500300447203006880030080B2FFF7A8
S113D5A0BFBA01A900EB4300FBF702B873696D2D04
S113D5B0656570726F6D2D696E7465726E616C2E27
S113D5C0630000002DE9F04F85B080460E22FF2154
S113D5D06846F6F784FEDFF8A8A04222FF215046F1
S113D5E0F6F77DFE0E250027264CDFF89C90274E8B
S113D5F0F05D19F807B0E15D401C00EBD0704010FD
S113D60001B11930401C00FB0BF2214830F817100F
S113D610204892B2F4F731FBBBF1010F1CBF2AF88A
S113D62017505D447F1C0E2FE2DB1B480E2340F293
S113D6301C4240F28B21F4F720FB4FF4E040FFF74B
S113D640B8FA164D18B19D212846F3F769F84FF43E
S113D6508040FFF7AEFA18B19F212846F3F760F82F
S113D6604FF48050FFF7A5FA18B1A1212846F3F72B
S113D67057F869464046FFF7CAFA05B0BDE8F08F8F
S113D68068700020146F0300346F0300246F0300DC
S113D690F86E0300745003009050030064500300BC
S113D6A072B61EF0080F08D01EF0040F0BD0DFF87E
S113D6B048E0AEE8FF1F11480AE0DFF83CE0AEE8BE
S113D6C0FF1F0F4804E0DFF830E0AEE8FF1F0D480D
S113D6D06946EFF309828EE8070086460A480B4C38
S113D6E0854501D3A54501D384F30888F3F730F8C1
S113D6F084F30888F4F73CFC04000020FDFFFFFFDE
S113D700F1FFFFFFF9FFFFFF804D0020185C0020B0
S113D71080B500F00CF82A492A4A0968C1F30821A7
S113D720491CB0FBF1F0106002BD27487047274840
S113D730016801F00701022909D00AD3042901D0A4
S113D74002D306E0224905E04FF4004103E02149F9
S113D75000E021490968C06EC0F30420401CB1FBFD
S113D760F0F070471B48006870471A490860174872
S113D770006800F00700022808BFFFF7C9BF704720
S113D7801648016841F4700101601548416941F48B
S113D790005141610168890889000160416B4908B1
S113D7A049004163016A21F08051016270474FF4DE
S113D7B0004070474FF47A7070470548006870471E
S113D7C008410E40A45F002000F0490294400E403E
S113D7D0A05F00209C5F0020A85F002088ED00E08F
S113D7E040300E40890001EB401000F1844002609B
S113D7F0704700F1806300F1C060196002607047F7
S113D8003023464A584310440C3000F1806006E04F
S113D8103023424A584310440C3000F1C0600122C6
S113D82002FA01F1016070473D490A68920840EA32
S113D8308200086070472DE9F04101F003081446A6
S113D84003270F21082C1D460CD2A60000FA06F26D
S113D850B1403448FFF7CDFF08FA06F207FA06F1A3
S113D86031480DE0A4F10802960000FA06F2B14036
S113D8702E48FFF7BEFF08FA06F207FA06F12C4815
S113D880FFF7B7FF2A4621462A482B4DFFF7AAFF88
S113D890069A21462846FFF7A5FF0120A0402861EB
S113D8A02146079A2548BDE8F0419BE7F8B50446B0
S113D8B0164630000D461F4607D0002F204602D0E2
S113D8C0FFF7A6FF01E0FFF79BFF30210F2213486B
S113D8D011FB04F1082D084405D2AB00416800F0A7
S113D8E015F8416006E0A5F108039B00816800F08B
S113D8F00DF881604EB9002F2946204602D0BDE8BC
S113D900F44085E7BDE8F4407AE7F1BD9A4021EAA6
S113D910020206FA03F111437047000000A0004020
S113D92044A4004000A4004008A4004004A4004013
S113D9300CA4004010A4004014A4004028A40040FB
S113D94010B5DFF85411DFF85441E1610320206180
S113D9506061102121620021DFF84401A061A1620D
S113D96020666162E16221670422DFF838016066A3
S113D9701020A066E1666167E01D29A1F4F70AFDA5
S113D9800722DFF824112046F4F714FD2020A071AB
S113D99010BD2DE9F843DFF804710646387889464E
S113D9A0904608B9FFF7CCFF18207043384400F1C3
S113D9B0600600253769F468BC4212D2B068C51B02
S113D9C07068454588BF4546C1192A464846F4F75C
S113D9D0E1FCB068EF198742A944A8EB050808BF29
S113D9E00027E41B444588BF44463CB17068C11914
S113D9F022464846F4F7CEFC6519E71905B13761AC
S113DA002846BDE8F283F8B504460D461646F4F7F9
S113DA1015FF0746324629462046FFF7BAFF01E0C4
S113DA205254540004463846F4F745FF2046F2BDEC
S113DA302DE9F84300F027F808B9FFF781FFF4F760
S113DA40FDFE79690026182202FB06F3FB185B6EC3
S113DA5013B1761C8E42F7DB8E420CDA02FB06F120
S113DA60791800220C664D66C1F868800A67CA6698
S113DA70C1F8749001E04FF0FF36FFE7F4F71BFFA5
S113DA803046BDE8F283054F044638780D4690468B
S113DA909946704754E70000487000200064002055
S113DAA02C50030058700020385003000A46090225
S113DAB041EA12214840C0F30311484080EA003093
S113DAC041010206C9B2D20E41EA0221484080B2A5
S113DAD07047000062F30F2262F31F42401810F0F7
S113DAE0030308D0C91A1FD3DB0748BF00F8012D70
S113DAF028BF20F8022D130030B4144615461039FF
S113DB0028BF20E93C00FAD8490728BF20E90C00C7
S113DB1048BF40F8042D890028BF20F8022D48BFD3
S113DB2000F8012D30BC7047C91818BF00F8012D4A
S113DB30CB0728BF00F8012D70470000820707D0EB
S113DB4010F8012B11F8013BBAB19A42F6D014E057
S113DB5002680B689A42A2F1013301BF934313F0A8
S113DB60803F50F8042F51F8043FF3D010F8012BF4
S113DB7011F8013B0AB19A42F8D0D01A704700005C
S113DB800188481E8041C00F704738B504460025FF
S113DB9054B1002100F009F803E0204600F034F805
S113DBA06D1C0100F9D1A8B232BD008802001CBF6F
S113DBB0C9B2F7F7CAB8002070472DE9F04104460E
S113DBC00D4627883800164608BFA84608D0F1B28B
S113DBD0F7F7BBF880462A46F1B23846F7F7CCF897
S113DBE0424600F003F82580BDE8F081F1B22846F2
S113DBF0F7F7C2B838B5044600222588FFF7DDFFE1
S113DC00280018BF258031BD008881420A4601D111
S113DC100020704700211046F7F797B8F8B504467E
S113DC200D462688300001D10020F2BDC9B2F7F7B5
S113DC308CF8B042074602D10020208007E0E9B208
S113DC40F7F783F80246E9B23046F7F795F82A4623
S113DC5000213846F7F790F83846F2BD2DE9F8432D
S113DC6004468846278816460FB9002026E03D461C
S113DC702846F6F7DCFF814605E00546F6F7D7FFB0
S113DC8048441FFA80F9F1B22846F7F75EF8404598
S113DC9011D1F1B2F7F759F80246FFF7A7FF47454C
S113DCA003D1BD4208BF002525800022F1B24046C1
S113DCB0F7F762F801E0B842DFD14846BDE8F283E5
S113DCC02DE9F8430D46044690462F4605E04146AB
S113DCD02046FFF7A3FFBF1BBFB28FB1208878B1E6
S113DCE041462046FFF761FF8146F6F7A0FF06464E
S113DCF0B742ECDAF11B89B24846F6F7FCFF00277D
S113DD00E81B80B2BDE8F2832DE9F0470C46078892
S113DD10200092461E46B84623D00FF26C193FB934
S113DD20C92102E0B84503D1D6214846F2F7F8FCF0
S113DD30F1B24046F7F709F88046F6F778FF054652
S113DD40A1B28D4288BF0D464046F6F758FF014602
S113DD502A465046F6F761FA641BA0B20028AA448A
S113DD60E0D1BDE8F08770B504462588280008D0C6
S113DD700121F6F7EAFF064600220121FFF737FFEB
S113DD80268070BD2DE9F84F0D46044690461F4687
S113DD900021FFF70AFF8146002603E0494600F010
S113DDA045F881465FEA090019D0F6F728FF834653
S113DDB04846F6F73CFF0BEB000A02E06088834418
S113DDC0761CD3453EBFA188B0B28842E6D2414614
S113DDD05846A8470028F1D007B13E805846BDE810
S113DDE0F28F70B504460D46A08801001CD0401E79
S113DDF0A84219DB00212046FFF7D7FE06466088BB
S113DE0015FB00F504E02D1A314600F00FF8064624
S113DE10300009D0F6F70BFFADB28542F3DA304695
S113DE20F6F7EDFE284470BD002070BD2046EBE6F9
S113DE3070B504460D46E088010009D0401EE0801C
S113DE402046A188491CA180491EBDE87040C8E74E
S113DE50608810FB05F0002180B2F6F7E6FF0600AB
S113DE6001D1002070BD002231462046FFF7A5FEF7
S113DE70A088401CA080681EE0803046BDE8704049
S113DE80F6F7BDBE000000006275666665722D710E
S113DE90756575652E6300003023DFF8E829584363
S113DEA010440C3000F1806007E03023DFF8D429FF
S113DEB0584310440C3000F1C060012202FA01F111
S113DEC0016070471CB500931346049C01940A46F4
S113DED0FFF7B1FC13BD1930017E02290FD102787E
S113DEE0DFF8A019007930235A4311441C31800013
S113DEF000EB411000F184400068C0B2704700207C
S113DF00704738B50022DFF8803953F822104C7F6F
S113DF10844203D0521C042AF7D331BD21B301F14A
S113DF202E04E07802281FD10D1D0846FFF7D3FF09
S113DF302874687C022804BF2078002814D100F0DB
S113DF401BFE16F082FE297C09B1617829B10020FC
S113DF506070286816F048FE31BD28B99DF80000AD
S113DF6010B1286816F032FE31BD10B5044604F134
S113DF70140082B0417F022910D141780A0003D0F5
S113DF80012906D0017821B9817A8079FFF784FFCD
S113DF9018E0817A8079FFF788FF13E0012911D115
S113DFA0007800280CBF112013208DF800002046B3
S113DFB000F0F1FF01226946204600F068FF204688
S113DFC001F02EF8002016BD2DE9F04104468846E4
S113DFD01646F4F733FC0546A088E188884207D347
S113DFE0002030602846F4F766FCDFF8A4081CE043
S113DFF02088142778432044142241460830F4F73B
S113E000C9F9208878432044083030602088E188AA
S113E010401C90FBF1F201FB12002080A088401C00
S113E020A0802846F4F747FC0020BDE8F08138B50D
S113E03004460D46F4F702FCA18809B9296024E0DE
S113E0406188142251432144083129606188E2889F
S113E050491C91FBF2F302FB13116180A188491E54
S113E060A1800EE038B505460C46F4F7E7FBA98815
S113E07009B9216009E0698814225143294408310F
S113E0802160F4F718FC002032BDF4F714FCDFF82B
S113E090440932BD90F832100A000BD10268012104
S113E0A0D16000680169C907FCD5416F41F00101E5
S113E0B04167704701290ED10168496C8907FBD477
S113E0C002680121516000688168C907FCD5416D6F
S113E0D041F001014165704790F832100A0008D1FF
S113E0E001684A6F520852004A6702210068C16001
S113E0F0704701290CD10168496C8907FBD4016878
S113E100496D02684908490051650221006841606F
S113E110704710B500F12C0286B001231370937977
S113E1201C0013D10268049002F11C030FF2710267
S113E1300392002202924A680192012200920A6824
S113E1400169806816F027FD06B010BD012BE9D0E7
S113E15000201070F8E710B500F12D0286B00123FD
S113E160137053791C0012D1026834320FF21D135C
S113E17003930490002302934B68019301230093BB
S113E1800B68C168406816F000FD06B010BD012B95
S113E19002D102682832E9E700201070F5E7000098
S113E1A0F8B514466946606AFFF75CFFDFF8241887
S113E1B0884262D004F12C05DFF84418A8790200E3
S113E1C008D12268126C920504D500F058F84FF477
S113E1D0007015E00246012A07D12368DB6A1B069A
S113E1E003D500F04CF8802016E0DFF8181850B979
S113E1F02068006CC00506D500F041F84FF480702B
S113E200216888640DE0012A09D12068C06A4006AB
S113E21005D500F034F840202168486301E000F09F
S113E22062F8F4F70BFB06460098C768380009D07B
S113E2300098009940688968431A00980268016947
S113E2402046B847606A6946FFF7F1FE606A818834
S113E25021B100F074FD00F0D5FE0CE00120207522
S113E2602046FFF782FE00202870687903281CBF2F
S113E2702046FFF731FF00F015FF0120F2BD0098A2
S113E280016100200099886070470000F8B51446C9
S113E29004F1280569462868FFF7E4FEDFF86817EB
S113E2A088421ED000F01FF8F4F7C8FA064600981A
S113E2B0C768380005D000984368026800212046EA
S113E2C0B84728686946FFF7B2FE2868818821B1FB
S113E2D000F035FD00F0E1FE01E00020687100F07F
S113E2E0E1FE0120F2BD00990020086100998860D8
S113E2F0704710B9DFF86C087047002918BF002A6E
S113E30002D0B2F5006F02D9DFF85C087047002034
S113E310704710B50368DFF85448FF22A34240F069
S113E32060810B7A1C0018BF012B07D0022B18BF89
S113E330032B03D0042B18BF052B01D100233AE093
S113E340062B18BF072B04D0082B1CBF092B0A2B44
S113E35001D101232FE00B2B18BF0C2B07D00D2B61
S113E36018BF0E2B03D00F2B18BF102B01D1022383
S113E37021E0112B18BF122B08D0132B18BF142B1C
S113E38004D0152B1CBF162B172B01D1032312E02D
S113E390182B18BF192B0BD01A2B18BF1B2B07D007
S113E3A01C2B18BF1D2B03D01E2B18BF1F2B01D1F4
S113E3B0052300E0FF23C3754B7A1C0018BF012B13
S113E3C040D0022B1CBF032B042B3BD0052B18BFC2
S113E3D0062B04D0072B1CBF082B092B01D10123CA
S113E3E033E00A2B18BF0B2B07D00C2B18BF0D2BB7
S113E3F003D00E2B18BF0F2B01D1022325E0102BC5
S113E40018BF112B08D0122B18BF132B04D0142BB8
S113E4101CBF152B162B01D1032316E0172B18BF95
S113E420182B0BD0192B18BF1A2B07D01B2B18BF76
S113E4301C2B03D01D2B18BF1E2B01D1052304E078
S113E4401F2B01D1002300E0FF2303760B7A1C006D
S113E4503ED0012B18BF022B59D0032B1CBF042B19
S113E460052B54D0062B1FD0072B21D0082B23D0EB
S113E470092B25D00A2B27D00B2B41D00C2B43D0B2
S113E4800D2B08BF082342D00E2B05D00F2B07D02D
S113E490102B09D0112B01D1092338E0122B01D103
S113E4A00A2334E0132B01D10B2330E0142B01D1C8
S113E4B00C232CE0152B01D10D2328E0162B01D1C0
S113E4C00E2324E0172B01D10F2320E0182B01D1B8
S113E4D000231CE0192B08BF012318D01A2B08BFF6
S113E4E0022314D01B2B08BF032310D01C2B08BFFE
S113E4F004230CD01D2B08BF052308D01E2B01D1EB
S113E500062304E01F2B01D1072300E0FF23C37679
S113E5104B7A1C003FD0012B41D0022B43D0032B5C
S113E52045D0042B47D0052B1FD0062B21D0072B19
S113E53023D0082B25D0092B27D00A2B3FD00B2B17
S113E54041D00C2B08BF082242D00D2B05D00E2B36
S113E55007D00F2B09D0102B01D1092238E0112B41
S113E56001D10A2234E0122B01D10B2230E0132B0B
S113E57001D10C222CE0142B01D10D2228E0152B03
S113E58001D10E2224E0162B01D10F2220E0172BFB
S113E5901DD0182B01D101221AE0192B01D102221E
S113E5A016E01A2B01D1032212E01B2B01D1042205
S113E5B00EE01C2B01D105220AE01D2B01D10622FD
S113E5C006E01E2B01D1072202E01F2B00D10022FE
S113E5D002774A7C42768A7C4277CA7C8276097DBD
S113E5E058E1DFF87448A34240F04B810B7A1C00D9
S113E5F018BF012B07D0022B18BF032B03D0042B09
S113E60018BF052B01D100233AE0062B18BF072BB6
S113E61004D0082B1CBF092B0A2B01D101232FE0A6
S113E6200B2B18BF0C2B07D00D2B18BF0E2B03D0B0
S113E6300F2B18BF102B01D1022321E0112B18BF7F
S113E640122B08D0132B18BF142B04D0152B1CBF6E
S113E650162B172B01D1032312E0182B18BF192BEB
S113E6600BD01A2B18BF1B2B07D01C2B18BF1D2B2C
S113E67003D01E2B18BF1F2B01D1052300E0FF235D
S113E680C3754B7A1C0018BF012B40D0022B1CBF52
S113E690032B042B3BD0052B18BF062B04D0072BD0
S113E6A01CBF082B092B01D1012333E00A2B18BF0F
S113E6B00B2B07D00C2B18BF0D2B03D00E2B18BF20
S113E6C00F2B01D1022325E0102B18BF112B08D0EA
S113E6D0122B18BF132B04D0142B1CBF152B162B75
S113E6E001D1032316E0172B18BF182B0BD0192BBD
S113E6F018BF1A2B07D01B2B18BF1C2B03D01D2BA4
S113E70018BF1E2B01D1052304E01F2B01D10023C8
S113E71000E0FF2303760B7A1C003ED0012B18BFC8
S113E720022B59D0032B1CBF042B052B54D0062BD2
S113E7301FD0072B21D0082B23D0092B25D00A2B3F
S113E74027D00B2B41D00C2B43D00D2B08BF082313
S113E75042D00E2B05D00F2B07D0102B09D0112B34
S113E76001D1092338E0122B01D10A2334E0132B01
S113E77001D10B2330E0142B01D10C232CE0152BF9
S113E78001D10D2328E0162B01D10E2324E0172BF1
S113E79001D10F2320E0182B01D100231CE0192BF9
S113E7A008BF012318D01A2B08BF022314D01B2B37
S113E7B008BF032310D01C2B08BF04230CD01D2B2F
S113E7C008BF052308D01E2B01D1062304E01F2B0C
S113E7D001D1072300E0FF23C3764B7A1C0038D015
S113E7E0012B39D0022B3AD0032B3BD0042B3CD045
S113E7F0052B1DD0062B1ED0072B1FD0082B20D095
S113E800092B21D00A2B33D00B2B34D00C2B08BF6F
S113E81008223FF4DDAE0D2B04D00E2B05D00F2BB8
S113E82006D0102B3FF499AE112B3FF49AAE122B65
S113E8303FF49BAE132B3FF49CAE142B3FF49DAEE0
S113E840152B3FF49EAE162B3FF49FAE172B17D01B
S113E850182B3FF4A0AE192B3FF4A1AE1A2B3FF4B2
S113E860A2AE1B2B3FF4A3AE1C2B3FF4A4AE1D2B76
S113E8703FF4A5AE1E2B3FF4A6AE1F2B7FF4A8AE2B
S113E880A5E603E000A00040B8750020B64810BD1E
S113E8900A7000F08177002010BD10B500F1170454
S113E8A082B00A00217920781DD001230422FEF7CA
S113E8B0FDFF6179607801230222FEF7F7FFA07E55
S113E8C0022809D100F034F8E179E0780023042229
S113E8D0FEF7ECFF012017E0032827D100F028F809
S113E8E0002304221EE00023FEF7E0FF6179607834
S113E8F000F026F8A07E02280ED100F01FF8E1797E
S113E900E07800F01DF80020009001230122A17995
S113E910A078FFF7D7FA09E0032807D100F00EF832
S113E92000230022E179E078FEF7C0FF002016BD45
S113E930A179A07800230122FEF7B8BFA179A078BD
S113E94000230022FEF7B2BF10B5DFF87427DFF80A
S113E950741713783BB9002441F823405B1C042B43
S113E960FAD301231370002251F82230002B18BF70
S113E970834203D141F82200002010BD521C042A16
S113E980F2D3DFF8440710BD40F8241F00210368C8
S113E990198003685980036899800172426011806C
S113E9A042685180426891804172C172704710B5CB
S113E9B0044616F078FA607FDFF8101716F081FA33
S113E9C00020A0752075022060752046BDE8104027
S113E9D0FFF7CBBA0B7000F038B5044616F0ACF86C
S113E9E00021201D16F048F8DFF8E45628B900216C
S113E9F004F1080016F040F800B1284632BD0000CA
S113EA000D7000F00C7000F00B7000F0F0B587B0E2
S113EA1004460D466846DFF8BC161C22F3F7CAFC10
S113EA200CB950489CE0002D5ED034212046FAF702
S113EA301BFC2046FFF788FF0700F3D104F13100E7
S113EA40297C0170296821600021417028684749A8
S113EA5088423CD1DFF880062062DFF88006E0605F
S113EA604FF440202061EA69A9692046FFF78CFF32
S113EA706868029001216889ADF81000A889ADF892
S113EA800E00A87B8DF80C00E87B8DF812000520A1
S113EA908DF80D00DFF84806F4F79CFD00F071F8DE
S113EAA0206A0121F4F796FD00F065F800F05DFBA3
S113EAB02868DFF8302603214167816F00F066F88B
S113EAC0816720462946FFF724FC78B148E0DFF847
S113EAD08813884208D1DFF810062062DFF80C069C
S113EAE0E0604FF45020BDE71F4839E000F040F8E3
S113EAF0002835D1F3F7A2FE0646287C032810D15E
S113EB002868416F41F030014167416E41F00401D2
S113EB10416695F8212095F8201041EA0221C16749
S113EB2004E0022804BF2046FFF741FF28684FF0A5
S113EB30FF318164297C03290CBF0521042100F0E5
S113EB400DFB29684FF44060C86015F0F5FF2046BE
S113EB50FFF742FF00F0A5FA002F14BF384600204B
S113EB6007B0F0BD027000F0037000F00000014037
S113EB700121204691E600208DF8000069462868AE
S113EB8070470121DFF86805F4F724BD11402A7AA3
S113EB9041EA02216A7A1143704738B5040002D170
S113EBA0DFF8240532BD032100F03CF800212046A3
S113EBB000F043F90021FFF7DCFF04F13105687828
S113EBC0010006D121680220C86008202168C860BD
S113EBD00AE0012808D1206800F05AFB2068416C43
S113EBE08907FCD40A2141600021206AF4F7F2FC71
S113EBF02878032803D0607F002116F062F960684A
S113EC0015F080FFA06815F07DFF15F05CFF606AC9
S113EC100021018041808180A06A0180418081803F
S113EC20002032BD2DE9F0435FEA000883B00D46B1
S113EC3008BFDFF894047BD0F3F700FE012D814672
S113EC4008F12C0608F10407DFF8A84415D1786A06
S113EC50808810B3386815F0DFFF00207070786A80
S113EC60818879B300F06BF8009800F108013868E6
S113EC7016F00EF80098046120E0022D03D1386AE2
S113EC80808840BB09E0032D23D1786A808800285E
S113EC9002BF386A80880028DCD14846F3F70BFEAF
S113ECA0DFF8540444E06946FFF7C1F90098D0F84E
S113ECB00CC0BCF1000F01D000F03CF8786A8188E8
S113ECC00029F0D1404600F03DF88004FAD5022D29
S113ECD001D0032D28D1786815F09EFF00203070F4
S113ECE0386A8188D1B101A9FFF7BCF9019800F114
S113ECF00801786815F0CCFF019804610AE001A9C5
S113ED00FFF795F90198D0F80CC0BCF1000F01D0C1
S113ED1000F010F8386A81880029F0D1707903284E
S113ED201CBF4046FFF7D8F94846F3F7C4FD00205E
S113ED30BDE8FE8383680022214640466047694659
S113ED40FFF790B990F832200021130002D1006837
S113ED5001691EE0012A1CD100688068820748BF4F
S113ED600221C20748BF41F00101420748BF41F0F8
S113ED700801020748BF41F02001C20648BF41F024
S113ED804001820648BF41F08001400648BF41F47B
S113ED90005108467047406A1CE02DE9FC4100F030
S113EDA046F8606A818816461F4671B1FFF7C7FFAF
S113EDB08046A06801A915F06BFF009828B1B8F14E
S113EDC0000F02D100F02AF802E000203860306021
S113EDD01EE0806A8088C0B270472DE9FC4100F0D3
S113EDE026F8A06A818816461F4671B1FFF7A7FF6F
S113EDF08046606801A915F04BFF009828B1B8F16E
S113EE00000F02D100F00AF802E000203860306000
S113EE1028602046FFF796FFBDE8F6814068019917
S113EE20401A3060019838600098006870470446C2
S113EE300020009001900D46704700F11402537FAA
S113EE40032B02D1DFF8B40270475170022918BFB6
S113EE501170FFF78AB800000004014010B500F1FA
S113EE601602D37E012B01D1022900D1EFE01478E0
S113EE708C4208D0117011B900F0D2F803E00129D6
S113EE8008BF00F088F8002010BD007D70472DE910
S113EE90F041044688461646FFF72BFA002878D13D
S113EEA0082016F049F8054604F12E0702E00DB1DA
S113EEB015F002FFA06A808810B138780028F6D0D7
S113EEC03879010002D12168096905E0012818BFD9
S113EED0002522D12168896811F002051DD10100A5
S113EEE00BD121680420C860206801698907FCD51A
S113EEF0416F41F0020141670FE001280DD1206804
S113EF00416C8907FBD4042141602068816889072A
S113EF10FCD5416D41F0020141650120B87038799A
S113EF20010006D0012819D110E018F8011B00F0E7
S113EF308EF931464E1E20680029F6D101698906F2
S113EF40FCD50BE018F8011B00F0BBF931464E1E4E
S113EF5020680029F6D181680907FCD5C5B938793C
S113EF60010008D12068416F21F0020141670820A7
S113EF702168C8600CE001280AD12068416C890727
S113EF80FBD4416D21F002014165082021684860ED
S113EF900020BDE8F08110B5040001D1FFF7F1BCF9
S113EFA094F82E0030B92046FEF795FF10B960683A
S113EFB015F00CFE94F82E00401C84F82E0000205E
S113EFC010BDF0B587B000F070F8A0B900F061F89A
S113EFD000F01CF8049700F010F860B9287E48B9D6
S113EFE02046FFF757F800F00DF8687F032801D09A
S113EFF000F011F8002007B0F0BD6A46286901A9A5
S113F000FEF7E2BF00992046FFF783B804F1140528
S113F0103B4805907047002028702046FEF7A5BFA6
S113F02010B5040001D1FFF7ACBC94F82E0070B108
S113F03094F82E00012806D12046FEF74CFF10B9A3
S113F040606815F0D1FD94F82E00401EB5E72B48FA
S113F05010BDF0B587B000F028F8C0B900F019F879
S113F06000F029F804976A462868FFF7C8FF70B9CA
S113F070687958B9F3F7E2FB06462868808818B126
S113F08000F00BF80120287200F00CF8002007B003
S113F090F0BD019502960396704700992046FFF74C
S113F0A05AB807463046F3F706BC04460D461646E2
S113F0B01F46FFF71EB904F1280511480590704753
S113F0C0B87F0020B8750020027000F003DF000054
S113F0D00E7000F0847203000022040001000C0092
S113F0E040410500E0E0FFFF0032040001000D0094
S113F0F000250800097000F0087000F0057000F0A9
S113F100017000F070B50446080015461E4604BFA1
S113F1104548F4F78FFA310006D0202E18D0402E3F
S113F12018D0602E18D070BD1021226822F0600221
S113F130226069432268324322604A0802EB40108D
S113F140B0FBF1F02038394901EAC000606170BDBC
S113F1500821EAE70621E8E70421E6E7CA4352006A
S113F16002F00A02C260C160704738B504460D4619
S113F17000F039F8A87C18B1206840F08040206085
S113F180E87C18B1287D40F08000A065687BB5F963
S113F19010100843B5F90E10084360602B7BAA6871
S113F1A069682046FFF7AEFF00F00CF8606F20F0AE
S113F1B030006067606F297E08436067FFE7287846
S113F1C0E06031BDA87DE97D0007090500F0E0405D
S113F1D001F4E00108432066687D18B1206840F41A
S113F1E080302060704740F6AA61C1600021016050
S113F1F041F205014160002181604161C1640C4A12
S113F2000C498164002141678167C16790420A49C2
S113F21012BF88420022026500228265884204BF30
S113F22006490A607047000040410500F8FF7F006E
S113F23000000140F9FF0100000401405C040140AA
S113F24001690906FCD5FFE7C069C0B270470269CD
S113F2505206FCD541637047026CD20702D4426C5B
S113F2600A42FCD1704738B500F00EF8E84340007C
S113F27000F00A002843606031BD19B1416C0029D7
S113F280FCD10121016470470D4604460221E3E7E5
S113F29010B504460121FFF7F0FFEA206060002169
S113F2A000202060E06020616061A06340F2F9709A
S113F2B060630020E0636065A0652046BDE81040FF
S113F2C0DBE738B500F005F8402100F00AF8A56244
S113F2D031BD04460D46A068C006FCD57047606089
S113F2E002212046B8E7000012490A6842788A6081
S113F2F00278DAB14268CA60437A827A1B0643EA2A
S113F3000272C37B42EAC342C37A42EA8342037B6A
S113F31042EA4342437B42EA0342837B007A42EA65
S113F320032242EA400040F0010001E00020C860EE
S113F3300861704790ED00E0BFF35F8FBFF34F8F1C
S113F340BFF36F8F7047000080B56846F8F746FB3F
S113F350DFF8DC03DFF8DC13016148F2E671416099
S113F3604FF408610160DFF8D003DFF8D013416087
S113F3709DF80120DFF8C813012A05D19DF800206B
S113F380022ABCBF28228A644AF63F420A604FF030
S113F390C071DFF8B023116000210166DFF8A81303
S113F3A001607F20DFF8A41308602320DFF8A01396
S113F3B0086001BD80B500F041F8FFF7C5FFDFF834
S113F3C09413032008604FF40020DFF88C130860C6
S113F3D00120DFF88813086002F0D0FFDFF8801303
S113F3E04FF46070086001BD10B5DFF8743384B069
S113F3F001221A60DFF86C432268120E12F00F0229
S113F400FAD14FF00452A2670122E2678A00014652
S113F4104FF00450F2F7CEFFDFF84C03E065684686
S113F420DFF848430ECC0EC08421DFF84403F9F71B
S113F4301BFF68460EC80C3C0EC41FBD80B50121DD
S113F440DFF8300315F09EFD0121DFF82C0315F0E1
S113F45099FD0121DFF8240315F094FD0121DFF863
S113F460200315F08FFD0121DFF8180315F08AFD44
S113F4700121DFF8140315F085FD0121DFF80C03E9
S113F48015F080FDBDE804400121DFF8040315F008
S113F49079BD0000F8B504460D460FF2243600E0AD
S113F4A00860002D1CBF286810F1010F3FD055F8EB
S113F4B0042BC2F3026156F8211093B2C2F3074041
S113F4C01943022808D300281EBF55F8042B41F81D
S113F4D0042B401EF7D1E4E755F8040B120F4FF04C
S113F4E0010C072A01F1C06301F180670CFA00FEE8
S113F4F0D7D8DFE802F00506090C0E111417D0E77F
S113F500CEE7C0433860CCE70A685040C8E71860CB
S113F510C7E702F0F6F9C4E7C3F800E0C1E7C7F8AB
S113F52000E0BEE70A6802408242FBD1B9E7204608
S113F53002F0BBFCBDE8F14000F065B9DFF824023D
S113F5400068000E00F00F00022818BF032801D144
S113F5500120704700207047DFF83802016800205E
S113F5608A0648BF0420CA0644BF801CC0B20A07EA
S113F57044BF801CC0B24A0744BF801CC0B28A0783
S113F58044BF401CC0B2C90744BF401CC0B270474E
S113F59080B51120F4F74EF8DFF8FC1109688AB23F
S113F5A032B1C008C1F307414843B0FBF2F002BDD9
S113F5B0002002BD38B5DFF8E4014168006801F0BD
S113F5C00702082AC0F344141AD20FF2FC139A5CFF
S113F5D0C1F3CD035B1CC1F345415A43491C51435C
S113F5E0C0F3822200F01F0014FB020048434500D0
S113F5F006D01120F4F71EF86043B0FBF5F032BDDD
S113F600002032BD80B5FFF7C3FFDFF8941109680D
S113F61001F03002102A02D0202A02D002BD400894
S113F62002BDC1F3C421491CB0FBF1F002BD10B509
S113F6305B48016801F03002202A0FD1C1F3024077
S113F64018B1C1F3C422B2FBF0F011F4C01F18BF0B
S113F65040004408032C0AD3042408E0006800F4A2
S113F660E070402816BFB0F5807F02240124FFF724
S113F670C9FF604310BDF8B50446F7F7A7FB06467B
S113F680FFF75CFF054647480068C0F38917B805D3
S113F69044BF45480743FFF751FF00B900253046F2
S113F6A0F7F791FB3FB217F5007F01D12542E4D172
S113F6B005B93E4F3846F2BD38B505460C46FFF74E
S113F6C079FF68433A49B0FBF1F0002100E0491C9E
S113F6D001228A40824203D21029F8D3012032BD8C
S113F6E0344A4FF4706010600802334908603348AC
S113F6F00068C0B2802803D02046BDE8324001E053
S113F700022032BD2B4AFF21116000F0FF002A497C
S113F7100860002070471348016801F07061B1F17E
S113F720C06F02D1816BC906F6D540214160704794
S113F73034410840C0E653519C4008407A27000FEA
S113F7400830084028700840806D63032430084462
S113F750243008469860084694400840944008467F
S113F7600C40084604400840B80F0021E00F002177
S113F7707C0F00210034060000040600004406004B
S113F780007406000064060000540600002406000D
S113F790008406004C000840306008403460084093
S113F7A0186008400870084000FCFFFF00FEFFFFDF
S113F7B040420F001870084418700846187008403A
S113F7C00000084000000021030404080808080899
S113F7D080B57E49072008607D4815F0EEFBC0081F
S113F7E0410A7C4A002312EBC05059417A4A02F084
S113F7F0D1FF7A4908604EF6602000F016F8784987
S113F8004042086001BD704730B5744A1268C117A0
S113F810A2FB004502FB0155B4F17F4065F1FF31C5
S113F820400E40EAC110803830BD80B5FFF7ECFFD0
S113F8300128B8BF002002BD0A0008D043F2C82343
S113F840994203DA642902DA642100E0194601804E
S113F8500846704743F2C8229142A8BF11468181ED
S113F8608089704743F2C8229142A8BF1146C181E2
S113F870C08970472DE9F84304000D4665D0E807B8
S113F8804FF47A7647F2305737D5E08A28B102F040
S113F89009FBE18A00F062F800E03846FFF7C5FF93
S113F8A050490860608A28B102F0FCFA618A00F0CD
S113F8B055F800E03846FFF7B8FF4B490860A08AC6
S113F8C038B102F0EFFAA18A00F048F86168401AF2
S113F8D000E03846FFF798FF44490860608B38B170
S113F8E002F0E0FA618B081A7043A0F6C41000E03D
S113F8F03846FFF79AFF3E490860A807DFF8F4800E
S113F90042F2107910D5E18900F021F83A490860F3
S113F910208B01001DBFA16806FB0010404438463F
S113F920FFF783FF3549086068070ED5208A010078
S113F93018BF06FB00873846FFF777FF3049086099
S113F940A18900F004F82F490860BDE8F18306FBA3
S113F95001F011B121684944081866E7081A704398
S113F960A168A0F6C410401A7047072182E701215C
S113F97080E782600160002070474160002070478A
S113F98038B504460D46FFF752FE0A21B0FBF1F0EC
S113F99029191D4A430802FB0131B1FBF0F032BDC5
S113F9A01A48016A0A0CC1F30111491C514342F27D
S113F9B01172914202D34FF0FF307047006800F09B
S113F9C01F004018401C704700000000844008409D
S113F9D060510700B2E60E0065CD1D00C87E002010
S113F9E0B00F0021A00F0021980F00219C0F0021CF
S113F9F0AC0F002130DFFFFFA80F0021A40F00216E
S113FA00900F0021940F0021A08601001C60084083
S113FA10F8B5160005460C4627D0307A010024D0EC
S113FA200027401E06282DD8DFE800F00F22200C06
S113FA300F040600072030727068C1000020FFF731
S113FA409FFF0746307A10B9F1BD0420307220467A
S113FA50002101F031FF296801F5FA714FF47A723F
S113FA60B1FBF2F1401A38183060F1BD0220307257
S113FA70FFF796FF10F1010F04D00021FFF780FF7C
S113FA804742DFE73772F1BDF8B5160005460C466C
S113FA901CD0307A010019D00027401E06282CD82B
S113FAA0DFE800F004212315171D0400062030723E
S113FAB02046002101F000FFA96801F5FA714FF416
S113FAC07A7291FBF2F1081838183060F1BD052004
S113FAD030727068C1000020FFF752FF4742307A4D
S113FAE00028E5D1F1BD03203072FFF759FF10F172
S113FAF0010F02D07168C900EEE73772F1BD000052
S113FB00012100F01F029140DFF8B02A05E0012135
S113FB1000F01F029140DFF8B426400942F820109B
S113FB20704780B5F7F752F9DFF8A4160968090E93
S113FB3001F00F01032907D1DFF898160A6822F0B3
S113FB40F00242F0E0020A600121DFF8882A116025
S113FB50BDE80240F7F737B9DFF8B82A1168D3686F
S113FB60194021EA00009060084670470422C90049
S113FB70002814BFDFF86006DFF8B40A02FA01F1C6
S113FB80016070470120704710B5DFF8A84A0123CF
S113FB902370F5F7DCFF0020207010BD70B5F7F777
S113FBA015F9DFF83816DFF838468D78D1E90223E5
S113FBB02E00DFF8BC1A04BF4FF41056324219BFAE
S113FBC010260E60102626600DB9D20502D520221B
S113FBD00A6001E020212160BDE87040F7F7F3B826
S113FBE0DFF8F8050021C170817811B1002181701E
S113FBF0D4E7704710B5DFF8E445E07878B1012028
S113FC0001F0D5FA58B9FFF7EBFFD4E90201BDE8DA
S113FC101040002200F4805001F00001B4E710BD50
S113FC2010B5036883EA010424EA020200F1806447
S113FC301340236040F8042C00F1C06011400160BF
S113FC4010BD70B504460D461646FFF7A7FF4FF4E6
S113FC50004114F0AA6F18BF48F20201B00748BF70
S113FC6041F400510022DFF8EC08FFF7D9FF00212E
S113FC70200448BF4FF48051E00348BF41F4807131
S113FC80E00648BF41F40051A00648BF41F40071AA
S113FC90600648BF41F48061200648BF41F400611A
S113FCA00022DFF8E008FFF7BBFF05F004030021A2
S113FCB00025AB4218BF4FF48021200548BF41F412
S113FCC08031600448BF41F48011A00748BF41F46B
S113FCD00011A00348BF41F40021700748BF41F060
S113FCE004010122DFF8D808FFF79AFFDFF8D418DF
S113FCF0F00748BFDFF8E018600048BF41F000712A
S113FD000022DFF8D808FFF78BFF0021E00748BF87
S113FD1001210022DFF8C808FFF782FFDFF8C418CA
S113FD20600348BFDFF8F0186007BDE8704048BFC3
S113FD3041F480614FF4A022DFF8DC0970E710B5CC
S113FD40F7F744F804461B20FFF7E1FE0720FFF70E
S113FD50DEFE0120FFF7DBFE0320FFF7D8FE0420C0
S113FD60FFF7D5FE1C20FFF7D2FE0620FFF7CFFEDB
S113FD700520FFF7CCFE1E20FFF7C9FE2046BDE894
S113FD801040F7F720B82DE9F04702EA0009089D72
S113FD90099AC643CF43002D03EA010A05EA020883
S113FDA0DFF838442CD1002948D100286ED001282E
S113FDB00ED0042842D1F7F709F800F069F80020C2
S113FDC082450CBF814501200121FFF7CFFE33E0BE
S113FDD0F6F7FCFF00F05CF80022924508BF91455D
S113FDE0DFF8B40806D0012101600120DFF8AC1867
S113FDF0086021E0DFF8A8280121116001601BE000
S113FE000022914204BF9042012D17D1F6F7DEFF84
S113FE1005462069400848EA400020614FF48061AB
S113FE20DFF8F808B8F1000F19BF0160DFF8F00837
S113FE30DFF8F02811600160284623E0FFF77FFF18
S113FE4000F027F82269AA4348EA02022261FFF778
S113FE50F8FEF6F7BBFF04461B20FFF751FE072010
S113FE60FFF74EFE0320FFF74BFE0420FFF748FE8A
S113FE701C20FFF745FE0620FFF742FE0520FFF792
S113FE803FFE2046BDE8F047F6F79DBFBDE8F0878A
S113FE900546D4E902013040394040EA090041EA0C
S113FEA00A01C4E902017047DFF87C08006810F019
S113FEB0A00F0FD1DFF8741808200860DFF870185D
S113FEC00868800547BF0220DFF868180220DFF8C1
S113FED068180860704710B50446FFF76BFAFFF71F
S113FEE02EFF00F017F9012002F077FB04F19001D6
S113FEF0DFF8480801F062F8DFF8441801200860D0
S113FF0001F04EFB01F0A7FBFFF762FC04F12800AF
S113FF10FFF72BFD4FF44001002001F071FC4FF47A
S113FF200011012001F06CFC02F020FA02F0DCFA6E
S113FF3010B91421F7F70AF8BDE8104002F0EFB940
S113FF4010B5DFF80048206810F0070F08D1DFF87B
S113FF50F817086820B1002001F029F9401E6061FB
S113FF608020DFF8E8170860DFF8E407016821F073
S113FF704001016010BD10B5F6F728FF044600F0FB
S113FF8018F8002802BFDFF8CC07006810F0060F4D
S113FF900AD1FFF7D5FFDFF8941701200860204647
S113FFA0F6F711FF002010BD2046F6F70CFF0120E4
S113FFB010BD032001F01EBC80B5010003D0DFF8A2
S113FFC09C17401E0860F6F701FFDFF884170A68E3
S113FFD022F040020A60F6F7F6FEDFF85817022016
S113FFE0086001BD2DE9F84F804689469246F6F730
S113FFF0EDFE834659EA0800DFF85C47744D1FD0D4
S2140100002868000E00F00F00032806D1DFF850170D
S214010010086800F00F000328F2D15FEA09000FD04C
S21401002000F065F8DFF83C17012008600420206026
S21401003001E0FFF770FB2868000E10F00F00F8D102
S214010040A0202060FFF7B5FF20B1032001F01BFBC5
S21401005000F079FA01F0DCFBDFF8C066DFF8D8764D
S2140100600020F06000F043F8DFF8E406016841F094
S21401007040010160FF2038604FF480706860042002
S214010080B8F1000F206007D0FFF74BFD01F00BFC25
S2140100902020686000F057FAB9F1000F22D05046D0
S2140100A000F05AFA0120BAF1000FF8601AD0DFF812
S2140100B0B80641680160E869A861DFF8B0064168E2
S2140100C00160DFF8AC0641680160DFF8A806416808
S2140100D00160DFF8C40541680160DFF89C06306006
S2140100E0FFF77EFD5846BDE8F24FF6F76CBE10B539
S2140100F0DFF8584606E0DFF86016042008600220A4
S21401010001F0FFFB04202060DFF81C0600684003B6
S214010110F1D410BD80B5DFF864060168DFF860062B
S214010120FFF762F96421DFF82806F9F79DF8DFF892
S214010130F8050021016041608160BDE8014001F0E1
S21401014089BCF8B5044601F09EFA032C0DD1DFF800
S214010150341641F61F7008604FF40061DFF8BC05E5
S21401016001600021C160002002E0022C02D10120C2
S2140101700021F4BD042CF6D1032001F084FA01F02D
S21401018047FBF6F723FE154D04462878002608B1EE
S214010190FFF7C7FC012001F00AF80D4F0028386868
S2140101A004D1000E00F00F00032802D16878E87031
S2140101B001262046F6F707FE002ED4D10020A870AF
S2140101C0FFF7ECFC4FF48050D2E7000080E100E03E
S2140101D004400840800F0021EC100846C06500204E
S2140101E0944008442DE9F04FDFF89C05DFF864A53C
S2140101F083B00168C268114000914FF00008009971
S2140102008160C346DFF884050168C26802EA01041A
S2140102108460C146DFF878050168C26802EA010514
S21401022085604FF6FF70FFF797FC0646DAF8000088
S21401023010F0060018BF01208DF80400DAF850000F
S214010240DAF85C1001EA0007DFF848053840CAF81A
S2140102505800009800283ED00099DFF8CC04090425
S2140102601CD50168DFF8F024DFF8EC3401F4E05126
S2140102701160A0221A601022DFF8BC341A6011B98E
S2140102804FF400280AE0CA0448BF4FF0007805D4AE
S21401029049054CBF4FF400184FF400080099890730
S2140102A014D50068DFF8B01410F46040086008BF89
S2140102B048F480180AD0010448BF48F0806805D485
S2140102C080044CBF48F4800848F080780098800489
S2140102D048BF4FF00209DFF8C004044235D014F4D9
S2140102E0206F07D0002000F037F9062100F02EF924
S2140102F024F4802414F0090F0AD0DFF8A01420207B
S21401030048600120DFF898140860082100F01EF903
S21401031014F0106F0AD0DFF8841420204860002102
S214010320002000F04DFF092100F010F914F4202FF1
S21401033007D0002000F010F9072100F007F924F497
S2140103408024E00348BF01F03DF860070ED5DFF8D2
S214010350540400684FF4005128B1DFF84C040160E2
S21401036048F4802802E0DFF844040160600548BFD5
S21401037048F0040860031CD500F0E4FF401E062880
S21401038005D8DFE800F0080B080E1114140003214D
S21401039000F0DCF80DE048F400580AE048F4806804
S2140103A007E048F4007804E048F4807801E048F07B
S2140103B00808BDB1E80448BF48F40048E80548BF4E
S2140103C048F48038A80448BF48F01008A80548BF7C
S2140103D048F02008680548BF48F04008280548BF8F
S2140103E048F0800836B3B00148BF49F008097001EB
S2140103F048BF49F01009300148BF49F02009700391
S21401040048BF4BF0040BF00348BF48F40068F00205
S21401041048BF48F48048B00248BF48F0020830039D
S21401042008D500F0D1F802281CBF0328072801D1FF
S21401043048F40038002F63D0380506D50320FFF7AF
S21401044080FE48EA00084BEA010BB80104D52B20D0
S21401045002F0EDF848F0804817F4E00F05D1F804F3
S2140104603ED59DF8040000283AD0384601F068FAD7
S2140104700746B80204D5292002F0D9F848F00058FA
S21401048078020FD500F05FF8272002F0D0F8B249C5
S214010490A02008601020A84908604FF48000CAF820
S2140104A058001AE0F80207D500F04DF8282002F0AF
S2140104B0BEF848F000681CE0F8041AD500F043F8CE
S2140104C001F0F1F9DAF8500010F4A00F11D12A204A
S2140104D002F0ADF8B2490120086048F0805808E003
S2140104E0F80406D50420FFF72CFE48EA00084BEA7C
S2140104F0010B780504D50220FFF723FE40EA09091F
S214010500AB48016901EA0902D0E9020108EA0000E4
S2140105100BEA0101FFF738FB600303D500F047FF44
S214010520FFF768FB6EB1B00148BF01F08FFC7001A8
S21401053048BF01F0A7FC300103D5BDE8F74F01F035
S214010540A2BCBDE8F78F042001F09DB80020F6F7A5
S214010550FDBC00006C00084038B50446F6F736FCD2
S214010560054600F047FE14B1FFF73AFB04E03148B8
S214010570007808B9FFF73EFB2846BDE83240F6F79B
S21401058022BC00008C6008402CE62BE62AE629E611
S21401059010B58848FFF7E0FA0446E00703D500F0F7
S2140105A013F800F00FF9600707D58148007CBDE815
S2140105B0104000F00402002030E010BD00E100E031
S2140105C0204008400018700074480068000E00F0D3
S2140105D00F00704724000840001C70006850084057
S2140105E03C700840090A0A09FCE580B572480168B2
S2140105F0C26811408160C8070BD56D48007A122188
S21401060000F00100F6F7A2FCBDE808400022012038
S21401061004E001BD144008400D0A0A090021FFF755
S214010620B3BA66480168C26811408160704700002D
S214010630EC100844D67F00202DE9F84380460C468E
S2140106409146F6F7C3FB424F3E6805464046FFF724
S21401065099FA28B126EA040004EA09010843386039
S2140106602846F6F7B0FB04EA0600BDE8F283000070
S2140106709440084638B504460D46FFF783FA00282D
S2140106801ABF33490868E06F2840A84201D101200B
S21401069032BD002032BD0000387008403C7008466C
S2140106A03C7008442DE9F84FC9B202293CBFD6B2C6
S2140106B0022E82460AD2DDF828800B9CA0453EBF5A
S2140106C0092CDFB2042F01D20C9D0DB9012020E0C8
S2140106D00A463B460021F6F7F3FA3948C14600EBD5
S2140106E04616FF0012E056F82900FF21B94088435C
S2140106F0A9EB0801695CB94041EA000B5046FFF7D7
S21401070041FA08B146F829B009F10109A145EADB29
S2140107100020BDE8F28F0000EC100840645008404D
S2140107206850084668500844884008400840084019
S214010730280F00210040084600400844A9FE00009A
S2140107400C40084404000840780F00218840084601
S214010750180F00210C500840884008441800084033
S2140107607C0F00210C40084668000840886008405D
S21401077078300840E81008405000F00218380300AE
S214010780002903006C50084460000840E01008404F
S21401079080600840FFF7BFFF090A0B0904400840C4
S2140107A028100840B40402432410084424100846C4
S2140107B0C06500200000FFFF307008407030084020
S2140107C0300F002102490120086002490860704785
S2140107D0204008441C40084080B5002845D00178D8
S2140107E0122942D3DFF8181742780A7082784A70C5
S2140107F0C2788A700279CA7042790A71827902B126
S21401080001224A71C27902B101228A71027A02B1C9
S2140108100122CA71427A0A720278182A0FDB827C98
S21401082002B101224A72C27C8A72027DCA72437D7B
S214010830827D43EA02228A81C37D027E0EE0827AAD
S21401084002B101224A72C27A8A72027BCA72437B61
S214010850827B43EA02228A81C37B027C43EA02222C
S214010860CA81407C0874002002BD002000F08DF88B
S214010870012002BD00210328DFF884260FD8DFE817
S21401088000F002101509107A01280AD002280DD0AE
S214010890032804D1D07910B1032010750121084630
S2140108A0704750790028FAD00120F6E790790028A1
S2140108B0F5D00220F1E710B5DFF84446207DFFF7BA
S2140108C0D9FF207D10BD80B5FFF7F5FFFF2800D1C9
S2140108D064E3DFF82C16CA898B8900928A7A022192
S2140108E000F001F802BD2DE9F84FDFF8187606464C
S2140108F08A46386891469846002100F0DDFF044696
S214010900701E0D464FF0FF3B03D0401E012806D94E
S21401091017E000F0DBFA064600F06CFC12E0304609
S21401092000F03DF810F1010F08BF5E4606D00A9BA5
S21401093042464946504600F0BEF9064600F085FAA2
S21401094000E05E463868002100F0B6FF001BA941B2
S2140109504FF47A72002301F01DFF002399424FF6EF
S214010960FF7201D8904201D3002403E04FF6FE72D5
S21401097000EA020416F1010F04D0304600F005F833
S21401098046EA04463046BDE8F28F10F1010F05D065
S214010990DFF874150A68C0EA02000860704738B5C7
S2140109A0044600F02BF8022CDFF8542502D1D1784A
S2140109B0022003E0032C1ED111790320537812780C
S2140109C014F046FB054615F1010F14D000F098F817
S2140109D0284600F062F810F1010F0CD000F079F80B
S2140109E0022C03D100F0B2F8002032BD032C02D154
S2140109F000F0C3F8F8E74FF0FF3032BD70B5DFF80E
S214010A000C05DFF80C458169DFF80855DFF8086545
S214010A102160016861602968A1606969E160696BAC
S214010A202161A96B6161696EA161B16BE161316898
S214010A302162DFF8E81409686162016AA162416A0D
S214010A40E162816A2163C16A6163806DA063306D72
S214010A50E063DFF8CC040068206468686064F06BCB
S214010A60A06401F039FBE06401F039FB2065002049
S214010A70F0630120DFF8AC1408604020DFF8A8140A
S214010A800860DFF87C146868097C090220F470604D
S214010A9001F470610843686070BD10B5044601F04A
S214010AA021FBDFF888140968C9024CBFA4EB400497
S214010AB004EB4004204601F031FB10B9FFF765FF57
S214010AC004E00021204601F03CFB08B14FF0FF3066
S214010AD010BD10B5DFF85814DFF858444FF4001075
S214010AE0086000F02DF800F085FBDFF84C140820B4
S214010AF008602068000E00F00F000228F9D110BD32
S214010B0010B5DFF83814DFF82C44FF200860F6F73C
S214010B105DF92168090E01F00F01032907D1DFF8FD
S214010B2020140A6822F0F00242F0E0020A60012175
S214010B30DFF810241160F6F746F900F001F810BD51
S214010B402068000E10F00F00FAD17047DFF8F803A6
S214010B50DFF8F8230168114041F0804141F4184163
S214010B6001604FF48000DFF8E81308604FF40021BD
S214010B70DFF8E0038161016070472DE9F041DFF89D
S214010B80C803DFF8D423016ADFF88C43DFF8CC53BF
S214010B90DFF8CC63DFF8CC83DFF8CC73890B8903ED
S214010BA041F4605141F03E010162416A090D0905B7
S214010BB041F4145141F0BC014162016D01F07F41E5
S214010BC011430165DFF8A42301688909890141F011
S214010BD0A70101604FF48000DD4908600020A06392
S214010BE0206820F4E07040F480702060CB480168F3
S214010BF0C908C90041F0050101604FF40021DC4835
S214010C000160296821F0004141F0804129604FF4DC
S214010C104041C160F160A968114040F2454211436C
S214010C20A960D44AE96821F0370141F02001E96062
S214010C30E968114041F4002141F48A41E9604FF42A
S214010C40F87101640820B0604FF4803000F027F896
S214010C50286820F47F5040F0400028604FF40030B0
S214010C6000F01DF800F01FF84FF4802000F017F890
S214010C70C14909200860142000F043FE00F013F873
S214010C809F49206D8978C0F3160040EA016040F460
S214010C90000020651420BDE8F04100F032BE30604F
S214010CA0142000F02EBE286808EA000038432860A9
S214010CB0142000F026BEF8B502280C4615461E463E
S214010CC016D100962B4622460121002000F013F88B
S214010CD000962B462246002100F00DF807460096A6
S214010CE02B462246012100F006F847EA0020F2BD15
S214010CF04FF0FF30F2BD2DE9F24F82B0054647F6C0
S214010D00FF7800200C9C8DF8040091469B464646D1
S214010D1082460527384600F032F800F036F812BF52
S214010D2029460146284600F037F8B042BCBF0646C1
S214010D308DF804700A37802FECDB9DF80400461FFF
S214010D4006E000F029F84045BCBF8046B246761C56
S214010D509DF80410F6B23046491D81420CDB80280E
S214010D600ADA0028F3D000F00AF800F00EF812BFF5
S214010D70294601462846E4E75046BDE8FE4F40288E
S214010D80B8BFC0F14000C0B270479DF8081000948B
S214010D9000295B464A4670472DE9F84F0027802810
S214010DA0A8BF7F2080291546A8BF7F210F2D4FF0B1
S214010DB00008A8BF4FF0FF3045DA534A6F4E14685B
S214010DC0DFF8BC91DFF838A1344044EA002008433C
S214010DD01060C346184600F094FD0A9C694E0EE06A
S214010DE02020C9F80000B0609AF80B00834504D3B0
S214010DF00120FEF740FC80447F1C0BF1010B012013
S214010E00A84083451AD2204600F07BFD9AF80900D7
S214010E100028E9D12021F068C9F80010B160400926
S214010E20012100F00100316131688906FCD50028F6
S214010E30D6D020205449B0600860D5E707B901270D
S214010E4098FBF7F000B2BDE8F28F38B5FFF758FE11
S214010E5014F08BF92E482D4902688A6142680A60AF
S214010E6083682C4A1360C3685361036953634369FB
S214010E70936383695366C469274B9C63046A1C6049
S214010E80456A264C2560856A0D62C56A4D62056B0A
S214010E908D62456BCD62856B8D65C16B204D196585
S214010EA0016C2960416C5160816CD963016DC06C25
S214010EB001F047F900F09EF934490120086040200E
S214010EC0334908604FF0FF30606631BD80B501F0F0
S214010ED003F900B962E02F4A2F49904209D30E4820
S214010EE00068800900F00700042814BF08684868F5
S214010EF000E0886810F1010F18BF80B202BD000043
S214010F00907E0020185008403C410840F8400840B8
S214010F10507C002014700840186008400400084007
S214010F2038400840400008460C400846303008402B
S214010F30186008460440084000400846004008443F
S214010F40800F00212400084028700840FF0110C0CF
S214010F5014700846F840084680846D001841084021
S214010F6010410846FF3FC0E00040000133F33FFF59
S214010F7010410844FF88F3FF384008468080FFFF91
S214010F803C700844307008403C70084640000844F5
S214010F900C40084400CA9A3BC081E00F4FF0FF3076
S214010FA002BD000030B53025DFF8704568432044A7
S214010FB00160426003991943416230BD38B5DFF8DC
S214010FC060556860002000900C4640F6FF7305F1FE
S214010FD00C0203210120FFF7E5FF032028800023F0
S214010FE00020688022464FF4005000900021032024
S214010FF0FFF7D8FFDFF82C15F0200860A020DFF8F7
S214011000281508600120DFF824150860BDE8314086
S214011010F0E038B5DFF80445226060600D46F5F76C
S214011020D5FEDFF80C150A680023E360A5605207B9
S2140110305CBF04228A60F5F7C6FE0DB10220A062ED
S21401104031BD00002DE9F04F89461646DFF8CC1475
S21401105000EB4002052E81B001EB021515D2761E7B
S214011060032E45D8DFE806F00B08050219F8010B38
S214011070A86119F8010BA86119F8010BA86119F804
S214011080010BA86101B0BDE8F08F19F8010BA8614A
S214011090361F19F8010BA86119F8010BA86119F898
S2140110A0010BA86101202968AC6801F00701891DC0
S2140110B000FA01FAAAF10108696808EA0400AAEB35
S2140110C0000741F0005BB742584408D23A46494609
S2140110D0F1F760F9F21B09EB0701584601E03246C9
S2140110E04946F1F757F930194AEA08010840A8605D
S2140110F001B0BDE8F08F10B582B014460022009210
S214011100224600F002F8204616BD2DE9F047894632
S21401111030214843DFF8041482B00E18085871686D
S214011120144600F007000122801D02FA00FA41F081
S21401113000511D46AAF10108009108EA0500AAEB34
S21401114000070099A742014408D23A464846F1F7FB
S21401115021F90099E21B09EB070001E02246484607
S214011160F1F718F90A9848B160194AEA08010840E7
S214011170F060B16888421CBF0220B062BDE8F38708
S2140111803023DFF8982358431044026AC2F308025A
S214011190914202D34FF0FF3070474268C0684FF06B
S2140111A0005308181A44C0F30800105C7047302238
S2140111B0DFF8681350430844006AC0F30C00704718
S2140111C0F8B50D46412D044601D30120F2BDDFF8E6
S2140111D05C6301203060F5F7F9FD07462A46214693
S2140111E00320FFF72FFF3846F5F7EDFD04203060AA
S2140111F00020F2BD38B5F5F7E9FD0446DFF83803FF
S214011200C74D0121016001630020009003234FF4C4
S21401121003702A1800210220FFF7C4FE032028804D
S214011220002068804FF4A020C4490860C4490860C3
S2140112300020A8602046BDE83240F5F7C4BDBC4892
S2140112400168C90311D54FF480318160BC48016043
S214011250BC48016801F0FF0101640168C1F3072180
S214011260016404210164002101647047F8B504009B
S2140112704ED0F5F7ABFD0546A9484188C1F3830278
S21401128000EB82024FF403731A448368022C1E4655
S21401129003D1D3B37408640002E0012C08BF1446DE
S2140112A076084FF40373B4EB460F034423D10021B1
S2140112B081609442218841F4004121803BD102881B
S2140112C02146121F4FF413770280241D07444688D7
S2140112D092B2361DBC4228BF1C46052A468002D360
S2140112E027883F04EBD48B7803F00703042B0CBF4D
S2140112F0012300230EE0E61A01F03F01711A068869
S21401130048BF4031361FB142D3DB2846F5F75BFDB7
S2140113100320F2BD09888C4CC1F30C01216006F054
S2140113207F0141802163A2642BB14068010018BF90
S2140113308047FEF7F0F9FFF782FF2846F5F743FDF1
S2140113400020F2BDF0B5764C208861884118C91E90
S214011350890801F00F0104EB81014FF40372001DAF
S2140113608D18208089B0794980B20860AE7816F071
S214011370070013D1EF7817F0810F18BF04200AD1A8
S21401138068460FF2D4112022F1F714F8B90801F0DB
S2140113901F011DF8010040EA0601A970042803D1C7
S2140113A06B4909680903FBD4A56009B0F0BD10B507
S2140113B05B4CA06828B1C10758BFFFF757FF002054
S2140113C0A06010BD80B563494FF48030086059496C
S2140113D008600220FFF7EBFE3D2802D2BDE801407F
S2140113E02DE701BD2DE9F84F04460D461646F5F7E3
S2140113F0EDFCDFF82C818146B8F80200C0F38301CA
S21401140008EB81014FF403721144B8F80020022C56
S21401141010D1D8F8083053B91318DB1E9B0803F017
S2140114200F0308EB83034FF403741C4405E05C08C8
S214011430640002E0012C08BF0C464FF403734344DA
S214011440E71A00F03F00B7EB000A48BF0AF1400A6E
S21401145092451EDA002D08BF002E59D08C42DFF8C7
S214011460E4B003D1DBF80470BFB206E0201F984257
S21401147038BF40300088C0F30C0706B13780002D16
S21401148046D00220FFF793FE82451ADA208801042F
S21401149004D54846F5F797FC00203DE0A17801F019
S2140114A00701C01B06292970C0F3090602DBFEF7F7
S2140114B053F8361A30B2C043C00F0421F5F746FD83
S2140114C011E0DBF80000C01BC0F3090620480068E5
S2140114D0012E04DA000E00F00F00032801D10820C7
S2140114E000E000202870C7F3080708EB07000C305F
S2140114F0A8606E8017FA86F0B0F5007F05D9C7F5AB
S2140115000070A88008F10C0001E0AE800020E860C1
S2140115104846F5F758FC2046BDE8F28F0010084013
S214011520447C00204000084440000846B8100840AB
S214011530E0100840E410084058100840E810084041
S214011540EC100846381008403C100840841008404B
S21401155004400840EC10084403010706030107068F
S214011560050106060501060603020706030207062D
S2140115700502060605020606012100F01F0291403B
S214011580DFF86424400942F8201070470840D04034
S214011590D1404A1C10EA520F18BF60EA010070479A
S2140115A02DE9F843DFF844440121204613F0EAFC14
S2140115B0DFF83C54DFF83C042860204613F0FDFCBD
S2140115C04FF47A71B0FBF1F64FF4FA607043010EF6
S2140115D0DFF82424002312EB00205941DFF81C24F5
S2140115E001F0D8F80400A4F58070A86204D12B217C
S2140115F00020F5F7ABFC01244FF47A7000FB04F2EF
S2140116000020310200EB5200002301F0C3F8DFF89E
S214011610F07380464FEA14293960C7F8048024061F
S21401162026B92B210020F5F791FC01264FF47A709C
S214011630A0FB0423002100FB093312EB560059419D
S2140116403246002301F0A6F8F860B960A8F101005F
S2140116502863BDE8F18380B51C20FFF78DFFDFF816
S214011660A4134FF0805008600120FFE7DFF89813BD
S214011670086001BD0A1A04D2DFF890030068401C16
S214011680821810467047DFF8882302EB001202F139
S2140116908062012111604FF4807101FA00F0DFF8D9
S2140116A07413086070472DE9F14F82B089461646DB
S2140116B0F5F78CFB80469DF80800FFF7E4FF022E45
S2140116C067D0DFF8547339680091012E04BF481CB7
S2140116D08144B8690021441C61F1FF3522462B463E
S2140116E0484600F07EF800998146FFF7C3FFA4083C
S2140116F044EA85740021AD088D4250D884424ED20A
S2140117009DF80800BA6DDFF814A300F1090108027C
S21401171041F61F75002440F001002A40824208BFAE
S21401172004247A6D09060AEA020241F480318A42EB
S214011730796D08BF44F002042940814208BF44F095
S2140117400104E00744BFDFF8D802C0F800909DF816
S2140117500800DFF8BC1200010A18C2F80C9011222A
S2140117600A5039680098FFF785FF83460098494676
S214011770FFF780FF9DF808204FF480718345804174
S21401178091407A6CC043C00F0A40521E924110EA43
S214011790D27F20D046B99DF80800FFF774FF404677
S2140117A0F5F711FB00201AE0B964E2079D489E494F
S2140117B004D50D6040F2011202600D60A20705D546
S2140117C0C1F800A0994A0260C1F800A0600702D5DE
S2140117D09749012008604046F5F7F5FA0120BDE873
S2140117E0FE8F002100E0801A9942FCD828BF904263
S2140117F0F9D2704786490001085800F00100704789
S21401180001F46001824A000141F003011150704762
S21401181088498648086070477F48006870477C4959
S21401182001EB0010C0687047F8B5714C054620689A
S21401183020F4700040F4A00020601E46300008BF6F
S214011840002141EA021040EA0641069841EA006199
S214011850079841EA0020E064E76AB7F5807F804197
S214011860C00F1821F5F772FBA76336B1288A00F07E
S21401187037F8874238BF0020E063F1BD6F48016842
S21401188011B96F4A102111606E49016341F201419D
S2140118904163704780B5212000F0C9FE5A494FF4D4
S2140118A08030086001BD80B5222000F0C0FE564998
S2140118B04FF48020086001BDF0B5514EB268A0FB20
S2140118C0024501FB0255F268A0FB026701FB0277A5
S2140118D0B6F1004267F1FF330021E0186941F0BD1F
S2140118E010B547490C684968A0FB0123B2F10042D4
S2140118F063F1FF331A460023E0FB04231046194622
S21401190010BD2DE9F8434C4DEE68FFF7E9FF04469C
S214011910686A47082868C00701D40FE0241AA04661
S214011920BC4288BFB846D5F80C9049463046FFF70A
S214011930A1FE4045F7D3A0424E46EFD3BDE8F18362
S2140119402DE9F8430446F0F779FF14F4C00F8046FA
S21401195044D03E4E3E4F306806224FF6C071FFF728
S21401196015FE8146386800F0706530690022FF2157
S214011970FFF70CFE344EB168090D10F1460F01F069
S21401198001012BDB19F5007F28D08000484525DBB7
S214011990B5F1007F18BFB5F1806F00D0F5B9E9B990
S2140119A0FFF781FFB068C00218D4012078601F4994
S2140119B0B069B161B0614FF4E0003061A00207D5B3
S2140119C0306810F0706F03D0306800F17F403060EF
S2140119D0012060F316542C2000F029FE4046F0F753
S2140119E06AFF2046BDE8F28380E200E000040600BC
S2140119F0005008400011010020A1070040420F00DE
S214011A00AC7E002000E100E0045008403050084061
S214011A1074500840645008401850084000001F1FCA
S214011A20A87E00206C5008466C5008440000010156
S214011A30084008406C5008400C5008403C50084094
S214011A4000400846011B0118545008400870084021
S214011A50044008401048114A416D00680002001613
S214011A60C9B2FF2918BF10F1010F19BF00EBD070E2
S214011A70401090210C2040189070022050702320B6
S214011A801070704706480168090E01F00F0102291F
S214011A9004BF802141607047B081E00F8D0F0021A7
S214011AA00440084070B504000D4615D0FDF7C6FC8D
S214011AB0DFF890050021002200230EC02078DFF811
S214011AC08865DFF88825022808D1106880021AD5B3
S214011AD003203071FF203070012070BD012804D131
S214011AE0106810F4400FF3D10DE00028F0D1DFF8B4
S214011AF060050068116800F0010080F0010001F443
S214011B0080010843E4D106222146301DF0F742FC4D
S214011B10002000F07BF8A088294600F0DAF9307939
S214011B20022802D100F059F806E0012802D100F09F
S214011B3037F801E000F017F8002000F067F8DFF84A
S214011B4014150320086000F059FA002070BD80B516
S214011B500622DFF80415F0F71DFC002002BDDFF8B1
S214011B60E80400787047DFF8DC04DFF8F024016849
S214011B7011400160042241F0804141F014010160EE
S214011B800721DFF8DC040160DFF8D8140A600722B9
S214011B90C2600522CA60C0228260812088607047C8
S214011BA0DFF8A004DFF8B4240168114001600322C5
S214011BB041F0030101600721DFF8A4040160DFF8AA
S214011BC0A4140A600722C2600622CA60DFF89814CD
S214011BD081604FF4404141607047DFF86804DFF8E8
S214011BE07C2401681140016041F0804141F02001F0
S214011BF001604FF4EE40DFF8741408604FF48A4138
S214011C00DFF86C0441600121016070472DE9F8435B
S214011C100546C82000F0C0F8DFF82C140C79FF2028
S214011C20032C08BF087000F0B580012CDFF84424AF
S214011C30DFF8103412D1082DA8BF072502DA012DCE
S214011C4008BF02251868DFF8304420401860ECB25F
S214011C5040EA046018600420106596E01C68DFF80E
S214011C601C6434401C6044F47C5444F0C8041C607A
S214011C700C79260004D1052D02D301262D1F00E084
S214011C800026DFF8C8733F68FF4307F4FE1747F4E2
S214011C900057B7FA87F7C7F11307C7EB4717EDB237
S214011CA0FFB2BD4288BF3D4614B90EB1042400E020
S214011CB000246419DFF8C87325B9DFF8C8C3C7F86C
S214011CC000C004E04FF0E06CC7F800C06D1EEDB236
S214011CD04FF01F0CB5FBFCFC4FF001080CF101099D
S214011CE008FA09F8A8F10108D3F800E04FEA8838A5
S214011CF008F47F1848EA0E0EC3F800E0CCEB4C1C43
S214011D00D3F800E0A5EB0C056D1C4EEA05651D60D9
S214011D104FF0FF3E3D6891F80390B9F1000F8446FD
S214011D2016D0186891F804E0DFF85C338002BEF143
S214011D30020F18BF0833000EB0FA80F0C0F11F0E74
S214011D404FFA8EFEBEF1000F58BF13F80EC0604664
S214011D5025F07F43A5B215B9DFF830030EE01EF17A
S214011D60010F18BFFF2805D020B1000640F004007F
S214011D70184303E023F0040040F07F4038604FF43E
S214011D8080000EB1DFF8082310600C70087800F0B0
S214011D9003F8E0B2BDE8F283DFF8AC120A79032A51
S214011DA000D17047F0B5DFF89C32DFF8E8421A68D8
S214011DB022401A6040F20974120A02F47F5500228A
S214011DC05B28A4BFCE88A64204DAC92805DBCE88E4
S214011DD0A64202DA43F6C87501221E68DFF8B87219
S214011DE035431D601F28DFF8B462DFF8B432DFF830
S214011DF0B4524FF0010CB9BFC6F874C0C7F804C09E
S214011E00C3F874C0C5F804C091F802C0BCF1000F55
S214011E1019D05128A4BFB1F806C0A44504DA792820
S214011E2011DBC888A0420EDA4DF6017030673860C3
S214011E30102002B11720000240F4404018672860C5
S214011E4008201860F0BD08203060F0BD10B500F025
S214011E505DF9954C28B12068216800F00CF82060E7
S214011E6004E0A069A16900F006F8A0614FF00070D7
S214011E708E49086010BD490820F47F1001F4FE1158
S214011E8008437047704738B500F040F9744C8849EC
S214011E904FF40015002814BF2560A5614FF00060BF
S214011EA0086031BD68480089704710B5044600F0E7
S214011EB0A5F865487F4A41781268C2F382129142BA
S214011EC005D0C068214600F004F8012010BD0020AE
S214011ED010BDF0B583B00C46002700B901205A4D5D
S214011EE0E86074480068800900F007006870801E8A
S214011EF0012801D9001F01D1002610E02879E978D0
S214011F00022804D100290CBF9626C82607E001281E
S214011F1008BF322603D0002914BFF026B426F9B232
S214011F20304600F048F8E968814202D37F1C102F42
S214011F30F5D30FF29C12D2E90001CDE90001781E1B
S214011F400002009030040190684600F008F800F0A6
S214011F5011F828812046FDF70AFD2889FEBD416853
S214011F60554A116040F6FF71544A116000685449A1
S214011F70086070472DE9F041524948684D684C6841
S214011F800A680E680F6802F00F01C0B200F013F87D
S214011F9080462804C6F30311000E00F00CF800EB8F
S214011FA00805380A00F00F012002000E00F003F8C1
S214011FB04019BDE8F08138B504460D46FBF7D2FB63
S214011FC06421B0FBF1F004FA05F1491142F21072F6
S214011FD05143B1FBF0F032BD03013B4A03F4F87301
S214011FE000F00700184310600A01384802F4F8723E
S214011FF001F00701114301607047000080B500F051
S21401200074F8401E082817D8DFE800F005160E0EF3
S2140120101010131313000C480079012819BF04216E
S21401202000200421042009E0002103E0032103200D
S21401203004E00A21002001E00A210F20BDE8044047
S214012040CAE70000E00F00219863002088410E4097
S214012050D481E00F584108449C630020E8FFFFBF8D
S2140120600041084400410846C1004000244108449C
S21401207020410846084108443F00C0E0FF3FC0E059
S214012080584108402C000007B083E00F0400000709
S2140120900841084637C0FFFF1C41084494400844E5
S2140120A0944008461C410846004108401C40084030
S2140120B020400844186008406C6008406860084486
S2140120C06860084668600840E80F0021E40F0021B8
S2140120D00000000000000000AA4840687047A948B8
S2140120E0C0687047A74880687047A7480068C0F373
S2140120F0080101F00700C90811F0070F1CBF01F025
S21401210007025043C90818BF484370479F480068F4
S214012110000900F0010080F00100704710B5044688
S214012120FFF7E3FF48B19A49B1FBF0F18C4222BFB9
S2140121309849B1FBF0F0A04201D2002010BD012069
S21401214010BD2DE9F84C06468A46FFF7CEFF044639
S2140121503046FFF7E3FF18B90E21F4F7F7FE0EE05D
S214012160012C19BF10208C4910208C490860FBF700
S214012170F9FA8346002C18BFBBF1000F01D10220EB
S21401218048E0804D6E6004FB06F7790BF8045A466A
S2140121900023834E00F0FEFA3060E2047068C5F852
S2140121A00CA0C0F31300ABFB0001002300F0F2FA11
S2140121B0A8605A46A4FB0A01C90441EA5031C0048A
S2140121C0002300F0E7FA3061287818B9706A00F049
S2140121D03F00287073480068400618D57248B7FB60
S2140121E0F0F000FB00F140F24D5251434CF20C620C
S2140121F002FB10106D49081803D12B21F4F7A6FE37
