S01E00006170702D626F6F746C6F616465722D737069666C6173682E733337B6
S315000000000004002079000000850000008500000043
S31500000010A70B0A0100000000010203650040000072
S315000000200418000011130000AB160000780600004B
S315000000308D0900002B0A0000690A00002B0B000046
S3150000004061080000710B00003D0C0000000000007C
S31500000050FFFFFFFF054800680549884205D10548AE
S31500000060016842685FEA010D1047704704500E4070
S315000000700000010000400000FFF7ECFF00F00EF862
S3150000008000F042F806E000005FEA000D70475B48AA
S31500000090008870474FF4017000F0DCB838B500F006
S315000000A01FF94FF20F04564D28B140F20520288063
S315000000B06C80012032BD53480068400515D568881C
S315000000C0A04212D1288840F2022188421CBF40F289
S315000000D00621884215D040F2011188421EBFB0F5B4
S315000000E08A7F40F2111188420BD0474C208A40F695
S315000000F0A721884205D12068FFF7C6FF60688047C0
S3150000010000BF002032BD000070B582B004003F4839
S3150000011072B60068050E684600F016F98F2D10DAE3
S315000001203B483C4D016841F0040202604FF0501319
S31500000130002230265643521CAB51062AF9D30160E1
S3150000014001E0902D06DA34480168C909C90141F079
S31500000150200101609DF80100012804D12F480168A3
S3150000016041F00401016000202D49086000F03EF9CD
S3150000017024480068800A10F001050CBF29482A4867
S3150000018002E0CD2100F8011B28498842F9D328480E
S315000001902849294A03E010F8013B01F8013B914246
S315000001A0F9D326482649002201E000F8012B8842AF
S315000001B0FBD300F049F9124A50884FF20F039842D8
S315000001C040F205210AD113888B4205D035B1180AB1
S315000001D0012818BF022801D1194601E004B90021FF
S315000001E0064801804CF23C30508000F03EF900F0A9
S315000001F013FA4FF4017000F02DF873BDC40C002003
S315000002000000002004500E4000400000FC81E00F7A
S31500000210B0400E4000A000402C400E4064310E401D
S31500000220B40AC643000000209C0000200004002001
S31500000230A02C000000040020140400201404002058
S31500000240D10C0020890001EB401000F184400260CF
S315000002507047000010B504461A484AF6E851016096
S31500000260C162016B01F00F01022913D1164A012167
S315000002701160806B00F00300012818BF022809D125
S3150000028000221C211148FFF7DDFF00220021104843
S31500000290FFF7D8FF200A00280E4808BF24024FF2B5
S315000002A00F0104804180BFF35F8FBFF34F8F0A4871
S315000002B00A4A016801F4E06111430160BFF34F8F00
S315000002C000BFFDE708300E404040084060300E4059
S315000002D074300E40000000200CED00E00400FA052A
S315000002E00020704780B500F0CBF9BDE8014000F072
S315000002F0DDB90000052800D9704710B5DFE800F029
S315000003001721030F1C170F4C2088411E2180C0B9EE
S31500000310012000F0CEF942F21070208010BD0120BD
S3150000032000F0C6F9BDE81040002000F0C2B9BDE8F3
S315000003301040002000F0BBB9BDE81040002000F0DE
S31500000340B7B910BDC60C00200B494A680B6892006D
S3150000035002F03C02C3F381131A4382700A6802F06A
S315000003603F0242708A68C96802F0F002C1F30311C5
S315000003701143017070470000E0FF0FE080B500F008
S315000003800CF82A492A4A0968C1F30821491CB0FB1E
S31500000390F1F0106002BD27487047274927480A68D0
S315000003A002F00702022A09D00AD3042A01D002D396
S315000003B006E0406805E04FF4004002E0006800E017
S315000003C08068C96EC1F30421491CB0FBF1F0704787
S315000003D01A4800687047194908601748006800F015
S315000003E00700022808BFFFF7C9BF70471448016815
S315000003F041F4700101601348416941F400514161C3
S315000004000168890889000160416B49084900416318
S31500000410016A21F08051016270474FF40040704735
S315000004204FF47A70704705484068704708410E409F
S315000004301004002000F0490294400E4004040020FD
S3150000044088ED00E040300E40602080F31188704750
S3150000045010B5084B1C6890FAA0F2B2FA82F224EAB0
S31500000460000091400843186010BD03490120086050
S315000004707047000000500E4008500E40007870474C
S31500000480002101608180C18001817047F8B5044672
S315000004900D461646002711E02068803020600020B7
S315000004A0E08080202081A088401CA080BFB2E08828
S315000004B0411C2044E180807AE8557F1CB8B2B042E6
S315000004C00CD2E08821898842F0D32068802204F18A
S315000004D00A0100F0AAFA0100DED0F2BD0020F2BD4A
S315000004E01720704710B5044600F0D7F82046BDE83F
S315000004F0104000F0FBBC2DE9F041A4B000F0B8FCC0
S3150000050000F0CBF800F038FD0121684600F050FD00
S315000005103F4C04F1800500206860A86000F0A0F957
S3150000052000280FBFE8608168E96040882880684637
S3150000053000F02FFE0028074644D1BDF80610BDF88E
S3150000054004600DEB010000F10A0828788007F6B276
S315000005500ED5E96861B1686832184B1E22EA0307B6
S3150000056010B1A868B84203D2384600F001FBAF606C
S3150000057032466868414600F077FA074680B96868EF
S315000005803246214600F051FA002000E0401CB042FD
S3150000059006DA215C18F800209142F7D0832706E09E
S315000005A068683018002F6860C1D01B2FBFD00420A8
S315000005B0FFF7A0FE0121384600F073FD384624B04F
S315000005C0BDE8F081172FF0D10020F8E770B5DAB05A
S315000005D0044636A8FFF754FF012000904FF402634B
S315000005E00C4A36A901A800F093FE0FF28C050FF213
S315000005F07C0600F052F8200014BF3246002201A902
S31500000600284601F052F85028F3D05AB070BD0000C9
S31500000610340C00201404002010B5FFF738FD044602
S3150000062001F066F8FFF75EFE00F0B0F918B14FF47E
S315000006300170FFF70FFE00F030F840F2011084421F
S315000006401CBF40F21110844209D0B4F58A7F1FBF47
S3150000065040F20520844240F20320844201D1012069
S3150000066000E0002001F080F8002010BDDF2A000025
S31500000670572B00007D0400008D040000E1040000FB
S3150000068080B50121064801F05FF904210720FFF734
S31500000690DFFE04490448086001BD024801F08ABC37
S315000006A00005080000200540010803007047704758
S315000006B07047704710B5044602E0FF2001F086FC43
S315000006C02046441EC0B20028F7D110BD10B504461E
S315000006D001E001F07FFC2046441EC0B20028F8D19C
S315000006E010BD10B504462002000E01F06FFC200478
S315000006F0000E01F06BFCE0B2BDE8104001F066BCF4
S3150000070010B501F067FC044601F064FC40EA0420E1
S3150000071010BD80B501E080B5FF2001F057FCBDE8B3
S31500000720014001F057BC38B501F057FC9F20FFF798
S31500000730F0FFFFF7F0FF04460220FFF7BBFFFFF7CD
S31500000740DFFF054601F04BFC012C0AD01F2C3ED0E2
S31500000750202C4FD09D2C60D0C22C15D0EF2C06D06B
S3150000076072E044F2140085426ED1012032BD43F29C
S315000007701200854204D044F21400854202D063E0A0
S31500000780022032BD032032BD42F212002D1A10D0D3
S315000007906D1E10D06D1E10D06D1E12D04FF4A460C9
S315000007A02D1A10D040F2DF202D1A08D0ED1E0CD0E5
S315000007B04AE0042032BD052032BD062032BD0720A6
S315000007C032BD082032BD092032BD0A2032BD44F2B6
S315000007D00140854208D044F20150854208D048F2D3
S315000007E00140854202D02FE00B2032BD0C2032BDE5
S315000007F00D2032BD42F212002D1A06D06D1E06D013
S315000008006D1E06D06D1E06D01EE00E2032BD0F20D6
S3150000081032BD102032BD112032BD44F209002D1A1E
S3150000082008D0ED1F08D06D1E08D06D1E08D06D1EB5
S3150000083008D009E0122032BD132032BD142032BD8B
S31500000840152032BD162032BD002032BD80B501F024
S31500000850C4FB0620FFF75DFFBDE8014001F0BFBB0A
S3150000086080B500F0EBF90028FBD1FFF75CFF401ED6
S3150000087015284ED8DFE800F00B0E1114171A1D20AC
S315000008802326292C2F3235383B3E4144474A0FF266
S31500000890D03002BD0FF2E03002BD0FF2F43002BDDF
S315000008A00FF2044002BD0FF2184002BD0FF22840BD
S315000008B002BD0FF23C4002BD0FF24C4002BD0FF2EA
S315000008C0604002BD0FF2704002BD0FF2844002BDCF
S315000008D00FF2944002BD0FF2A84002BD0FF2B840DD
S315000008E002BD0FF2CC4002BD0FF2DC4002BD0FF29A
S315000008F0F04002BD0FF2005002BD0FF2145002BDCF
S315000009000FF2245002BD0FF2385002BD0FF24850CC
S3150000091002BD002002BD000010B5044600F08EF9AD
S315000009200028FBD114B9FFF7FEFE05E02078010090
S3150000093002D1FFF7F8FE2070401E152824D8DFE804
S3150000094000F01A141A14171A1A1D1D2017171A1454
S31500000950171A1D0B0E1114174FF4004010BD4FF45B
S31500000960803010BD4FF4003010BD4FF4802010BD14
S315000009704FF4002010BD4FF4801010BD4FF400104E
S3150000098010BD4FF4000010BD002010BD10B501F0E1
S3150000099059FB01F03CFB01F07CFB01F07BFB42F2D2
S315000009A01074204601F074FB01F017FBAB20FFF733
S315000009B0B0FE01F014FB204601F06AFBFFF7B3FE20
S315000009C008B9862010BD0B3803280BD2FFF73EFF6F
S315000009D001F003FB0120FFF79CFE0020FFF799FEC4
S315000009E001F0FDFA002010BD38B50446B4F5004FFD
S315000009F00D46104603D2C4F50041A94206D2FFF7C0
S31500000A008BFF844204D2001BA84201D3012032BDD1
S31500000A10002032BD10B50C46FFF77BFE2046FFF7DF
S31500000A2060FEBDE81040032050E670B50D4600F0AC
S31500000A3077F808B9852070BD00F000F90028FBD1D1
S31500000A4001F0CBFA21460320FFF7E4FF03E0FFF7AE
S31500000A5062FE05F8010B3046461E80B20028F6D12C
S31500000A6001F0BDFA002070BD2DE9F84F894600F06F
S31500000A7057F808B9852051E0374600F0DFF800281E
S31500000A80FBD101F0AAFA21460320FFF7C3FF38463F
S31500000A90471E80B228B1FFF73EFEFF28F7D0872019
S31500000AA03CE001F09CFA200640F201174FF48078F2
S31500000AB008D0200A000200F58070A119814203D3F4
S31500000AC0051B04E0BE4201DA354600E0454630002B
S31500000AD023D0AB46CA4600F0B1F80028FBD1FFF799
S31500000AE0B5FE01F07AFA21460220FFF793FF03E0F4
S31500000AF01AF8010BFFF70DFE5846A0F1010B80B264
S31500000B000028F5D101F06BFA761B14FA85F4B6B21B
S31500000B10ADB2BE42A944D9DAD6E70020BDE8F28FCD
S31500000B2016460446002231465EE780B500F086F898
S31500000B300028FBD101F051FAB920FFF7EAFD01F0D8
S31500000B404EFABDE8014001F0A6BA38B504460D4696
S31500000B5000F074F80028FBD1FFF778FE01F03DFAAB
S31500000B6029462046FFF756FFBDE8314001F037BA67
S31500000B702DE9F843044600208DF800000D4668462E
S31500000B80FFF7CAFE9DF800108046A1F10E0240F65E
S31500000B90FF764FF6FF70042A4FF48037814638BF40
S31500000BA0064607D3A1F1120002283CBF4FF40047C6
S31500000BB047F6FF79354218BF82203DD1344218BF2F
S31500000BC0812039D16A46A9B22046FFF70DFF08B940
S31500000BD0852031E0BCB9454515D100F02FF8002835
S31500000BE0FBD1FFF733FE01F0F8F9C720FFF791FDBF
S31500000BF001F0F5F91FE021462020FFF7A6FF04F5D6
S31500000C008054A5F58055002D18BF14EA090FF2D1BE
S31500000C10BD420ED32146D820FFF797FF3C19ED1BA6
S31500000C20F6E721462020FFF790FF04F58054A5F54E
S31500000C308055002DF5D10020BDE8F28310B501F0F6
S31500000C40CCF90520FFF765FDFFF765FD044601F0C9
S31500000C50C6F914F0010018BF012010BD0000000005
S31500000C60020203009A01003C001000000000100080
S31500000C70A82B000001000000020203009A010008F0
S31500000C800010000000000400B42B0000010000006A
S31500000C90020203009A010018001000000000100074
S31500000CA0C02B000001000000020203009A01340F6D
S31500000CB00010000000000400CC2B00000100000022
S31500000CC0020203009A01001E001000000000080046
S31500000CD0D82B000001000000020203009A01003C2C
S31500000CE00010000000001000E42B000001000000CE
S31500000CF0020203009A0100780010000000001000B4
S31500000D00F02B000001000000020203009A010078A7
S31500000D100010000000002000FC2B00000100000075
S31500000D20020203009A01005000100000000020009B
S31500000D30082C000001000000020213009A01F000D6
S31500000D400010000000008000142C000001000000CC
S31500000D50020203009A01001C0010000000000800B7
S31500000D60202C000001000000020203009A0100305E
S31500000D7000100000000008002C2C000001000000FC
S31500000D80020203009A01007000100000000010002B
S31500000D90382C00000100000002020300000C0018BD
S31500000DA00000010000000400442C000001000000C7
S31500000DB002020300000C00280000010000000800E9
S31500000DC04C2C00000100000002020300000C005041
S31500000DD00000010000001000542C0000010000007B
S31500000DE002020300000C00A0000001000000200029
S31500000DF05C2C000001000000020203009A010002C0
S31500000E000010000000800000642C000001000000BB
S31500000E10020203009A010004001000000000010015
S31500000E20702C000001000000020203009A01000677
S31500000E3000100000000002007C2C000001000000F1
S31500000E40020203009A0100080010000000000400DE
S31500000E50882C000001000000020203009A01000C29
S31500000E600010000000000800942C000001000000A3
S31500000E7030B53A4C207887B088BB01213848394DC7
S31500000E8000F062FD012304220021002001F024F974
S31500000E90002301220121002001F01EF968460FF20D
S31500000EA0E8011C2201F052F901212F4800F04CFD07
S31500000EB001212E4800F048FD00208DF8000069460B
S31500000EC0284601F0B1F9032068672949A86F084050
S31500000ED0A8670521284601F0A0F90120207007B077
S31500000EE030BD244800688004FBD5704701461D4884
S31500000EF001F039BA10B5044603E014F8010BFFF708
S31500000F00F5FF20780028F8D110BD10B50446000979
S31500000F100A28ACBF37303030C0B2FFF7E7FF04F025
S31500000F200F000A28BDE81040ACBF37303030C0B2E1
S31500000F30DCE71048006810F0800018BF01207047F9
S31500000F4010B50446FFF7F5FF28B1064801F004FA8C
S31500000F502070002010BD012010BD0000D00C002024
S31500000F600025080000000140404105000022040061
S31500000F70E0E0FFFF1000014080B56846FFF7E0FFA4
S31500000F800028FAD001BD00000500000000000000A6
S31500000F9000C2010000050000001000000000000073
S31500000FA000000000002914BF0121022141607047A2
S31500000FB030B589B00170012201290CBF8021402182
S31500000FC0818042700021C1800181827001212E48FA
S31500000FD000F0BAFC01212D4800F0B6FC0FF2842087
S31500000FE00FC804AC6D4684E80F0000208DF8100091
S31500000FF004A9274C204601F0C9F90FF278200FC842
S3150000100085E80F0002208DF8030000208DF800000F
S3150000101001208DF80C0069461E4D284601F0B6F9F0
S315000010204FF6FF70E061E86109B030BD2DE9F0418F
S3150000103004460D46164F9046012100F030F8002078
S31500001040154E78623060FFF728FB012C0FD135B9B9
S31500001050FFF76FFF00F0010080F0010002E0284674
S31500001060FFF76EFF28B900F019F800200AE001200A
S3150000107008E030684045E6D35FEA0800E3D000F0B8
S315000010800DF81620BDE8F0810002040000120400ED
S31500001090008001400084014024840140002138463C
S315000010A080E738B504460D4600F009F800F007F869
S315000010B02A462146BDE838401820FFF713BA2A46CB
S315000010C021461820FFF70EBA70B5044682B00020FC
S315000010D0208148F6581220786946FFF7A7FF08B125
S315000010E01C2076BD9DF80000032818BF182801D1E2
S315000010F0182076BD042801D1172076BD012801D01D
S31500001100212076BD002500E06D1CA188EDB2091DE9
S315000011108D420BDA601900F10A01207840F24A226A
S31500001120FFF784FF0028EFD0262076BD002500209B
S3150000113006E00146EDB260196D1C007B01F072F904
S31500001140A288E9B29142F4D3A37AE17AC918FF29B9
S3150000115001D0222076BDA5182E7BB6EB102F01D02C
S31500001160232076BD697BC0B2814201D0242076BDA2
S31500001170A078834207D0401EC0B2834201D1272007
S3150000118076BD252076BD901C20810220E0800020BF
S3150000119076BD38B504466078012804D040D30328CC
S315000011A03CD033D33CE02078012816D13B25684655
S315000011B0FFF7C6FE0028FAD04320FFF797FE2078F7
S315000011C040F24A220021FFF731FF30B12846451E82
S315000011D0C0B20028F0D11B2032BD0220607020462C
S315000011E0FFF772FF050018BFFFF7C6FE272D19D1BE
S315000011F0A0782278411EC9B20620FFF773F9002DA8
S31500001200EDD10320FFF776F8002032BDFFF7B4FEDC
S3150000121000F023F8A078401CA070E0E7172032BD4C
S31500001220182032BDA80603D52278A1781520E4E758
S31500001230680603D4182D18BF1C2D07D1217828461F
S31500001240FFF72FFF04206070284632BD172DD6D138
S3150000125000F003F803206070E0E72278A17806200A
S31500001260FFF740B901000000000000000000000088
S315000012700000000001000000000000000000000067
S3150000128000000000418AB1F5847F0ADDDFF8001412
S31500001290096890F868000902B0EB116F01D00020D0
S315000012A0704701207047F8B504460D4616461F469E
S315000012B007E03046A047294601F0C7F805467F1EDD
S315000012C0761CB8B20028F4D12846F2BD38B50C46D3
S315000012D0154605E0014614F8010B01F0B6F86D1E3F
S315000012E0A9B20029F6D132BDF8B504460D46164618
S315000012F01F46286823683A4631469847040005D1B8
S31500001300E8683A463146FFF7E1FFE8602046F2BD5D
S3150000131070B58AB004460E98A072238162600D46AD
S31500001320022228686946FFF780FBBDF8000048B333
S315000013302868202201A9FFF778FB00200FF2A431CC
S3150000134001AA0B5C125C9A421CD1401C0828F7DBF0
S31500001350BDF80C0040BAA8B9079801BA202911D3E4
S3150000136006BAFFF77DFAC06886420BD2202201A991
S315000013704FF0FF30FFF7AAFFC649884202D107980F
S3150000138000BA286025604FF0FF30E060002020742E
S315000013900AB070BD2DE9F84F8B4604469BF81B70CA
S315000013A0D068BC49802FA8BF802788421E4651D1ED
S315000013B0002E4DD0B06800904FF0FF384FF0000976
S315000013C00BEB490000F1480A9AF800500BE0FFF7D2
S315000013D064F900984FF40063EA024146FFF763FFA1
S315000013E06D1C8046ADB29AF80100A84205DA09F1F3
S315000013F00109B9F1060F02DAE2E7FF2DE7D1DBF8C2
S3150000140044006FEA0801884224D1A068736800BAD4
S315000014107A0859469847C8B9E06805BAA06802BA7A
S31500001420B0683B464FF0FF31FFF73DFFC0438542B2
S315000014300CD140F6A720ABF810000122A068736813
S3150000144000BA0BF110011030984708B1422002E0B3
S31500001450172000E04320BDE8F28F2DE9F04F8946C2
S3150000146009F1040583B08046D5F800A0A888ADF838
S31500001470000014460423524600F011F9010030D151
S31500001480BAF8000040BA80B20190BAF8020047BA32
S31500001490BFB2F80706D501984FF20861884218BF17
S315000014A046201ED1B7F5026FC8BF4E2019DC002FAB
S315000014B07CD00198DFF8E0B109F13C0670B14FF23B
S315000014C00861401A75D040F2FC51401A00F0C58000
S315000014D0FF3800D0FE3800F07F80D6E0287B08B1C8
S315000014E0512064E08D2F28BF4F2060D23B4609F182
S315000014F0180200F0D3F8010059D1F278802AA8BF6B
S31500001500802202F10C00874201BFA88A40BA00F48B
S315000015107F40B0F5007F45D1E88A40BA4EF250319F
S31500001520884202BF288E40F6A72188423AD1688EAB
S3150000153000F47F41B1F5807F01BFA96909BADBF8E4
S315000015401C3099422ED1BBF8181040F20323994261
S315000015500DD1B0F5847F25DB706C410522D1C0F535
S315000015608020B0F5683F1DD8B0F5005F1AD34FF65E
S31500001570FF70288609F124014FF0FF30FFF7A6FE21
S31500001580E96909BAC943884204BF3078042809D1F9
S315000015907078182818BF062804D109F12400FFF72F
S315000015A071FE08B9452002E0012028730020BDE83D
S315000015B0FE8F287B002852D0BDF800008742B4BFBA
S315000015C03C460446234600F06CF80100EFD13F1B71
S315000015D0BFB2002FF0D1E9E7287B00283FD00423D3
S315000015E000F05FF80100E2D1DAF8000005BADBF896
S315000015F01C003F1F8542BFB238BF4820D7D3F16BCE
S315000016007819884228BF4920D1D201984FF6035154
S3150000161088420AD14CB1226829460220904720B15F
S315000016204A20C4E7BF1BBFB2AD19002FBED0BDF81C
S3150000163000008742B4BF3E460646334600F031F806
S315000016400100B4D1002CEDD06368720851462846DB
S3150000165098470028E6D04B20A9E7287B08B9412007
S31500001660A5E7042F18BF4C20A1D12A68042300F057
S3150000167015F801009BD123464A4609F1240109F1D8
S31500001680140003B0BDE8F04F84E644208FE7000065
S31500001690FC81E00FE320BBDE000000004946404627
S315000016A022E65246494640461EE670B50D460446B9
S315000016B028898028164603DA4F2070BDA87A78B9A3
S315000016C0324629462046FFF7C8FE0028F6D01728DE
S315000016D007D1286861688847172802D1002070BDA5
S315000016E0502070BD534C4142494252200000000038
S315000016F010B50FF250000FC88AB06C4684E80F0090
S31500001700684600F02CFF04A80FF24801142200F0EE
S315000017101DFD04A800F0C1FA01220121022000F0FB
S31500001720FFFA0748FEF757FE0421112000F01CFAC5
S3150000173000220021032000F0F3FA0AB010BD0000D9
S3150000174000F04902000108070F000A00C800200047
S31500001750A000000000000000A00055010A200706B6
S31500001760020A04070000000010B504460020FEF738
S31500001770C1FD24BB0020FEF729FF50B90120FEF76A
S3150000178025FF30B90520FEF7B5FD40F20120FEF732
S3150000179061FD0420FEF7AEFD0120FEF7ABFDBDE8BE
S315000017A0104040F20320FEF755BD0FF23400FFF75C
S315000017B0A1FBFFF796FB40F20220FEF74BFDFEF77A
S315000017C09AFE0400F1D00FF22000FFF793FB2046AB
S315000017D0FFF79BFB01A0FFF78DFBF0E70D0A00006A
S315000017E00D0A4F6B0D0A00000D0A455252200000EB
S315000017F0890001EB401000F18440026070478900C7
S3150000180001EB401000F18440006870470122DFF8C8
S31500001810401610B5884232BF0022DFF838168842DB
S3150000182001D2144600E002241021DFF82C06FFF74F
S31500001830DFFFDFF83407016821F0807141EA0461B7
S31500001840016010BDDFF81416DFF814360A6802F0DE
S315000018504072984238BF002204D3DFF8103798420E
S3150000186038BF0122086820F0407040EA0260086034
S31500001870704738B500F013F841F671302060FEF776
S315000018808AFD002105E038B500F009F841F671320D
S315000018902260FFF7D7FF0DB10020206031BDDFF8D1
S315000018A0D046256805B101257047C01C0F2801D216
S315000018B0000770474FF070407047000038B5044687
S315000018C0002500F0FBF8DFF89426DFF8281694428E
S315000018D008D0DFF88C26944206D0DFF8882694429A
S315000018E004D006E0086802E0486800E0886800F076
S315000018F00700401E03281BD8DFE800F002050C088D
S31500001900FEF78BFD04E0FEF78EFD01E0FEF788FD95
S3150000191005460DE0FEF732FDDFF84C160968090EA4
S3150000192001F001010122491C02FA01F1B0FBF1F5B7
S31500001930284632BDDFF83C164A68D20702D40A6848
S315000019400242FCD17047000070B5020A0C4602F054
S315000019500F020021521E092ADFF8245614D8DFE8A8
S3150000196002F005141313071619131C20DFF8E854A8
S31500001970C0F3043611B10846FFF7DCFF22463146B4
S315000019802846BDE8704033E770BD1035F0E73035C6
S315000019900121EDE738351021EAE740354FF4803173
S315000019A0E6E7DFF8E055E3E770B5DFF8CC15DFF8DA
S315000019B0AC250E68DFF8A815DFF8AC45012510F454
S315000019C078105DD0B0F5003F2AD0B0F5802F21D039
S315000019D0B0F5002F54D0B0F5202F27D0B0F5402F0A
S315000019E046D0B0F5602F66D0B0F5901F3BD0B0F56D
S315000019F0A01F24D0B0F5B01F2AD0B0F5D01F1CD040
S31500001A00B0F5E01F22D0B0F5001F2CD0B0F5381F7E
S31500001A1039D04FE0FEF7C1FCE168C1F308210AE0C6
S31500001A20FEF7BBFCA168C1F3082104E0FEF7B5FC94
S31500001A306169C1F30421491C12E0104615E0104605
S31500001A40FFF73CFF216A01F00F0107E008460CE0B2
S31500001A500846FFF733FFA16A01F0030105FA01F119
S31500001A60B0FBF1F627E0DFF8FC04FFF727FF1FE0E5
S31500001A70DFF8140500F022F807281CD0092819D130
S31500001A80FEF78BFC14E0DFF8040500F017F80428D5
S31500001A900CD007280FD008280CD1FEF77EFC216851
S31500001AA0C1F30421491C01FB00F604E0FEF790FC9B
S31500001AB0064600E00026304670BD0000014601F0F3
S31500001AC00F010120491E0729DFF8C82449D8DFE89D
S31500001AD001F0040F1348202E4836506A00F0070024
S31500001AE002283AD002D3042804D01CD3052070471C
S31500001AF011690FE002207047516901F00701491E84
S31500001B0003292FD8DFE801F00F020311F2E70620C0
S31500001B107047916901F00701012904D00229E9D033
S31500001B20042902D07047032070470A2070471168C5
S31500001B3011F001010FD0012914D109207047DFF8F7
S31500001B405814096801F03001102904D0202904D066
S31500001B50302904D0704707207047042070470820BA
S31500001B60704700207047000070B500F00F00032496
S31500001B700325401E0728DFF81C640FD8DFE800F0B5
S31500001B80042E347C31607C6A0229DFF8C40206D058
S31500001B9003291AD004291AD005291DD070BD0424A2
S31500001BA0002501220121284600F0BAF8FFF761FE60
S31500001BB07460DFF8DC03FFF7F7FEFFF727FEFEF79A
S31500001BC0DDFBBDE8704000215DE60125E9E7022462
S31500001BD00225FFF71BFEE4E70124FAE706F11004ED
S31500001BE004E006F1180401E006F11404012908D006
S31500001BF0022909D003290ED0062913D00A291DD09F
S31500001C0070BD0020206070BD01220121002000F07F
S31500001C1087F80220F6E701220121012000F080F872
S31500001C200120EFE7FEF7AAFBFFF7F0FD01220021F6
S31500001C30DFF84C03FFF7DCFD0320E3E70420E1E7D0
S31500001C40072902D0092902D070BD002000E001203A
S31500001C50306070BD012906D0042915D007290CD0A3
S31500001C60082918D070BD0020DFF82C130A6822F06E
S31500001C70300242EA0010086070BD012201210420F2
S31500001C8000F04EF80120EFE701220121022000F0CA
S31500001C9047F80220E8E70320E6E770B500F03DF8D4
S31500001CA001220021022000F03BF8217CDFF8F052EF
S31500001CB000200229296808BF0120490840EA41009E
S31500001CC02860082122782846FFF792FD6868E17AA5
S31500001CD0C00841EAC0006860617AA08841EAC02075
S31500001CE0A860EE68207AFFF7E0FDE28806F07F61E3
S31500001CF041EAC221A27A1143227A41EAC21108437B
S31500001D00E860A17B607B090141EA0030E17B084382
S31500001D10217B40EA0140286170BD04461120CDE6D2
S31500001D202DE9F84F04288246904671D8DFE800F086
S31500001D304C473D03420001260220012700240029CA
S31500001D40DFF83892964D5ED0BAF1020F02BF2868CE
S31500001D50C0F3011000284FF0000B0AD12868C00715
S31500001D604FF0010B05D5286820F0300040F0100038
S31500001D702860EE6300F04EF80028FBD0B8F1000FA3
S31500001D8046D0394600F047F80028FAD0BAF1020FDB
S31500001D903ED1BBF1000F3BD02868C0071BD50122FE
S31500001DA02021022000F0C9F819E0042608200327A4
S31500001DB00224C4E71026202005270424BFE7402676
S31500001DC0802007270624BAE74FF480764FF4007088
S31500001DD009270824B3E70021022000F08DF802202D
S31500001DE000F01CF80446012200210220FFF798FFAC
S31500001DF02146022000F036F8EE63394600F00BF873
S31500001E000028FAD004E0E86300F004F80028FBD1CB
S31500001E10BDE8F18F21464846FFF7F1BC401E032876
S31500001E205E4912D8DFE800F0020C06080869C0F324
S31500001E3008007047086800E0886800F07F00704777
S31500001E4058480068C0F30A00704700207047000039
S31500001E500148E8010190D00300400E4004000E4006
S31500001E6041787D0170B5401E0D46032805F07F01BF
S31500001E704A4C404E3DD8DFE800F0022A101DC5F35B
S31500001E8008051A213046FFF7BAFC0028F9D1206967
S31500001E90400A45EA4020206170BD0D4618213046B3
S31500001EA0FFF7ADFC0028F9D12068C00945EAC0104B
S31500001EB0206070BD0D4619213046FFF7A0FC0028B2
S31500001EC0F9D1A068C00945EAC010A06070BD2B48D2
S31500001ED00068606920F0300040F010006061C5F3D2
S31500001EE0C310FFF7E2FC216A2F4A11402943084339
S31500001EF0206270BD80400E4029480268C2F301127C
S31500001F00002A18BF002907D0202902D0302903D083
S31500001F1005E04FF4000103E04FF4400100E02349DF
S31500001F20C26E0A408A42FBD1490204D5C06F800ABC
S31500001F3000F0010070470120704710B502280AD151
S31500001F400B0004D01A4B4FF480645C64196012B124
S31500001F50BDE81040D0E7012010BD000002001A00C5
S31500001F6003001C000500200000410E40015A6202D9
S31500001F7040000E4040410E400004002090400E40BC
S31500001F80B0400E4050410E4006000C0098002E0056
S31500001F900005080070400E405C410E4010400E40A7
S31500001FA024400E409C400E4000F8FF0FFF03E1075F
S31500001FB064400E400168C90707D58168890704D4C3
S31500001FC08168C907FCD40121416070470146294850
S31500001FD000F0C9B9274800F0BFB9274900E02749F2
S31500001FE010200860704782B000EB40000021CDE968
S31500001FF00001DDE90001421E61F10003CDE9002385
S3150000200000229142F5D19042F3D102B0704780B5DB
S31500002010002304220621022000F05EF8002302229B
S315000020200721022000F058F800230422082102208C
S3150000203000F052F8BDE800500123042204210020DC
S3150000204000F04AB810B501210D480A4CFFF77CFC98
S3150000205001210C48FFF778FC01210B48FFF774FCBF
S315000020600FF23401204600F009F90B20606707489B
S31500002070A06710BD000401400CA000440CA000465F
S315000020804041050000250800003204000B0B000B40
S31500002090A9E77047704770470500000000F0490245
S315000020A000A861000501010000000000000000001A
S315000020B03023254A584310440C3000F1806006E076
S315000020C03023214A584310440C3000F1C0600122ED
S315000020D002FA01F101607047F8B504461646300071
S315000020E00D461F4607D0002F204602D0FFF7E8FF17
S315000020F001E0FFF7DDFF30210F22134811FB04F149
S31500002100082D084405D2AB00416800F015F841607F
S3150000211006E0A5F108039B00816800F00DF88160D8
S315000021204EB9002F2946204602D0BDE8F440C7E745
S31500002130BDE8F440BCE7F1BD9A4021EA020206FA86
S3150000214003F111437047000000A00040103A07D386
S3150000215030B4B1E83810103AA0E83810F9D230BCE3
S31500002160530724BFB1E80810A0E8081044BF51F88F
S31500002170043B40F8043BD20724BF31F8022B20F879
S31500002180022B44BF0B7803707047083A07D3B1E8B7
S315000021900810083A40F8043B40F804CBF7D253073E
S315000021A0E4E7000070B50446080015461E4604BF65
S315000021B06348FFF7F9FB310006D0202E18D0402ED9
S315000021C018D0602E18D070BD1021226822F060024F
S315000021D0226069432268324322604A0802EB4010BB
S315000021E0B0FBF1F02038574901EAC000606170BDCC
S315000021F00821EAE70621E8E70421E6E738B50446C0
S315000022000800154604BF4E48FFF7CEFB401E690086
S31500002210B0FBF1F00002606131BDCA43520002F02A
S315000022200A02C260C160704738B504460D4600F028
S3150000223066F8A87C18B1206840F080402060E87CF1
S3150000224018B1287D40F08000A065687BB5F91010B4
S315000022500843B5F90E10084360602B7BAA686968CD
S315000022602046FFF79FFF00F039F8606F20F030003E
S315000022706067606F297E084360672CE038B50446C6
S315000022800D4600F03CF8A87B08B14FF48060216849
S31500002290B5F91020104340F0010008432060287D66
S315000022A008B14FF00050216808432060A87C18B19F
S315000022B0E87C40F08000A065287B40F48050606098
S315000022C0AA6869682046FFF799FF687B08B1102065
S315000022D0E06000F003F82878E06031BDA87DE97D74
S315000022E00007090500F0E04001F4E001084320661C
S315000022F0687D18B1206840F480302060704740F651
S31500002300AA61C1600021016041F20501416000211E
S3150000231081604161C1640C4A0C49816400214167B6
S315000023208167C16790420A4912BF8842002202654E
S3150000233000228265884204BF06490A607047000091
S3150000234040410500F8FF7F0000000140F9FF010051
S31500002350000401405C04014001690906FCD5FFE761
S31500002360C069C0B2704702695206FCD54163704726
S31500002370044988421CBF0449884201D101207047A4
S315000023800020704700800140008401402DE9F84399
S3150000239004460D46FFF7ECFF2878010004BF022132
S315000023A0616000216162697801B140216A7A02B1F7
S315000023B08022AB7A03B12023EE7A06B1102695F877
S315000023C0049095F805C095F80CE0EF7895F8028032
S315000023D0B9F1000F18BF4FF40059BCF1000F18BF38
S315000023E04FF0805CBEF1000F18BF4FF0080E3F049F
S315000023F047EA0868AF7948EA8728EF792D7A48EAEC
S3150000240007273D43294311431943314349EA010153
S315000024104CEA01014EEA0101216008B10120606029
S31500002420BDE8F1830A46090241EA12214840C0F399
S315000024300311484080EA003041010206C9B2D20EBB
S3150000244041EA0221484080B270470A0A484000F03B
S31500002450FF0008214308C00746BF034858401846F6
S31500002460491EF7D1504070472083B8ED890001EB33
S31500002470401000F1844002607047890001EB401073
S3150000248000F184400068704710B5DFF8FC0301686E
S31500002490C1F30322DFF8F4134B8803F12804521C1E
S315000024A003EB5403283302EB8204B3FBF4F35B1E05
S315000024B00468072B34BF1B064FF0E06324F0EE647C
S315000024C0234343F480130360B1F90610002913D4A3
S315000024D089B201F1280301EB53015308283103EBBC
S315000024E04202B1FBF2F14268072934BF09017021AB
S315000024F022F070021143416010BDF8B50446DFF8C2
S315000025009453686AC007FCD4DFF88463306810F01F
S31500002510030704D001220D212846FFF7A7FFA74293
S3150000252002D1DCB9002214E02FB9012C03D1DFF867
S315000025305C1302200870686AC007FCD43068800803
S3150000254044EA80003060686AC007FCD4220018BFE5
S3150000255001222846BDE8F8400D2187E7F1BD70B598
S315000025600446DFF8340382B002210160006800F0FF
S315000025700F00022840F08580DFF82003006810F184
S31500002580010F13D0DFF81803416802681160C168B3
S3150000259082681160416902691160C16982691160CE
S315000025A0416A026A1160C16A806A0160E0884B284C
S315000025B038BF00200DD3B0F5FA7F38BF4FF08050FA
S315000025C007D340F6C411884234BF4FF000504FF095
S315000025D04050DFF8D052DFF8D0322969B4F90C2028
S315000025E0DFF8A4621940D243084340EAD27028615A
S315000025F00021306A40F0807030623046FFF73DFFC0
S3150000260000B1042000F02EF9706920F0C04070611E
S31500002610306840F0060030606846FDF795FE9DF88C
S315000026200100DFF86812012813D19DF80000032885
S315000026300FDA087868B9A868DFF8702240F0010060
S31500002640A86070691040DFF86822104370610120AD
S31500002650087020894880A089C880A088888000F0FA
S31500002660CEF8A07B20B1012805D1DFF8480201E0B1
S31500002670DFF84402F06060880122012100F010F8C2
S3150000268008B9002076BDA27A02B1012205212846AA
S31500002690FFF7ECFE6078FFF730FF012076BD000003
S315000026A02DE9F847A0F5E163B3F5966F00F2A58032
S315000026B0B0F5E16FDFF804524FF4966807D92C683D
S315000026C001234FF4E169260EC4F3074A08E02C689B
S315000026D0C14600234FF41678C4F3072604F0FF0A18
S315000026E0DFF8A44127683F0F07F0030700974FF074
S315000026F0000E009F53EA0727F44614D07F1E1ED013
S31500002700FF3F0ED07F1E14D0FF3F08D07F1E0ED095
S31500002710FF3F02D07F1E08D016E0AF680AE0AF6820
S315000027200EE06F6806E06F680AE02F6902E02F6925
S3150000273006E0EF684FEA176CC7F3074E04E0EF6850
S31500002740C7F3072C07F0FF0EA0EB0909A6EB0A005A
S3150000275000FB09F0B0FBF8F05044ACEB0E0707FBAA
S3150000276009F78642B7FBF8F828BF5045F04444D332
S31500002770C44528BFF04540D35AB12269DFF84071FD
S31500002780002B14BF022600263A4042EA00203043BE
S31500002790206179B3DFF82C010068C0B2042802DAA0
S315000027A0686983B10CE0A8690099032925D8DFE898
S315000027B001F00A070402000E07E0C0F3074004E038
S315000027C0C0F3072001E000F0FF00000330F4704181
S315000027D013D1216A21F4704108432062B8F1E70F52
S315000027E0A06928BF4FF0E708400A43EA480141EADA
S315000027F04020A0610120BDE8F2870020FBE710B56C
S3150000280021494B6A0C68E4074FF0FF3203F00703D7
S3150000281012D5022B10D3142815D3143814281FD31D
S315000028200F22086820F47F4040EA022040EA023086
S315000028300860BDE8104027E60C68E40709D4022BBF
S3150000284007D20A2801D20322EBE70A380A2807D35F
S31500002850E6E70C68E407E4D5022BE2D22828DFD2AB
S315000028600722DEE738B50446074D00212846FFF764
S3150000287004FE686AC00844EAC0006862BDE83240E7
S3150000288002488088BBE700004C300E40C80C002090
S3150000289040300E4054300E4038300E401C83E00F5E
S315000028A03880E00F3C300E40FEFFFFCF000F0EF0E9
S315000028B0B4C0400B372110B7774020571883E00F7C
S315000028C0FD80FFFF0082E00F794841F67131816398
S315000028D00168490849000160704775480168490860
S315000028E0490001600021816370477249724A01E024
S315000028F021B1491E1369DB07FAD401B9BAE0506069
S3150000290001201060106910F0060F05D0410700D5B0
S31500002910B3E0800700D5B3E000207047F0B513465A
S315000029200022002936D0634C634D8BB98B4231D2DD
S3150000293050F8046BEE605B1C08262E60264601E00C
S3150000294036B3761E2F69FF07FAD4002EEED11FE0AC
S31500002950EFF3108672B600230EE02F6907F0190711
S31500002960102F08BF2F602F693F07F6D550F8047B5C
S31500002970EF605B1C10272F608B42F4D306B962B65A
S31500002980264601E026B1761E2869C007FAD40EB99C
S315000029906FF002021046F0BD2DE9F84F444F0D4688
S315000029A039680446002041F001019B4639604FEA30
S315000029B092088146AA4602E0B1440AEB860AC1455E
S315000029C017D204EB89063046FFF78FFF010022D1AC
S315000029D0C6F30A00C0F500608608A8EB0900B042FD
S315000029E038BF06465A4631465046FFF797FF010064
S315000029F0E2D021682A68914209D02046FFF775FF88
S31500002A00010004D15A4601212846FFF787FF39689D
S31500002A10490849003960BDE8F28F2549254A0B6807
S31500002A2043F001030B608860012048604869400755
S31500002A3004D508684008400008601EE04869800721
S31500002A4004D5086840084000086019E00220486084
S31500002A5001E022B1521E4869C007FAD422B90868BB
S31500002A6040084000086005E008684008400008602B
S31500002A70002070476FF0020070474FF0FF3070473C
S31500002A806FF001007047002386E70948016841F0AE
S31500002A900101016046F21A31C1644FF48071416050
S31500002AA04169C907FCD40021C164002070470000B9
S31500002AB008000E40809698000C000E404EF6885195
S31500002AC0CEF20001086840F470000860BFF34F8F33
S31500002AD0BFF36F8F4FF00070E1EE100A704738B504
S31500002AE004460D46FFF7F0FE012C02D1FFF7CDFF9D
S31500002AF002E02846FFF791FF18B1FFF7EEFE01202E
S31500002B0032BDFFF7EAFE002032BD10B5C20782B023
S31500002B101BD402884FF6FF739A4201D00A0014D1E3
S31500002B208408A400800722684EBFC2EA0140100C48
S31500002B3041EA00400090FFF7C7FE0422694620469E
S31500002B40FFF7A1FF18B1FFF7C8FE012016BDFFF77A
S31500002B50C4FE002016BD70B504460D46164604E0B8
S31500002B60FFF7BBFE241D2D1DB61EB6B1012E01D0EA
S31500002B70A00706D535F8021B2046FFF7C6FFA41CA2
S31500002B80761E022EF1D3FFF79FFE04222946204629
S31500002B90FFF779FF0028E3D001E0002070BDFFF7C2
S31500002BA09CFE012070BD0000533235464C32303851
S31500002BB04B000000573235583230425600000000B4
S31500002BC05732355138304256000000004D583235E4
S31500002BD04C323030364500004D5832354C343030AA
S31500002BE0364500004D5832354C38303036450000F9
S31500002BF04D58323552383033354600004D5832354F
S31500002C004C313630364500004D5832355531363365
S31500002C10354500004D5832355236343335460000BE
S31500002C204154323544463034314100004154323546
S31500002C305346303431000000415432354446303872
S31500002C40314100004D323550323000004D323550A2
S31500002C50343000004D323550383000004D3235509A
S31500002C6031360000495332354C513032354200007E
S31500002C70495332354C5135313242000049533235D1
S31500002C804C51303130420000495332354C513032CC
S31500002C9030420000495332354C5130343042000046
S31500002CA0C0EA210100F0490200800000C0EA2101CB
S30900002CB0C0EA21014E
S7050000007981
