S0100000656D3236302D7370692E73333701
S3150000000048E5032031BD02007D75020015BD0200E2
S31500000010A70A02020002000004180FAC0062930057
S3150000002000000000000000000000000000000000CA
S315000000300000000024D302000000000000000000C1
S315000000400000000000000000FFFFFFFFFFFFFFFFB2
S31500000050FFFFFFFFFFFFFFFFFFFFFFFFFFFFFFFFAA
S3150000006000700F000000000000000000FFFFFFFF0F
S31500000070FFFFFFFF1C000000000000000000000062
S315000000800000000000000000DCFF0320DCFF03206E
S3150000009048E50320B8DF02006EC00200E8DB03205B
S311000000A0B40F002000001000000000005B
S3150000020048E5032031BD02007D75020015BD0200E0
S315000002101DBD020019BD020021BD02002DBD020058
S315000002202DBD02002DBD02002DBD02002DBD020018
S3150000023025BD02002DBD02002DBD0200CDAE010080
S31500000240D7290200598802004DD801002DBD0200B1
S3150000025061840200A18802005F88020061880200B2
S315000002605B880200E9B20200E7370200ABBD01007D
S31500000270FFCD01002DBD02002DBD020013BB020003
S315000002802DBD02002DBD0200053802002DBD020065
S315000002902DBD02002DBD02002DBD02002DBD0200A8
S315000002A02DBD02002DBD02002DBD02002DBD020098
S315000002B0A38802005D880200D1240200DB880200C8
S315000002C02DBD02003DC002002DBD02002DBD020065
S315000002D02DBD02002DBD02002DBD02002DBD020068
S315000002E02DBD02002DBD02002DBD02002DBD020058
S315000002F02DBD02002DBD02002DBD02002DBD020048
S315000003002DBD02002DBD02002DBD02006F49704AB1
S3150000031001E021B1491E1369DB07FAD401B9B0E047
S31500000320506001201060106910F0060F05D04107DB
S3150000033000D5A9E0800700D5A9E000207047F0B5F8
S3150000034013460022002936D0604C614D8BB98B4292
S3150000035031D250F8046BEE605B1C08262E602646F0
S3150000036001E036B3761E2F69FF07FAD4002EEED1D0
S315000003701FE0EFF3108672B600230EE02F6907F038
S315000003801907102F08BF2F602F693F07F6D550F8C1
S31500000390047BEF605B1C10272F608B42F4D306B9F9
S315000003A062B6264601E026B1761E2869C007FAD451
S315000003B00EB96FF002021046F0BD2DE9F0479A46DD
S315000003C0444B454F1C681B683B688046002043F041
S315000003D001033B60950881460C4602E0B14404EBFC
S315000003E08604A94517D208EB89063046FFF78EFF2B
S315000003F0010014D1C6F30A00C0F500608608A5EB1B
S315000004000900B04238BF0646524631462046FFF73D
S3150000041096FF0100E2D03968490849003960BDE815
S31500000420F0872C49294A0B6809682B490B6843F069
S3150000043001030B608860012048604869400704D5C5
S3150000044008684008400008601EE04869800704D537
S31500000450086840084000086019E00220486001E092
S3150000046022B1521E4869C007FAD422B9086840086A
S315000004704000086005E00868400840000860002069
S3150000048070476FF0020070474FF0FF3070476FF013
S3150000049001007047002390E70F48016841F0010111
S315000004A0016046F21A31C1644FF4807141604169BE
S315000004B0C907FCD44FF4007141604169C907FCD4F7
S315000004C00021C1640020704700000000809698005B
S315000004D00C000E4004300E4008000E4010B50446D5
S315000004E000F0BCFD204601F082FD204602F096FA9F
S315000004F02046BDE8104002F04BBC01F0C0BD10B56F
S31500000500044600F0F8FD204601F0EBFD204602F01F
S31500000510ADFA204602F0A1FC2046BDE8104002F0EC
S3150000052039BC10B500E010B5044600F04DFE20467B
S3150000053001F0FEFE204602F0B5FA204602F0F7FC76
S315000005402046BDE8104002F034BF10B5044600F066
S3150000055068FE204601F01AFF204602F0D2FA09E0B2
S3150000056010B5044600F082FE204601F051FF2046F9
S3150000057002F0E4FA204602F0F2FC204602F031FFD7
S315000005802046BDE8104002F09CBC80B503F08CF913
S31500000590BDE8014002F0CAB910B5044602F0C8FD34
S315000005A02046BDE8104002F0A0BC0198704703F059
S315000005B0EAB970472DE9F04701241028A4B00FF6D8
S315000005C00825DFF87C79DFA3DFA60FF28039E0A1EA
S315000005D00FF280380FF2803A00F0398118281CBFDC
S315000005E01D2820286FD0212800F00C8122286AD0EF
S315000005F0282800F0AF80292800F0D2802A2862D06F
S315000006002B2800F051812D2800F06F812E285AD01A
S31500000610302826D0332800F06D81342800F06D8113
S31500000620352800F0F682362800F09881372800F049
S315000006302382382800F0BD81392800F051823A28FB
S3150000064000F0E381422800F05F824A2800F0BC8077
S315000006504C2800F0E8825A2800F068825B2832D0E5
S315000006605D2800F0DB83632800F0AC82642800F08C
S31500000670B6826A2803D06F2800F01D83712800F027
S31500000680EA82732818BF772800F0D6837A281AD012
S31500000690822800F06582832800F09B83842818BF97
S315000006A0852810D086281CBF872888280BD0892843
S315000006B000F096838A281CBF8B288D2803D09028AB
S315000006C000F00D84952800F09783962800F0998213
S315000006D09A281CBFA128A428F5D0A62800F0688374
S315000006E0A82800F00483A92800F01D83AF2800F095
S315000006F03783B128E7D0B22800F0AC83B92800F0E0
S31500000700C583BA2800F0C783BC2800F0C783BD287C
S3150000071000F0CF83C12800F08180C22800F09480C9
S31500000720C32800F08E80CE2800F02783D42800F05E
S31500000730C783D52800F0C983D62800F0CB83E828E4
S31500000740C1D0ED2800F04183EE28BCD0FE2800F091
S315000007505182E3E301A9684601F0FCFB00F01DFCB1
S315000007603146002003F0F8FA00F007FCBDF80C0053
S3150000077003F02FF99DF80E0003F01FF99DF80F0006
S3150000078003F01BF99DF8100003F017F9BDF81200ED
S3150000079003F01FF99DF8140003F00FF9069804E31F
S315000007A008208DF809000DF10A0103A801F0F8FBF5
S315000007B08DF8080003AB0DF10A00019002AA0DF1B5
S315000007C009000090E2A142E200F0F4FB9DF801006E
S315000007D001A901F0F6FB00F0E6FB00F0CEFB9DF868
S315000007E00C0003F0EAF8BDF80E0003F0F2F89DF8ED
S315000007F0100003F0E2F89DF8110003F0DEF89DF812
S31500000800120088E301AB0DF10102D2A100F0C2FB98
S3150000081001999DF8010001F0D6FB2CE30DF10602CB
S3150000082000F094FB9DF8060001AA02A901F041FB25
S315000008308DF8050002AB01A800900DF10502C6A1D6
S3150000084005E201F038FB66E301F037FB63E30DF1E7
S31500000850150004900DF11E030DF11600039006AA73
S315000008600DF1170002900DF11A00019007A80090F3
S3150000087001200FF24C7103F06FFA9DF81500BDF8D8
S315000008801A30BDF81C20BDF81E1002909DF8160007
S3150000089001909DF8170000909DF8180003F03AFBB0
S315000008A08DF8140005AAE9E203F06EF8054603F098
S315000008B06BF88DF8000003F067F88DF8010003F07F
S315000008C08FF8ADF8020003F05FF88DF804000DF123
S315000008D00501082003F05FF803F056F88DF80D00C7
S315000008E06946284602F062FD15E303F04DF802F072
S315000008F05EFD10E303F037FFBDE20DF1120304AA1B
S3150000090096A100F047FB06A803F0B6F803A80190ED
S3150000091003AB05A800900DF10F02494600F01CFB41
S315000009200DF10D00029006AA05989DF80F30BDF84E
S31500000930121001909DF80C0000909DF8100001F037
S3150000094000FA2FE0760000007575000075757000DE
S315000009506200000075700000750000000DF11202C3
S315000009601946012003F0F8F906A803F085F803A854
S3150000097002900DF10F0305A8019004AA03A800F048
S31500000980E9FA0DF10D00029006A905989DF80F30C1
S315000009909DF8102001909DF80C000090BDF8120003
S315000009A001F0D8F98DF80E000DF10D030DF10E02D0
S315000009B034E107A803F060F804A8039005AB06A885
S315000009C002900DF1150204A801900DF1130000909C
S315000009D001200FF2FC5103F0BFF90DF11100029056
S315000009E006989DF813309DF814209DF81510019077
S315000009F09DF81000009007A801F0B8F98DF81200D4
S31500000A000DF111030DF1120208E10AA803F034F802
S31500000A1006A805900DF11D0309A804900DF11E020C
S31500000A2006A803900DF11B00029007A8019008A8E4
S31500000A30009001200FF2A05103F08EF90DF119007C
S31500000A4004900998BDF820309DF81D209DF81E10D1
S31500000A5003909DF8180002909DF81B0001909DF8E8
S31500000A601C0000900AA801F09CF98DF81A000DF1FF
S31500000A7019030DF11A02D1E00DF1190000900DF1E4
S31500000A801A0307AAB5A100F067FA09A802F0F4FF55
S31500000A9005A802900DF1170308A8019006AA05A85B
S31500000AA000F058FA0DF11500049009AB08989DF86E
S31500000AB01920BDF81A1003909DF8140002909DF8B5
S31500000AC0170001909DF818000090BDF81C0001F079
S31500000AD08DF98DF816000DF115030DF116029DE046
S31500000AE00DF106021946012003F036F903A802F0BB
S31500000AF0C3FF00F034FA029B9DF80420BDF80600FF
S31500000B0003A901F0A8F972E10DF1050000900DF1BD
S31500000B10060302AADBA100F01FFA9DF805209DF846
S31500000B200610BDF8080003F056FF12E100F029FA9E
S31500000B30D5A100F011FA039A9DF80810BDF80A0035
S31500000B4004F0C4F88DF809000DF1090296E100BF22
S31500000B50756276007577000075767500757600000B
S31500000B6008208DF811008DF810000DF10E0002908E
S31500000B7005A801900DF11100009008AB0FF2604539
S31500000B800DF10F0200F0E7F903A802900DF1120033
S31500000B90019006A800909DF80E30BDF814209DF82F
S31500000BA00F0008A901F08BF98DF80D0006AB03A81C
S31500000BB002900DF10D020DF112000190294604A8D4
S31500000BC0009044E000F0F6F99DF8010001A901F05B
S31500000BD09BF900F0E8F901A802F065FFA1E100F039
S31500000BE0E9F901A802F064FF9DF8010001A901F0EE
S31500000BF09EF940E100F0DEF99DF8010004F0D2FF15
S31500000C0039E100F0ACF902999DF8040001F0BEF854
S31500000C10EDE0684605F0F8FC00F0BFF9314600202B
S31500000C2003F09AF87DE186208DF806000DF10502A5
S31500000C3000F08CF99DF8050002A901F0C7F98DF8BE
S31500000C40040002AB0DF10600009001AAB7A1002036
S31500000C5003F082F865E16A4600F078F938786A2888
S31500000C609DF8000001A902D105F0D8FC01E006F0CC
S31500000C7038F88DF801000DF1010200F097F9BDF882
S31500000C80040002F0A6FE9DF8060002F096FE0DF1A5
S31500000C900701102002F0BCFE069802F0AAFE079893
S31500000CA002F0A7FE9DF8200002F087FE0DF121015B
S31500000CB000F064F935E109A802F02AFF00F061F9B5
S31500000CC0494600F049F904A80090039B9DF80820C6
S31500000CD09DF80A1009A801F077FE8DF809000DF1BC
S31500000CE0090200F063F904A802F009FF19E10820DF
S31500000CF08DF80E008DF80D0007AB0DF10D0002907A
S31500000D0004AA05A801908AA10DF10E00009000F03A
S31500000D1023F9BDF8100005AA07A906F0C8F98DF851
S31500000D200C0003AAAAE008208DF8050002AB0DF11D
S31500000D30050000900DF106027EA100F00DF904A950
S31500000D40102002F028FEBDF8060004AA02A906F04B
S31500000D50EEF98DF8040001AA90E000BF76767500E2
S31500000D6000F005F900F015F903A9102002F013FEB2
S31500000D7003A901A801F042FE7DE000F0F8F8022088
S31500000D808DF8000000F005F903A901A801F03EFE68
S31500000D9000F009F903A900F0F1F805A9102002F006
S31500000DA037FE099802F025FE0A9802F022FEB8E006
S31500000DB000F0D5F802999DF8040001F0EDFF8DF8DA
S31500000DC005000DF1050200F0F1F802F000F802F05E
S31500000DD0F4FD02F0D9FD00B1012001F0A4FF9AE074
S31500000DE000F0BDF802999DF8040001F0A5FF8DF80A
S31500000DF005000DF1050241E03A780FF2EC100025EE
S31500000E0000E06D1CEDB2415D9142FAD102F0BCFDED
S31500000E100FF2EC1151F8251088477CE002F0B4FD82
S31500000E20054602F0DDFD0146387830280CBF454AFC
S31500000E30454A2846904774E06946102002F0ABFD0B
S31500000E4038787728684602D106F060FC63E006F041
S31500000E5065F960E001A802F06BFE0DF101030DF1EA
S31500000E60020235A100F096F89DF901209DF80210C6
S31500000E7001A802F051F88DF800006A4600F096F8D5
S31500000E804FE000BF767575007675700002F07CFD48
S31500000E9007F089F93FE007F091F93CE004A96846BC
S31500000EA007F058F9684602F072FE04A802F09DFEAB
S31500000EB037E0684602F081FE684607F053F930E0F5
S31500000EC002F062FD06F064FE2BE002F05DFD06F026
S31500000ED0DEFD26E002F084FD07F0A8F921E00820F7
S31500000EE08DF8120006AB04A803900DF1110205A8B7
S31500000EF0029012A104A801900DF11200009000F0DA
S31500000F002BF89DF8110000B10120059B9DF81020DB
S31500000F1006A901F003FB02F050FD02E007F09AF982
S31500000F200446204624B0BDE8F08700007562000044
S31500000F30766262007662000075730000756270006A
S31500000F40B5FF0320CB350000B3D700005146012082
S31500000F5002F002BF00902946012002F0FDBE01A862
S31500000F60009002AB01AA4146012002F0F5BE08201E
S31500000F708DF801000DF10103704701A9082002F068
S31500000F8047BD02A8019002AB03A800900DF10A022A
S31500000F90704701AA012002F0DFBE8DF801006B4602
S31500000FA00DF1010270478DF800006A465146002097
S31500000FB002F0D2BE0DF101025146012002F0CCBE74
S31500000FC07576767675757500757575700000000016
S31500000FD07575757570000000757576757575700098
S31500000FE07562767500000000181D207A2A848586B1
S31500000FF087888B8A8D959A2E5BB1A4A122E8EE0094
S315000010006DC300008F6D0100A5F4000053100100B0
S31500001010F138000045580100C5580100DB580100B1
S31500001020EF5801000B590100935901007D59010049
S31500001030C1590100CB8D0000FF630000136301005E
S31500001040176301002B6F0000F9A6010007A7010036
S3150000105099500000215A01002F5A010038B5044664
S315000010602078002846D16070012020722070A07878
S31500001070032832D0072834D0112808D0152833D0B9
S31500001080302818D0312819D032281AD030E007205D
S31500001090DFF8405B207204F10900298807F099FC0B
S315000010A0A878E072E8782073287960736879A0736D
S315000010B0A879E07331BD07F0B2FC17E007F0B6FC83
S315000010C014E00420207207F0B3FC04F10901BDE826
S315000010D038400246012007F080BCDFF8FC0A0078A1
S315000010E004E007F063FD01E008F0EDFB607231BD3E
S315000010F00020207031BD38B504462078002862D122
S3150000110001202070A078042814D0072818D00E28B3
S315000011101ED0112852D015283AD017283DD01828AD
S3150000112045D0192846D030282CD0312818D032285E
S315000011301CD046E0207A012814BF362000203EE06D
S31500001140607A10B107F000FD39E007F00FFD36E0D8
S31500001150607A00B1012008F0CDFE00282FD015E0FE
S31500001160607A00B1012008F0C8FE0EE0207A04285B
S315000011700CD104F10901012007F03DFC08F0BFFE87
S31500001180E8B103E0607A07F04CFCC0B1362016E007
S3150000119094F9090008F066FB0EE0657A04F10A008E
S315000011A007F010FC0146284608F061FF04E008F04D
S315000011B059FF01E008F049FF002000E03720607089
S315000011C031BD0020207031BD10B50446DFF80C0A91
S315000011D00079217856280CBF0120002001BBA170A0
S315000011E06178072910D130B108F060FF012814BFDB
S315000011F0632062200EE0E07862280CBF0120002008
S3150000120008F057FFA07009E0042909D1DFF8D019CA
S3150000121010B10878E07001E0E078087001202070D5
S3150000122010BD017809BB8170012101704178012947
S315000012300ED00C2909D017290DD02D2902D034291A
S315000012400CD010E0DFF89C190AE0DFF89C1907E0E3
S31500001250DFF8981904E0DFF8981901E0DFF894192F
S3150000126009788180704700210170704738B50446BF
S31500001270207800285AD1012020700020A0706078C4
S31500001280012815D00C280FD017283DD02D2802D0C4
S31500001290342844D048E0A18803293DDAC9B2DFF8F2
S315000012A0440909F075F838E0A088DFF83C1939E000
S315000012B0DFF84409008828BBA08818B3DFF83C593A
S315000012C0287809F0A1FA09F0ECFD80B1A188DFF8D1
S315000012D01C09C9B209F05CF8A07009F0ECFDDFF852
S315000012E02009DFF820190068401D086001E0382059
S315000012F0A070012009F01DFA28700020DFF80819F7
S31500001300088031BD382008E0A08807F0BEFC18B977
S31500001310A088DFF8DC1805E03620A07031BDA08873
S31500001320DFF8D018087031BD0020207031BD80B5BF
S3150000133001208DF800006846FFF72EF99DF80000A1
S3150000134002BD00002DE9F04FA7B009F0D9FD09F064
S31500001350E7FDDFF8AC880446D8F80000817800275E
S315000013600225FF294FF003092DD1C17806790425FE
S3150000137011F03F004FF0050918BF492723D1080691
S315000013800AD509F00FFE28B109F010FE123C0746F7
S31500001390E4B218E0482716E009F00BFE002818BF53
S315000013A0CB2E0AD0CA2E18BFCC2E06D0CD2E18BFF3
S315000013B0002E02D0AA2E18BF482709F0F3FD0028F8
S315000013C01CBFCC2E4A27D8F80000465D90F801A035
S315000013D0DFF808580AF003018DF808102E7101781D
S315000013E069704844DFF824180860DFF818180860A8
S315000013F04FEA5A1000F00300687109F0A0FE3800A9
S3150000140018BF582604D15FEA0A6002D55826322052
S3150000141083E2A87820B9287910B1582630207CE2DA
S315000014200AF06EF910B95826422076E2FFF77FFFE0
S31500001430002800F074822879A978DFF8D4B7020072
S3150000144094A70FF2542A4FF6FF7972D0012800F0C4
S31500001450F381022800F0AA80032800F0FC8005280A
S3150000146034D0062800F04B81092818BF0A2800F05E
S315000014704E810B2818BF0C2800F050810E2800F072
S315000014806481122800F0A981132800F0DA81172858
S3150000149000F0EB81262800F0DA81272800F0E081B1
S315000014A0472800F0D181492800F03F814E2800F0FE
S315000014B07381522852D0532867D0552800F08E8069
S315000014C0562800F0A280652827D0812800F00C81DC
S315000014D08F2800F0F781912800F00E82942800F002
S315000014E0FD81AA2800F0AD80AB2800F0D780AC289B
S315000014F000F0E980AD2800F0E980AE2800F0E98030
S31500001500CA2800F0BC81CB2800F0C281CC2800F0AC
S31500001510CD81CD2800F0CD81F12800F07A81F52823
S3150000152000F0DA80F62800F0DC80FC2800F0A481C8
S31500001530EEE102F029FA0446062002F03EFA022005
S3150000154002F03BFA4FF4C44002F043FAA8780028B0
S3150000155008BF062C01D10120A870E0E100F010FAC6
S3150000156002F012FA8DF801006846FEF7EEFF9DF8CC
S31500001570000028B937208DF802000020ADF80400DD
S3150000158001AB0DF10202B5A157E0012918BF3820C1
S3150000159023D100F0F5F901AB0DF10102AFA1012055
S315000015A002F0DAFB6846FEF7DBFF25E03827012963
S315000015B012D1611FC9B2052009F0ADFC0446FF2C0B
S315000015C008BF352708D00AF0ADF8002814BF002759
S315000015D03627204609F018F938469EE1042200F025
S315000015E0D0F90DF103030DF101023946012002F095
S315000015F0B3FB6846FEF797FF9DF8000010B9372049
S315000016008DF802009DF8020087E1042200F0B9F986
S3150000161002F0BAF98DF801006846FEF782FF9DF8E0
S31500001620000028B937208DF8020000208DF803004D
S315000016300DF103030DF102023946002002F08CFB86
S315000016406DE100F098F902F09FF98DF80E0003A8FD
S31500001650FEF744FF0BE000F08EF904AB0DF10E022D
S31500001660BEA1012002F078FB03A8FEF746FF9DF815
S315000016700C0028B937208DF80D0000208DF81400D5
S3150000168000F072F90DF10D025146002002F064FBE4
S3150000169045E100BF757500007575620000F06BF9D5
S315000016A000F062F90DF10E025146012002F054FBE2
S315000016B003A8FEF724FF9DF80C0000280CBF372076
S315000016C09DF80D0029E10AF041F928E10AF03FF9F9
S315000016D025E10AF040F922E102F082F90AF03FF929
S315000016E01DE10AF05DF9BDE0062CF9DBDFF8140513
S315000016F0DFF8101500680019401F08600FE101208F
S3150000170000F043F9002840F02581072607E1092863
S315000017100CBF0120002002F00FF900E10C280CBFDD
S315000017200120002000F0DAF9F9E00121684607F00F
S3150000173071FA28B1002002F040F9BDF8000091E0EE
S31500001740362002F03AF900208CE002F01DF98246BC
S3150000175002F046F9814602F017F9074602F014F93D
S315000017600446B9F5004FB4BF042F702011DABAF160
S31500001770020F0FDA0BEBCA0A3A46DAF800004946BE
S315000017800AF030F9AAF8049004B900278AF806701E
S315000017900020C2E07020C0E002F0F6F88146002486
S315000017A00020B9F1020FADF802008DF800000BDA47
S315000017B05BF839006A460DF102010AF023F90BEBDA
S315000017C0C900807900B10124BDF8020002F001F9D8
S315000017D09DF8000002F0F1F87EE002F0D5F8040072
S315000017E018BF012400200AF03FF907463A46FF2AAF
S315000017F008BF182024D0002C14BF48460220B6A1EA
S315000018000AF080F9002002F0D8F8384608F0FCFF0C
S3150000181085E04FF00009DFF8FC4334F8190002F0C8
S31500001820D8F809F10109B9F1280FF6DB28796528FE
S3150000183075D108F00AFC72E002F0A6F80AF0AAFADE
S315000018406BE009F06CFF6AE009F060FF67E0DFF823
S31500001850C813082002F0DCF861E000BF75760000CE
S315000018600AF065FC02F0B5F859E0684602F059F94D
S31500001870684603F035FD50E00AF01BFE4DE000F02F
S315000018806FF802F0BDF8014603A80AF033FE44E003
S3150000189002F07AF8044607A900F063F803AA07A93C
S315000018A020460AF029FE02F088F820E00AF026FE1B
S315000018B033E068460AF024FE02F07FF8009802F052
S315000018C098F82CE00AF02DFE0124484504D002F0D9
S315000018D05BF8D2490024087020461EE000F040F86C
S315000018E007A900F03EF807A903A80AF076FE03A9A7
S315000018F0102002F08DF812E00AF013FE02F069F8EB
S31500001900042002F05AF8182002F057F80F2004E0DD
S31500001910FEF750FE18B95826312002F04EF8D8F8D6
S31500001920001068780870D8F800008178002902BF96
S3150000193029780029867004D0FF218170D8F800002C
S315000019400671072E0CBF012200229DF80800012116
S3150000195000F031F827B0BDE8F08F00007577000081
S3150000196003A9102002F017B805A8019005AB0DF1E8
S315000019701500009070478C22002103A80AF0A1BE32
S315000019800622002168460AF09CBE38B59A4D0446E8
S31500001990288810B109F0CCFA08B9002032BD288891
S315000019A008B909F0B6FA9E4800780122214600F0EF
S315000019B002F8012032BD2DE9F84F914F04463868F0
S315000019C088468178934602254FF00309FF298D4901
S315000019D0096804BF04254FF005090E1A09F0E2FA5A
S315000019E00028B6B21EBF3868405DCC281CBF123630
S315000019F0B6B25FEA0B0004D038684078C0F3411AEB
S31500001A0002E009F098FB8246764909788A4505D3B3
S31500001A1040F229410FF214200AF07CFE4FEA4A10E8
S31500001A2040F08000DD2E5FFA80FA05DBDC2009F04D
S31500001A307BFA4AF0020A02E0F0B209F075FA674949
S31500001A40C87818B100204AF0020AC87075480278B2
S31500001A501AB100224AF0010A0270674E308808B1B6
S31500001A604AF0040A38681BEA080F18BF4AF0080A49
S31500001A7080F801A03868807810B9012008700FE05E
S31500001A8009F090FA00281EBF3868415DCC2904D0C1
S31500001A908021C17009F088FA02E039680020C87018
S31500001AA009F087FA48B13868415DCB2901BF10F8C3
S31500001AB009000028022009F07BFA012C18BF022C2D
S31500001AC002D1308800B10024554804704046BDE874
S31500001AD0F24F09F00CBA0000620000002DE9F04157
S31500001AE098B0044601F050FF0546062D12D1DCB928
S31500001AF0282001F062FF4C480188022322466846EE
S31500001B000AF019FFBDF8000001F063FF641C142CF5
S31500001B10F1DB5BE0082D01D00B2D01D124B952E099
S31500001B20200003D0092D01D170204DE000260FF2D0
S31500001B30101000EBC6073878854230D197F801803F
S31500001B40200004BF404601F038FF7868018843460C
S31500001B50002201A80AF0EFFE200027D001F014FFB2
S31500001B6097F80180404501D002202DE0002000E0DA
S31500001B70401CC1B2414501A905D2C0B2095CFF298A
S31500001B80F6D0462020E0404601F005FF7868008840
S31500001B90424601A90AF0ABFF002001F00EFF761CB9
S31500001BA0F6B20B2EC3D374B1B1200DE0092D05D1C9
S31500001BB0152200210DF14A000AF083FD787801A96B
S31500001BC001F026FF02E0002001F0F7FE18B0BDE8A4
S31500001BD0F0810000DCD70200B1EB0320B1FF032047
S31500001BE0CCEB0320B8EB0320A9FF0320B0EB0320C6
S31500001BF0B7FF0320BAEB03209AFF0320E6EB03208E
S31500001C0030F903200CF60320F6FA032008F6032029
S31500001C10FCEA03203CF9032034F90320E5EB03201A
S31500001C20C5FF032098FF0320BCDA0200636F6D6DC9
S31500001C30616E642D68616E646C6572732E6300005C
S31500001C4001100000B4DA020002100000B6DA020049
S31500001C5003020000B8DA020005100000C6DA02002E
S31500001C6007080000C2DA020000020000B0DA020033
S31500001C7004020000BADA0200095C0000C8DA0200B9
S31500001C800A140000CADA02000D020000C4DA0200DB
S31500001C900C080000B2DA02002DE9F84F80460D4626
S31500001CA0DFF8140C0A99067801247E2991469A4693
S31500001CB0A8BF742043DA080003D00B9808F027FE6B
S31500001CC001E000F0C5F883460C9FBBF1FF0F03D17E
S31500001CD000201824387031E0342E06D0362E0ED06F
S31500001CE0382E13D0962E18D01AE05B464A4629465F
S31500001CF0404602F073FA044602F09DFF10E05B4690
S31500001D0042464946284602F0C9FA08E05B46EAB26E
S31500001D104146484602F03DFB01E00BF0B5FB0446A8
S31500001D20962E1CBF99F80A00387024B9DFF88C0B80
S31500001D30006800F80BA0584608F066FD2046BDE88E
S31500001D40F28F10B584B0089C0294079C0194069CFF
S31500001D50009407E010B584B00446104600F00FF872
S31500001D600A462146FFF798FF04B010BD10B5044699
S31500001D7084B00846114600F002F82246F2E7089AB7
S31500001D800292079A0192069A00927047E0B50022E5
S31500001D90019100900292002300210020FFF77CFFB2
S31500001DA00EBD2DE9F04683B00D460C990746080096
S31500001DB091469A4603D00D9808F0A9FD01E000F07F
S31500001DC047F804460E9EFF2C03D1002018253070DC
S31500001DD00BE00A980190CDF800A023464A46294612
S31500001DE0384602F0BBFA00F027F822E02DE9F0466B
S31500001DF083B089460C990546080092461F4603D0D3
S31500001E000D9808F084FD01E000F022F804460E9ECD
S31500001E10FF2C03D10020182530700AE00A980090A4
S31500001E2001943B4652464946284602F059FA00F0CC
S31500001E3003F82846BDE8FE860500B87A307004D15E
S31500001E40DFF8781A09680B980855204608F0DCBCBC
S31500001E50002008F03BBD38B5DFF8644A2080C8880A
S31500001E60440606D5DFF85C4A2478202C03D100040A
S31500001E7001D4702032BDDFF8504A1000216004D032
S31500001E801146184608F043FD01E0FFF7E1FF05465D
S31500001E90FF2D08BF18240AD020684088294602F082
S31500001EA069FC044602F0C7FE284608F0ADFC204651
S31500001EB032BD02F040BE0BF025BC0BF01FBC2DE975
S31500001EC0F041069F0D4604461646984639460BF0E5
S31500001ED09CFC20460BF0B1FC0799088038460BF0B5
S31500001EE0BBFD08990870294620460BF024FC0746DE
S31500001EF038B9314620460BF05CFC414628460BF0CB
S31500001F00C9FD3846BDE8F081DFF8C0391B78984234
S31500001F1001D370207047DFF8B829126832F82030F4
S31500001F200B8002EB80008078887000207047DFF815
S31500001F309C391B78984201D370207047DFF89029AE
S31500001F4012680B8822F8203002EB800089788170B5
S31500001F500020704730B585B00C4604F072FA05468D
S31500001F6000202073102307226946012006F073FD26
S31500001F70082202A920460AF061FBBDF80000208174
S31500001F8004F114019DF80200A0729DF80300E072AE
S31500001F9004F110000BF0D7FDE08105B0284630BDF6
S31500001FA038B504460D460AF0A1F901460822204636
S31500001FB00AF044FB0AF096F92880DFF81809007841
S31500001FC032BD0CF084B9FF2203F008BA70B5A2B096
S31500001FD00D460446694604F01DFB060004D12A4658
S31500001FE06946204601F09DFE304622B070BD10B510
S31500001FF004462078002841D1012020722070A07864
S31500002000401E0BD0401E07D0801F07D0401F05D0B2
S31500002010401F022802D903E00220207200206070CF
S31500002020A07801280CD0022814D008280CD00D283E
S315000020300DD0122817D0132817D0142818D01BE05B
S31500002040DFF89408007815E002F013FF12E00CF0B8
S31500002050CCFE0FE0DFF88408018804F10900BDE832
S31500002060104006F0B6BCFF2004E003F0B1F901E031
S315000020700DF044F8607210BD0020207010BD10B540
S31500002080044682B0207858BB012020700020607082
S31500002090A07818B1022819D00BD31FE061686A46F0
S315000020A0C9B209F0A5FB60700220207204F1090094
S315000020B007E00320207268460DF0EBF9607204F128
S315000020C00A00BDF8001006F084FC13BD0120207242
S315000020D0606880B202F03FFD607213BD0020207080
S315000020E013BDF0B5044687B02078002840F01A8169
S315000020F001202070A078010027D0012849D00228AD
S315000021004ED0052818BF062852D0082800F0FB80BC
S3150000211009285BD00A2800F07E800B2800F080801A
S315000021200C2800F0C4800F2800F0C580232818BFB3
S31500002130242800F0CD80252800F0DB80292800F037
S31500002140E480342800F0E380EAE0207A102860D1A9
S3150000215000F0EAF8ADF80400082294F90B008DF8B7
S31500002160060004F11001207B8DF80700607B8DF8D6
S315000021700800A07B8DF80900E07BADF80A0003A8F3
S315000021800AF05CFA1023072201A9002006F063FC7E
S31500002190C3E0207A01283CD1607ADFF83C17BBE027
S315000021A0207A022835D100F0BFF8DFF830170BE0AF
S315000021B0207A02282DD100F0B7F8A17805290CBFA6
S315000021C0DFF81C17DFF81C170880A6E0DFF81807F1
S315000021D00568207A46080DB9DEB99EE0DFF80C07DF
S315000021E00078B04215DB002707E004EB4700093012
S315000021F006F0E8FB25F817007F1CB742F5DB4FF425
S31500002200004725F8167028460DF083FB002801D0FC
S315000022102F80362082E000F087F80DF060FD7CE02C
S3150000222000F082F8DFF8C8261268527B05464FF6A2
S31500002230F87122B9884202DA09F07DFF6DE02A00C2
S315000022402FD088422DDA09F072FF854229D0284620
S315000022500EF016FC28BB05A928460BF097FB00BB21
S3150000226028460FF084F9E0B928460FF0A5FAC0B960
S3150000227028460FF0B4FCA0B928460CF06BF880B9DC
S31500002280284610F087FA60B9284609F054FF9923CA
S315000022901322A1A1032010F0E7FA992010F020FCE8
S315000022A03BE009F044FF854237D0382036E0607ABB
S315000022B0DFF8401630E0657A04F10A0006F082FB8A
S315000022C0ADF800006A462946012009F091FA25E09A
S315000022D0217A042912D123280CBF0325012504F1F4
S315000022E00901012006F087FB0146284610F08CFC08
S315000022F014E0607A032818BF042801D002200DE0FC
S3150000230003F072FF09E0372008E0702006E0607AEB
S3150000231000B10120DFF8E01508700020607001E0D0
S315000023200020207007B0F0BD04F1090006F04ABB9A
S3150000233010B50446DFF880050078217856280CBFD2
S315000023400120002009BBA170DFF8782561780329F8
S3150000235005D108B150780FE0E078507013E00229FB
S3150000236005D108B1107807E0E07810700BE0092974
S315000023700BD118B104F00CF9E07004E0E07800B17C
S31500002380012004F0F4F80120207010BD017801B19D
S31500002390704730B58170012101704178052908D058
S315000023A0122915D018290CD01F2914D0382915D078
S315000023B018E0DFF84815DFF8482509781278891AF9
S315000023C024E0DFF840150A78511E8941C90F1DE047
S315000023D0DFF8341504E0DFF8341501E0DFF83015D6
S315000023E0098813E000220FF2645300E0521CD2B2B7
S315000023F014461D5DFF2D02D10021017030BD8D42B6
S31500002400F4D10FF2645151F824100978818030BD5F
S3150000241070B50446207800287BD10120207000206A
S315000024206278A070052A0AD0122A2CD0182A1FD04A
S31500002430192A04D01F2A22D0382A2FD033E0DFF8F9
S31500002440C0040578DFF8B40401784E1BA188052A7C
S315000024500CBF0E460D46A919C9B207F099FF002810
S31500002460A07056D1E9B2F0B2BDE8704010F034BEAB
S31500002470A188481E8041C00FDFF888143FE0A0887D
S31500002480DFF888140DE0A18847F231508142A8BFD9
S3150000249036203BDADFF87004018070BDA088DFF8D3
S315000024A07014088070BD0FF2A44100E0401CC0B259
S315000024B00346CD5CFF2D02D10020207070BD9542F1
S315000024C0F4D1A188022B08DADFF8480450F823007B
S315000024D00078884238BF362018D30FF28C4050F867
S315000024E02300092B0DDAC9B207F052FFA0700028AD
S315000024F004BF607811280CD1A088DFF81C1408707E
S3150000250070BD342A04D1C9B207F042FFA07070BD75
S31500002510017070BD0000000042420000F8B504469C
S315000025200D461146184608F0F2F918260746FF2F01
S3150000253008D03A462946204611F040F90646384664
S3150000254008F062F93046F2BD38B504460D462188DA
S31500002550284606F03EFA6188A81C06F03AFA207969
S31500002560287160796871A81DE18806F032FA218920
S3150000257005F1080006F02DFAA07AA87231BD10B553
S3150000258086B004461B208DF80000A0788DF8010067
S315000025900DF10200218806F01CFA0822211D01A86F
S315000025A00AF04CF8E1788DF80C10217B8DF80D10AF
S315000025B0607B8DF80E000DF10F0000F0BEF91121C1
S315000025C000F01FF906B010BD80B51C228DF8010081
S315000025D08DF802108DF80020D9E02DE9F04788B07B
S315000025E007460D46144611F061F9824622462946F1
S315000025F0384609F089F8002863D10DF1090011F079
S315000026005DF930B962208DF80800092102A810F0A2
S3150000261082F9FF2C0FBF0026C04909680E5D4520D0
S315000026208DF808008DF809700DF10A012846FFF7AC
S315000026308BFF0DF1150000F080F951460DF11700E2
S3150000264006F0C7F902F0BBF88DF819000027B44868
S31500002650DFF8AC820568DFF8A49201E07F1C0C3538
S3150000266099F8000098F80010FFB2401A87420ADA7B
S3150000267028885045F2D108F086FDA97AC1F34201B7
S315000026808142EBD100E0FF278DF81A708DF81B60B0
S31500002690504602F060FA8DF8040000B10120009067
S315000026A001AB2246142102A810F03DF900281EBFF6
S315000026B084480078212804D19A48017841F0040121
S315000026C0017008B0BDE8F0872DE9F043074693484E
S315000026D000681D4687B0465D0E9C88469146214699
S315000026E0384601F0F6FB3F208DF804008DF80570A2
S315000026F041460DF1060006F06CF902A94846FFF7BF
S3150000270023FF6E480068405D8DF813008DF8144075
S3150000271085480078402804BF0026FF250020009049
S315000027208DF8156000232A46122101A810F0FBF847
S3150000273007B0BDE8F08330B589B00D46044604A95C
S315000027400BF0C5FD23208DF800008DF801408DF8B3
S3150000275002500DF10300BDF81A1006F03AF90822EE
S3150000276004A90DF1050009F069FF9DF818008DF820
S315000027700D000E2100F045F809B030BD80B57C2172
S315000027808DF8001001460DF1010006F022F9032133
S31500002790684610F0C0F801BD70B586B004467D20CD
S315000027A08DF800000D46164621460DF1010006F093
S315000027B010F9082229460DF1030009F03FFF8DF8B4
S315000027C00B600C2100F01DF803A811F077F818B97A
S315000027D003A9204610F086FC06B070BD38B5044645
S315000027E00D4601F055FB80208DF800008DF8014064
S315000027F029460DF1020006F0ECF8042100F001F87C
S3150000280031BD684610F087B810B584B0044646203E
S315000028108DF8040001A821784170617881700DF16E
S31500002820070000F08AF83D48A1780068405C8DF802
S3150000283009000023002000900621A27801A810F0CC
S3150000284072F81FBD80B598208DF800008DF8011034
S31500002850684602219DE71FB50C4692218DF80410AB
S31500002860082201460DF1050009F0E8FE0DF10D0004
S3150000287000F063F829480068005D8DF80F0000231A
S315000028800020009022460C21D8E7244A00B51268A1
S3150000289083B0125C8DF8051093238DF80620002175
S315000028A08DF80430009102460023032101A810F0A0
S315000028B03AF807BD00000000B5FF0320D8FA032050
S315000028C096FB0320D2EB032098FB0320B6EB0320F4
S315000028D07CE80320C8FF0320CFFF0320AAEB0320D8
S315000028E0A2EB0320A4EB0320BCFB0320D4FA0320B5
S315000028F0C0FA032090FF0320EEEB0320BEEB03207B
S315000029003DFF0320B2EB032090EB03208CEB03206A
S315000029109CEB03208CEA0320C3EB03204CE8032046
S31500002920B0E8032094FB0320CCEB032080B50AF02B
S31500002930F5FEBDE8014010F0DBBF10B5044610F00F
S31500002940AEFF601CBDE8104010F0ABBF11020306DD
S3150000295007081A2B2C1910131B1C1D2021222A2EA6
S3150000296033343537FF000000B3EB0320B9EB032007
S31500002970BFEB0320B6EB0320B4EB0320B5EB03203B
S31500002980A2FF0320B7EB0320D4FA03203DFF032068
S31500002990C4EB0320C5EB0320C6EB0320C0EB0320EA
S315000029A0A4FF0320EDEA0320C7EB0320C8EB0320B6
S315000029B0A8FF0320ABFF0320EFEB0320BAEB0320B5
S315000029C0E3FA0320ECEB032038B504460029104651
S315000029D001461A46204602D012F0ACFB01E012F086
S315000029E07AFB0546002C1EBF04980028A04203D09F
S315000029F02146142212F00AFC284632BD0246022065
S31500002A0000291CBF104612F02DBC7047024602205A
S31500002A1000291CBF104612F0B8BC70471CB504460E
S31500002A200020ADF800002078F8B902202072A078C6
S31500002A300A280AD0102810D101A812F08EFE607064
S31500002A40BDF80400ADF8000004E0002060706846A0
S31500002A500DF05EF90120207001E0207828B1BDF864
S31500002A60001004F1090005F0B4FF13BD38B50446A3
S31500002A702078002804BFA078102812D104F109019B
S31500002A80012005F0B8FF054604F10D0005F09AFF98
S31500002A90ADF800006946284612F034FE6070012049
S31500002AA0207031BD76490978027856290CBF01217C
S31500002AB000212ABB8270012202704278130006D1DF
S31500002AC0704A09B1117811E0C07810707047052A74
S31500002AD005D16D4A61B1117841F0500106E0062A30
S31500002AE00CD16A4A21B1117841F06001C17070477A
S31500002AF0C17801F00F01C17011707047002101709B
S31500002B00704710B504462078B8B900F045F806D0ED
S31500002B101E2807D0242807D0362808D00BE009F055
S31500002B20E9FB06E05A4800E05A48007801E05A48B6
S31500002B300088A08010BD0020207010BD10B504468E
S31500002B40207840BB00F028F806D01E280AD024289A
S31500002B5012D0362819D01CE0A088BDE81040C0B2BB
S31500002B6009F0CCBB4D48A188007888420AD3C9B287
S31500002B70474807F00DFC06E0A1880B2902DA454814
S31500002B80017010BD3620A07010BDA0884249088093
S31500002B9010BD0020207010BD012020700020A07004
S31500002BA060780D28704700002DE9F04F1646012E7B
S31500002BB089B0804689469A4612D10124002506A886
S31500002BC00DF0B0F8022755EA0401DFF8B8B005D0D9
S31500002BD058B9BDF81800800707D535B1032715E0A9
S31500002BE00024032EEAD10125E9E79BF80000052819
S31500002BF00AD8DFE800F0030605090841012705E0C9
S31500002C0085B1002702E02746022F0BD009F08FFA84
S31500002C10824507D0514640460AF047FD49464046A0
S31500002C2010F060FA019753469BF800000090324678
S31500002C3049464046FDF7B9FC044624208DF80800B5
S31500002C4041460DF1090005F0C4FE082249460DF182
S31500002C500B0009F0F3FC8DF813608DF81440514613
S31500002C600DF1150005F0B5FE0F2102A80FF053FE79
S31500002C70204609B0BDE8F08F002DC2D0AEE70000B7
S31500002C80B5FF0320CFEB0320A6FF0320C1EB0320F3
S31500002C90A5FF0320AAFF03208EEB0320D2DA020051
S31500002CA080B56E218DF800108DF80100022168466E
S31500002CB00FF031FE01BD10B584B00C469B218DF896
S31500002CC00010082201460DF1010009F0B7FC8DF84D
S31500002CD009400A2168460FF01EFE1FBDF0B583B0FD
S31500002CE010F8014B0E461746214607F010FE054622
S31500002CF0FF2D03D10E4901200870F7BD8E208DF8F7
S31500002D0004008DF80560002000908DF806708DF89F
S31500002D10074000232A46042101A80FF004FE284696
S31500002D2007F072FDF7BD00B1024812F057BD000072
S31500002D3098FF0320DD2C000000B58028A1B0A8BFB5
S31500002D4002200ADA8DF8000002460DF1010009F0B2
S31500002D5075FC0021684612F0E5FD21B000BD10B5F6
S31500002D6004462078002804BFA07833280FD101201C
S31500002D70207009B1002004E0607A12F023FE00B151
S31500002D80362060700120207212F02CFE607210BD99
S31500002D900121E4E70021E2E730B58BB004460D4699
S31500002DA02A22FF21684609F08CFC2146284607F0B6
S31500002DB0AEFD0446FF2C08BF182505D012F028FEEC
S31500002DC00546204607F020FD28460BB030BD10B55D
S31500002DD04E4C2178FF29A8B008BF702020D00020D3
S31500002DE000904A2300220AA807F0ADFD00200090BB
S31500002DF0252321784A221DA807F0A5FD0020009072
S31500002E00242321786F2201A807F09DFD207807F082
S31500002E10FBFCFF20207001AA0AA91DA812F005FEDE
S31500002E2028B010BDF8B5394F04463878FF280D464E
S31500002E30164608D19321002007F069FDFF28387057
S31500002E4001D13520F2BD01200090334639782A465B
S31500002E50204607F078FD0020F2BD10B50446A6B066
S31500002E60207860BB01202070A0781A2804D024D3D3
S31500002E701C2815D00AD320E04A2204F1090113A820
S31500002E8009F0DCFB4A22002113A812E0252204F1F6
S31500002E90090109A809F0D2FB25224A2109A808E060
S31500002EA0242204F10901684609F0C8FB24226F2197
S31500002EB06846FFF7B7FF607001E00020207026B07B
S31500002EC010BD0178002904BF417829290CD1104989
S31500002ED00978522904D10F4909788180002100E040
S31500002EE03821817001210170704710B5074C207898
S31500002EF0FF281FBF06490978AB29ED2903D007F043
S31500002F0083FCFF20207010BD00000000D1EB0320E1
S31500002F10B5FF0320A7FF032011B1012903D004E068
S31500002F20114604F080BC04F0D1BC0220704710B5F5
S31500002F3004462078002804BF607808280ED114487B
S31500002F400078562803D105F049F9E07002E0E078F0
S31500002F5005F047F90020A0700120207010BD01780F
S31500002F60A1B941782F2908BF0A4902D030290DD1CD
S31500002F70094959B1064A1278522A07BF0978818051
S31500002F8082880A700021817001210170704700005B
S31500002F90B5FF0320CAEB0320CBEB032030B58FB07F
S31500002FA005460C463B220021684609F08AFBB620FE
S31500002FB08DF800000DF10101284600F076F8DCB12D
S31500002FC000218DF82910082221460DF12A0009F06A
S31500002FD035FB0DF12905207A68720DF13300618900
S31500002FE005F0F7FCA1890DF1350005F0F2FCA07B98
S31500002FF0A873E07BE87302E001218DF829100DF13A
S315000030003900FFF79AFC3B2100F00CF80FB030BDF9
S3150000301080B5B7218DF800108DF80100022100F06F
S3150000302001F801BD68460FF076BC10B586B00446BF
S31500003030B8208DF800000DF10100218805F0C9FCCB
S3150000304061880DF1030005F0C4FCA1880DF10500AF
S3150000305005F0BFFCE1880DF1070005F0BAFC2189F7
S315000030600DF1090005F0B5FC61890DF10B0005F0C5
S31500003070B0FCA1890DF10D0005F0ABFC0DF10F00C0
S31500003080FFF75BFC1121FFF7CDFF06B010BD00B5C1
S315000030908BB0BB218DF800100DF1010100F005F891
S315000030A02921FFF7BFFF0BB000BD38B504460D461A
S315000030B0A0782870681C218805F08BFC0822211D49
S315000030C0E81C09F0BBFAE078E87205F10E01207BF6
S315000030D02873607B68730120226905F07EFC6269B3
S315000030E005F11201012005F078FC218B05F116008F
S315000030F005F06FFC082204F11C0105F1180009F027
S315000031009DFAA18C05F1200005F063FCE18C05F128
S31500003110220005F05EFC04F1280105F124000A787E
S3150000312002704A7842708A788270C978C17031BD5F
S31500003130F8B5BB4D0446286800792B38022801D91A
S315000031400D382ED100F020FC06462868B549401DF2
S315000031500860002131200FF0A6FC05464FF6FF77E8
S315000031600BE005F10D0080B20FF0CAFBB04213D0A0
S31500003170294631200FF097FC0546BD42F1D10021CA
S3150000318000E0294632200FF08EFC0546BD4208D0ED
S315000031900FF0B6FBB042F4D1A42000F00EFC0020E4
S315000031A02070F1BD38B50446002100E029463F20D5
S315000031B00FF079FC05464FF6FF7085420CD0284685
S315000031C00FF09EFB0228F1D1681C80B20FF098FB2D
S315000031D0A042EBD1012032BD002032BD2DE9F843DB
S315000031E08046002145200FF05EFC4FF000090446A2
S315000031F08D4D4FF6FF7609E0FF21B8B20FF085FB43
S31500003200A1B245200FF04FFCA1460446B44224D09B
S3150000321004F11007B8B20FF073FB4045F0D1204619
S315000032200FF06EFB022818BF0328E5D1A41FA0B239
S315000032300FF066FB01462888401A32187B482A8020
S315000032400919121B92B2007800924B1C9BB20246DF
S31500003250A1B207F070FD4C46D2E7BDE8F183F0B5A8
S31500003260734F3D788BB0064607F08DFF07F067FF7A
S3150000327000F07BF806D012282FD17188707808F0FC
S31500003280FAFA50B3707804A908F094FA88B1BDF838
S31500003290100040F20911884204BF7088B0F5006F33
S315000032A007D1701D12F0CCFBB52802D0A8B90024B6
S315000032B013E00124002500E06D1C3978E8B288424D
S315000032C00BD206A900F099F99DF818000028F3D151
S315000032D03146E8B200F09CF9044631208DF8000032
S315000032E030788DF8010070788DF802000DF103003A
S315000032F0718805F06EFB30798DF805000822711D86
S315000033000DF1060009F09AF98DF80E508DF80F4070
S31500003310102168460FF0FFFA20460BB0F0BD38B515
S31500003320054607F030FF07F00AFF00F01EF818BF49
S3150000333012280DD12846FFF735FF08B1752407E09E
S31500003340284600F0B0F9040004BF2846FFF746FF00
S3150000335032208DF800008DF801508DF802400321CF
S3150000336068460FF0D8FA204632BD324800786C2401
S315000033701128704738B504460D46FFF713FF08B10C
S31500003380752511E03DB107F0D6FE68732946204643
S3150000339000F03EF902E0204600F085F905462800D7
S315000033A004BF2046FFF71AFF284632BDE2E7002198
S315000033B0E0E721490978027856290CBF012100214E
S315000033C0002A04BF4278012A0AD11A4A002919BFE5
S315000033D01178C170C17811700021817001210170CE
S315000033E0704710B504462078002804BF607804288A
S315000033F014D111490E480978522903D10078A080CA
S31500003400002008E00D4AA18812788A4232BF362091
S31500003410C9B206F0BDFFA0700120207010BD0000EB
S3150000342030F9032008F603209AFF0320E6EB032079
S31500003430A3FF0320D0EB0320B5FF0320D0DA020060
S315000034401FB50C4602460D231521684609F073FA8E
S315000034500D226946204609F0F1F82078400960738C
S31500003460207800F01F0020701FBD30B585B00446DF
S315000034700D460D22684609F0E1F89DF80000697BCB
S3150000348040EA41108DF800000D236A4621461520BA
S3150000349009F094FA05B030BD2DE9FF41044600F06D
S315000034A05FF814E03068EDB2A84630F81800A04284
S315000034B00CD16946284600F0A0F89DF800000228C5
S315000034C004D031684FF6FD7021F818006D1CE8B283
S315000034D039788842E6D3BDE8FF812DE9F045884674
S315000034E04FF6FF7AD04585B0044605D100F0D8F9ED
S315000034F010B908F01CFE30E000F032F80CE0D045C0
S3150000350008D0306830F81510414504BF4FF6FD71FC
S3150000351020F815106D1CEDB2387885421CDA30683B
S3150000352030F8150000F018F9F4DA69462846FFF776
S3150000353087FF082221460DF1050009F0C9F8002889
S31500003540DDD13068D04502D130F8150005E020F80D
S31500003550158012F0B0FADDE7504605B0BDE8F085FB
S315000035600025DFF8C463DFF8C47370472DE9FF4711
S31500003570804689460026DFF8B873DFF8AC43DFF8EB
S31500003580AC5316E02068F6B2B24630F81A0000F0E6
S31500003590E3F80DDA69463046FFF752FF0822414646
S315000035A00DF1050009F094F810B9386800F80A9092
S315000035B0761CF0B229788842E4D3BDE8FF87DFF8AD
S315000035C06813096831F8100070471FB5DFF85C23EF
S315000035D0127890420C460FD2D349096831F8101080
S315000035E04FF6FE72914207DA694600F006F8214668
S315000035F00DF10500FFF771FF1FBD80B5CB4B1B78A2
S31500003600984201D3692002BDFFF71AFF002002BDD0
S3150000361070B504460D4623460022B4A103200FF0E0
S3150000362023F928780028204602D1BDE870403AE008
S31500003630BE490978884201D3692070BD12F069FE3F
S3150000364008B1752070BD07F055FD6873681D0AF056
S3150000365003FA06464FF6FF71681DFFF73EFF024666
S3150000366029783346204600F006F829462046FFF71B
S31500003670FCFE002070BD30B54FF6FF740D0008BF8C
S31500003680224608D0032908BF4FF6FE7203D0A24295
S3150000369008BF4FF6FD72A449096821F81020A44915
S315000036A009680B5430BD30B505462C4685B0234617
S315000036B001228EA103200FF0D7F89C4909782846ED
S315000036C0884228BF692019D212F023FE08B175205E
S315000036D014E069462846FFF7B3FE9DF8000030B1B6
S315000036E000208DF8000069462846FFF7BEFE8E4989
S315000036F009684FF6FF7021F81400002005B030BDB0
S31500003700F0B585B007460C46874D884E00E07F1C15
S315000037103178F8B288421CD22868FFB230F8170018
S3150000372000F01AF8F3D169463846FFF789FE9DF88E
S315000037300500E1B2884204BF9DF80610B1EB142FD4
S31500003740E5D107F0D7FC9DF80D108142DFD1384650
S3150000375000E0FF2005B0F0BD4FF6FE7188427047CD
S315000037602DE9F14F84B00D460E9C6F4FDFF8BCA1DA
S3150000377090469946002607E03868BDF8101030F8E4
S315000037801B0088422CD0761C9AF80010F0B28842B2
S3150000379028D23868F6B2B34630F81B00FFF7DCFFD4
S315000037A0F1DA69463046FFF74BFE5FEA080007D1BB
S315000037B09DF80100484504BF9DF80400A042E2D1EF
S315000037C007F098FC9DF80D108142DCD1002DD3D076
S315000037D008220DF10501284608F07AFF0028D2D10B
S315000037E0304600E0FF2005B0BDE8F08F10B5144666
S315000037F0FFF726FE2046BDE8104008224D4908F096
S315000038001DBF2DE9FF470446084615461E4600F033
S3150000381047F808B1002040E00027DFF80C81DFF808
S315000038200C9100E07F1C99F80010F8B2884223D270
S31500003830D8F80000FFB2BA4630F81A004FF6FF710A
S315000038408842EFD069463846FFF7FAFD0C220DF1A3
S315000038500101601C08F03CFF0028E3D1BAF1FF0F1C
S315000038600CD10020307007F064FC307855B138B9BF
S315000038702046FFF7F4FC09E0FF27F2E70120F1E715
S31500003880012006E028B13846FFF749FD401E804179
S31500003890C00F307007F00AFC012004B0BDE8F087C5
S315000038A00822244908F014BF30B585B000241F4D06
S315000038B016E06946FFF7C4FD9DF80000042806DB04
S315000038C000208DF800006946E0B2FFF7CEFD9DF8B6
S315000038D0001000234FF6FF72E0B2FFF7CCFE641C27
S315000038E02978E0B28842E4D305B030BD42420000F8
S315000038F030B585B002220BA103200EF0B5FF0020E3
S315000039008DF800000024094D03E06946FFF7ADFD80
S31500003910641C2978E0B28842F7D3FFF7C5FF002080
S3150000392005B030BD42000000A4E80320A3FF032039
S31500003930A8E8032034F9032030B583B0044600F02C
S3150000394023F80546202D1ADA5CB16946082000F0F6
S3150000395022F808236A462946202009F02FF800207D
S315000039600EE008232A462021684608F0E4FF0020DE
S3150000397000F023F86946082000F04AF837BD7020A9
S3150000398000F01BF837BD70472A480168491C0160E2
S3150000399011F8010D704738B50446264D08462968CA
S315000039A0224608F04BFE28682044286031BD214A93
S315000039B0116808441060084670471F491F4B0A6883
S315000039C01B68D31ADC2BB8BF10700868401C08604F
S315000039D0704710B50446C0B2FFF7EFFF200A48E073
S315000039E010B5FFF7D1FF00F042F904EB002080B2DA
S315000039F010BD10B5044680B2FFF7EBFF200CB7E010
S31500003A0010B5FFF7EDFF00F05EF804EB004010BDC7
S31500003A1038B5094C094A2368126805469A1AAA1845
S31500003A20DD2A03DA0246184608F008FE2068284414
S31500003A30206031BD08F603200CF6032030F9032080
S31500003A4010B500F042F8FFF7CBFF2081FFF79CFF8F
S31500003A50A072FFF799FFE072FFF796FF2073FFF75A
S31500003A60BFFFE081FFF790FF2074FFF7C9FF606199
S31500003A7010BDBDE81040A0E710B500F024F8208086
S31500003A80FFF7AEFF6080FFF77FFF2071FFF77CFF37
S31500003A906071FFF7A5FFE080FFF7A2FF2081FFF727
S31500003AA073FFA07210BD10B500F00AF8A078E0E729
S31500003AB010B500F008F82080FFF766FFA07010BD73
S31500003AC00446208885E704468AE7044621460820FE
S31500003AD061E710B500F0CBF8A070FFF781FF2080FA
S31500003AE0211D00F0C2F8FFF74FFF00B10120E07082
S31500003AF0FFF74AFF2073FFF747FF607310BD10B54D
S31500003B000446214600F07FF82069BDE8104070E7C2
S31500003B1010B50446214600F078F8FFF771FF2061E2
S31500003B2010BD10B5FFF7CFFF208010BD207944E708
S31500003B3010B50446FFF7CDFF04F1100000F01BF8A6
S31500003B4004F11C0100F091F8FFF74AFF24F8240F56
S31500003B50FFF746FF6080FFF717FF2071FFF714FF9E
S31500003B606071FFF711FFA071FFF70EFFE07110BD46
S31500003B70BDE810402DE710B50446FFF741FF206071
S31500003B80FFF73EFF6060FFF72BFF208110BD10B5E9
S31500003B9000F010F800F08CF8E088FFF71AFF208993
S31500003BA0FFF717FF6089FFF714FFA089FFF711FFE2
S31500003BB0A07B5EE7044620681BE710B50446FFF7C6
S31500003BC01FFF2060FFF70CFFA080FFF709FFE080D2
S31500003BD0FFF706FF2081FFF703FF6081FFF700FF75
S31500003BE0A081FFF7D1FEA07310BD10B5FFF7E2FF6D
S31500003BF0FFF79CFF611D00F006F804F11501BDE812
S31500003C001040102004E7102002E71020C3E610B58C
S31500003C100446207AFFF7D1FE207A010006D12068FB
S31500003C20FFF7E7FE2068FFF7E4FE04E0022802D172
S31500003C30214600F002F8607A1BE70820E8E610B596
S31500003C4000F015F80100207206D1FFF7D9FE2060BA
S31500003C50FFF7D6FE206004E0022802D1214600F0DC
S31500003C6004F8FFF791FE607210BD082093E6044643
S31500003C708AE638B5044602252078FFF79EFE2078AE
S31500003C80401E012806D96089FFF7A3FEA11CFFF795
S31500003C90D4FF09E000F00CF800F00CF800F008F88A
S31500003CA000F008F800F004F80C346D1EE4D131BDC4
S31500003CB0A0888EE660888CE610B504462078FFF76B
S31500003CC07CFE6068FFF795FE04F10800FFF79FFF92
S31500003CD0A08AFFF77EFEA07DFFF76FFEA069FFF7C3
S31500003CE088FE04F11C01FFF78EFF04F12C00FFF79C
S31500003CF0C0FF14F8440FFFF760FE6078B9E610B510
S31500003D00FFF7DEFEFFF7D6FFA08831E710B5FFF715
S31500003D10DAFE2080FFF764FE6080FFF761FEA08078
S31500003D2010BD30B502F8010B002312E031F8234034
S31500003D3002F8014B31F82340240A02F8014B01EB4B
S31500003D4083045B1C658802F8015B6488240A02F818
S31500003D50014B8342EADB30BD0CB4F8B505460C4690
S31500003D6006AE08E056F8040B290003D00078FFF7EA
S31500003D701EFE3860641C2078010037D056F8047B9C
S31500003D80622827D07028EDD0732818BF752804D074
S31500003D9076280CD0772814D0ECE7280003D0FFF75C
S31500003DA0F3FD3870E6E73878FFF707FEE2E728000C
S31500003DB003D0FFF715FE3880DCE73888FFF709FEE9
S31500003DC0D8E7280002D0FFF71BFED2E73868FFF7D6
S31500003DD010FECFE756F8040B00782900394602D0CA
S31500003DE0FFF7D9FDC6E7FFF713FEC3E7F1BC5DF8A1
S31500003DF00CFB000070B55D4D6E8A044605F10800A7
S31500003E0012F0F9FA012C08BFAE8A02D0022C08BFC4
S31500003E10022618B1FA217143884206D3310205F110
S31500003E200800BDE8704012F0D9BA70BD7CB54F4CA1
S31500003E300020E07020714FF6F972208A90421CBF74
S31500003E404FF6F872904202D00020207273BD61795D
S31500003E50474E4FF6FD7589B14FF6FC700190002371
S31500003E60002000900022308800210AF0A6FD0020E4
S31500003E70607135800120BDE87640BBE7A1780FF080
S31500003E802FFF3088A842F5D0012060710220F2E7AA
S31500003E9010B500F039F81CBF4FF6F874A34217D1DD
S31500003EA0A92818BFAA2813D1D0781378401CD0703F
S31500003EB0C0B298420CD32E4803884FF6FD74A34235
S31500003EC002D10180002050710020BDE8104091E72A
S31500003ED010BD10B500F018F81CBF4FF6F874A342D9
S31500003EE011D103001CBF012802280CD166290AD172
S31500003EF010795178401C1071C0B2884203D3BDE8D6
S31500003F001040002076E710BD184A138A4FF6F97460
S31500003F10A342704710B5154C218292000299217078
S31500003F209B0003996282A38261709BB20499A1707F
S31500003F3092B293420AD301001EBF218A4FF6F8724D
S31500003F4091421CBF4FF6F972914201D0702010BD0C
S31500003F50002161714FF6FD71054A118018B10120EB
S31500003F60FFF748FF00E02072002010BD38F703205D
S31500003F7094EB03202DE9F54F8BB08B460C98169CDD
S31500003F801799ADF804B00026C0889A460746B04691
S31500003F90B14649B9F90607D50C9A9DF82C0000944C
S31500003FA0594611F037FD16E1790548BF4FF48058A0
S31500003FB0390548BF48F40068B90548BF48F080088D
S31500003FC003D4F90548BF48F040089DF82C1002912B
S31500003FD05D469DF82C1003910A2966D8DFE801F0AA
S31500003FE0082F1B3C65653C06083C18004FF002098B
S31500003FF0BDF80420CDF800A0334648F402712046EF
S315000040000AF0D2FF8246BAF1FF0F50D11820E2E043
S315000040104FF00309ECE706A95FFA8BF0FFF7EDFA1C
S3150000402008220DF11D0104A808F008FBDFF8880836
S31500004030006830F8150004AEADF80400D8E704A90E
S315000040405FFA8BF009F0E1FBDFF8700800680C21DD
S31500004050694304AE405AEFE74FF6F8718D4224DB10
S315000040604FF40261084220D100F012F918BF9120E6
S315000040701CD1FF2C0FD000F076FB029903290CBF50
S3150000408001210021401ADFF838180968095D8842C5
S31500004090B8BF74200ADB029803280CBF4FF00C0946
S315000040A04FF0080928F4C078A2E7012093E0DFF872
S315000040B0145828884FF6FF71884218D0504612F0DF
S315000040C0BEFA0090001D298804F083FCDFF8F8078B
S315000040D000990078C8714FF6FF7028805FEAC840E3
S315000040E005D500980822291D083008F0A7FA0C9A71
S315000040F0494650460BF02CF908B9182667E0DFF858
S31500004100CC070068C07E70B1B8060CD5F8074CBF66
S315000041102020002040F001033246002150460EF0D8
S315000041200DFF060053D1FF2C15D0504612F07DFA34
S31500004130DFF898170968C97E01B11221DFF88027D8
S315000041401268135D12F80A20D21874308918884252
S31500004150B8BF74263BDBB80407D5504612F07FFA89
S3150000416040F48061504612F07CFA0298082812BF8B
S315000041700928504612F082FA179848B1BDF8041083
S31500004180504612F094FA179880F800A0002022E01A
S315000041900398C01E05D0C01E012884BFC01E01287A
S315000041A007D850460FF0F3FB00280CBFA1260026C7
S315000041B00DE0B80444BF4FF6BF7007409DF82C10C1
S315000041C03B465FFA8BF2504611F076FC06465046A7
S315000041D006F01AFB30460DB0BDE8F08F2DE9F0432E
S315000041E0164685B00446F08804900D4670790FF2A5
S315000041F0187103901F4630790290A8467088019086
S31500004200434630880090082200F099F800F040F804
S3150000421018BF91201AD1FF2F09D000F0A4FADFF8B9
S31500004220A0160968C95D884238BF74200ED32000E5
S315000042300FD14FF6F870804528DA002001900097DC
S31500004240FF23324629462046FFF794FE05B0BDE817
S31500004250F083022C4FF6FE790CD1DFF8741609783C
S315000042608D4213D2DFF85006006830F81800484532
S31500004270E3DB0BE0012C09D1DFF8581609788D42F3
S3150000428004D2E8B209F0D9FA4845D6DB0120DDE7C9
S31500004290DFF838060068407B02287047F0B587B023
S315000042A00D461646044605961F46E8880FF26061DD
S315000042B00490234668790390092228790290688839
S315000042C001902888009000F03AF8002001900097AD
S315000042D033462A4621460620FFF74CFE07B0F0BDBE
S315000042E02DE9F04188B01E460E9C07948046F08862
S315000042F006901746707905900D4630790FF21C61CD
S3150000430004904346708803900A22308802900197F1
S31500004310009500F014F8DFF8AC05A0F800802346FD
S31500004320DFF8A40507700020019032460F98009030
S3150000433029460620FFF71EFE08B0BDE8F0810320DF
S315000043400EF092BA80B538B101460822DFF888052A
S3150000435008F074F9002002BD022002BD70B588B0D5
S3150000436000F02EF80C98DFF85C15009608802B46B6
S315000043700D98DFF8541508702246DFF860050078BE
S31500004380002814BF4FF6FF714FF6FD710020019013
S3150000439011E070B588B000F013F8DFF8400500783A
S315000043A00096002814BF4FF6FF714FF6FD710020EE
S315000043B001902B4622460320FFF7DCFD08B070BDB6
S315000043C004460D46069205951E46E0880FF25851A2
S315000043D0049006226079039020790290608801900B
S315000043E020880090032023890EF03EBA10B5DFF82E
S315000043F0F00406F0E9FC0446FF2C0DD0214604200B
S3150000440005F069FF18B10121204600F006F82046A4
S31500004410BDE8104006F0F8B910BD2DE9F04F89B09F
S3150000442082468B4612F00BF90646B01C04F0CAFA17
S31500004430DFF8B044DFF8B054074650460AF065FE90
S315000044400146504606F087FB8046504612F011F9A9
S3150000445006F0FAFD301D04F0B5FA2080009707F04B
S3150000446066FE009989B2814208F0030912D04FF620
S31500004470F87087420EDA7078C0070BD4384609F018
S3150000448059FF002805D0208801235246394600F0FE
S315000044909EF97AE005A950460AF0C6FE05A82860EE
S315000044A030460AF04FFEDFF84414086003215046F8
S315000044B012F0B5F8DFF8381408700421504612F0EF
S315000044C0AEF8DFF8301408705FEA0B002BD09DF8C9
S315000044D01A00800627D507F02AFEDFF8F06340B100
S315000044E03068007D800704D4B9F1010F08BF182396
S315000044F000D008230022002150460EF01FFD90B187
S3150000450008F00300012802BF3068407B112805D15E
S3150000451002F06DFA10B9AF2000F035FC06F0C6FDCA
S315000045200020286048E018F0030003D0022806D0D7
S315000045300AD32AE05946504600F041F825E0514694
S31500004540404611F0E8FA20E007F0F1FD21888142AB
S315000045501BD05146052005F0BEFEB0B1296888790A
S3150000456040060DD50C2202A808F068F8002001903C
S31500004570FF23FF20009002AA21880A20FFF7FAFCF9
S3150000458021885A4650460BF00DFC07F0D0FD2188D5
S3150000459081420DD150460AF0B8FD0146504606F05C
S315000045A0DAFA0C21084203D10021504611F0EAFC48
S315000045B00020286006F07AFD09B0BDE8F08F2DE9ED
S315000045C0FE4F814612F03BF8064648460AF09DFD2E
S315000045D00146484606F0BFFA05467078DFF80843FC
S315000045E0DFF8007300F001000290B01C04F0EAF955
S315000045F04FF6F8718842ACBF4FF0010A4FF0000A3F
S3150000460007F095FD3988814220684088ADF80200A0
S315000046100CBF4FF001084FF00008B01C04F0D2F9AF
S315000046200146029840EA0A008DF804009DF804004D
S31500004630002814BF06200820002206F009FF206883
S315000046400188BDF80260002904BF407900281ED108
S31500004650694648460AF0F2F823689DF80010421EA3
S31500004660D2B2042012F0EFF82068408848F2020126
S31500004670884203D13888494602F089FA3888B6F567
S31500004680004F10DBBDF8022049460AF0EBF820681F
S31500004690029919B905F00C010C2935D1008909F0E8
S315000046A00AFA30BB51E0DFF850B202218BF8001055
S315000046B053460022494609F03DFF206880794006AE
S315000046C004D5BDF80200FF2100F054F8132EDED009
S315000046D02068C0884004DAD4884909789BF800002D
S315000046E0CA0701D50228D2D089072ED50128CED0F7
S315000046F02BE020680189B8F1000F14BF03250225BD
S315000047000020FEF7FDFF12E00179009100224379B7
S3150000471038880021FFF724F805F00C01082905D197
S31500004720B8F1000F0CBF0425052500E000257449EB
S3150000473008709DF8040008B9382E01D1012200E066
S315000047400022294648460FF051F8BDE8F78F10B50C
S31500004750044600F008F8610548BF0838210548BF3F
S315000047600838C0B210BD59490968C97E642001B134
S315000047705220704770B55C4E0C4686B005463168CF
S315000047800C2202A807F05AFF306801798DF80D1047
S31500004790FF2341798DF80C10ADF80A504FF6BF7122
S315000047A0C08800940840ADF80E0002AA00200190CF
S315000047B04C4801880720FFF7DDFB06B070BD514865
S315000047C0007808B9FF2070474D48007870472DE9FA
S315000047D0FB47914685B01C4648460AF096FC0146C2
S315000047E0484606F0B8F9032108428DF800005ED16C
S315000047F03D4805683B48068801A948460AF014FD6D
S31500004800394901A808604FF0000ABDF8140035497F
S3150000481008809DF80900002804BFBDF804000028A0
S315000048203FD1484611F00BFF801C04F0CBF84FF641
S31500004830F8718842ACBF4FF00108D046002C14BF77
S3150000484002240124012729E0BDF8140043463A4614
S31500004850494609F06FFE5FEA000A1ED0022C08BF27
S31500004860012F1AD1BDF818001649088017480068AC
S31500004870417E491C4176A1F18000134908700C2144
S315000048809DF80000084208D19DF80A00400604D5AC
S31500004890BDF80600FF21FFF76DFF7F1CFFB2BC428B
S315000048A0D2DA114805600F480680504600E0002025
S315000048B008B0BDE8F0870000A4E80320B0E80320B4
S315000048C04CE80320C4EA0320BCFF0320C0FA0320FF
S315000048D0A3FF0320BEEB0320C8EA0320ABFF03209F
S315000048E0F8EA032096FB032098FB03209CFB032099
S315000048F05DFC03205EFC0320BBFF0320A8FF032012
S31500004900CAFF032094FB03204257575742425700E1
S3150000491042575757424257420000000042575742FB
S315000049205757424257420000425757424242574267
S315000049304200000010B5044606F001FC0FF058FFD7
S31500004940010018BF00F014F80C21304811FB04F1E7
S315000049500844827981880068BDE8104007F042B8B3
S315000049600020E7E70120E5E70220E3E70320E1E78F
S3150000497010B582B0044606F006FC0C2148432349D4
S315000049800844210017BF312C0021017A491C01720D
S31500004990C279017A91420AD30021017243208DF82F
S315000049A000008DF80140022168460DF0B4FF13BDEA
S315000049B017490978312900D0704780B544218DF810
S315000049C0001001460DF1010004F003F803216846CA
S315000049D00DF0A1FF01BD38B50E4C0C4B24780C250B
S315000049E06C43B0F5004FB8BF0429234401DB7020A7
S315000049F032BDDA71988099719A799988186806F0AB
S31500004A00F1FFBDE831400FF0F3BE000094EA032049
S31500004A10D3EB0320B6FF032070B5160004460D46FF
S31500004A2002D108F042FE02E0FF2108F0EDFD324619
S31500004A3029462046BDE87040A0E02DE9F04782B047
S31500004A4005468A46174698460EF04CFBC0480A9C17
S31500004A500078B0B10C2F14DAFF21284608F0D4FDF7
S31500004A60814600260AE004EB4601C9B2404606F03C
S31500004A702DF9494608F0C8FD8146761CF0B2B842C9
S31500004A80F1D3009443463A465146284600F08EF844
S31500004A90BDE8F3872DE9F04704468A4600F0D5F8CD
S31500004AA0012846D1204608F099FDAA4A126812F854
S31500004AB00A700025FF281CD081464C46DFF89882F4
S31500004AC000E06D1CD8F8000000EB84008478FF2C11
S31500004AD0F7D1E8B268B1EDB20C2D0ADA6800861C8F
S31500004AE0BAF1FF0F24D0F119C9B2504605F0ECFF18
S31500004AF008B100201DE02A463946504606F030F837
S31500004B007C1C6A1ED2B2E1B2504606F029F8671C38
S31500004B104C4606E030F82420F9B2504606F0E2F89A
S31500004B20BF1CD8F8000000EB84018C78FF2CF1D173
S31500004B30F0B2BDE8F08710B5FF280AD0864B1B6897
S31500004B4033F820400C8003EB800080781070002042
S31500004B5010BD032010BD10B508F040FD0024FF284D
S31500004B600AD0022401E0A41CE4B27B49096801EBE7
S31500004B7080008078FF28F6D1204610BD30B583B07E
S31500004B800C46C4218DF80010154601460DF10100B2
S31500004B9003F01FFF21460DF1030003F01AFF8DF805
S31500004BA00550062168460DF0B6FE37BD2DE9F041E9
S31500004BB086B0074688461D460DF1050014460EF0E0
S31500004BC06EFE01A80EF06DFE59208DF808003946DC
S31500004BD00DF1090003F0FDFE082241460DF10B0020
S31500004BE007F02CFD9DF805000C9B8DF81300660060
S31500004BF09DF804008DF81400F6B28DF81540009665
S31500004C002A460021284606F096F83146284605F041
S31500004C105BFF0020009000232A460E2102A80DF01B
S31500004C2082FE06B0BDE8F08110B5044600F003F838
S31500004C304A48047010BD10B5484C2078FF2803D0B0
S31500004C4005F0E2FDFF20207010BD2DE9F041DFF8F0
S31500004C500C81074698F80000FF2882B00C4619D050
S31500004C603C4D2A68115C8E1EF6B2314606F02EF8CF
S31500004C70B8420FD12868075DF5052D0EFF2C02D12D
S31500004C80A81CC0B220E0F019811CC9B2204605F06C
S31500004C901BFF08B1012017E02A463946204605F0D9
S31500004CA05FFF6A1E791CD2B2C9B2204605F058FFD2
S31500004CB098F800200096B91C002389B2204606F019
S31500004CC03AF8FFF7B8FF0020BDE8F6812DE9F0417C
S31500004CD080461F480078002688420F46154638BF92
S31500004CE0742032D3012005F024FD0446380010D08C
S31500004CF07900C9B2204605F0E7FE50B907E035F85D
S31500004D0016207100C9B2204605F0ECFF761CBE42A3
S31500004D10F5DB2046FF2811D00E4909680D5CA91C59
S31500004D20C9B205F0D1FE28B942462946204605F00B
S31500004D30D9FF03E0204605F067FDFF242046FFF774
S31500004D4073FFFF2C0CBF18200020BDE8F081000087
S31500004D50A2FF03204CE80320A0E80320D4EB0320A5
S31500004D60DFF8742A1268127882420AD019B1012A31
S31500004D7003D1022805D000207047022A08BF012867
S31500004D80F9D101207047DFF8E01C8875704710B52F
S31500004D90DFF8444A2068407B112805D040F2031111
S31500004DA00FF20C0007F0B6FC21684120487310BDD5
S31500004DB06173736F63696174696F6E2E63000000BF
S31500004DC080B5022006F01CFB06F03EF900F053FC0D
S31500004DD0042805D1DFF8900C417D491D417505E099
S31500004DE04FF47A71DFF8840C11F0F8FABDE801404F
S31500004DF006F05CB910B5DFF8704C0020E07420783E
S31500004E00FF2803D005F000FDFF20207010BD70B50F
S31500004E1082B004460D4605F081FC0646B01D03F03F
S31500004E20D1FD00F44040B0F5404F0CBF06200020F5
S31500004E303118097C4A00490802F00E0201F03801D7
S31500004E408918401800F11106DFF8E40C0068005DCF
S31500004E50F6B286420BDA831BDBB20F2BA8BF0F23F9
S31500004E600020009032462146284605F06CFD30466B
S31500004E7076BDDFF864090068407B33281CBF4328F1
S31500004E80532801D101207047002070471FB501202B
S31500004E9011F0E2FC11F0E5FC0EF06CFDF0B1DFF86C
S31500004EA0C84BA07910B104F10A0005E020786946E4
S31500004EB0FFF7ADFF0DF10300DFF8B02B00211170F5
S31500004EC0617901F0EFF9FFF795FF00F008F809F0B6
S31500004ED0F9FD11F017FD012001F013FB1FBD10B500
S31500004EE000F055FE017B032918BF042905D140882F
S31500004EF001F0DEFA08BF032008D007F0F3F90446F4
S31500004F0007F0F4F92146FEF7E8FA022007F0FAF96D
S31500004F1008F010FE00F02FFEBDE8104009F0FEBDBF
S31500004F2038B5DFF8444BDFF86C5CA075FFF762FF1D
S31500004F3000214FF6FF7001F0ADFA2868417B032986
S31500004F4018BF00291ED0332918BF432914D101F0F8
S31500004F5050FA2868017B032918BF042906D10321CA
S31500004F604173A07DBDE8324006F05DBAA07D06F033
S31500004F705AFABDE83140B2E721214173BDE831401C
S31500004F800AF0E9BA31BD10B5DFF84C18DFF8D84A97
S31500004F900968002048734FF6FE7007F0CCF84FF60C
S31500004FA0FF7007F0D0F801F024FAA07DBDE81040AC
S31500004FB006F039BA70B5044684B0E07A0FF2D00133
S31500004FC0DFF814580290234694F90A00019015223E
S31500004FD0208901F0CFF82868407B60B9208901F06C
S31500004FE067FA08D000F052F905D106F0DDF910B9DC
S31500004FF006F0EEF910B1702004B070BD2868007D8F
S3150000500080070AD507F093F84FF6FE7188420246EC
S3150000501004D10CF0AEFC024600E000222146104608
S3150000502001F000F906000DD12868007D80074CBF0D
S315000050300220012001F0D8F8002101200AF091FE9B
S31500005040060001D03046D7E7DFF81C0A007F08B11A
S3150000505009F035FA00220821204607F0F3F930B1AD
S315000050600421204603F0D6FD08B9A520C4E7DFF8E1
S31500005070280B00782074DFF8240B60610020E081A3
S31500005080204600F008F9064606F00EF9DAE70000B9
S31500005090423870574242000010B504462346182293
S315000050A001F0A9F9DFF8F80A0021017114B1FF2C0B
S315000050B002D10121017007E0012100F8041BA100C3
S315000050C0491C090211F08AF900F055FD002010BDB7
S315000050D0DFF8CC0A00787047DFF8C41A00200871A0
S315000050E0DAE730B50D4689B0044668690FF29011CB
S315000050F007902346287C06901622E8890590287B8F
S315000051000490E87A039095F90A00029028890190A4
S31500005110009501F030F8287B00280CBF4FF6FE7092
S3150000512007F005F82B46224609B0BDE83040014697
S3150000513001202DE9F041DFF8A04680462068407B3B
S3150000514000280F4616461D4649D1300047D0052E89
S3150000515045DA00F09BF842D106F026F900283ED148
S3150000516006F036F908B1042E39DB287B032816D160
S315000051704FF6FE70874214D1012E08BF002710D0CB
S31500005180022E2CD106F0D3FF4FF6FC71884202DACC
S3150000519006F0CDFF01E00CF0ECFB074601E0012E26
S315000051A01DD0B8F1000F0CD0287B03280CBF0121BD
S315000051B00021012E0CBF012000200AF0D2FD0100C3
S315000051C05CD12946384601F02DF8010056D105F08C
S315000051D091FF06F0A2F820B106F0FAF808B17020A7
S315000051E04CE02068DFF88078407B33281EBF5328C8
S315000051F00020F875304600F0F7FF387F20B106F042
S31500005200E7F808B909F05BF9287B032803D128469B
S31500005210BDE8F0413FE00822294607F10A0007F001
S315000052200DFA287B0328A8BF0020B874FFF7E2FD1B
S315000052309420B875B87C216800280CBF0120312065
S3150000524048730123002038752068817B48090200D5
S3150000525003D1BA7F03FA01F108E001F01F0140F023
S31500005260180003FA01F1052241EAC061052011F098
S31500005270E6FC010002D0226800215173BDE8F081EE
S31500005280424238705742424257424400DFF8BC0C53
S3150000529000780B28704710B504460022082107F055
S315000052A0D1F808B1012010BD06F041FF00224FF6EB
S315000052B0FF7100F0DBFF217C204600F0F3FF6269FE
S315000052C0E189207C08F069FCDFF80C050068007BAA
S315000052D0012808BF0BF0CFFAFFF701FE002010BD32
S315000052E038B5DFF8F44401462068407B002802BF49
S315000052F0DFF8580C00780B2801D0702032BDDFF89B
S315000053006C5721B1022205F1080007F097F96846AB
S3150000531001F097F808B1932032BD9DF800301422B1
S3150000532001F069F801F00AF8010050D19DF800007B
S3150000533000F05AFF2068007B012818BF022807D01A
S31500005340032818BF042825D1002001F0B5F808B3BA
S3150000535001F00BF82068007B032814BF042812F024
S315000053604DF8FFF7BCFD012012F072F801002ED1B6
S315000053702068007B032818BF042827D1287A8007D5
S3150000538024D50522DFF81418012000F027F80100C3
S315000053901CD032BD2168132048730020DFF8C816E0
S315000053A0087501222068817B4809030008BF02FABC
S315000053B001F107D001F01F0140F0180002FA01F1D7
S315000053C041EAC0610522072011F039FC002032BDF8
S315000053D0DFF89406C07D7047FF22FFE72DE9FC4108
S315000053E0804600F0D4FB0D46017B0129164627D0E6
S315000053F0407B022818BF032822D1332006F082FF03
S315000054002806DFF86476400F14BF0522BA7F2946C6
S31500005410052011F014FC044698B9FFF7EBFC06F0E2
S315000054208EFE38815FEA080014BF02200120B8749E
S3150000543007F10A0001F01DF800203875FE7500E03E
S3150000544070240194009543462C220FF2100100F0BF
S3150000545092FE2046BDE8F68100000000424244422A
S315000054600000000038B5044605F058F90546204608
S3150000547011F0DBF82C18204603F0A4FA4FF6FF5182
S3150000548001402046BDE8344003F0A3BA70B588B0A9
S315000054900C4616461D4630B9204611F0DBFF03A91F
S315000054A008F015FF03A807218DF808100190310AAE
S315000054B08DF80A1001200C998DF80B1000908DF8CC
S315000054C00960042302AA0121204609F0F8FD0646D8
S315000054D0FF2E18D0214611F0EAF815B93046FFF72D
S315000054E0C1FF0D9808B930460DE0204608F022FFAE
S315000054F018B1304611F0DCFF01E000F036FE304610
S3150000550005F082F9FF2008B070BD2DE9F14F84B097
S31500005510894615469B4600274FF6FF7455B1284627
S3150000552009F010FE8046687840084FF0010A00F046
S31500005530010605E0484611F022F9BA4600268046E3
S3150000554000F099F8032818BF042800F091800BF1A9
S315000055500101C9B2484605F0FEFA8346400800F04C
S3150000556001008DF808005FEA0B6000F0EAFC58BF06
S315000055704BF0800B022806D1DFF824169DF81000A8
S315000055800978084301D1022721E0404606F07EFD56
S31500005590ADF800000321484611F041F8040008BFA9
S315000055A00124BAF1000F03D0281D03F00BFA01E025
S315000055B0BDF800000146009401235A46404608F013
S315000055C0ADFD04464FF6FF70844208BF0127EDB1DA
S315000055D09DF8100018B94FF6FF70844204D1281DBB
S315000055E003F0F0F9014600E0214601200190009702
S315000055F0334622464046FFF749FF9DF8080050B95A
S315000056004FF6FF7140460BF085FB04E03A46214613
S3150000561040460EF089F85FBB9DF8080080B1414610
S3150000562020460BF098FB6C490968896A0E2212FB2A
S3150000563000F211444A7942F040024A710BF0D9FB5C
S31500005640B5B1DFF8B85C85F8009006F070FD0EB1D4
S31500005650002605E09DF81010002914BF0326012638
S31500005660014643462246304601F088FCFF2028705A
S3150000567005B0BDE8F08FDFF81C050068007B7047B9
S315000056802DE9FC478046894601A80021016016469F
S31500005690484610F0D4FF05465FEA0800DFF8607C54
S315000056A008D0284609F04EFD8246284609F03FFDFF
S315000056B0044604E0484611F062F882463C46002063
S315000056C0009004233246494601A805F03CF90DF145
S315000056D0050003F077F981469DF807605FEA080048
S315000056E006D008223946204606F0F2FF00286FD180
S315000056F0394F3868C17E11B16978890713D55FEAD9
S31500005700080110D0407B022808BF002E0BD1484666
S3150000571006F011FD09F0D6F9992300F06BFE9920E9
S3150000572005F081FE54E006F0A5FE002818BF002E05
S3150000573003D09420FFF7F4FB4AE006F09BFE002816
S3150000574046D050460BF07AF9FF2818BF5FEA0801E9
S3150000575004D13868408851460BF0FDFA0BF049FB3E
S315000057603868C24E41885246484600F07FFD386888
S31500005770BD4C417B012916BF3129112143214173BB
S31500005780022005F02EFE40F6B831304610F026FE17
S3150000579011F034FE002060753868C17E19B93046B4
S315000057A010F012FE11E0B8F1000F05D069788907F4
S315000057B002D5FFF76BFB08E0007B042805D1052125
S315000057C0304610F00BFE06206075AD20FFF7DBFAC1
S315000057D005F06AFDBDE8F387C0FA03202DE9F04F16
S315000057E08DB0824610F02BFF814610F073FF0390B8
S315000057F0504610F0C4FF804602AB052205A950466C
S3150000580012F034F902288DF80000019022D050469B
S3150000581010F00BFF0399944DDFF8786308189DF894
S3150000582008100F185046FFB2394605F094F9FC1CD3
S3150000583001284FF6FF7B0ED0022813D0042800F073
S31500005840F08006281AD007286CD0082827D07C2894
S3150000585000F0AD8005E13B46002251460020FFF7EF
S3150000586054FEFEE03068407B012804BFA87C002877
S3150000587003D13A465146FFF703FFF2E0404608F0EF
S315000058800CFD014659451CBF40460DF019FF306816
S31500005890407B022802D1404610F0D4FFE1E0002010
S315000058A010F0DAFF791C00F0E3F88146E1B200F06F
S315000058B0E0F80446B91D00F0DBF807465F45EDD079
S315000058C011F09CFD3068407B132808D100F04DFD97
S315000058D0504610F054FF014620460BF03CFA306863
S315000058E0407B022818BF13281BD1384606F023FC3C
S315000058F0484606F028FC0021002000F0D3FC414673
S31500005900204600F0C7FDE878DFF8941C087000F028
S3150000591032F93068417B132903D12321417311F0F9
S3150000592040FA9EE003980121484404F0F0FF044643
S31500005930002300222146012010F085FF204604F0B6
S3150000594063FF3068407B022802BFDFF8406C307985
S315000059500028E6D1404612F069FA002806D09DF8E4
S31500005960001005AA504612F080FA002879D012F0ED
S31500005970AEFB95F91D2001219140C1EB011189B2C1
S3150000598090FBF1F201FB1200451C002005F029FDF9
S315000059900198012806D130700822414606F10C0014
S315000059A006F04CFEA9B2301D10F018FD59E0504625
S315000059B004F0B4FEC0194178652904BF80786D28CB
S315000059C04FD15B49096811F80A10E0B2884248D203
S315000059D00822414603A806F031FE6B460022E1B2DA
S315000059E0504609F047FA00283BD19DF80000FF28F1
S315000059F037D0DFF8B44BDFF8B45B0120207085F8B0
S31500005A0000A005F096FB9DF8001003A8FCF723FF05
S31500005A1005F04CFBFF202870002020709DF8000048
S31500005A201DE0504610F0CAFE04460FF6D03000883E
S31500005A30ADF80A0002230020019000900DF10A0241
S31500005A400121204609F03BFB0546FF2D09D02146E2
S31500005A5010F02DFE0021284607F02EFA284604F005
S31500005A60D3FE0DB0BDE8F08FD0EA0320FCF703208B
S31500005A70C9B2504605F02AB970B5022005F0C0FC3F
S31500005A8005F0E2FADFF8C854424E002028700DF007
S31500005A9071FF28B13068C07E10B9FFF7F7F93DE015
S31500005AA00DF068FFDFF8084B10B906F0E3FC58B1BB
S31500005AB0607D48B1C821284610F090FC607D401EEC
S31500005AC0607507F0EDFA29E03068407B132809D0AD
S31500005AD006F0D0FC30B93068407B11281CBF432843
S31500005AE0412803D1A07DFFF71BFA17E0022818BF53
S31500005AF0032803D0002818BF21280FD10024DFF87F
S31500005B00B45A07E005F0A0FA002000F0FAFC05F010
S31500005B10CDFA641C2978E0B28842F3D3BDE8704020
S31500005B2005F0C4BADFF8881A0020487570470000EF
S31500005B304CE8032010B5002005F062FC05F084FA5D
S31500005B40DFF8484A0020207100F021F8417B022945
S31500005B500DD1007B032818BF042808D0207810B187
S31500005B600DF026FD01E00DF0C8FC00202070BDE818
S31500005B70104005F09BBA80B505F0DFFBFF281ABF81
S31500005B80074800780020BDE802400DF0A4BC01489B
S31500005B9000687047C0FA0320BFFF032000F8FF0724
S31500005BA0F0F7032080B500F0ADFB002002BD2DE923
S31500005BB0F04F97B0804606A8102112F099FA0DF121
S31500005BC0090305220EA9404611F050FF074600269C
S31500005BD0022FB24600F0AD81404604F09FFD044618
S31500005BE0A01D02F0EFFE059004F1090002F0EAFEA6
S31500005BF0ADF80A0004F10B0002F0E4FE8146DFF87E
S31500005C00B809006810F808000190012F6AD1012038
S31500005C100490002706210EA87943441820880228FC
S31500005C205CD1E07800F088F91B2857D1E078C11CD8
S31500005C3000F083F9192851D1E078011D00F07DF9B3
S31500005C404A284BD10525E0782818411C00F075F943
S31500005C504FEA002BE078291800F06FF9584480B21B
S31500005C60932800F03F0B1BD1E0782818801C5FFAC0
S31500005C7080F9002000900F234A46414606A804F00A
S31500005C8062FE09F10F01C9B2404605F01FF806464B
S31500005C9009F11101C9B2404605F018F8814616E02F
S31500005CA0412814D1E078281800F046F9DFF80C19DD
S31500005CB00978401AA0F14D0ADFF804090068007B54
S31500005CC0032812BF04284FFA8AF012F0BEFA0BEB33
S31500005CD00500851C2179EDB28D42B4D37F1C052FBA
S31500005CE00BDA97E7CDF810A004F10D0002F06AFE7A
S31500005CF0064606A94046FFF78AF8F00B8DF808001D
S31500005D0000230D224146062010F09DFD06AFB8780F
S31500005D10C0F3C3000390787800F00F0401982028A0
S31500005D2000F00FF9ACBF9DF826500025022814D1CB
S31500005D30BDF80AB006F003FA83450ED10AA800F0B2
S31500005D4098FB0198202806DB08220DF11B010AA802
S31500005D5006F0BEFC08B108F05BF80598B0F5004FF8
S31500005D6011BFB0F5624F26F4404040F6FF718842FD
S31500005D7076D101982028C0F2DC80002208210DF19E
S31500005D801B0006F05FFB00286AD1704800780128E6
S31500005D9047D1019427229DF80800BDF80A300FF676
S31500005DA06001DFF85865DFF81CB800F0E3F9DFF8AA
S31500005DB0180800788DF82A008DF834408DF8355093
S31500005DC00822BDF80A00ADF828000DF11B019DF868
S31500005DD008008DF82B000BA806F030FC00F0B1F897
S31500005DE001281CBF332886F8008005F0A2F9DBF8ED
S31500005DF0000078B10DF101000DF051FD68460DF07F
S31500005E0050FD9DF900209DF80110DBF800300AA82E
S31500005E10984702E00AA8FCF7B2FBFF20307005F0B5
S31500005E2045F9DFF88C67307D002819D106F022FB92
S31500005E30002824D00120F0740022082106F10A006F
S31500005E4006F000FB20B1BDF80A003189884208D06F
S31500005E5008220DF11B0106F10A0006F039FC0028A4
S31500005E6067D19DF8080028B900F06BF8312818BFF3
S31500005E7033285ED101212046FEF772FF002858D054
S31500005E809DF81800002802BF78780009022850D132
S31500005E90FFF77DFE017BBA7802290CBF02F00402EF
S31500005EA002F0800222B9022943D04088484540D1F9
S31500005EB03078DFF81877FF2814D0707985420DD135
S31500005EC0DFF8F81696F9020091F90010884209DB0E
S31500005ED02FD170783978884204D32AE0281AC0B2C4
S31500005EE0812826DAFEF786FF86F80080404604F011
S31500005EF07DFC387870700DF11B01DFF8C006007864
S31500005F00B07003980F28B4BF401C0F20F070347196
S31500005F107571A6F818900822BDF80A00308186F837
S31500005F2007A006F10A0006F089FB049800B10120DB
S31500005F30B07117B0BDE8F08F811CC9B2404604F0BD
S31500005F400ABEDFF87C060068407B7047DAEB032068
S31500005F50FCF703202DE9FF410546DFF854460120F2
S31500005F6020750E46174601F0D0FE00281AD1A84625
S31500005F70B8F1010F18BF002D15D100973346262220
S31500005F80C7A100F0F8F805F0D4F8DFF84406026877
S31500005F9010003946304601D0904701E0FCF714FB6B
S31500005FA005F084F8D5E0DFF818562868407B2328EA
S31500005FB00DD106F097F9044606F098F92146FDF74B
S31500005FC08CFA022006F09EF910F09CFCC1E0002F2E
S31500005FD0FCD121281CBF0428532802D109F0BBFAA2
S31500005FE0B7E006F047FA002800F092802678FF2EE8
S31500005FF005D1E07C00280CBFAB2094209DE02868EA
S31500006000007B032816BF0428012100212079FEF712
S31500006010A7FE08B9982090E003F0DBF90521304689
S3150000602010F0FDFA2968887305F03EF9A07CF8B9EE
S3150000603000F02AFA02462189208B0DF09CFB0028ED
S315000060405DD19420FEF79FFE022005F0CAF929686B
S31500006050DFF880054A7B012A05D0312A12BF332A90
S31500006060097B04294DD1C82110F0B8F903204DE071
S3150000607006F05DF80646208B002100F00BFA06F0CC
S31500006080F9F960B1300003D04FF6F870864206DBAE
S315000060900BF06FFC2968498888420646F8D03046DE
S315000060A006F049F82078092110F09EFA06F04BF820
S315000060B006208DF8080000F0E7F98DF809000223A4
S315000060C000200190009002AA28684088012108F06B
S315000060D0F6FF0646FF2E12D028684188304610F09B
S315000060E0E6FAA07C02281CBF3046FFF7BBF900F099
S315000060F03CF80746304604F087FB002FA1D19420D8
S315000061001BE04FF4167110F069F90020607520E06D
S315000061102868407B132816D100F008F9BDF8000066
S3150000612006F011F800F021F92868017B032918BF51
S31500006130042905D1332141739620FEF7F1FE08E0CC
S31500006140FEF7CDFE05E0B8F1040F04BF304612F0AD
S3150000615010FA4FF4006007F050FF10B912F0B3FBCD
S3150000616008B106F0FBFEBDE8FF81002200213046A3
S3150000617012F04EBB009003200CF076BB1FB5044610
S3150000618000208DF80000FFF702FD007840F02000A7
S315000061908DF801000DF1030000F06BF90322FF21D9
S315000061A00DF10B0006F08DFA07F0E1FC8DF80E00FC
S315000061B0DFF82414DFF8E803DFF8202400780978F4
S315000061C01278C00040F00400914238BF40F08000D1
S315000061D08DF802000F226946204604F025FC401E79
S315000061E08041C00F04B010BD38B5DFF8D453044663
S315000061F02868017BA14203D00473204605F00CFAFF
S315000062002CB101F0BFFC2868007B042805D105F0FD
S31500006210B2F8FF2808BF012000D00020BDE83240B8
S3150000622007F066B938B50D46044695F90A0006F03A
S315000062302DF908B18B2032BDDFF884030268E97AB4
S3150000624091730068A97AC173204605F074FF4FF672
S31500006250FE7084420CBF4FF6FF70288905F073FF6D
S315000062602889DFF84C130881002032BD38B50C466A
S31500006270154605F060FF0BF04FFB2946204600F05F
S3150000628009F9CB480178FF2918BFC07805D1FFF777
S31500006290F2F901280CBF00200120C149087031BD68
S315000062A0424242007FB504460D4600F03FF8C44E18
S315000062B094B1CB4A0021284607F06FFC306801787C
S315000062C08DF804100822007B8DF80500214602A8EF
S315000062D006F0B4F900F042FA3068817B8DF80310BD
S315000062E0C07B8DF8020005F02AFFADF8000005F02E
S315000062F01EFFADF8060000F01BF87FBDE0EB0320A3
S3150000630034F903201FB5044600F010F81CB1002034
S315000063108DF8050007E005F00AFFADF8060005F068
S315000063200EFFADF8000000F003F81FBD684635E02B
S31500006330102307226946002002F08DBB00B58BB002
S31500006340FFF7F4FFBDF80000ADF8180004A99DF8AA
S3150000635003008DF81B009DF802008DF81A00BDF8A9
S315000063600600FFF75FFF0BB000BD1FB5012000F070
S31500006370A3F8044600F0FDF9FFF7D8FF1CB9002288
S315000063804FF6FF7103E0FFF702FC4188021DBDF8DE
S315000063900600FFF76BFF12F055FD1FBD01461023E7
S315000063A00722012002F057BB38B5082005F028F86F
S315000063B0044604F049FE824D8A48296800788873AD
S315000063C004F001FFA04208BF04F024FF00210020D2
S315000063D0FFF768FF9B2300F00DF89B2005F023F8DC
S315000063E02868002120F8441F4180BDE8314004F0B0
S315000063F05DBEA37D13226BA103200CF035BA10B548
S31500006400044602F087FDFF2801D18A2010BDFFF760
S3150000641098FD022818BF032801D0702010BD7148CE
S315000064200470082004F0DDFFFEF730FF01D03D20A8
S3150000643010BD6D4806F0FFFC08B9A12010BD002074
S3150000644010BD1FB504466846FFF7A8FF9DF8050076
S31500006450010008D0052806DA594909689DF8042084
S315000064600978914201D0932001E02070002004B009
S3150000647010BD1FB504466846FFF790FF082202A923
S31500006480204606F0DBF81FBD4D4958480968097BD0
S31500006490405C70474A4A1368588019B90822181D8B
S315000064A006F00FB90822181D06F0C8B8BDF8080096
S315000064B04FF6FF718842704710B504464548007A8A
S315000064C0C00784B007D500F011F8FFF7EFFF02D040
S315000064D000F012F808B1002006E024B1BDF808006B
S315000064E06946FFF7D7FF012004B010BD0A230A2230
S315000064F06946012002F0AFBA0822FF21684605F07E
S31500006500A1BF70B5334D0446287AC00784B00CD5B8
S315000065102B4E306841884FF6FF72914207D1002218
S315000065200821001D05F08EFF08B100201DE044B1D2
S31500006530022004F056FF4FF4F04128460FF04EFFBC
S3150000654012E030684188ADF808100822011D68463F
S3150000655006F074F80A230A22FFF7ECFE02230B2248
S315000065602349002002F077FA012004B070BD214AC9
S31500006570107048B120480088010005D04FF47A71A8
S315000065804143101D0FF02ABF7047000008F8032092
S31500006590184800787047174800210171017070474C
S315000065A0D0FF03204242000094FB0320E0EB0320CF
S315000065B0D0EA0320B8EB03204CE803205EFC03205E
S315000065C0C0FA032050F803205FFC03205DFC032083
S315000065D054F80320FCF70320C8FF0320C3EB032075
S315000065E000F8FF07C0FF0320A96300002CE50000A8
S315000065F07AFC03201CF803209CEB032004600000B7
S3150000660042574242000000007020704770207047D9
S3150000661070207047702070477047704730B5054648
S315000066200C4683B028220021204606F04AF8681E50
S31500006630A5701ED0801E01284FD8032D0CBF012542
S3150000664000252A4604F11C01E01C09F02DFF35B196
S31500006650208840F00200208012F0DAFD6061208878
S3150000666040F0010020801021E01C00F0A0F8B0BB33
S3150000667006E0DFF8C4552868007D10F0300F01D120
S31500006680B2203EBD208840F0020020800CF09DFA2A
S315000066906061E01C00F0ABF8684600F0BCF848B159
S315000066A00822694604F11D0005F0C8FF208840F065
S315000066B00800208028684069C00303D4208840F081
S315000066C01000208005F033FD0028CCD02868406AF1
S315000066D0A061208840F00400C4E770203EBDE01CA5
S315000066E00FF062F800203EBDF0B587B004460D46B7
S315000066F016461F46684600F088F83EB10822314625
S315000067000DF1020005F09AFF45F040052FB1102269
S3150000671039460DF10A0005F091FFDFF81C05006807
S315000067204169A1432943416148040CD5BDF80000E5
S315000067300A0A00F40E4002F4E242104301F0FF019F
S315000067400843ADF800001A2308226946002002F02B
S3150000675082F907B0F0BD00230022C5E7DFF8D804B0
S315000067600068416941F48041416147F2FF100140F0
S31500006770F1E700B587B012F05EFD684600F045F817
S31500006780DFF8B4040068BDF800204169090A120A5E
S31500006790090202F0710241EA0241BDF8002002F04E
S315000067A0FF02114341F48041416107B000BD38B595
S315000067B004460D46002205F045FE40B9FF22294653
S315000067C0204605F03FFE401E8041C00F32BD00202E
S315000067D032BDDFF864040068007D00F03000102848
S315000067E018BF202801D1012070470020704710B53E
S315000067F088B00446684600F008F810220DF10A0138
S31500006800204605F01BFF08B010BD01461A230822DA
S31500006810012002F020B910B50446DFF81C04006818
S3150000682088B04069810705D50822FF21204605F07A
S3150000683048FF0AE040060AD56846FFF7E6FF082249
S315000068400DF10201204605F0F9FE012000E00020CE
S3150000685008B010BD80B539B9DFF8DC130968097DC9
S31500006860490601D5002002BD024600230021002072
S31500006870FFF73AFF012002BD0021EBE70121E9E71E
S315000068801CB504466846FFF7C6FF40B108222146FC
S31500006890684605F01DFF401E8041C00F16BDFF2251
S315000068A00821204605F0CEFD20B106210020FFF785
S315000068B052FF04E0002322460021FFF715FF0120C6
S315000068C016BD2DE9F0470D4692B0814616460121C8
S315000068D000241F4600F02AFA8046B80707F0010A8E
S315000068E00BD507A948460EF095FD20B100F06FF8CC
S315000068F006B134601BE0A6201AE0B8F1FF0F1AD0EB
S3150000690007A9404600F0AAF9010011D10DB100F027
S315000069105EF82EB1DFF82403006800EB88003060D3
S31500006920BAF1000F03D0BDF81C00C00647D5002001
S3150000693012B0BDE8F087DFF8007356B105F0F7FB3B
S3150000694018B13868017D890701D5346001E024302B
S315000069503060FFF73EFF0028CDD06846FFF755FFB1
S3150000696008220DF10201484605F0B2FE28B138684A
S31500006970007D00F044004028BDD0BAF1000F04D0DD
S3150000698038684069C00348BF0124B5B105F0CFFBA4
S31500006990002801BF3868007D00F08400842807D1F4
S315000069A02B46082249460DF10A0012F0DCFE04E0EF
S315000069B010220DF10A0100F00DF8002CB7D0424666
S315000069C04FF6FF71182004F043FDBB20B0E71022FC
S315000069D00DF11F01284605F031BE80B500230022C7
S315000069E00021FFF76EFF401E8041C00F02BD00B5BB
S315000069F083B06846FFF70FFF10B16846FFF7EDFF5B
S31500006A000EBDF0B585B0074605F091FB00240025C4
S31500006A10A8B105F06FFC90B103A8FFF7FCFE70B1BA
S31500006A202FB108228649384605F052FE38B1824E0B
S31500006A303068017D890705D5417B112901D0702079
S31500006A4046E044889FB10822394603A805F040FE77
S31500006A5068B108208DF80000082202208DF8010098
S31500006A6039460DF1020005F0E9FD0A2107E008208C
S31500006A708DF80000012504208DF8010002216846EA
S31500006A8003F045FF0746FF2F21D0FFF7A2FE00B116
S31500006A9002203168097D89074CBF04210021084383
S31500006AA040F001033A460021204609F0DBFA0400D3
S31500006AB007D00021012000F00DF815B16149012031
S31500006AC00870384603F0A0FE0CB1002000E0182044
S31500006AD005B0F0BD5C4A11B141F2883105E05B4971
S31500006AE009784EF66023594304D000281CBF10468F
S31500006AF00FF074BC00201070704730B583B00822C8
S31500006B000021684605F0DDFD05F011FB504C18B973
S31500006B1000F090FD0D250FE0607860B14D492078BA
S31500006B200978884207D200F00EF820B90121012029
S31500006B30FFF7D0FF37BD042500F070F829466846F8
S31500006B4004F064FC37BD424900B50A78521C0A704D
S31500006B5070204978012983B002D100F012F80EBDE9
S31500006B60022909D16946002005F0ABFA010007D1D8
S31500006B706846FFF746FF0EBD032908BF09F041FE30
S31500006B800EBD00224FF4A071002007F007BF70B5BC
S31500006B9098B005460E4604A8502111F0A9FA2C4CCF
S31500006BA06078012808BF002D36D101A9304607F0CC
S31500006BB045FE29499DF804200968895C0D1A0021C3
S31500006BC0009102469DF80410EBB204A803F0BBFE48
S31500006BD002A9002005F075FAF0B9EDB2E5B19DF80D
S31500006BE01100C8B99DF81C00000200F47E40B0F503
S31500006BF0285F0BDB0120207002A8FFF702FF0121AE
S31500006C000120FFF767FF0220607005E000F006F83C
S31500006C101E2102A804F0FAFB18B070BD00206070B7
S31500006C20002157E70A4908707047094840787047BD
S31500006C300749487070470000C0FA0320B8E80320EF
S31500006C4034F90320C1FF032050F70320AAFF0320D5
S31500006C50B9FF0320D5EB03204CE8032030B500F044
S31500006C6026F987B028BFB12039D200F026F91821BD
S31500006C706846FFF79CFD08B9B62030E028220021BF
S31500006C80284605F01EFD102202A9E81C05F0D6FCD8
S31500006C900822694605F11D0005F0D0FC0820288071
S31500006CA09DF8180081075CBF18212980410703D58C
S31500006CB0298841F020012980C0070FD50520A8703A
S31500006CC0AC48006850F82400A8610BF07EFF6861AC
S31500006CD0288840F006002880002000E0B22007B097
S31500006CE030BD38B50C46FFF7B9FF0546E01C0EF07F
S31500006CF05BFD284632BD38B50446154609B97020F5
S31500006D0032BD012100F012F8FF2803D10121002035
S31500006D1000F00CF8FF2807D02B46224601B0BDE84C
S31500006D2030400146002045E0B42032BD2DE9F04157
S31500006D3088B0044609B9702039E02CB10022082138
S31500006D4005F080FB074600E001270026884D04E099
S31500006D500821FFF72CFD38B3761C2978F0B288425B
S31500006D6024D201A800901923F2B21721684605F033
S31500006D70F3FD009890F81880002FE9D108222146EB
S31500006D8005F0A6FC0028E7D10098083009F06FFD51
S31500006D9008F0010181F001010843DDD104F0AAF9F0
S31500006DA0C8F3C2018142D7D1F0B200E0FF2008B09B
S31500006DB0BDE8F0812DE9F04116466D4A1278914200
S31500006DC08AB00C46984628BFB1204DD2254630B928
S31500006DD010214046FFF7EBFC38B9B22044E01922F7
S31500006DE0002102A805F06DFC32E001213046FFF7D4
S31500006DF09DFF074608226049304605F069FC68B1E8
S31500006E00FF2F18BFAF4209D16846FFF704FD38B11E
S31500006E1008226946304605F05BFC08B9B32023E03A
S31500006E200822314602A805F009FC1022414604A8B2
S31500006E3005F004FC0EF000FE002814BF0026022612
S31500006E4004F058F946EAC00040F001008DF8200031
S31500006E5000204849096841F82500192302AA21465D
S31500006E60172005F0ABFD00200AB0BDE8F08170B533
S31500006E7000F01DF888B0164628BFB12015D200F0E4
S31500006E801CF819216846FFF792FC08B9B2200CE0FD
S31500006E909DF81810B14329438DF8181019236A4636
S31500006EA02146172005F08AFD002008B070BD0D466A
S31500006EB02F4909780446884270471923224617212C
S31500006EC0684605F038BD10B50C460121FFF72EFFC8
S31500006ED0FF2808D0002CBDE8104007BF042200217F
S31500006EE000220421C3E710BD10B504460121FFF7B7
S31500006EF002FF20B10521204604F088FA05E00121B1
S31500006F002046FFF713FFFF2801D1002010BD022203
S31500006F100021FFF7ACFF0121204604F077FA00219B
S31500006F200020FFF7D7FD012010BD70B588B0002501
S31500006F300F4C16E001A800901923EAB21721684603
S31500006F4005F00AFD0098067E04F0D4F8C6F3C201E7
S31500006F50814205D100230022E9B20120FFF72AFF72
S31500006F606D1C2178E8B28842E4D3002008B070BDD9
S31500006F70A5FF0320B8E8032034F903202DE9F047E4
S31500006F80DFF84857074628688AB0C07E00288A4638
S31500006F909146984671D005F0CAF848B12868007D38
S31500006FA0800705D43A464146484609F039F964E077
S31500006FB038003C4602D10125012604E0032C14BF0B
S31500006FC000250125002604F0B4F853463A4641460A
S31500006FD04846FBF7E9FD074604F068F800972346A4
S31500006FE01E22A7A103200BF03FFC5FBB86F0010029
S31500006FF0054232D00FF2FC6104A8D1E90023C0E9B2
S3150000700000230FF2F8600FC80DF1180C8CE80F0082
S31500007010022300F047F850B102230022694604A873
S31500007020FFF74FFC18B1002300F03CF8A8B9102276
S3150000703006A9684605F04CFB78B9FFF7A9FA60B9CE
S31500007040032718E0012F0AD1002301960095524626
S315000070504146484600F016F90DE00123F5E7022FF8
S3150000706009D16946504605F02CF820B942466946D2
S31500007070504600F01CF8022F11D005F058F8824552
S315000070801CBF4FF6FF70814509D0404607F005F951
S31500007090484504D1484610F0DDF907F0FCF90AB07E
S315000070A0BDE8F087002269464046FFF70ABCFEB5F8
S315000070B0044616460D46304607F0EFF8074605F03B
S315000070C036F818B94FF6FF70844201D17020FEBD24
S315000070D0874204D00021384608F032FBFEBD072067
S315000070E08DF80000082231460DF1010005F0A6FAE0
S315000070F00921684603F00BFC0646FF2E0CD001233F
S3150000710032462946204608F0ADFF0446304603F0D5
S315000071107BFB0CB10020FEBD1820FEBD00B583B080
S31500007120024669464FF6FF7000F001F80EBD2DE9E4
S31500007130F04304464FF6F870844288461746ACBFC3
S31500007140012500258FB004F0F2FF0DF1140930BBC4
S31500007150DFF8786500F06AF921D41FB1384609F0E6
S3150000716086FB28B105A805F07CF910B1A52039E009
S31500007170B946694609A809F05DFB684609F077FB40
S3150000718078B99DF810009DF83410401AC0B28128D5
S3150000719007DA10226946484605F09AFA48B1702087
S315000071A020E09DF83400411C0022C9B2484609F08F
S315000071B02DF921272DB108220021404605F081FA3C
S315000071C000E023273B464A464146204600F0C3F8E6
S315000071D038B125B13068DFF8F814407E0870002019
S315000071E000E018200FB0BDE8F08330B58BB004F096
S315000071F09EFFA8B9DFF8D4442068007D80070FD42D
S3150000720001A906A809F016FB9DF828009DF81410A0
S31500007210401AC0B2812803DB01A809F028FB08B197
S3150000722070202AE004F083FFDFF8A41409780AF03E
S31500007230C1FA08B1B82020E0002109F0A4F809201D
S315000072408DF800000221206890F820008DF80100DA
S31500007250684603F05CFB0446FF2C0DD00123224652
S3150000726000214FF6FF7008F0FDFE0546204603F0AC
S31500007270CBFA0DB1002000E018200BB030BD0000A5
S31500007280424242002DE9F0430446DFF8400400681C
S315000072908DB04069C008884691461E4600F001053B
S315000072A004F045FF484504D130000CBF04270627EB
S315000072B010E0012730004C4618BF0B2755B9694628
S315000072C0484604F0FEFE28B96846FFF786FB08B17B
S315000072D047F0020714991598014217D10EF094F859
S315000072E0A0B102A940460EF095F878B90FF2FC312C
S315000072F06846D1E90023C0E9002302A90EF08AF806
S3150000730020B10DF10B0140460DF0ACFF2E4207D027
S3150000731007F0040040F011024146204600F008F84C
S315000073203A464146204600F003F80DB0BDE8F0832A
S3150000733070B586B004460D461646112306226946E8
S31500007340012001F088FB33466A462946204600F0B4
S3150000735002F806B070BD00B583B001930092012318
S31500007360002208F082FF0EBD2DE9F0410F4688B0DD
S3150000737080467C780822002102A805F0A2F904F0D4
S31500007380D6FE0625DFF8446310B100F04FF845D568
S3150000739002A9404604F095FE08B10B253FE0022CF9
S315000073A002D0042C18D039E000F040F836D4082278
S315000073B0B91CDFF8200305F08BF900282ED0DFF882
S315000073C01803007860B1BA1C02A9404600F041F8E3
S315000073D00546FF2D23D126E0C0480078010001D1E3
S315000073E011251CE002280AD100F024F808B1122564
S315000073F015E0032000F024F888B913250FE000F00B
S3150000740019F808B10A250AE000F010F84CBF05206B
S31500007410012000F015F810B9082500E009252946D5
S3150000742002A803F0F3FF08B0BDE8F0813068007DE4
S31500007430800770470023002204A902A8FFF741BA7B
S315000074400190042304A80090002202A9404608F0F7
S315000074500CBF2DE9F84F0546A1480F469046007827
S31500007460A04EB946C246AB46FF2438BB00F0E2F850
S315000074703078FF285FD003F051F98146307803F069
S315000074804DF9357800F1080A1121284603F063FB0F
S3150000749006021021284603F05EFB06EB000B0822CD
S315000074A03946504605F014F930B908224146484697
S315000074B005F00EF900283ED00E244DE03078FF2866
S315000074C0D6D1012003F035F9FF28307008BF10240B
S315000074D042D00822394603F0A7FA307808224146FE
S315000074E003F0A2FA280A8DF801008DF80050022256
S315000074F030787D4F694603F097FA3868317810F88E
S31500007500018003F016FE31782846FDF7C3FA03F032
S31500007510CDFD30783968095C884506D18DF8024082
S3150000752001220DF1020103F07FFA00210120FFF78D
S31500007530D1FA0C2410E0514648460EF07FFA40B1CD
S31500007540524649461FFA8BF000F009F810B90F248D
S3150000755000E0112400F06EF82046BDE8F28F2DE918
S31500007560F74F88B0104604F091FD4FF6FF71884240
S31500007570ADF8080058D003A804F073FF002853D1D3
S315000075800024584D49E02878BDF820B0099FDDF861
S315000075902880FF282BD0122103F0DDFA8146B9F1AD
S315000075A0FF0F24D0012003F0C4F88246BAF1FF0F82
S315000075B011D003F0BEFD51465846FDF76BFA03F0B5
S315000075C075FD4948006810F80A6006B10126504664
S315000075D003F01AF95EB903F0ACFD142000904A4698
S315000075E02B7839465846FDF728FA03F05FFD402010
S315000075F040F003000190032303A800904246394659
S31500007600584608F032FE78B10721384603F0FEFEF0
S31500007610641C022C0ADA002CB5D1BDF808B00A9F0A
S31500007620DDF824800020E3E7002000E001200BB015
S31500007630BDE8F08F10B52B4C2078FF2803D003F05F
S31500007640E3F8FF2020700021BDE810400020FFF77E
S3150000765041BA10B584B0044601208DF800001B48DD
S315000076600068827E531C83760E208DF801208DF8EB
S31500007670020008220DF1030004F0E0FF0B22694628
S31500007680204603F0D1F9401E8041C00F04B010BD62
S3150000769030B587B004460D460023002202A92846CD
S315000076A0FFF70FF901000DD103200190042302A872
S315000076B000902946074A204608F0D7FD00F0010051
S315000076C080F0010007B030BD00000000C0FA0320C2
S315000076D0B8FF032034F90320C1EB0320A6FF0320E3
S315000076E0AAFF0320CDEB03204CE80320FFFFFFFF9A
S315000076F0FFFFFFFFFFFFFFFFFFFFFFFF5A69674224
S315000077006565416C6C69616E6365303910B5044618
S315000077100C480068407B022802D104F008FD08B13D
S31500007720702010BD00210220FFF715F82046FFF754
S31500007730F5FC040003D002210020FFF70CF82046D8
S3150000774010BD00BFC0FA0320DFF8A00A007C00B11C
S3150000775001207047DFF8941A0A7C062A18BFFFF743
S31500007760F3BF80B5902803D10020087407F0AAF96A
S31500007770BDE80140E8E7DFF8740A007C042801D17F
S31500007780012070470020704770B5164604460D4626
S31500007790FF2204F057FE28B900222946204604F0AD
S315000077A051FE50B146B16908204601F033FA08B9D6
S315000077B0A52070BD002070BD702070BD70B5054657
S315000077C0084614461E4632460821FFF7DDFF010033
S315000077D015D1324602212846FFF7D6FF01000ED109
S315000077E02078010018BFFF2806D0DFF8041AC14030
S315000077F0C80703D5702070BD19202070002070BD09
S3150000780010B5441A48BF6442C92C0A4602DB8842B6
S3150000781003D201E0884200D30246904201D1012002
S3150000782010BD002010BD70B50446DFF8C809006819
S3150000783086B00D46407B0F21084206BF94F828000B
S315000078400228702040D10123A21C211D2046FFF7EB
S31500007850B5FF060038D194F8260000F0820040F00B
S31500007860010012F013F894F82800DFF88019487424
S3150000787018220021684604F024FF0822211D6846CC
S3150000788004F0DCFE2088ADF808008DF80A5041F6B9
S315000078900631A0788DF80B0003208DF80C00DFF878
S315000078A0580905900020FEF756FFA18C94F8282071
S315000078B0080008BF4FF441716B460120FDF739FC03
S315000078C0064603F0F1FC304606B070BD2DE9F041E6
S315000078D0DFF82049064620688EB0407B00F00F0591
S315000078E02C22314602A804F0A9FE012D18BF042D52
S315000078F02ED0DFF8F858287C50BB96F82800401E9A
S31500007900032825D811F0B3FFC00723D404F017FCD1
S31500007910074606F02CF980466846FEF7AAFD0822BF
S31500007920311D684604F0D4FE002849D1707B4146DB
S31500007930FFF766FF00283AD004F0F9FB0146012262
S31500007940304600F027F9DFF8B4180020087035E05B
S31500007950702061E00121002008F003FA07005AD1E7
S3150000796011F0E4FF0FF6E4024FF6FF710120FEF777
S315000079707DFC96F826000027C0070ED500220821B8
S31500007980301D04F05FFD40B90822311D03A804F044
S3150000799055FE3088ADF8080006E00822002103A84D
S315000079A004F08FFEADF808708DF8157017E004F03E
S315000079B07CFD02464146304612F08AFD00202BE04F
S315000079C00822694603A804F039FEADF808708DF860
S315000079D0158096F8280002280CBF01270227B078E8
S315000079E08DF80A000320FEF7FFFB02A9384612F0C5
S315000079F074FC07000BD12168012048734FF4A05195
S31500007A000420287405F118000EF0E8FC03E000F0ED
S31500007A1034F8FEF7E9FB38460EB0BDE8F08180B5D4
S31500007A2011F059FF002002BD30B58BB004460D465B
S31500007A302C220021684604F044FE41F60630ADF8DB
S31500007A400000102205F115010DF1020004F0F6FD0B
S31500007A50102221460DF1120004F0F0FD284611F027
S31500007A603AFF684608F0C2F80BB030BDDFF87C0775
S31500007A70007C012818BF00207047DFF87007407CA3
S31500007A80010003D1DFF86C070068007B7047DFF860
S31500007A905C17487470472DE9F843DFF85847DFF85C
S31500007AA04C67777C814688462068317C407B15464A
S31500007AB00A0018BF062900F00F0041D1012818BF9F
S31500007AC004283DD011F0D3FEC00707D5FFF7D5FF38
S31500007AD001281CBF48F6990004F035FB11F0C7FEDB
S31500007AE040F0020011F0D2FE12F020F8484611F0E4
S31500007AF0FBFFC6F82C9020684069400800F00100A2
S31500007B00F07404F0CDFC3075404604F0BFFC8046AE
S31500007B1098B9681E032813D801203074757404229E
S31500007B20494609200FF08BF8804630B100203074AA
S31500007B3096F9140004F0AAFC77744046BDE8F28377
S31500007B407020FBE770B50400DFF8A056DFF8B066DA
S31500007B5008D13078FF2805D005F120000EF034FC5E
S31500007B60002070BD287C58B905F0D8FC3070002084
S31500007B7005F0BEFC214605F120000EF02FFCEFE7D4
S31500007B80702070BDDFF86416002081F82000704771
S31500007B9005F0AEBC70B50546DFF86006DFF8646632
S31500007BA04180144628883081A878F07204F078FC69
S31500007BB0B0720822291D304604F040FD687B3074FF
S31500007BC0DFF83406706103203073200009D111F00C
S31500007BD04EFEC00705D404224FF6FD71002007F0C3
S31500007BE06BFC912004F08EFBDFF800060321017484
S31500007BF0002CBDE8704014BF4FF400614FF40071D3
S31500007C0018300EF0EBBB38B5DFF8E04500202076E3
S31500007C10207C03283FD111F02AFEDFF8E0552978B1
S31500007C20002914BF4FF6FF614FF6FF7108404FF66B
S31500007C30FE71084011F02AFEDFF8B8150120287001
S31500007C40002009684873FFF718FF0328BCBF062009
S31500007C5020740BF07AFEE07C012814BF41F6043153
S31500007C6041F606310020FEF776FDFFF706FF0246D5
S31500007C706988DFF890350020FDF75BFAFFF7FDFE17
S31500007C8003281DDB4FF4006104F118000EF0A6FB7B
S31500007C900720207414E0072806D100202074002154
S31500007CA00120FDF799FB0BE0042818BF052807D132
S31500007CB0FFF7E3FEFEF798FA0020207400F0A4F820
S31500007CC0BDE8314003F0F0BAF0B5DFF820750446A0
S31500007CD0387C012883B00D46164615D101F0C6F84A
S31500007CE0009001962B4622460FF25851002002F0D2
S31500007CF08AFFDFF81415FF28087005D002203874B3
S31500007D00BDE8F7400FF04DB8F7BD70B5DFF8DC44BD
S31500007D10217C94F9140001298AB00BD10021217429
S31500007D2004F0B4FB03F005FA0020FBF771F903F049
S31500007D30BDF964E0022964D104F0A8FB03F0F9F967
S31500007D400120FBF765F903F0B1F91822002103A819
S31500007D5004F0B7FC207DDFF8B0548DF816000C2136
S31500007D60287802F0F8FE8DF81700012303208DF81D
S31500007D7018000DF1170200208DF81C0003A9DFF88A
S31500007D807804089005A8FFF719FD0646002004F0C0
S31500007D90B9FA300007D103AB02224FF4417100203B
S31500007DA0FDF7C7F9064636BB01A80021C0E9001158
S31500007DB02878082102F0A1FF064628780D2102F056
S31500007DC0CAFE0020009008232978002201A802F0AC
S31500007DD0BAFD287802F018FDFF2028700023012242
S31500007DE001A9304612F0D7F94FF4005104F11800FA
S31500007DF00EF0F4FA03E00020207400F005F80120EC
S31500007E0000E000200AB070BD00B585B000F04DF965
S31500007E109DF8030000F0C7F994231322C7A103209D
S31500007E200AF022FD942003F0FEFAFFF726FE03284F
S31500007E3009DBDFF8C003006840884FF6FF7188420F
S31500007E4008BF032000D0022004F05CFA05B000BD94
S31500007E50F8B504460D4616461F4612F0DDFAECB993
S31500007E606846FEF7EEFA932808BF002D07D111F0F9
S31500007E70FEFC00F0020040F0800011F007FD002239
S31500007E8039463046FFF786FE012004F03BFA03F040
S31500007E9050F93046FBF7FBF803F008F9F1BDF0B5F1
S31500007EA004460D46D14E8BB001220021304608F023
S31500007EB0ADFA684611F0F2FC0DF11503002241F609
S31500007EC006314020FEF710FCD04F082206F13001A3
S31500007ED007F11C0004F0B2FB082206F13801381D38
S31500007EE004F0ACFB3C80BD70338DB17C3A4600207B
S31500007EF0FFF7AEFF01200BB0F0BD2DE9F0430446BD
S31500007F000D461646B94F89B09846082205F11C0160
S31500007F1007F1300004F092FBDFF8F49299F80000C4
S31500007F20022803D111F0A3FCC00712D599F800006E
S31500007F30012804D133882A462146FFF789FF022CFF
S31500007F4008D1FFF79AFD032803DB11F090FCC00768
S31500007F5004D479E0FFF791FD032875DA288B12F037
S31500007F6059FBFF2870D005AB424605F110010020F1
S31500007F7012F063FB002867D10E22314601A804F0F7
S31500007F805DFBBDF80C00BDF80A10884204D2002043
S31500007F90ADF80A00ADF80C00BDF80800BDF80610F3
S31500007FA0884204D20020ADF80600ADF80800BDF8FE
S31500007FB01000BDF80E10884204D20020ADF80E0065
S31500007FC0ADF81000BDF81000BDF80E30BDF80A205F
S31500007FD0BDF808100090BDF8060011F01DFC98BB16
S31500007FE0200004BFA878002802D104F05EFAA87029
S31500007FF028222946854804F021FBBC74BC463088FB
S31500008000388505A80FC88CE80F000023AA1C291D77
S315000080102846FFF7D3FB50B90822291D07F138007F
S3150000802004F00CFBA9782888FFF739FF12E020003E
S315000080300AD1042107F1380000F0ECFDF86A754A10
S3150000804003210FF018F905E033882A46214601205E
S31500008050FFF7FEFE09B0BDE8F0837FB5634915461C
S315000080600A7C042A1C461FD100220A760A7410B123
S31500008070FFF7CAFE7FBD04F05AF806467DB100F050
S3150000808014F8082202A9201D04F0D8FA9DF803006E
S31500008090A070BDF80000208005F069FD6073012224
S315000080A031462046FFF776FD7FBD1023072269463D
S315000080B0012000F0D0BC30B583B004460D466846BA
S315000080C0FEF7D7F908226946201D04F001FB80B9A6
S315000080D004F035F8218881420BD105F048FD0146B0
S315000080E0607BFFF78DFB20B1002229462046FFF773
S315000080F051FD37BD80B5012011F0C8FB3B4900207A
S31500008100087401BD70B504460D461646FFF7B5FC6A
S31500008110032811DA4048007870B1AC420CD1B007A0
S315000081200AD5284608F0ACFC30B1007920B9BDE884
S3150000813070403A480EF048B970BD00004242000057
S3150000814010237F221A2104F0F6BB28237F221B214D
S3150000815004F0F1BB10B50C46FFF7F2FF2046BDE870
S315000081601040F2E7024610237F211A2004F026BCB5
S3150000817080B511F07CFB000A00F0010080F00100E0
S3150000818002BD80B511F073FB10F4807018BF01209A
S31500008190C0B202BD80B511F06AFB10F4807018BF42
S315000081A00120C0B202BD1E4909780B2901D03D202D
S315000081B0704710490968887303F02CB80D480068A9
S315000081C0807B704780B517491748086011F04FFB50
S315000081D0C00702D405490620087401BD0C48007882
S315000081E070470B49087000207047000058F70320BD
S315000081F0FF0700F8C0FA032000F8FF0796EB0320FC
S31500008200D6EB032098F70320D7EB0320B0F7032023
S31500008210C9EB03209F7E0000C8FF032024FC032037
S31500008220DAEB0320C4FB032008D8020010B504468D
S3150000823011F01DFB4FF6FD7108402043BDE81040CC
S3150000824011F024BB38343132000000000000000079
S31500008250000000002DE9F04701241128AAB000F023
S315000082604D81142800F05382152800F0B18016289D
S3150000827000F0B380172800F0B6801A2800F0BA8004
S315000082801E2800F0C4801F2800F0C8802C2800F0AB
S315000082907B812F2800F09581402800F065814128D8
S315000082A000F094814B2800F066815C2800F09781ED
S315000082B05E2800F09D815F2800F0A181602800F013
S315000082C0B481612800F0B981662800F0FE81672834
S315000082D000F00B82682800F0B981692800F0CF8190
S315000082E06B2800F01A82722800F0D481742800F0FE
S315000082F01782752800F0DE81762800F0FF81792844
S3150000830000F0BA807B2800F0D9807E2800F07C81BE
S315000083107F2800F084818C2800F07182992800F073
S31500008320E7809C2800F085809F2800F0FC81A22829
S3150000833000F05382A32800F02E82A52800F01982AF
S31500008340B02800F03982B32800F06282B42800F029
S315000083508182B52800F08A82BE2800F08F82BF286D
S3150000836000F08982C02800F0FC82C62800F0C68290
S31500008370C82800F0EB82C92800F09282CF2800F0CE
S315000083805A82D02800F09280D12800F09480D42818
S3150000839000F07782D52800F07982D62800F07B821B
S315000083A0EA2800F0D381EC2800F0EB81F72800F0F2
S315000083B0CC80F82800F0A780F92800F0B880FA28C9
S315000083C000F0BA80FB2800F0C380FD2842D0D1E23D
S315000083D0FBF706FBDFF8A81503E0FBF701FBDFF868
S315000083E0A4150880C7E26846FBF79BFB6846FCF7C6
S315000083F077FFBCE2FBF7C8FA0546FBF701FB00F086
S31500008400D6FA0246314628460EF019FCAFE2684617
S31500008410FBF716FB6846FCF7CDFDA8E2FBF7B4FABE
S3150000842005466846FBF70CFB69462846FCF759FEED
S315000084309DE2FBF7D5FA0546FBF7E2FA00F0B7FA3C
S315000084400746FBF7CDFA03463A463146284606F07C
S31500008450C4FA8CE2FBF798FA694603F0D9FFFBF7FA
S31500008460ACFA9DF80000FBF7A8FA9DF80100FBF7AF
S31500008470A4FA9DF802007AE2FBF786FA694608F04C
S31500008480F4FDFBF79AFA00F08AFA9DF80200FBF772
S3150000849094FA9DF80300FBF790FA00F07CFA9DF839
S315000084A00500FBF78AFA0DF10601F1E0FBF76CFA1D
S315000084B008F007FE5BE208F00CFE58E2FBF764FAF0
S315000084C0694609F0B9F8FBF778FA00F068FABDF8E2
S315000084D00200FBF77EFA00F05EFA9DF80500FBF756
S315000084E06CFA9DF80600FBF768FA9DF807003EE275
S315000084F0FBF74AFA40B203F0C9FF38E2FBF744FA49
S315000085000BF0E3FB33E2FBF73FFA0746FBF73CFAD7
S3150000851000F04DFA8146FBF737FA00F050FA00906A
S315000085206BB24A46314638460EF08AFF1FE2FBF729
S315000085302BFA0EF087FF1AE2FBF726FA00F03FFA55
S3150000854041B228460EF080FF11E20FF009FE0EE25E
S31500008550FBF71AFA00F033FA00F029FA0246314620
S3150000856028460EF073FF02E26846FBF7CFFB68462B
S31500008570FEF74CF8FBE16846FEF74AF8FBF71DFAF2
S315000085806846FBF7BCFBF6E1FBF7FEF96946FBF72D
S3150000859034F8FBF712FA9DF80000FBF70EFA9DF887
S315000085A00100FBF70AFABDF80200FBF712FA00F029
S315000085B0F2F90DF105010820FBF72AFA9DF80D00E6
S315000085C0D5E1FBF7E1F9FAF7FAFF33E0FBF708FA32
S315000085D000F0F5F9014628460BF082FBC7E1FBF7F0
S315000085E0D3F900F0E7F96946284605F0A4F8BEE19C
S315000085F0FBF7CAF9694605F008F9694648E0FBF752
S31500008600C3F905F01AF915E000F0CDF9FBF7BCF94E
S31500008610010018BF0121684605F03CFAABE100F005
S31500008620C2F9684605F018FAA1E100F0BCF96846FF
S3150000863003F02CFDFBF7CDF99DE1FBF7D1F9694677
S3150000864003F03FFDFBF7B9F9694621E0FBF7C8F9EE
S31500008650ADF800000DF1020100F09AF90DF11201DA
S3150000866000F096F9FBF790F98DF822000DF1230141
S315000086700820FBF790F9684607F0B8FA77E16846F4
S3150000868007F050FBFBF799F900F089F90DF10201AB
S3150000869008207DE0FBF778F900F08CF9FBF774F918
S315000086A002A900F075F902AB6A4629460020FEF7DA
S315000086B081FB5CE100F077F9FBF766F9010018BF72
S315000086C001216846FEF732FB51E100F06CF9FBF739
S315000086D05BF9054602A900F05BF9290018BF0121E4
S315000086E002AA6846FEF707FB41E1FBF779F900F0BD
S315000086F061F969462846FEF7CBFF38E1FBF744F9F6
S315000087000146002300220120FEF754FB2FE100F072
S315000087104AF96846FEF775F929E10CF0C3FD2AE12E
S31500008720FEF763FD23E1FBF72FF9054606A9302086
S31500008730FBF731F969461620FBF72DF9280018BF1B
S3150000874001206A4606A911F0D5FF10E1FBF71CF9D6
S3150000875005460AA94A20FBF71EF969462520FBF7BC
S315000087601AF9280018BF01206A460AA90DF056F921
S31500008770FDE0684611F0C5FFFBF71FF9694630209A
S3150000878006E068460DF04FF9FBF717F969464A20EF
S31500008790FBF73EF9EFE0694600F0FAF80FA9302042
S315000087A0FBF7F9F804A92A20FBF7F5F804AA0FA9A4
S315000087B0684611F0AAFFDAE0694600F0E9F816A962
S315000087C04A20FBF7E8F804A94820FBF7E4F804AAD6
S315000087D016A9684611F09BFFC9E006A91620FBF70B
S315000087E0DAF80CA93020FBF7D6F869461520FBF716
S315000087F0D2F86A460CA906A811F081FFB7E0FBF78C
S31500008800EFF800F0DCF841B228460DF0C4F8AEE00F
S315000088100AA900F0BDF8FBF7F3F80090FBF7B4F8EF
S3150000882000F0B2F80DF1150100F0B2F869460AA899
S31500008830FFF7FAF89BE0FBF7E3F80090FBF7A4F8E4
S3150000884000F0A2F80DF1150100F0A2F86846FFF756
S31500008850E6F88CE0FBF7D4F800F0B1F800F0A7F8E2
S31500008860024671B22846FFF716F980E0FBF7C8F812
S31500008870FFF768F97BE011F04BF87CE0FFF778FC36
S3150000888075E0FBF781F8FFF783F974E0FBF77CF8F6
S31500008890FFF7FDF86FE0FBF7A3F8FFF7C7FC6AE008
S315000088A0FBF7AEF8804608A8FBF7C9F9FBF76CF8AA
S315000088B00646FBF795F88146FBF792F80546FBF767
S315000088C08FF8074606A90820FBF765F80BA900F004
S315000088D05FF8FBF795F88246FBF756F80590CDF85A
S315000088E010A00BA803904B4606A80290019700958E
S315000088F0324608A9404610F0BDFB38E0FBF744F8C5
S315000089008046FBF741F8824604A8FBF798F9FBF787
S315000089103BF800F04CF88146FBF749F800F04FF8B9
S315000089200746FBF75DF85FEA0A010246039218BFA5
S31500008930012102975FEA0800019518BF0120CDF8D2
S315000089400090334604AA09F0D5FC10E0FBF71CF8AA
S31500008950694610F06DF8FBF730F86846FBF7ACF99E
S3150000896009E06846FBF76BF9684610F0B7F8FBF7C5
S3150000897024F800E0002420462AB0BDE8F087000075
S315000089809EEB0320A0EB03208DF804000DF10501FA
S315000089901020FBF700B89DF80400FBF70EB8BDF8F1
S315000089A00000FBF716B869460820FAF7F4BF06463A
S315000089B0FAF7EABF054669460820FAF7ECBF05460E
S315000089C0FAF7E2BF41780078FFE700EB012080B2BA
S315000089D070470170090A4170704710B50023040002
S315000089E014BF1C46C3F10304E4B25B1C0A55120A09
S315000089F0042BF4DB10BD30B54A788B78CC78097837
S31500008A0018B120461D460C4602E0154608461A4691
S31500008A1045EA002044EA022141EA004030BD002038
S31500008A20704700B102207047012070470020704750
S31500008A300020704710B5044602F05CFB48B10FF207
S31500008A40801000E0801D017919B10188A142F9D199
S31500008A504488204610BD2DE9F04182B004460D46FB
S31500008A601646984602F046FB074654480178FF2909
S31500008A7017D04078B84214D100220FF2441002E019
S31500008A809A18D2B2801D03795BB1B0F800C0B44524
S31500008A90F6D184F0010300930379284601F053FFD1
S31500008AA01DE03046FFF7C6FF064607B17F1E002CC5
S31500008AB0434607D0FAB23146284602B0BDE8F04137
S31500008AC003F039BF2A46F9B203F078FF02F031FB12
S31500008AD030460AF04BF8BDE8F34102F0E7BABDE8CC
S31500008AE0F3812DE9F04389B0074602F003FB002528
S31500008AF006000FF2CC0421D0761E1FE02088FFF777
S31500008B0099FF804694F80490380005D04B46F2B29F
S31500008B10414601A803F00FFF2848017800974B460D
S31500008B20EAB201A801F00FFF380005D14B4601AAB1
S31500008B30F1B2404603F042FF4D44A41D20790028BF
S31500008B40DCD109B0BDE8F08310B51C4C2078FF28B5
S31500008B5001D1702010BD0020FFF7C3FF207801F07F
S31500008B6053FEFF2020706070002010BD10B5134C1E
S31500008B700FF24C0062780021FF2A04D0702010BD4D
S31500008B805118C9B2801D02791300F9D1002001F0F5
S31500008B90BEFEFF28207007D002F0ACFA60700120FC
S31500008BA0FFF79FFF002010BD182010BD0348007876
S31500008BB0FF2801D10120704700207047EAEB03200F
S31500008BC007000E001000080010001A0006000D0035
S31500008BD0110002000F001100040013000400010040
S31500008BE0010004000900110008000A0012000A0032
S31500008BF00B001400020000000000000080B50023F6
S31500008C0000931346012211F0BDFD01BD00F08CBE9C
S31500008C1000F08ABE10B54C00014600F026FD224643
S31500008C2011F08FFDA04201D0002010BD012010BD23
S31500008C3080B500F01AFD11F012FE00B10120C0B29D
S31500008C4002BDDFF8280B407D00B101207047DFF838
S31500008C501C2B117B01B9704780B50146106A11F0D3
S31500008C6054FE20B1BDE8044040F27111C6E201BDD8
S31500008C7080B500F0FAFC11F05DFD00F0030003285A
S31500008C8001D1012002BD002002BD80B5B0F5004F24
S31500008C9007D100F012FEDFF8D80A00F0CFFCBDF8CD
S31500008CA00000DFF8941BC883002002BD2DE9F04FB9
S31500008CB0440900F01F050027DFF8808B00E07F1CC9
S31500008CC098F80660F8B2B04236D2D8F80800FFB27B
S31500008CD050F827004FF0000C01E00CF1010CC67EA5
S31500008CE05FFA8CFEB645EAD2D0F81CE05FFA8CFC3F
S31500008CF0142616FB0CF6B6449EF8086006F0070626
S31500008D00A642EAD19EF80960B542E6DB9EF801B0BC
S31500008D109EF8009006EB0B0AAAEB090AAA45DCDBD3
S31500008D2011B1AC1B4C440C7012B19EF808101170B6
S31500008D301BB1C3F800E000E00020BDE8F08F400959
S31500008D4018BF40F01800704710B5DFF8104B206AC6
S31500008D5011F085FD0246206ABDE81040002111F0A1
S31500008D609ABD0B38102834BFDFF8D40ADFF8F00AB2
S31500008D70006870473EB568460021002200230EC0F9
S31500008D80DFF8AC0901788DF80010817A0A0018BF67
S31500008D90022914D10079DFF8C45A00F0BBF8044662
S31500008DA000F00EF858B1286A0122002111F0C4FC27
S31500008DB000F006F818B140F25B2100F06DFB37BDFC
S31500008DC0286A6A46214611F0FEBC2DE9F0410446A8
S31500008DD004F01F001B2886B034D2002000906B469A
S31500008DE0002200212046FFF761FF07002AD0204617
S31500008DF0FFF7B7FF5FEA000824D0DFF87069DFF8F5
S31500008E00385AF06B804515D001A8414606220CF071
S31500008E10EDF9306AC6F83C8001A911F0D8FD88B991
S31500008E20306A03A911F0E1FDB5F91C10306A11F0A2
S31500008E30A9FD38B90098B06277620098002818BF7B
S31500008E40C06801E08A200EE0F06229798C421CBFDE
S31500008E502C71FFF78FFF96F90D00C101306A09B238
S31500008E6011F07EFF002006B0BDE8F081DFF8C809EA
S31500008E7000797047DFF8C009B0F91C00002854BF1C
S31500008E8005216FF0040108180A2190FBF1F040B2A9
S31500008E9070470A2110FB01F0FFE7F8B500F5D7721D
S31500008EA040F277239A4201D38B20F2BDDFF8BC480B
S31500008EB0DFF88459A26A0A23002A1EBFAE7F06F095
S31500008EC0C006802E12D0A67B86B992F9026016FBE8
S31500008ED003F7B842B8BF16FB03F007DB92F903208D
S31500008EE012FB03F68642B8BF12FB03F0217B61B189
S31500008EF00146206A11F046FD18B140F2B92100F092
S31500008F00CBFA206A11F051FD01E010FB03F0A883B3
S31500008F100020F2BD38B50446FFF723FF90B10023C9
S31500008F20002200212046FFF7C1FE58B104F01F05BC
S31500008F301B2D07D22046FFF702FF18B90B2D01DBC8
S31500008F40284632BDFF2032BD0FF208014008085CFA
S31500008F5070470000504030007047C0B2704710F1B3
S31500008F60630F01DA0020704710F1240F01DBFF20A8
S31500008F70704764300002411100EB91608004000EDE
S31500008F80704770B5DFF8E447DFF8C05A0020206468
S31500008F90687828B111F0E8FE012818BF032801D12E
S31500008FA0002070BDE16ADFF8A83ADFF88C280029B6
S31500008FB01FBFA66A3669002E022817D1236490695E
S31500008FC000F5FA709061E07C18B10020002164225F
S31500008FD003E0E87829794FF4A0722070A2806170CE
S31500008FE0A878A0708020E080002030E0DFF8645A86
S31500008FF09069AE4213D1DFF8603A236400F57A70C7
S315000090009061E07C88B90879207001228B78087914
S315000090109A40101891F903201018401E0CE02364A2
S3150000902000F5FA709061E07C18B100202080642081
S3150000903005E0487820708878607008780001A08084
S315000090404879A07008890001E080C8880001A06006
S3150000905000F039FCE07094F90200010048BF40427C
S31500009060C0B270BD70B50446DFF80067257896F982
S31500009070140008B18C2070BDFFF783FFB075DFF8D0
S31500009080CC29DFF8B40741780174690101F58071D4
S3150000909081619379716C002BB37B1DBFAD1EEDB260
S315000090A021F0020141F0020173B9127862B16278CF
S315000090B0920609D56FF00102327541F0010182690D
S315000090C002F50872826104E049084FF0FF3049005A
S315000090D030757164032000F007F96A1C306A4FF49A
S315000090E0807392B2214611F068FE691C884203DA49
S315000090F040F21B4100F0D0F9002070BD00000000D6
S31500009100F8B5DFF8685695F914100024091D0429EE
S315000091100FD8DFE801F0080E10100300FFF7A2FFDA
S31500009120040008D0F2BD2C75286A11F009FB8D20C9
S31500009130F2BD8C20F2BDFFF779FCE8B1286CDFF8B0
S315000091401019884218D1A87DB0B1DFF8A00A0068CE
S31500009150002811D5DFF8D00AC168C1600122006875
S3150000916000F00F0002FA00F0401E014204D100F0A8
S31500009170F1FB642002F0F1FB11F03BFE064695F987
S31500009180140010F1010F1CBF95F9140010F1020F25
S3150000919029D195F91400DFF8A0764042287511F020
S315000091A02FFE7862296C387949B9FFF7B3FE01467C
S315000091B06A6C286A07F1100311F0F4FA0BE0FFF766
S315000091C0A9FE07F11001009101466A6C286AD5F8DC
S315000091D040C02B46E04760B1002028758C244FF034
S315000091E0FF30786202E0002028758D24286A11F08D
S315000091F0A7FA304611F075FE2046F2BDDFF8700A78
S3150000920003F088BA2046BDE8104011F06ABEDFF8C8
S315000092102806C08B70470000F8B511F0EAFDDFF8AC
S3150000922010550446A87A012803D1204611F059FEAC
S31500009230F1BDDFF8401ADFF83465DFF8347A4020F4
S3150000924008600122306A012111F076FADFF8281A47
S315000092504FF40010086069460FF28800006800901D
S31500009260306A11F071FD20B140F2C741384603F073
S3150000927051FA02208DF800006946306A11F041FD6E
S3150000928020B140F2C941384603F044FA306A11F081
S3150000929075FA0021002011F027FE00F045FB0120A1
S315000092A0A87296F91400001D072810D8DFE800F010
S315000092B0140F0707040B0B0B11F0D0FF0CE06FF037
S315000092C00300307508E0892000F079FB04E040F2E5
S315000092D0ED41384603F01EFA204611F002FE12F068
S315000092E06FF8F1BD040100002DE9F04DDFF84054A0
S315000092F00446A87AA04282B063D00FF2CC01DFF810
S315000093007C690968DFF86889DFF86074DFF868A9A6
S31500009310009103284FF4001B4FD8DFE800F0470206
S315000093203E2B12F056F8386A694611F00DFD18B159
S3150000933040F20A5100F04AF802208DF80000694612
S31500009340386A11F0DEFC18B140F20C5100F03EF81C
S315000093506879002814BF00220222386A022112F01E
S3150000936075F818B140F2115100F030F80320032CC3
S31500009370A87218D0CAF800B00220A8722879FFF7A0
S31500009380C9FD0146386A002211F01DFA18B140F2F3
S31500009390215100F01BF8022C13D0002C18BF032C0F
S315000093A00FD10020A872C6F800B00AE0022C08D13E
S315000093B0CAF800B00220A87203E040F2375100F06C
S315000093C005F8BDE8F38D000004020000404603F0F6
S315000093D0A1B9002088E7DFF8AC0A807A7047000060
S315000093E0032805D8DFE800F00302030314E77BE750
S315000093F040F2555102E780B500F00FF804D5002180
S315000094000175006A11F09CF9DFF8780A407A0128A4
S3150000941002D1BDE80140FFE601BDDFF86C0A90F914
S31500009420141000297047DFF85C0A407A704780B54F
S31500009430032801DB012002BDDFF8481A4872897A49
S31500009440884218BFFFF7CCFF002002BD2DE97C4FF4
S31500009450DFF8346A03EA010BD6E9068929EA010531
S3150000946028EA000402EA000A45EA0B0544EA0A046F
S315000094704D4508BF44450DD0CDE900230246306A6C
S315000094800B4611F063FC18B140F27D5100F004F870
S31500009490C6E90645BDE8738F0FF6242003F03AB9F6
S315000094A038B5B24D0446287BE8B1200018BFDFF876
S315000094B0DC2904D1A87C08B1402200E00022002368
S315000094C0DFF8C8090021FFF7C1FF002C14BF0822EE
S315000094D00022286A082111F0B9FF20B1BDE8344006
S315000094E040F2B9518AE631BDF8B50446022C0FF6B2
S315000094F0D01503DB40F2E25100F0A5F89B4E307B1D
S31500009500002840F097808A4FB87A012803D04FF49C
S31500009510BD6100F098F8002107F1280011F0FAF873
S31500009520306218B940F2EB5100F08DF8306A05212F
S3150000953011F0A5FA18B140F2EE5100F084F8306A45
S315000095400FF6901111F094FF18B140F2EF5100F0B0
S315000095507AF8306A11F0C0FF18B14FF4BE6100F01E
S3150000956072F84FF0FF30DFF8282906230146FFF78F
S315000095706DFF306A4FF0011111F09FF918B140F2FA
S31500009580056100F060F8306A4FF48032002111F076
S3150000959082F9306A09224FF0FF3111F057FF18B1F6
S315000095A040F20C6100F04FF8012030730223DFF81F
S315000095B0E40800F043F8BDF80000C0054CBF0020E9
S315000095C0BDF800007073FFF731FAFFF769FFF88BFB
S315000095D0FFF75BFB12F000F800F085F83879FFF72B
S315000095E0F4FB18B140F21F6100F02DF8F87900F095
S315000095F040F8387A00F058F8307C00F086F8787930
S3150000960000F0CCF800F05FF900F02CF9B07C00F027
S315000096101BFBB7F91C00FFF740FC388C00F08AF8FA
S31500009620788C00F0A7F8B87900F00DF9601E80413B
S31500009630C00FB8722046FFF7D3FEF1BD01887F2226
S31500009640684603F031BA284603F064B880B500F0E6
S315000096500CF8012111F0BAF810F5007F02D16FF075
S315000096607F0002BD8005001602BDDFF81C08006AF7
S31500009670704710B504463D48017B51B1611E8941D2
S31500009680006AC90F11F07AFF18B140F25A61FFF76C
S3150000969003FF2000DFF8EC1718BF0120C87110BDCA
S315000096A0DFF8E007C0797047F8B5044611F0A1FB72
S315000096B005461F482D4E0472377BFFF7C2FA00F0AD
S315000096C0010080F00100074204D0306A84F00101F5
S315000096D011F0D4FF2846BDE8F24011F002BCDFF8D5
S315000096E0A407007A70472148017B01B9704780B50D
S315000096F0006ADFF8A417002211F02DFF20B1BDE8A3
S31500009700044040F2856179E501BDDFF87C27117BD5
S31500009710107401B9704780B50146106A11F022FF36
S3150000972020B1BDE804404FF4D26167E501BD0000F9
S3150000973040E903204049DFF850370884197B01B916
S31500009740704780B50146186A002211F0FDFE20B16F
S31500009750BDE8044040F2A16150E501BDDFF82407F1
S31500009760008C7047DFF81C07408C704748ED0320DB
S31500009770BADA02003049DFF810374884197B01B99C
S31500009780704780B50146186A002211F0D6FE20B156
S31500009790BDE8044040F2B76130E501BDDFF8E416EC
S315000097A04A79824200D1704710B58C7A4871012CF3
S315000097B005D0FFF731FD2046BDE8104094E510BD09
S315000097C010B500F032F800F02BF80146206A0122AD
S315000097D010F0F1FF20B1BDE8104040F2D9610DE56F
S315000097E010BD80B5FFF741FF10F0E8FF18B140F259
S315000097F0DE61FFF751FEBDE80140FFF7BBBA10B5C9
S3150000980000F013F800F00CF80146206A002210F070
S31500009810D2FF20B1BDE8104040F2E961EEE410BD90
S31500009820DFF860060079FFF775BBDFF85C46206A53
S315000098300122012110F080BF40E90320F8D7020081
S315000098400CE90320CDE710B50446FFF70EFF2146CD
S3150000985011F01AFFDFF82C06847110BD48ED0320C5
S3150000986010E9032038B504467F2C0CD100F025F80A
S31500009870DFF82806FFF7E2FEBDF800007E24C005EB
S3150000988058BFBDF8004011F0B4FA0546FFF7D9F904
S3150000989060B960B27E2805D1DFF8EC15896A09B196
S315000098A091F904007E28B8BFFFF7D1F9DFF8D40597
S315000098B00473284611F015FB31BD4FF6FF70ADF865
S315000098C0000002237047DFF8BC0590F90C007E28E3
S315000098D007D1DFF8B405806A08B97F20704790F990
S315000098E00400704710B5FFF7A3F880041AD500F0FE
S315000098F02BF8FFF79DF8C0044CBF03200120002180
S3150000990011F0C5FEFFF794F800F0FF004FF47A71EE
S3150000991011FB00F104F14800BDE81040DFF8802596
S31500009920FFF76CB9BDE8104010B500F00DF804F172
S31500009930480010F030FFFFF79BF920B9BDE8104052
S31500009940002111F0A4BE10BDDFF83C4504F1600013
S3150000995010F021BF80B5FFF76BF84005BDE8044065
S315000099604CBF03200120002111F0BEBA10B5DFF86C
S31500009970184594F9140003280DD100F02DF9DFF8ED
S3150000998004154FF0FF3048620022216BBDE81040FD
S31500009990402011F0D6BA10BD38B50446FFF7C4FF13
S315000099A0DFF8E45411F03DFA686314B111F0F5F9EB
S315000099B001E000206874BDE8314011F04FBC38B5B5
S315000099C00446DFF8C014DFF8C0544FF0FF30486299
S315000099D011F027FA686395F91400012802DABDE848
S315000099E031407FE7A87D08B1686BA86300F062FA92
S315000099F0A87B10B10120E87331BD2046BDE8384090
S31500009A000022002111F09DBA10B5FFF70FF8DFF81C
S31500009A10784498B1FFF72CF980B104F1480010F0B2
S31500009A20BAFE11F036FE002111F031FEDFF8742483
S31500009A3042F2107104F16000FFF7E0F8A07C18B163
S31500009A40BDE8104000F055BA10BD0000F0EA032052
S31500009A50ABA70100F09E0000B1A701002DE9F0437D
S31500009A60DFF824440FF25849206A89B005AA02217A
S31500009A7011F0A6F9050003D140F6E70100F0A9F8B8
S31500009A809DF81400DFF8FC63BDF8168007281CBF9C
S31500009A907079002819D1B8F1060F16DB08F1080015
S31500009AA08B2812D2002000904346DFF8FC73206A10
S31500009AB03A46294611F08CF9404503D04FF410611F
S31500009AC000F087F83878000602D5FFF70BFF7DE037
S31500009AD001208DF80800CDF804806A46206A2946E0
S31500009AE011F072F918B140F6171100F072F8787893
S31500009AF000F0070002281ED1FFF716FF94F91400A4
S31500009B00032808BFB8F1060F11D19DF80D0070B1FA
S31500009B107878000900F0010500F05EF84FF0FF309C
S31500009B2070622A4600218F2011F00BFA4EE0F07980
S31500009B3000284BD105E09DF80D0010B10020FFF77D
S31500009B4015FFF0799DF80D10084203D040F63F113D
S31500009B5000F03FF8F07958B17878800608D5307A69
S31500009B6030B1206A11F08DFD30B1FFF7BBFE03E086
S31500009B70FFF7DAFE002060743878401C404503D0B9
S31500009B8040F65F1100F025F807EB080530792870DC
S31500009B9001F019FB68709DF80E00A87095F9020097
S31500009BA0FFF7DDF9E87008F10801FF202871C9B256
S31500009BB00098000C68710098000AA8710098E87176
S31500009BC03846627C11F005FB0020607409B0BDE8E0
S31500009BD0F083484602F09EBD00202075206A10F0F2
S31500009BE0AFBD0FF2E42002F095BD0000044008402E
S31500009BF010B5A448446A002C14D411F001F9001BD6
S31500009C0040F2E93180B288420CD39F4890F91400A3
S31500009C10032803D1BDE810400020A7E6BDE81040A8
S31500009C208920CCE610BD00004C50084010B540B964
S31500009C3011F0B4F811F0DDF80446FFF7D9FFFFF78D
S31500009C40E1BABDE81040D3E738B58F4D0446287B0E
S31500009C5060B1200002D1FEF7E9FE08B1402200E023
S31500009C600022002340200021FFF7F0FBAC7431BD39
S31500009C70C09E000008400840186008461860084466
S31500009C802DE9F04781461446600688B0984648BFDD
S31500009C90002002D4200602D50120FFF7B5FEA0035E
S31500009CA0794D25D5002068746946484611F07BFC3D
S31500009CB0F0B99DF8080002280ED1BDF800000DF09D
S31500009CC0C9FBFF280ED07949096831F810004FF416
S31500009CD0E661084206D10BE0032809D168460DF07B
S31500009CE02CFC28B1286A11F05BFC08B901206874C5
S31500009CF0600410D5FEF79AFE68B1FEF7B9FF50B1C1
S31500009D0011F0C9FC064611F0C4FC864203D00021BE
S31500009D10304611F0BCFC200744BF4846FFF79EFEC4
S31500009D20E00548BFFFF7DEFD4FF41850044218BFA8
S31500009D30FFF7FAFDE00244BF0120FFF72DFE6002A7
S31500009D4044BF0120FFF728FEE00144BF0020FFF7D3
S31500009D5023FE95F914000FF2681A012864DB286ABD
S31500009D60484E21034FF0FF3730D595F914100129DD
S31500009D705ADB95F91410032956DA00218DF81810CC
S31500009D8001218DF8141003A910F032FE0398286300
S31500009D9011F047F86863A87D08B1686BA86395F968
S31500009DA01400012804D002280AD1032028753BE0BC
S31500009DB000F080F87762A87BA8B9296B002218E02A
S31500009DC04FF40161504602F0A5FC2DE014F0845FCB
S31500009DD012D00021297510F0B3FC042010F0DFFF2B
S31500009DE07762A87B10B10120E8731DE000220021F4
S31500009DF08D2011F0A6F817E0A00248BF892002D4F2
S31500009E00A00103D58820FFF7DAFD0DE0600048BF0A
S31500009E10FFF7A0FDA00007D525480068400403D43D
S31500009E200021002011F060F8A00744BF4846FFF764
S31500009E309DFD002C04D5FFF777FD4846FFF796FDFC
S31500009E4008F002010023994212D0484610F070FC37
S31500009E50022802D0032802D005E0892000E08D20E8
S31500009E60FFF7ADFD04E040F67B01504602F052FCE0
S31500009E7008F004010023994218BF11F00FFC08B046
S31500009E80BDE8F08740E9032048ED03204067006005
S31500009E900A00FA93BEDA020034F90320C0DA02009F
S31500009EA00D8C0000118C000074F6032060E803207E
S31500009EB00440084000202875286A10F041BC0000C4
S31500009EC07068792E630000006C69627261696C2E9D
S31500009ED061000000000000000100600301010101B3
S31500009EE06400B6006400C000000000000B00000023
S31500009EF00000704700B10220704701207047012022
S31500009F00704700002DE9F6410546DDE900010146EE
S31500009F1028460CF09FFC284602F0C8F9074628465A
S31500009F2002F0D2F900213A469DF80040024203D1E0
S31500009F3087F00102104301D1019801782E464FF6B1
S31500009F40FF780FB3212E1FDA422002294A4A0ADA85
S31500009F5010FB01F0104430F81610414514D0491C8E
S31500009F6020F8161010E00FD1002102EB460300FB8B
S31500009F7001F733F807E0C6451CBF0EF1010E23F8C2
S31500009F8007E0491C0229F2DB3C4B3D4933F8160039
S31500009F9031F8167087429241D243D20F47451CBF13
S31500009FA07F1C21F81670092E9F8A18BF0B2E07D129
S31500009FB08B8A04EB030EBE4510DAE3188B820EE0A3
S31500009FC01D2E0CD1B1F83AE05B8FA6449E4505DA0A
S31500009FD031F81630E31821F8163000E08F8231F898
S31500009FE01610814203D312B9284608F0B7FD0027A0
S31500009FF00FF2A400C15DA94204D07F1CFFB2112F4D
S3150000A000F8DB20E0112F1EDA01F0BDF805461D48E9
S3150000A0100078854204DBD7210FF2700002F07AFB4C
S3150000A0202221194811FB05F1084430F81710414563
S3150000A0301CBF491C20F81710092E18BF0B2E02D181
S3150000A040818A09198182BDE8F38180B550220021F9
S3150000A0500B4802F036FBBDE80840442200210A48BE
S3150000A06002F02FBB5022FF21044802F02ABB034A0C
S3150000A07022F810107047000020FA03208CF9032004
S3150000A0803CF90320B8EB0320DCF90320636F756EFF
S3150000A090746572732E63000000010203040506074F
S3150000A0A008090A0B151618191A0000009C480078B2
S3150000A0B070479B4900F001000870002070472DE9A9
S3150000A0C0F04106460CF0BBFA8046FEF77BFC0446E0
S3150000A0D040460CF0FFFA18F8005030460CF0A5FA8E
S3150000A0E0074640460CF0F6FA8E490968895DC91B99
S3150000A0F0091AFF22A00548BF122208D47C2D08BFEA
S3150000A100032204D0092D3CBF0FF21C20425DC9B2C8
S3150000A11091428041C043C00FBDE8F08170B504464E
S3150000A12004F014FF054620460CF089FA40784007F3
S3150000A13014D500F068F858B100F0A1F80646691C7D
S3150000A140C9B200F09DF82EB1B04203DBFF2801D062
S3150000A150002070BD05EB4600851CADB229462046A1
S3150000A160BDE8704004F00ABFF8B5044604F0CDFF20
S3150000A170054620460CF063FA064600F044F800282F
S3150000A1803FD000F07CF80746691CC9B200F078F8A9
S3150000A1900E2F36D20FF29C11C95D6D18ADB242007A
S3150000A1A005F10801012F89B20AD0022F0CD0052F24
S3150000A1B011D0082F14D0092F18BF0A2F15D01EE072
S3150000A1C080061CD50D461AE0C20648BF0D4680061D
S3150000A1D015D5083512E07078C00612D555190DE070
S3150000A1E000F01F0000EB400007E010F0E00008D18F
S3150000A1F0092F0CBF02F03E0002204519ADB22946D8
S3150000A20064E00020F2BDA91C89B2204604F0B6BE67
S3150000A210F8B5044604F079FF0546691CFFF7F4FF1C
S3150000A22058B300F02CF8064606F00C00042806F099
S3150000A230030722D0022F00D1F8B9304604F093FF6D
S3150000A2402D183006ADB212D5691CFFF7DDFFA8B197
S3150000A250E9B200F015F80146012F1CBF01F003001A
S3150000A26003280AD0304604F08EFF2D18ADB22946D9
S3150000A270204604F083FE010000D10020F2BD2946ED
S3150000A280204600F068BCF8B5044604F0C1FF054658
S3150000A290FFF7B9FFC0B1FFF7F2FF0646112E13D242
S3150000A2A00FF2A000805D691CC9B24719FFF7E8FFED
S3150000A2B0052EFFB206D1062806D20FF29C01085CD5
S3150000A2C0C719FFB2394601E00020F2BD2046BDE8BD
S3150000A2D0F44004F053BE70B5114A0FF284031278AD
S3150000A2E004460020002A02D1012070BD401CC0B2E5
S3150000A2F0024613F832502E0009D0AC42F6D1084679
S3150000A30003EBC20149688847010001D070BD0024F3
S3150000A31022464FF6FF711E2001F09AF8002070BD0C
S3150000A320E7EB03204CE80320FF0204FF01010101D3
S3150000A33008000000FF06080402020204020A0B03DA
S3150000A34003020000FF00000000000C0902020000EA
S3150000A35000001C1A0B0000000023001B2200000056
S3150000A36001000000BFA00000020000001DA10000C7
S3150000A3700300000069A100000400000011A2000013
S3150000A3800500000087A20000000000000000000099
S3150000A3902DE9F0479F4DA04C0E468046297888B09F
S3150000A3A0207898F800A088420CBF0127002768464D
S3150000A3B001F094F8A84508BFFF2E0AD197492878DE
S3150000A3C089682522B1FBF2F10E18B6B2FF2EC8BF7E
S3150000A3D0FF2688F8006000F041F806000FF20C39FD
S3150000A3E008D088F800A000F039F818B17321484663
S3150000A3F002F090F9DFF828A27FB111F01FFA0746A4
S3150000A40011F020FA3A1A92B20021504602F059F998
S3150000A41000F058FC2878207015E08248046811F096
S3150000A4200DFA074611F00EFA381A001B0AEB000265
S3150000A43092B20021204602F044F9A84503D17F21BB
S3150000A440484602F067F900F0B7FD684601F061F88A
S3150000A450F6F79BF8304608B0BDE8F0872DE9F843DB
S3150000A460714FDFF8BC8111F0E9F9054611F0EAF900
S3150000A4706E496F4BC1F80080281A6649097808EBC7
S3150000A48041121A600A446B4B1A600A446A4B1A60FE
S3150000A4900A446A4B1A605318604A5D186149536052
S3150000A4A00D604044664909784E1C760405EB164556
S3150000A4B0644E356005EB41053D6005EB8105624F55
S3150000A4C03D600D44614F3D6005EB4106604D2E60D9
S3150000A4D0604D2F78062515FB07FC1FFA8CF31E44EA
S3150000A4E05D4B1E60CB1DDB1017FB03F7BFB23E446E
S3150000A4F05A4F5B4B3E605B4F3F7806EBC7065A4FA1
S3150000A5003E605A4F3F7806EB8707594E37600C2658
S3150000A51093F800C016FB0CFC1FFA8CF307EB030E36
S3150000A520544FC7F800E00E23534F97F800C0482752
S3150000A53017FB0CF4A4B2A644504CC4F800E0504CEF
S3150000A54024780CEB040913FB09F91FFA89F39E44DE
S3150000A5504C4BC3F800E00B1963449B044A4C0EEBCA
S3150000A56013432360494C00F0B9F8494C2360494C29
S3150000A57000F0B4F8484C2360484C247817FB04F7E5
S3150000A580BFB23B44464F3B602C24464F3F7814FBFA
S3150000A59007F7BFB23B44444F444C3B60444F3F78BF
S3150000A5A003EB470323603B44424F3B601944424B55
S3150000A5B01960424B1B7873431944414B1960414B58
S3150000A5C01B786B431944404B1960404B1B7801EBD9
S3150000A5D083013F4B19603F4B1B7801EB83011378D6
S3150000A5E01D0008BF002504D05B1C0D465B0401EB73
S3150000A5F01341394B88422CBF414535201D6006D397
S3150000A600411A91600FF2F80008F029F90020BDE820
S3150000A610F2830000B0EB0320B1EB0320D4FA032051
S3150000A620000000205CE8032064E8032048E80320DB
S3150000A6304CE8032050E8032054E8032058E80320A0
S3150000A640B3EB032060E8032068E803206CE80320EE
S3150000A65070E80320B4EB032074E8032078E80320B5
S3150000A660B7EB0320B5EB03207CE80320B6EB032011
S3150000A67080E8032084E80320B8EB032088E8032061
S3150000A680B9EB03208CE8032090E80320BAEB032003
S3150000A69094E80320BBEB032098E80320BDEB0320DE
S3150000A6A09CE80320A1FF0320A4E80320A8E80320D8
S3150000A6B0A3FF0320ACE80320B0E80320BEEB032091
S3150000A6C0B4E80320BFEB0320B8E80320A5FF03206E
S3150000A6D0A0E80320A2FF0320BCFB032094F800C0DF
S3150000A6E015FB0CFC1FFA8CF4234470476D656D6FE7
S3150000A6F072792D616C6C6F636174696F6E2E630085
S3150000A70052656D61696E696E67206D656D6F7279F0
S3150000A7103A2025642062797465730000DFF81C17FF
S3150000A720096801EB40107047DFF8142712681154CE
S3150000A73070472DE9F041040035D010F05AFBDFF8E0
S3150000A7400417DFF804370E78FF228046FE2EDFF866
S3150000A750FC061BD100260E70DFF8F4C6DFF8F4669F
S3150000A76037781F70002708E007F1010E05F807E0AB
S3150000A770DCF80050EA555FFA8EF796F800E00568B7
S3150000A7807745F1DB05EB0E0606F8012C1E78A6428E
S3150000A7900BD2404610F0A5FB052008F064F8002116
S3150000A7A01B2000F04BFEFF201EE0361B1E70DFF85C
S3150000A7B0A8360E780F78D3F800E001250EF807507A
S3150000A7C0641E056815F807E081F800E05FFA84FE6C
S3150000A7D0BEF1000FEED1EA5500213046FFF7A4FF87
S3150000A7E0404610F07EFB3046BDE8F08110B50446C9
S3150000A7F010F0FFFADFF8601609680A5D521C0A5568
S3150000A800BDE8104010F06DBB2DE9F041054600F0A3
S3150000A81031F8044610F0EDFADFF82826DFF828367E
S3150000A820DFF82866DFF83086FF2D1FD0D8F8001035
S3150000A8304F5D7F1E4F557F27D8F800E01EF80510A4
S3150000A840394213D13168495D00270EF805701F782B
S3150000A8507F1C1F70FF29376892F800E007F805E0B3
S3150000A860157006BF2546FF240D46DDE7BDE8F0411D
S3150000A87010F037BB80B5DFF8E0150968095C0906FA
S3150000A88003D5FFF74BFF007802BDFF2002BDB0B530
S3150000A89004460D46FFF7EEFFFF2818BFFFF7B4FF8B
S3150000A8A0FF2DDFF8B47504D13868015D01F07F0132
S3150000A8B006E02846FFF79AFF3868015D41F08001FF
S3150000A8C001552046FFF72AFF0570B0BD0EB478B5D6
S3150000A8D004460120FFF72DFF0546FFF71FFF06463A
S3150000A8E0FF2D08BFFF200FD0E1B22846FFF71CFF5F
S3150000A8F005A8002104E050F8042B06F8012B491C9A
S3150000A900C9B2A142F7D3284672BC5DF810FB70B5F8
S3150000A91004460D4605F11F000004400D82B0C0B28A
S3150000A920FFF707FF0646FF2E0CD02946FFF7FCFE71
S3150000A9303CB1012000902B4600223146204600F013
S3150000A94002F8304676BD73B500F0D0F8405C154687
S3150000A9501E467119884203DA40F2651100F0EBF8E1
S3150000A96030000CD0294601A800F0E9F80246069806
S3150000A9709DF8041000903346204600F001F873BDA0
S3150000A9802DE9F843089CDFF8C48405468946164637
S3150000A9901F460BE06A5C4254491CB142FADBD8F808
S3150000A9A00000BF1BAD1910F809900026F8B2D0B10F
S3150000A9B04846FFF7B3FE801956FA87F12029B9BF3A
S3150000A9C0FFB23E46C6F12006F6B22100324604D159
S3150000A9D00146284601F032FEE1E7012C08BF294670
S3150000A9E0F8D00021D9E7BDE8F1832DE9F04100F068
S3150000A9F07DF882B0055D884616467119C9B2A9422E
S3150000AA001F4605DB30000CD0204600F05DF808B18B
S3150000AA10182007E0009733462A4621464046FFF7AE
S3150000AA2092FF0020BDE8F6810123DEE70A4600E03A
S3150000AA30521C1378002BFBD1521A0223D2B2D4E750
S3150000AA402DE9F041054601F11F00C70402F11F0080
S3150000AA50C0043F0E000E07B9012700B90120874246
S3150000AA602CD0DFF8E8431BDAC01BC0B2FFF761FE4B
S3150000AA708046B8F1FF0F08BF002020D07F1E00F0EF
S3150000AA8020F82668305CFF2804D000F01AF8305C05
S3150000AA90FFF7BAFE00F015F8216801F800800DE016
S3150000AAA08A420BD2411EC9B200F00CF80546206856
S3150000AAB0405DFFF7A9FE2168FF2048550120BDE84B
S3150000AAC0F081F9B2284616E038B500F00FF80D46C9
S3150000AAD0015D2A462046FFF7B3FF28B129462046E6
S3150000AAE0FFF722FE002032BD182032BD0446DFF8F3
S3150000AAF050030068704704E0DFF850231268105CCA
S3150000AB00491ECAB2002AF7D1704711B50C46DFF8C4
S3150000AB103013096881B0095C8C4203D340F20121ED
S3150000AB2000F009F8214601A800F009F8044600F0F3
S3150000AB3033F9204416BD0FF2483001F0EBBD38B5AD
S3150000AB4004460D46E9042078090EFFF7D4FF20706D
S3150000AB5005F01F0032BD80B5FFF7D7FF007802BDB4
S3150000AB6010B51446FFF7D1FF047010BDB0B5FFF75E
S3150000AB70BDFF82B0055DFF2C03D140F22121FFF716
S3150000AB80DAFF05F11F000004400DC0B2FFF7D1FD4A
S3150000AB900746FF2F0AD02946FFF7C6FD009500237A
S3150000ABA022460021384600F0C6F83846B6BDF8B54C
S3150000ABB004460D4616460120FFF7BBFD0746FFF784
S3150000ABC0ADFDFF2F01D1FF20F2BD33462A462021DD
S3150000ABD0204400F020F82118C9B23846FFF7A4FD3A
S3150000ABE03846F2BD10B582B004AC009400F001F80E
S3150000ABF016BD10B514461A46029B2044091BBDE833
S3150000AC001040C9B207E00CB480B502AAFFF7CFFF27
S3150000AC1002BC5DF80CFB2DE9F047814614469A46C6
S3150000AC204F46002588460AE03246384601F006FDC2
S3150000AC307019BF19451EEDB26D1C641CEDB2454579
S3150000AC403BDA2078010038D0312818BF32280ED1DF
S3150000AC505AF8041B07F8011B3228EDD16D1CEDB222
S3150000AC60A845A4BF081207F8010BE5DA25E0342849
S3150000AC700ED1291D5AF8040B88451EDB3870010ACF
S3150000AC807970ED1C010C000EB970F8703F1DD2E70B
S3150000AC90A0F133025AF8041B072A38BFA0F1300688
S3150000ACA007D3A0F14102072A34BFA0F137065AF8AC
S3150000ACB0046BF6B270194045B6DBA7EB0900C0B2CB
S3150000ACC0BDE8F0875F49FE200870704770B500F058
S3150000ACD027F800F003F8301880B270BD0602294646
S3150000ACE0204638E700B583B002238DF80420120A07
S3150000ACF08DF805200122009217E0F8B500F010F853
S3150000AD00FFF7ECFF8619E91CC9B2FFF7E9FF070256
S3150000AD10A91CC9B2FFF7E4FFC01906EB0040F2BD5B
S3150000AD200D46691C0446C9B215E70A46014601A844
S3150000AD30FFF709FE07BD2DE9FC4405B40A9C200077
S3150000AD401F4627D089B26846FFF7F9FE0646B9B214
S3150000AD5001A8FFF7F4FE0746BE42A8BF3046A4B2DC
S3150000AD60C0F120002546C0B2A842B8BF054600F093
S3150000AD7013F882469DF80000FFF7D0FC2A460AEB3E
S3150000AD800701304401F05AFC641BA919EF19A0B25F
S3150000AD900028D7D1BDE8FF849DF80400BEE470B555
S3150000ADA004460D4610F025F8294B21781B68FF292B
S3150000ADB008BF5D5503D019440E785E550D70257099
S3150000ADC0BDE8704010F08DB838B5044610F011F8A3
S3150000ADD02178FF22FF2908BFFF2507D01C4B1B68DF
S3150000ADE05D5C8D420EBF22705A5D5A5410F079F8A0
S3150000ADF0284632BDF8B504460D460FF0FAFF217815
S3150000AE000026FF2915D0124B1B680A46012602E0D0
S3150000AE10761C3A46F6B29F5CAF4208D1DF5D9F547E
S3150000AE20A94206D18A4208BFFF22227001E08F4262
S3150000AE30EED110F056F83046F2BD000048E8032087
S3150000AE404CE80320E4EB0320B1EB032054E8032095
S3150000AE5058E80320B0EB032050E803200078FF28D1
S3150000AE6001D1012070470020704710B5044602E06A
S3150000AE70FFF7CAFC2046FFF7A7FFFF28F8D110BD51
S3150000AE807061636B65742D6275666665722E63000C
S3150000AE9080B510F03DFD394839490068401C08600E
S3150000AEA001BD3848384900780978884201D1012027
S3150000AEB0704700207047704700BF80B53348007860
S3150000AEC040B900F009F828B910F015FD401E804180
S3150000AED0C00F02BD002002BD10B52D4C207820B950
S3150000AEE010F065FD08B101202070207810BD80B5F6
S3150000AEF0274900200870012010F059FDBDE80140E7
S3150000AF001F4803681D48006802781BA13C2000F01A
S3150000AF10F9BD10F0DDBC1A4A12681044FFF7F7BC01
S3150000AF201648006800787047144909680870704729
S3150000AF3070B582B0002007F0E3FC04460020104DF7
S3150000AF40144E31780090234628680122FFF718FD39
S3150000AF5011480188091B491E018089B23078009189
S3150000AF60631C9BB202460021FFF7E5FE28680B49E9
S3150000AF7020440860012076BD6C7000003CE9032087
S3150000AF8030F90320B1EB0320B0EB0320A6F5032034
S3150000AF90C6FF0320E6EB03209AFF03200CF60320EE
S3150000AFA03820704700207047382070473820704797
S3150000AFB070470020704700002DE9F84FDFF8F4468F
S3150000AFC0DFF8F4562068DFF8F4B6DFF8F496DFF819
S3150000AFD0F4A6E861286200264FF6FF7828E020688C
S3150000AFE0F6B2482111FB06F14718482200213846DF
S3150000AFF001F067FB99F800003870A7F8028000207E
S3150000B00038737873761C0B20B8731420F8734FF6D8
S3150000B010FE703882A7F812800DF059F838760DF0D8
S3150000B02056F878760DF053F8B8769BF80000F87667
S3150000B030F0B29AF800108842D1D3281DBDE8F84F27
S3150000B0400222FF2101F03DBB2DE9F041DFF87856E1
S3150000B0500FF29468044695F9000010F1010F03DA27
S3150000B0605C21404601F056FBDFF8587639788C4271
S3150000B070264605D3FE2E03D05E21404601F04AFB4C
S3150000B0802878DFF83416401C287040B2084404744F
S3150000B09038788442DFF81C06006828BF0E784822FC
S3150000B0A012FB06F21044C861BDE8F08110B5DFF866
S3150000B0B0184694F90000002802D56F2100F0A6F882
S3150000B0C02078DFF8F415401E207040B2DFF8F44512
S3150000B0D00A78247800284EBF10460818007CA04243
S3150000B0E038BF0246DFF8CC05006848235A431044AF
S3150000B0F0C86110BD10B50020DFF8BC1500E0401C8B
S3150000B10000F07EF808D2DFF8AC35C0B21B68CA6919
S3150000B11000F070F8F3D110BD8A2167E0DFF8A805CA
S3150000B12090F9000010F1010F01D1012070470020B5
S3150000B1307047FE2088E7DFF880050078704738B54D
S3150000B1400446FFF7EBFFDFF8705550B9DFF87805D6
S3150000B15090F900002844007CFE2802D0A62100F0C9
S3150000B16055F8DFF8601509788C4201D3B12032BD5D
S3150000B170DFF840052C704821006811FB04F10844F3
S3150000B180E861002032BD38B5DFF83C05DFF8285508
S3150000B19090F900402819007CFE2807D0FFF7BEFF73
S3150000B1A020B9C32100F032F8FF2032BD611E00E055
S3150000B1B0491E49B2080004D46818007CFE28F7D05E
S3150000B1C032BD287832BD10B50020DFF8EC1400E05F
S3150000B1D0401C00F015F808D2DFF8D834C0B21B685E
S3150000B1E00A6A00F007F8F3D110BDE22100F00EF86C
S3150000B1F0FF2010BD482414FB00F423449A427047F4
S3150000B200DFF8C0341B78C2B29A4270470FF2D840BA
S3150000B21001F080BA10B5FDF729FEDFF89C44216ADB
S3150000B220897B884203D00846FDF7CFFD50B9FDF76C
S3150000B23021FE0146206A90F90F00814204D0FDF7F5
S3150000B24028FE08B1012010BD206A008AFEF772FAB6
S3150000B250206A408AFEF78EFA206A007B012818BF12
S3150000B2600020FEF752FA002010BDDFF8581410B582
S3150000B27009788842044603D34FF48371FFF7C6FF6B
S3150000B280DFF84804007808B9702010BDDFF8240400
S3150000B29000F06BF8DFF820140862BDE81040B9E74B
S3150000B2A0DFF828140870704710B5DFF82444002032
S3150000B2B0207002F036F920B92046BDE810400BF0A8
S3150000B2C083B800F058F8DFF8FC130978884206D3F3
S3150000B2D0FFF710FF044600F010F818B12046BDE84D
S3150000B2E01040C2E710BDDFF8D003006A008A70473D
S3150000B2F0DFF8C403006A408A7047DFF8B8130968AC
S3150000B300482250430844407B02281CBF112843288A
S3150000B31001D10120704700207047DFF898130968B3
S3150000B320482250430844007B01281CBF02280328FA
S3150000B33001D1012070470020704710B5002400E0BD
S3150000B340641C00F02CF80ED2FFF7D7FF0028F7D0C8
S3150000B350D848E4B200F009F8007B012818BF02289B
S3150000B360EED1204610BDFF2010BD0068482111FB1C
S3150000B37004F10844704710B5002400E0641C00F096
S3150000B3800EF80AD2FFF7C9FF0028F7D0E0B2FFF7A0
S3150000B390B4FF0028F2D0E0B210BDFF2010BDC949AD
S3150000B3A00978E0B28842704770B500240025C54E82
S3150000B3B008E0FFF749FE01F05DF800B10124FFF750
S3150000B3C075FE6D1C3178E8B28842F2D3204670BD16
S3150000B3D080B5FFF7D0FFFF2801D0012002BD002075
S3150000B3E002BD38B5BB4C054620680321A9408843F9
S3150000B3F02060FFF77FFE2168A8400843206031BD2A
S3150000B400B4490968C14001F00300704738B50446E5
S3150000B4100D46FE20FFF718FE29462046F7F74BFC9F
S3150000B420BDE8314042E610B50446FE20FFF70CFEAB
S3150000B430204607F055FBBDE8104037E682B08DF890
S3150000B4400010DDE9002311461A4602B0FEF75ABD88
S3150000B45032B586B004468DF8042000F027FF054675
S3150000B460204600F031FF80F001010D420DD0BDF8FD
S3150000B470180001F020F88DF80000FF2804BF002016
S3150000B4808DF80000CDF808D01AE0294308BF06A8B9
S3150000B49015D0054214D0BDF8180001F00CF88DF84F
S3150000B4A00000FF2804BF00208DF800009DF8000072
S3150000B4B08DF80C00BDF81800ADF80E0003A8029038
S3150000B4C0FE20FFF7C1FDDDE901010A4601462046DF
S3150000B4D0FEF718FDFFF7EAFD07B030BDF8B5794E67
S3150000B4E0754D04463078687000270DE0FFF7ACFD17
S3150000B4F0E8694169FFB244F8371004EBC701C07E22
S3150000B50008717F1CFFF7D2FD3178F8B28842EDD37F
S3150000B510F1BDF8B504460025674E0DE02846FFF755
S3150000B52093FDF06954F8371041616D1C04EBC701B7
S3150000B5300979C176FFF7BAFD6249707809788142C8
S3150000B540EDB238BF08462F468742E7DBF1BD38B576
S3150000B550FFF7D0FD5B4A584B1278002100E0491CEA
S3150000B560CCB294420ED29C78C9B20C1994FBF2F577
S3150000B57002FB1544E4B21C442579854202D0FF2D16
S3150000B580EDD1207131BD70B54B4C4E4EA07831785F
S3150000B590204405798D4203D340F22921FFF736FE78
S3150000B5A0A0782218FF211171401C317890FBF1F22E
S3150000B5B001FB1200A070284670BD3F488178084400
S3150000B5C00079FF2801D0012070470020704710B590
S3150000B5D0FFF7FEFE70B1384CE069007B042809D104
S3150000B5E01420FFF7FEFE04F10800BDE810406421B8
S3150000B5F00AF0F4BEBDE8104001F052BD80B52E49F8
S3150000B600002008721420FFF7FBFEFFF71DFD01F076
S3150000B61047FDBDE8014049E52DE9F8438146FFF7BE
S3150000B62069FDB9F1040F0FF2C0082B4C224F2B4DC8
S3150000B6302B4E35D8DFE809F0030A0A1B1B00F86910
S3150000B64000F1280100200860886030E0FFF7C0FEA6
S3150000B65020B14FF41871404601F05CF8F869316882
S3150000B66040F8281F21688160297801711FE02A7837
S3150000B6703568F9690E2313FB02F6354413FB00F314
S3150000B6802B4441F8283F236803EB8202154B1B78B5
S3150000B69002EB830202EB800088600120087106E05D
S3150000B6A04046BDE8F44340F2712101F033B8BDE8ED
S3150000B6B0F183000084E80320A4FA0320C2EB0320F0
S3150000B6C0A9FF0320B8EB0320E9EB0320E8EB0320F6
S3150000B6D0C8FA0320D0FA03208CE80320B9EB032034
S3150000B6E088E80320B3EB0320656D6265722D6D75E6
S3150000B6F06C74692D6E6574776F726B2E6300000033
S3150000B70001207047012070470020704780B57020E7
S3150000B710F8F753F9BDE802400020F8F74EB970205B
S3150000B720F8F74BB970B582B00446FEF7F7FF054649
S3150000B730A879E9790818400000F10806FFF7FBFC34
S3150000B740400040F001008DF80000FF222B78002118
S3150000B750002000F0B7F8FF280BD178480068005D9C
S3150000B760F6B2B04205D1012269462046FFF75CF9E0
S3150000B77008B1002076BD21467148FFF710FB7148DD
S3150000B7800178491C01702046FFF730F8012076BD8C
S3150000B79010B50446FFF7F7FC0246234601210120B7
S3150000B7A000F090F8FF2804D0BDE810400021FFF714
S3150000B7B0D2B910BD38B504460D46FFF7E4FC00F0DB
S3150000B7C055F8FF2801D1002032BDFEF7A7FF044639
S3150000B7D0601CFDF7F7F82880E01CFDF7F3F8688099
S3150000B7E060792871A0796871E079A871012032BD6D
S3150000B7F038B5044615460B46FF220021002000F00E
S3150000B80061F8FF2801D1362032BD4C4A1268115C1E
S3150000B810491EC9B2FFF779F924B1297801F0070169
S3150000B820017001E000782880002032BDF8B504469A
S3150000B8300D461646FFF7A7FC00F018F80827044641
S3150000B840FF2C02D14FF6FF70F2BDFEF767FF012D08
S3150000B85004D18079400000F10807FFB207EB4600EB
S3150000B860C1B22046BDE8F440FFF730BA024623468F
S3150000B8700121002026E02DE9FC410D4604466946DB
S3150000B880FFF798FFD8B1002601E0012E02D09DF8FF
S3150000B890058001E09DF80680002700E07F1CFFB2CE
S3150000B8A0474508DA3A4631462046FFF7BFFF85424C
S3150000B8B0F4D1012004E0761CF6B2022EE5DB00206E
S3150000B8C0BDE8F6812DE9F84F82461D48007800252F
S3150000B8D0FF280C46914698462CD01B4F396811F824
S3150000B8E000B05E465FEA0A0011BF284600213046D6
S3150000B8F0FFF731F9404517D110480068805D411EB9
S3150000B900C9B23046FFF727F900F0010181F00101C5
S3150000B9100C420FD1B9F1FF0F1EBF400800F0030023
S3150000B920814507D1304606E03868865D6D1C5E4568
S3150000B930EDB2D7D1FF20BDE8F28F00004CE803201E
S3150000B9402CEB0320C7FF032058E8032000E000BFCC
S3150000B9503820F8F732B8FBE7704710F0FCB910B59D
S3150000B96004460521112010F0A9FC00220021022026
S3150000B97010F05AFE1848194A01686FF3D321016086
S3150000B98002EAC4220168114301600122012102205A
S3150000B99010F04AFEBDE810400421112010F08EBCC4
S3150000B9A00D4800680003C00D704738B50C480C46BA
S3150000B9B001884FF6FF75ADF8005002237F226846D6
S3150000B9C000F0B9FFBDF80000A84202D02080012097
S3150000B9D032BD002032BD000030400E4000F80F009E
S3150000B9E0C4DA02000B000AD0012A06D007D3032AC4
S3150000B9F002D004D2090200E009040AF0EFBC0021DB
S3150000BA000170704738B50C460178154679B10AF0D1
S3150000BA10F2FCB0F5803F38BF012106D3000AB0F52D
S3150000BA20803F32BF0221000A03212970208031BDE8
S3150000BA3010B50446094800EBC40082B082798188BB
S3150000BA400068FFF7CFFF0F208DF800008DF801404A
S3150000BA500221684606F05FFF13BD0000FCEA0320E2
S3150000BA600020E5E70120E3E710B50446F7F78CFF71
S3150000BA7004B140000B490978062901DAFF2010BD00
S3150000BA80C1B221B9BDE810400020FEF71FBF06482D
S3150000BA90064A00681268BDE81040801AC0B2FFF777
S3150000BAA03ABA00BFB1EB032008F6032030F90320B1
S3150000BAB070B510F0E5FFA94C2046FFF7CFF9D8B9CD
S3150000BAC02046FFF781F9FF28044615D0A4490968E6
S3150000BAD0085C851EE9B22046FFF7F8F80646E9B28B
S3150000BAE02046FEF7F1FF2146304600F0E5F82046F5
S3150000BAF0BDE87040FEF788BE70BD03460A4696A1B3
S3150000BB000420FFE70CB480B502AA00F02AF801BCB5
S3150000BB105DF80CFB00B587B00FF060FC00210591C5
S3150000BB2004910246622103910023002102910191B2
S3150000BB3001208C4900910FF23C21FFF7E3FF8A4870
S3150000BB408179C378827803910188029141790191C4
S3150000BB500179009142200FF22821FFF7D3FF07B0A9
S3150000BB6000BD2DE9F04F85B005460C46904606F01F
S3150000BB707EFE0026F8B910F00CFFE0B10120FEF7BA
S3150000BB80D8FD8246BAF1FF0F15D00021FEF7CCFD95
S3150000BB90294601A810F003FF05469CB900F087F876
S3150000BBA030B9504610F063FF10B1042006F05BFE7A
S3150000BBB05046FEF729FE05B0BDE8F08F8DF804204B
S3150000BBC00125641C20780100E8D0A0F130010A2983
S3150000BBD005D20A2101FB0600A0F13006F1E700F0CC
S3150000BBE066F80028E4D122780025422A01A80ED062
S3150000BBF0442A1AD0462A25D0572A0DD0622A3AD08E
S3150000BC00662A2AD06C2A25D0702A26D0D6E758F87C
S3150000BC10040B8DF80400D3E758F8041B8DF80410C4
S3150000BC2002250904090E4170CBE758F8041B8DF86C
S3150000BC3004100A0A427004250A0C8270080E8DF858
S3150000BC400700BEE758F8041B5046FEF7EFFE002833
S3150000BC50B7D0ADE758F8046BB3E7012358F8041BD7
S3150000BC60662A08BF0223F2B25046FEF7BEFE00283F
S3150000BC7008BF0026ECE73A4858F8047B006810F83D
S3150000BC800A90FFB2FF2F9CD010F807B00BEB09010A
S3150000BC90C9B25046FEF718FF002889D1CDF800B08A
S3150000BCA000233A4649465046FFF745F889E72A46B3
S3150000BCB001A95046FEF7B8BE2DE9F043122885B01B
S3150000BCC080460D4609D03A281FD04FF6FE718842AD
S3150000BCD004BF28460AF0B5FD36E02148234F006828
S3150000BCE0465D0BE02846FEF719FD01462246002078
S3150000BCF011F0C2F83868455D203EF6B2FF2D23D01C
S3150000BD00212EACBF20243446ECE700F02FFB814601
S3150000BD10FDF728FD0646FDF7ADF80746FDF7A6F840
S3150000BD200446FDF71BFD02460E480FF25C01039028
S3150000BD30CDF8109023460E48006840880290019680
S3150000BD4000973B20FFF7DEFE2946404605B0BDE8DA
S3150000BD50F04306F08EBD0000574600000CEB0320B2
S3150000BD604CE8032034F90320DCD7020054E8032012
S3150000BD70C0FA0320424238704242424257424200D1
S3150000BD804242424257420000574242575738704299
S3150000BD900000000010B5142801DBFF2010BD0828A4
S3150000BDA002D10EF0A5FC03E00E2804D109F034FE02
S3150000BDB078B1802010BD0FF21C0151F8201009B98E
S3150000BDC0002010BD0C780A2802D1FEF76FF9044353
S3150000BDD0204610BDD8D70200CCD70200CED702002D
S3150000BDE0D0D7020023D3020000000000CDD7020006
S3150000BDF0D9D7020000000000D1D70200D5D7020033
S3150000BE00DBD70200D4D70200CFD702000000000023
S3150000BE10D7D70200D3D70200D6D70200DAD702005E
S3150000BE20D2D7020010B50AF00BFD10F03FFD10202E
S3150000BE30FFF7B0FF0006DFF81C430FD50020FFF721
S3150000BE40A9FF00060AD56068800717D52068800715
S3150000BE5014D500F04DFD010012D010BD1020FFF7E3
S3150000BE6099FF0006F5D40020FFF794FF0006F0D5F1
S3150000BE706068C00702D520688007EAD4B02010BDEC
S3150000BE800FF0A9FA0120FDF72FFB11F01FF9F7F7C4
S3150000BE900BFD01F043FCFFF73DFE0FF200300AF008
S3150000BEA02CFBDFF8B4120870FFF786F811F01EF9C4
S3150000BEB007F01EFD0EF022FC09F0B4FDFCF782F936
S3150000BEC0002010BD2DE9F04705F09AFC05F01BFA9D
S3150000BED00020FDF7ABFE0FF0CFF8DFF8808240467A
S3150000BEE0FEF7BCFF08B908F06DF8DFF87492484613
S3150000BEF0FEF7B4FF08B9F8F779FA0BF06FFA0BF012
S3150000BF004FFCDFF85462DFF85C523078DFF858A255
S3150000BF100AF0DBFA0CF0E8F90027002409E0FFF745
S3150000BF2093F82868007B042808BF0127FFF7BEF8AE
S3150000BF30641C9AF80010E0B28842F0D3002F1EBFAE
S3150000BF40DFF828020078002805D000F02AF810282B
S3150000BF5008BF09F059FEFFF7ABFD09F06CFD0EF0C6
S3150000BF6048FF074611F0BCF868B14046FEF776FF79
S3150000BF7048B14846FEF772FF28B109F05AFD10B1E4
S3150000BF8030780AF0DCFA38460EF0ABFFFFF7C6F859
S3150000BF9018B940F2AB1100F057F8BDE8F047FFF7CB
S3150000BFA0DBBCF8B511F0A0F830B10CF084FC00F061
S3150000BFB0010080F0010400E00124FDF70CFA0028DE
S3150000BFC00CBF0425002511F08BF848B16348FEF735
S3150000BFD045FF28B16248FEF741FF08B1002000E0A6
S3150000BFE002206349097801B12021604A127802B122
S3150000BFF01022604B1B7803B140235F4E36780EB19A
S3150000C0004FF400765D4F3F780FB14FF480672C43B5
S3150000C010204308431043184330433843F2BD80B5EC
S3150000C0202D224BA1032006F01FFC11F05DF818B974
S3150000C0304FF4EE7100F008F8FDF7EEF811F066F82F
S3150000C040BDE8014010F084BC0FF2401000F062BB66
S3150000C05080B510F050FC2E223DA1032006F004FC12
S3150000C0600FF029F9FDF740FA4548007808B111F0BC
S3150000C070E7F94448007808B104F0ADFF424800787B
S3150000C08018B1BDE80140FAF738BD01BD38B5044620
S3150000C09034480068007B032818BF04280BD02046CC
S3150000C0A002F0FBF84FF6FF75A84204BF204604F0E5
S3150000C0B0B2FCA84204D12046BDE8324001F025BCBE
S3150000C0C032BD70B504464FF6F87084420D4601DB6A
S3150000C0D0012070BD2000234E07D13068007D800707
S3150000C0E003D42846FAF797FBB8B9306842889442D9
S3150000C0F005D1011D0822284600F0A0FA0DE0007BBC
S3150000C100032818BF04280AD0204611F0C7F9FF28D3
S3150000C11005D0294611F0E6F908B1002070BD294680
S3150000C120204601F033FC401E8041C00F70BD0D4813
S3150000C1300068008A70470B490968088270470948F9
S3150000C1400068408A704707490968488270470000BE
S3150000C15042000000E881E00FC2FF03204CEB032001
S3150000C160F8EA0320C0FA0320B8EB032004F7032003
S3150000C170FCF7032070F7032070FC032080FC0320EB
S3150000C18024FC0320E8F7032050F703207A6967624E
S3150000C19065652D737461636B2E63000080FB03205D
S3150000C1A077B2010014FC032085CE0000ECFA0320D0
S3150000C1B06D77010030F80320616E0100A4FB0320B7
S3150000C1C0298A0100C0FC0320970B0200B4FB032060
S3150000C1D0F5ED0100FCF70320795A00000CF8032066
S3150000C1E0355B000004F70320055C0100F4F703202B
S3150000C1F0D9500000E0F7032065F40000CCFB0320D3
S3150000C200E5DC0000B4FC0320BDFA0100E8F70320DA
S3150000C210D70F010024FC032041D4010050F703206E
S3150000C220FB6A000098FC0320C386010070F7032018
S3150000C230077C0000C8FA0320A9B2000070FC0320A6
S3150000C240976A010088FC03202D6B010080FC032007
S3150000C250E36A0100BCF8032079EB000064F80320D0
S3150000C260BB550100A8F803204522010064FC032009
S3150000C270577C0100B0F80320AB1F010020F8032013
S3150000C280976500008CF80320651C010088FB0320DD
S3150000C290B5AD01001CFC032053D50000ACFA032009
S3150000C2A0FDB50000000000000000000000210FF2B4
S3150000C2B03422535C834201D101207047491CC9B224
S3150000C2C00829F6D30020704700210FF22022535C84
S3150000C2D0834201D101207047491CC9B20829F6D30F
S3150000C2E000207047794800684088704777480068A2
S3150000C2F0001D704775480068C07E7047734909681D
S3150000C300C876704738B5714D714C29684873022854
S3150000C310704915D12868007B04281CBF08460AF01E
S3150000C32053F82868007B03281EBF042820460AF01D
S3150000C3304BF828684069C00054BF9024BC2405E02F
S3150000C340002008702070912410F0DEFE2046FBF7D6
S3150000C35001FA50B9234613225BA1032006F084FAA2
S3150000C3602046BDE83240FFF75EB831BD5748006849
S3150000C370407B00F00F00704754480068407B00F097
S3150000C3800F00022801D1012070470020704780B5B8
S3150000C39010F0A6FEB8B110F0BBFEA0B14E48FEF7F5
S3150000C3A05DFD80B14D48FEF759FD60B109F041FBD6
S3150000C3B048B1FBF7E0F930B9BDE804404FF0FF3172
S3150000C3C047480AF065B8002002BD38B50446FFF7B5
S3150000C3D0D3FF3E4D28B92868407B032801D093201F
S3150000C3E032BDFFF7ACFE20812868C07BA0722868AA
S3150000C3F0807BE0722046FAF73CF80020207304F1B7
S3150000C400140104F1100001F09EFBE081002032BD12
S3150000C41070B52E4D2E680C46FFF7AEFF20B9707B27
S3150000C420032801D0932070BDF07B20702868807BA4
S3150000C430FCF785FC60702868807B00F01F00A07008
S3150000C440002070BD10B5002300E05B1CDCB28C42FE
S3150000C45005D210F8014B9442F7D0002010BD012000
S3150000C46010BD80B50821FCF7D5FB08B1002002BD40
S3150000C470A52002BD15480068407B01281CBF312855
S3150000C480332801D1012070470020704710B50446BB
S3150000C490FCF7FFFC010002D10C490968CC7310BD02
S3150000C4A00A48006890F90F00704708480068807BCA
S3150000C4B070470120704705480068807B400918BF17
S3150000C4C0012070470000000042420000C0FA03202D
S3150000C4D024FC0320E8F703204CEB0320F8EA0320B2
S3150000C4E09CC100000001020304051D20020304058F
S3150000C4F008090A0B382070473820704738207047E3
S3150000C5003820704780B5094909688969C90206D586
S3150000C510012812BF002840F202200FF013F9012073
S3150000C52002BD024800688068000C70472808E10FC9
S3150000C530890001EB401000F184400260704710B59D
S3150000C5404A688B68CC680968016002600360046011
S3150000C55010BD38B5102A04460D460ED10122002121
S3150000C560FFF7E6FF4FF48870044429462046FFF79C
S3150000C570E6FF05F11001204606E000220021FFF744
S3150000C580D7FF294604F12400BDE83440D7E710B5AB
S3150000C59000F006F82146BDE8104008222448D8E7F6
S3150000C5A00446012123480FF01BBD10B5FFF7F8FF25
S3150000C5B0214801682160016861600168A160006826
S3150000C5C0E06010BD70471FB504466846FFF7EDFFF3
S3150000C5D06946204600F001F81FBD30B504460D46F9
S3150000C5E083B0FFF7DEFF012001900095102322465D
S3150000C5F021460F4811F0A9F837BD70B504460D461F
S3150000C60086B001210B480A4E0FF0EAFC2A4602A921
S3150000C610304611F084F800200190102302A8009003
S3150000C62022462146304611F090F806B070BD000053
S3150000C63000000F400005080024000F40814233D25D
S3150000C64010441144401E491E10E011F8013900F84B
S3150000C6500139121F11F8013900F8013911F80139B1
S3150000C66000F8013911F8013900F8013992B2042AAB
S3150000C670EBDA93B2002B1EBF11F8013900F801392D
S3150000C680521EF6D1704711F8013B00F8013B121F0C
S3150000C69011F8013B00F8013B11F8013B00F8013BA2
S3150000C6A011F8013B00F8013B92B2042AEBDA93B28F
S3150000C6B0002B1EBF11F8013B00F8013B521EF6D1BC
S3150000C6C07047130003D00A46194611F08BB870471D
S3150000C6D010B500E0521E93B223B100F012F8F9D063
S3150000C6E0181B10BD002010BD10B500E0521E93B2FD
S3150000C6F02BB100F006F8F9D0181B40B210BD00208F
S3150000C70010BD10F8013B11F8014BA3427047000021
S3150000C71042DE704738B504460D46FCF77DFD11F044
S3150000C720B0F811F0CFF829462046FFF7E6F929467A
S3150000C7302046BDE83440EBE764482DE9F047644DF8
S3150000C74001682E1D4FF420687165016AB165614963
S3150000C7500A68F26549683166416A7166816AB1663E
S3150000C760C16AF166016B3167806B706796F83400B9
S3150000C77040074CBFF46BB46B0FF05DF80022F26417
S3150000C7808442554A014624BFA2F1200AA245274603
S3150000C790316505F19003DFF844C1DFF844E118D3B1
S3150000C7A0A0693064E4697464746DC4F30804062CEB
S3150000C7B013D1704511D360450FD200884DF64264FF
S3150000C7C0A0420AD13068586040F2017870689860DB
S3150000C7D003E000273764776407464248814202D265
S3150000C7E0014600E0091D0846904203D20C68B4F1E8
S3150000C7F0CD3FF7D03C49081AB0640021002005EB74
S3150000C8008004401C0628E167F9D3002003E0C0B28B
S3150000C81005EB8004E167974223D252F8041D714567
S3150000C820F9D36145F7D2CC07F5D5002405EB840989
S3150000C830D9F87C90894502D0641C062CF6D3062CC8
S3150000C840E9D1002814BF401E0520E0E7B16F00249F
S3150000C85005EB8402641CD2F88070D767052CF7D3E9
S3150000C86019600146481EC9B20029EFD1706DC0F3A8
S3150000C8700800032810D0042811D0052812D0062855
S3150000C88013D00C2817D0122818D118480068800732
S3150000C89019D540F2025816E040F6012813E040F69A
S3150000C8A0022810E040F603280DE0B8F5206F0AD103
S3150000C8B040F6042807E040F6052804E018B14328AE
S3150000C8C038BF40F607284046BDE8F08704ED00E093
S3150000C8D00000002000E300E048E503206EC00200EF
S3150000C8E0DC0400009C00002048E503201C200540D5
S3150000C8F010B5DFF824410120207082B0002010F02E
S3150000C900E5FF38B1002010F0E1FF18B100202070DB
S3150000C910492016BD02237F220021684600F00BF84D
S3150000C920BDF80000B0F57F7F03D0002020700720FF
S3150000C93016BD002016BD10B5FF2908DCDFF8D8406B
S3150000C940247844B1BDE81040C9B211F0FFBBBDE880
S3150000C950104000F0A9B810BD38B5FF2904460ADC1E
S3150000C960DFF8B400007840B3204601B0BDE830409F
S3150000C970C9B211F01FBC00257F2A08BF002212FB96
S3150000C98003F001F47043C1F30B02B3F5805F08BFF7
S3150000C99042F07E6108D001F47041B1F5405F05D1E7
S3150000C9A042F07C6141F40111451805E040F28D1119
S3150000C9B00FF26800FFF7AEFE256031BD2DE9F041AC
S3150000C9C00546FF2D0E461746984615DC124C207874
S3150000C9D0C0B1607828B14FF4CE710FF24000FFF776
S3150000C9E099FE01206070434632463946E8B211F09E
S3150000C9F013FF0020607005E042463946BDE8F0416D
S3150000CA0000F075B8BDE8F08103490978002918BF20
S3150000CA1012F05AB870470000ACFF0320746F6B65C4
S3150000CA206E2E630038B50C4611461A467F2908BF9C
S3150000CA30002141F2F0139C4218D155490B68496810
S3150000CA400024D5B27DB30355641C1B0A521EE4B202
S3150000CA50042CF6D3E4B2082C25D2D3B2002B1FBF88
S3150000CA600155090A521E641CF4D131BD04F4704507
S3150000CA70C4F30B03B5F5805F11FB02F108BF43F069
S3150000CA807E630BD0B5F5005F1CBF04F47044B4F5AB
S3150000CA90405F08D143F07C6343F40113C918BDE835
S3150000CAA03840FFF7CBBD31BD70B51E0004461546B4
S3150000CAB01CD04BF23460814212D1092E28BF0826C1
S3150000CAC033467F2241F202012046FFF7ABFF324692
S3150000CAD00FF2D8012046FFF7FBFD38B941F2F011FD
S3150000CAE033462A462046BDE870409BE770BD2DE9D7
S3150000CAF0F84307460024F807884615466FF00F06E8
S3150000CB000FF29C0902D5652100F046F8E80702D528
S3150000CB10662100F041F807F47041B1F5805FC7F374
S3150000CB200B000CD140F07E64B4F17E6F264604D330
S3150000CB302819401E1749884210D36B210CE0B1F525
S3150000CB40005F18BFB1F5405F05D140F07C6444F446
S3150000CB500114264602E0722100F01EF8002706E0C6
S3150000CB60F05DFF2802D07C2100F016F87F1CAF4252
S3150000CB70F6D36A084146204612F0E8F828B148463E
S3150000CB80BDE8F4438521FFF7C5BDBDE8F18300008C
S3150000CB90F081E00F0008E00F4846FFF7BBBD00003C
S3150000CBA06D66672D746F6B656E2E6300FFFFFFFF6A
S3150000CBB0FFFFFFFF38B5DFF8B049DFF8B0590020B6
S3150000CBC0E0602074FF2060760BF081FA28700EF08A
S3150000CBD08DF901206076207C40F002002074281D2B
S3150000CBE009F0F2FB002032BD2DE9FE4F81460D46CD
S3150000CBF0144609F01AFD8DF80600DFF874793868D6
S3150000CC009DF8061010F80900DFF85C89401A8DF8C7
S3150000CC100500484609F028FD00F00C0004280CBF6A
S3150000CC20012600264846FDF725FE8DF80400FF285C
S3150000CC300EBF4FF0000B396811F800B000200290CB
S3150000CC408246FF2088F818006F1CDFF82809006864
S3150000CC50007B032818BF042802D10BF013FB31E038
S3150000CC60484609F001FD0C21084218D15CB348463C
S3150000CC7009F0E5FCFBF7A6FE82464FF440411AEAAE
S3150000CC80010F07D05FEA8A5004D5DFF8EC080AF0F6
S3150000CC90F8FF17E0DFF8DC080068C07B12E094B10B
S3150000CCA0484609F033FDB0F5406F484604D109F017
S3150000CCB042FD01F0F2FA01E009F04CFD0AF0CAFB70
S3150000CCC00BF063F8207030001DD0484609F0DEFCFA
S3150000CCD004464FF6FF7048F6410A844218BF48F6EC
S3150000CCE0610AFEF705FB0146F81CFBF772FE2146BA
S3150000CCF0781DFBF76EFEFEF7F6FA0146F81DFBF708
S3150000CD0068FE09370297002000909DF805309DF8CF
S3150000CD10062049463846FDF716FE9DF80500BBF18C
S3150000CD20000F074409D0002000905B469DF80410D0
S3150000CD3000223846FDF707FE5F4476B1484609F003
S3150000CD407EFC407880072FD5029868B3391A4A4688
S3150000CD50C9B207F028F8074426E0A878697801EBFD
S3150000CD60002080B2C10901F0010181F001064FF6F1
S3150000CD707F7101EA000A0AF0070003280CD1694610
S3150000CD8048460AF0FDFE681C09F0A4FC9DF8001058
S3150000CD9008182844407805E0DFF8E00700780928FD
S3150000CDA002D1072088F8180048460AF05DFC08B151
S3150000CDB04AF0100A5146681CFBF70BFE1AF0070FE3
S3150000CDC005D1DFF8A8070178491C017005E0DFF8F6
S3150000CDD0A4070068017E491C0176781BE970401C97
S3150000CDE02870781B7F2802DBE92100F02FFB3046F4
S3150000CDF0BDE8FE8F70B5DFF870670446F0680D4633
S3150000CE0008B1002070BD0EF04EFA48B1307C002803
S3150000CE1004BF307A002803D115B1A047012070BDA8
S3150000CE20307CF46040F004003074DFF8540709F0F9
S3150000CE30CBFA022070BD0121DCE790E038B504464C
S3150000CE40DFF82407007E0D46811F012903D82146FD
S3150000CE500AF007F978B9284609F00BFCFEF7F4F852
S3150000CE60214628460AF028FC18B92146284607F02C
S3150000CE70E9FCFEF71BF92846FDF7C6FCBDE8314084
S3150000CE8009F0E7BCDFF8E416002008716BE080B516
S3150000CE9000F047FB70B1DFF8D4060079002801BF27
S3150000CEA0DFF8C406017C0F22114203D1007A08B9CB
S3150000CEB0012002BD002002BDF8B50446DFF8C40615
S3150000CEC00078002802BFDFF8A066F06800280D464B
S3150000CED026D1DFF8A80600780B2818BF022D1FD12F
S3150000CEE00DF087FF327A082A074617DA012D08BFA8
S3150000CEF0B45404D03146701CFFF7A0FB3470307A6E
S3150000CF00401C307238460DF0ECFF2046FDF76EFCF3
S3150000CF10DFF86C0609F058FA0120F2BD0DF0E1FFCA
S3150000CF200020F2BD38B504460DF063FF0546DFF874
S3150000CF303806017A69B101782170017A4A1E0272B7
S3150000CF40411CD2B2FFF77AFB28460DF0CAFF01203A
S3150000CF5032BD28460DF0C5FF002032BD00BFDFF808
S3150000CF60200609F031BA70B582B00EF09CF900289F
S3150000CF7000F09580DFF8F045207C800706D5607EBE
S3150000CF800EF097F9207C00F0FD002074207CC0078D
S3150000CF9002D4FEF712FBA0B1207C00F0FE00207444
S3150000CFA0FEF7F1FAFEF750F806F055F98DF8000095
S3150000CFB009F05FFBFEF759F9002850D004202076CF
S3150000CFC052E06846FFF7AEFF0028DFF8B05553D0B1
S3150000CFD09DF8000009F048FB012400F00C000C2825
S3150000CFE024D19DF8000009F02AFB06469DF80000B2
S3150000CFF00DF101010AF0C4FD304609F06BFB9DF806
S3150000D00001100818811D9DF80000C9B2FDF7A3FDA7
S3150000D0102978072902D1062808D106E001291CBF74
S3150000D0200529092902D1072800D100249DF800000E
S3150000D03009F01AFB00F00C00082804D1287809280A
S3150000D04014BF032800249DF8000009F012FB0546D2
S3150000D050FDF7FAFF1CB12846FEF707F920B99DF83F
S3150000D06000000EF061F804E09DF800104120FFF783
S3150000D070E5FEFEF71BF873BD28780B2802D111F0E8
S3150000D080D1FE60B9207C410707D5E168002200F097
S3150000D090FB00E2602074884773BDFEF705F973BD97
S3150000D0A080B5FEF754FADFF8C004017C41F00101B7
S3150000D0B00174DFF8CC04BDE8024009F085B9DFF859
S3150000D0C0A804017C01F0FE01017470472DE9F04FC0
S3150000D0D0DFF89C94A5B0044602A80021C0E900111F
S3150000D0E002AE2046FDF71AFB0823057881784078C2
S3150000D0F000EB0127002000902146D9F80000005DD2
S3150000D100A0F10802D2B202A8FDF71DFC707800F06B
S3150000D1100F00FDF799FFDFF86C040078BFB2A84650
S3150000D12020B3DFF86474386800281ED0F078FBF767
S3150000D13013FF4146FBF711FF804696F9026004A8EB
S3150000D14080210AF0D5FF002000906B1CDBB2002284
S3150000D150214604A8FDF7F7FBFDF7EBFF3B683246D7
S3150000D160414604A89847FDF7A1FFA8E007F007008D
S3150000D1700228FAD0FF208DF804002046FDF7CEFAEB
S3150000D18000F1010A504609F0A5FA8346A5EB0B000B
S3150000D190851E6DB2002DE8D401208DF800006B4687
S3150000D1A001222146002009F04EFB9DF800000028D0
S3150000D1B01DD0B80506D507F00700032818BF17F0DD
S3150000D1C0070F10D101A9504602F052FC002876D173
S3150000D1D007F0070001280BD19DF804000AEB0B01AC
S3150000D1E007F0BEFE20B99DF80400FDF70DFB66E0D2
S3150000D1F09DF80400D9F800100F5CDFF89013096859
S3150000D2000C54D9F80000005D00F120019DF80400DF
S3150000D210C9B2FDF789FA9DF8040009F025FA00F075
S3150000D2200C0004281CBF5D444FF0000B68B280B2AE
S3150000D23000900BF101039DF804009BB2224639468B
S3150000D240FDF779FDE9199DF80400C9B2FDF73CFC2C
S3150000D250CF497078097800F00F00884203DB4FF45D
S3150000D260257100F0F3F89DF8040009F0F8F97178DB
S3150000D270C0F30D0040EA81319DF8040089B209F03F
S3150000D280F0F9F078FBF768FE4146FBF766FE0246CA
S3150000D2909DF80400032109F0BBF9B2789DF804005B
S3150000D2A0042109F0B5F99DF808209DF80400052130
S3150000D2B009F0AEF99DF80440204600F008F8204633
S3150000D2C0FDF7A2FAFDF7F2FE25B0BDE8F08F2DE9D5
S3150000D2D0F8430446FF2C03D140F2BD2100F0B6F816
S3150000D2E000F0B9F800F0B6F800F00C0008284DD0B0
S3150000D2F005F00C000C287CD1204609F0A0F9064662
S3150000D300FBF760FB6946804620460AF039FC002898
S3150000D31008F44C453FD0204609F087F907463046C9
S3150000D32009F0D8F99DF80010C0190918C9B22046AD
S3150000D330FDF711FC07464FF4406018EA000F4FF660
S3150000D340FF7906D0F01CFBF73DFB484508BF45F0CA
S3150000D350400508F44060B0F5006F06D1701DFBF77C
S3150000D36031FB484508BF45F010059DF80000002830
S3150000D37018BF072F68D1012F4CF6500028D0022F76
S3150000D38029D0042F08D0062F31D0072F31D0082FEF
S3150000D39028D07C2F22D057E0B5F5484F18BFB5F5F9
S3150000D3A0084F05D0B5F54C4F18BFB5F50C4F4BD10E
S3150000D3B020460AF0DFF8E0B1280403D5204609F03C
S3150000D3C0FDF98146002249460220FEF741F83BE07E
S3150000D3D0B5F5484F0DD0B5F54C4F06E0B5F54C4FB9
S3150000D3E007D001E04CF64040854202D02CE0854251
S3150000D3F02AD1204609F033F900F02CF800F00C0091
S3150000D400082816D0A80614D54FF6DF7000EA0501E5
S3150000D410204609F026F9204609F007F90546204678
S3150000D42009F00DF909F056F94119C9B22046FDF780
S3150000D4304BFB21465748FDF7B2FC2046FDF7D6F9CF
S3150000D4405548007809F0BAF8BDE8F1830FF280106C
S3150000D450FFF760B90546204609F006B938B50C460F
S3150000D46002460021082009F0B0F90546FF2D01D13A
S3150000D470012032BD2146FFF71FFD04462846FDF771
S3150000D480C3F984F0010032BD0121E7E7364A53694A
S3150000D4900BB170207047506108460DF064BE38B578
S3150000D4A0314C65691DB940F27E31FFF7CFFF002090
S3150000D4B06061A84731BD2C494A69824203D10020E8
S3150000D4C048610DF05BBE70474FF6FF71884200D190
S3150000D4D0704780B501463148FFF7D8FF38B1BDE83F
S3150000D4E004404FF464710FF2E800FFF713B901BD71
S3150000D4F010B51D4C627E90420FD060760DF0D3FEC3
S3150000D50020B1607EBDE810400DF0D3BE207C40F017
S3150000D51002002074BDE8104021E510BD1248407E8F
S3150000D520704780B5154800780B2801D0002002BD51
S3150000D5300DF0B9FE00B1012002BD80B5FFF7F1FF85
S3150000D54030B1FBF775FB18B1BDE801400EF0A6B887
S3150000D55001BD80B5FFF7F1FFBDE804404FF4A051CF
S3150000D5600F4808F03BBF0000D4FB032010FC03204B
S3150000D5704CE80320C0FA032014F80320DAEB03205A
S3150000D58014FC032056ED03200CFC032054E8032072
S3150000D590B8EB03204CEB0320C2FF0320756F01009C
S3150000D5A01CFC032010B5FBF743FA0446FBF73EFAD2
S3150000D5B060B104F44030B0F5403F01D1022010BD07
S3150000D5C0B0F5003F01D1012010BD002010BD0000C4
S3150000D5D075707065722D6D61632E63004B49097815
S3150000D5E081B1002100E0491C494B1B78CAB29A421E
S3150000D5F008D2484A1268C9B232F821208242F2D1D2
S3150000D60008467047FF2070472DE9F04104463F4821
S3150000D610067830000D4608BFFF2044D02046FFF7AD
S3150000D620DDFF3D4A3B491378394FFF280ED1387844
S3150000D630B04202D2461C3E7008E0184600E0304672
S3150000D6400E6806EB8006F678FF2EF8D198421DD0BC
S3150000D6504FF0000C01E00CF1010C97F800E05FFAC6
S3150000D6608CF676450DD20E685FFA8CFC06EB8C0EB6
S3150000D6709EF803808045EED106EB8006F6788EF89C
S3150000D68003600E6806EB8006F3701070FF230A68CD
S3150000D69022F8204002EB8002FF2D937003D0096828
S3150000D6A001EB85018870BDE8F08170B50546084636
S3150000D6B01649097801B3FFF791FF0446FF2C1BD0EA
S3150000D6C0FF212846FFF7A0FF0546FF2D12D0294669
S3150000D6D00DE01048006800EB820330F822009E78C7
S3150000D6E0FFF792FFA842214608BFFF25344622468F
S3150000D6F0FF2AEED1284670BDFF2070BD00BF04484A
S3150000D700007870470148007870470000A2FF0320A8
S3150000D710CEFF0320A0E80320F1EB0320DFF8DC03B3
S3150000D72000780C2110FB01F2DFF8D403006892B2F6
S3150000D730FF21FEF7C6BF70B50C46DFF8C0130978A7
S3150000D7408842054601D36A2070BD08F0E4FD08B1A1
S3150000D750762070BD2046FEF799FC4FF6FF71884291
S3150000D76008BF4FF6FD700C21DFF894634D43316816
S3150000D7704853204600F070F9316829448872FDF755
S3150000D780B9FC042804DB2D210FF29830FEF7C2FF06
S3150000D790FDF7B0FC316829448A7A42EA4000887273
S3150000D7A00822306828442146801CFEF747FF0020E7
S3150000D7B070BD38B5DFF844331B78984224D20C226A
S3150000D7C0CF4D12FB00F42A6811534FF6FF729142B7
S3150000D7D008BF08F0A2FDFDF78DFCCA49097888420A
S3150000D7E004D347210FF23C30FEF794FF286820440B
S3150000D7F0817A01F0F1018172FDF77CFC29682144F0
S3150000D8008A7A42EA4000887231BD10B5BB4A127866
S3150000D8100346934208460AD2B94909680C24634371
S3150000D820BDE8104019440822891CFEF707BFBDE871
S3150000D830104008220021FEF744BFB04A12789042F9
S3150000D84005D2AF4909680C225043085A70474FF673
S3150000D850FF707047F8B507460C46A84DA84E00E085
S3150000D8600C37297830680C2251430844874214D279
S3150000D87038884FF6FF718842F2D008222146B81C3C
S3150000D880FEF726FF0028EBD1FDF734FCB97AC1F389
S3150000D89042018142E4D13846F2BD0020F2BDF8B51E
S3150000D8A00446F5F7F9FD9648944F056800260EE004
S3150000D8B02888A04209D1FDF71DFCA97AC1F34201CF
S3150000D8C0814204BF4FF6FD7028800C35761C3978EE
S3150000D8D0F0B28842ECD3F1BD70B504460D46284639
S3150000D8E0FFF7DDFF29462046F5F7F7FD8448006877
S3150000D8F0214605E0358008F0DEF8214606F10C00E9
S3150000D900FFF7A8FF0600F5D170BD7FB504460822D3
S3150000D9107D49FEF7DDFE10B9FEF709FC34E07B4DCC
S3150000D9202868011D08222046FEF7D2FE10B9286895
S3150000D930408829E0002000904FF6FF750023012261
S3150000D94021462846F5F70CFFFF284FF6FC7605D052
S3150000D9506F49096831F81000B04215DB01A802F0E2
S3150000D960E1F950B9BDF80400400606D50822214663
S3150000D9700DF10600FEF7ACFE30B100F087F810B1ED
S3150000D9800088B04200DB284604B070BD2DE9FF4197
S3150000D99004468846FEF7CBFB844202D108225A4948
S3150000D9A03EE05A4E30684288944209D1002208214E
S3150000D9B0001DFEF747FD18B930680822011D2FE04B
S3150000D9C0002000900023012200212046F5F7C8FE22
S3150000D9D0FF280AD06946F5F710FE30B908220DF186
S3150000D9E005014046FEF72AFE1DE04548434E0768FE
S3150000D9F0002501E00C376D1C3178E8B2884214D25C
S3150000DA0038884FF6FC718842F4DAA042F2D1FDF76D
S3150000DA1071FBB97AC1F342018142EBD10822B91CEC
S3150000DA204046FEF70BFE012000E0002004B0BDE8F2
S3150000DA30F08110B50446002000F028FBFF2808D02E
S3150000DA403449096831F810000006800E00F0010024
S3150000DA5010BD04F0010010BD38B5044600F016F8FC
S3150000DA60002508B1857A0CE00090002301222146AA
S3150000DA704FF6FF70F5F774FEFF2802D026490968B5
S3150000DA800D5C21462846BDE83440D2E71C480068B4
S3150000DA902146DFE638B504460D46F5F767FD18481A
S3150000DAA00068214602E0857221460C30FFF7D2FE5F
S3150000DAB00028F8D131BDF8B5044621460020F5F717
S3150000DAC01FFEFF2815D11548154D0668002701E0F1
S3150000DAD0361D7F1C2978F8B288420CD23088A042C5
S3150000DAE0F6D1FDF707FBF1788142F1D1B078002835
S3150000DAF0EED00120F2BD0020F2BD0000BEEB0320F7
S3150000DB00B0E80320B8EB032034F90320C0FA032061
S3150000DB10A4E8032060E80320A8E803207CE80320AB
S3150000DB20B6EB0320616464726573732D7461626C75
S3150000DB30652E6300DFF84813002008714FF6FF706A
S3150000DB40D0490880704730B583B004460D46082397
S3150000DB50092269460120FAF77EFF14B19DF80600F6
S3150000DB6020700DB100982860BDF804003EBD80B558
S3150000DB7000216846FFF7E7FF9DF8000002BD10B5DB
S3150000DB8082B0044669460020FFF7DDFF009A014691
S3150000DB90204600F002F8204616BD00B583B08DF889
S3150000DBA00600ADF8041000920823092269460020F9
S3150000DBB0FAF751FF07BD2DE9F04786B0804602A867
S3150000DBC00021002200230EC0404601F09EFA0546C1
S3150000DBD0AD48006810F80890002000900A232A46F5
S3150000DBE0414602A8FCF7AFFE9DF8080005F10A04BD
S3150000DBF009280CBF012500259DF80900E0210842EF
S3150000DC0068D16846F8F735FC08220DF10A01684626
S3150000DC10FEF75EFD00285DD1002D4ED000F01AF90A
S3150000DC20002857D0974D28884FF6FF7A50451CBFDD
S3150000DC304FF6FE7188424DD1914F94493878001DB8
S3150000DC403870C0B20978491E8900814242DA002044
S3150000DC5038700AF03CFA2880264607E031464046EE
S3150000DC60FDF734F829888842F3D0B61CF6B2A9F13C
S3150000DC7001008642F2DB2888010018BF5045E8D033
S3150000DC80FEF75DFA29888142E3D0FFF770FF401C5A
S3150000DC90C0B2FFF774FF01462A880A2000F051F847
S3150000DCA040B14FF47A71381D08F098FB0C20FDF74F
S3150000DCB098FB0FE0A5F800A00CE0E1B24046FCF7A7
S3150000DCC04AFFFFF75CFF611CC9B24046FCF7FEFF46
S3150000DCD000F080F87BE06A4801780A001CBF491E04
S3150000DCE00170704738B56649002008710C20FDF7B1
S3150000DCF087FBFDF7A9F966480068407B022818BF34
S3150000DD0003281AD15F4C20884FF6FE724FF6FF7536
S3150000DD1090420CBF2580A8420FD0FEF714FA25804A
S3150000DD2000210020F8F7BEFA9A23132253A10320FC
S3150000DD3004F09AFD9A20FDF776FBBDE83140FDF729
S3150000DD40B5B92DE9F04705460026092D0C460CBF4E
S3150000DD500127002786B0914600210020FFF7F3FE39
S3150000DD608DF80850804602AD012068700DF1120A48
S3150000DD700DF10A00F8F77DFB17B9AC720DF1130A25
S3150000DD8049465046FAF725FE0AF102000FB94FF64A
S3150000DD90FF7802A9431A01960096DBB202AA642113
S3150000DDA0404601F08CF90446FF2C0FD03FB100F03D
S3150000DDB051F820B12046FFF7FEFE012603E020467B
S3150000DDC005F0E5FD06462046FCF71EFD304606B08A
S3150000DDD0BDE8F08738B504464FF6FF75AC4216D05D
S3150000DDE0FEF7ADF9844212D026480188A9421CBF2D
S3150000DDF04FF6FE7291420AD104804FF47A7125489B
S3150000DE0008F0ECFABDE832400C20FDF7EABA31BD65
S3150000DE101F480068007B042800D1704738B5194CAC
S3150000DE2020884FF6FF71884213D1FEF788F9054620
S3150000DE304FF47041174808F0D1FA0C20FDF7D1FADB
S3150000DE402A464FF6FE7020800021BDE838400920A2
S3150000DE5077E731BD10B50E480068007B04280AD06C
S3150000DE60FEF765F9044600210020FFF76CFE8442A8
S3150000DE7001D1012010BD002010BD0000424200006B
S3150000DE80C8FB0320ACEB03204CE80320C8EB0320BF
S3150000DE90C0FA0320CCFB03202DE9FF470024DFF85E
S3150000DEA05C5606E0FDF7D0F809F0A8FAFDF7FEF893
S3150000DEB0641C2978E0B28842F4D3DFF84446DFF8E0
S3150000DEC044562078DFF84096DFF8408600F040F8A8
S3150000DED00021FEF7F6FB227828680921FEF7F1FB00
S3150000DEE0002601AF2EE00B23F2B2162101A8FEF7A1
S3150000DEF022FD787A397A01EB0020D8F80010F6B2C4
S3150000DF00B24621F81A0081B200291EBF80B24FF630
S3150000DF10FF71884204D0B97A0022304600F01DF81D
S3150000DF200123324619216846FEF705FD2968BDF82A
S3150000DF30000001F80A006FF07F00D9F8001001F820
S3150000DF400A00761C2178F0B28842CCD3BDE8FF8760
S3150000DF504200DFF8BC0500687047DFF8B4351B687F
S3150000DF6009074CBF0021042141F4805141F0020110
S3150000DF7023F810100021DFF89C351B6843F82010A9
S3150000DF801102DFF89425126822F81010704710B5B8
S3150000DF90DFF888150C78210008BF012409F05AFA29
S3150000DFA00146FF290DD0DFF87005026832F81130FE
S3150000DFB018001ABFA3EB131000EB0410200222F87E
S3150000DFC0110010BD70B5DFF8484524680022002313
S3150000DFD002E024F813505B1CDFF824552D78AB4281
S3150000DFE009DA34F813506E07F5D501220E0014BF76
S3150000DFF005438543EDE7104670BD002100E0491C4E
S3150000E000DFF8FC341B78CAB29A420AD2DFF8002540
S3150000E0101268C9B232F8112002408242EFD10120C3
S3150000E0207047002070472DE9FE4306460C4615460C
S3150000E030DFF8D884DFF8C89401E0EFB1761C99F8D0
S3150000E0400010F0B288421ED2D8F80000F6B230F8BE
S3150000E05016700B23324600F09EF9002CEDD0002FEF
S3150000E0601CBF4FF6FF708742E8D00822694620465B
S3150000E070FEF72EFB0028E1D19DF80A0000F0EF0024
S3150000E0802870304600E0FF20BDE8FE8380B56A4672
S3150000E090FFF7C9FF02BDFEB504460D4616461F46EC
S3150000E0A0082231466846FEF7C9FA00F0B8F98DF83D
S3150000E0B00A703946089A2046FFF74FFFFFF749FFD7
S3150000E0C030F8141041F4804120F8141000F0ADF936
S3150000E0D0DFF8300402680F21115501230068021988
S3150000E0E021461920FEF76AFC00F0D2F920F81450F8
S3150000E0F00022DFF82C0400682C30416800782018D4
S3150000E10041F82020304609F0BCFDDFF8FC13096811
S3150000E1100855304609F0DBFD0120FEBD2DE9FC4F18
S3150000E12085B080468A4601AA41460020FFF77BFF5C
S3150000E1300546FF2D4FF0000BDFF8E463DFF8CC73E4
S3150000E14013D09DF804009DF81410884202BF396868
S3150000E15031F815108A4508D002F0C1FF08B900F061
S3150000E16083F8284600F097F9FF254FF6FF79CA4550
S3150000E17012D002A95046FDF7A4FFC0B9002208211B
S3150000E18002A8FEF75FF990B9082202A94046FEF7F9
S3150000E1909FFA60B1CA460AE0FF2D08D002F09FFF41
S3150000E1A008B900F061F8284600F075F9FF259DF8DA
S3150000E1B014108907504604D5484552D103F0D9FBBF
S3150000E1C04FE0FF2D09D0404609F05BFDCE490968B6
S3150000E1D04855404609F07BFD22E0D24CD2492278D0
S3150000E1E00978914215D0484502D103F0C2FB824618
S3150000E1F000210020FFF74AFF0546FF2D09D01098A1
S3150000E2009DF814300090424651462846FFF743FFDA
S3150000E21008B9484625E02078401C2070F7F7ABFC8B
S3150000E2209DF81810284600F0BAF8FCF782FFFDF7B3
S3150000E2307EFF0146386830F815000122F6F7ECFB40
S3150000E24002F04DFF40B930682C305FFA8BF241681E
S3150000E2500078281841F82020FCF728FF386830F8A5
S3150000E260150007B0BDE8F08F30682C3041680078A3
S3150000E270281851F820B07047A549096800204EF6C5
S3150000E280FF7305E031F810201A4021F81020401CD9
S3150000E2909B4A12789042F5DB704780B50146002014
S3150000E2A0FFF7F4FEFF2802D14FF6FF7002BDBDE86E
S3150000E2B002409749096811F81010890704D5934957
S3150000E2C0096831F8100070474FF6FF707047FEB5C9
S3150000E2D0954A127890420C4606D28D4E3168054614
S3150000E2E011F81510890701D49320FEBD00F051F8EE
S3150000E2F09DF80A7000F048F8B80748BF022003D41A
S3150000E30038074CBF03200420207200F0C1F830F813
S3150000E310150060817C480068405D6073306810F8C5
S3150000E320150000F00100207376480068405DA07378
S3150000E3300020FEBD80B509F08DF8FF2808D074498D
S3150000E340096831F810000006800E00F0010002BDD9
S3150000E350002002BD80B509F07DF8FF2801D001201C
S3150000E36002BD002002BD10B584B00C4609F072F85B
S3150000E3700246FF2A05D000F00DF800F005F801204E
S3150000E38000E0002004B010BD082269462046FEF7D2
S3150000E39055B902460B2316216846FEF7CCBA7FB55F
S3150000E3A001F001050446280026460FD0694620469E
S3150000E3B0FFF78DFF50B9FFF7CCFD30F816000006C9
S3150000E3C0800E00F001016846FFF764FB204603F06B
S3150000E3D06EF900953346232247A1032004F044FA40
S3150000E3E0FCF7A7FE29462046F4F7A5F9FCF75EFEE2
S3150000E3F07FBDFEB5454F04463868264630F8160000
S3150000E40088420D460AD00B232246FFF7C4FF00F0D0
S3150000E41006F800F00AF8386820F81650F7BD280A02
S3150000E4208DF809008DF8085070470B236A4621467F
S3150000E4301620FEF7C3BA38B5044600F029F825467B
S3150000E44030F8150018B337480178491E0170F7F700
S3150000E45092FB00212046FFF7CCFF2D4909680020DA
S3150000E46021F815006FF07F002749096848550020FC
S3150000E4702949096821F815002046F8F7CDF8BDE8C6
S3150000E480384000224FF6FF711120FCF7E1BF31BD85
S3150000E4901E4800687047244910B50978884204462A
S3150000E4A00CD2FFF7F5FF30F8140038B100212046F2
S3150000E4B0FFF775FF2046BDE81040BCE710BD38B534
S3150000E4C000240F4D04E00021E0B2FFF792FF641C28
S3150000E4D02878E1B28142F6D3124A00211170FFF783
S3150000E4E037FDFEF7EEF828784200BDE838400A48C6
S3150000E4F000680021FEF7E5B842424200B8EB03206F
S3150000E500B3EB0320ACE8032068E803205CE80320B3
S3150000E51060E8032064E803206CE803205DFC032028
S3150000E520C0FA0320C8FF0320C3EB0320008F8E8CA4
S3150000E530800000002DE9F24F804690B015469DF808
S3150000E54040001E4605A900F079F90746DFF8C09895
S3150000E550DFF8C0089DF814100068405CD9F8001078
S3150000E560B1F806A04988ADF80810C41BB1F5004FF4
S3150000E570E4B201DAB84204DADFF89C180020087029
S3150000E5808CE0300018BF4FF4A07A152CB4BF631C82
S3150000E5901623002000907A1E9DF81410DBB2D2B22A
S3150000E5A006A8FCF7D0F9BDF808009DF818B040F4AD
S3150000E5B000415B4652460CA800F076FB012D14BFC5
S3150000E5C00120002001900DF1190000903346BDF89E
S3150000E5D008104246504600F065F808B101205EE09A
S3150000E5E0002D5BD1D9F800004088342845D1092C8C
S3150000E5F054D19DF82100C82541064CBF802600262F
S3150000E60000060DF1190048BF46F020060022082139
S3150000E610FDF718FF002738B90822DFF800180DF1BA
S3150000E6201900FEF755F878B9DFF8F4070068017BA2
S3150000E630012933D04269D20104D5032911DB408870
S3150000E64080450ED101270BE00DF11900FFF725FEDD
S3150000E6504FF6FF71884204D0314601F071F800B9D7
S3150000E66000252A46CCA1404600F02CFBB7B1032278
S3150000E6704146304600F020FF10E0CDF810B0CDF84E
S3150000E6800CA002940DF1190001909DF814309DF82C
S3150000E690401000973246404610F0D0FC002011B0E2
S3150000E6A0BDE8F08F2DE9F14F90460FF29072DFF83A
S3150000E6B06CA7994686B0D2E9003203A80026C0E9C5
S3150000E6C00032109F08000DF10C0B1ED10822514696
S3150000E6D03846FDF7FDFFBB4607F1080558B9FDF7BB
S3150000E6E026FD04462F78119806EA090128BB481E24
S3150000E6F08041C00F1EE03846FFF7CFFD04464FF6B7
S3150000E700FF708442EED10126ECE7012911D1787819
S3150000E710397801EB0024BD1CFDF709FDA7B287423D
S3150000E72008BFD346DED003A9A0B2FFF71CFE00281F
S3150000E730E8E7002007B0BDE8F08F61BBB9F1000F34
S3150000E74001D0022F27DA012F08BF002E02D1FDF7D4
S3150000E750EEFC03E0002E08BF012F03D1FDF7E7FC16
S3150000E7600446D34695F801A00EB1812203E0022F9C
S3150000E770B4BF002280220020CDF808A00190A4B2E8
S3150000E78000945B460FF2BC610120FCF73CFA83461D
S3150000E790BBF1FF0F01D10120CCE716B9022F00DA39
S3150000E7A067B90C215846FCF78FF95A4600214046B6
S3150000E7B000F088FA5846FCF727F8ECE70025DFF862
S3150000E7C05476DFF86446DFF8649604E0AAF10100A7
S3150000E7D05FFA80FA6D1C99F80010E8B2884223D2DD
S3150000E7E02068EDB210F815008007F3D5BAF1000FD6
S3150000E7F0ECD12846FFF75DFD8DF800000222000AE5
S3150000E8008DF8010069465846FCF70EF90028D1D16B
S3150000E810BDF81800F5F79BFF396811F80B10891C35
S3150000E820761C8842F6B2D5DA300008BF0D21B9D081
S3150000E83032460C215846FCF793F9B6E738B504463C
S3150000E8400D46FCF717F8FF2805D02046FCF712F80E
S3150000E8502870012004E02C70204600F0D9FC401CF2
S3150000E860C0B232BD2DE9F04188B005460E461746C6
S3150000E87001A93046FFF7E2FF044602A80021002264
S3150000E88000230EC0DFF88C059DF804100068405C7C
S3150000E8909DF804100092031BDBB20B2BA8BF0B23C1
S3150000E8A0224602A8FCF74FF8B8464FF400403F1A3C
S3150000E8B0012F07D91F3F3ED0BF1E012F2FD9193F69
S3150000E8C05FD067E09DF80800002863D19DF812002C
S3150000E8D09DF8111001EB002408220DF1090105A88D
S3150000E8E0FDF7ACFE012205A9A0B203F09EF806468C
S3150000E8F0A0B2A8424ED0012105A8FFF7CBF848F2F6
S3150000E9000100804508BF002E44D1FCF712FC00220E
S3150000E9102946A0B2F6F780F8FCF7C8FB3AE048F2C1
S3150000E920210080459DF808200CBF012000202946C3
S3150000E93011F0BEF92EE09DF8080058BB9DF809506D
S3150000E9400FF208570026F6B2AE4223DAD7E90012D4
S3150000E95005A80823C0E90012002000900C2016FB31
S3150000E9600040821C9DF80410D2B205A8FBF7EBFF0D
S3150000E97005A8FFF792FC08F06DFDFFF78CFD761CED
S3150000E980E1E7FDF7D4FB854204D02246314602A8D2
S3150000E99011F08BFA6CE00000310000003EB5154620
S3150000E9A004460A4600230221684600F07DF92A46FD
S3150000E9B0B8A1204600F086F93EBDF0B585B01646F2
S3150000E9C004460D461F460A9A0023012100F078F8F6
S3150000E9D00B9800F09DF8BAA196E02DE9F0410C469F
S3150000E9E0002514F0784F88B0804616461F4604D09E
S3150000E9F0012500230022392102E0002300223821CC
S3150000EA0004A800F051F900208DF81400FF2EBDF87F
S3150000EA10160040F04000ADF8160002D1FFF7A7F847
S3150000EA2009E0FE2E06D1FFF7A2F8401CC0B2FFF7A0
S3150000EA30A6F800E03846230CA2B2C0B265B1009336
S3150000EA40FF2E0CBF0FF20C410FF210411346039735
S3150000EA5002900196012208E0FF2E0CBF0FF204413E
S3150000EA600FF20841029701900096404600F02AF9FD
S3150000EA7008B0BDE8F081F0B585B004460F461546EE
S3150000EA801E4600F019F8204600F0B6F91FB13846C8
S3150000EA90F5F758FC0BE0DFF88C030069C1884FF6E8
S3150000EAA0FF321140C1800020DFF884130870009601
S3150000EAB02B462246CFA125E000234FF48062132186
S3150000EAC001A8F1E01FB5FFF7F7FFF7F7DDFC0446F5
S3150000EAD0FDF72DFB02460094C6A1D04B4FF6FD7004
S3150000EAE000F0F0F81FBDF0B585B004460D46164699
S3150000EAF01F4600234FF480620021FFF7E1FF00F07C
S3150000EB0007F8C0A14FF6FD7000F0DCF805B0F0BDC7
S3150000EB108DF8087000962B462246704770B5C04C9B
S3150000EB20206882B0407B022803D16846F7F789FC4B
S3150000EB3008B1932076BD2068007B012818BF022803
S3150000EB4002D1BC4D287808B9702076BD09F0BFFA0D
S3150000EB500646B44C2878E0701E20FCF742FC0F20D5
S3150000EB6096FBF0F0C0EB0010301A00F095F8201D6F
S3150000EB7007F034FC002076BD80B5AA490020087154
S3150000EB801E20FCF73DFCFCF75FFA00F004F8BDE838
S3150000EB900140FCF78BBA2DE9F043A3B01F200024F7
S3150000EBA0ADF80A00ADF80C40ADF80840F7F76CFC7C
S3150000EBB0ADF80E00ADF81040BDF80A00994DB0F55D
S3150000EBC0004F05DA2878401C287040F0800000E0ED
S3150000EBD000208DF8240009AEE878DFF85C927070AA
S3150000EBE04FF00208AF781CE005A9FFF770FBB8B933
S3150000EBF0B8F1520F14DAD9F80000FFB2F021C05D67
S3150000EC0008420DD109A8082205A94044FDF716FDC2
S3150000EC1008F108005FFA80F8A878401CA870641C08
S3150000EC207F1CE978F8B28842DED37470414609A8A1
S3150000EC30FBF76DFE0646FF2E29D0E4B24CB100204C
S3150000EC4001900096FF2302AA4FF6FC710620F5F705
S3150000EC5091F93046FBF7D8FDA878E978884211D2B9
S3150000EC6009F035FA04461E20FCF7BBFB0F2094FB87
S3150000EC70F0F0C0EB0010201A00F00EF8281D07F087
S3150000EC80ADFB04E01E20FCF7ACFB0020287123B08E
S3150000EC90BDE8F08332000000C0B24FF47A7142F250
S3150000ECA0107211FB0021704710B5002404714471E5
S3150000ECB041800480C28003815A49086110BD00006A
S3150000ECC0323131000CB42DE9F04784B05FEA010A15
S3150000ECD00CAA814608BF166803D00120FBF767FF20
S3150000ECE00646F6B2FF2E08BF182079D04D4C216992
S3150000ECF00A794FF6F878C145ACBF0120002022B949
S3150000ED0000280CBF0825092505E0002200280A7105
S3150000ED1014BF0625002546480778FF2F0BD14888E3
S3150000ED20B0F5004F05DA2078401C207040F08007CF
S3150000ED3003E00F8901E0FF210170FAB2002130469D
S3150000ED40FBF70EFF2269607878B1FF2000900196EC
S3150000ED501346A089FAB24946F5F7C2FA05460020DD
S3150000ED6060704FF6FF70A08107E001900096FF23C8
S3150000ED7049462846F5F7FEF80546BAF1000F1CBFCE
S3150000ED803046FBF741FD742D29D1C14527DA2069AC
S3150000ED904088B0F5004F22DBFDF7C9F921694988A3
S3150000EDA048F2040291420CBF17A118A1002200925A
S3150000EDB003468A220120FBF726FF0646FF2E0ED0C9
S3150000EDC0FAB20021FBF7CCFE002001900096FF234B
S3150000EDD022694946F5F7CEF83046FBF715FD284679
S3150000EDE004B0BDE8F0075DF80CFB0E48007840F073
S3150000EDF080007047323831000A4901224A70888102
S3150000EE0070470000383131003132310031320000B4
S3150000EE1098FB03204CE80320BBFF032034F90320B2
S3150000EE20C0FA0320B8F8032060E80320B3EB032000
S3150000EE30DEEB0320C8FF0320ACE80320FFFFFFFF43
S3150000EE40FFFFFFFF313832313100000000000000C3
S3150000EE5000000000313232313132000031323231BD
S3150000EE6031000000323231313200000032323131AD
S3150000EE70000000002DE9F84380460E4691461C46E8
S3150000EE80FBF7F8FC0546FF2DDFF8C4750BD0B9F18A
S3150000EE90000F13D1FBF76AFEFF2820702ED13868C9
S3150000EEA0405DA8BB2AE0386810F80800851BFF2ED5
S3150000EEB008BF012023D0E8B210B9FF2020701DE062
S3150000EEC05FEA09001DD047463846FBF78FFCEDB2D6
S3150000EED000953346424600213846FBF72CFFB9F130
S3150000EEE0000F0AD029463846FBF7EEFDDFF8640529
S3150000EEF00068C15D01F07F01C15527700020BDE8A3
S3150000EF00F283E9B20020FBF702FD0746FF2FDED1B0
S3150000EF101820F4E738B50446DFF834050068055DC7
S3150000EF20204600F0F2F800F10E03DBB2E91A89B2CE
S3150000EF300091224601462046FBF7FDFE2046A5F13C
S3150000EF400E01BDE83440C9B2FBF7BEBD38B5044674
S3150000EF5007F075FB0546204607F067FB6A7808212F
S3150000EF60D30748BF0921130744BF0831C9B2D206E7
S3150000EF7044BF0831C9B20818C0B232BDDFF8D02488
S3150000EF801268125C8A428041C043C00F704701700C
S3150000EF90090A4170801C704710B504460822FDF727
S3150000EFA04DFB04F1080010BD2DE9F04B90460E46CE
S3150000EFB0024684B099464FF6FF71042007F005FC1F
S3150000EFC00546FF2D78D007F03AFB074607F08FFC81
S3150000EFD048B107F04AFC06F0010181F00101084240
S3150000EFE018BF46F40056DFF870442068C07E10B99A
S3150000EFF04FF6FF50064030050CD5B9F1000F09D188
S3150000F00069464046FDF75DF800280EBFE9464FF217
S3150000F010FF70064031463846FFF7B9FF4146FFF715
S3150000F020B6FF8346FDF783F801465846FFF7AFFF64
S3150000F030DFF8282413780C9A0146481C0AB193423B
S3150000F04000D21A460A7021684A7E521C4A7600F897
S3150000F050012BF10548BF401C310544BF4946FFF767
S3150000F0609BFFF10444BFDFF8F813FFF795FFDFF8C5
S3150000F070E04321684A5D8018C01B485540F20110E4
S3150000F080064218D14FF6F870804514DA2068475DBD
S3150000F090FCF74FF829464046F5F7FCFCFCF706F866
S3150000F0A02068405DB84206D0284607F0C8FA417885
S3150000F0B041F004014170284604B0BDE8F08B70B5FC
S3150000F0C082B01546069A1E4641F209240AB141F657
S3150000F0D0092400910246079B2146FF20FFF764FFA3
S3150000F0E00446FF2C09D032462946FBF79DFC002832
S3150000F0F0204602D0FBF788FBFF2076BDD648016884
S3150000F100487E401C4876C0B2704738B50446FFF7C3
S3150000F1101DFF0546204607F092FA4078400704D5C1
S3150000F12000F072F8401C05EB4005E8B232BD4178AC
S3150000F1300A0701D400207047C90701D50930704776
S3150000F1400830704700F108014078C20601D400205B
S3150000F1507047C20748BF491C000702D501F10800E5
S3150000F16070470846704700F00302012A00F00C01C0
S3150000F17001D0C00601D5022070470C2901D1092013
S3150000F1807047082070470322114207D000F00300A1
S3150000F190022801D1032070470220704700207047E3
S3150000F1A0F8B504460D46FBF7D6FC0646FFF7DBFF2F
S3150000F1B00746300601D43846F2BD7919C9B200F0C7
S3150000F1C024F801463046FFF7DEFFC019C0B2F2BD93
S3150000F1D070B504460D46FFF7E3FF064600F014F847
S3150000F1E080060FD57119C9B200F00FF8761D00F030
S3150000F1F01801F6B2082904BF761CF6B2800644BF91
S3150000F2000836F6B2304670BD29462046FBF7A3BC49
S3150000F21038B50446FFF779FF054629462046FFF72D
S3150000F220D7FF4019C0B232BD2DE9F04385B007467D
S3150000F2300C4607F004FA0546F9F7C4FB8046384643
S3150000F240FFF763FF064631463846FFF7A9FF002160
S3150000F250009103463246394601A8FBF774FB9DF838
S3150000F260047007F00C010C291CBF07F003010129EB
S3150000F2700DF1050607F00C004FF0FF0906D0F90660
S3150000F28004D49DF805100DF1060600E0FF210C28B8
S3150000F290617105D13046F9F795FB2081B61C01E076
S3150000F2A0002020816878C00703D5A81CF9F78AFBDF
S3150000F2B0208107F0030001280DD0F8060BD4304654
S3150000F2C0F9F780FB6080B51C2846F9F77BFBAE1C7E
S3150000F2D0208016F8019B84F804903078A0720020F4
S3150000F2E0790648BF4020B90648BF40F020005FEAD3
S3150000F2F0086148BF40F4007004D45FEA486148BF23
S3150000F30040F480705FEAC84148BF40F480605FEA1D
S3150000F310085148BF40F40060E080380615D5707883
S3150000F32010F0030011D0E288B17842F40042E28086
S3150000F33007F00302022A04D1F07841EA0020208176
S3150000F34003E0012808BF0902218105B0BDE8F0836A
S3150000F3502DE9F041154686B080460C46E888082C13
S3150000F36018BF0C2C064604D080045CBF06F0400093
S3150000F3700143394F3868C07E10B106F020000143C2
S3150000F380300448BF41F08001032C0AD112208DF8C9
S3150000F3900000B00644BF32208DF800000DF10100D8
S3150000F3A025E00C2C8DF8001005D129890DF10100FE
S3150000F3B0FFF7EDFD04E068798DF801000DF102001C
S3150000F3C06988FFF7E4FD2988FFF7E1FD297900F850
S3150000F3D0011B022C0BD0B10709D4310402D52989AF
S3150000F3E0C9B221B939688A7E531C8B76AA72032C5E
S3150000F3F0A97A00F8011B17D0310415D529890A0A04
S3150000F400022C01D0CBB243B1022303704170801CA1
S3150000F410022C09D100F8012B06E010F8011CA97294
S3150000F420427001210170801C3968C97E19B1A97921
S3150000F430890648BF401D6946421AD2B24046FBF7CC
S3150000F440F3FA401E8041C00F06B0BDE8F08100000F
S3150000F4504CE8032050E80320C0FA0320C4EB032045
S3150000F46034F9032080B5DFF8A013002008710620C8
S3150000F470FBF7C6FFFBF7E8FDDFF890030068407B6B
S3150000F480042814BF532800F066F8BDE80140FBF7D6
S3150000F4900DBE18B1DFF8781309880180DFF868031C
S3150000F4A00078704780B517229AA1032003F0DCF993
S3150000F4B0BDE8024000204AE0F8B5DFF85043236873
S3150000F4C05D7B2F0018BF212D05F00F0608D01D7B90
S3150000F4D0012D01D1850603D4DFF82C532F790FB106
S3150000F4E07020F2BD2A70012EC94A118004D1212054
S3150000F4F0587300F030F828E081064CBF53210421F0
S3150000F50059732168097B032916BF042900F02000DE
S3150000F51000F0A00001464FF6FD7000F030F92068BB
S3150000F520407B042804BF0120F6F7ECFE0620FBF71B
S3150000F53058FF2068007B032816BF04284FF400718B
S3150000F5404FF40061281D06F049FF0020F2BDFF229E
S3150000F5504FF6FF71B0E780B506F094FA09F0B8F9F6
S3150000F56008F01BF9AB4800780B2802D007F019FC0D
S3150000F57006E00620FBF735FF0FF20D00FDF75BFCFA
S3150000F580BDE8014008F095BE10B50620FBF738FF30
S3150000F590FBF75AFD9D4C2068417B532906D1032178
S3150000F5A0417301200021F5F717FF29E0042918BF50
S3150000F5B0212925D10120F6F7A5FE4FF6FE70FCF7AE
S3150000F5C0BAFD4FF6FF70FCF7BEFD0020F6F70CFE05
S3150000F5D0F6F7D1FA04F0B9F9F8F78CFD012007F037
S3150000F5E031FF2068407B212802D1F5F7CCFC07E0EB
S3150000F5F00020FCF787FE00214FF40040F7F7ABF838
S3150000F600FBF754FDBDE81040FBF74EBE2DE9F8436D
S3150000F6100E468046511CC9B23046FBF79CFA054699
S3150000F620304607F00CF80646B01CF9F7CBF98146D0
S3150000F630A809764F00F001043868417B022966D19B
S3150000F640017B032903DB4088804503D022E0406923
S3150000F650C0011FD484B17078000708D53046FFF783
S3150000F66066FD08226C49FDF733F8002802E0FCF736
S3150000F6705EFD81454BD107E00329A4BF4FF6F87024
S3150000F680814509DBE80907D00122414605F0A000C3
S3150000F690FFF712FF002C3AD13868007B032836DAD0
S3150000F6A07078C00633D53046FFF74CFD0646314626
S3150000F6B00020FEF7EBFC0446FF2C07D0A8065CBF33
S3150000F6C0204600F029F82046FEF7E5FE404601F008
S3150000F6D0CDF9FF280BD001F07AFAA80607D4FCF77B
S3150000F6E026FD20B102223146404600F099FDFCF786
S3150000F6F01EFD60B9FBF71DFD4FF6FF730222314672
S3150000F7004046F3F751FABDE8F143FBF7CFBCBDE83D
S3150000F710F1830000420000001CB5FEF7CAFD044656
S3150000F7206946FEF720FE50B1FCF701FD38B1FCF743
S3150000F730E1FD20B102226946204600F071FD13BDAD
S3150000F74038B504460D4607F085FE0146FF2901D16E
S3150000F750012032BD2D4A1268D27E4AB12F4A126864
S3150000F76032F81110490403D5FEF795FE002032BD8C
S3150000F770FFF7D2FF45F040012046BDE8344030B5E2
S3150000F7800446880985B000F0010504208DF80800BC
S3150000F7908DF80910280008D003A92046FEF7E3FDDE
S3150000F7A008B901202EE003A800E000200190009592
S3150000F7B0022302AA01212046FFF781FC0546FF2D00
S3150000F7C008BF18201ED011480068017B032918BF06
S3150000F7D0042903D14188284606F069FF4FF6F870E0
S3150000F7E0844205DB00220221284609F011F803E0D5
S3150000F7F02146284604F094FA04462846FBF704F806
S3150000F80084F0010005B030BDDCF70320C0FA032008
S3150000F8109AEB0320DAEB032034F9032060E8032097
S3150000F82038B5044606F00BFF05462046FFF76DFC8B
S3150000F830411CC9B22046FBF78EF9697809070AD53B
S3150000F8402846FFF774FC01460020FEF71FFCBDE8C2
S3150000F8503240FEF720BE400602D4BDE8314001E644
S3150000F86031BD0000F8B50446E01CF9F7ABF80646D2
S3150000F870601D0025F9F7A6F84FF6FF77BE4204464D
S3150000F88008BF012504D0FCF75AFC864208BF0225B2
S3150000F890BC4208BF45F0040505D0FCF748FC84428D
S3150000F8A008BF45F008052846F2BDF8B50546F9F744
S3150000F8B089F806464FF6CF7000EA06072846FFF796
S3150000F8C0D1FF002448F641018E4208BF052809D120
S3150000F8D0E81DF9F777F8BD490988884214BF022464
S3150000F8E0062412E04CF6010087421ABF4CF601408E
S3150000F8F08742012409D0FBF71CFC284606F0A5FF29
S3150000F9000546FBF7D3FB05B10824B1480078204033
S3150000F910F2BD3CB50FF2CC230021D3E90045CDE979
S3150000F920004528B9AB490860002036BD491CC9B25C
S3150000F93030F811201304F5D4002300E05B1CDBB281
S3150000F9403DF813402504F1D49442F7D1022036BD88
S3150000F9502DE9F04F0446884683B04046F9F732F861
S3150000F9609C4D8346286800260027002801BFA8680A
S3150000F9700028686800284FF0030968D04FF44061FA
S3150000F9801BEA010F0BD008F10300F9F71BF84FF63D
S3150000F990FF7188420CBF022701274FF0050947F087
S3150000F9A0080001900BF4404A5FEA4B6015D4BAF1A7
S3150000F9B0000F16D00BF44060B0F5406F0CBF082066
S3150000F9C002204844C0B24044F8F7FCFF0090FCF720
S3150000F9D0B6FB009989B2814201D1019F01E047F04F
S3150000F9E004070BF44040B0F5004F08BF47F080070E
S3150000F9F004D0BAF1000F02D147F48077BFB20BF4FE
S3150000FA004060B0F5006F0BD108EB0900F8F7DAFF9C
S3150000FA108046FCF78CFB804508D147F0100704E0D0
S3150000FA20B0F5406F02D147F02007BFB2002001E0D9
S3150000FA30002610B9A968802205E0012807BF696879
S3150000FA4040222968102231B9401C0328F0DBFF2030
S3150000FA50BDE8FE8F761CF6B231F816305FEA034831
S3150000FA60F2D49F42F6D104B122703046F0E700008E
S3150000FA702DE9F04781468846F8F7A4FF0546E808D1
S3150000FA8000F001074846FFF7EDFE044605F00706BD
S3150000FA9005F4406A4FF6F77005404F4800780B288A
S3150000FAA00FD009280DD8DFE800F082050C0C82057E
S3150000FAB0050A0C07002E00E0012E01D101E0032EFD
S3150000FAC075D11FB3002E72D10B2801D1A0076ED5B8
S3150000FAD0B5F5004F1CBFB5F5624FB5F5404F66D181
S3150000FAE00026E80648BF46F08006A80648BF46F44A
S3150000FAF0805606F00C0004285BD109F10700F8F7E0
S3150000FB0061FF0146FF2246F0040055E0032E334F05
S3150000FB104DD8DFE806F00205032DD5E73B2053E07C
S3150000FB204FF6CF7000EA05064846FFF7BEFE20B93D
S3150000FB304946FFF70DFFFF2801D00826D1E748F612
S3150000FB404100864233D10A2C18BF062C2FD16007FC
S3150000FB500CD5FCF711FC18B13868007B042826D0B8
S3150000FB600BF0BAFB18BB40F60406BAE70426B8E762
S3150000FB7014F0030005D1FCF7E2FA4FF6FF71884254
S3150000FB8015D10C26BAF1000F0DD0BAF5006FA8D02A
S3150000FB90BAF5406F0BD10822114909F10500FCF7AF
S3150000FBA097FD20B99DE73868007B012899D03A2057
S3150000FBB00AE0FF220021304606F007FEFF280EBFAE
S3150000FBC0182088F800000020BDE8F087AAEB032083
S3150000FBD0CFFF0320BCFB0320DAEB0320C0FA03208F
S3150000FBE034F90320990089000080000070B5DFF821
S3150000FBF0005D0446286882B02688407B08B17020E4
S3150000FC0076BDB00504D504F1120000F030FEF0B95F
S3150000FC1006F08600862801D1B72076BD00F01AFED0
S3150000FC20286816F4045F466120D0B0040BD5A01CEA
S3150000FC3010F074F9010051D12868416921F400518E
S3150000FC4041F480714161A01C00F011FE08B1B220A0
S3150000FC5076BD05F0F1FE20B92868416941F480318E
S3150000FC6041612868416941F0200141612868416984
S3150000FC7041F40041416148064CBF04F123020022D1
S3150000FC80A31C47F2FF10F6F72FFD684600F040F878
S3150000FC9028684069C004BDF8000004D540F0200083
S3150000FCA0ADF8000008E04FF6DF710840ADF800003F
S3150000FCB009F0B4FA02F09BFFBDF8000000F00FF85F
S3150000FCC028684069800506D594F82210012204F1BF
S3150000FCD0120000F09BFB29680020486276BD10B533
S3150000FCE0044604F4E6600104002300224FF07F601E
S3150000FCF0F6F7FAFC23462F22ADA1032002F0B4FD4D
S3150000FD00E00703D500213020F6F725FD002010BDC1
S3150000FD10DFF8DC1B09684969090C01F4E66101801A
S3150000FD200020704738B5DFF8C85B04462868407B7A
S3150000FD30022801D0932032BD0A2200212046FCF77A
S3150000FD40C0FC2868406900F0FF01820648BF41F008
S3150000FD501001218080075CBFA01CF6F75CFD002027
S3150000FD6032BD38B504460D4609F065FA08B9952046
S3150000FD7032BD00F047FBC17E89B14069010401D460
S3150000FD80A82032BD5DB110F0420F08BF002C04D090
S3150000FD9000F44070B0F5407F01D0B72032BD00209E
S3150000FDA032BD00002DE9F04F8BB00446894602A80B
S3150000FDB0242108F09DF92046FFF7A7F901462046C1
S3150000FDC0FAF7C9FE0546204606F039FC80460027AC
S3150000FDD098F80100DFF86CAB800748BF0127A8063A
S3150000FDE048BF47F002072046FFF712FA8DF80400D5
S3150000FDF002ADDFF8540B00689DF80410005D9DF815
S3150000FE000420431ADBB2242BA8BF23230020009032
S3150000FE10214602A8FAF797FD68789DF808600090D9
S3150000FE20DAF80000C07E88B100F064FD002814BF37
S3150000FE304FF4D0704FF4F070F040C00706D5B80705
S3150000FE4004D4082E09D10098042805D103F092FDA8
S3150000FE50002818BF052E03D0A7E0052EF6D0A4E093
S3150000FE609DF8042000232146032006F0ECFC761FB3
S3150000FE700B2E4FF6FF7BF2D8DFE806F00617374E5B
S3150000FE805497979797596D73009806280CDA08F1DE
S3150000FE900200F8F797FD0546204606F0F7FB3B46BD
S3150000FEA002AA294600F05AFB7FE0FCF740F9002839
S3150000FEB07BD1DAF80000C17E002976D0B90702D4DA
S3150000FEC04069800171D40DF11100F8F77BFDDFF870
S3150000FED07C5A02462C700DF109039DF81300494621
S3150000FEE0F7F74CF8FF2028705FE00822DFF8601A69
S3150000FEF00DF10900FCF7ECFB20B902224946FFF799
S3150000FF00DBFA52E00DF10900FEF7C7F958454CD06F
S3150000FF100021FFF715FC48E03A4602A94846F7F7E4
S3150000FF2023FA42E06978012000F02DFA3DE0F80757
S3150000FF303BD50DF10900FEF7B0F9584504BF0DF1A8
S3150000FF40090000F068FD58452FD09DF80420214691
S3150000FF5000F030F829E03A4602A9484605F0D0FA02
S3150000FF6023E0DAF80000407B022808BFB9F1000F51
S3150000FF701BD16846F6F74FFCB8B1DFF8D819002058
S3150000FF800870687800280CBF65246424F6F74DFED7
S3150000FF90032806D100210020F6F79CFD0020F6F785
S3150000FFA047FE21466846FBF731FA0BB0BDE8F08FF5
S3150000FFB0425700002DE9F0478246DFF88C090068B9
S3150000FFC00C4688B0005D02F10905461BF1B200201F
S3150000FFD0FAF79DFC0746FF2F41D001200090002331
S3150000FFE0524608213846FEF7DFFF8046B8F1FF0F7C
S3150000FFF032D0E9B22046FFF7EBF8814601A81C2172
S3150001000008F076F8002000904B46EAB2214601A896
S31500010010FAF799FC4A4601A94046FAF705FDC0B927
S31500010020A6EB0906F1B23846FAF77EFB504607F011
S3150001003011FAFF284D4400F09AF9F6B20096EBB298
S31500010040224600213846FAF776FE5146404603F02D
S3150001005067FE4046FAF7D8FB3846FAF7D5FB08B0F3
S31500010060BDE8F0872DE9F24F8046174686B01D465A
S3150001007000213846FAF76FFD04460226E808082CE7
S3150001008000F0010018BF052C8DF804004FF000099F
S315000100904FF0080B03D0062C18BF102C01D16808AD
S315000100A00CE000F0AFF9C07E58B100F023FC002847
S315000100B014BF4FF4D0704FF4F070E04000F0010A25
S315000100C000E0CA46FF2F6CD0E80748BF4FF4027B19
S315000100D0C82000900023424659463846FEF764FF81
S315000100E00746FF2F5DD09DF8040028B106993846D2
S315000100F0F7F7AFFA002851D04FF6F8708045ACBF3C
S3150001010009200120102C18BF0F2C8DF8080005D1ED
S315000101109DF8080040F040008DF8080000F072F9E3
S31500010120817E4A1C8276BAF1000F8DF8091006D03D
S315000101309DF8080040F020008DF808000F26324691
S3150001014002A93846FAF770FC40BBBAF1000F1AD083
S315000101500021052C0BD13846FAF78CFB0121FAF761
S31500010160FAFC6224C440E0074CBF102118219DF817
S315000101700400002819BF0223069A412300223846AB
S3150001018002F0DCFE50B9680704D54146384603F053
S31500010190C7FD02E0384603F0FAFB81463846FAF716
S315000101A033FB484607B0BDE8F08FF8B504460D4667
S315000101B0284606F0C0FADFF8947706463D70FBF74D
S315000101C0B6FF0146334622460120F6F7D7FEFF2049
S315000101D03870F1BD7CB51C46DFF814371B681B7DF2
S315000101E000259B0701D5002076BD019200900B46A4
S315000101F006220FF278710020FAF705FD0646FF2E5A
S315000102000CD0002C14BF0323012332460021002009
S31500010210FFF728FF05463046FAF7F6FA284676BD77
S315000102202DE9F04104460D4616460027F6F7DFFB99
S31500010230B84618B1012300F014F80746F6F7D7FBC4
S3150001024038B100F057FB40B100F0DCF8406980019D
S3150001025003D4002300F005F8804648EA0700BDE80C
S31500010260F081324629462046B4E72DE9F34F9B46F5
S31500010270BBF1030F92460CBF01270027BAF1000F0D
S315000102808DB018BFD04605D101A8F6F7C4FA48B11A
S315000102900DF1040823210020FAF739FB8146B9F153
S315000102A0FF0F01D100205FE0FAF738FA0446052076
S315000102B0207084F801B0199DE80607D511220021A6
S315000102C0A01CFCF7FEF904F1130618E01899102298
S315000102D0A01CFCF7B3F9622020FA0BF0C00704F169
S315000102E012060CD503A908A800F0A4FA3046461C4C
S315000102F0A9064CBF9DF81C109DF8301001703800FE
S3150001030008BFDDF838A0082251463046FCF796F9B9
S3150001031008362FB1A80900F0010006F8010B09E023
S3150001032001200090321B0823D2B249464046FAF713
S315000103300AFB0836311BC9B24846FAF7F5F96807D0
S3150001034006D5BDF8340007F085F8FF2800F00FF850
S315000103500E99BDF834002B464A46FFF783FE044644
S315000103604846FAF751FA20460FB0BDE8F08F09D09A
S31500010370DFF8E415096831F810204BF6FF731A40CF
S3150001038021F81020704730B58BB004460D4600F0B9
S31500010390A0F8684600F06BFA60B99DF810009DF868
S315000103A024100A1AD2B2812A04DB2CB1A94201D047
S315000103B0A84201D0002023E01123022205A900F062
S315000103C070F89DF810100122684600F01FF80DF034
S315000103D025F901214FF40070FDF7F4FD08F018FF2F
S315000103E0B0F1004F88BF08F019FFFAF7A2FE00F03E
S315000103F009F890F82000F2F753FCFAF757FE0120AE
S315000104000BB030BDDFF8E80400687047F0B58FB077
S3150001041005460C461646112200216846FCF751F99D
S3150001042001278DF810402DB9102200216846FCF7EE
S3150001043048F904E0102229466846FCF7FFF8112224
S3150001044000210AA8FCF73DF91122002105A8FCF7B5
S3150001045038F905A90AA800F0EDF9300014BF0AA879
S3150001046005A811226946FCF733F900B9002786B1C0
S31500010470DFF87C544FB11123062200F011F82868E9
S31500010480407B432808BF0DF01BF8286880F8204000
S3150001049004E01FB11123022200F002F80FB0F0BDF3
S315000104A069460020F8F7D7BA70B58AB004460D46FA
S315000104B0164600F00EF8002E14BF05AE6E46102249
S315000104C031462046FCF7BAF8307C28700AB0002085
S315000104D070BD694605A8ADE130B58BB00446032071
S315000104E08DF80000FBF723FE58B1FBF703FF40B17F
S315000104F001A8F6F790F920B1FFF784FF007D800788
S3150001050001D5702028E00F208DF80C000822042068
S315000105108DF80D000DF10E00DFF83414FCF78EF89E
S315000105200DF1160301226946204609F01CF91A212C
S3150001053003A8FAF7ECF90446FF2C0CD00123224656
S3150001054001A90020FFF78EFD05462046FAF75CF962
S315000105500DB1002000E018200BB030BD2DE9FF4F92
S31500010560551C85B015F8010B029003280CBF012418
S315000105700024FBF7DCFD4FF0000BD8460028C146EE
S3150001058053D003F0F7F9002804BF9DF82000002896
S315000105904BD0AA46504600F06AF906460299DFF8A2
S315000105A0A47362201035C84010F001008DF80000D8
S315000105B018BF15F801BB039594B905F10808A8B34E
S315000105C03868007D800731D5FF2208214046FBF7B8
S315000105D039FF58BB0023424600210220F6F784F872
S315000105E0FBF7A5FDBDF81810884207D144B9039859
S315000105F0DFF85C130822FCF76BF8002840F0D58081
S315000106000020ADF800006846FFF782FB02989DF8CE
S31500010610204001285ED0032851D0042805D1F6F7E1
S31500010620E6F9002818BF032C0FD0E7E04046F6F79D
S3150001063027F90028D4D13868407B432804BF0298A3
S315000106400128F2D14FF00109CAE7002EEDD1534638
S3150001065042462021C148F6F747F83968002048622A
S31500010660BC480078A8B15046FFF736FFF6F7DDFA29
S3150001067002280ED10120F6F7D5FA0320F6F7D8FAAB
S3150001068010225146B648FBF7D9FF01210120F6F7A2
S3150001069021FA3868417B02290BD103214046FAF73A
S315000106A0B5FEF6F7C2FA002802D10021F6F712FAD2
S315000106B0A4E04129FCD140694005F9D572E0032C3B
S315000106C0F6D10798817E01B1012152461230F6F723
S315000106D00BFC93E03868407B022806D1F6F787F9D0
S315000106E018B19DF820008007F3D53868407B412872
S315000106F00AD036B903F03EF9024659465046FFF78D
S3150001070085FE03F037F9002878D09DF8200000F027
S315000107100204F6F76CF960B138684169090502D43B
S31500010720407B432805D1200003D1AC20F4F72BFBF5
S3150001073064E03868007D800704D4BDF814100020F9
S315000107400FF069FD3868417B112913D140694005D5
S3150001075010D50020F6F755F900284FD1F4F730FBF4
S31500010760AE20F4F710FB00210020F6F7B3F9F4F7F9
S315000107700EFB43E00CB100F08BF8B9F1000F11D07C
S315000107804FF080510020F5F7E6FF05F055F918B94D
S315000107904FF48031F5F7DFFF3968002048624046A3
S315000107A0F6F76CF8F4F772FB28E09DF8000088B1C3
S315000107B0BDF818004FF6F87188420BDB039800224A
S315000107C00821FBF73FFE28B1002259465046FFF7A4
S315000107D01DFE13E00398FBF759FC4FF6FF718842A3
S315000107E00CD0002E14BF152104210191CDF800A0D3
S315000107F04246029B0399DBB2FFF737FD09B0BDE81C
S31500010800F08F574868E610B58AB00446FFF761FED7
S315000108109DF824108C4205D105A8FBF7B8FE0120EE
S315000108200AB010BD9DF81000844208BF6846F4D096
S315000108300020F5E710B50C460146112306220120DA
S31500010840F8F709F92146BDE81040112302220120DB
S31500010850F8F701B980B5002200210020FFF7D6FD87
S31500010860BDE8044000214FF6FF70F5F774BF002282
S315000108701021FBF7E7BD80B5FFF7C4FDC07E30B19F
S3150001088000F006F8BDE802403148F5F7F5BF01BDB5
S315000108902C480068007D10F0300F03D02021302055
S315000108A0F5F759BF704727480068C17E01B97047FF
S315000108B080B5007B032818BF042816D0002000F05D
S315000108C0CBFD48B10179302211420ED101F0CF01A1
S315000108D041F01001017101BD00F0D2F828B1BDE867
S315000108E00440002100200FF096BC01BD000000006D
S315000108F0C0FA032080B5FBF71AFC0028FFF782FD3A
S3150001090040690CBF8008000D00F0010002BD10B562
S3150001091088B004A8F5F76BFF0FF258000FC86C46B4
S3150001092084E80F001022694604A8FBF7D1FE401E99
S315000109308041C00F08B010BD0A48007870470A48C8
S3150001094000887047C0FA03204CE80320E0EB03203F
S3150001095034F90320C1FF032060E8032030000100C1
S31500010960CCF80320DFEB0320A6EB0320313832312C
S31500010970000000005A6967426565416C6C69616EE9
S31500010980636530394FF6FF71884200D1704780B5F3
S3150001099000F086F9FF280BD000F049F801444A8897
S315000109A0A2EB1210DFF8E427127800EB0210488060
S315000109B001BD80B5DFF8D0070268002182F82D104D
S315000109C0006890F82C001B2802DB772100F05CF907
S315000109D0FAF7B3FCFF2803D1DFF8B4170320087038
S315000109E001BD30B5DFF8A027126852F8283F5279C9
S315000109F0002401E00E33641CE5B2954208D21D883D
S31500010A008542F7D30C701988884202D1012030BD86
S31500010A100A70002030BD80B500F010F8FF2802D121
S31500010A204FF6FF7002BD00F002F8085A02BDDFF86A
S31500010A3058170968896A0E2250437047F8B5DFF8DE
S31500010A40485704462868866A002701E00E367F1C4F
S31500010A5000F05AF908D20822B11D2046FBF738FEEC
S31500010A600028F3D1F8B2F2BDFF20F2BD80B5694688
S31500010A70FFF7B7FF10B19DF8000002BDFF2002BDD0
S31500010A8080B56946FFF7ADFF40B1DFF8FC060068A7
S31500010A909DF80010806A0E225143084402BD2DE9DB
S31500010AA0F047DFF8E4560FF20476044628682C3046
S31500010AB082B041780078814203D3D4213046FBF7D6
S31500010AC029FE69462046FFF78CFF18B1D72130462B
S31500010AD0FBF720FE28689DF8002028300E27417973
S31500010AE08E1AF6B2002E4FF6FF7842D09DF90020FD
S31500010AF0DFF8A0361B68012191404A1E4FF0000C19
S31500010B0019E0B3F800E0C64512D090F804A0D3F876
S31500010B1004E04FF0FF3909FA0AF902EA0E0A8A449B
S31500010B202EEA020E0AEB4E0E4EEA090EC3F804E057
