S01600007468726561642D746573742D6170702E7333370B
S3150000000038580020E972030015360000916F03008E
S31500000010A70B0000000000000000FFFF54000000D6
S3150000002004180F000000000000000000000000009F
S3150000003000000000000000000000000000000000BA
S315000000400000000000000000000000009300000017
S315000000500000000038580020E97203001536000041
S31500000060916F0300A70A0A010002000004180FACF2
S3150000007000269300000000000000000000000000C1
S31500000080000000000000000000000000000000006A
S31500000090000000000000000000000000FFFFFFFF5E
S315000000A0FFFFFFFFFFFFFFFF00E00300000000006F
S315000000B000000000FFFFFFFFFFFFFFFF340000000E
S315000000C0000000000000000000000000000000002A
S315000000D0000000000000000000000000FB7D002082
S315000000E0FB7D00203858002074CB0300807A030083
S315000000F060490020401F00200000040000000000AE
S3150000020038580020E972030015360000916F03008C
S31500000210996F0300956F03009D6F0300A96F03009C
S31500000220A96F0300A96F0300A96F0300A96F03005C
S31500000230A16F0300A96F0300A96F0300552B0000EF
S3150000024053800000690B0100191C0000A96F030010
S3150000025071070100B10B01006F0B0100710B01006A
S315000002606B0B0100F19B0200E77300004B75000069
S3150000027023550000A96F0300A96F030013050000B2
S31500000280A96F0300A96F030005740000A96F03009E
S31500000290A96F0300A96F0300A96F0300A96F0300EC
S315000002A0A96F0300A96F0300A96F0300A96F0300DC
S315000002B0B30B01006D0B0100C5760300BB77000090
S315000002C0EB0B0100A96F0300B5760300A96F0300CD
S315000002D0A96F0300A96F0300A96F0300A96F0300AC
S315000002E0A96F0300A96F03006C496D4A01E021B1B3
S315000002F0491E1369DB07FAD401B9B0E0506001204A
S315000003001060106910F0060F05D0410700D5A9E06E
S31500000310800700D5A9E000207047F0B513460022FB
S31500000320002936D05D4C5E4D8BB98B4231D250F8E8
S31500000330046BEE605B1C08262E60264601E036B391
S31500000340761E2F69FF07FAD4002EEED11FE0EFF3D9
S31500000350108672B600230EE02F6907F01907102FDA
S3150000036008BF2F602F693F07F6D550F8047BEF6072
S315000003705B1C10272F608B42F4D306B962B6264663
S3150000038001E026B1761E2869C007FAD40EB96FF0CF
S3150000039002021046F0BD2DE9F0479A46414B424F06
S315000003A01C681B683B688046002043F001033B60E5
S315000003B0950881460C4602E0B14404EB8604A94543
S315000003C017D208EB89063046FFF78EFF010014D1DD
S315000003D0C6F30A00C0F500608608A5EB0900B04226
S315000003E038BF0646524631462046FFF796FF0100C3
S315000003F0E2D03968490849003960BDE8F0872949E3
S31500000400264A0B68096828490B6843F001030B600C
S315000004108860012048604869400704D5086840089C
S31500000420400008601EE04869800704D50868400857
S315000004304000086019E00220486001E022B1521E27
S315000004404869C007FAD422B9086840084000086025
S3150000045005E00868400840000860002070476FF01B
S31500000460020070474FF0FF3070476FF00100704791
S31500000470002390E70C48016841F00101016046F253
S315000004801A31C1644FF4807141604169C907FCD4D7
S315000004900021C1640020704700000000809698008B
S315000004A00C000E4004300E4008000E40072803D210
S315000004B00FF2EC01085C7047FF207047072803D253
S315000004C00FF2E401085C7047FF20704738B5044618
S315000004D02D4800EB8105A8780009FFF7E7FF20719A
S315000004E0A87800F00F00FFF7E9FF6071FF2814BF3E
S315000004F001200020E8702146E878A0712878607015
S315000005006878224DA070284600F0A1F80120A86066
S3150000051031BD10B50FF27C0184B01CC968461CC001
S3150000052019481B4A817BD36814682340DB072AD508
S31500000530032928D2126900EB810400EB4103E47819
S315000005401CB114B2002C48BF00229A820122C37B40
S3150000055002FA01F11943C173417B91B10021437B3A
S31500000560CB40DB0708D581738A40437B5A404273F0
S315000005706846FFF7ABFF1FBD491CC9B20329EED37E
S315000005801FBD032181731FBDD461002000200040E0
S31500000590382000400000000000FF000000000000BE
S315000005A0E07B7C65466C6D00FF7B7C65466C6D0070
S315000005B0890001EB401000F184400260704730B5BD
S315000005C0002A446BDFF834511ABF1022DFF83031AD
S315000005D0DFF8303123400024A84237D1DFF8280164
S315000005E051B101290CD002291ED003290CD00629AD
S315000005F015D0812918D023E001680468006816E048
S3150000060001680468006802E0416844684068090CB3
S3150000061001F4FE41C4F303442143000C0CE081685D
S31500000620806801F00F0107E041684468406801F402
S31500000630FE4104F00F04214300F0F00040EA0104FB
S3150000064004FA02F0DFF8C4101843086030BD38B56C
S3150000065004460D460220A0600022A9782046FFF736
S31500000660AEFF287969786B79020242EA016242EAB2
S315000006700342EB7842EAC302EB790BB142F0005237
S315000006802B7A0BB142F00402AB790BB142F00202B5
S315000006906B7A0BB142F00102AB78F32806D1180051
S315000006A004D10429BCBF042060F31B6218064CBFAA
S315000006B042F0E00042EA43102061154960690840B3
S315000006C0A9780A0644BF21F080010843297840EA48
S315000006D04140E97A09B140F4804060610221AA7A7A
S315000006E02046FFF765FF2879F32804F13000BDE8BE
S315000006F038400CBF01220022102159E7002000409B
S31500000700FFFF00800080FFFF1082E00F34200040D2
S31500000710F8BFE1FF42DE704738B504460D4600F0EB
S315000007202BFC01F094FA01F09FFA2946204601F0CD
S31500000730A1FA2B4622460FF2CC11012001F013FC40
S3150000074029462046BDE83440E4E765482DE9F047F0
S31500000750644D01682E1D4FF420687165016AB1650C
S3150000076061490A68F26549683166416A7166816A5B
S31500000770B166C16AF166016B3167806B706796F886
S31500000780340040074CBFF46BB46B01F086FC0022CA
S31500000790F2648442554A014624BFA2F1200AA245CA
S315000007A02746316505F19003DFF844C1DFF844E1DF
S315000007B018D3A0693064E4697464746DC4F30804E2
S315000007C0062C13D1704511D360450FD200884DF623
S315000007D04264A0420AD13068586040F201787068DD
S315000007E0986003E0002737647764074642488142F1
S315000007F002D2014600E0091D0846904203D20C6869
S31500000800B4F1CD3FF7D03D49081AB064002100206D
S3150000081005EB8004401C0628E167F9D3002003E0BD
S31500000820C0B205EB8004E167974223D252F8041D5B
S315000008307145F9D36145F7D2CC07F5D5002405EB10
S315000008408409D9F87C90894502D0641C062CF6D31D
S31500000850062CE9D1002814BF401E0520E0E7B16F41
S31500000860002405EB8402641CD2F88070D767052C3F
S31500000870F7D319600146481EC9B20029EFD1706D41
S31500000880C0F30800032810D0042811D0052812D080
S31500000890062813D00C2817D0122818D1184800683B
S315000008A0800719D540F2025816E040F6012813E0F9
S315000008B040F6022810E040F603280DE0B8F5206F58
S315000008C00AD140F6042807E040F6052804E018B1EE
S315000008D03A2838BF40F607284046BDE8F0870000B2
S315000008E004ED00E00000002000E300E0385800209E
S315000008F0807A0300AC0400009C00002038580020D9
S315000009001C2005400D0A5B4153534552543A25704D
S315000009103A25645D0D0A000080B500230093134656
S31500000920012201F017FC01BD00F074BE00F072BE9A
S3150000093010B54C00014600F04DFD224601F0E9FBE2
S31500000940A04201D0002010BD012010BD80B500F0EE
S3150000095041FD01F064FC00B10120C0B202BDDFF828
S315000009605C0B407D00B101207047DFF8502B117BF6
S3150000097001B9704780B50146106A01F0A6FC20B1A6
S31500000980BDE8044040F27111ECE201BD10B5DFF89C
S315000009902C4B627D010018BF012102B10122914258
S315000009A0607519D068B16FF07F00FFF7DEFF01F0C8
S315000009B0E7FCC00510D5206ABDE81040012101F012
S315000009C015BEDFF8CC4A94F90C0000F0C1FD207A80
S315000009D0BDE8104000F019BD10BDDFF8E01A497DF2
S315000009E001F0FE010843D1E780B500F0F3FC01F009
S315000009F089FB00F00300032801D1012002BD00207D
S31500000A0002BD80B5B0F5004F07D100F0CCFDDFF890
S31500000A10C00A00F0C8FCBDF80000DFF8741AC883ED
S31500000A20002002BD2DE9F04F440900F01F05002704
S31500000A30DFF8F08A00E07F1C98F80660F8B2B04252
S31500000A4036D2D8F80800FFB250F827004FF0000C55
S31500000A5001E00CF1010CC67E5FFA8CFEB645EAD2C7
S31500000A60D0F81CE05FFA8CFC142616FB0CF6B64494
S31500000A709EF8086006F00706A642EAD19EF80960CD
S31500000A80B542E6DB9EF801B09EF8009006EB0B0A35
S31500000A90AAEB090AAA45DCDB11B1AC1B4C440C706D
S31500000AA012B19EF8081011701BB1C3F800E000E007
S31500000AB00020BDE8F08F400918BF40F018007047CD
S31500000AC010B5DFF8844A206A01F0A9FB0246206AC5
S31500000AD0BDE81040002101F0BEBB0B38102834BF22
S31500000AE0DFF8440ADFF8640A006870473EB56846D6
S31500000AF00021002200230EC0DFF8940901788DF84A
S31500000B000010817A0A0018BF022914D10079DFF893
S31500000B10385A00F0BBF8044600F00EF858B1286ABF
S31500000B200122002101F0F0FA00F006F818B140F2B7
S31500000B305B2100F066FB37BD286A6A46214601F054
S31500000B4022BB2DE9F041044604F01F001B2886B0A5
S31500000B5034D2002000906B46002200212046FFF789
S31500000B6061FF07002AD02046FFF7B7FF5FEA0008BB
S31500000B7024D0DFF84869DFF8B459F06B804515D00A
S31500000B8001A84146062201F037FD306AC6F83C80CE
S31500000B9001A901F0E1FB88B9306A03A901F0EAFB7B
S31500000BA0B5F91C10306A01F0B2FB38B90098B06292
S31500000BB077620098002818BFC06801E08A200EE01E
S31500000BC0F06229798C421CBF2C71FFF78FFF96F9D2
S31500000BD00D00C101306A09B201F0FEFE002006B028
S31500000BE0BDE8F081DFF8440900797047DFF83C0979
S31500000BF0B0F91C00002854BF05216FF00401081845
S31500000C000A2190FBF1F040B270470A2110FB01F077
S31500000C10FFE7F8B500F5D77240F277239A4201D381
S31500000C208B20F2BDDFF89448DFF80059A26A0A2348
S31500000C30002A1EBFAE7F06F0C006802E12D0A67B0D
S31500000C4086B992F9026016FB03F7B842B8BF16FBE5
S31500000C5003F007DB92F9032012FB03F68642B8BFC6
S31500000C6012FB03F0217B61B10146206A01F04FFBC4
S31500000C7018B140F2B92100F0C4FA206A01F05AFB1B
S31500000C8001E010FB03F0A8830020F2BD38B504464E
S31500000C90FFF723FF90B10023002200212046FFF733
S31500000CA0C1FE58B104F01F051B2D07D22046FFF7E1
S31500000CB002FF18B90B2D01DB284632BDFF2032BDDD
S31500000CC07047C0B2704710F1630F01DA0020704719
S31500000CD010F1240F01DBFF20704764300002411140
S31500000CE000EB91608004000E704770B5DFF8CC47CA
S31500000CF0DFF8085A00202064687828B101F070FEF9
S31500000D00012818BF032801D1002070BDE16ADFF871
S31500000D10343ADFF8182800291FBFA66A3669002E64
S31500000D20022817D12364906900F5FA709061E07C7F
S31500000D3018B100200021642203E0E87829794FF4F5
S31500000D40A0722070A2806170A878A0708020E080D8
S31500000D50002030E0DFF8F0599069AE4213D1DFF899
S31500000D60EC39236400F57A709061E07C88B90879E3
S31500000D70207001228B7808799A40101891F9032087
S31500000D801018401E0CE0236400F5FA709061E07CB8
S31500000D9018B100202080642005E04878207088780B
S31500000DA0607008780001A0804879A0700889000169
S31500000DB0E080C8880001A06000F0FBFBE07094F9B9
S31500000DC00200010048BF4042C0B270BD70B5044683
S31500000DD0DFF8E866257896F9140008B18C2070BD16
S31500000DE0FFF783FFB075DFF81429DFF84007417875
S31500000DF00174690101F5807181619379716C002B31
S31500000E00B37B1DBFAD1EEDB221F0020141F0020120
S31500000E1073B9127862B16278920609D56FF0010251
S31500000E20327541F00101826902F50872826104E0BF
S31500000E3049084FF0FF30490030757164032000F017
S31500000E4001F96A1C306A4FF4807392B2214601F0B0
S31500000E50EFFD691C884203DA40F21B4100F0D1F92C
S31500000E60002070BD00000000F8B5DFF8505695F977
S31500000E7014100024091D04290FD8DFE801F0080E1C
S31500000E8010100300FFF7A2FF040008D0F2BD2C7576
S31500000E90286A01F03DF98D20F2BD8C20F2BD01F0EB
S31500000EA047FBE8B1286CDFF89C18884218D1A87D6A
S31500000EB0B0B1DFF8440A0068002811D5DFF83C0A13
S31500000EC0C168C1600122006800F00F0002FA00F05C
S31500000ED0401E014204D100F0B3FB642001F0C4FDC2
S31500000EE001F006FE064695F9140010F1010F1CBF2D
S31500000EF095F9140010F1020F29D195F91400DFF8C5
S31500000F002C764042287501F0F9FD7862296C387913
S31500000F1049B9FFF7BBFE01466A6C286A07F1100360
S31500000F2001F028F90BE0FFF7B1FE07F1100100917F
S31500000F3001466A6C286AD5F840C02B46E04760B186
S31500000F40002028758C244FF0FF30786202E00020E4
S31500000F5028758D24286A01F0DBF8304601F005FE7D
S31500000F602046F2BDDFF8140AFFF7D6BB2046BDE8DF
S31500000F70104001F0FABD0000F8B501F0B9FDDFF848
S31500000F8010550446A87A012803D1204601F0EDFD4C
S31500000F90F1BDDFF8EC19DFF82465DFF8E0794020D1
S31500000FA008600122306A012101F0AEF8DFF8D41999
S31500000FB04FF40010086069460FF284000068009044
S31500000FC0306A01F0FDFC18B140F2C74100F006FEA0
S31500000FD002208DF800006946306A01F0CEFC18B197
S31500000FE040F2C94100F0FAFD306A01F0AFF8002185
S31500000FF0002001F019FA00F00DFB0120A87296F905
S315000010001400001D072810D8DFE800F0130F0707AB
S31500001010040B0B0B01F03DFE0BE06FF00300307587
S3150000102007E0892000F041FB03E040F2ED4100F0CB
S31500001030D5FD204601F099FD01F0B9FEF1BD000095
S31500001040040100002DE9F04DDFF844540446A87A67
S31500001050A04282B063D00FF2CC01DFF82C69096898
S31500001060DFF81889DFF85474DFF818A9009103280F
S315000010704FF4001B4FD8DFE800F047023E2B01F08B
S315000010809FFE386A694601F09BFC18B140F20A518E
S3150000109000F04AF802208DF800006946386A01F02F
S315000010A06CFC18B140F20C5100F03EF8687900284B
S315000010B014BF00220222386A022101F0E5FE18B1AF
S315000010C040F2115100F030F80320032CA87218D01A
S315000010D0CAF800B00220A8722879FFF7D7FD0146AA
S315000010E0386A002201F04FF818B140F2215100F0A1
S315000010F01BF8022C13D0002C18BF032C0FD1002094
S31500001100A872C6F800B00AE0022C08D1CAF800B0EE
S315000011100220A87203E040F2375100F005F8BDE85E
S31500001120F38D0000040200004046FFF7F5BA000008
S3150000113010B5032804460ED8DFE800F009020909B5
S31500001140FFF71AFFBDE81040002000F0C7BB0120E2
S3150000115000F0C4FBE1E1BDE8104040F2555101E763
S3150000116080B500F00FF804D500210175006A00F083
S31500001170CFFFDFF8340A407A012802D1BDE80140EA
S31500001180FAE601BDDFF8240A90F914100029704729
S31500001190DFF8140A407A704780B5032801DB012086
S315000011A002BDDFF8041A4872897A884218BFFFF731
S315000011B0BFFF002002BD2DE97C4FDFF8F06903EA8E
S315000011C0010BD6E9068929EA010528EA000402EAA4
S315000011D0000A45EA0B0544EA0A044D4508BF4445A2
S315000011E00DD0CDE900230246306A0B4601F0EAFB3A
S315000011F018B140F27D5100F004F8C6E90645BDE895
S31500001200738F0FF6E010FFF787BA38B5AB4D04467B
S31500001210287BE8B1200018BFDFF8942904D1A87C08
S3150000122008B1402200E000220023DFF884090021F3
S31500001230FFF7C1FF002C14BF08220022286A0821EC
S3150000124001F022FE20B1BDE8344040F2B95189E6F2
S3150000125031BDF8B50446022C0FF6881503DB40F2C3
S31500001260E25100F0A5F8954E307B002840F09780BB
S31500001270874FB87A012803D04FF4BD6100F098F883
S31500001280002107F1280000F02DFF306218B940F266
S31500001290EB5100F08DF8306A052101F02CFA18B1F7
S315000012A040F2EE5100F084F8306A0FF64C1101F06E
S315000012B0FDFD18B140F2EF5100F07AF8306A01F006
S315000012C029FE18B14FF4BE6100F072F84FF0FF30FE
S315000012D0DFF8E02806230146FFF76DFF306A4FF07E
S315000012E0011100F0CAFF18B140F2056100F060F884
S315000012F0306A4FF48032002100F0ADFF306A0922D7
S315000013004FF0FF3101F0C0FD18B140F20C6100F062
S315000013104FF8012030730223DFF89C0800F043F8F1
S31500001320BDF80000C0054CBF0020BDF8000070737A
S3150000133001F0FEF8FFF769FFF88BFFF762FB01F09B
S3150000134069FE00F081F83879FFF7FBFB18B140F22F
S315000013501F6100F02DF8F87900F040F8387A00F0B7
S3150000136054F8307C00F082F8787900F0C7F800F085
S3150000137020F900F0EDF8B07C00F0ECFAB7F91C00AB
S31500001380FFF747FC388C00F085F8788C00F0A2F85F
S31500001390B87900F0CDF8601E8041C00FB8722046C3
S315000013A0FFF7C6FEF1BD01887F22684601F0A6BEA2
S315000013B02846FFF7B1B980B500F00CF8012100F01E
S315000013C0E5FE10F5007F02D16FF07F0002BD8005BB
S315000013D0001602BDDFF8D407006A704710B5044650
S315000013E03648017B51B1611E8941006AC90F01F07F
S315000013F0E3FD18B140F25A61FFF703FF2000DFF862
S31500001400A81718BF0120C87110BDF8B5044601F031
S315000014106FFB05461E48294E0472377BFFF79FFA7D
S3150000142000F0010080F00100074204D0306A84F029
S31500001430010101F0DBF82846BDE8F24001F095BB5A
S31500001440DFF86407007A70471C48017B01B97047D2
S3150000145080B5006ADFF86417002201F09AFD20B11A
S31500001460BDE8044040F285617CE501BDDFF83C271C
S31500001470117B107401B9704780B50146106A01F0FE
S315000014808FFD20B1BDE804404FF4D2616AE501BD8D
S31500001490F85B00202549DFF814370884197B01B969
S315000014A0704780B50146186A002201F06BFD20B135
S315000014B0BDE8044040F2A16154E501BD4861002049
S315000014C0DFF8E406008C7047DFF8DC06408C7047D6
S315000014D05EC503001549DFF8D4364884197B01B987
S315000014E0704780B50146186A002201F044FD20B11C
S315000014F0BDE8044040F2B76134E501BDDFF8A81647
S315000015004A79824200D1704710B58C7A4871012C15
S3150000151002D0FFF731FD00E010BD2046BDE81040C7
S3150000152090E5000048C103007C5A0020F85B0020CB
S3150000153010B50446FFF74EFF214601F065FEDFF8C1
S315000015406806847110BD000048610020805A0020A2
S3150000155038B504467F2C0CD100F025F8DFF860067C
S31500001560FFF721FFBDF800007E24C00558BFBDF877
S31500001570004001F0BDFA0546FFF7F1F960B960B227
S315000015807E2805D1DFF82416896A09B191F904008D
S315000015907E28B8BFFFF7E9F9DFF80C060473284682
S315000015A001F0E3FA31BD4FF6FF70ADF800000223FB
S315000015B07047DFF8F40590F90C007E2807D1DFF8B4
S315000015C0EC05806A08B97F20704790F904007047DF
S315000015D010B500F0D5FE80041AD500F02BF800F007
S315000015E0CFFEC0044CBF03200120002100F03CFFC9
S315000015F000F0C6FE00F0FF004FF47A7111FB00F117
S3150000160004F14800BDE81040DFF8B825FFF784B9BB
S31500001610BDE8104010B500F00DF804F1480000F0E8
S31500001620A2FDFFF7E1F920B9BDE81040002100F066
S315000016301BBF10BDDFF8744504F1600000F093BDD8
S3150000164080B500F09DFE4005BDE804404CBF032078
S315000016500120002100F0E8BE10B5DFF8504594F9EE
S31500001660140003280DD100F030F9DFF83C154FF0D7
S31500001670FF3048620022216BBDE81040402001F097
S31500001680ACBA10BD38B50446FFF7C4FFDFF81C55E9
S3150000169001F045FA686314B101F0BBF901E00020DE
S315000016A06874BDE8314001F0F4BA38B50446DFF895
S315000016B0F814DFF8F8544FF0FF30486201F02FFAC3
S315000016C0686395F91400012802DABDE831407FE726
S315000016D0A87D08B1686BA86300202875286A00F009
S315000016E017FDA87B10B10120E87331BD2046BDE887
S315000016F038400022002101F070BA0000B45E0020DC
S3150000170010B500F015FFDFF8A44498B1FFF76CF9A7
S3150000171080B104F1480000F026FD00F0CAFE002169
S3150000172000F0A2FEDFF8A02442F2107104F160007E
S31500001730FFF7F2F8A07C18B1BDE8104000F06BBAD4
S3150000174010BD00007B210000141C00008121000058
S315000017502DE9F043DFF854440FF28849206A89B036
S3150000176005AA022101F067F9050003D140F6E70159
S3150000177000F0A8F89DF81400DFF82C64BDF8168078
S3150000178007281CBF7079002819D1B8F1060F16DB9F
S3150000179008F108008B2812D2002000904346DFF89B
S315000017A02C74206A3A46294601F04DF9404503D08B
S315000017B04FF4106100F086F83878000602D5FFF77E
S315000017C007FF7CE001208DF80800CDF804806A460A
S315000017D0206A294601F033F918B140F6171100F0D6
S315000017E071F8787800F0070002281ED1FFF712FF83
S315000017F094F91400032808BFB8F1060F11D19DF81B
S315000018000D0070B17878000900F0010500F05DF870
S315000018104FF0FF3070622A4600218F2001F0DDF97B
S315000018204DE0F07900284AD105E09DF80D0010B191
S315000018300020FFF711FFF0799DF80D10084203D044
S3150000184040F63F1100F03EF8F07958B178788006FE
S3150000185008D5307A30B1206A00F0CBFE30B1FFF700
S31500001860B7FE03E0FFF7D6FE002060743878401C10
S31500001870404503D040F65F1100F024F807EB080559
S3150000188030792870002068709DF80E00A87095F9D0
S315000018900200FFF718FAE87008F10801FF20287126
S315000018A0C9B20098000C68710098000AA8710098E7
S315000018B0E8713846627C01F0ABFC0020607409B028
S315000018C0BDE8F0834846FEF727BF00202075206A52
S315000018D000F01EBC0FF21430FEF71EBFDFF8C81270
S315000018E0897A012907D1DFF8E8120B7898421CBFE4
S315000018F0087001F067BA7047044008404C50084031
S3150000190010B5DFF8A402446A002C14D401F0F6F8EE
S31500001910001B40F2E93180B288420CD3A34890F90B
S315000019201400032803D1BDE81040002094E6BDE86A
S3150000193010408920B9E610BD10B540B901F06AF82B
S3150000194001F0D6F80446FFF7DBFFFFF70FBBBDE853
S315000019501040D5E738B5954D0446287B60B1200088
S3150000196002D100F0E5FD08B1402200E0002200238C
S3150000197040200021FFF71FFCAC7431BDE41B0000C2
S315000019800840084018600846186008442DE9F047EA
S3150000199080461446600688B01D4648BF002002D423
S315000019A0200602D50120FFF7ABFEA0037F4E2DD502
S315000019B0002070746946404601F013FB30BB9DF869
S315000019C00800844F02280DD1BDF8000001F074FD17
S315000019D0FF2815D0396831F810004FF456710842C7
S315000019E00ED113E0032811D1684601F084FDFF28CB
S315000019F006D0396831F810004FF45671084205D008
S31500001A00306A01F0EBFA08B901207074600410D551
S31500001A1000F08EFD68B1FEF7E7FF50B100F055FD0E
S31500001A20074600F046FD874203D00021384600F005
S31500001A301BFD200744BF4046FFF78AFEE00548BF6E
S31500001A40FFF7C6FD4FF41850044218BFFFF7E2FD3A
S31500001A50E00244BF0120FFF715FE600244BF0120EB
S31500001A60FFF710FEE00144BF0020FFF70BFE96F9DA
S31500001A7014000FF27017012869DB306ADFF828912D
S31500001A8021034FF0FF3A33D596F9141001295EDB96
S31500001A9096F9141003295ADA00218DF8181001213D
S31500001AA08DF8141003A900F068FC0398306301F068
S31500001AB036F87063B07D08B1706BB06396F91400A8
S31500001AC0012804D002280ED1032030753FE0002003
S31500001AD03075306A00F01CFBC9F824A0B07BA8B9A9
S31500001AE0316B002218E04FF4016100F077F82EE028
S31500001AF014F0845F13D00021317500F009FB042037
S31500001B0000F089FFC9F824A0B07B10B10120F07362
S31500001B101DE0002200218D2001F05FF817E0A002F1
S31500001B2048BF892002D4A00103D58820FFF7BDFD58
S31500001B300DE0600048BFFFF783FDA00007D52648EB
S31500001B400068400403D40021002000F06DFCA007CB
S31500001B5044BF4046FFF780FD002C04D5FFF75AFD31
S31500001B604046FFF779FD05F002010023994211D0A6
S31500001B70404600F0C5FA022802D0032802D005E04C
S31500001B80892000E08D20FFF790FD03E040F67B0101
S31500001B9000F024F805F004010023994218BF01F073
S31500001BA0E1FC08B0BDE8F087F85B00204861002042
S31500001BB0406700600A00FA9360C50300A079002020
S31500001BC062C50300290900002D0900006074002089
S31500001BD0D97D0020B85A0020044008403846FEF758
S31500001BE09BBD00007068792E630000006C6962720C
S31500001BF061696C2E610000000000000001006003B6
S31500001C00010101016400B6006400C000000000008C
S31500001C100B0000000000704701F0FCBC80B50121FC
S31500001C200C4801F0D1FD0421072002F085F90A488D
S31500001C300A490B4A01600421116002214162042114
S31500001C40084A1160816A41F00201816201BD0248C1
S31500001C5002F0D6B90005080000200540010803007F
S31500001C6080E200E000E100E0602080F31188704728
S31500001C7002F098BA03460A4687A10420FFE70CB48F
S31500001C8080B502AA00F031F801BC5DF80CFB00B586
S31500001C9089B001F0A9F800210791069105910491F8
S31500001CA003910291019102467C49009100230FF2B3
S31500001CB000210120FFF7E3FF7948C17843780278D5
S31500001CC00391816802918188019181780091432076
S31500001CD00FF2E811FFF7D3FF09B000BD724931F8E2
S31500001CE01020521C21F8102070472DE9F0410746BC
S31500001CF06C480078A2B00C469046002690B9380091
S31500001D0018BF012F0ED0042F18BF052F0AD0312F70
S31500001D1018BF332F06D0372F1EBF3B2F4FF6FF714C
S31500001D208F4275D102F0C8F9002871D0802202A92D
S31500001D30384600F076F8002C68D007E08DF80400ED
S31500001D40012201A9002000F077F8641C2078010028
S31500001D505CD0A0F130020A2A05D20A2101FB060056
S31500001D60A0F13006F1E7422818BF44280CD04628D7
S31500001D7027D0572808D0622836D0662821D06C286C
S31500001D801CD070281DD0D9E7422807D158F8042B5B
S31500001D906946012002F04FFA01220DE0572858F853
S31500001DA0042B694604D1012002F045FA022203E021
S31500001DB0012002F040FA04226946C3E758F8046B92
S31500001DC0C3E758F8041B462807D10026885D00287B
S31500001DD01EBF761CF6B2FF2EF8D1F2B2002000F03C
S31500001DE02BF898B90026B0E758F8047BB8B200285B
S31500001DF0ABD002F09EFE0546B8B202F082FE014666
S31500001E00EAB2002000F018F800289ED000F038F85A
S31500001E1022B0BDE8F081122804BF002003F091BB78
S31500001E20704710B5214C616001462270606802F06F
S31500001E3049F9607010BD0000F8B515000C461B4E40
S31500001E401CD07078317873680F1AFFB2EDB2BD42BC
S31500001E50B8BF2F463A462146184403F0D5FD7078A0
S31500001E6038187070ED1B3C44E8B238B17068711CCC
S31500001E7002F08BF90028E4D00120F2BD0020F2BD6B
S31500001E8010B50A4C6068611C02F07FF908B10120A8
S31500001E9010BD607010BD000057460000A0790020FC
S31500001EA074B70300DA7D0020EC740020F87400207B
S31500001EB042423870424242425742420042424257F0
S31500001EC0444200002DE9F0410125012818BF2028D1
S31500001ED094B004460F4690461E4624D10AA80FF237
S31500001EE0A401242200F098FB68460AA9242200F0E7
S31500001EF093FB1020012C18BF202CADF82400ADF860
S31500001F00260008D0022C18BF212C04D0032C1CBF9D
S31500001F10222C232C14D1012E0197ADF80C8004D16C
S31500001F204FF4805005E001200BE0022E03D14FF460
S31500001F304050ADF80A006946204603F025FB0546E9
S31500001F40E8B214B0BDE8F08180B503F0C0FBC0B2C2
S31500001F5002BD80B503F010FCC0B202BD80B503F02F
S31500001F60F7FCC0B202BD0CB480B50A46014602AB0E
S31500001F70034803F005FE02BC00205DF80CFB0000E0
S31500001F80FB5800000000014000C2010000000010E4
S31500001F90000000000000000000000000000000003B
S31500001FA0000000000000000010B50446FFF75CFECC
S31500001FB0200A00283E4808BF24024FF20F01048081
S31500001FC04180BFF35F8FBFF34F8F3A483A4A0168AB
S31500001FD001F4E06111430160BFF34F8F00BFFDE7DD
S31500001FE080B5002000F009F830B9BDE80440E321CF
S31500001FF00FF2DC00FEF790BB01BD2DE9F0422F4C3D
S31500002000216842428D1815F01F0108D0002802D41D
S315000020104842054403E04842284400F12005284888
S31500002020A5F12006A84224BF2648864203D3EFF333
S315000020300880854201D300202DE000F059FD81463D
S315000020402148006810F0010718BF03F01CFF206844
S3150000205001468D4206D2A84224BFCD2100F80119BF
S31500002060F9D206E02038002201E000F8012B884270
S31500002070FBD32560304603F00DFFE22001E006F8B1
S31500002080010BAE42FBD30FB103F0DAFE484600F077
S315000020906CFD20682038BDE8F0820848006870476B
S315000020A0064800682038704708487047000000005E
S315000020B0000000200CED00E00400FA05445D00205D
S315000020C060490020401F002094ED00E00000002041
S315000020D06D6963726F2D696E7465726E616C2E63C5
S315000020E00000000038B50446214804600D4620462D
S315000020F000F0F4FA29462046BDE8344000F0BABAAA
S315000021000120704704F023B90846114600F007BBCA
S3150000211070470846114604F0DABF022070470020D7
S31500002120704700207047012070470020704710B5A7
S315000021300C4611461A46034620460D4C6468246830
S31500002140A04710BD0A4840684068004708484068F4
S315000021508068004710B582B0049C0094044C646803
S315000021606469A04716BD02494968896908470000A5
S315000021703C5F00200C3000F099B80C3000F0A8B895
S315000021800C3000F0B7B80C3000F081BE0C3005F012
S3150000219007B800001F670000916700009D670000F8
S315000021A0C1670000D56700001B2100001F21000049
S315000021B023210000272100002B2100000120704769
S315000021C038B500F01BF800212561E160BDE832401A
S315000021D004F0E9BF38B500F011F82169E26829403A
S315000021E00D0018BF01251143E16004F0DCFF15B1B5
S315000021F00020042134BD0020002134BD04460D46D4
S3150000220004F0D4BF38B5FFF7F9FF2269E1682A4028
S3150000221021EA0205E56004F0C6FF284632BD806962
S31500002220704770B582B005460C0006BF0FF25C0021
S31500002230006820681646009006B9EE6831462846C2
S31500002240FFF7E0FF32466946284604F0C6FA0CB1AD
S315000022500098206073BDF8B500F10C070C461546D2
S315000022603846FFF7ABFF022628B12A4621463846F4
S31500002270FFF7D7FF00263046F2BD80B50C3001F0DF
S315000022800111FFF79DFF002002BD0000FFFFFFFFC9
S3150000229038B504460D4604F08FF808B9022032BD61
S315000022A0A9B22046BDE8344000F05FBA38B504460E
S315000022B0154689B2FFF7ECFF010005D129462046F5
S315000022C0BDE8344004F09BB832BD0C3004F073B95D
S315000022D070B500F00AF8010006D1324629462046BC
S315000022E0BDE8704004F0D3B870BD044615461E46DE
S315000022F089B2CDE770B5FFF7F8FF010006D1324687
S3150000230029462046BDE8704004F082B870BD7CB511
S315000023100D466946044600F02DF89DF800102A4641
S31500002320204604F047FF04F10C060146304604F04F
S31500002330C7FA76BD30B583B06946044600F01AF890
S3150000234004F10C05284604F0F1FA02469DF8001047
S31500002350204604F097FF3EBD38B50C4600F10C054B
S315000023600021284604F0ACFA21462846BDE8344050
S3150000237004F099BA0C3004F0D3BA0C3003F089BEDD
S31500002380734840687047F8B50446714F71487E68D7
S315000023900025044201D00220F2BD24EA0600C00353
S315000023A07C6007D50021002000F03EF800210020C7
S315000023B000F05AF8786800F4804006F480418842BC
S315000023C005D0A00B00F0010000F0B5F80546284640
S315000023D0F2BD38B55E4CA578E0786168C9031CD4B7
S315000023E005F0010100F00102114316D0E16841B188
S315000023F0000706D5E16808208847E07800F0F70076
S31500002400E070A06868B128070BD5A1680820884746
S31500002410A07800F0F700A07003E0607808B1002013
S315000024206070BDE831408BE02DE9F04104460D4671
S3150000243000F05EFB464F80463878012698B1BE789C
S31500002440200009D1002E1CBFB868002804D07006F1
S3150000245002D5B96840208847BD60A6421CBFBC7043
S31500002460FFF7B7FF00261EE02DE9F04104460D46B2
S3150000247000F03EFB364F80463878012698B1FE784C
S31500002480200009D1002E1CBFF868002804D0700671
S3150000249002D5F96840208847FD60A6421CBFFC7043
S315000024A0FFF797FF0026404600F05FFB3046BDE889
S315000024B0F08127494A680978002029B1510303D4DD
S315000024C00120110548BF0320704721490A780020E2
S315000024D0002A1FBF012049681F4A114218BF032066
S315000024E0704738B51A4D2978884204461ED0200018
S315000024F00ED00121194801F067F9122004F023FFDC
S3150000250018B90A2004F01FFF50B104F03EFF07E09F
S3150000251000210020FFF7A8FF00210020FFF784FF1D
S315000025202C702046FEF771FE00F00AF8002032BD3E
S3150000253007480078704700B102207047704700BF17
S3150000254003480178002141700020FEF746BA0000DA
S3150000255008620020FFFC0FF80008080000250800AC
S3150000256070B50D4682B00446287858B90021204639
S3150000257004F02CFA0021204604F080FA00212046BF
S3150000258004F084FA2878002814BF0420287900F083
S3150000259027F814BF287968798DF80100204600F0E5
S315000025A0EEF906001AD12878002814BF0220A8796F
S315000025B000F016F814BFA879E8798DF801002046D6
S315000025C000F0BBF9060009D1287838B169882046A1
S315000025D004F008FA0121204604F0F8F9304676BDE9
S315000025E08DF8000069462878002870470C3004F002
S315000025F045BA0C3004F054BA62B38B0708D0521EA9
S3150000260011F8013B00F8013B00F024808B07F6D15E
S31500002610830740F0208000BF103A07D330B4B1E8FA
S315000026203810103AA0E83810F9D230BC530724BF4E
S31500002630B1E80810A0E8081044BF51F8043B40F880
S31500002640043BD20724BF31F8022B20F8022B44BFEB
S315000026500B7803707047083A07D3B1E80810083AB8
S3150000266040F8043B40F804CBF7D25307E4E70000F8
S315000026700120704710B5044603F042FD08B1002062
S3150000268010BD204610BD70B50D00044614BF0126CE
S3150000269000261F21304604F0C1FE0020606225623C
S315000026A01F21304604F0BAFE4FF6FF76002001E007
S315000026B0401CC0B2E968884209D2A968182212FBF8
S315000026C000F21144C989B142F2DA0E00F0D1314666
S315000026D0204600F04AF8304670BD704710B50446F3
S315000026E003F0B9FDA06A0100DFF8301208BFDFF879
S315000026F03002886010BD38B500F10C050C4628463E
S31500002700FFF7B6FF28B103F022FE012801D0022010
S3150000271032BD21462846BDE8344003F0EEBD10B573
S315000027200C4603F0FFFD1CB103F011FE0128FBD19E
S3150000273010BDF0B504467B48066883B00D46694671
S31500002740204604F0EDF8B5F91220012747F6FF7090
S315000027502479824207D09DF80010304604F02AFD05
S31500002760A04238BF00273846FEBD2DE9F04F85B0A0
S315000027704FF000098DF801900446684F8DF80090DF
S315000027800D463868D7F804A00290CDF804A020467C
S3150000279000F0C1F88046266AD4F824B000F0EBF8C1
S315000027A0002818BFD34505D1BBF1000F02D0A8B24F
S315000027B040454BD0002E1CBFB068002801D0F06801
S315000027C008B903209CE0CA4601E00AF1010AF06854
S315000027D0824518D2B068182101FB0AF10144A8B25B
S315000027E0CA89904222BF088AAAB29042EDD301203C
S315000027F08DF800008B462046FFF79BFF0028E4D0AB
S3150000280001208DF8010003A9204604F089F820462E
S3150000281004F08CF882469DF80100C0B1217900F0E1
S3150000282073F8386860B3B04223D17A680AB35A4560
S315000028301FD1A9B2884506D00023204604F078F8B7
S315000028405FEA000912D1C4F824B0658057E09DF80C
S31500002850000048B1BBF912209DF80C10A4F10C0041
S3150000286004F0A8FC0146DAE7012049E000F04BF845
S315000028703FE0016821B13268914208BF416800D04B
S31500002880316800F045F881465FEA090004D1DBF8BB
S31500002890001000F03DF881465FEA09000FD100F014
S315000028A06AF810B13E60C7F804B0C4F824B0658079
S315000028B001235A46A9B2204604F03AF881465FEA57
S315000028C0090005D1BA685946A4F10C00904716E0F4
S315000028D000F051F898B1029838600198786038682D
S315000028E008B100F014F800F00EF8786838B100F07E
S315000028F00EF87A6800234146204604F019F8484647
S3150000290005B0BDE8F08F5146204603F0F9BF0168D7
S31500002910204604F0A7BA408870470000445F0020B4
S31500002920DB2600003C5F002001281CBF042802288B
S3150000293001D1012070470020704738B500F03CF8FF
S3150000294040B16878FFF7F0FF20B12878697808432E
S31500002950400701D5012032BD00F00DF828B103F083
S31500002960F6FC400701D5022032BD29462046BDE8C7
S31500002970344003F05FBF20467AE60C30DDE738B519
S3150000298000F01AF838B16878FFF7CEFF00281CBFB0
S315000029906878042801D1012032BDFFF7ECFF28B189
S315000029A003F0D5FC800701D5022032BD294620461A
S315000029B0BDE8344003F066BF0D4604462878B3E709
S315000029C00C30DCE730B583B00C30DDE90645CDE9E7
S315000029D0004503F00EFC3EBD0C3004F00FBA0000BB
S315000029E00020704738B51446FEF73EFA05466CB12E
S315000029F028000BD00A48007818B10A49012008704F
S31500002A0004E000220021284600F0E7F8284632BDFF
S31500002A10704770477047044908707047000000000F
S31500002A205661002057610020F87D00200120704784
S31500002A300C3004F078B90846114604F0E1B80846AF
S31500002A40114604F0FBB870B50C4615461E460C3010
S31500002A50FFF7ECFF38B1049B324629462046BDE815
S31500002A60704003F001BC70BD04F045BD10B50446CE
S31500002A700521112001F000F800220021022001F0BA
S31500002A8017F91848184A01686FF3D321016002EA62
S31500002A90C42201681143016001220121022001F0D4
S31500002AA007F9BDE810400421112000F0E5BF0D48EC
S31500002AB000680003C00D704738B50C480C46018805
S31500002AC04FF6FF75ADF8005002237F22684604F0EA
S31500002AD09DFDBDF80000A84202D02080012032BD35
S31500002AE0002032BD30400E4000F80F0066C50300DE
S31500002AF0EFF31180602181F31188704780B504F0EF
S31500002B003DFE04F048FE80B202BD80B504F036FEFC
S31500002B1004F041FEFA21B0FBF1F080B202BD80B5AF
S31500002B2004F02CFEBDE8044004F035BE80B504F088
S31500002B308AFC074800214160001D04F0B5FD20B164
S31500002B4039210FF21400FDF7E7FD002002BD000059
S31500002B502C75002000F008B873797374656D2D74B8
S31500002B60696D65722E630000704780F311887047A7
S31500002B7038B504466048614D002912BF002101782E
S31500002B80491C01700120012104F002FF2878411C34
S31500002B9089B2032004F0FCFE200003D0FFF7F0FB0F
S31500002BA0002808D5FFF7ECFB40054CBF03200120A9
S31500002BB00021FFF739FC524844702846BDE83840EA
S31500002BC001224FF47A71FFF70DBF80B5FEF7C8FA00
S31500002BD0BDE80240312005F033B838B50446402C34
S31500002BE0154606D1FFF7CCFB00F08020B0F1004F70
S31500002BF003D000210020FFF717FC002C3AD0402C10
S31500002C0024D0882C18BF892C38D08C2C38D08D2C09
S31500002C102DD08F2C39D13B48007804280FD155B1DF
S31500002C203949022008704CF25032BDE83840374925
S31500002C30002005F0DFB8FEF793FA312021E0FEF719
S31500002C408FFA002D0CBF312000201AE0FEF788FA1B
S31500002C5005F055F928482E4900780978884204D2AB
S31500002C60BDE834400021012082E7402009E0FFF75B
S31500002C70CFFE03E0FEF774FA002002E0FEF770FADA
S31500002C808D20BDE8324004F0DBBFBDE83440B421FE
S31500002C9045E01D480078022800D0704780B51D48E1
S31500002CA00078012807D0032810D11B480078022895
S31500002CB018BF7C280AD11549002005F0DAF8FEF77E
S31500002CC04FFABDE80240002004F0BABF01BD38B596
S31500002CD0FFF70EFF05460C480078002410B9FDF7F3
S31500002CE035FE04462846FFF740FF1CB1BDE83140DB
S31500002CF000F038BC31BD0000F27D0020227D0020AE
S31500002D00B45E0020F45F0020E67D0020CB2B00009F
S31500002D10F85F0020F37D0020F47D0020E9210FF20A
S31500002D200800FDF7F9BC00006D61632D7068792E0F
S31500002D306300000010B53D4886B0016841F480711B
S31500002D4001604FF416713A48016002AC394941609E
S31500002D50394901674FF4F0718160012037490860F5
S31500002D6005F0D0F804F0C3FC05F0F1F90FF2D0003D
S31500002D70D0E90023CDE9002301208DF80300684641
S31500002D8005F097FA05F008FDFFF7D0FE0FF2B80040
S31500002D900FC884E80F0008208DF8140002A805F07B
S31500002DA007FD06B010BD40F20160FFF7FDB880B523
S31500002DB000210020FFF758FBBDE80140FFF7BEBB2E
S31500002DC0FFF7BDBB002818BF00F012BC00F011BC15
S31500002DD080B505F03CFD01460FF27C000C2938BF9A
S31500002DE000EB810002BD000010B505F030FD044681
S31500002DF005F031FDC0B208B9012C07D1072C11D856
S31500002E00DFE804F004100608080A0C0E002010BDC6
S31500002E10092010BD022010BD032010BD0B2010BDDF
S31500002E20062010BD44F0800010BD000000000E40DA
S31500002E308C420E404A5D050028E2160010300E4016
S31500002E400000000000000000909603008896030032
S31500002E509896030000000000554E4B00464942007C
S31500002E6042544C00455854005057520057444700AE
S31500002E7020535700435253004653480042414400F2
S31500002E80464C540042524F000C3003F0F2BB38B5AA
S31500002E900D46044689B2FFF768FC010005D1A9B2C8
S31500002EA02046BDE8344003F091BB32BD70B50C46F8
S31500002EB084B000F10C05237E627EA17E284605F0D3
S31500002EC06CFD684604F10C010C22FFF795FB694680
S31500002ED0284604F0FEF8211D2846FFF741FB0600B0
S31500002EE003D1284605F090FD0646300005D10FF2C5
S31500002EF01C11284604F097F80646300003D12846F0
S31500002F0005F0D2FC06462168284600F006F8304651
S31500002F1004B070BD0C3005F0C0BC70B58AB0044674
S31500002F200D4668460FF2C0012422FFF775FB05B96E
S31500002F306D46002601E0010005D135F81610F2B203
S31500002F40204605F0E4FC010006D105EB4600F2B28E
S31500002F50C188204605F0E4FC010007D105EBC60058
S31500002F6000F10C01F2B2204605F0F3FC761C032EAC
S31500002F70E1DB0AB070BD032ABCBF0C3005F0C7BC4C
S31500002F8001207047032ABCBF0C3005F0C9BC0120E4
S31500002F907047032ABCBF0C3005F0DBBC012070472C
S31500002FA038B500F015F828B121462846BDE834406A
S31500002FB005F0E6BC022032BD38B500F009F828B1AC
S31500002FC021462846BDE8344005F0D0BC022032BD7B
S31500002FD000F10C050C46284605F05CBC0C3005F0EB
S31500002FE0EBBC084603F020B8FFFFFFFFFFFFFFFF23
S31500002FF0FFFFFFFF000000000000000000000000CF
S3150000300000000000000000000000000000000208B0
S315000030100000000010B5144C207858B913480188F8
S3150000302008237F22201D00F069F8201D00F011F80A
S315000030300120207010BD10B50B4C01460822201D42
S3150000304002F0E2FC201D00F004F80120207010BD03
S31500003050074880B501460822064802F0D5FCBDE8BF
S315000030600140FEF7F1B900009479002068C503001D
S3150000307098790020A079002038B50C4611461A46EA
S315000030807F2908BF002141F2F0139C4218D155490F
S315000030900B6849680024D5B27DB30355641C1B0A2E
S315000030A0521EE4B2042CF6D3E4B2082C25D2D3B2D5
S315000030B0002B1FBF0155090A521E641CF4D131BDF5
S315000030C004F47045C4F30B03B5F5805F11FB02F100
S315000030D008BF43F07E630BD0B5F5005F1CBF04F458
S315000030E07044B4F5405F08D143F07C6343F40113A8
S315000030F0C918BDE8384002F087BC31BD70B51E0066
S31500003100044615461CD04BF23460814212D1092E7A
S3150000311028BF082633467F2241F202012046FFF7E8
S31500003120ABFF32460FF2D801204602F0D6FC38B982
S3150000313041F2F01133462A462046BDE870409BE72F
S3150000314070BD2DE9F84307460024F8078846154662
S315000031506FF00F060FF29C0902D5652100F046F8C4
S31500003160E80702D5662100F041F807F47041B1F591
S31500003170805FC7F30B000CD140F07E64B4F17E6F24
S31500003180264604D32819401E1749884210D36B21BE
S315000031900CE0B1F5005F18BFB1F5405F05D140F016
S315000031A07C6444F40114264602E0722100F01EF805
S315000031B0002706E0F05DFF2802D07C2100F016F81B
S315000031C07F1CAF42F6D36A084146204605F07CFCD8
S315000031D028B14846BDE8F4438521FDF79DBABDE810
S315000031E0F1830000F081E00F0008E00F4846FDF78C
S315000031F093BA00006D66672D746F6B656E2E630063
S31500003200FFFFFFFFFFFFFFFF084603F092BF00002E
S3150000321070B50446A0480D460178164619B1418896
S31500003220491C418070BD204605F07BFC80B1FEF74D
S3150000323007F938B1A078002E14BF40F0010000F065
S31500003240FE00A07029462046BDE870402E2200E010
S3150000325070BD70B504460D461646601C00F0DAFFD8
S3150000326010F0070F1ABF41F64901884200260121D6
S31500003270002004F08DFB2078411C89B2022004F066
S3150000328087FB32462946204601F0EEFD18B1BDE81F
S31500003290704005F041BF80488188491C818070BD1F
S315000032A02DE9F04FA5B001F02AFE7B4E81460025A0
S315000032B07088A84600B17580B188080003D00D203B
S315000032C004F066FBB5805FEA090042D001F019FC04
S315000032D0040018BF2578601C00F09CFF10F0070F53
S315000032E01BBF41F649018842C3464FF02E0B4846A4
S315000032F001F01FFC2018CBF100010844A0F10801E1
S31500003300082202A802F080FB02AFF878FDF7D8FC8D
S315000033102946FDF7D6FC834697F902008DF804008E
S315000033205E480078B0B1B068002812D004A88021A9
S3150000333006F0C6FB6B1CCDF80080DBB200224946C6
S3150000334004A801F0FBFD9DF90420B368594604A8C2
S3150000335098479EE0484606F0C1FC0028504D1ED016
S315000033600521484601F032FE82460320FEF7B6FCF0
S315000033704C4F4D490AF007003870FF20087084F85A
S3150000338001B09DF80400A0709DF80800E070484662
S3150000339007F077F80328484602D108F0B9F96AE041
S315000033A007F05FF800F00500042807D038780328F6
S315000033B004D1484604F08FFC00285CD105F0F1FEEC
S315000033C018B105F0EEFE012802D13878002860D148
S315000033D0F268100004D0002148469047002858D1D2
S315000033E02878032818BF042805D0022821D12F48A1
S315000033F00078C0071DD405F0D4FE032819D148462D
S3150000340007F0F7F8B0F5004F13D1484607F014F966
S315000034102749098881420CD0484607F022F8000760
S3150000342007D4484607F01DF8400632D538780128FB
S315000034302FD12878042804BF3878012809D11D49DE
S315000034405FEACA6081F8008003D504F01CFB4FF0E8
S315000034500108387820B101280AD0032804D00AE0F0
S31500003460484607F0FFFC06E0484608F061FE02E029
S31500003470484608F0ABFE287804280AD10D480078A3
S3150000348088F00101084204D00A490020087004F0BF
S31500003490FAFA25B0BDE8F08FD879002056610020F1
S315000034A0BA790020F37D0020F47D0020BE7900204B
S315000034B0B25D0020B37D0020F8B5274D2E680400CC
S315000034C001D1FF20F2BDFFF713FB244F29683A789C
S315000034D021F8124036F8021BA142FBD1FFF745FB4B
S315000034E029683A78B01E401A4010C1B2914208BF0E
S315000034F0FF20C0B2F2BD2DE9F843194C174D2668DE
S315000035008146287806EBC007FFF7F2FA80460822C4
S315000035104946384602F078FAF88800E00836F1881D
S31500003520814202BF31883A889142F7D171887A8800
S31500003530914202BFB188BA889142EFD14046FFF767
S3150000354014FB20682A78301AC010C1B2914208BF15
S31500003550FF20C0B2BDE8F283BC5A0020EC5F002019
S31500003560C05A0020FDF7ACBA70B5044643380FF2D6
S31500003570880508D0401E012809D9801E01280ED9C9
S31500003580C01F31D02AE0BDE870400AF0D8BB0AF06F
S31500003590AEFB20B10AF0D3FB0028FBD170BD134E61
S315000035A0307808BB0120307000200AF041FC442C22
S315000035B011D00CD3462C05D00DD3472C07D140F69D
S315000035C0010001E040F60200FEF7EEFC03E0752183
S315000035D02846FDF7A1F80020307070BD2846BDE8EA
S315000035E070408721FDF798B870BD0000D67D002099
S315000035F07047704700000000656D6265722D62615C
S3150000360073652D636F6E66696775726174696F6E37
S315000036102E6300000AF054BC890001EB401000F153
S31500003620844002607047890001EB401000F184403D
S315000036300068704710B5DFF85C4612212046FFF798
S31500003640F2FF0028F9D12068000C00F0030010BD3D
S315000036500122DFF8B01510B5884232BF0022DFF82C
S31500003660A815884201D2144600E002241021DFF892
S315000036709C05FFF7D1FFDFF82006016821F0807175
S3150000368041EA0461016010BD70B5DFF810260FF243
S315000036903C041368002304EBC305CEB22D79B54272
S315000036A003D154F83350854202D25B1C052BF2D36A
S315000036B0052B0EBF032004EBC3004079116821F0EF
S315000036C0407141EA0060106070BD000040787D01E5
S315000036D000000000005A620200010000C0CF6A002C
S315000036E002000000809FD50002010000406F4001EB
S315000036F00202000038B500F013F841F67130206080
S315000037000AF023FC002105E038B500F009F841F67F
S3150000371071322260FFF7B8FF0DB10020206031BD85
S31500003720DFF88446256805B101257047C01C0F28BF
S3150000373001D2000770474FF07040704738B5044615
S31500003740002500F043F9DFF85825DFF858159442B4
S3150000375008D0DFF85425944206D0DFF8502594426D
S3150000376004D006E0086802E0486800E0886800F0D7
S315000037700700401E03281BD8DFE800F002050C08EE
S315000037800AF014FC04E00AF017FC01E00AF011FC50
S3150000379005460DE00AF0CCFBDFF8FC140968090EBB
S315000037A001F001010122491C02FA01F1B0FBF1F519
S315000037B0284632BDDFF834164A68D20702D40A68B2
S315000037C00242FCD17047000070B5020A0C4602F0B6
S315000037D00F020021521E092ADFF80C5714D8DFE821
S315000037E002F005141313071619131C20DFF81C54D6
S315000037F0C0F3043611B10846FFF7DCFF2246314616
S315000038002846BDE8704007E770BD1035F0E7303553
S315000038100121EDE738351021EAE740354FF48031D4
S31500003820E6E7DFF8C856E3E770B5DFF88015DFF89E
S3150000383078240E68DFF86814DFF85C44012510F47C
S31500003840781069D0B0F5003F2DD0B0F5802F24D088
S31500003850B0F5002F60D0B0F5202F2AD0B0F5402F5C
S3150000386052D0B0F5602F72D0B0F5901F47D0B0F5AA
S31500003870A01F27D0B0F5B01F36D0B0F5D01F1FD08F
S31500003880B0F5E01F2ED0B0F5001F38D0B0F5281FD8
S315000038901FD0B0F5381F42D058E00AF058FBE16857
S315000038A0C1F308210AE00AF052FBA168C1F308211E
S315000038B004E00AF04CFB6169C1F30421491C1BE0DA
S315000038C008461EE00846FFF739FF216A01F00F019E
S315000038D010E00846FFF732FF0646206AC0F30110E3
S315000038E0C64034E010460CE01046FFF727FFA16AF9
S315000038F0C1F3011105FA01F1B0FBF1F627E0DFF89B
S31500003900AC03FFF71BFF1FE0DFF8E40500F05EF8ED
S3150000391007281CD0092819D10AF019FB14E0DFF892
S31500003920D40500F053F804280CD007280FD0082837
S315000039300CD10AF00CFB2168C1F30421491C01FBE0
S3150000394000F604E00AF01EFB064600E000263046BC
S3150000395070BD0000030903F00F0301225B1E072B55
S31500003960DFF834132FD8DFE803F004060A0E10142C
S31500003970232E086800E04869C0F3042070470868F1
S31500003980C0F300607047C86800E08868C0F308208C
S315000039907047DFF86435984204D0DFF86035984206
S315000039A004D010E0086A00F00F0008E0086A04E09E
S315000039B0DFF84C35984206D1886AC0F3011002FA46
S315000039C000F0401E7047002070470000014601F0DD
S315000039D00F010120491E0729DFF82C2549D8DFE809
S315000039E001F0040F1348202E4836506A00F00700F5
S315000039F002283AD002D3042804D01CD305207047ED
S31500003A0011690FE002207047516901F00701491E54
S31500003A1003292FD8DFE801F00F020311F2E7062091
S31500003A207047916901F00701012904D00229E9D004
S31500003A30042902D07047032070470A207047116896
S31500003A4011F001010FD0012914D109207047DFF8C8
S31500003A50BC14096801F03001102904D0202904D0D3
S31500003A60302904D07047072070470420704708208B
S31500003A7070470020704700002DE9F8438046002675
S31500003A800324B8F1110F0F46A14612D1042F02D11B
S31500003A900AF078FA08E0052F0BD1DFF87404DFF896
S31500003AA074140068884204D306001CBF002104F089
S31500003AB0B6FB08F00F00401E0728DFF84C540ED85E
S31500003AC0DFE800F0043D438B406F8B79022F4D48B1
S31500003AD006D0032F29D0042F2AD0052F2DD07CE025
S31500003AE004244FF0000901220121484600F0E0F8C5
S31500003AF0FFF700FE36B11221DFF89801FFF793FDBC
S31500003B000028F8D16C6000F07AF8FFF7A1FD0AF002
S31500003B100FFA0446FFF78EFD01462046FFF7F4FD37
S31500003B20002E5AD1BDE8F44372E04FF00109DAE7FE
S31500003B300224A146FFF78CFDD5E70124FAE705F13B
S31500003B40100404E005F1180401E005F11404012F46
S31500003B5008D0022F09D0032F0ED0062F13D00A2F1C
S31500003B601DD03AE00020206037E00122012100202C
S31500003B7000F09EF80220F6E701220121012000F064
S31500003B8097F80120EFE70AF0D3F9FFF761FD01226C
S31500003B900021DFF85403FFF73FFD0320E3E704208D
S31500003BA0E1E7072F02D0092F02D016E0002000E03F
S31500003BB00120286011E0012F06D0042F16D0072F10
S31500003BC00DD0082F19D008E00020DFF840130A684E
S31500003BD022F0300242EA00100860BDE8F1830122BB
S31500003BE00121042000F064F80120EEE70122012102
S31500003BF0022000F05DF80220E7E70320E5E7DFF8A2
S31500003C00040311E60148E8010190D00300400E408C
S31500003C100121002004F003BB70B500F037F8012243
S31500003C200021022000F044F8217CDFF8F452002045
S31500003C300229296808BF0120490840EA4100286096
S31500003C40082122782846FFF7E7FCA088617A41EA36
S31500003C50C020A860EE68207AFFF768FDE28806F0CB
S31500003C607F6141EAC221A27A1143227A41EAC21156
S31500003C700843E860A17B607B090141EA0030E17BF3
S31500003C800843217B40EA0140286170BD04461120AB
S31500003C909CE6000004300E4000410E4004000E4039
S31500003CA002001A0080400E4003001C0005002000A0
S31500003CB02DE9F84F04288246904673D8DFE800F0D5
S31500003CC04E493F0344000126022001270024002913
S31500003CD0DFF81092924D60D0BAF1020F02BF286849
S31500003CE0C0F3011000284FF0000B0CD18D4800687E
S31500003CF02868C0074FF0010B05D5286820F0300072
S31500003D0040F010002860EE6300F052F80028FBD067
S31500003D10B8F1000F46D0394600F04BF80028FAD02B
S31500003D20BAF1020F3ED1BBF1000F3BD02868C007A5
S31500003D301BD501222021022000F0C3F819E0042639
S31500003D40082003270224C2E7102620200527042482
S31500003D50BDE74026802007270624B8E74FF4807683
S31500003D604FF4007009270824B1E70021022000F073
S31500003D7087F8022000F020F80446012200210220E4
S31500003D80FFF796FF2146022000F032F8EE6339462F
S31500003D9000F00FF80028FAD004E0E86300F008F815
S31500003DA00028FBD1BDE8F18F40000E40845A002068
S31500003DB021464846FFF737BC401E0328564912D80D
S31500003DC0DFE800F0020C06080869C0F30800704737
S31500003DD0086800E0886800F07F0070475248006875
S31500003DE0C0F30A00704700207047000040410E40B3
S31500003DF070B5401E0D46032805F07F01464C474E20
S31500003E003DD8DFE800F0022A101DC5F308051A2187
S31500003E103046FFF708FC0028F9D12069400A45EA38
S31500003E204020206170BD0D4618213046FFF7FBFB90
S31500003E300028F9D12068C00945EAC010206070BD8D
S31500003E400D4619213046FFF7EEFB0028F9D1A06890
S31500003E50C00945EAC010A06070BD224800686069CC
S31500003E6020F0300040F010006061C5F3C310FFF78A
S31500003E705DFC216A2D4A114029430843206270BD2A
S31500003E8027480268C2F30112002A18BF002907D08A
S31500003E90202902D0302903D005E04FF4000103E0C9
S31500003EA04FF4400100E02249C26E0A408A42FBD12B
S31500003EB0490204D5C06F800A00F001007047012056
S31500003EC0704710B502280AD10B0004D0194B4FF4E5
S31500003ED080645C64196012B1BDE81040D0E701202F
S31500003EE010BD000090400E40B0400E4050410E40C4
S31500003EF006000C0098002E006006140060162A00CA
S31500003F00701716000005080070400E405C410E4018
S31500003F10A45A0020012D310110400E4040410E40B0
S31500003F2024400E403C300E409C400E4000F8FF0FEF
S31500003F30FFF3E17F64400E4010B51B4B1C6890FAFE
S31500003F40A0F2B2FA82F224EA000091400843186017
S31500003F5010BD164901200860704770B514480FF26D
S31500003F60580301680020002203EBC20453F83250C4
S31500003F706468104E366876070DD4B5F5007F18BF15
S31500003F80B5F5806F05D0B5F5006F18BFB5F5803F64
S31500003F9001D144F48074294202D0214208BF28434B
S31500003FA0521C092AE0D370BD00500E4008500E4046
S31500003FB004500E40E841E00F010000000000000040
S31500003FC004000000010000000800000001000000DD
S31500003FD010000000010000000001000001000000C8
S31500003FE0000800001D000000000200001D00000087
S31500003FF0000400001D000000000001001D0000007C
S315000040000168C90707D58168890704D48168C9078B
S31500004010FCD401214160704710B5012169486A4C02
S31500004020FFF7D2FB694901200860002009F0F6FF7E
S3150000403001230422022105200AF032F800F00FF8CD
S31500004040012020700AF020F901234022211D0FF2E1
S31500004050B4100AF0E7F85E490860C00F10BD10B54D
S31500004060012201210420FFF723FE5A485A4C016819
S3150000407041F0010101600022C16841F08071C16018
S31500004080002356495648086056480260564A13604F
S31500004090022323601523554C236000230364544BED
S315000040A00B65544911604FF48071534A11600168E1
S315000040B041F48071016010BD4648006800B10120DE
S315000040C0C0B27047D12202704170090A81704B4913
S315000040D00A78C270501C0870042070472DE9F84F0A
S315000040E080464D1DFEF70AFD002782464FF6FF7BF0
S315000040F0434C15E008EB0700594610F8026C3046B1
S315000041000AF0D2F883464F4637480068C00707D5FD
S3150000411034480068C00503D520680028FCD0267006
S31500004120FFF7CAFF40B3F8B2E9B2884224D2FEF7DD
S31500004130E5FCA0EB0A0080B2B0F5FA7F22DCF8B20B
S3150000414010B95B260127DFE707F10109FFB2012F4E
S3150000415008BF6E1FD7D0EDB2E81E874208BF5E4685
S31500004160D1D0A81E874208BF4FEA1B26CBD0681EB7
S315000041708742BFD15D26C6E7FFB2EDB2AF4208BFA8
S31500004180002000D00120BDE8F28F10B50C46024693
S31500004190217800200529A4BF1046FFF79FFF0421C0
S315000041A0217010BD00B50A48006891B040226946EA
S315000041B00AF023F820B1C2B269461220FDF72BFEA1
S315000041C011B000BD00250800E872002010881442D6
S315000041D0F45B0020F0ED00E0F00004E0B00F00E03A
S315000041E055CEACC5000E00E0800E00E0100004E0E5
S315000041F0FF0300400D000100040304E0D77D00200A
S31500004200200000E073696C61627376756172746494
S315000042106F776E004178007801E00178407800EB16
S31500004220012080B270470170090A417070470A0A7E
S3150000423002704170704710B50023040014BF1C467D
S31500004240C3F10304E4B25B1C0A55120A042BF4DB27
S3150000425010BD30B50024050014BF2546C4F1050580
S31500004260EDB2641C4A55120A42EA03621B0A062C86
S31500004270F1DB30BD30B54A788B78CC78097818B147
S3150000428020461D460C4602E0154608461A4645EAF3
S31500004290002044EA022141EA004030BD00B583B067
S315000042A020B10622684600F02AF803E00622684696
S315000042B001F0AAFB9DF800209DF8010040EA0221CA
S315000042C09DF8020002069DF8030042EA00429DF8AE
S315000042D0040042EA00229DF80500104303B000BD29
S315000042E010B5002300E05B1CDCB28C4205D210F84E
S315000042F0014B9442F7D0002010BD012010BD10B52F
S31500004300002304E0541EE41A0C5DC4545B1C934263
S31500004310F8DB10BD10B5002480B14FF6FF7202E045
S31500004320944206D0641CA4B2035D002BF8D19442DB
S3150000433004D179210FF2F400FCF7EEF9204610BD06
S3150000434010F8012B11F8013B0AB19A42F8D0D01AA5
S3150000435040B2704730B5994228BF1946002303E0A2
S315000043600833401C521C9BB203F10804A14203DB34
S3150000437004781578AC42F3D08B420CDA00781278C8
S315000043805040C0438024C0B201E064085B1C8B42ED
S3150000439001DA0442F9D198B230BDF8B555052D0EB3
S315000043A002F0070704460E462A4601F02DFB47B1E8
S315000043B0FF20615D725DF840014022EA000008437B
S315000043C06055F1BD00210FF27802002805E000F0EB
S315000043D00F03D35C5918C9B20009F8D108467047D3
S315000043E06128A8BF572107DA4128A8BF372103DA79
S315000043F03A28B4BF30210021401AC0B270474108A4
S31500004400400021F0AA3120F0553008438108800091
S3150000441021F0CC3120F0333008430109000121F0AE
S31500004420F03120F00F300843704700006279746560
S315000044302D7574696C69746965732E6300000000DC
S315000044400001010201020203010202030203030446
S31500004450704710B5DFF8D44AFDF726FE6061FDF718
S315000044601FFEA0616069E06118B100F007F86528D9
S3150000447003DABDE810409D21A2E010BD10B5DFF8BB
S31500004480AC4AA069E169884202D2AF2100F0F2FB92
S31500004490A069E169401A4FF6FE71084010BDDFF8C9
S315000044A08C1A4A69904203D3C969884200F035BD27
S315000044B000207047002818BFFFF7F1BF01207047A2
S315000044C030B1DFF8681A4969401A4010401C80B2C2
S315000044D07047010001D100207047DFF8501A496982
S315000044E001EB4000801E70474088C0F30C00C01CE2
S315000044F00004800C4000001D80B2704710B50446D1
S31500004500FFF7F2FF04EB4000DFF8201A4FF6FF73C7
S3150000451000E0801CCA69904202D202889A42F8D012
S3150000452010BDDFF80C1A08607047DFF8041A0FF2A6
S315000045308400086070472DE9F843DFF8F05980469B
S315000045402889A0B3B8F80200000430D4DFF8E049A7
S315000045500FF260012068DFF8DC9909F0B9FE20B996
S315000045604FF4BA714846FCF7D7F8002701E07F1CE4
S31500004570BFB22889874204DB4FF4BB714846FCF77B
S31500004580CBF8286A216800EBC706306808B93160A5
S3150000459003E009F09DFE0028E9D1B088401CB080F8
S315000045A04046FFF7A1FFF18801EB4000F080BDE82F
S315000045B0F1830000756E636C61696D6564000000CF
S315000045C00FF68030FCF7A8B870B50446DFF85C0932
S315000045D0807801281AD12088FFF77BFF04002FD0AE
S315000045E0022526463046FFF7A6FF708840F40040B5
S315000045F0708036F81500FFF76CFF060002D0708851
S315000046000004EFD56D1C042D1ADAEAE7022817D14B
S31500004610FEF76EFA05462088FFF75BFF06000AD014
S315000046207088800403D540F2392100F023FB3088DE
S31500004630C0F30E0020802846BDE87040FEF795BA0C
S3150000464070BD00B5ADF5806DADB04FF496626946AC
S3150000465000F073F80DF5806D2DB000BD2DE9F8431F
S3150000466007468846FFF740FF45007888C0F30D00EF
S315000046707880800422D5FEF73BFA04463846FFF7D9
S315000046801FFF81464046FFF71BFF0646AAB2394682
S31500004690404601F0B9F90020DFF8901806E001EB7A
S315000046A0400293894B4508BF9681401C0A78904288
S315000046B0F5DB2046BDE8F243FEF757BAAAB2394603
S315000046C04046BDE8F84301F09FB910B50C4601E03D
S315000046D0FFF714FFA04202D241880904F8D510BDA5
S315000046E070B5DFF848580446A878012804BF686A00
S315000046F000281DD1204609F012FE022818DB0021F1
S31500004700204609F01CFE0DE0012100F0A0FA78B960
S315000047103046FFF7DEFE0088000409D43146204605
S3150000472009F03CFE06463000EED16C62012070BDF9
S315000047302046FFF749FF002070BD2DE9F74FDFF84F
S31500004740EC470020E080606292B0FEF7D1F90121CB
S31500004750A1704FF0000AA188ADF802100021A180D7
S31500004760E1690191FEF701FA2089C200206A92B23E
S31500004770002101F0ABF90DF10200FFF725FFFEF76E
S31500004780B7F9217862785518FEF7EFF9EDB206E031
S3150000479004EB46000C30FFF717FF06F1010A5FFA3B
S315000047A08AF6AE42F4DB129848B1002501E0804754
S315000047B06D1C1298EDB250F825000100F7D1D4F81F
S315000047C014904FF0000B01250DF1080A0198814560
S315000047D002D3BBF1000F37D0BBF1000F06D0ABF10F
S315000047E001005FFA80FB5AF82B8004E04846FFF789
S315000047F085FEC8468146B8F8020000F44041B1F58E
S31500004800004FE3D140F48040A8F80200022638F8B1
S315000048101600FFF75EFE070012D0788801040FD459
S3150000482040F4004078803846FFF785FEBBF1100F54
S31500004830BDBF4AF82B700BF101005FFA80FB002523
S31500004840761C042EE3DBC1E7002DB8D0656A55B1AE
S315000048502888FFF73EFE6888000447BF0020606294
S315000048602846FFF7B1FE0020ADF800008246606AD8
S315000048700025A0B30088002100F0E9F9ADF800009A
S31500004880002100F0E4F90646BDF8000000F051F9F9
S315000048900546304600F04DF98246BDF850005045B9
S315000048A01ADB300018D000F044F90746304600F015
S315000048B028F9014613983A4601F0A6F83046FFF764
S315000048C008FE18B14188C1F30D0141800022606ADB
S315000048D0314609F08DFD02E00020ADF80000666962
S315000048E0B346B0460BE03088000404D5D6F80E0077
S315000048F008B109F09DFE3046FFF700FE0646019816
S31500004900864223D23046FFF7EFFD81463046FFF759
S31500004910D7FDBDF80010884206D10AEB0500C01C81
S315000049208010400000F1040970880004DBD5584669
S31500004930FFF7C6FD318801F40041084330801FFAB5
S3150000494089F00BEB400B06EB4008D4E70220A07081
S315000049500DF10200FFF738FE6846FFF735FE1298A4
S3150000496060B14FF0000902E0804709F10109129891
S315000049705FFA89F950F829000100F5D16769B9464F
S3150000498011E0022639F81600FFF7A3FD20B10088D2
S31500004990C0F30E0029F81600761C042EF2DB4846FA
S315000049A0FFF7ACFD8146C145EBD30BE00746FFF7A9
S315000049B0A5FD4146FFF789FE4845F7D30198814595
S315000049C02BD13746474549D23846FFF797FD002F8A
S315000049D00646F6D078880004F3D500F088F8B84289
S315000049E004D17888C0F30D007880EAE704D2014646
S315000049F03846FFF733FEE4E7019707E03046FFF756
S31500004A007DFD4146FFF761FE37460646464504D220
S31500004A10308800F06DF88642F0D337B100F067F8C1
S31500004A2001001CBF3846FFF719FE0198B946C3E7D7
S31500004A303846FFF759FD06465846FFF741FD8146C1
S31500004A40720092B23946584600F0DEFF002249460F
S31500004A500DF1020009F07BFC0BEB460BFEF748F864
S31500004A60064617E021784018401EC0B204EB40000D
S31500004A70002187898181380009D0FFF72AFD00F0DF
S31500004A8037FA002239460DF1020009F060FC607821
S31500004A90401E607060780100E4D10021201D09F0FD
S31500004AA087FCFFF716FD070006D1BDF80200A080BF
S31500004AB0C4F81CB00020A0703046FEF756F8002F50
S31500004AC0B6D1BDF8000078B10446FFF702FD070035
S31500004AD01CBF0AEB05007880204600F012F81399F7
S31500004AE05246284400F090FF15B0BDE8F08F388894
S31500004AF0C0F30E00EDE480B5FFF7EBFCBDE8024025
S31500004B00D8E410B5040012D0FFF7F5FF18B940F24B
S31500004B10394100F0AFF82046FFF7DBFC38B10188D9
S31500004B20090402D5D0F80A0010BD083010BD0020D7
S31500004B3010BD10B5010013D0FFF7CBFC0446FFF7FC
S31500004B40B9FC18B940F2534100F094F844B12088FA
S31500004B50000401D5208910BD6088C0F30C0010BD8B
S31500004B60002010BD2DE9F04104460D46FFF7B1FCCB
S31500004B70060040D0FFF79EFC0FF2C85718B940F266
S31500004B80664100F0A0F82046FFF7D3FF8046304686
S31500004B90FFF7B4FC454504462DD003DB40F26E41D9
S31500004BA000F091F83088000448BF358123D4758021
S31500004BB03046FFF799FC06EB4005FDF799FFDFF855
S31500004BC06C13CA69661B944204BFCD610026FDF7CB
S31500004BD0CCFFB6B2082E06DA32462846BDE8F041CA
S31500004BE0FF2100F073BF08220021284600F06EFF67
S31500004BF0A6F108006880BDE8F081F8B507460C46C6
S31500004C00FFF767FC06463846FFF793FF051B84420D
S31500004C10ADB21BD003DB4FF4936100F02BF8AEB1BD
S31500004C203088000406D5D6F80A0034812844C6F830
S31500004C300A00F1BD3846FFF764FF2246411900F02D
S31500004C40E3FE21463846BDE8F4408BE7F1BD38B5B2
S31500004C500C46FFF73EFC05000AD0FFF72BFC18B9FF
S31500004C6040F2AB4100F006F805EB4400808832BD07
S31500004C70002032BD0FF2CC40FBF74EBDF8B50C4616
S31500004C801546FFF726FC06000FF2B84714D0FFF7CB
S31500004C9011FC18B940F2B64100F015F82846FFF7A6
S31500004CA018FCFFF707FC18B940F2B74100F00BF803
S31500004CB006EB44008580F1BD3846BDE8F44040F27D
S31500004CC0BA41FBF729BD3846FBF726BD70B5044649
S31500004CD00D46002608E0FFF72CFF294686192046D8
S31500004CE0FFF7B5FFB6B204462000F4D1304670BDDA
S31500004CF038B5C01C8D4C80104500A06AADB218B105
S31500004D0040F2CF41FFF7B6FFA069E169411AC90336
S31500004D10B5EB114F05DA690049420844A06201204B
S31500004D2032BD002032BD81490020886270472DE9DE
S31500004D30F84F0446E01C80107C4D40000027001D03
S31500004D40AE690FF2004AB4F5005F88461FFA80F993
S31500004D5004DB40F2E6415046FBF7DEFCFDF7C8FEF9
S31500004D608346E869A96A09B9301A03E05FEA0802CE
S31500004D7002D0081A461008E0701A4610B0B220B9E0
S31500004D8040F20C515046FBF7C7FCB6B24E4515DB58
S31500004D90EF6907EB4900E861A86A28B1B8F1000F8E
S31500004DA004BF00EB4900A86200207C80B880F88030
S31500004DB0388004F108016889081868815846FDF7AB
S31500004DC0D4FE1FB901211F2002F0E2FD3846BDE8DE
S31500004DD0F24FFFF775BBF8B504460D46164600219F
S31500004DE00A20FFF7A4FF0746FFF773FB48B10681C9
S31500004DF0C0F80A40018841F400410180C0F80E5015
S31500004E003846F2BD70B504460D4611462846FFF7F2
S31500004E108EFF06463CB1300005D0FFF772FE2A46EB
S31500004E20214600F0F1FD304670BDF8B504460D464A
S31500004E30164615E02846FFF77CFEB7B2874288BFC4
S31500004E4007462846FFF75DFE01463A46204600F033
S31500004E50DBFD01212846FFF7FAFE3C440546F61B1A
S31500004E60B0B20028E6D1F1BD2DE9F84381460E46E1
S31500004E701446FDF73DFE2D4D8046287801002BD0C7
S31500004E80401E2870C0B205EB4000A9788789F9B9A1
S31500004E9081813846FFF71DFB00F02AF83846FFF7F8
S31500004EA030FE3246494600F0AFFD3846FFF729FE90
S31500004EB022460021304400F009FE00223946281D12
S31500004EC009F045FA4046FDF750FE0120BDE8F283A1
S31500004ED06878401C6870E1E7A019012180B2FFF7ED
S31500004EE026FF0700DAD14046FDF73FFE0020EDE73A
S31500004EF020B141884DF6FF7211404180704738B5A8
S31500004F00FDF7F6FD044600210B4809F051FA054667
S31500004F102046FDF72AFE284632BD8041C00F704765
S31500004F20024900208880704700000000407600207B
S31500004F30A85D002044510000447600202DE9F04190
S31500004F400446884617461E464046FFF7DAFDC51951
S31500004F504046FFF7EEFDB919884203DA40F2B15137
S31500004F60FFF788FE300013D00698010003D13246C1
S31500004F702946204604E0012832462146284603D128
S31500004F80BDE8F04100F040BDBDE8F04100F07FBD56
S31500004F90BDE8F08110B50C46FFF7B3FD00B1005D2A
S31500004FA010BD38B50C461546FFF7ABFD00B10555EB
S31500004FB031BD38B50446FFF7BCFD05462046FFF770
S31500004FC0A0FD2946BDE8384000221BE770B50D4616
S31500004FD0691C0446C9B2FFF7DDFF060229462046D2
S31500004FE0FFF7D8FF301880B270BD00B583B002233A
S31500004FF08DF80420120A8DF80520012200920A4637
S31500005000014601A8FFF79AFF07BD10B50446FFF752
S3150000501046FA10B1A4F108000CE010BD10B5FFF778
S3150000502058FA040004D0FFF75FFA04EB400001E0F1
S31500005030002010BDBDE81040FFF742BAF8B504469F
S315000050400D46FFF746FA060016D07088C0F30C0727
S315000050502846FFF73EFA07F00101CF19FFF744FA99
S3150000506007EB40072046FFF7D9FFA84203D040F2DE
S315000050706E61FFF7FFFD7780F1BD2DE9F0410C462B
S31500005080FFF727FA05002DD06888C0F30C0606F056
S3150000509001008019001B04F00101471AE01C20F0F2
S315000050A00300284400F108082846FFF703FABFB2B8
S315000050B008B1A64203D240F28A61FFF7DBFDB44293
S315000050C010D0092F0EDB6C8008220021404600F02C
S315000050D0FDFCA7F10800A8F802004046BDE8F04133
S315000050E0FFF7EEB90020BDE8F08170B5044682B046
S315000050F02068FFF78AFFADF8000000B3FFF7E9F973
S3150000510005001CD000880FF23C06000404D540F2CE
S31500005110A5613046FBF700FB6846FFF755FABDF878
S315000051200000FFF7D6F90546FFF7C4F920B940F2AB
S31500005130AB613046FBF7F0FA05F10800206073BD5D
S31500005140000000006275666665722D6D616E6167AE
S31500005150656D656E742E6300012100F01F0291409B
S31500005160DFF8C82705E0012100F01F029140DFF8B3
S31500005170C027400942F820107047012100F01F02A5
S315000051809140DFF8B027F4E710B5012818BF2028B2
S31500005190DFF8A44705D04FF4BD710FF66400FBF7A6
S315000051A0BBFA204610BD426892884089401A824266
S315000051B001DA01207047002070473EB5012818BF6C
S315000051C0202834D1012818BF202830D1FFF7DCFF72
S315000051D00446FDF78DFC0546A06901AB6A4602A9A7
S315000051E00AF0AFF900992289206889B200F024F804
S315000051F02846FDF7BAFCA0690AF01BFA012816D169
S31500005200216820898988401A218A88420FDBA06993
S3150000521090F83110022903D10AF091F9022804DA34
S31500005220A06990F83100012801D100F001F837BDDE
S31500005230A06900210AF0D5B970B504460D46164698
S31500005240FDF756FCE188A9420CD22288521A52195F
S3150000525092FBF6F306FB13222280A288AA18511AA3
S31500005260A180E580BDE87040FDF77FBCF8B5012858
S3150000527018BF20280C46154616D1FFF785FF0646AF
S31500005280307B10B101207073F1BD707B18B13046D0
S31500005290BDE8F240B2E00FF2CD1700F006F818B103
S315000052A000F003F80028FBD1F1BDB0693B462A4661
S315000052B021460AF0A2BA70B505460E46FFF764FF0E
S315000052C0012D18BF202D044640D1A069016890F831
S315000052D03200E8B90420886400F031F9A06900685A
S315000052E0C16C002E07D041F00401C1640C20FFF709
S315000052F033FF052106E021F00401C1640C20FFF70D
S3150000530032FF0021A0690068BDE870400AF004BBC6
S315000053100420486300F013F9A0690068816B002E31
S3150000532007D041F0040181630C20FFF715FF05212A
S3150000533006E021F0040181630C20FFF714FF002131
S31500005340A0690068BDE870400AF06BBB70BD38B557
S315000053500446DFF8E805814230D0DFF8DC55A8695D
S31500005360A0422BD12A89286899B2FFF765FF2968E0
S315000053700020C88002E0284600F021F820460AF006
S31500005380DEF803281ADA2A68E889698A938841438D
S31500005390002B89B2EFD05388128840188342B8BFD9
S315000053A0914205DB9A42E6D28342A8BF9142E2DAF5
S315000053B02046BDE8344001210AF013B931BD38B5A5
S315000053C00446DFF87C35E089658A21680246684331
S315000053D0084400F10801A0690AF0C7F9A0690AF0BB
S315000053E0AEF8022801DBFFF723FF608AA18A401C82
S315000053F090FBF1F201FB1200608231BDFEB504465E
S31500005400207B68BB60680FF25D074188084400F1A5
S315000054100805A0696B4601AA02A90AF0B2F86068FD
S315000054208188009A891A019A8E1A418800888842D2
S315000054300ED26089421AA0693B4629460AF0DDF978
S3150000544070B9606861894288711A561800F10805BA
S31500005450A0693B46F2B229460AF0CFF900B960735B
S31500005460F7BD000070B5DFF8D054A96981421C462B
S3150000547015D168688188A14238BF8488FDF738FB5A
S3150000548069686B894A88A4B2A21892FBF3F603FBFB
S3150000549016224A8069688A88121B8A80E2E670BDF5
S315000054A038B50D46FFF770FE112D044609D1A069E7
S315000054B000210AF0A7F8002020732046BDE83240FC
S315000054C09CE7132D06D1A06901210AF09BF8012063
S315000054D0207331BD20680188084405722068018860
S315000054E0228900F043F901808188491C8180A069E6
S315000054F00AF09FF8226821899288891A89B220B910
S31500005500E2898A42A8BF012105DA012808D1208A4A
S31500005510814205DB0021A069BDE834400AF061B88C
S3150000552031BD80B5DFF81C040169090606D50AF00D
S3150000553065FABDE8044001460120B1E701BD0C2033
S315000055401BE6F8B50C461546FFF71EFE0646EAB200
S31500005550306880883189891A884201DB0120F2BDD2
S3150000556000270DE0FDF7C4FA31680B8814F8012B0B
S3150000557019447F1C0A7231680A88338900F047F99A
S31500005580AF42EFD30020F2BDF8B5012818BF20289E
S3150000559004460D463AD100F023FA10B9204600F031
S315000055A06CF82046FFF7F0FD06462046FFF7ECFDB7
S315000055B0012C18BF202C29D1DFF88C13016001F1D2
S315000055C048024260402202818022012C18BF202C12
S315000055D0428150D1012C16BF202C01F1D0000020B1
S315000055E0012C18BF202CB06110D1DFF86003A98C04
S315000055F0A8618030E861F181EA8C32828A4207D262
S315000056001C21304604F05CFA0220F2BD0120F2BDF6
S31500005610B06990F83130012B0CD0338993FBF1F748
S3150000562001FB1733002B02BF92FBF1F301FB1321A1
S315000056300029E5D1294609F0BDFDE8B9B069017F29
S31500005640007E0123022208F02BFD287C012807D1C9
S3150000565001212046FFF72FFEB069FFF7EAFD0AE0B9
S3150000566000207082F189308990FBF1F0B08200F061
S31500005670B4F900F0B2F90020F2BD58B5012818BF00
S315000056802028044612D100F0ABF9F0B9204600F00C
S3150000569083F92046FFF778FD012C18BF202C06461B
S315000056A00FD1B06909F04DFE10B152BD012052BDB7
S315000056B0B06990F83100012803D100212046FFF798
S315000056C0FAFD1C21304604F0FBF9002052BDF8B566
S315000056D00128064618BF20280F4634460AD1FFF790
S315000056E053FD05463046FFF768FD2868808818B9DF
S315000056F02620F2BD0120F2BDFDF7FAF9064628681C
S3150000570041880844007A3870286841882A8900F060
S315000057102DF841808188491E012C18BF202C8180DC
S315000057201FD1A86990F83100012803D119E0284655
S31500005730FFF745FEA86909F002FF022811DA2A6878
S31500005740E889698A53881288414389B2401883429E
S31500005750B8BF914205DB9A42E9D28342A8BF914283
S31500005760E5DA3046FDF701FA0020F2BD491C91FB4F
S31500005770F2F302FB131170472DE9F047804601282A
S315000057801CBF2028012089463FD1FFF7FDFC0646B5
S31500005790002470680188084400F1080A00251CE00E
S315000057A0FDF7A6F971680B8819F8012B1944641CDA
S315000057B00A7271680A88738900F029F8706800888F
S315000057C058B9671BFFB23A4651464046FFF74EFDB1
S315000057D070687D19EDB200F1080A99F8000050B121
S315000057E000213046FFF7DFFC0028D9D1307B0028A6
S315000057F0F6D0222009E0E4B2A54205DA621B92B295
S3150000580051464046FFF732FD0020BDE8F087521CA6
S3150000581092FBF3FC03FB1C220A808A88521C8A80B6
S31500005820FDF7A3B910B5012818BF20280BD11346E0
S315000058300A4601460FF2150000F0A2F9002400B94D
S315000058400124204610BD012010BD00002DE9F84FAF
S31500005850814601281CBF202801208A4693464AD14A
S31500005860FFF792FC0746002478680188084400F197
S315000058700808002627E0FDF73BF979680B881AF837
S31500005880012B19440A7279680A887B89521C92FB9B
S31500005890F3FC03FB1C220A808A88521C8A80098832
S315000058A04D1EAD41FDF761F9ED0F761C5DB1351B5F
S315000058B0EDB22A4641464846FFF7D8FC78682C19CF
S315000058C0E4B200F10808F0B258450AD20021384681
S315000058D0FFF769FC0028CED1387B0028F6D02220BD
S315000058E009E05C4506DAABEB040292B24146484653
S315000058F0FFF7BCFC0020BDE8F28FF8B5012607468D
S31500005900012F18BF202F0C4615460DD1FFF73CFC82
S31500005910012F18BF202F05D180692A46214609F09C
S315000059208AFE06463046F2BD0120F2BD00E100E0E7
S3150000593080E100E080E200E010710020097000F0D4
S315000059404F530000000001400C700020EC5A00206C
S3150000595038B50446012C18BF202C1BD1FFF714FCC8
S31500005960012C18BF202C054612D1686880880028B3
S31500005970FBD1A86909F001FE0028F6D1A86909F053
S31500005980B5FD8006F1D5A86909F0B0FD8004ECD517
S31500005990002032BD012032BD70B50546FFF7F4FB8D
S315000059A00646012D346818BF202D0DD1B06990F838
S315000059B03110012908D0022109F008FD002070826B
S315000059C000F00BF800F009F8FDF792F80021A1802D
S315000059D021806180E180FFF745BC3046FFF7EFBCD0
S315000059E080B5012818BF202806D1FFF7CDFB002877
S315000059F01CBF0068002801D1012002BD002002BDA5
S31500005A00636F6D2E63000000814233D2104411444F
S31500005A10401E491E10E011F8013900F80139121F25
S31500005A2011F8013900F8013911F8013900F8013986
S31500005A3011F8013900F8013992B2042AEBDA93B26F
S31500005A40002B1EBF11F8013900F80139521EF6D19C
S31500005A50704711F8013B00F8013B121F11F8013B9A
S31500005A6000F8013B11F8013B00F8013B11F8013B3E
S31500005A7000F8013B92B2042AEBDA93B2002B1EBF68
S31500005A8011F8013B00F8013B521EF6D1704710E0B9
S31500005A9011F8013B00F8013B121F11F8013B00F819
S31500005AA0013B11F8013B00F8013B11F8013B00F8FE
S31500005AB0013B92B2042AEBDA93B2002B1EBF11F817
S31500005AC0013B00F8013B521EF6D17047130003D08C
S31500005AD00A46194609F0E6BF704710B500E0521EA7
S31500005AE093B223B100F005F8F9D0181B10BD0020C1
S31500005AF010BD10F8013B11F8014BA342704700009E
S31500005B0070B51346104402E0A4192C705B1EDCB27B
S31500005B104CB101F00F060909451E0A2E2846B4BFEE
S31500005B2030243724F0E7104470BDF0B5002341B1AE
S31500005B30002806D501232D21B0F1004F117018BFA2
S31500005B404042002100240FF2C02555F8247000269B
S31500005B5001E0C01B761CB842FBD2F7B20FB90F00AA
S31500005B6005D0DBB206F13001D1545B1C0121641C67
S31500005B70092CEADBDBB23030D054581CC0B2F0BD81
S31500005B802DE9F24F804696B013A80190154603A85A
S31500005B909B4603AE002700248DF800000BE001248D
S31500005BA005460198864205D300F0DCF800284FD15F
S31500005BB000F0CEF86D1C9DF800002978301A0A0016
S31500005BC00BD0252903D014B906F8011BE9E7002CF0
S31500005BD014BF00246D1C29780A0000F0AF80B1F1D3
S31500005BE0250216D00B3A092A40F28980283A7DD040
S31500005BF00A3A12D0521E41D0521E5FD0083A5DD0EA
S31500005C00121F3ED0D21E3CD0921E57D0D21E6DD04F
S31500005C10C7E7252006F8010BC3E7DBF80000029072
S31500005C204FF0000A0BF1040000F1040BD0F80090CD
S31500005C30CA45B6D2029810F80A1002223046FFF77B
S31500005C405FFF06460198864205D300F08BF80028D0
S31500005C507AD100F07DF8A9F1010082453CBF2020F1
S31500005C6006F8010B0198864205D300F07BF8002860
S31500005C706AD100F06DF80AF1010AD9E75BF8040B66
S31500005C80C8E75BF8049B00F067F800285CD100F0D9
S31500005C905FF84FF0000A01E00AF1010A5FFA8AFA9A
S31500005CA019F80A000028F7D19DF8580052464946CF
S31500005CB0C047002848D15744FFB272E76C290AD181
S31500005CC06A785BF8040B752A0EBF00210121642A4D
S31500005CD007D16D1C05E075295BF8040B0CBF00218C
S31500005CE001213246FFF721FF36185AE75BF8041BFD
S31500005CF00222C9B23046FFF703FF064651E76A782B
S31500005D000124782A18BF582AF8D16D1C0024681E71
S31500005D10322904D15BF8040B042281B2EAE7342964
S31500005D207FF43DAF5BF8049B04224FEA19413046ED
S31500005D30FFF7E6FE04221FFA89F1DCE700F00CF813
S31500005D4010B9F019C0B200E0002017B0BDE8F08F1E
S31500005D50F719FFB203AE704706469DF85800F2B237
S31500005D6003A940479DF80000361A9DF85800F2B284
S31500005D7003A940472DE9F047804615461E46FCF725
S31500005D80E8F8010015D100270FF2740A0BA40FF2F0
S31500005D90300900E07F1CB7420BDA701E8742EA5DCD
S31500005DA0B4BF4B4623465146404600F01BF801005F
S31500005DB0F0D0BDE8F08703A114E000000000000069
S31500005DC0200000000D0A00000CB438B5044604AAF1
S31500005DD000F010F805462046FFF7EDFF284632BCD6
S31500005DE05DF80CFB0CB480B502AA00F003F802BC07
S31500005DF05DF80CFB80B5FFF715FDC0B202BD0000D3
S31500005E00257825730000000000CA9A3B00E1F505DD
S31500005E108096980040420F00A086010010270000DF
S31500005E20E8030000640000000A0000000D48016855
S31500005E3021F480310160016F49084900016770470C
S31500005E4010B5FCF755FE0446FFF7F0FF064800F0D4
S31500005E500DF8044805210167016841F480310160AD
S31500005E60204624E024ED00E02C5A002038B50446F4
S31500005E700525204609F04AFE10346D1EF9D1BDE80D
S31500005E80314009F06BBE80B5FFF7D0FFBDE8014099
S31500005E9009F064BE10B50446FCF72AFE004901E08D
S31500005EA02C5A0020620952014A6000220A70BDE89D
S31500005EB01040FCF75ABE0000DFF89019042209686A
S31500005EC0C00002FA00F0084018BF0120C0B27047B7
S31500005ED00422C900002814BFDFF85409DFF870094E
S31500005EE002FA01F10160704701207047704748B11E
S31500005EF0DFF864296FF0FF011160000ADFF85C1912
S31500005F000002086070472DE9F0430D4604469046AE
S31500005F100421DFF84C09DFF84C79D0F80090DFF85F
S31500005F20480904EA000205EA0103002000218B4229
S31500005F3008BF824283B009F10C0647D0DFF82C096E
S31500005F400068220348BFC7E90201E20248BFC7E969
S31500005F500401E0000BD5DFF81819086800F07F404F
S31500005F60B0F1007F03D1DFF80C1902200860E007CA
S31500005F701FD500F06CF9002200F051F8012009F05D
S31500005F80A9FFF08000210120FCF7C9FB79780029E0
S31500005F9014BFDFF8E418DFF8301A4FF40010086079
S31500005FA0786AFFF7A4FF00207862307840F0080096
S31500005FB0307005F0040300218B4207D001213046E2
S31500005FC0FCF708F925F0040504430D43D6E9120150
S31500005FD004400D400020854208BF84420ED0B969B6
S31500005FE022462B46484688474FF0FF30C7E9020055
S31500005FF0C7E90400200744BF0020B8625FEAC87002
S315000060000BD5F9690020F86101203870080004D02A
S31500006010386A03B0BDE8F0430847BDE8F7830023BC
S31500006020012000210AF05DB970B508B9012070BDE4
S31500006030DFF84828DFF8484851681268402303FA19
S3150000604002F22368DFF8284A2468C4F38114521E3A
S31500006050032C01F1005192B29BB20BD10025EE1830
S31500006060083E16408E5D46556D1C082DF7DB047202
S31500006070002070BD022C0AD19D1E15405B1E4D5D91
S3150000608005801A40895C45EA01210180EFE702207C
S3150000609070BD10B582B009B9012016BD0B7BDFF8C3
S315000060A0C427002B14BFD2E90423D2E902234FF000
S315000060B0FF34A34208BFA24201D1022016BD0091BF
S315000060C028300BF02DF8002016BD10B5044611201F
S315000060D0FDF77CFC042802BFDFF82809006810F4ED
S315000060E0403F01D0022010BD20460AF0A2F920460A
S315000060F000F0C1FFDFF8BC1960200860002010BD69
S315000061002DE9F04104460FF27C0084B004F10C083E
S315000061100068029008F108070026BE67C7E9106606
S315000061203E867E866420B886F88638877887B88764
S31500006130F8870D464FF6FF7038804046FFF7D4FECD
S31500006140C0B14046FFF7C1FF060013D102A9404681
S3150000615000F018FD0646BA6F4FF0FF31404600F0DA
S3150000616088FA00F074F84FF0805204231046042198
S315000061700AF0B7F828001CBF2046A847304604B0EE
S31500006180BDE8F0810000000098B50446207881073C
S315000061902ED5616A61B300F0FD012170606A406925
S315000061A0006810F1010F03D0BDE892400BF005B96D
S315000061B0D4E9122303F004030027BB4203D141F0C4
S315000061C00200207091BD4FF480312046FCF702F8A2
S315000061D0D4E9122302400B4008BFBA4208D0A4F10A
S315000061E00C0001B0DFF87C168969BDE890400847CD
S315000061F091BD2DE9DC430446DDE90867D4E91201C7
S315000062009043994306EA020807EA030940EA0800B0
S3150000621041EA0901C4E9120122F0010823F000094C
S3150000622000F07EFD80B100F012F807EA090106EAE7
S31500006230080040F0805241F00403404649460AF007
S3150000624050F82046FFF7A0FF0020BDE8D6830020C7
S3150000625001900090704700680100DFF8081608BF3B
S31500006260DFF81C09886170472DE9F0415FEA0108F3
S3150000627086B0044615461E461AD0280018BF002CC4
S3150000628016D000F093FFDFF8DC75B96A8C4206D1B0
S315000062907988BF88ADF8001000F085FF1DE000F09A
S315000062A082FF6A4601A920460BF095FD040001D144
S315000062B000201FE09DF80400002818BF08280AD017
S315000062C000F074FFBC62BDF800107980BDF80610BE
S315000062D0B98000F068FFBDF80670A8198742BDF8BE
S315000062E00000B8BFBD1B83199BB2AAB2414601206C
S315000062F00BF013FC06B0BDE8F08110B500F03CFED3
S3150000630070B1F020044201D0012010BDDFF8EC0886
S315000063100168090904F00F0242EA01110160002038
S3150000632010BD0000002300210022032807D8DFE863
S3150000633000F00302070A012318460AF001B9704764
S3150000634001230121F8E7012301210122F4E7DFF807
S315000063500405006800F07060B0F1807F18BFB0F1EE
S31500006360007F19D0B0F1407F18D0B0F1806F1CBF0C
S31500006370B0F1A06FB0F1E06F0ED0B0F1006F17D0A2
S31500006380B0F1106F0CD0B0F1206F1CBFB0F1306FC0
S31500006390B0F1406F0CD005E0022070470320704733
S315000063A005207047DFF89008006810F0060F01D04E
S315000063B00420704701207047DFF85409006800F098
S315000063C0A000401E8041C00F704710B5044600F083
S315000063D0AFFB204602F05EFA78B1204600F0FFFAE5
S315000063E058B1032100200BF0DDFB10F1010F01D1A4
S315000063F0032010BDDFF81C190860002010BD10B581
S31500006400FFF7E3FF040008BF0AF063F8204610BD5B
S3150000641070B584B0BAB31378002B04BF5378002B41
S3150000642031D070CA6B4670C312F80C3D1C000FD0F9
S315000064309588BDF806406B431B19ADF806301478F5
S315000064409DF801301B1B8DF8013000238DF80030BC
S3150000645001239DF8014000E05B1C01259D40A542FB
S31500006460FAD392888DF800306E0804FB0262B2FB04
S31500006470F5F2ADF804209DF800208DF801206A465B
S3150000648000F005F801E000F002F804B070BD2DE957
S31500006490FE4F83461446FFF798FF5FEA000940F077
S315000064A08580002CDFF8706855D094F90310E088D9
S315000064B009F031FDA178481E8DF8080001272278E1
S315000064C06078924619B900278DF80810BA468046BA
S315000064D0D04538BFD0461AB9451EAD41ED0F00E094
S315000064E00025A0880BF08BFF80B2DFF830184FF63E
S315000064F004026DB1CB6A9BB2934208BF5B1C33802A
S315000065000122CA624FF0080A8022CA64D04604E01B
S31500006510338893421CBFCB62328038B1421E4FF69D
S31500006520FF739A4288BF1A460A6000E0086000209E
S3150000653001903B469DF808000090424651460BF1FB
S3150000654028000BF000FF25B1DFF8A0184FF48010EB
S315000065500860A06870602020DFF89C1808600120A1
S315000065600BF05EFF00F022FE04460BF016FF766885
S31500006570AEB104200BF0B6FE10B104200BF082FD84
S3150000658030460BF03CFF012200920B4602460420E7
S315000065900BF088FD00F0010090F0010903D10BF02B
S315000065A008FF09F07BFF00F003F84846BDE8FE8FC0
S315000065B0204600F0F8BD38B500F0DEFC002518B125
S315000065C060B209F0CEFC0546284632BD80B50020F3
S315000065D009F0A0FF002002BD012809D00BD3032833
S315000065E003D008D24FF0C05006E04FF0005003E051
S315000065F04FF0605000E00020DFF838180A6822F0FB
S315000066006052104308604FF400109B49DFF82828B9
S315000066100860DFF82808016821F0060141F004014E
S3150000662001604FF0805111600421416100207047E4
S31500006630DFF80C18062008600020DFF8081808604C
S315000066404FF08050DFF8001808604FF40011DFF8B3
S31500006650780301604FF06051016000207047002808
S3150000666019BF0220DFF8E4170220DFF8E4170860FC
S31500006670704738B500F0FEF900284ED02207DFF843
S31500006680D007DFF8C81705D52A0747BF08220A60D2
S3150000669008220260E20705D5EA0747BF0120086025
S315000066A001210160600708D569074CBFDFF8A41710
S315000066B0DFF8A4174FF400700860A00704D5680837
S315000066C000F00100FFF7CBFFE00606D5DFF88C07E8
S315000066D0E9064CBF00211B21016014F0600F1CD09D
S315000066E004EA0502002102F06002202ADFF87007A2
S315000066F011D0402A0CD0602A0ED1DFF87428136816
S3150000670053B11C68022C07D35A6942F0010103E019
S3150000671040F2011100E001210160002032BD2DE9A7
S31500006720FC4700260D0018BF0125022980461446A5
S31500006730994603D100F032F8002027E000F036FD3C
S31500006740484F8246F869010018BFA04215D10120C2
S31500006750FC6101900090C7F82090002200230020E1
S31500006760FFF75FFC3E7040460BF049FE02460B46C3
S31500006770009502200BF096FC0646504600F013FDED
S31500006780002E03BF0020F86101200020BDE8F68737
S31500006790DFF88008D0E900010BF01DBE00B583B01C
S315000067A00020019000220120009000230020FFF726
S315000067B038FC02200BF066FC2A490020C86107BDA0
S315000067C0DFF8B007274900680978800A00F0010061
S315000067D00843704702200BF085BD70B5406A00255E
S315000067E0002816461EBF4069002805460C46F007DD
S315000067F048BF0BF099FEF00317D5266816F1010F76
S315000068000ED1DFF86C07016800291FBF0A68002A4D
S31500006810C8680AF0F9FC0AF06EFD0646266002E03A
S3150000682030460AF0CAFD05B12E6070BD00000000BA
S31500006830EC10084638B5DFF858480B7822684978D6
S31500006840C2EA034242EA016527E00000EC10084074
S31500006850EC100844044008401870084418700846B4
S315000068603C5F0020005A0020010018101C5108400F
S31500006870081F0021004008461860084630100840EE
S31500006880FC1E002138B5DFF8084822680B784978E5
S31500006890120C43EA024242EA0125FFF725FB00B14A
S315000068A02560002032BD70B500F0A4F9002628B19D
S315000068B004F1280128460BF047FE0646304670BD17
S315000068C070B504460D4694F86000032801D10220F5
S315000068D070BD261D316A357081B12046FBF729FF50
S315000068E040B930622046FCF716F801462046FBF711
S315000068F03CFF03E0E9B2204600F002F8002070BD3C
S3150000690010B50C4690F86010032901D1022010BD85
S31500006910FFF7EAFA10B1E0B20BF0BEFE002010BDA0
S3150000692080B508460BF063FE002002BD0BF067BE83
S315000069302DE9F04104460F466069012815461E46BA
S315000069403DD000F0EDF9002839D0FFF700FD012811
S3150000695003D001210120FBF7E2FEA889D5F80480C7
S315000069603F1ABFB2402F06D3A968B809484308EBBF
S31500006970801807F03F070CF0FDF8404507D10CF0F2
S31500006980FCF8A968884204BFF6B2002E10D0A968A8
S3150000699040460CF024F908B1022011E00CF004F98D
S315000069A0002814BFDFF89007DFF890070CF009FA0B
S315000069B02046FFF7E9FB0121F8B20CF07BF9002035
S315000069C0BDE8F0810000000018600844C9B280B537
S315000069D0002914BF20220022202100F046BB2021DE
S315000069E00AF029B958B5064688B20BF008FD0446E8
S315000069F03046FFF779FA18B1DFF8480761420160BF
S31500006A00002052BD04300E40F8B5074600F032F8BB
S31500006A10032618B300F0CAFB0746DFF8DC13022092
S31500006A20086073480068000E00F00F00082818BFC1
S31500006A30072803D0092818BF0C2804D1DFF8D00294
S31500006A400068800304D4E9B220460BF0CBF8064672
S31500006A5000F029F8384600F0A6FB06E0EAB2214627
S31500006A6007F19000FBF7C8FD00263046F2BD000096
S31500006A708C4008400C461546FFF736BAC9B20029C5
S31500006A8014BF0822002208210AF0BAB8C9B20029A8
S31500006A9014BF4FF4807200224FF480710AF0B0B830
S31500006AA008210AF0C8B8DFF8A0160220086070476F
S31500006AB0000000004400084000280CBFDFF838033F
S31500006AC0DFF890064FF480710160704770B5DFF80B
S31500006AD07C46DFF87C162578DFF87C26ED074FF438
S31500006AE0806303D505000CBF13600B602678B607DC
S31500006AF04FF4006503D506000CBF15600D602678BF
S31500006B00760703D506000CBF53604B6023781B073E
S31500006B1003D508B9556070BD4D6070BD002814BF1F
S31500006B20DFF83003DFF830034FF48061016070470F
S31500006B3038B504460D46680800F00100FFF7C6FFA9
S31500006B4005F00400FFF7EAFF002005F01802182AF6
S31500006B50DFF8081607D02A0748BF012003D4EA0643
S31500006B6048BF40F2011008602046FFF738FF20B109
S31500006B7005F00100BDE832409EE731BD000000008F
S31500006B80ED5E0000F8B500F035F870B3A878E97846
S31500006B90884201D00120F2BD6878010002D1FFF7DA
S31500006BA047FD01E0FFF718FDA878DFF8B46540F669
S31500006BB0FF7700280EBF3760204600F0E2F8E8783D
S31500006BC040B9DFF888123763602008604020DFF89C
S31500006BD0781509E0DFF8781260200860204600F09A
S31500006BE0E6F84020DFF8581508600020F2BD0000E6
S31500006BF00440084004460D46FFF776B95C1F0021A5
S31500006C0038B50C466A460BF0E6F8050018BF002CAE
S31500006C1010D02078010018BF08280BD000F0C6FA63
S31500006C20DFF840158D62BDF800204A8062888A80B0
S31500006C3000F0B9FA284632BD0C50084010B50C4693
S31500006C40002818BF002C84B006D0032806D20022E4
S31500006C5000210BF0C0F808B9012056E0006800904A
S31500006C60BDF800209DF80210120401F0070002D4BE
S31500006C70821F022A01D3022047E007280CBF012009
S31500006C8000202073080900F001006073C1F3801032
S31500006C902074C1F3C0006074C1F34010A07409F001
S31500006CA086F80246C0B240B3207A00B90222BDF887
S31500006CB00000831F9BB2D2B201A901200AF02DFF6A
S31500006CC001A841784900E1739DF90410A173217A66
S31500006CD0D1B18178C2780079009441EA022141EA73
S31500006CE000409DF8091040EA0162DFF87C04006864
S31500006CF0002334300AF0C6F906E0E0736FF07F0037
S31500006D00A073002020602072002004B010BD000097
S31500006D1088400840001F0021945F00202C50084046
S31500006D202046FFF7E1B8F8B50C469BB200F023F811
S31500006D3006DAB3FA83F1D1F1190148BF002507D469
S31500006D4000F019F8BABFB3FA83F1C1F119050625A7
S31500006D500121AB1D01FA03F6B7B291B28F4288BF8B
S31500006D600F46FFF7C1F820B1EAB2394620460AF0CD
S31500006D7062FEB0B2F2BDB3FA83F1C1F11901062980
S31500006D80704780B5FFF7B0F880B10020FFF794F8A0
S31500006D90DFF8D823012111604FF40051DFF8D0232A
S31500006DA0116018B1BDE80440002121E001BD10B515
S31500006DB0FFF79AF8B8B10120FFF77EF804460121E3
S31500006DC00020FFF785F8DFF89C130020886209F0A1
S31500006DD0B1FEDFF8A0134FF4005008601CB1BDE807
S31500006DE01040012104E010BD000000004C50084690
S31500006DF00120FFF76DB800008840084610B50CB2B8
S31500006E0014F1010F01D1012010BDFFF76DF870B12B
S31500006E1043F6FF70844206DA14F5804FB4BF4FF490
S31500006E208040C4F30E00DFF858130860002010BD40
S31500006E3000000000186008409440084670000840B2
S31500006E407000084484000840944008444400084602
S31500006E50440008441C6008461C6008444C00084076
S31500006E606C1F00212DE9F84F054600F085F8002635
S31500006E7008B9BDE8F28FDFF8F8B0DFF80873DBF881
S31500006E800080D7F80090D7F804A0214605F1280025
S31500006E9008F022FFDBF8004038687968DFF8AC229A
S31500006EA048450ED01378870A03F0FE0307F0010762
S31500006EB03B43C00A03F0FD0300F0010043EA400033
S31500006EC0107051450FD010788B0A00F0FB0003F0CC
S31500006ED0010340EA8300C90A00F0F70001F001014E
S31500006EE040EAC10010704FF6FF712889884205D02C
S31500006EF05268100002D0298928469047444532D06E
S31500006F000021002C1EBF20680028A168284600F03A
S31500006F1036F8002C1CBF2068002801D0206920B953
S31500006F20B04600270024002104E0D0F80C80076852
S31500006F30448A416805F128000AF056F8060007D190
S31500006F404246394605F128000AF04AF8060001D003
S31500006F5030468EE7214605F1280009F0ACFF05F121
S31500006F6028000AF039F8287840F002002870EFE788
S31500006F70F81F00215C5008400C46FEF7B5BF70B5FF
S31500006F800E0082B00546DFF800420AD10022072132
S31500006F9009F036FE00F02EF858B30020C4E90000D0
S31500006FA073BDFEF7A1FFF8B1DFF8CC11072008602A
S31500006FB00121307920707079009068460BF06CFFE3
S31500006FC00099C14000F00F0040EA01106070B079EE
S31500006FD0A070F079E0703168DFF8B00101603079B7
S31500006FE0DFF89811401C086007220721284609F09F
S31500006FF007FE73BD2846FEF777BF10B5FFF7BCFF47
S3150000700020B1E0B2BDE8104008F064BFDFF88001AF
S3150000701010BD0000F861002080B50BF075F9BDE8E1
S3150000702004400BF0D8B970B505460C4600F023F8BD
S31500007030CCB1A078092801D3012070BDE1780929D7
S31500007040FAD200F00F0040EA0116FFF7D3FF50B165
S31500007050DFF8400161680160DFF83C0121780170CA
S3150000706061784170C670002070BD09F0C9FD00B19D
S315000070700120C0B202BD80B5FEF736FF30B1BDE8D3
S3150000708004404821DFF80C0102F01ABD01BD0000E2
S31500007090081F0021F8B5D2B2022A3CBFDBB2042B8E
S315000070A001D30120F2BD5408DFF8F05001272E5D10
S315000070B003EB8202C9B207FA02F2002914BF164393
S315000070C09643FEF711FF00B12E550020F2BD0BF0DE
S315000070D0F7BE38B50D460446298804F13C0009F090
S315000070E0D4FE288004F14400698809F0CEFE688049
S315000070F004F14200A98809F0C8FEA88004F1400006
S31500007100E98809F0C2FEE88004F12800298909F01F
S31500007110CAFE288104F12800698909F0CCFE68813D
S31500007120FFF7FEFD18B104F1280009F055FF002015
S3150000713032BD0BF0A0BF0000C0CF6A00E06735008B
S3150000714088400846041F002188400844607A0020D1
S31500007150A000084488400844A0000846701F00218B
S3150000716024100840005A00203C5F002028100840E8
S315000071702410084454100844040008441800084029
S3150000718040300840A0000840541F0021581F00212D
S3150000719000FEFFFF0C1F0021501F0021521F00217F
S315000071A0C9B2FFF72ABF00B962B67047EFF3108085
S315000071B072B67047F8B50F46144647F6FF718C4213
S315000071C001D1FF20F2BD2D4E716800291CBFB168A8
S315000071D0002901D0F16811B92A21FAF77BFB38465C
S315000071E00BF08EFF012F01460BD10622F16831F913
S315000071F012108C4203DA521E12B2002AF6D1501C2B
S3150000720039E0B1F90000A042B8BF044603DB1C48D0
S315000072108442B8BF0446A4F1C800282290FBF2F0CD
S3150000722042423078034612B25D1E9542BCBF421EF2
S3150000723012B24D6805EBC2004668B0F9020010FBB9
S31500007240046000284FBF002000F5FA704FF47A76EC
S31500007250B0FBF6F0521C12B29A4203DA35F83260ED
S315000072608642E6D205EBC20131F8081C814238BFDE
S31500007270084600B90120C0B2F2BD00BF1C7500204F
S31500007280C880FFFFD0B5274E0F46716800291CBF86
S31500007290B1680029144601D0F16811B92A21FAF71C
S315000072A019FB012F0BD1082CA8BF072401DA2000F7
S315000072B000D0641EF068E4B230F91400D0BD20009E
S315000072C001D11948D0BD38460BF01AFF022C41688F
S315000072D002DAB0F90200D0BD002F0CBFFC22F82262
S315000072E0944202DBB0F90000D0BD3078401EC0B237
S315000072F0002200E0521C824201EBC20302DA1E8920
S31500007300A642F7D24FF47A715A68B3F9020011FB1C
S3150000731004F1891A00EBD07201EB620191FBF0F0E7
S3150000732000B2D0BD1C7500200CFEFFFF002806D55C
S315000073300B4900F00F00084410F8040C01E009495D
S31500007340085C400970470849420951F8221000F0CC
S315000073501F00C14001F0010080F0010070470000ED
S3150000736018ED00E000E400E000E100E0012100F09B
S315000073701F0291401F4A04E0012100F01F029140C4
S315000073801D4A400942F82010704780B51220FFF7C9
S31500007390F3FF1220FFF7EAFF0A20FFF7EDFFBDE833
S315000073A002400A20E2E738B504460D46FBF7A0FB8B
S315000073B0124941F82450BDE83240FBF7D6BB38B538
S315000073C004460E4D0CE094FAA4F0B0FA80F00121C8
S315000073D081408C4355F820100A001CBFC0B2884774
S315000073E0002CF0D131BD0649C8680A68104045F244
S315000073F0555210E000E100E080E200E02864002041
S315000074001CA40040004901E01CA40040C8680A68AA
S3150000741010404AF6AA2210408860D0E728B90348EF
S31500007420016003480068FAF755BA70479C5F002070
S315000074303C5F0020012100F01F029140504A4009A4
S3150000744042F82010704730B50FF26C104D4D0FC842
S3150000745087B003AC84E80F006846002100220023B1
S315000074600EC002208DF8060001214748474CFCF764
S31500007470ABF94FF6FF70E0616A46002120460BF03B
S31500007480A5FE00208DF80E0003A920460BF052FE43
S315000074903F48FCF7C9F99DF80E1001228A40491CA5
S315000074A08DF80E10B0FBF2F0C9B20B29686002D25B
S315000074B038498842E8D23848FCF7B6F937496A684D
S315000074C0B1FBF0F336480021E3FB0201354A002305
S315000074D00BF0B2FEA86000202870A06920F0100012
S315000074E0A0610B20FFF7A6FF2F494FF4006008604C
S315000074F007B0002030BD38B500F01BF804460D4635
S3150000750005E04FF6E85000F02AF800F00CF80021EC
S315000075108D424FF6E950F4D88442F2D2A0B200F080
S315000075201EF8002032BD21484FF0FF3124184D418E
S31500007530704714491A4A49680023E0FB01231046A4
S315000075401946184A00230BF077BE19480168C90688
S3150000755004D51021816001200A4908707047010096
S3150000756081B00BD013490A6892B20B68ADF80030AF
S31500007570BDF800309B1A9BB28342F6D301B0704728
S3150000758080E200E0886200200002040000800140E2
S315000075904041050081841E005000020000B0710BBE
S315000075A020A1070040420F0000E100E01802FFFFA3
S315000075B00C80014024800140010000000000000012
S315000075C0000000000000000010B52F4C01202070C4
S315000075D082B0002006F02CFC38B1002006F028FC12
S315000075E018B100202070492016BD02237F220021F9
S315000075F0684600F00BF8BDF80000B0F57F7F03D0B9
S3150000760000202070072016BD002016BD10B5FF29EA
S3150000761007DC1D4C247844B1BDE81040C9B206F021
S31500007620BBB8BDE81040FBF769BD10BD2DE9F041C0
S315000076300546FF2D0E461746984615DC124C207857
S31500007640C0B1607828B14FF4CE710FF24000F9F75F
S3150000765063F801206070434632463946E8B206F0C8
S3150000766009FA0020607005E042463946BDE8F0415F
S31500007670FBF767BDBDE8F08103490978002918BF0B
S3150000768006F0F9BA70470000D17C0020746F6B6574
S315000076906E2E6300012100F01F029140DFF8C02228
S315000076A0400942F82010704770B50546FBF720FAEE
S315000076B0002600242821DFF8AC2201FB06F3134440
S315000076C09B7F13B1761C042EF7DB042E08BFDFF870
S315000076D0984208D02DB17143114401238B772E6057
S315000076E001E0DFF88842FBF740FA204670BD38B566
S315000076F0DFF87C42A07808B1002032BD0120A070DE
S315000077000121DFF87002DFF87052FCF75DF8032103
S31500007710DFF86802FCF7B0F9032028710121DFF8D1
S315000077206002FCF751F828460BF015FE05F10C0136
S3150000773001200BF0F9FDDFF84C52E869C00AC002DF
S31500007740E86140F2FF70A861002028601F20FFF763
S31500007750A1FFDFF834124FF000400860A021E8696D
S3150000776040F00100E861DFF8FC0102F0A9F9002011
S3150000777020706070A060E060206132BD30B50023EB
S315000077807B488049C4680A68C0688442F8D1981862
S3150000779044EB030130BD30B54FF4FA5200F004F863
S315000077A0C00B40EA414030BDA2FB004502FB01553B
S315000077B014F5804045F1000170472DE9F041FBF7D3
S315000077C097F9704D6A4F8046E869296900EA010613
S315000077D026F00500A861700717D5012038702C68BF
S315000077E000F01FF8201A00F022F800F074F8204686
S315000077F000F081F82C68E86C797821B17968401A34
S31500007800611A8842ECD300203870F00704D50120B5
S31500007810A861F868401CF8604046BDE8F041FBF7F7
S31500007820A4B9E86920F00400E861786870472DE99A
S31500007830F04300260446002528214A48714347188C
S31500007840387F7D77002841D0D7E900018D4207D8DF
S3150000785028BF844204D2001BA941C7E9000135E0D4
S31500007860F87F08B938772DE0D7E90001D7E9022378
S31500007870201AD7E9028965EB01010BF0DDFCB8EBB4
S31500007880020069EB0301C7E900013869396901287B
S31500007890786909DB0818F428786113D3D7E9000161
S315000078A0401C61F1FF3108E0401AF428786109D3E1
S315000078B0D7E90001401E61F10001C7E900017869BE
S315000078C0F4387861B86908B101207877761C042EFF
S315000078D0B2DBBDE8F08310B50024282121486143BE
S315000078E04218507F18B1116A926920469047641C6D
S315000078F0042CF2DB10BDF0B54FF0FF321346002129
S31500007900184C28254D436619367F46B12544D5E9DE
S3150000791000679F4203D82EBF964232463B46491C1B
S315000079200429EEDB00244FF0FF36B34208BFB24213
S315000079300F4912D00025AB426FF0640401D8A24271
S3150000794000D32246114B486004241C60101858636B
S315000079500124586840F0040058604C70F0BD0000E7
S3150000796080E200E0A8600020011000F0041000F0A2
S315000079707462002000050800885A002005002000D7
S31500007980800912000820044000E100E020200440A5
S315000079902F280ADA1C4A32F81030C918B1F5803F90
S315000079A028BF4FF6FF7122F81010704710B5044635
S315000079B02F2C04DB23210FF25400F8F7ADFE1248FA
S315000079C030F8140010BD2F2803DA0F4A002122F8E0
S315000079D01010704738B50146FF290B4C09D1002518
S315000079E034F81510E8B20BF095FE6D1C2F2DF7DB61
S315000079F031BD34F81110BDE834400BF08BBE5E2269
S31500007A0000210148FEF762B888720020636F756E28
S31500007A10746572732E63000010B5DFF8804304F1BD
S31500007A200800FCF7D1FD04F10A00FCF7CDFD04F1D6
S31500007A300C00FCF7C9FDBDE81040DFF86403FCF755
S31500007A40C3BD10B5DFF85423DFF8583314781B781C
S31500007A50234306D1DFF850331B780C2B03D00229C1
S31500007A6006D0002010BD012908BF02F10C0301D089
S31500007A7002F10A0301460022184606F068FC0DF0E2
S31500007A8081F8012010BDDFF81403417919B90121ED
S31500007A9041710DF077B87047DFF80803007800B140
S31500007AA0704710B50DF02AFADFF8F042208128B9A8
S31500007AB0002104F10A0006F07BFC2081208928B908
S31500007AC0002104F10C0006F073FC208120890028B7
S31500007AD004BF207800280ED16079022803D00DF06B
S31500007AE044FC208138B9607928B10DF0E4FD20818D
S31500007AF008B10020607110BDA8488079704780B534
S31500007B00A0F10B01102901D3002002BDA349887101
S31500007B10042000F02AF8012002BD00009F480178E9
S31500007B20491E00220329027000D9704780B5DFE89C
S31500007B3001F002060A0EBDE801400DF0A9BEBDE83F
S31500007B4001400DF0F7BEBDE8014001F0EABC8079C6
S31500007B50F8F7F7FF20B1F4210FF26820F8F7DCFD03
S31500007B60BDE801400DF00EB801BD38B504460DF074
S31500007B7099FA8A4D687940B10020687101F011FBCD
S31500007B80032804BF40200FF0E9FD287808B1002043
S31500007B9032BD86480078052808BF0DF094F82C7091
S31500007BA000F007F818B1FFF7B9FF012032BD022037
S31500007BB032BD38B5FAF79CFF0446784D05F10A0048
S31500007BC006F0A8FBA0B105F10C0006F0A3FB78B106
S31500007BD076486979007808430AD10DF0DFF838B99C
S31500007BE0734811F0A9F900F0010080F0010500E0EA
S31500007BF000252046FAF7B9FF284632BD10B56B4975
S31500007C00664C00200870208120706081A081FDF7FD
S31500007C1087F911F01AFB607011F017FBA070644829
S31500007C2011F07EFA634811F07BFA4FF4A0516248D6
S31500007C3011F036FB00206071BDE810400DF0B5B8BC
S31500007C402DE9F04104465D48544E0578308928B93F
S31500007C5040F28F110FF26C10F8F75EFD281FDFF867
S31500007C605081524F0ED0801E012814D8052038703E
S31500007C70214628460DF0C1FF08B900F018F800208B
S31500007C8030810BE0312C05D03878022803D1200052
S31500007C9001D10120F070347100F009F8042D04D0F0
S31500007CA07079012804BF02207071BDE8F0810320BD
S31500007CB038700021404611F0E3B938B5374D2979BF
S31500007CC004460DF074F928B929792046BDE83440F8
S31500007CD005F0FDB831BD2DE9F8430446FCF711FF68
S31500007CE0471D05212046FDF771F90546384611F076
S31500007CF07DFB05F44C483E5C280701D5042E4AD18D
S31500007D002F4806704FF4406005424FF6FF7906D0C3
S31500007D10F81CFCF77FFA484508BF48F0400805F410
S31500007D204060B0F5006F06D1781DFCF773FA484540
S31500007D3008BF48F01008012E4CF6500015D0022E50
S31500007D4016D0032E0ED0042E08D0062E21D0072ED4
S31500007D5008D0082E15D07C2E0ED01CE020460DF043
S31500007D6089F8C0B90020BDE8F283B8F5484FF9D0CC
S31500007D70B8F54C4F0FD1F5E7B8F54C4FF2D080452A
S31500007D80F8E74CF64040804505D1074800780728BB
S31500007D90F0E78045E6D00120E5E70000B07D002051
S31500007DA00C7A002056610020185F0020E67D002036
S31500007DB0945E00201C5F0020287A0020F45F0020DB
S31500007DC0F47D00206D61632D617262697465722EA7
S31500007DD06300000010B53F4A014652F821301C00EE
S31500007DE005D0002442F82140BDE81040184710BDD8
S31500007DF00020EFE72DE9F84304460E46300015460D
S31500007E0003D111F017FB281831E02746022F0FF295
S31500007E10D40802DB4B2100F050F8DFF8B89059F88F
S31500007E20270010B14C2100F048F8B5F1004F02D3FD
S31500007E304D2100F042F849F82760200002D0502179
S31500007E4000F03BF8244E254B306801222946FAF70C
S31500007E506EF938B111F0EEFA05462046FFF7BAFF83
S31500007E60681E04E03068BDE8F243FAF76BB9BDE876
S31500007E70F2832DE9F04105462F46022F0E460FF2FA
S31500007E80640802DB5D2100F018F8FAF731FE0446BB
S31500007E90104850F82710B1420AD1002140F82710A7
S31500007EA015B1642100F009F80B480068FAF74EF99D
S31500007EB02046BDE8F041FAF758BE4046F8F72CBC1C
S31500007EC00CF0EEBE010008BF0120020104490020AB
S31500007ED090E700003C7A002068610020F17D0000F8
S31500007EE0C17E000073796D626F6C2D74696D657269
S31500007EF02E6300000020704700B102207047012069
S31500007F007047000010B50FF2F0000FC89EB010AC1D
S31500007F1084E80F0010A800F092FA01A80FF2C4013D
S31500007F201422FAF779FB69466846FAF7C5FD18B1D7
S31500007F30BDF80000ADF80A0001A8FBF76DFE00F0E1
S31500007F404BF8214806F021F800F046F804211120EC
S31500007F50FBF792FD002200210320FBF7A9FE032177
S31500007F601A48FBF789FD03211948FBF785FD032114
S31500007F701848FBF781FD01A80FF28C011422FAF7CD
S31500007F804BFB01A80BF02CF814A80FF29001242249
S31500007F90FAF742FB06A814A92422FAF73DFB1020A3
S31500007FA0ADF83C00ADF83E0006A92020FDF7ECFA3E
S31500007FB038B901230422052106F072F8F9F72EFEDE
S31500007FC000201EB010BD000000F0490202001A0099
S31500007FD003001C0005002000012201210220FBF7FE
S31500007FE067BE000000000000A00068010A20070626
S31500007FF0020A040700000000000108070F000A003B
S31500008000C8002000A000010002000000006A18005D
S3150000801006010C00000006010D00000000000140F2
S3150000802000C2010000000010000000000000000077
S31500008030000000000000000000000000000000003A
S31500008040012100F01F029140624A400942F82010C7
S31500008050704700BF38B5604CE068216808405F494A
S315000080600AD5C86A0568290003D000F015F8002172
S31500008070A8474FF000400BE040000AD5886A056823
S31500008080290003D000F008F80121A8474FF08040EE
S31500008090A060BDE831400CE00021C0E900118CE091
S315000080A04F484FF040410160416821F04041416036
S315000080B07047F0B54948826A002150F8313043B123
S315000080C0146800EBC1031CB114791D79AC4200D2CF
S315000080D01A46491C0529F0DB8262136841495BB1E7
S315000080E00B681B0A1B020B600B6812791A430A60A5
S315000080F04A6942F0804202E04A6922F080424A61BF
S315000081000022C36A384C54F8325045B11E6804EB5D
S31500008110C2051EB12E791F79BE4200D22B46521CD3
S31500008120052AF0DBC3621A6862B10A6822F47F424C
S315000081300A600A68187942EA00200860486940F037
S31500008140004002E0486920F000404861F0BD10B5EB
S315000081502649224C012008702821204601F0B0FC57
S3150000816000F027F804F13800A062E06220480168B8
S31500008170406DC1F3074100F0FF00FF2912BFFF2841
S315000081801921902001EB810200EBD2022263C0008C
S315000081900522B0FBF2F040186063FFF781FF002074
S315000081A0FFF74EFF134901200860FFF782FF00200A
S315000081B010BD28210C4801F083BC0F480749006810
S315000081C0496B0006400D052290FBF2F0081A00F3F9
S315000081D00700704780E200E024300E40686400200B
S315000081E02C300E401C300E40A8640020D47D0020A8
S315000081F0B081E00F00E100E020300E40890001EB85
S31500008200401000F1844002607047890001EB401085
S3150000821000F184400068704712212846F5E738B51A
S315000082200C46DFF830150D6828B905F090FEC5F349
S315000082300421491C4843DFF82015097831B1DFF8DD
S315000082401C15884202D22146022001E02146002068
S31500008250BDE83440F8B50446DFF8F804DFF8EC74FE
S3150000826000680D4605F073FE064612213846FFF7F4
S31500008270CCFF0028F9D13868000C00F00300A042BA
S31500008280214615D0022C04BF3046FBF73DFA1020DC
S31500008290C4F102018840F8601CB900213046FBF7A2
S315000082A033FA2DB112213846FFF7AFFF0028F9D176
S315000082B0F1BD70B5DFF898148A690378920903B1A5
S315000082C00423447804B10224857805B10825C678CC
S315000082D0012E18BF002643EA821222432A4303795D
S315000082E032431A438A610A68407922F4403242EAEC
S315000082F00040086070BD0000DFF8640400680329D0
S3150000830020D8DFE801F00205080B00F0FF0006E0C8
S31500008310C0F3072003E0C0F3074000E0000E1100A1
S315000083200AD1000330F470410CD1DFF838140B6821
S3150000833023F4704303430B60012A0CD1000330F48D
S31500008340704101D000207047DFF81C140A6822F43F
S315000083507042104308600120704770B50025002464
S3150000836052EA0322DFF8046416D0521E0CD0FF3AFC
S3150000837014D0521E0AD0FF3A12D0521E08D0FF3A2D
S3150000838014D0521E06D015E0B2680AE0B2680EE0BC
S31500008390F26806E0F2680AE0326802E0326806E057
S315000083A07268C2F3072402F0FF0503E07268140E38
S315000083B0C2F3074505600C6070BDF8B50446DFF8EA
S315000083C0B053686AC007FCD4DFF8A863F06910F000
S315000083D0030704D001220D212846FFF70FFFA7420D
S315000083E002D12CBB00221EE0032F18BF002F0FD195
S315000083F0022C18BF012C0BD14FF40020B06000F006
S3150000840018F8800040F00100F06130680003FCD5E8
S3150000841000F00FF844EA8000F061686AC007FCD4F7
S31500008420220018BF01222846BDE8F8400D21E5E6E6
S31500008430F1BD686AC007FCD4F0698008704770B562
S315000084400446E0884B2838BF00200DD3B0F5FA7FEC
S3150000845038BF4FF0805007D340F6C411884234BF6E
S315000084604FF000504FF04050DFF81053DFF8103354
S315000084702969B4F90C20DFF80C631940D24308438C
S3150000848040EAD2702861DFF8E002016841F44071E9
S3150000849001600021306A40F0807030623046FFF79C
S315000084A0B4FE00B1042000F041F9DFF8CC122089B7
S315000084B00880A0898880A088488000F0D0F8A07B3A
S315000084C020B1012805D1DFF8C00201E0DFF8BC02C7
S315000084D0F06060880122012100F013F880B128685D
S315000084E040F4806028606078FFF767FFA07A202854
S315000084F00CBF0122002205212846FFF77FFE01203E
S3150000850070BD2DE9F04F89B004468846934605A80C
S315000085100021002200230EC002A80EC0A4F5E160CF
S31500008520B0F5966F00F28880B4F5E16FDFF860026F
S315000085304FF4966A02AF05AD0BD94FF4E161019194
S315000085404FF001090068A860010EB960C0F307404A
S315000085500BE08946CDF804A04FF4167A0068A860AF
S31500008560C0F30721B96000F0FF00A8604A46DFF8B3
S3150000857014623068000F00F003008DF80100034616
S3150000858002A905A8FFF7E9FEDFF8DC010068000A8A
S3150000859000F003008DF8000003464A4603A906A82A
S315000085A0FFF7DBFE019AA868B9686D68D7F804E0A2
S315000085B0DDF814C0A31A0A1AAEEB05075A43029C4B
S315000085C0B2FBFAF28218A4EB0C045C437B43B3FBC8
S315000085D0FAF3EF189142B4FBFAF428BF82426444DE
S315000085E02AD3BE4528BFAF4226D30298A04224BF55
S315000085F00598844220D3BBF1000F0CD03069494660
S31500008600B9F1000F18BF0221DFF88831184040EA9F
S31500008610022008433061B8F1000F1CD09DF801100C
S3150000862000224846FFF768FE30B19DF8001001228F
S315000086304846FFF761FE08B900200DE0A74228BFB3
S315000086403C46E72CB06928BFE724400A49EA4401C2
S3150000865041EA4020B061012009B0BDE8F08F10B5B5
S31500008660DFF820114B6A0C68E4074FF0FF3203F085
S31500008670070325D5022B23D3142828D3143814280E
S3150000868032D30F22086820F47F4040EA022040EAF5
S31500008690023008600868C0F303223748038803F1F4
S315000086A02804521C03EB5403283302EB8204B3FB69
S315000086B0F4F35B1E072B34BF1B064FF0E06315E097
S315000086C00C68E40709D4022B07D20A2801D2032238
S315000086D0D8E70A380A2807D3D3E70C68E407D1D5C8
S315000086E0022BCFD22828CCD20722CBE70C6824F065
S315000086F0EE64234343F480130B60B0F904000028B2
S3150000870013D480B200F1280300EB5300530828303D
S3150000871003EB4202B0FBF2F04A68072834BF0001BF
S31500008720702022F070021043486010BD38B5044630
S31500008730144D0021FFF771FD686AC00844EAC000C5
S315000087406862BDE832400C48408888E704300E4035
S3150000875000300E4000410E4070620020002D3101B5
S315000087603083E00F6C300E40EC300E401C83E00F7F
S3150000877054300E4024300E40226200203C300E4021
S31500008780FEFFFFCF4C300E40372110B77740205701
S315000087901883E00FFD80FFFF04480168090C0904F7
S315000087A081600148016070476C6200201CA4004093
S315000087B00549027B0A7002684A6042688A608068DE
S315000087C0C8600020704700BF1C75002038B5FBF755
S315000087D0C4FB0446FBF7BDFB0020002124FA01F28E
S315000087E0D20713D50FF284001D4C30F8110006286D
S315000087F04CF23C324FF20F031DD16088984216D1DD
S315000088002188080A0C2812DA084612E0491C89B2A7
S315000088101129E3D31349088140F201720889904275
S3150000882004D11148D0E90023C1E9002331BD4FF43A
S31500008830C0606280EEE740F20725A84201BF61886A
S3150000884099422188A942E5D162800846E2E70548B7
S315000088500089000A7047034800897047014870473D
S31500008860000000201862002094000020010400008F
S31500008870050B060B070B00000000000001030109B1
S3150000888006000105000000000000000003060000CD
S3150000889001207047802108F0CEB980B50FF288110B
S315000088A0F9F7F1FE002002BD10B504460FF2701074
S315000088B0008886B00023ADF80C00002203A80290C1
S315000088C00021022001900020009000F01DF8010018
S315000088D009D103A80290002304200190002202205F
S315000088E0009000F010F801000BD104A80021C0E9A7
S315000088F0001102900091082001900023012200F04F
S3150000890002F806B010BD0121204608F0ADB900B549
S3150000891085B000F012F8022101910021009108E0D3
S3150000892000B585B000F009F80421019102210091FB
S31500008930012108F099F905B000BD531C8DF80C1003
S31500008940DBB20904090E8DF80D10002203A902916D
S315000089507047E0B50291531C08210191DBB200215A
S3150000896000910122012108F07FF90EBD80B5C9B240
S31500008970002914BF4FF4803200224FF4803108E002
S3150000898080B5C9B2002914BF4FF0807200224FF0A3
S31500008990807108F035F9002002BD1206C9B2120A2C
S315000089A042EA01611B06DA0902F4F01280B51143AE
S315000089B041F0B0020F49ECE710B5FFF769FF02245A
S315000089C0A8B10D480068000E00F00F0002281CBF79
S315000089D0032807280BD10948094904600968890357
S315000089E002D4102181600024064902200860204636
S315000089F010BD0000B8011F01044008408840084629
S31500008A00884008408840084480B50FF2180109786C
S31500008A108DF8001001226946FDF7F6FF02BD000041
S31500008A20FFFF000005000000D8C20300E8C40300F1
S31500008A3020C2030001000000DFF800F0C559002045
S31500008A40DFF800F04F590020DFF800F0C159002090
S31500008A5038B504460D4610F0EFFC012C02D1FFF7A5
S31500008A60EBFF02E02846FFF7EBFF18B110F0F0FC31
S31500008A70012032BD10F0ECFC002032BD10B5C2075B
S31500008A8082B01BD402884FF6FF739A4201D00A00C7
S31500008A9014D18408A400800722684EBFC2EA0140B0
S31500008AA0100C41EA0040009010F0C6FC0422694612
S31500008AB02046FFF7C9FF18B110F0CAFC012016BD09
S31500008AC010F0C6FC002016BD70B504460D461646CD
S31500008AD004E010F0BDFC241D2D1DB61EB6B1012EFE
S31500008AE001D0A00706D535F8021B2046FFF7C6FFC2
S31500008AF0A41C761E022EF1D310F09EFC04222946F9
S31500008B002046FFF7A1FF0028E3D001E0002070BD5A
S31500008B1010F09EFC012070BD70470020704710F0D9
S31500008B20BDBC01207047704780B50FF24C10FBF7B3
S31500008B30F8FCFEF771FF0FF24C10FBF7F2FC0CF09D
S31500008B4029F90FF25010FBF7ECFC10F0F1FE0FF2D2
S31500008B505010FBF7E6FC11F02FF8A1A0FBF7E1FCA3
S31500008B6011F040FC0FF24C10FBF7DBFCDFF8700A4B
S31500008B70FBF72AFD0FF24C10FBF7D3FCFFF7CCFFF7
S31500008B800FF24810FBF7CDFC0DF02CFF0FF248104A
S31500008B90FBF7C7FCDFF84C0AFBF716FD0FF24C108B
S31500008BA0FBF7BFFCDFF8400AFBF70EFD0FF24C1097
S31500008BB0FBF7B7FCDFF8340AFBF706FD0FF254109B
S31500008BC0FBF7AFFCDFF8740AFBF7FEFC0FF25C1054
S31500008BD0FBF7A7FCDFF8680AFBF7F6FC0FF260105C
S31500008BE0FBF79FFCDFF85C0AFBF7EEFC0FF2681060
S31500008BF0FBF797FCDFF8500AFBF7E6FC0FF26C1068
S31500008C00FBF78FFCDFF8440A10F026FA0FF270101B
S31500008C10FBF787FC12F03CFA0FF26C10FBF781FCB5
S31500008C2012F07DFD0FF26810FBF77BFCDFF86C0A93
S31500008C30FBF7CAFCDFF8680AFBF7C6FC0FF2601008
S31500008C40FBF76FFCDFF85C0AFBF7BEFC0FF2701057
S31500008C50FBF767FC12F003FE0FF27010FBF761FCE6
S31500008C60DFF8440AFBF7B0FCDFF8BC0AFBF7ACFC04
S31500008C70BDE80140FBF759BC4D4143206172626972
S31500008C80746572004D414320696E64697265637450
S31500008C90000000007265747279207461626C650070
S31500008CA0364C6F5750414E20667261676D656E7423
S31500008CB0730000006D756C74696361737420746170
S31500008CC0626C650077616B65757000006170706C31
S31500008CD069636174696F6E00666F726D2D656E658E
S31500008CE07267792D7363616E000000006E6574779C
S31500008CF06F726B206461746100000000736C6565BF
S31500008D0070792062726F6164636173742068656153
S31500008D1064657200676C6F62616C20616464726581
S31500008D207373207461626C65000000006C6F636190
S31500008D306C20736572766572206461746100000050
S31500008D40626F7264657220726F75746572204E442C
S31500008D5020646174610000006368696C642061646A
S31500008D606472657373207461626C65007374616309
S31500008D706B206576656E74207175657565000000FB
S31500008D80436F4150000000004A50616B65000000CF
S31500008D90436F6D6D697373696F6E696E670000006E
S31500008DA07363616E20726573756C747320666F727F
S31500008DB020636F6D6D697373696F6E657200000075
S31500008DC044544C53204A6F696E0000006C6F6F70FC
S31500008DD06261636B206D6573736167657300000084
S31500008DE05544500070B5DFF8F4470546E0882A067A
S31500008DF001D4062D04D140F0040005F07F0503E000
S31500008E0011B94FF6FB7108402E46022E1CBF032EE9
S31500008E10042EE08008D0052E0DD0062E18BF072E92
S31500008E2002D0F02100F07DF9A570A07804280CBFCF
S31500008E300120002001E00325F6E70BF084FFE0881F
S31500008E404FF6F4710840062E08BF40F0020004D029
S31500008E50022E14BF032E40F00800E08070BD10B54E
S31500008E60DFF8784706281CBFA178062901D0C1097A
S31500008E7010D000F0F7FC00F02BFD04F1080010F014
S31500008E8041F800F026F800F065FC0020BDE810402F
S31500008E900AF03CBB217803290FD1A179C9070ED46A
S31500008EA0032818BF04280AD100F0DCFC00F010FDEE
S31500008EB00121002014F0F5FDE7E7042907D100F0B1
S31500008EC0D1FC00F005FD012002F09EFCDDE77020DC
S31500008ED0DCE710B5F2B015F051F910F08EFD13F085
S31500008EE074F815F0AEFD10F0FAFA15F0ABFF15F0B8
S31500008EF0E7FF16F042FE16F0BAFE16F0C1FE17F0B6
S31500008F0050FD02F0E3FA0120F8F7A3F917F0FCFE92
S31500008F10FEF774FEFAF79CF8DFF8C0460020A07052
S31500008F204FF6FE70F8F7D6FA0020E08018F05DF8EC
S31500008F3018F0D7FA1AF084FB1BF072FE12F0E4FA6E
S31500008F4012F080FCBC237F22082142A8FEF75EFBBC
S31500008F5000F015F901A81BF0D2FBBDF854014FF63D
S31500008F60FF71884236D0BDF8040098BB082342AA98
S31500008F700E210DF1060018F07EFB102344AA0321F2
S31500008F8018F079FB082348AA022118F074FB08237D
S31500008F904AAA072118F06FFB10234CAA052118F0E6
S31500008FA06AFB1AF0C5FBBDF85421012118F044FBF9
S31500008FB0DFF8782A00211AF0B5FB032357AA00210F
S31500008FC018F059FB0DF10601401AADF8040001A88E
S31500008FD01BF00AFCBDF8040000281EBF9DF8020025
S31500008FE000280120002100F0E0F872B010BD38B56D
S31500008FF0DFF88C190FF2341400200880FBF729FAE9
S31500009000FBF70AF8DFF87C094168C90703D5006851
S3150000901010F0300F10D10FF2680529460020F8F73E
S31500009020A2FF29460120F8F79EFF2046BDE83440FE
S3150000903040F2AF11F7F770BBFEF7C6FA20B14FF456
S31500009040DA712046F7F768FBF8F721FE0FF24C00BD
S31500009050DFF8884510F08CF9607004F108000FF015
S3150000906044FFDFF8CC1900200860DFF8C819086053
S31500009070FFF7EDFB0DF0D8FABDE8314029E7000017
S31500009080537461636B2F4861726477617265204D1A
S3150000909069736D617463680D0A00000000000000CA
S315000090A00000000080B5FFF7A2FFBDE802400020E7
S315000090B01CF0D8BDDFF8781908607047DFF874191E
S315000090C008607047DFF874190860704710B5002013
S315000090D0F8F732FCDFF86809007818B10FF23000B3
S315000090E0FBF7AFFAF8F7C4FDF9F7F1FDFAF7D8F890
S315000090F003F06FF90BF0DAFFDFF83C4904F10800E2
S315000091000FF07CFF6078BDE8104010F059B9000000
S31500009110298B000000000000DFF81C09407810F0E1
S315000091204FB90FF20800F7F7F7BA000069702D7310
S315000091307461636B2E630000F8F7C2B9DFF8F818A4
S315000091408979890758BFF8F7A5B97047F8F7BCB908
S31500009150F8F7C0B9F7F759BD38B50446F7F755FD26
S3150000916005460FF6241000F008F88DF8034000F0CD
S3150000917029FA28460AF04EFB31BD00680090042308
S315000091807F220C216846FEF741BA80B5F7F72EFD1F
S31500009190BDE802400AF030BBF7F724BDDFF8A408AB
S315000091A07047DFF894080078704770B50446DFF81A
S315000091B02C04067804700D46C188032C05D141F4B1
S315000091C00041C18002F03CF902E0C1F30E01C1800A
S315000091D0200004BF01200BF0B6FD2A46314620468A
S315000091E0BDE870400EF020BAF8B506465E220021B2
S315000091F0FCF76CFCDFF8E4532878012806F1280414
S3150000920021D0DFF844781022B91C3046FCF7FCFB6D
S3150000921006F1100016F00EFD06F1180016F024FDFA
S31500009220082207F1120106F12000FCF7EDFBF8F722
S315000092304BF92080F7F7D6FCA070A878E070F7F716
S31500009240D5FC20712CE01AF0C7F90746102207F169
S3150000925014013046FCF7D8FB082207F1240106F179
S315000092602000FCF7D1FB082207F12C0106F11000C3
S31500009270FCF7CAFB07F158000423018821807F22EE
S31500009280807AA0700C210FF60400006800906846F2
S31500009290FEF7BCF99DF8030020719DF80200E0700E
S315000092A0A878032804D1A87900075CBF0520E070E0
S315000092B0F1BD2DE9F041044620000D4604D12846B3
S315000092C0BDE8F0411CF05BBD012C04D1DFF87C0742
S315000092D01CF067FD20E0022C20DBD84E0021304632
S315000092E005F02DF8022704E04146304605F056F811
S315000092F07F1C80465FEA080010D0FBF702FC0028BE
S315000093001CBF016A0029EFD0F9B2A142ECD1811C41
S3150000931010222846FCF778FB012000E00020BDE87B
S31500009320F0812DE9FF4104460F46C44D0021284631
S3150000933005F005F81DE0FBF7E4FB060015D03078D4
S31500009340800612D5002C18BF002F07D03B462246B8
S315000093503946B01CFAF7FEFFB84206D13388326AA6
S31500009360F169DBB2B01C0AF0C0FF4146284605F0A1
S3150000937015F880465FEA0800DDD10FF214700FC8B9
S315000093806C4684E80F0000230022002168460AF09C
S31500009390ACFFBDE8FF813EB5A84C0021204604F095
S315000093A0CEFF15E0FBF7ADFB70B10178C9070BD511
S315000093B0016A0291821CC16901910021009101217B
S315000093C0837C00200AF070FF2946204604F0E6FF61
S315000093D005462800E6D10020029001900090002367
S315000093E0002200210AF060FF37BD2DE9F04F8BB057
S315000093F00446112200216846FCF768FB0026DFF8C8
S315000094005086DFF85076DFF8509646E000220821B5
S315000094105046FAF765FF002854D10822514668469F
S31500009420FCF7F2FA202EB4BF022006208DF80800C1
S315000094303868584490F911105F398DF80910007D8D
S3150000944010F00F008DF80B000EBFFF209AF81300E6
S315000094501CF0CCFF8DF80A0030461DF022FA8DF87C
S315000094600C0030461DF014FA8DF80D009AF8150020
S31500009470C0098DF80E00FF2C38685844407D00F076
S3150000948007008DF80F009AF816008DF8100019D114
S31500009490694630460AF0B1F8EEB299F80000751C3C
S315000094A0864214DAFF2C18BFB442F5D1182010FBFF
S315000094B006FB386800EB0B0A98F800008642ACDB26
S315000094C0202EA3DAFF2CE7D06946304607E005A830
S315000094D0142100F0F5FAFF2C03D105A9E8B20AF031
S315000094E08CF80BB0BDE8F08FAA210170BB2141704A
S315000094F0CC218170DD21C1707047DFF860150A78D4
S3150000950082421CBF087005F099B8704710B5044632
S315000095101CF0EDFF20B92046BDE8104016F0CFB88C
S3150000952010BD00B5F7B04FF48172002135A8FCF7E5
S31500009530CDFA35A81BF058F935A81BF057F9BC220F
S31500009540002106A8FCF7C2FA4FF6FF70ADF86400DA
S31500009550BC2306AA7F210820FEF768F80422002112
S315000095606846FCF7B3FA00F02DF80822002104A89B
S31500009570FCF7ACFA082304AA7F210520FEF756F86B
S315000095800822002102A8FCF7A1FA082302AA7F21DB
S315000095900720FEF74BF815F0A9FA15F0E5FF0020B5
S315000095A08DF80400042301AA7F210320FEF73EF86C
S315000095B026480FF0A7FCFFF78CFC00200DF035F8CD
S315000095C077B000BD04236A467F210C20FEF72EB833
S315000095D00021DFF88C040FF053BD0000B87900209D
S315000095E01E7D0020DC760020FE750020CC7D00204C
S315000095F038B5DFF86C54DFF86C4428460FF090FD60
S31500009600DFF8640400780C2810D02068142804D1F0
S3150000961001200DF00AF8002006E04FF4FA71284602
S315000096200FF02EFD2068401C206031BD0020206018
S315000096300320BDE83240FEF798BA0000F279002018
S31500009640A67D0020A87D0020167D0020C079002080
S31500009650F9F7A9BB38B503460846154600241BB1E1
S31500009660022B0DD003D314E0DFF8001401E0DFF87D
S315000096700014098808237F22F9F740FD082006E038
S31500009680DFF8F01309887F22F9F738FD02202870E9
S3150000969001E02C707024204632BD00008475002045
S315000096A0147D0020CC7500201A7D002010B584B0F2
S315000096B000F03CF89DF80030014601AA20460AF069
S315000096C077FE1FBDFEB50E46174600F02FF80500C3
S315000096D025D19DF80000874218BF02251FD10146FB
S315000096E0FF2201A8FAF7FCFD08B9462517E01CB1D0
S315000096F0022C0BD005D311E008223146DFF86C03AB
S3150000970008E008223146DFF8680303E0022231460A
S31500009710DFF860030088F9F714FD00E0702529469C
S3150000972020460AF081FEF7BDCE7D002004466A463B
S3150000973001A98FE780B5F9F7BAF9BDE80440002121
S315000097400AF088BE80B5F9F791F9BDE8024000201D
S315000097500AF089BE70B5B84C2078032888B07CD052
S31500009760012803BFC04800780C28702076D1082352
S315000097707F22052105A8FDF749FF05A81CF074FA0C
S3150000978008237F22072103A8FDF740FF082203A92B
S31500009790B948FCF739F908237F22062101A8FDF70D
S315000097A035FF01A8F9F755FC19F073FF19F014FFFE
S315000097B0054605F15806B07AFEF7A1F93088F7F7A5
S315000097C089FE05F11400FAF7A5FDC1B205F11400F2
S315000097D001F062FE05F1240001F02CFE05F12C00DB
S315000097E016F054FD0FF2B820FFF7C7FCBDF80000D5
S315000097F0FFF7A4FC9DF90300F7F707FA9DF80200AE
S3150000980000F030F816F003FA15F07AF901F0FBF9DA
S31500009810A078062809D100210320FFF7C6FC012203
S315000098200021002013F0DAFF17E0F7F749FE800564
S3150000983002D102F0B5FB10E0A078032818BF042877
S3150000984004D0022805D1A079C00702D402F0EFFBAC
S3150000985003E040F28151FFF764FC002009F044FE6A
S3150000986008B070BD0021FFF7BDBA80B51BF07FFAC6
S3150000987017F037FE17F046FE6F488078062803D0AB
S31500009880BDE8014014F00DBD01BD80B56A48017800
S31500009890032905D1794909884FF6FF72914201D112
S315000098A093200BE08078042818BF702006D17448F6
S315000098B00078042818BF052804D13D20BDE80240E1
S315000098C00DF04CBF15F0E1FABDE80140FEF7DBB83C
S315000098D000B59FB007A8602100F0F2F807A8FFF7CF
S315000098E083FC0FF2C010006800909DF848008DF8C8
S315000098F00300F7F7E5FDADF800006A464E488078AC
S31500009900062818BF9DF847008DF8020004237F2122
S315000099100C20FDF78BFE0FF2901005A9D0E900236D
S31500009920CDE9052357481CF0E2F9082305AA7F2153
S315000099300520FDF77BFE0FF278104F49D0E9002392
S31500009940CDE9032303A80822FCF75EF8082303AA3F
S315000099507F210720FDF76AFE0FF25C103B49D0E934
S315000099600023CDE9012301A80822FCF74DF80823BE
S3150000997001AA7F210620FDF759FE1FB000BD000099
S3150000998046760020E881E00F80B5F8F7D4FDBDE803
S3150000999002400AF073BD80B5F8F7CAFDBDE8024083
S315000099A00AF077BD80B5F8F79CFDBDE802400AF0E5
S315000099B07ABD80B5F8F7BCFDBDE802400AF07EBD71
S315000099C080B5F8F7E0FCBDE802400AF07CBD80B542
S315000099D0FEF790FABDE80440014600200AF07EBD7D
S315000099E080B5FEF789FABDE802400AF080BD38B5B9
S315000099F0044600216000FBF79AF9010003D100221A
S31500009A00002118200DE0FBF77CF805462146F6F705
S31500009A108FFF18B122462946002002E000220021CD
S31500009A207020BDE838400AF06DBD000000F8FF0761
S31500009A30E479002014780020B8790020D07900203D
S31500009A40F75F0020987900200C760020A07900208E
S31500009A50567A0020E85A0020F15F0020EC7D0020B5
S31500009A60BC5E0020D4790020185F00205CC503008E
S31500009A7064C5030066C50300E8760020B25D0020D9
S31500009A80E67D00208C790020000000000000000028
S31500009A9000000000000000000000000000000000C0
S31500009AA000000000000000000000000000000000B0
S31500009AB000000000000000000000000000000000A0
S31500009AC000221DF0BFBB00002DE9F8430446FAF75B
S31500009AD0A1FB0546E01CFAF79DFB0646601DFAF75A
S31500009AE099FB804600274FF44060054208BF402797
S31500009AF04FF44C4005422ED0680658BF47F0200769
S31500009B004FF6FF794E4508BF47F0010705D0FFF72E
S31500009B101DFB864208BF47F0020705F44060B0F51A
S31500009B20006F03D0B0F5406F0CD014E0C84508BFF5
S31500009B3047F004070FD0FFF7FFFA80450BD147F037
S31500009B40080708E00822611DDFF87C08FBF7C5FF5F
S31500009B5008B947F010073846BDE8F2832DE9F04F03
S31500009B60ADB080461546FAF7CCFF0646701CFAF7EC
S31500009B7051FB8246701C0FF039FC3044441C611CBA
S31500009B800120FAF777FB814600271AF440407CD083
S31500009B90B0F5004F11D0B0F5404F08BFA4F108074B
S31500009BA000200090694620460FF03AFD040021D1BE
S31500009BB0384601F09EFD88B967E0A01EFAF72AFB39
S31500009BC0FFF7A4FC0700EBD1701C0FF042FE070064
S31500009BD0E6D101210E20FDF7DBFE56E0002E18BF70
S31500009BE0002F52D0034600F074F800284DD0012013
S31500009BF0287065E0082C19D10098C0B215F07EF8DF
S31500009C00054601A915F089F88346BBF1000F16D168
S31500009C1025A9284614F040FF002E1CBF002F00285F
S31500009C2033D000F1100300F054F82EE0102C2CD1A4
S31500009C304FF0FF35DFF89477DFF894B7E5E715F0D6
S31500009C407DF838B9002E18BF002F1ED000F040F85E
S31500009C5060B91AE0002E18BF002F16D03278711C9A
S31500009C6005A8FBF7D1FE00F033F870B1102C26D012
S31500009C70009BDBB24A4639464046FEF74EFF20B906
S31500009C804FF440401AEA000F01D1022018E000F01C
S31500009C901AF81CF011FF78B900F015F815F075FDEB
S31500009CA050B900F010F802F04BF928B901210F2045
S31500009CB0FDF76EFE042003E0284615F087F8012024
S31500009CC02DB0BDE8F08F00232A4639464846704736
S31500009CD05B463A463146701C0FF0C9BD2DE9F04F80
S31500009CE085B08046FAF70DFF0546681CFAF792FA2A
S31500009CF00646E8788DF8020006F00709F00800F03D
S31500009D00010A300A00F001008DF8030006F4405401
S31500009D1000208DF801004FF0000B681CFFF7D4FE01
S31500009D20074617F0440014BF052004200121FDF763
S31500009D302FFE15B12878801E28704FF6FF6000EAC6
S31500009D400601681CFAF76FFA681C04F072FCD0B1C1
S31500009D504FF0040B002405B12C784046FAF7E9FED3
S31500009D600646681CFAF756FA07465FEACB7040F1DA
S31500009D70EF8000F04DFB801E5FEA8B71C0B201D50B
S31500009D80801FC0B2E5E0BAF1000F0CBF002CB4F59D
S31500009D90805F13D14EF6F7600640DFF8380600788C
S31500009DA0012818BF03284FF6FF7408D0052818BFEE
S31500009DB0062804D0072806D00C282BD016E1B9F1C6
S31500009DC0000FFBD130E0B9F1030FF7D117F0030014
S31500009DD003D1FFF7BBF9A042F0D117F01C00EDD07C
S31500009DE09DF8030008B14BF0200BDFF8EC05007876
S31500009DF01AEA000FAED00DF1010239464046FFF7D0
S31500009E00ADFE022869D1B9F1000F64D1002D45D10C
S31500009E100024A2E75FEA090106D0B9F1010F0ED0CE
S31500009E20B9F1030FD2D0E1E00C2801D1B807FAD579
S31500009E30B6F5004FD4D0B6F5404FF4D1D0E70A2F8F
S31500009E401CBF062F122F25D1780758BF4FF0010BE4
S31500009E5010D5DFF888050088000404D5DFF88005F2
S31500009E600078042815D0DFF87C050078022810D089
S31500009E704FF0410B16F4404008D0B0F5004FAFD07C
S31500009E80B0F5404F05D14BF0020BA9E7BAF1000F30
S31500009E90A6D1ABE0252FA3D0322FCEE74046FAF766
S31500009EA048FE064695F800A000F0B2FA0746A6EB73
S31500009EB00A00221805EB0A00411CE81992B2401C60
S31500009EC0FBF7A2FDAAEB0700C0B22F70311A89B2C8
S31500009ED000F0B2F840E7B9F1030F30D100F098FA7C
S31500009EE02844461C30460FF094FB305C04282CD1E5
S31500009EF04046FAF71EFE002D824689D02F7800F0E4
S31500009F0087FA019030460FF084FB064601990198C6
S31500009F10AAEB01012844891B6218811992B2491CD7
S31500009F20401CFBF771FDB81B2870681CFAF772F924
S31500009F300146681DFAF777F9AAEB0601C7E710B9DB
S31500009F404BF0100B06E70128FCD00121102062E03F
S31500009F500220211AC91D8DF800108442A1BF611C80
S31500009F608E429DF800108E4240DB221A2844411C86
S31500009F7092B2E81DFBF748FD0DB185F800B004224A
S31500009F800021681CFBF7A2FD3946681DFAF74BF95C
S31500009F909DF8010018B10321404600F075FA681CCF
S31500009FA00BF09BFE18B10721404600F06DFAB9F19F
S31500009FB0010F39D15FEACB7013D502A940461DF0D7
S31500009FC06CFF70B1FFF7B8F80146BDF80C00884287
S31500009FD007D014F019F958B1BDF80C0015F06FFB55
S31500009FE030B9694640461DF062F908B900201EE006
S31500009FF000F020F8404600F0FCFAB0F5004F15D10D
S3150000A000404600F019FB9DF80210044614F01CFFB0
S3150000A01020B101211120FDF7BBFCE7E79DF80210F6
S3150000A020204614F026FF01E000F004F8012005B0F8
S3150000A030BDE8F08F9DF800104046FAF793BD2DE974
S3150000A040F64F85B082460521FAF7C0FF0446504612
S3150000A050FAF757FD0490C01D019000200599DFF81E
S3150000A0608853029008708346FFF770F8ADF8000039
S3150000A0708046DFF87813FF200870EF1C00F0C5F962
S3150000A08004280CBF4FF00109D94600F0BEF9062896
S3150000A0900CBF01260026E00900F0010080F0010057
S3150000A0A08DF80C004FF67F70044000F0AEF90528DD
S3150000A0B008BF4FF6FF7825D000F0A7F9032802D095
S3150000A0C056EA09001ED001215046FAF7C0FD834624
S3150000A0D0002201215046FAF7D1FDB9F1000F09D04F
S3150000A0E05846FAF70EFD4FF6FF7858B106990078F4
S3150000A0F0087007E036B15846FAF703FD10B1FAF7D3
S3150000A1008CF8804600F07EF9C0074AD500F07AF94F
S3150000A110800708D5082604F44060B0F5406F0CD0DF
S3150000A12040F20B3107E0022604F44060B0F5006F00
S3150000A13003D040F20F3100F061F94146281DFAF7CD
S3150000A14072F8A81D029032460199FBF75DFCA8192A
S3150000A150871D019880190190BDF80000404508BF91
S3150000A16044F0400404D001463846FAF75CF8BF1CB8
S3150000A1709A480078800748BF44F4404404F44040BD
S3150000A180B0F5404F06D108228F493846FBF73CFC14
S3150000A190083706E0FEF7D0FF01463846FAF743F8DF
S3150000A1A0BF1C00F02FF900F0050004280ED0504621
S3150000A1B0FAF7BFFC0646504600F036F9301A21077A
S3150000A1C002D4C0B2672801DB44F48054504600F044
S3150000A1D03EF90199401A5FFA80F842463846FBF785
S3150000A1E013FC01984744804400F00CF9C0073DD5A4
S3150000A1F0E008C7F17D016A1C00F001005618010055
S3150000A200029918BF123E00290ED079490978029B9F
S3150000A21081F0010108430090F2B2394650460FF032
S3150000A22010FF8046B8F1FF0F6ED0B8F1FE0F1BD1BC
S3150000A23001200090A6F11202029BD2B23946504686
S3150000A2400FF0FFFE804644F48054B8F1FF0F44F04F
S3150000A250080459D005215046FAF7B8FE40F0080226
S3150000A26005215046FAF7C1FE47440DE05046FAF77D
S3150000A27060FC0499A0EB08000E18F6B2324641467F
S3150000A2803846FBF7C1FBBF1950460AF058FE08B125
S3150000A29044F010042146681CF9F7C5FF00F0B2F837
S3150000A2A000F00500042804F007060BD02EB951482B
S3150000A2B00178491C0170E9700CE04F480178491C8F
S3150000A2C00170E970032E05D100F0A2F82844474931
S3150000A2D04078087000F096F800F00500042858D081
S3150000A2E0200756D50FF0E6F810F1010F0CD0012E1D
S3150000A2F00CD1FEF756FF032808D0B9F1000F05D19F
S3150000A30000F083F8032801D0002059E000F07DF822
S3150000A310032806D15846FAF7F4FB814600240026A6
S3150000A32027E0B9F1000F05D0DFF8A490FF26002042
S3150000A330102420E000F066F8C00604D514F0FEFCF8
S3150000A340814601260DE0684614F0EDFC5FEA00093F
S3150000A35003D14FF46C7100F051F8009800F07F00C3
S3150000A360461C00F052F80824022802D1FEF7D7FB5B
S3150000A37001E00FF093F80290F6B2019600200090EB
S3150000A3802346781B411E4A46C9B2681C0FF0AEF937
S3150000A39007445FEA0B0004D05A4601215046FAF7FB
S3150000A3A06DFC781B401C2870781B7F2803DB40F26D
S3150000A3B0D33100F023F80599012008709DF80C00B0
S3150000A3C007B0BDE8F08F0000A079002018990100C1
S3150000A3D020990100185F0020FB5F0020BE79002055
S3150000A3E0BA790020E67D0020227D0020F45F00205F
S3150000A3F0FC5F0020B27D0020B17D00200FF2180026
S3150000A400F6F78AB9504600F02CB8504600F039B835
S3150000A410681C0EF0EBBF000069702D6D61632D683E
S3150000A42065616465722E630080B5FAF76AFB60B1F8
S3150000A4300178CA0705D4401D0EF0D8FF401DC0B2F2
S3150000A44002BD880701D50F2002BD092002BD38B51F
S3150000A4500446FAF756FB05462046FFF7E5FF284473
S3150000A46032BD0021FAF796BD0A460021FAF799BDDA
S3150000A47080B5FAF746FB18B1017841F0800101700A
S3150000A48001BD0421FAF786BD0A46FFE70421FAF763
S3150000A49088BD80B50521FAF799FD00F4406002BD3C
S3150000A4A038B50446FAF72DFB05462046FFF7D9FFD7
S3150000A4B0C00701D5E81D32BD05F10A0032BD80B5E1
S3150000A4C0FFF7EEFFBBE038B504460D46FFF7E8FFA1
S3150000A4D02946F9F7A8FE00F02AF84FF6FF718D42DB
S3150000A4E006BF4FF6DF7101EA000240F02002204667
S3150000A4F0BDE838400521FAF778BD10B50C46FFF7E0
S3150000A500CFFF2146BDE810400822FBF77DBA38B5DB
S3150000A51004460D46FFF7BDFFA84207D000F007F836
S3150000A5204FF2FF31084045EA0002E0E731BD052160
S3150000A5302046FAF74BBD2DE9F04104460D46FFF7DC
S3150000A54090FF0646F00704D48B210FF25420F6F74D
S3150000A550E3F8B0071AD52046FAF7D3FA8046204624
S3150000A560FAF7E7FA0746A0F10F0292B208F10F01D7
S3150000A57008F10900FBF748FAB91F89B22046FAF735
S3150000A580F1FA06F0FD012046FFF76EFF4FF4006179
S3150000A5902046FFF7BCFF4FF6FE708542204607D1E6
S3150000A5A0FFF75FFF40F020012046FFF75DFF0AE05E
S3150000A5B0FFF757FF00F0DF012046FFF755FF29465A
S3150000A5C02046FFF780FF0120BDE8F08110B5044664
S3150000A5D0FFF75FFF48B1B0F5006F08D12046FFF7DF
S3150000A5E06EFF4FF6FF71884201D1012010BD002099
S3150000A5F010BD80B50521FAF7E9FC00F4404002BD24
S3150000A60038B50446FAF77DFA05462046FFF729FFD6
S3150000A610C00701D5E81D32BD2046FFF718FF0546E5
S3150000A6202046FFF7E6FFB0F5404F0CBF6FF007007E
S3150000A6306FF00100284432BD80B5FFF7E1FFBDE8A9
S3150000A6400240F9F7E7BD38B50446FFF70AFFC00731
S3150000A65003D5BDE83140FEF779BDFFF768FF054633
S3150000A6602046FAF74EFA0830690611D44FF44041F5
S3150000A6700D4202D14FF6FF7032BD05F44061B1F5CF
S3150000A680006F08BF001D03D0B1F5406F08BF0A3048
S3150000A690BDE83240F9F7BEBD10B50446FFF7E1FE4E
S3150000A6A0000703D52046BDE81040C5E74FF6FE700B
S3150000A6B010BD2DE9F0471D46012610B140F60100F8
S3150000A6C006E0002A1ABF032640F6214040F6210084
S3150000A6D0002914BF4FF440414FF4004141EA0008FD
S3150000A6E0002014F0C7FA18B148F4805040F008086A
S3150000A6F0089C16F0020714BF0F200920201800211D
S3150000A70080B2FAF714FB814608B3FAF712FA8246CA
S3150000A7104846FAF7F6F952460021FBF7D7F93146D3
S3150000A7204846FFF7A1FE4846FAF7EBF9461D4146B3
S3150000A7303046F9F778FDB01C002F14BF082302231A
S3150000A74025B1224629461844FBF75EF94846BDE87E
S3150000A750F087F8B504460D46681D002180B2FAF769
S3150000A760E6FA060001D10020F2BDFAF7E2F9074643
S3150000A7703046FAF7C6F93A460021FBF7A7F9042155
S3150000A7803046FFF771FE3CB13046FAF7BAF92A4671
S3150000A7902146401DFBF738F93046F2BD00000000A7
S3150000A7A069702D7061636B65742D6865616465728F
S3150000A7B02E63000000B583B048B100F072F8684619
S3150000A7C0C17941F00201C171F8F743FC07BDF8F702
S3150000A7D03FFC07BD80B5DFF8BC0C4179092905D1DE
S3150000A7E0032000F015FABDE8014081E107291ED0DB
S3150000A7F0491E072915D8DFE801F00A0406040D20D2
S3150000A8002011042000E00320BDE8024000E2BDE87C
S3150000A810014052E2BDE80240072079E2BDE801406E
S3150000A82066E1BDE8044040F2753101F08EBAC07AA7
S3150000A83018B1BDE8014001F025BA01BDDFF8540C9E
S3150000A8404179072900D0704780B5C07A032818BF20
S3150000A85007280ED1DFF8680C008900F0FEFE08D04C
S3150000A860FDF711F9BDE804409621DFF80C0D0EF056
S3150000A87007BC01BDDFF84C0C00B5007883B020B1F1
S3150000A880DFF8F80C1BF0F0F907BD00F00AF89DF8A8
S3150000A890000000F0FD008DF8000068461BF0E4F9AA
S3150000A8A007BD04216846F6F743B82DE9F843044688
S3150000A8B08846DFF8149C5E2200214846FBF706F91D
S3150000A8C0102200214846FBF701F905220FF2540138
S3150000A8D0DFF8C05B0FF254064846FBF795F809F11E
S3150000A8E028070220F870032038714FF6FF70388071
S3150000A8F00020E8810DE018EA000F09D0B078F27860
S3150000A90021184844FBF780F8E88931880843E88134
S3150000A910361D30880100EED194F82A00B870BDE8E3
S3150000A920F1830000656D6265720000000100001091
S3150000A93002001008040020080800280210002B015D
S3150000A94020002C0140002D108000180800013D2039
S3150000A95000015D010000000038B504460D46FEF713
S3150000A96020FC20B1BDE83240702008F05CBD00F04C
S3150000A97009F8002008F057FD29462046BDE8344076
S3150000A98019F094BD294620468FE7F8B500F08AF8FD
S3150000A990002802BFDFF8100C00780C2826D1002111
S3150000A9A01020FAF7C4F9DFF8EC7A388208B91820D3
S3150000A9B01DE0002008F066FD00210220FEF7F5FBF1
S3150000A9C04FF6FB7000EA0501FFF7DDFF14F023F8F0
S3150000A9D0388AFAF796F81022FF21FBF777F8314606
S3150000A9E0BDE8F840052202200AF0ECBE7020BDE862
S3150000A9F0F24000F0C5BDF8B5DFF8987A0446F8894C
S3150000AA000D46160019BF00F04F014F2900F0470010
S3150000AA10472801D0022019E0FEF7C3FB002802BF39
S3150000AA20DFF8840B00780C280FD1DFF89C0A80F839
S3150000AA302B502046FEF78EFB0120F8713E72002057
S3150000AA4008F030FDBDE8F14052E07020BDE8F2406C
S3150000AA5008F028BD70B500F025F8002802BFDFF821
S3150000AA60480B00780C2818D1FFF78CFFDFF8584AFE
S3150000AA70DFF8205A94F92C00FEF76CFB13F0E0FF88
S3150000AA806E611021204600F007FD0020E871287253
S3150000AA9008F008FDBDE870402AE0BDE8704070206F
S3150000AAA008F000BD04460D461646FEF77ABB80B593
S3150000AAB0FEF777FB042802BFDFF8D809C07A002822
S3150000AAC003D100F0A1FE002000E07020BDE80240A6
S3150000AAD008F0F8BC20F08001042900D0704780B54A
S3150000AAE00121FEF77FF9DFF8A01C0020087001BDE8
S3150000AAF080B5FFF7BFFEF8F7ABFADFF8CC0990F8A0
S3150000AB002B0020F08001042908D101210320FEF743
S3150000AB1069F9DFF8640A0EF003FB02E00121FEF793
S3150000AB2061F900F0D3FC00210220FEF73EFBDFF8BE
S3150000AB306419022008710120BDE80240E8E038B53A
S3150000AB400446DFF85009008A0D46F9F7DAFF10B11E
S3150000AB50204400F80B5C31BD2DE9FC4106460F464A
S3150000AB6090461C46FFF786FEDFF82859687920B123
S3150000AB70702000F005FD002043E015F078F830461F
S3150000AB80FCF7BDFF3846FEF7E5FA4046FEF7E0FA69
S3150000AB900C98DFF8606C0021FEF724F9308840F04D
S3150000ABA0010030800020FEF7C9FA0899204600F01F
S3150000ABB073FC07206871308840F400403080A87B21
S3150000ABC0400704D5DFF83C0C00F034FC04E0FFF746
S3150000ABD068FE684600F02EFC0A9815F057FB0B98A5
S3150000ABE015F078FBFEF741FE012019F0F9FBDFF8BE
S3150000ABF0A0088078FFF7DEFDFEF76AFE00F02EF96A
S3150000AC000120BDE8F681DFF88C18072048717047EF
S3150000AC1070B5DFF880486679054600F057FC012ECE
S3150000AC2008D12079010005D0401E20710120BDE821
S3150000AC3070406DE0A079010012D0401EA0710EF0A8
S3150000AC4004FBDFF84C58297800F03EFF05F10800B8
S3150000AC500EF016FA0820607128788000287070BD02
S3150000AC60DFF8640890F82B00FFF734FFF8F7F0F9E7
S3150000AC7029460020FEF799FABDE8704000F06FBD46
S3150000AC8010B50C468AB0014608226846F9F737FB2C
S3150000AC902022002102A8FAF719FF02AA0821684615
S3150000ACA01DF054FA082202A92046F9F728FBE0799C
S3150000ACB040F00200E0710AB010BD10B5DFF8D447CD
S3150000ACC0607A401CC0B21B280EDA6169C140C90710
S3150000ACD0F7D56072FCF713FFE07958B900F0D2FBA4
S3150000ACE0072807D0012206E0BDE810400022032114
S3150000ACF000203DE200220021002012F032FFBDE8D4
S3150000AD0010404FF49671DFF8880C0EF0B9B90000C8
S3150000AD102DE9FF410646684600F01DFCDFF8704746
S3150000AD20DFF87057DFF8A077DFF8388C00F00FFCFB
S3150000AD306E7107F128066879401E062800F28780A2
S3150000AD40DFE800F0041F505C5F8566004FF6FF7772
S3150000AD506078E78078B1308801E00EF076FAB84284
S3150000AD60FBD0FEF7F5F9A078FFF724FD0A206872FC
S3150000AD70FFF7A3FF70E06969052203200AF022FDB0
S3150000AD806AE0DFF8101CE07809780840DFF8701AEE
S3150000AD90097808420AD0A86920B94FF442714046A2
S3150000ADA0F5F7BAFCA9696846884755E000220821EC
S3150000ADB005F12C00F9F794FA28B105F12C01DFF81A
S3150000ADC0BC07FFF75DFF05F12C00F8F742F997F88D
S3150000ADD05D30298807F13D02684611F000F8DFF87A
S3150000ADE0E41C10E0012018F040F820B940F22731A9
S3150000ADF04046F5F791FC42F6E06104E041F2883105
S3150000AE0001E04FF4967104F108000EF039F923E0E1
S3150000AE1000F0A5FC00F036FB062807D100F01EF86E
S3150000AE2001220021002012F0D9FC0DE0072802D1F2
S3150000AE3000F014F808E0A078FFF7BCFCF078FFF704
S3150000AE4049FE172000F0E0FCFEF742FD04E04FF457
S3150000AE5054714046F5F760FCBDE8FF8100210320F0
S3150000AE60FEF7A3B92DE9F04192B080460AF09CFCAA
S3150000AE7005464046F9F75DFE441B4046F9F741FE9C
S3150000AE800619F6B21A2EC0F28E804046FFF7B1FBC5
S3150000AE90B0F5004F78D04046FFF7ABFBB0F5004F5A
S3150000AEA072D0422200216846FAF710FE08AC2878D4
S3150000AEB0A07040466F78FFF7A3FB0146082206A85C
S3150000AEC0FAF7A2FD1022A91C6846FAF79DFD082292
S3150000AED005F1120104A8FAF797FD03214046FAF797
S3150000AEE059F8E07001214046FAF754F860710221E2
S3150000AEF04046FAF74FF8A0714046F9F702FE0830CF
S3150000AF00F9F788F9ADF8200007F001002071F8087C
S3150000AF1000F001008DF840003809E07105F11A07CC
S3150000AF203544381DA8420AD23878122804BF7878EA
S3150000AF30022804D1B81CF9F76DF9A0833F1D381D0E
S3150000AF40A8420AD238780F2804BF7878022804D19C
S3150000AF50B81CF9F75FF9E0833F1DB81CA8420BD275
S3150000AF603878082808D17A78112A05D2A276B91C31
S3150000AF700DF12A00FAF748FDDFF818054079012897
S3150000AF8003D1684600F013F80DE0DFF81C060078E0
S3150000AF90012803D168461DF003FA04E0052804BF22
S3150000AFA0684617F08AF812B0BDE8F08100BF2DE9B7
S3150000AFB0F84FDFF8DC94DFF8DC448046B9F8060089
S3150000AFC008F1200700F049FB94F9020097F90610F2
S3150000AFD00CBF4FF0010A4FF0000A8842F879B4BF5F
S3150000AFE001250025421E9241D20F8DF80120E178FD
S3150000AFF04A1E9241DFF8881C0978D20F8DF800208E
S3150000B000062962790CBF01260026012A09D10228E9
S3150000B01007DBB878032804D1072903D198F8400044
S3150000B02078B989E0387938B1B97E080004D008F1DA
S3150000B0302A0016F001FA20B9A07B00F04700472845
S3150000B0407AD10022082104F12400F9F749F978B9E8
S3150000B0500022082108F11800F9F742F940B9082240
S3150000B06008F1180104F12400FAF737FD002863D12E
S3150000B070A07BDFF854B4C0070CD500221021584637
S3150000B080F9F72EF930B9102241465846FAF725FD50
S3150000B090002851D1A07B40070CD5002208210BF1D6
S3150000B0A02000F9F71DF928B900F048F8FAF715FD60
S3150000B0B0002841D1A17B09070BF1280003D501889F
S3150000B0C03A88914238D19DF801109DF800209DF8EC
S3150000B0D000302940324311409DF80120324382F06E
S3150000B0E001022B4341EA0A011A40114324D0F978A0
S3150000B0F08170B979A17039880180414600F0C2F9A2
S3150000B10007280CBFF88BB88B20801022F879E070E6
S3150000B1105846FAF779FC00F011F8FAF775FC4FF685
S3150000B120FE70A9F8060008F1180104F11C00BDE83C
S3150000B130F84F0822FAF768BCBDE8F18F082208F13B
S3150000B14010010BF12000704738B5DFF87C4304F19D
S3150000B1502805A878FCF7D3FC2888FDF7F9FF04F149
S3150000B160200000F067F92046BDE83440102193E145
S3150000B170F0B5020085B040F09180C64DD24C68799A
S3150000B180012833D10022082105F11C00F9F7A8F89F
S3150000B190B8B9FFF7D9FFE87970B100F073F906285E
S3150000B1A008D10022082104F11800F9F799F808B12E
S3150000B1B0062002E0072000E0022005B0BDE8F040CE
S3150000B1C0A6E5287A68B1FFF7BFFF1DF034F9012024
S3150000B1D019F006F90720687105B0BDE8F04000F0E7
S3150000B1E0E3BC05B0BDE8F040022011E5022903D119
S3150000B1F005B0BDE8F040D9E1042904D105B0BDE8A9
S3150000B200F04016F0E5BE032941D1288AF9F779FC0A
S3150000B210EB8903F00806320004F128014FF6FF77A8
S3150000B2200FD14FF0000C00281CBF30F81C20BA428A
S3150000B23008D10CF101025FFA82FCBCF1080FF2DBC7
S3150000B2401CE00A88BA4218D018064CBF04F1180050
S3150000B250002003909B074CBF04F11003002300203D
S3150000B26001900293102000902346CE7891F90410A5
S3150000B270A87A0496FFF770FC16E01EB905B0BDE883
S3150000B280F040CDE105B0BDE8F040702078E1052939
S3150000B2900AD105B0BDE8F04016F032BF022903D14D
S3150000B2A005B0BDE8F0406BE105B0F0BD79484079E6
S3150000B2B0062804BF0720FFF72BBD704738B5754D2C
S3150000B2C00446687903280DD110F05AFB1CB1BDE87D
S3150000B2D0324004201CE5092068714FF4FA61BDE88C
S3150000B2E0344010E531BD6B484079022804BF042084
S3150000B2F0FFF78EBC7047DFF8880C417801F00F012C
S3150000B30041F0100141707047DFF8741C4A7800283C
S3150000B31014BF42F0010002F0FE0048707047DFF8EB
S3150000B320600C40786BE070B50C0086B00646DFF81E
S3150000B3300C5C03D11A20287000203DE068461421D9
S3150000B340FEF7BEFB112CA8BF102408208DF80000C4
S3150000B3508DF80140224631460DF10200FAF754FB02
S3150000B360DFF81C6CA21C92B2694606F11A00FAF7C5
S3150000B3704BFB3019122100F81C1F02214170DFF827
S3150000B3801C1C0A88120A82700988C1707178090724
S3150000B3900ED50F21017102214171DFF8F01C0A88D8
S3150000B3A0120A82710988C1717078000748BF241D8E
S3150000B3B004F1200028700120FFF7A6FF06B070BD3B
S3150000B3C010B5040004D0FDF7ECFE08B1702003E0D0
S3150000B3D0204600F005F80020BDE8104008F0BCB893
S3150000B3E0DFF89C1B4A78002814BF42F0080002F0E0
S3150000B3F0F70048707047DFF8880B4078C00800F007
S3150000B4000100704780B523484079022818BF0328F9
S3150000B4100CD007280CD1DFF8680B4078C00705D49C
S3150000B42018F0DAF890F85600400601D5012002BD62
S3150000B430002002BD01460822DFF8640CFAF7E4BAE0
S3150000B44010B5DFF8B0432088000403D440F237512A
S3150000B45000F0A2FBDFF8E41A1A2008700321DFF8D7
S3150000B460200B0170417841F0200141702078C0071F
S3150000B47003D400F007F8022803D1BDE8104013F00A
S3150000B48093B810BDDFF8F807007870470000000099
S3150000B490AC5D0020CC76002070B50D46112D04461B
S3150000B4A0A8BF1025DFF8D86A10220021B01CFAF7D1
S3150000B4B00DFB2A462146B01CBDE87040FAF7A4BA37
S3150000B4C010770020DF7D00206C76002038B5DFF88D
S3150000B4D0D45BDFF8244400206871E8724FF6FE70F2
S3150000B4E0FDF72CFE15F0FDFF4FF6FF70E0800822F9
S3150000B4F0002105F11C00FAF7E9FAFF20207100206F
S3150000B500DFF8A41BBB4D08702888C0F30E00288006
S3150000B5100EF073FA10F059FDDFF8901B002008704A
S3150000B52012F02CFE15F03DFA15F05FFD14F025FB28
S3150000B53013F05EF80020FFF7E7FE0120207000F010
S3150000B54006F828884FF6FE710840288031BD04F1C0
S3150000B55008000DF0E5BD80B5DFF89C13C9884FF6ED
S3150000B560FF72914201D1002002BD0146DFF8400B77
S3150000B5701AF017FC012002BDC05D0020987900205A
S3150000B58010B50446DFF81C1B00200882FDF709FEF3
S3150000B59020B92046BDE8104007F074BFBDE8104052
S3150000B5A001210020FDF701BE185F0020F8B5DFF885
S3150000B5B0F45A288AF9F7A5FAFF240027060014D0C2
S3150000B5C00020315CA21F9142BCBF8C1DE4B2401C1E
S3150000B5D01028F6DB0020315CA142BCBF7F1CFFB205
S3150000B5E0401C1028F7DB380003D1BDE8F2400120EB
S3150000B5F0C6E70DF02AFE90FBF7F107FB1101C9B271
S3150000B6000020325CA24206DA0A0002D10B30A87290
S3150000B61004E0491EC9B2401C1028F2DBBDE8F14027
S3150000B62070B5DFF8804A208AF9F76BFA05460026DE
S3150000B6300DF00BFE00F011F81EBF002D25F81600C8
S3150000B640761C082EF4DBA17ABDE87040012000FAD2
S3150000B65001F1052203200AF0B5B84FF6FF718842C2
S3150000B660704770B5044620000FBFDFF8480A012076
S3150000B670A0400843DFF82C1A98B0154648611E46CC
S3150000B6805E2200216846FAF721FA1E99082208A8C8
S3150000B690FAF7BAF9324629466846FAF7B5F91F9E0F
S3150000B6A0102231460DF12D00FAF7AEF91D9D082244
S3150000B6B0294604A8FAF7A8F920998DF82A403046B9
S3150000B6C013F04EFA284614F0E1FD1C9847214FF678
S3150000B6D0FF7290421CBFADF828004F216846FFF765
S3150000B6E03BF918B070BD01461022DFF8CC09FAF715
S3150000B6F08BB938B50446DFF8AC5900F01CF820B118
S3150000B7002046BDE832401DF0BCB905F1340032BD1B
S3150000B71038B5DFF8905904466879042802D100F05C
S3150000B7200AF810B16879072804D12046BDE83240EE
S3150000B73000F04CBD31BD0022102105F13400F8F7B0
S3150000B740CFBDDFF83C050078072805D0DFF854099F
S3150000B7504079022802D10320FFF7DABA7047102297
S3150000B7600021DFF85409FAF7B1B980B5FFF7F7FF02
S3150000B770DFF830094079042804D1BDE802400520ED
S3150000B780FFF7C6BA01BD0000F77D002010B55A4C80
S3150000B79060791B2811DB0B20607104F120000DF08D
S3150000B7A0BFFC00F0F0F8DFF8FC180020C87200219A
S3150000B7B0BDE810400420FDF7F8BC17F00DFF5A3025
S3150000B7C016F0A2FB01466079C140C90748BF12F0D6
S3150000B7D054F96079401C6071322104F12000BDE803
S3150000B7E010400DF04DBC80B5FCF786F9DFF8B418B3
S3150000B7F0087301BDBE790020DFF8C4087047000059
S3150000B800E07D00208C760020002100E001212DE95A
S3150000B810F041DFF890680446707907280D464ED14E
S3150000B820F07ADFF8D48001000AD0062818BF07286E
S3150000B83045D108F10800BDE8F04100210DF020BC1B
S3150000B840DFF880783878002814BF00200220B07115
S3150000B850280028D100F0B9FB07207071DFF86808CE
S3150000B8600188C1F30E01018000F02BF84FF6FF703E
S3150000B870A8F80600DFF808040078022818BF13F0BD
S3150000B8801FFB0822002106F11C00FAF71FF9387881
S3150000B89048B912F073FCDFF81018002008704FF654
S3150000B8A0FE70FDF74BFCDFF814688022002130465D
S3150000B8B0FAF70CF9B4703571BDE8F0411EE0BDE849
S3150000B8C0F08180B515F00DFE0EF097F810F07DFBB7
S3150000B8D0DFF8D8170020087015F063F815F085FB1F
S3150000B8E014F04BF912F084FEDFF8DC0701884FF6FE
S3150000B8F0FE721140018001BDAC5D002038B5DFF855
S3150000B900A417A44CDFF8B4570020C872FF2020719A
S3150000B910FFF71DFE01206870082202202870002112
S3150000B9204FF6FF702881A5F8440005F10A00FAF7E2
S3150000B930CDF8FFF7A7FDE87020F08000042807D1B6
S3150000B94001210320FDF74EFA04F114000DF0E8FB87
S3150000B950DFF870070078BDE83240002814BF0220E7
S3150000B9600120B9E0F0C0000080B5DFF860070DF0F7
S3150000B970D7FB00F008F8DFF82C170020C872122059
S3150000B980BDE8024040E7DFF83407C078FFF7A2B809
S3150000B990B45D0020107800202DE9F041DFF804574F
S3150000B9A0DFF81847EF7A17F017FE00280FBF0126B9
S3150000B9B090F85600400900F00106207910B10020E9
S3150000B9C0E8727CE0022FDFF8CC8121D120780100DB
S3150000B9D032D0401EDFF8EC162070C0B2097880B96C
S3150000B9E000291EBFDFF8E8060078002803D012F011
S3150000B9F0C5FB022020700020DFF8AC16087001207D
S3150000BA0003E0002914BF02200120BDE8F04163E0F5
S3150000BA10A879010018BF012F0ED0401EA8710DF0A5
S3150000BA2014FC617800F050F800F0BAF80420E872CF
S3150000BA3060788000607042E0FDF7B3FB052804BF24
S3150000BA40A078142808D118F0DBFB28B10020E87292
S3150000BA5018F075FB15200BE0FDF7A3FB05280AD1AE
S3150000BA6017F0F4FD38B10020E87218F06EFB1620CE
S3150000BA70BDE8F041C8E6FDF794FB052812D1FFF7B3
S3150000BA8001FD022818BF06280CD15EB11CF0D3FCBC
S3150000BA900020E872FDF71CFFBDE8F04100210320FD
S3150000BAA0FDF783BB19F0BCF814F0EAF80820E87239
S3150000BAB0002108F12000BDE8F0410DF0E1BABDE833
S3150000BAC0F0810000400D03004FF47A72514390FB61
S3150000BAD0F1F201FB120170472DE9F0410646DFF84D
S3150000BAE0B48086B008F108000DF01AFBDFF8B455F3
S3150000BAF0012EEE7204D045D3032E0FD006D341E0BB
S3150000BB00002011F0BBFE40F2EE2104E0012011F00E
S3150000BB10B5FE40F2E24100F043F837E0DFF89C65FD
S3150000BB2001A906F10A001AF03CF941F6583100F075
S3150000BB3037F8F41C524F2078FEF7CCFF38780428EB
S3150000BB4008D1DFF8901501200870962108F114003D
S3150000BB500DF096FA607830B9082206F10A0105F16F
S3150000BB601C00F9F751FF387896F8312004280CBFED
S3150000BB70012300230020009006F1210101A811F005
S3150000BB80F0FE03E040F6180100F006F806B0BDE846
S3150000BB90F0810000AC5D00200FF25450F4F7BCBDFC
S3150000BBA008F108000DF06CBA2DE9F041344D287803
S3150000BBB0062882B003D140F61E01FFF7EDFFDFF83D
S3150000BBC0E444DFF81465DFF8F4840020E07208F13D
S3150000BBD0020706F108000DF0A3FAFFF73FF9B8785F
S3150000BBE018B1FFF76EFE12F0C9FADFF8C00400784C
S3150000BBF068B9F88808F10A011AF098FA08F13401D0
S3150000BC000A7B8B6800924A6809681AF02DFF28782B
S3150000BC10042804D1DFF8BC140020087012E00228C2
S3150000BC200CD1DFF8A4040078C00758BF1CF0BEFF93
S3150000BC3038781DF08BF91CF0E8FB03E0032808BFF9
S3150000BC401CF0B4FFFDF744FE3878122806D10B200D
S3150000BC50707106F120000DF063FA0CE011280AD18C
S3150000BC60FBF74AFF0146207B884204D04FF47A72E4
S3150000BC70032117F0CBFDBDE8F34117F0EBBC000044
S3150000BC80BA79002070B5DFF81C44DFF83004E17A99
S3150000BC90491E062900F108054FF6FF7651D8DFE860
S3150000BCA001F025393E1950040C000020E0724FF6D1
S3150000BCB0FE70DFF82814088008E0DFF81C5405F150
S3150000BCC014000DF02DFAEE800020E0721420BDE87D
S3150000BCD0704099E5C01C417811B10020E07270BD3A
S3150000BCE00078FEF7F7FEBDE8704007E62888B04208
S3150000BCF00ED0A87C022803DA287E202808DB01E083
S3150000BD0003281ADADFF8D813287E0978884214D275
S3150000BD10022013E02888B0420FD1022003E0A98F49
S3150000BD20B14203D10320BDE8704035E600F144017D
S3150000BD303C222846F9F768FEAE870320BDE870402E
S3150000BD40CAE6BDE8704040F6AB010FF2A430F4F746
S3150000BD50E3BCD449C97A032905D1002818BFFFF7E7
S3150000BD6023BF032018E6704738B50D4604462888D9
S3150000BD70FFF773FC27D02B7E217E05F1130204F119
S3150000BD8013001CF0DCFB10B101281EDB1BE0A17CBC
S3150000BD90A87C884221D12888C0F30900411E20884A
S3150000BDA08941C0F30902501E8041C00FB0EBD17F1C
S3150000BDB015D1E868E26801021302090E1B0E8B42D8
S3150000BDC005D0994201DA012032BD002032BD0BB9FF
S3150000BDD0904202D1298A228A91428041C00F32BD07
S3150000BDE070B5154682B004461E463C22F9F70CFE95
S3150000BDF02846FEF705FC01460822A01CF9F704FEBA
S3150000BE00B27B716B04F11900F9F7FEFDB07B84F883
S3150000BE1029000020B16EF8F72DFA44F82C0F002007
S3150000BE20F16EF8F727FA6060684612F023FF28B132
S3150000BE3070680099814238BF12F0B3FE7068A06046
S3150000BE40B07C207373BD2DE9F04F8B460BF11C06B9
S3150000BE5091B08046B06D0190022140460BF1C004BE
S3150000BE60F9F798F82568074629460020F8F702FAF8
S3150000BE70814695F806A06A79019851461CF098FB10
S3150000BE8010B918F009FE55E030880199ADF80800A0
S3150000BE9005220DF11B00F9F7B7FD8DF820A078B249
S3150000BEA01AF0CCFC07461AF0F1FC247982462046AB
S3150000BEB01AF0ECFC0546308880050BD189480268EB
S3150000BEC0100007D069460BF11300904710B19DF89A
S3150000BED0000003E05046A84288BF28468DF81A00A5
S3150000BEE0E019ADF8180029F07F4005909DF81A007A
S3150000BEF000B3724E06F1080102A8FFF735FF60B1E4
S3150000BF003C2206F1080106F14400F9F77DFD5B4687
S3150000BF10424602A906F108000AE006F1440102A819
S3150000BF20FFF722FF30B15B46424602A906F1440004
S3150000BF30FFF756FF11B0BDE8F08F0000087600202D
S3150000BF4070B5044608465749C97A032915460CD1E7
S3150000BF505A4E082206F10A01F9F7BFFD28B9F06B1F
S3150000BF60A84204D1706B844205D2002070BD3CBF4C
S3150000BF70281A4028F9D27463F563012070BD0000C9
S3150000BF800C7600204D48836B934201D30020704706
S3150000BF900181511C8163012070470000E05F002091
S3150000BFA080B5FDF7C9F84D49088000F00EF83D4808
S3150000BFB0072141710621C17240F2DC514A480DF059
S3150000BFC05FF8BDE8014011F02FBC00210520FDF708
S3150000BFD0ECB87FB53348C17A062927D10021C17252
S3150000BFE000253948414E018841F4004141F00101E4
S3150000BFF0018003200021FDF7D8F83B480DF090F8AA
S3150000C00012F0ADFF12F0D0FA13F06AF804460AE017
S3150000C0103268694602EBC50019F0C3FE0221684684
S3150000C02011F03FFD6D1CEDB2A542F1DB7FBD10B5F1
S3150000C030FFF7CBFF1B48284C07214171C172FDF762
S3150000C0407BF800F47C40E080FFF71CFA042804D15A
S3150000C050002104F114000DF013F811F049FD04F16C
S3150000C0600800BDE8104040F2DC510DF009B880B57B
S3150000C0700C48C17A072908D10021C172FEF7EFFEEC
S3150000C080BDE8024018480DF04BB801BDE25F002044
S3150000C0900448C07A072804BF0A20FFF77DBC704712
S3150000C0A01E760020CC760020FA750020F975002057
S3150000C0B0E876002000F8FF070077002010770020C0
S3150000C0C01A7700202C790020BE790020CC5D002054
S3150000C0D0567A0020F77D0020AC5D0020205E00200F
S3150000C0E0A15E002064750020B45D0020C05A0020C7
S3150000C0F06A6F696E2E63000070B517F06DFA304CEA
S3150000C10090F8560000074CBF25780025284609F010
S3150000C1100FFB06000BD009F047FB2A46211DF9F755
S3150000C12073FC3046BDE870400121FBF78ABC70BD48
S3150000C13030B585B00446F8F7E4FC451D28460DF0F9
S3150000C14055F9285C072821D1FCF7F6FF4FF6FF7159
S3150000C15088421EBF1B4C207803282ED0042818BF07
S3150000C16007282AD0184D28460CF0E6FE28BB207872
S3150000C170062802D018F090FCF8B10DF066F800F031
S3150000C1807F00411C28460CF07BFF16E0042814D1E2
S3150000C1902046FEF72EFAB0F5404F204605D1FEF7B1
S3150000C1A02FFA694619F0FDFD04E0FEF745FA6946E7
S3150000C1B019F0D1FD684611F0C3FC05B030BD000092
S3150000C1C008760020BA7900209C5D00202DE9F04712
S3150000C1D094B080460121F8F7DDFE824602214046F2
S3150000C1E0DFF8787CF8F7D6FE38704046FEF749F956
S3150000C1F0072804BF97F9000009F073FD01F059F80C
S3150000C20000F00500042803D1404602F014FADDE0F0
S3150000C21005214046F8F7DAFE0006C00E10F00105CB
S3150000C22033D040461AF085F91AF0B1FB694640460C
S3150000C2301BF033FE48B3FCF77FFFBDF804108142C4
S3150000C2402ED14046F8F75DFC81464046FEF7ECF8F5
S3150000C25004464046F8F76DFC9DF80010001B461A90
S3150000C260F6B209EB040032460144F9F7CDFB311969
S3150000C27089B24046F8F776FCBDF802104046FEF754
S3150000C28022F901F016F801F00FF840460DF098FC7F
S3150000C29010B340460DF0A8FC5FEA000813D195E004
S3150000C2A09DF801000228FADB40461BF01CFE4FF603
S3150000C2B0FE714046FEF73FF900230022FF2140466B
S3150000C2C000F08BFC82E052460121F8F76AFE3A78CC
S3150000C2D002214046F8F765FE02A940461BF0BAFD6A
S3150000C2E0002873D00DF1130013F085FF00286DD1DF
S3150000C2F0002210210DF12300F7F7F2FF002865D187
S3150000C3009DF82300FF280CBF142012200121FBF703
S3150000C3103FFB25B102A9404600F03FF956E0DFF8A1
S3150000C320785C287850B102A800F079F830B16A68D4
S3150000C33010004BD041460020904747E09DF838005A
S3150000C340112843D102A81CF0FBFF00283ED0DFF8DD
S3150000C3504C2CBDF84C00128890421EBFDFF8402CD2
S3150000C360128890421EBFDFF83C2C1288904219D1E9
S3150000C3700DF1230019F024FD40B30DF12B0019F047
S3150000C380A0FC20B90DF12B0019F0BFFCF0B10DF1A6
S3150000C390130019F015FDC8B1002202A940460FF09E
S3150000C3A007FB13E044F64C5188420FD19DF8230059
S3150000C3B0FF280CBF0022424602A940460FF094FF18
S3150000C3C020B140461AF0B5F81AF0E1FA14B0BDE80B
S3150000C3D0F087F0B593B00FF20C64DFF8805ADFF8FF
S3150000C3E0B86C15E00021304601F0E2FF07466FF019
S3150000C3F07F002870694638461BF02CFD20B940F2B4
S3150000C40009112046F4F788F96946384600F0C5F860
S3150000C410304601F07FFF0028E4D013B0F0BD38B5F8
S3150000C420DFF8784C218801B300F13005297811290D
S3150000C43009D11CF085FF30B12088698A81421CBF72
S3150000C440A98A81420FD0287806280ED16868F7F7A6
S3150000C450E4FE2188884206D06868801CF7F7DDFE76
S3150000C4602188884201D1012032BD002032BD2DE94C
S3150000C470F041DFF8244B0546207894B08846B0B3E7
S3150000C4802846FDF7FEFF032831D008F11B0708F107
S3150000C4903406787D3A280DD130680078B074643857
S3150000C4A025D02138032822D9163820D0801E01280D
S3150000C4B01DD911E011280FD140461CF041FF58B19B
S3150000C4C0308A44F64C5188421FBF40F222218842EE
S3150000C4D04FF2BF0188420AD06946384619F042FC3D
S3150000C4E038B1FCF729FEBDF80010884201D10020C2
S3150000C4F01AE03878FF280CD12846F8F75AFD0500CF
S3150000C50011D001A91BF0A6FC01A9284600F057FD91
S3150000C51003E04146284600F052FD6268100002D052
S3150000C520294600209047012014B0BDE8F0812DE98E
S3150000C530F04780460D46FDF78AFF0646686BB11D3B
S3150000C540471A4046F8F7F5FA0446301DF7F765FE38
S3150000C55081464046F8F7D5FA696B611A00EB010A85
S3150000C560E86A2838B11D8842BFB203D040F267118D
S3150000C57000F034FA696B1FFA8AF2B01DF9F744FA33
S3150000C580E11B89B24046F8F7EDFA301DA9EB070129
S3150000C590BDE8F04789B2F7F74ABE2DE9F843804671
S3150000C5A08946FEF779F80646484613F02DFAC8B9CB
S3150000C5B04FF6FE75AE42DFF8A478DFF8B84C03D02C
S3150000C5C009F10B0020607E804946404600F00CF8D9
S3150000C5D0002121607D8028B14946404600F004F8DC
S3150000C5E00028F9D1BDE8F1832DE9F04F82468B464C
S3150000C5F097B00BF11B0019F008FC06460BF11B0067
S3150000C6001CF030FF814666B95046FDF72AFF000749
S3150000C61007D50BF11B0013F0F0F8FF2818BF012512
S3150000C62000D100255046FDF71CFF00070BF1090756
S3150000C630DFF8284818D5002E08BF002D14D1B87C85
S3150000C640FF2811D00BF11B010BF10B0014F0ADF913
S3150000C65050B96088694619F07EFB53466A46002148
S3150000C66001201DF0D5F801E155EA06004FF6FE78E7
S3150000C6702AD05046FEF710F80546454509D15046E2
S3150000C680FDF7B7FFB0F5004F03D15046FDF717FF92
S3150000C6900546454518D0284611F0B6FD18B128467E
S3150000C6A012F0FAFF80B10BF10B0019F075FB20B9FF
S3150000C6B00BF10B0018F06DFD30B101232A460BF18A
S3150000C6C01301002014F020FC5046FDF792FFFF25D1
S3150000C6D0B0F5404F504604D1FDF792FF00F001FB44
S3150000C6E009E0FDF786FFB0F5004F05D15046FDF78E
S3150000C6F0A3FFF6F7E1FE054694F90010284612F06E
S3150000C700FEFD59EA06004DD00BF12C0001792929CE
S3150000C7103ED13978002902BF006880786D282DD176
S3150000C7205046F8F706FA0021F8F701FB0028814683
S3150000C73099D05046F8F7FDF904465046F8F7E1F966
S3150000C74005464846F8F7DDF922462946F9F75CF929
S3150000C75004A948461BF07EFB04A94846FFF7E7FEFE
S3150000C76004A948461BF076FB04A94846FFF77FFE5E
S3150000C77030BB04A9484600F0A0F821E059465046CF
S3150000C780FFF7D5FE594650461BF064FB01206EE0CC
S3150000C79059465046FFF76BFE90B95946504600F091
S3150000C7A08CF80DE0DFF8D00A0078022808D17878F6
S3150000C7B0022805DA5B465246002103201DF012F8D6
S3150000C7C000F046FB00F0010080F0010030434DD13F
S3150000C7D0787802284ADB0BF10B0019F0F1FA0028F1
S3150000C7E044D10BF11B0019F0EBFA00283ED10022D0
S3150000C7F010210BF10B00F7F773FD002836D10BF172
S3150000C8001B0019F02DFB88BB0BF11B0019F02FFB49
S3150000C81060BB0BF11B0019F003FB38BB7878401E98
S3150000C8207870514658461BF01FFB5046FDF720FE18
S3150000C830B87CFF2810D14FF6FF715046FDF77BFEFE
S3150000C8400CF003FDDFF8342A127801219140491ECD
S3150000C85001EA0003022205E041465046FDF76BFE61
S3150000C8600023FF225946504600F08DF9002017B0EC
S3150000C870BDE8F08FF8B504460121F8F7E8F9DFF8CE
S3150000C880185810B90022214611E001212046F8F778
S3150000C8901DFA06460021F8F74AFA07000CD0F8F709
S3150000C8A030F932462146F8F7C0FA002239462846C2
S3150000C8B0BDE8F84001F04BBDF1BDF8B50D4605F1F8
S3150000C8C03006044637783A2F13D0112F0FD17068EF
S3150000C8D0801DF7F7A2FC60B92888B0F5A06F0FDDC0
S3150000C8E02B462246002102201CF07CFFF1BD062FBC
S3150000C8F0F2D1294620461CF059FC0028ECD0F1BDA7
S3150000C900694605F11B0019F02DFA08B3BDF80000C1
S3150000C910DFF86C19081808281AD2112F5DD1DFF834
S3150000C9206419BDF80000097800F0070001F007015E
S3150000C930884252D1FCF700FCDFF84C19098888427E
S3150000C9404BD128461CF0FCFC284616F0D2F8F1BD67
S3150000C950062F39D0112F15D0292F3AD03A2F3CD196
S3150000C9602888042839DB70680078B075042170685F
S3150000C9704078F07528461CF0D3FB2946204600F087
S3150000C98054F8F1BD28461CF0DBFC30B32046FDF719
S3150000C99078FD032804D1294620461BF0E5FFF1BDAA
S3150000C9A0B08A44F64C51884209D1E87EFF280CBF74
S3150000C9B000222246294620460FF096FCF1BD294664
S3150000C9C020460DF017FEF1BD294620461CF047FF14
S3150000C9D0F1BD40F2772100F001F8F1BD0FF204003D
S3150000C9E0F3F79ABE64697370617463682E6300001E
S3150000C9F070B50D460446E86BB0B12046F8F781F8ED
S3150000CA0006462046F8F795F8EA6BB5F8401030442C
S3150000CA10801A814203D040F28221FFF7DFFF2846C9
S3150000CA20BDE8704007F0A7BA70BD2DE9F041884611
S3150000CA3008F13C0598B006462868002878D0A97AFF
S3150000CA40012956D080296FD141463046FFF7D0FFE5
S3150000CA5008F11B0019F0D9F9070008D0102208F1D7
S3150000CA601B010DF12300F8F7CFFF002400E0082496
S3150000CA703046FDF7F6FCC00648BF44F020043046B9
S3150000CA80FDF7EFFCDFF804683388C006A88848BFC6
S3150000CA9044F02004834208D2C21A286892B20021C8
S3150000CAA01844F9F713F83088A880002FA888059055
S3150000CAB014BF08F11B0300232868049022460020B7
S3150000CAC003900021812002904020019008F10B0084
S3150000CAD0009006A81CF056FC040029D0FDF7C8FCFF
S3150000CAE000200090FF23012206A9204600F023F82B
S3150000CAF01EE000F11C056A46802128461CF041FF15
S3150000CB00B0B100F0A5F9000712D50021284619F0AA
S3150000CB1029F968B99DF800000123002205F10801F2
S3150000CB2014F0E2FA012803D141463046FFF760FFD0
S3150000CB3018B0BDE8F081F8B504460D4616461F4606
S3150000CB401CF086FB05F11B0019F05FF920B905F111
S3150000CB501B0019F085F930B11EB100F0C6F80120AE
S3150000CB60F2BD0020F2BD36B105F11B001CF07AFCC7
S3150000CB7008B100F0BAF8069B3A462946204601B0AD
S3150000CB80BDE8F040FFE7F8B5044601F11B0715467E
S3150000CB901E46384619F044F918B9384619F050F9C6
S3150000CBA028B1F87B012804BF204608F0BFFB3846B1
S3150000CBB019F05DF918B9384619F032F910B1FF2DA0
S3150000CBC008BF002532462946387801B0FF2820469E
S3150000CBD0BDE8F0400CBF012300232DE9F0410D46CE
S3150000CBE0FF2D92B0044616461F4608BF0225FDF7E4
S3150000CBF038FCC0074FF6FE781CD52046FDF749FCE9
S3150000CC00B0F5006F16D100F02BF9404504D0204650
S3150000CC10FDF727FC80060DD50021204600F040FADE
S3150000CC2000285BD0012805D11722062120460CF0EA
S3150000CC30CBFE2FE0002F14BF152013200121FAF799
S3150000CC40A7FE05212046F8F7C1F900070CD469466E
S3150000CC5020461BF0FFF838B16846FFF7E0FB00F00E
S3150000CC60010080F0010700E001272046FDF711FCD6
S3150000CC70B0F5006F03D0B0F5406F13D029E000F097
S3150000CC80EFF8404508D1C4484268100002D021465A
S3150000CC9000209047012021E000F0E2F812F0F0FCBD
S3150000CCA038420EE02046FDF7FBFB00F01AF8FF289D
S3150000CCB00FD0DFF8DC15096811F81000400708D519
S3150000CCC0002F06D0204608F07AF8401E8041C00F9B
S3150000CCD004E03246294620460CF076FE12B0BDE846
S3150000CCE0F0810146002012F0CBB929462046C1E565
S3150000CCF038B5044625882846FDF7B3FB00F0050045
S3150000CD0004283CD02846FDF7ACFBC00726D52846AC
S3150000CD10FDF7BFFBB0F5006F20D12846FDF7CFFB2E
S3150000CD204FF6FE71884204D02846FDF79AFB80062E
S3150000CD3014D50121284600F0B3F968B101280DD1B8
S3150000CD40A17801F00F01C1F106018840172110FBFF
S3150000CD5001F0A080BA2032BDA92032BD2846FDF7D9
S3150000CD6090FB01280BD1284610F01FFD010002D0D0
S3150000CD702080182032BD20880028FAD132BD00203C
S3150000CD8032BDF8B504460D466E1EB641FDF781FB71
S3150000CD90074605212046F8F719F9F60F00F00700B7
S3150000CDA0032815D12046F7F7ACFE441D20460CF0AB
S3150000CDB01DFB205C04284AD1FCF7F3F9032846D171
S3150000CDC00EB11BF0BAFF2846BDE8F2400AF0C6BC19
S3150000CDD03EBBB7F5006F3AD100F042F8402D06464B
S3150000CDE015D100F035F8C00711D5B0050FD1204692
S3150000CDF0FDF737FB0007354603D5304611F0B8FD81
S3150000CE000546284619F00AFB002119F07EFA4FF66E
S3150000CE10FE7086421BDABDE8F44001210920FAF7CC
S3150000CE20B7BDFF20B7F5404F05D12046FDF738FBCB
S3150000CE30FFF757FF06E0B7F5004F03D100F010F8F3
S3150000CE40F6F73AFBBDE8F440002112F058BAF1BDFE
S3150000CE50DFF840040078704700000000D65F00202D
S3150000CE602046FDF72CBB38B50446FDF712FB0546F8
S3150000CE70DFF804040078032818BF042805D0022828
S3150000CE8012D1FFF7E5FFC0070ED42046FDF7E9FAF9
S3150000CE9000071AD4B5F5006F08D1FFF7E1FFDFF8F8
S3150000CEA0F8130988884210D0002032BDB5F5406FCE
S3150000CEB0FAD12046FDF7F4FA0822DFF8E013F8F776
S3150000CEC00CFE401E8041C00F32BD012032BD2DE94F
S3150000CED0F84381460E46FDF7DCFA00250746B7F50E
S3150000CEE0006F03D14846FDF7EAFA01E04FF6FE70FF
S3150000CEF0002FDFF8AC73DFF8AC431BBF4FF6FF71B2
S3150000CF0088424FF00108A84639786068491C08181D
S3150000CF1060604846FFF7A7FF58B1402E08D1207839
S3150000CF20401C2070C0B2042803DB0720FEF76CFC0F
S3150000CF302570300006D10125B8F1000F0FD0012170
S3150000CF400B2015E0312E08BF0026F5D08D2EF3D12B
S3150000CF50B8F1000F14BF0C200820012108E03000B2
S3150000CF600CBF062007200121FAF712FD39780A20A6
S3150000CF70FAF70EFD3146484608F08EFA50B93146AA
S3150000CF8048460CF051FD28B92A4631464846BDE8C8
S3150000CF90F843F6E6BDE8F18310780020DE5F002056
S3150000CFA0E05F0020E25F002038B504460D460DF034
S3150000CFB00DFA29462046BDE838400022E1E6F8B5DC
S3150000CFC00D460446687AE8B9288805F13007A0F1CD
S3150000CFD008067968E86AB2B2F8F716FDE86A78607A
S3150000CFE02E80387868722046F7F7A3FDA0F1080175
S3150000CFF089B22046F7F7B6FD21462846BDE8F4403B
S3150000D0001AF032BFF1BD30B5054605F47F40B0F5E4
S3150000D0107C4F85B04FF6FF743BD1B5F57C4F02D1FE
S3150000D02017F08AFE36E04FF61040854219DA1022D4
S3150000D03000216846F8F74AFD6946E8B21CF088FC0C
S3150000D040402826DB00224021684618F09BF84FF660
S3150000D050FE75A8421ED1684618F097F8A84219D165
S3150000D06017E04FF63042954204DA05F00F0018F04B
S3150000D07060F90FE04FF6384085420ADA82480088A8
S3150000D080A04206D07F4B1B7803F007031A43954254
S3150000D09000D0204605B030BD1A7D0020187D002046
S3150000D0A02DE9F04196B00D464FF6FF768046ADF875
S3150000D0B0046002A91AF0F1FEA8B3BDF80C00ADF8A1
S3150000D0C0040011F0A1F830B3BDF8040012F0F7FA2D
S3150000D0D0F0B94046FDF7BBF99DF808100844851DD8
S3150000D0E0BDF80A0004A918F036FE4046F7F721FD00
S3150000D0F006464046F7F705FD711B401880B20090C2
S3150000D1002B4604AA002101201CF02CFB0020AEE0D7
S3150000D110BDF80C7091E0BDF80C0011F029FC074633
S3150000D120B742F7D1F2E75B4C5B4F207800073FD55B
S3150000D13004A940461AF08EFE0DF12B0012F05DFB9D
S3150000D140FF2803D012F08BFA074676E00DF12B008C
S3150000D15012F07CFD28B90DF12B0018F01AF8002802
S3150000D16050D001A90DF12B0018F0FCFDE8B1BDF877
S3150000D170040011F049F80028C8D1BDF8040000F4F5
S3150000D1807F40B0F57C4F07D1BDF80400FFF73BFFA9
S3150000D190B042ADF80400B9D0BDF8040011F0E8FBC8
S3150000D1A0B04223D0BDF8047043E02078000704D4D1
S3150000D1B039884046FDF7BFF958E06A4680210DF1EF
S3150000D1C02B001CF0DEFB002851D09DF80000012347
S3150000D1D00DF102020DF1330113F086FF022846D14C
S3150000D1E0BDF8020011F0C4FBB04201D101203EE0BF
S3150000D1F0BDF802104046FDF79EF900F05AF800F01F
S3150000D20053F833E00DF11B010DF12B0018F035F842
S3150000D21006464FF6FE77BE4223D0FBF78DFF8642C9
S3150000D22018BF374605D10DF11B0012F0DFFD0028AF
S3150000D23017D000F03EF800F037F800F03AF8800614
S3150000D24010D54046FDF73BF93946884208BF002D08
S3150000D25008D1BDF8040019F0B1F801211E20FAF733
S3150000D26097FB53E739464046FDF72DF9022016B0E5
S3150000D270BDE8F08118780020BA790020F65F00201A
S3150000D280D003FFFF8275002086750020DA5F00203C
S3150000D290B85A0020BE790020B25D0020E876002052
S3150000D2A0F27D00201C78002040F008014046FDF782
S3150000D2B0DBB84046FDF7D5B810B5DFF8004BDFF810
S3150000D2C0003B2488001B06E010B5DFF8F84ADFF8BB
S3150000D2D0F03A24681B1B03EB4000002304E030F8FF
S3150000D2E0134021F813405B1C9342F8DB002010BD6D
S3150000D2F02DE9F04182B004460D4616460027DFF8B8
S3150000D300C08A01E0BF1CFFB2B74217DAE819E95D2F
S3150000D3104078DFF8A83A1B8801EB0020ADF8000042
S3150000D320012207EBD77004EB6000C01A00F09DFBEA
S3150000D3300100E7D0F6F718F9002000E00120BDE86B
S3150000D340F681F8B504460F46154600260DE000F0B6
S3150000D35019F8BDF8000004EB4601000A48707F1C6E
S3150000D360BDF8000004F81600761CB6EB550FEEDB90
S3150000D370E80706D500F006F8BDF80000611901F8C7
S3150000D380010CF1BD01226946B8B295E7DFF82C2AF7
S3150000D390DFF82C1A1288801A01EB40010220FBF7F5
S3150000D3A057BBDFF8241ADFF8242A095C125CDFF881
S3150000D3B0203A185C10B102F5997292B241EAC21095
S3150000D3C080B27047DFF8003ADFF8082A1B5C012BB1
S3150000D3D01CBF32F81000081802EB4000704738B541
S3150000D3E00C46DFF8F4190D782A462146FFF764FF4C
S3150000D3F0208801001CBF4FF6FF7188420BD0012028
S3150000D40000E0401CC1B2A94207D2C0B234F81010E5
S3150000D41022889142F5D0002032BD012032BDF0B500
S3150000D420DFF8A01987B008600C2269460020FFF7D4
S3150000D4304BFFBDF81600BDF80C200346040A012078
S3150000D44000254FF6FF763DF81570BDF80010B9427D
S3150000D45003D1B74218BF002F00D100206D1C062D46
S3150000D460F1DBB21A914218BF0020DBB2C4F1FF0112
S3150000D4708B4218BF002007B0F0BD2DE9F24F0446DD
S3150000D480DFF858690020307070809CB0DFF85009D2
S3150000D4900088ADF8020007A9FFF7A1FF8346012027
S3150000D4A0707009A9DFF83C090588DFF83C09B0F877
S3150000D4B00080DFF808090788BDF802A03846FFF7A4
S3150000D4C08EFFB8B1BBF1000F3DD0BDF81C10BDF802
S3150000D4D024004FF6FE72914202D1012804D10CE0DD
S3150000D4E0012908BF90422ED00846BDF82410884274
S3150000D4F029D202E0BBF1000F24D000207070029701
S3150000D50050460695CDF810800122DFF8CC1891F828
S3150000D51000804044ADF806006946BDF80600FFF7F6
S3150000D520CBFEDFF8C808008805904FF6FF79BDF8F6
S3150000D5300000000B404518BF0F2801D1200021D064
S3150000D540002516E0012470780028D8D03846CDF89A
S3150000D55008A0CDF818800495D6E7059805FB00F4D9
S3150000D560E01900F051FCBDF80200201800F04CFC58
S3150000D5706D1C4545F1DB012030704D20F5F7F4FFB9
S3150000D5800025F7E0BDF80650012201A92846FFF75D
S3150000D59093FEBDF80400C04300F0FF00ADF80400A0
S3150000D5A06F1CDFF84C080588BDF80400A84218BFB8
S3150000D5B001244FF0000A20E0401CC1B2A94218D253
S3150000D5C0C0B2DFF83018BDF80E20834631F81B10C4
S3150000D5D09142F1D1FFF7E5FE4FF680710840BDF8A4
S3150000D5E00C104FF680721140884204BF1C9800F858
S3150000D5F00BA00AF101001FFA80FABDF8040082456B
S3150000D60007DA022203A9B8B2FFF756FEBF1C0020B4
S3150000D610D3E7002001E0401C80B2A84217DA1C992B
S3150000D620095C8142F7D0012411E02AF81070BDF898
S3150000D630060000EB4300401C00F0DAFABDF80200D9
S3150000D640C0F3C710401C00EBD07007EB60070498CE
S3150000D650DFF880A7BFB287420EDA00F099F8BDF86E
S3150000D6600000484508D0030A00F07F01BDF8040019
S3150000D6707F1C834202DB012400252DE0002000E010
S3150000D680401CA842D3DA1C9A125C9A42F8D1C0B266
S3150000D690FF28CCD0DFF83027125C7F290CBF4FF073
S3150000D6A0000C8C4694450BDABDF800C0DFF820E785
S3150000D6B01EF800E04FEA0C6C4FEADC7CF44501D022
S3150000D6C00124B4E7012AB0D07F293AF8100008BF38
S3150000D6D000210818A9E76D1CDFF81C0700888542A1
S3150000D6E004DA3AF815004845F5D101247780049804
S3150000D6F0BFB2874207DA00F04BF8BDF800007F1C86
S3150000D7004845F4D039E7002CFCD1029801220BA938
S3150000D71080B2FFF7D1FDBDF82C0048450DD105E0DC
S3150000D720401C80B2202813DB2034A4B20699029A4A
S3150000D730891A8C4205DB0120307000201DB0BDE83F
S3150000D740F08FA51820220BA9A8B2FFF7B5FD00207F
S3150000D7500BA931F810104945E2D0A8B2FFF716FE22
S3150000D760203CA4B2E0E70298059905FB010000F011
S3150000D7704BFB6D1C4545F6DB01203070494600F039
S3150000D78046F818B100F035F90028D6D10120D5E7C2
S3150000D7900122694638468FE52DE9F0420F46DFF84B
S3150000D7A05016DFF8285609888F42044616469946D1
S3150000D7B00CD2DFF81416C95D30467F2808BF00205A
S3150000D7C0884203DAE95D894500D11CB940F2D541AA
S3150000D7D000F00AFA31463846FFF7F4FD0188DFF813
S3150000D7E0F005C05D60B1384600F02BFAE95D01290D
S3150000D7F008BF207009D0022914BF2060208004E0F1
S3150000D8004A462046BDE8F0429BE5BDE8F0822DE998
S3150000D810F34FDFF8A805DFF8C0150488DFF8BC056C
S3150000D8200978407883B000281ABFDFF8B40500886D
S3150000D83020460D18DFF8B8050088ADF80800ADB22F
S3150000D840C04300F0FF0000EB013000F55060ADF87A
S3150000D85002002B1BDFF8680501220DF1020100F022
S3150000D860D7FA6E1C0100B6B23AD10025DFF88475EE
S3150000D87013E0E8B2FFF795FDADF80400331B37F867
S3150000D8801500ADF806000222DFF8340500F0BFFAF5
S3150000D890010025D1B61CB6B26D1CBDF80800854244
S3150000D8A0E7DB002500E06D1CBDF80800854280F22C
S3150000D8B09B80DFF81C05405D8DF80A004FF0000ADA
S3150000D8C01BE001220DF102011FFA89F0FFF7F4FCBB
S3150000D8D0BB19DFF8EC0400F091F9010009F1010928
S3150000D8E07AD17F1CFFB2B7EB1B6FEADBDFF80C05C2
S3150000D8F0405D3618B6B20AF1010ADFF8CC04475D7E
S3150000D9005FFA8AF0B842CED25FFA8AF1E8B2FFF740
S3150000D91059FD80469DF80A00B8F80090C00140EA1B
S3150000D9200520ADF80000012FBDF800000EBF40F045
S3150000D9307F005FFA8AFA4AEA0000ADF80000311B60
S3150000D940DFF87C0400EB41004FF6FF71771C894538
S3150000D9501EBFBDF80010BDF810209142BFB219D10C
S3150000D9609DF80C100029C6D001226946FBF7ACF8D9
S3150000D97001003E4630D1DFF85404A8F80060425D4D
S3150000D980DFF87C0450F825103046FFF7B1FC00287C
S3150000D990ACD124E0DFF83414495D491C01EBD171A8
S3150000D9A04FEAC15B01226946FBF78EF801003E464D
S3150000D9B012D1A8F800609DF80A0098B14946E8B26D
S3150000D9C000F03FF90190331BDFF8F4034FEA1B62C6
S3150000D9D000F01DFA010089D0F5F7C6FD002005B05C
S3150000D9E0BDE8F08F00277DE7DFF8F00346800120D1
S3150000D9F0F5E7DFF8EC032DE9F0410688DFF8BC0314
S3150000DA00DFF8D85304886878DFF8B483002882B03A
S3150000DA1012BF20463046264601226946FFF74CFCD7
S3150000DA20BDF8000001280CBF4FF6FE70401EADF891
S3150000DA300000DFF8A40307783846471E80B258B1C5
S3150000DA4016FA87F0001B012200F00FF80100F3D050
S3150000DA50F5F78AFD002006E0687880F0010068701E
S3150000DA60002028700120BDE8F681694608EB4000D9
S3150000DA70FBF72AB82DE9FE4F0D46DFF87413098827
S3150000DA808842044617461E464FF000094FF001082B
S3150000DA900CD2CD49095D38467F2808BF0020884250
S3150000DAA004DACA49095D8E4200D11DB940F2F95126
S3150000DAB000F09AF839462046FFF784FC0190C74FDC
S3150000DAC0787820B1C748B0F800A0BC4803E0C64843
S3150000DAD0B0F800A0C2483978008849B97988081A90
S3150000DAE0C84909888842B4BF43204420F5F73CFD65
S3150000DAF001980188B648005DF8B1204600F0A1F80B
S3150000DB00012E08BF297803D0022E0CBF2988296868
S3150000DB10814267D001980088401E00F069F8B74836
S3150000DB20065D7888AAF10101891B814201DB002884
S3150000DB3037D1387868BB452046E00291CB4622E0D3
S3150000DB4002980BEBDB7300EB630000F0F3F805EBD8
S3150000DB500B0015F80B10407801EB0020711E8B4569
S3150000DB6080B207D1BDF8001001F0FF0100F0FF0000
S3150000DB70ADF80010BDF8001088420BF1020018BF86
S3150000DB80C8465FFA80FBB345DADBB8F1000FC1D0B7
S3150000DB9028E0BDF802100020FFF739FE10B34FF061
S3150000DBA0010978888949401C788080B20A5D294637
S3150000DBB0FFF79EFBB0B1814C7B88248880485B1EB2
S3150000DBC000F01CF8010002D0F5F7CEFC0AE0B9F12E
S3150000DBD0000F02D0FFF70DFF20B101997888088069
S3150000DBE080197880BDE8F78F0FF22C20F2F794BDEC
S3150000DBF001220DF1020180B2FFF75EBB1B1B012261
S3150000DC000DF1020100EB4300FAF75EBF70B582B07A
S3150000DC1004460025192601226946A0B2FFF74CFBEF
S3150000DC20BDF80000641C20B14FF6FF71884203D096
S3150000DC3004E06D1C761EEED168B276BDE84340B2B4
S3150000DC4076BD38B50C460021009160490D5C2A4628
S3150000DC5021466846FFF775FB681C00EBD07004EBA5
S3150000DC60600080B2FFF7D2FF0028009948BFC0438A
S3150000DC7041FA80F032BDF0B55D4909880446554841
S3150000DC8083B0264630F816508C4202D25048805D4A
S3150000DC9018B940F23D71FFF7A7FF4C48865D701C2E
S3150000DCA000EBD07005EB6007B8B2FFF7AFFF19289D
S3150000DCB00FD210FA87F0414F414B3F880021ADF853
S3150000DCC00410C01B012201A903EB4000FAF7FCFE79
S3150000DCD060B129462046FFF7B4FF00903346401C4A
S3150000DCE000907F2269462046FFF7C4FEF7BD70B557
S3150000DCF03A48017882B00024D1B94078002814BF90
S3150000DD0037482E480588344806780CE0284650FAED
S3150000DD1086F000F00FF8BDF8000000281EBF4FF691
S3150000DD20FF718842641C3046461EC0B20028EDD101
S3150000DD30E0B276BD0122694680B2FFF7BDBAF8B5FA
S3150000DD40264C20780027002835D11C4805886078A5
S3150000DD5000281ABF224806882E461F4807783846EC
S3150000DD60471EC0B202281FDB304650FA87F0FFF785
S3150000DD70E1FFBDF800000028F1D01C480088FFB282
S3150000DD8007FB006000F040F80020ADF80000BB196A
S3150000DD900B485B1B0122694600F03AF8010018BFE8
S3150000DDA0F5F7E2FB3846F2BD3046FFF7EFFAF8B278
S3150000DDB008B901202070F8B2F2BD0000E895030012
S3150000DDC000E003000075002098920300889203008B
S3150000DDD07892030028620020E4950300107D00205D
S3150000DDE0EC950300EA950300EE950300E695030023
S3150000DDF0F29503005C920300F4950300F895030086
S3150000DE00AC950300F095030080B2FFF7BFBA01A9F5
S3150000DE1000EB4300FAF758BE73696D2D65657072A5
S3150000DE206F6D2D696E7465726E616C2E63000000F5
S3150000DE307FB504460E22FF216846F7F747FE1A4EC5
S3150000DE404222FF213046F7F741FE0E2500201749F2
S3150000DE500A5C012A1CBF26F810505519401C0E28D2
S3150000DE60F6DB0FF24C054FF4E040FFF7D8FA18B195
S3150000DE709D212846F2F750FC4FF48040FFF7CFFA79
S3150000DE8018B19F212846F2F747FC4FF48050FFF760
S3150000DE90C6FA18B1A1212846F2F73EFC694620468B
S3150000DEA0FFF7EBFA04B070BD2862002098920300D9
S3150000DEB073696D2D656570726F6D2E6300000000CD
S3150000DEC072B61EF0080F08D01EF0040F0BD0DFF854
S3150000DED048E0AEE8FF1F11480AE0DFF83CE0AEE894
S3150000DEE0FF1F0F4804E0DFF830E0AEE8FF1F0D48E3
S3150000DEF06946EFF309828EE8070086460A480B4C0E
S3150000DF00854501D3A54501D384F30888F2F71DFCA6
S3150000DF1084F30888F4F748F804000020FDFFFFFFAB
S3150000DF20F1FFFFFFF9FFFFFFA0490020385800204E
S3150000DF3080B500F00CF82249224A0968C1F308218D
S3150000DF40491CB0FBF1F0106002BD1F4870471F4925
S3150000DF501F480A6802F00702022A09D00AD3042AD7
S3150000DF6001D002D306E0406805E04FF4004002E02D
S3150000DF70006800E08068C96EC1F30421491CB0FB4B
S3150000DF80F1F07047124800687047114908600F4861
S3150000DF90006800F00700022808BFFFF7C9BF7047F6
S3150000DFA00C48016841F47001016070474FF400406D
S3150000DFB070474FF47A707047054840687047000014
S3150000DFC008410E40A85A002000F0490294400E4035
S3150000DFD09C5A002088ED00E0890001EB401000F11A
S3150000DFE084400260704700F1806300F1C0601960F0
S3150000DFF0026070473023464A584310440C3000F103
S3150000E000806006E03023424A584310440C3000F149
S3150000E010C060012202FA01F1016070473D490A68B9
S3150000E020920840EA8200086070472DE9F04101F04D
S3150000E0300308144603270F21082C1D460CD2A60000
S3150000E04000FA06F2B1403448FFF7CDFF08FA06F2AF
S3150000E05007FA06F131480DE0A4F10802960000FA2D
S3150000E06006F2B1402E48FFF7BEFF08FA06F207FA9D
S3150000E07006F12C48FFF7B7FF2A4621462A482B4DC2
S3150000E080FFF7AAFF069A21462846FFF7A5FF0120BB
S3150000E090A04028612146079A2548BDE8F0419BE744
S3150000E0A0F8B50446164630000D461F4607D0002F29
S3150000E0B0204602D0FFF7A6FF01E0FFF79BFF3021C5
S3150000E0C00F22134811FB04F1082D084405D2AB00BA
S3150000E0D0416800F015F8416006E0A5F108039B00D1
S3150000E0E0816800F00DF881604EB9002F2946204660
S3150000E0F002D0BDE8F44085E7BDE8F4407AE7F1BD1B
S3150000E1009A4021EA020206FA03F111437047000021
S3150000E11000A0004044A4004000A4004008A4004021
S3150000E12004A400400CA4004010A4004014A4004025
S3150000E13028A4004010B5DFF85441DFF85411E1611E
S3150000E1400320206160611022226200220FF2441037
S3150000E150A061A2622066626201F110006066E2625E
S3150000E1601020A0662267E26662672AA10422E01DEB
S3150000E170F4F742FA07220FF228112046F4F74CFA78
S3150000E1802020A07110BD2DE9F843DFF80071064686
S3150000E19038788946904608B9FFF7CCFF18207043B7
S3150000E1A0384400F1600600253769F468BC4212D293
S3150000E1B0B068C51B7068454588BF4546C1192A46E3
S3150000E1C04846F4F719FAB068EF198742A944A8EB54
S3150000E1D0050808BF0027E41B444588BF44463CB1F8
S3150000E1E07068C11922464846F4F706FA6519E71918
S3150000E1F005B137612846BDE8F283F8B504460D46F9
S3150000E2001646F4F775FC0746324629462046FFF7C0
S3150000E210BAFF01E05254540004463846F4F7A5FC10
S3150000E2202046F2BD2DE9F84300F027F808B9FFF7BC
S3150000E23081FFF4F75DFC79690026182202FB06F3DC
S3150000E240FB185B6E13B1761C8E42F7DB8E420CDA3E
S3150000E25002FB06F1791800220C664D66C1F868804B
S3150000E2600A67CA66C1F8749001E04FF0FF36FFE70F
S3150000E270F4F77BFC3046BDE8F283044F0446387859
S3150000E2800D4690469946704754E70000006000200E
S3150000E2902C7300205465726D696E616C000000007D
S3150000E2A053454747455200000A46090241EA1221F2
S3150000E2B04840C0F30311484080EA0030410102069D
S3150000E2C0C9B2D20E41EA0221484080B2704700002E
S3150000E2D0820707D010F8012B11F8013BBAB19A4218
S3150000E2E0F6D014E002680B689A42A2F1013301BF2E
S3150000E2F0934313F0803F50F8042F51F8043FF3D0B6
S3150000E30010F8012B11F8013B0AB19A42F8D0D01A45
S3150000E310704700000188481E8041C00F704738B51D
S3150000E3200446002554B1002100F009F803E0204618
S3150000E33000F034F86D1C0100F9D1A8B232BD008896
S3150000E34002001CBFC9B2F6F782BC002070472DE957
S3150000E350F04104460D4627883800164608BFA846F1
S3150000E36008D0F1B2F6F773FC80462A46F1B2384679
S3150000E370F6F784FC424600F003F82580BDE8F081FC
S3150000E380F1B22846F6F77ABC38B50446002225884D
S3150000E390FFF7DDFF280018BF258031BD00888142C8
S3150000E3A00A4601D10020704700211046F6F74FBCFF
S3150000E3B0F8B504460D462688300001D10020F2BD8E
S3150000E3C0C9B2F6F744FCB042074602D100202080CD
S3150000E3D007E0E9B2F6F73BFC0246E9B23046F6F74B
S3150000E3E04DFC2A4600213846F6F748FC3846F2BD71
S3150000E3F02DE9F84304468846278816460FB90020BB
S3150000E40026E03D462846F6F794FB814605E005469C
S3150000E410F6F78FFB48441FFA80F9F1B22846F6F763
S3150000E42016FC404511D1F1B2F6F711FC0246FFF792
S3150000E430A7FF474503D1BD4208BF0025258000221E
S3150000E440F1B24046F6F71AFC01E0B842DFD1484681
S3150000E450BDE8F2832DE9F8430D46044690462F4663
S3150000E46005E041462046FFF7A3FFBF1BBFB28FB1B1
S3150000E470208878B141462046FFF761FF8146F6F7CE
S3150000E48058FB0646B742ECDAF11B89B24846F6F766
S3150000E490B4FB0027E81B80B2BDE8F2832DE9F04704
S3150000E4A00C460788200092461E46B84623D00FF237
S3150000E4B06C193FB9C92102E0B84503D1D6214846B7
S3150000E4C0F2F72AF9F1B24046F6F7C1FB8046F6F7B5
S3150000E4D030FB0546A1B28D4288BF0D464046F6F791
S3150000E4E010FB01462A465046F7F78EFA641BA0B287
S3150000E4F00028AA44E0D1BDE8F08770B50446258817
S3150000E500280008D00121F6F7A2FB064600220121C9
S3150000E510FFF737FF268070BD2DE9F84F0D460446FC
S3150000E52090461F460021FFF70AFF8146002603E0BA
S3150000E530494600F045F881465FEA090019D0F6F72A
S3150000E540E0FA83464846F6F7F4FA0BEB000A02E0D7
S3150000E55060888344761CD3453EBFA188B0B288420A
S3150000E560E6D241465846A8470028F1D007B13E807A
S3150000E5705846BDE8F28F70B504460D46A0880100E6
S3150000E5801CD0401EA84219DB00212046FFF7D7FE0B
S3150000E5900646608815FB00F504E02D1A314600F0AA
S3150000E5A00FF80646300009D0F6F7C3FAADB2854239
S3150000E5B0F3DA3046F6F7A5FA284470BD002070BDA0
S3150000E5C02046EBE670B504460D46E088010009D00A
S3150000E5D0401EE0802046A188491CA180491EBDE856
S3150000E5E07040C8E7608810FB05F0002180B2F6F79E
S3150000E5F09EFB060001D1002070BD00223146204658
S3150000E600FFF7A5FEA088401CA080681EE08030466B
S3150000E610BDE87040F6F775BA0000000062756666E0
S3150000E62065722D71756575652E6300000020704753
S3150000E630704700207047704770477047704700006A
S3150000E6403023DFF8E829584310440C3000F180608D
S3150000E65007E03023DFF8D429584310440C3000F18A
S3150000E660C060012202FA01F1016070471CB50093F7
S3150000E6701346049C01940A46FFF7D7FC13BD1930D4
S3150000E680017E02290FD10278DFF8A0190079302324
S3150000E6905A4311441C31800000EB411000F18440C4
S3150000E6A00068C0B270470020704738B50022DFF816
S3150000E6B0801901EB820149684B7F834203D0521CCB
S3150000E6C0042AF4D331BD21B301F12E04E0780228E7
S3150000E6D01FD10D1D0846FFF7D2FF2874687C02285B
S3150000E6E004BF2078002814D100F01AFE1BF049FA66
S3150000E6F0297C09B1617829B10020607028681BF077
S3150000E7000FFA31BD28B99DF8000010B128681BF03A
S3150000E710F9F931BD10B5044604F1140082B0417F09
S3150000E720022910D141780A0003D0012906D00178C8
S3150000E73021B9817A8079FFF783FF18E0817A8079A1
S3150000E740FFF787FF13E0012911D1007800280CBFDD
S3150000E750112013208DF80000204600F0F0FF012262
S3150000E7606946204600F067FF204601F02DF800209C
S3150000E77016BD2DE9F041044688461646F4F7B8F969
S3150000E7800546A088E188884207D3002030602846E5
S3150000E790F4F7EBF9DFF8A0081CE02088142778438B
S3150000E7A02044142241460830F3F726FF2088784398
S3150000E7B02044083030602088E188401C90FBF1F24C
S3150000E7C001FB12002080A088401CA0802846F4F798
S3150000E7D0CCF90020BDE8F08138B504460D46F4F7C3
S3150000E7E087F9A18809B9296024E061881422514378
S3150000E7F02144083129606188E288491C91FBF2F3C3
S3150000E80002FB13116180A188491EA1800EE038B574
S3150000E81005460C46F4F76CF9A98809B9216009E0A8
S3150000E820698814225143294408312160F4F79DF97F
S3150000E830002032BDF4F799F9DFF8400932BD90F8AF
S3150000E84032100A000BD102680121D160006801690B
S3150000E850C907FCD5416F41F00101416770470129A5
S3150000E8600ED10168496C8907FBD402680121516009
S3150000E87000688168C907FCD5416D41F00101416519
S3150000E880704790F832100A0008D101684A6F5208A2
S3150000E89052004A6702210068C160704701290CD105
S3150000E8A00168496C8907FBD40168496D026849080B
S3150000E8B049005165022100684160704710B500F1BA
S3150000E8C02C0286B00123137093791C0013D10268C1
S3150000E8D0049002F11C030FF27102039200220292CD
S3150000E8E04A680192012200920A68016980681BF059
S3150000E8F0EEF806B010BD012BE9D000201070F8E745
S3150000E90010B500F12D0286B00123137053791C0057
S3150000E91012D1026834320FF21D13039304900023C0
S3150000E92002934B680193012300930B68C16840680A
S3150000E9301BF0C7F806B010BD012B02D102682832C1
S3150000E940E9E700201070F5E7F8B514466946606AF5
S3150000E950FFF75DFFDFF82418884262D004F12C052A
S3150000E960DFF84418A879020008D12268126C9205D3
S3150000E97004D500F058F84FF4007015E00246012A5D
S3150000E98007D12368DB6A1B0603D500F04CF880200C
S3150000E99016E0DFF8181850B92068006CC00506D5D7
S3150000E9A000F041F84FF48070216888640DE0012A78
S3150000E9B009D12068C06A400605D500F034F8402029
S3150000E9C02168486301E000F062F8F4F791F8064622
S3150000E9D00098C768380009D000980099406889688F
S3150000E9E0431A0098026801692046B847606A69467A
S3150000E9F0FFF7F2FE606A818821B100F074FD00F035
S3150000EA00D5FE0CE0012020752046FFF783FE00208E
S3150000EA102870687903281CBF2046FFF732FF00F0F4
S3150000EA2015FF0120F2BD0098016100200099886061
S3150000EA3070470000F8B5144604F1280569462868B1
S3150000EA40FFF7E5FEDFF8681788421ED000F01FF8D2
S3150000EA50F4F74EF806460098C768380005D00098C7
S3150000EA604368026800212046B84728686946FFF7D0
S3150000EA70B3FE2868818821B100F035FD00F0E1FE83
S3150000EA8001E00020687100F0E1FE0120F2BD00996E
S3150000EA900020086100998860704710B9DFF86C089B
S3150000EAA07047002918BF002A02D0B2F5006F02D9BC
S3150000EAB0DFF85C0870470020704710B50368DFF880
S3150000EAC05448FF22A34240F060810B7A1C0018BF15
S3150000EAD0012B07D0022B18BF032B03D0042B18BF22
S3150000EAE0052B01D100233AE0062B18BF072B04D0D3
S3150000EAF0082B1CBF092B0A2B01D101232FE00B2B5E
S3150000EB0018BF0C2B07D00D2B18BF0E2B03D00F2BC5
S3150000EB1018BF102B01D1022321E0112B18BF122B95
S3150000EB2008D0132B18BF142B04D0152B1CBF162B83
S3150000EB30172B01D1032312E0182B18BF192B0BD06A
S3150000EB401A2B18BF1B2B07D01C2B18BF1D2B03D04D
S3150000EB501E2B18BF1F2B01D1052300E0FF23C37511
S3150000EB604B7A1C0018BF012B40D0022B1CBF032B75
S3150000EB70042B3BD0052B18BF062B04D0072B1CBF3C
S3150000EB80082B092B01D1012333E00A2B18BF0B2BCD
S3150000EB9007D00C2B18BF0D2B03D00E2B18BF0F2B35
S3150000EBA001D1022325E0102B18BF112B08D0122B00
S3150000EBB018BF132B04D0142B1CBF152B162B01D1F9
S3150000EBC0032316E0172B18BF182B0BD0192B18BFD1
S3150000EBD01A2B07D01B2B18BF1C2B03D01D2B18BFBD
S3150000EBE01E2B01D1052304E01F2B01D1002300E0D9
S3150000EBF0FF2303760B7A1C003ED0012B18BF022B95
S3150000EC0059D0032B1CBF042B052B54D0062B1FD029
S3150000EC10072B21D0082B23D0092B25D00A2B27D050
S3150000EC200B2B41D00C2B43D00D2B08BF082342D011
S3150000EC300E2B05D00F2B07D0102B09D0112B01D18D
S3150000EC40092338E0122B01D10A2334E0132B01D11A
S3150000EC500B2330E0142B01D10C232CE0152B01D112
S3150000EC600D2328E0162B01D10E2324E0172B01D10A
S3150000EC700F2320E0182B01D100231CE0192B08BF1D
S3150000EC80012318D01A2B08BF022314D01B2B08BF50
S3150000EC90032310D01C2B08BF04230CD01D2B08BF48
S3150000ECA0052308D01E2B01D1062304E01F2B01D11A
S3150000ECB0072300E0FF23C3764B7A1C003FD0012BCD
S3150000ECC041D0022B43D0032B45D0042B47D0052B34
S3150000ECD01FD0062B21D0072B23D0082B25D0092B9C
S3150000ECE027D00A2B3FD00B2B41D00C2B08BF082274
S3150000ECF042D00D2B05D00E2B07D00F2B09D0102B91
S3150000ED0001D1092238E0112B01D10A2234E0122B5D
S3150000ED1001D10B2230E0132B01D10C222CE0142B55
S3150000ED2001D10D2228E0152B01D10E2224E0162B4D
S3150000ED3001D10F2220E0172B1DD0182B01D1012263
S3150000ED401AE0192B01D1022216E01A2B01D1032257
S3150000ED5012E01B2B01D104220EE01C2B01D105224F
S3150000ED600AE01D2B01D1062206E01E2B01D1072247
S3150000ED7002E01F2B00D1002202774A7C42768A7C71
S3150000ED804277CA7C8276097D58E1DFF87448A3424F
S3150000ED9040F04B810B7A1C0018BF012B07D0022BC9
S3150000EDA018BF032B03D0042B18BF052B01D100235A
S3150000EDB03AE0062B18BF072B04D0082B1CBF092BE3
S3150000EDC00A2B01D101232FE00B2B18BF0C2B07D0E8
S3150000EDD00D2B18BF0E2B03D00F2B18BF102B01D1F4
S3150000EDE0022321E0112B18BF122B08D0132B18BFBA
S3150000EDF0142B04D0152B1CBF162B172B01D1032364
S3150000EE0012E0182B18BF192B0BD01A2B18BF1B2B6F
S3150000EE1007D01C2B18BF1D2B03D01E2B18BF1F2B72
S3150000EE2001D1052300E0FF23C3754B7A1C0018BFF0
S3150000EE30012B40D0022B1CBF032B042B3BD0052BF0
S3150000EE4018BF062B04D0072B1CBF082B092B01D19A
S3150000EE50012333E00A2B18BF0B2B07D00C2B18BF4E
S3150000EE600D2B03D00E2B18BF0F2B01D1022325E04B
S3150000EE70102B18BF112B08D0122B18BF132B04D040
S3150000EE80142B1CBF152B162B01D1032316E0172BB1
S3150000EE9018BF182B0BD0192B18BF1A2B07D01B2BFA
S3150000EEA018BF1C2B03D01D2B18BF1E2B01D1052309
S3150000EEB004E01F2B01D1002300E0FF2303760B7A29
S3150000EEC01C003ED0012B18BF022B59D0032B1CBFB0
S3150000EED0042B052B54D0062B1FD0072B21D0082B33
S3150000EEE023D0092B25D00A2B27D00B2B41D00C2B56
S3150000EEF043D00D2B08BF082342D00E2B05D00F2B75
S3150000EF0007D0102B09D0112B01D1092338E0122B81
S3150000EF1001D10A2334E0132B01D10B2330E0142B4B
S3150000EF2001D10C232CE0152B01D10D2328E0162B43
S3150000EF3001D10E2324E0172B01D10F2320E0182B3B
S3150000EF4001D100231CE0192B08BF012318D01A2B6E
S3150000EF5008BF022314D01B2B08BF032310D01C2B81
S3150000EF6008BF04230CD01D2B08BF052308D01E2B79
S3150000EF7001D1062304E01F2B01D1072300E0FF2364
S3150000EF80C3764B7A1C0038D0012B39D0022B3AD0ED
S3150000EF90032B3BD0042B3CD0052B1DD0062B1ED0BB
S3150000EFA0072B1FD0082B20D0092B21D00A2B33D0BA
S3150000EFB00B2B34D00C2B08BF08223FF4DDAE0D2BF3
S3150000EFC004D00E2B05D00F2B06D0102B3FF499AE94
S3150000EFD0112B3FF49AAE122B3FF49BAE132B3FF44A
S3150000EFE09CAE142B3FF49DAE152B3FF49EAE162B14
S3150000EFF03FF49FAE172B17D0182B3FF4A0AE192B5A
S3150000F0003FF4A1AE1A2B3FF4A2AE1B2B3FF4A3AEE6
S3150000F0101C2B3FF4A4AE1D2B3FF4A5AE1E2B3FF4D4
S3150000F020A6AE1F2B7FF4A8AEA5E603E000A0004025
S3150000F03094620020B64810BD0A7000F08177002067
S3150000F04010BD10B500F1170482B00A0021792078AE
S3150000F0501DD001230422FFF723F86179607801238C
S3150000F0600222FFF71DF8A07E022809D100F034F82D
S3150000F070E179E07800230422FFF712F8012017E077
S3150000F080032827D100F028F8002304221EE00023DD
S3150000F090FFF706F86179607800F026F8A07E02286E
S3150000F0A00ED100F01FF8E179E07800F01DF800209D
S3150000F0B0009001230122A179A078FFF7D7FA09E091
S3150000F0C0032807D100F00EF800230022E179E0784A
S3150000F0D0FEF7E6FF002016BDA179A07800230122E5
S3150000F0E0FEF7DEBFA179A07800230022FEF7D8BF85
S3150000F0F010B5DFF874170A7842B9002301EB8204D1
S3150000F100521C042A6360F9D301220A70002201EB23
S3150000F11082035C68002C18BF844202D1586000202C
S3150000F12010BD521C042AF2D3DFF8400710BD40F888
S3150000F130241F002103681980036859800368998099
S3150000F140017242601180426851804268918041722A
S3150000F150C172704710B50446F8F717F9607FDFF8FB
S3150000F1601017F8F720F90020A075207502206075A9
S3150000F1702046BDE81040FFF7CDBA00000B7000F046
S3150000F18038B504461AF074FC0021201D1AF010FC54
S3150000F190DFF8E05628B9002104F108001AF008FC4F
S3150000F1A000B1284632BD00000D7000F00C7000F072
S3150000F1B00B7000F0F0B587B004460D4668460FF2B6
S3150000F1C0E4611C22F3F728FA0CB950489CE0002DA4
S3150000F1D05ED034212046FAF773FC2046FFF788FFFD
S3150000F1E00700F3D104F13100297C01702968216000
S3150000F1F0002141702868474988423CD1DFF87806EB
S3150000F2002062DFF87806E0604FF440202061EA696A
S3150000F210A9692046FFF78BFF68680290012168897B
S3150000F220ADF81000A889ADF80E00A87B8DF80C008B
S3150000F230E87B8DF8120005208DF80D00DFF84006FA
S3150000F240F4F7C2FA00F078F8206A0121F4F7BCFA64
S3150000F25000F065F800F067FB2868DFF82826032130
S3150000F2604167816F00F061F8816720462946FFF704
S3150000F27024FC78B148E0DFF88813884208D1DFF82B
S3150000F28008062062DFF80406E0604FF45020BDE770
S3150000F2901F4839E000F040F8002835D1F3F728FC84
S3150000F2A00646287C032810D12868416F41F03001BA
S3150000F2B04167416E41F00401416695F8212095F8B9
S3150000F2C0201041EA0221C16704E0022804BF20465B
S3150000F2D0FFF740FF28684FF0FF318164297C03293E
S3150000F2E00CBF0521042100F017FB29684FF440608C
S3150000F2F0C8601AF0BDFB2046FFF742FF00F0A5FAF2
S3150000F300002F14BF3846002007B0F0BD027000F091
S3150000F310037000F0000001400121204691E6002024
S3150000F3208DF8000069462868704711402A7A41EA3C
S3150000F33002216A7A114370470121DFF85405F4F778
S3150000F34043BA38B5040002D1DFF8200532BD0321E7
S3150000F35000F03CF80021204600F043F90021FFF7B9
S3150000F360DCFF04F131056878010006D1216802202E
S3150000F370C86008202168C8600AE0012808D1206812
S3150000F38000F064FB2068416C8907FCD40A214160C7
S3150000F3900021206AF4F718FA2878032803D0607F42
S3150000F3A00021F8F700F860681AF048FBA0681AF028
S3150000F3B045FB1AF024FB606A0021018041808180B0
S3150000F3C0A06A018041808180002032BD2DE9F04392
S3150000F3D05FEA000883B00D4608BFDFF890047BD0D3
S3150000F3E0F3F786FB012D814608F12C0608F1040788
S3150000F3F0DFF8A04415D1786A808810B338681AF00F
S3150000F400A7FB00207070786A818879B300F06BF8EA
S3150000F410009800F1080138681AF0D6FB00980461DC
S3150000F42020E0022D03D1386A808840BB09E0032D15
S3150000F43023D1786A8088002802BF386A808800282D
S3150000F440DCD14846F3F791FBDFF84C0444E069460B
S3150000F450FFF7C2F90098D0F80CC0BCF1000F01D03C
S3150000F46000F03CF8786A81880029F0D1404600F027
S3150000F4703DF88004FAD5022D01D0032D28D17868F5
S3150000F4801AF066FB00203070386A8188D1B101A974
S3150000F490FFF7BDF9019800F1080178681AF094FBAE
S3150000F4A0019804610AE001A9FFF796F90198D0F8DE
S3150000F4B00CC0BCF1000F01D000F010F8386A81884A
S3150000F4C00029F0D1707903281CBF4046FFF7D9F90F
S3150000F4D04846F3F74AFB0020BDE8FE838368002216
S3150000F4E02146404660476946FFF791B990F83220B9
S3150000F4F00021130002D1006801691EE0012A1CD117
S3150000F50000688068820748BF0221C20748BF41F0F1
S3150000F5100101420748BF41F00801020748BF41F018
S3150000F5202001C20648BF41F04001820648BF41F0B3
S3150000F5308001400648BF41F4005108467047406AC2
S3150000F5401CE02DE9FC4100F046F8606A8188164609
S3150000F5501F4671B1FFF7C7FF8046A06801A91AF0E0
S3150000F56033FB009828B1B8F1000F02D100F02AF859
S3150000F57002E00020386030601EE0806A8088C0B2F9
S3150000F58070472DE9FC4100F026F8A06A81881646EE
S3150000F5901F4671B1FFF7A7FF8046606801A91AF000
S3150000F5A013FB009828B1B8F1000F02D100F00AF859
S3150000F5B002E000203860306028602046FFF796FFA2
S3150000F5C0BDE8F68140680199401A306001983860BC
S3150000F5D000980068704704460020009001900D4690
S3150000F5E0704700F11402537F032B02D1DFF8AC02FF
S3150000F5F070475170022918BF1170FFF78BB80000D1
S3150000F6000004014010B500F11602D37E012B01D192
S3150000F610022900D1EFE014788C4208D0117011B99C
S3150000F62000F0D2F803E0012908BF00F088F80020B6
S3150000F63010BD007D70472DE9F04104468846164608
S3150000F640FFF72BFA002878D109201AF0CFFB0546E0
S3150000F65004F12E0702E00DB11AF0CAFAA06A8088FA
S3150000F66010B138780028F6D03879010002D1216827
S3150000F670096905E0012818BF002522D1216889689B
S3150000F68011F002051DD101000BD121680420C860CC
S3150000F690206801698907FCD5416F41F00201416785
S3150000F6A00FE001280DD12068416C8907FBD40421A5
S3150000F6B04160206881688907FCD5416D41F00201EF
S3150000F6C041650120B8703879010006D0012819D1AA
S3150000F6D010E018F8011B00F098F931464E1E20681C
S3150000F6E00029F6D101698906FCD50BE018F8011B43
S3150000F6F000F0C5F931464E1E20680029F6D1816812
S3150000F7000907FCD5C5B93879010008D12068416FD1
S3150000F71021F00201416708202168C8600CE0012839
S3150000F7200AD12068416C8907FBD4416D21F00201A2
S3150000F73041650820216848600020BDE8F08110B5C9
S3150000F740040001D1FFF7F0BC94F82E0030B9204632
S3150000F750FEF795FF10B960681AF0D4F994F82E00F8
S3150000F760401C84F82E00002010BDF0B587B000F0D4
S3150000F77070F8A0B900F061F800F01CF8049700F0EA
S3150000F78010F860B9287E48B92046FFF758F800F00F
S3150000F7900DF8687F032801D000F011F8002007B0AB
S3150000F7A0F0BD6A46286901A9FEF7E3BF0099204625
S3150000F7B0FFF784B804F11405394805907047002016
S3150000F7C028702046FEF7A6BF10B5040001D1FFF74A
S3150000F7D0ABBC94F82E0070B194F82E00012806D127
S3150000F7E02046FEF74CFF10B960681AF099F994F8B4
S3150000F7F02E00401EB5E7294810BDF0B587B000F0D1
S3150000F80028F8C0B900F019F800F029F804976A46FC
S3150000F8102868FFF7C8FF70B9687958B9F3F768F92F
S3150000F82006462868808818B100F00BF80120287277
S3150000F83000F00CF8002007B0F0BD01950296039683
S3150000F840704700992046FFF75BB807463046F3F746
S3150000F8508CB904460D4616461F46FFF71EB904F13D
S3150000F86028050F480590704794620020027000F04A
S3150000F870ABE600000E7000F00032040001000C0040
S3150000F88040410500E0E0FFFF0042040001000D00DA
S3150000F89000250800097000F0087000F0057000F0FF
S3150000F8A0017000F0050000000000000000C2010029
S3150000F8B0000500000010000000000000000000002D
S3150000F8C070B50446080015461E4604BF4548F3F7C2
S3150000F8D0ABFF310006D0202E18D0402E18D0602E57
S3150000F8E018D070BD1021226822F0600222606943A0
S3150000F8F02268324322604A0802EB4010B0FBF1F066
S3150000F9002038394901EAC000606170BD0821EAE784
S3150000F9100621E8E70421E6E7CA43520002F00A029C
S3150000F920C260C160704738B504460D4600F039F82C
S3150000F930A87C18B1206840F080402060E87C18B1AF
S3150000F940287D40F08000A065687BB5F9101008435B
S3150000F950B5F90E10084360602B7BAA6869682046DB
S3150000F960FFF7AEFF00F00CF8606F20F03000606724
S3150000F970606F297E08436067FFE72878E06031BD45
S3150000F980A87DE97D0007090500F0E04001F4E001EB
S3150000F99008432066687D18B1206840F480302060F6
S3150000F9A0704740F6AA61C1600021016041F205017D
S3150000F9B04160002181604161C1640C4A0C49816447
S3150000F9C0002141678167C16790420A4912BF884298
S3150000F9D00022026500228265884204BF06490A6049
S3150000F9E07047000040410500F8FF7F00000001401D
S3150000F9F0F9FF0100000401405C04014001690906A9
S3150000FA00FCD5FFE7C069C0B2704702695206FCD553
S3150000FA1041637047026CD20702D4426C0A42FCD1A1
S3150000FA20704738B500F00EF8E843400000F00A00D1
S3150000FA302843606031BD19B1416C0029FCD1012118
S3150000FA40016470470D4604460221E3E710B50446FB
S3150000FA500121FFF7F0FFEA2060600021002020600E
S3150000FA60E06020616061A06340F2F970606300208D
S3150000FA70E0636065A0652046BDE81040DBE738B569
S3150000FA8000F005F8402100F00AF8A56231BD0446F1
S3150000FA900D46A068C006FCD570476060022120466E
S3150000FAA0B8E7000062F30F2262F31F42401810F01D
S3150000FAB0030308D0C91A1FD3DB0748BF00F8012D7E
S3150000FAC028BF20F8022D130030B41446154610390D
S3150000FAD028BF20E93C00FAD8490728BF20E90C00D6
S3150000FAE048BF40F8042D890028BF20F8022D48BFE2
S3150000FAF000F8012D30BC7047C91818BF00F8012D59
S3150000FB00CB0728BF00F8012D7047000012490A688C
S3150000FB1042788A600278DAB14268CA60437A827AA9
S3150000FB201B0643EA0272C37B42EAC342C37A42EA35
S3150000FB308342037B42EA4342437B42EA0342837B9E
S3150000FB40007A42EA032242EA400040F0010001E066
S3150000FB500020C8600861704790ED00E0BFF35F8F3A
S3150000FB60BFF34F8FBFF36F8F7047000080B56846B5
S3150000FB701AF062F9DFF81804DFF81814DFF8182411
S3150000FB80016148F2E67141604FF408610160DFF8F7
S3150000FB900C04DFF80C1441604AF63F4111604FF047
S3150000FBA0C071DFF80024116000210166DFF8F81348
S3150000FBB001607F20DFF8F41308602320DFF8F013DC
S3150000FBC0086001BD10B5DFF8EC03DFF8EC4301680F
S3150000FBD0426849B10B0C1B04A34208BF0A600830F7
S3150000FBE0DFF8D8138842F2D310BD10B500F049F8FB
S3150000FBF0FFF7E8FFFFF7BAFFDFF8C413DFF8C443E7
S3150000FC00032008604FF40020DFF8BC1308600120D1
S3150000FC10206003F001F9DFF8B4134FF46070086058
S3150000FC204FF040706066E06710BD10B5DFF89C339A
S3150000FC3082B001221A60DFF898432268120E12F091
S3150000FC400F02FAD14FF00452A2670122E2678A003E
S3150000FC5001464FF00450F2F7DFFCDFF87803E06569
S3150000FC60DFF87443DFF8740321680091A421F9F7E3
S3150000FC7027FFDFF86C03DFF86C1301600099216041
S3150000FC8013BD80B50121DFF860031AF0EFF80121FA
S3150000FC90DFF858031AF0EAF80121DFF854031AF0E6
S3150000FCA0E5F80121DFF84C031AF0E0F80121DFF84E
S3150000FCB048031AF0DBF80121DFF840031AF0D6F802
S3150000FCC00121DFF83C031AF0D1F8BDE80440012118
S3150000FCD0DFF830031AF0CAB8F8B504460D460FF23D
S3150000FCE0643600E00860002D1CBF286810F1010F83
S3150000FCF03FD055F8042BC2F3026156F8211093B297
S3150000FD00C2F307401943022808D300281EBF55F83E
S3150000FD10042B41F8042B401EF7D1E4E755F8040BF9
S3150000FD20120F4FF0010C072A01F1C06301F1806741
S3150000FD300CFA00FED7D8DFE802F00506090C0E1112
S3150000FD401417D0E7CEE7C0433860CCE70A685040C6
S3150000FD50C8E71860C7E702F063FBC4E7C3F800E032
S3150000FD60C1E7C7F800E0BEE70A6802408242FBD15D
S3150000FD70B9E7204602F0E0FD01F03EF8DFF8880220
S3150000FD80006810F4E05F03D1DFF8801220200860DD
S3150000FD90F1BDDFF83C020068000E00F00F000228FB
S3150000FDA018BF032801D10120704700207047DFF8F3
S3150000FDB06002016800208A0648BF0420CA0644BFC4
S3150000FDC0801CC0B20A0744BF801CC0B24A0744BFA9
S3150000FDD0801CC0B28A0744BF401CC0B2C90744BFDA
S3150000FDE0401CC0B2704780B51120F3F71DFDDFF847
S3150000FDF0241209688AB232B1C008C1F307414843E8
S3150000FE00B0FBF2F002BD002002BD38B5DFF80802F3
S3150000FE104168006801F00702082AC0F344141AD2A8
S3150000FE200FF228239A5CC1F3CD035B1CC1F3454155
S3150000FE305A43491C5143C0F3822200F01F0014FBB1
S3150000FE4002004843450006D01120F3F7EDFC60435D
S3150000FE50B0FBF5F032BD002032BD80B5FFF7C3FF21
S3150000FE60DFF8B811096801F03002102A04D0202A00
S3150000FE7004D0302A08D002BD400802BDC1F3C42117
S3150000FE80491CB0FBF1F002BD800802BD10B5634805
S3150000FE90016801F03002202A0FD1C1F3024018B1E7
S3150000FEA0C1F3C422B2FBF0F011F4C01F18BF40002A
S3150000FEB04408032C0AD3042408E0006800F4E07028
S3150000FEC0402816BFB0F5807F02240124FFF7C5FF46
S3150000FED0604310BDF8B50446F7F768F90646FFF724
S3150000FEE058FF05464E480068C0F38917B80544BF59
S3150000FEF04C480743FFF74DFF00B900253046F7F79A
S3150000FF0052F93FB217F5007F01D12542E4D105B978
S3150000FF10454F3846F2BD38B505460C46FFF775FF26
S3150000FF2068434249B0FBF1F0002100E0491C012280
S3150000FF308A40824203D21029F8D3012032BD3C4ABE
S3150000FF400F20106041F010003A4908603A480068F6
S3150000FF50C0B2802803D02046BDE8324001E002202E
S3150000FF6032BD364AFF21116000F0FF0034490860B7
S3150000FF70002070471648016801F07061B1F1C06F4A
S3150000FF8002D1816BC906F6D5402141607047000059
S3150000FF9034410840C0E65351083008409C400840B0
S3150000FFA07A27000F28700840806D630324300844C8
S3150000FFB0243008460080E00F00000840B081E00FC2
S3150000FFC0D860084694400846944008400C400846CD
S3150000FFD004400840C01F0021E81F00215C1F0021CB
S3150000FFE0F01F00213F003700003406000004060021
S3150000FFF07005060000640600005406000044060072
S31500010000002406000074060084600840106208405F
S315000100104C00084050600840546008401860084091
S315000100200870084000FCFFFF00FEFFFF40420F0082
S31500010030807008448070084618700840187008449B
S315000100401870084600000840000000210304040857
S3150001005008080808012100F01F029140DFF8A82ACC
S3150001006005E0012100F01F029140DFF8DC2640097E
S3150001007042F82010704780B5F7F798F8DFF8CC16EC
S315000100800968090E01F00F01032907D1DFF8C0162F
S315000100900A6822F0F00242F0E0020A600121DFF86C
S315000100A0842A1160BDE80240F7F77DB8DFF8782AA7
S315000100B01168D368194021EA00009060084670472C
S315000100C00422C900002814BFDFF88806DFF8900A69
S315000100D002FA01F1016070470120704710B5DFF89F
S315000100E0844A01232370F5F70EFF0020207010BD0E
S315000100F070B5F7F75BF8DFF86016DFF86046CD7884
S31500010100D1E902232E00DFF8941A04BF4FF41056EA
S31500010110324219BF10260E60102626600DB9D2058F
S3150001012002D520220A6001E020212160BDE870404D
S31500010130F7F739B8DFF8200600210171C17811B14E
S315000101400021C170D4E7704710B5DFF80C4620795D
S3150001015078B1012001F03DFD58B9FFF7EBFFD4E975
S315000101600201BDE81040002200F4805001F00001B8
S31500010170B4E710BD10B5036883EA010424EA02025C
S3150001018000F180641340236040F8042C00F1C06044
S315000101901140016010BD70B504460D461646FFF7C5
S315000101A0A7FF4FF4004114F0AA6F18BF48F20201ED
S315000101B0B00748BF41F400510022DFF8A405FFF75C
S315000101C0D9FF0021200448BF4FF48051E00348BF06
S315000101D041F48071E00648BF41F40051A00648BFD2
S315000101E041F40071600648BF41F48061200648BFB2
S315000101F041F400610022DFF86C05FFF7BBFF05F053
S31500010200040300210025AB4218BF4FF480212005CD
S3150001021048BF41F48031600448BF41F48011A00712
S3150001022048BF41F40011A00348BF41F40021700703
S3150001023048BF41F004010122DFF82C05FFF79AFFC0
S31500010240DFF82815F00748BFDFF8C018A00048BF3F
S3150001025041F40011600048BF41F000710022DFF84F
S31500010260B008FFF787FF0021E00748BF0121002200
S31500010270DFF8A008FFF77EFFDFF8B018600348BF7C
S31500010280DFF8AC186007BDE8704048BF41F48061F3
S315000102904FF4A022DFF8C0096CE710B5F6F786FF28
S315000102A004461C20FFF7DDFE0820FFF7DAFE0120D9
S315000102B0FFF7D7FE0420FFF7D4FE0520FFF7D1FE96
S315000102C01D20FFF7CEFE0720FFF7CBFE0620FFF726
S315000102D0C8FE2020FFF7C5FE2046BDE81040F6F710
S315000102E062BF2DE9F04702EA0009089D099AC64353
S315000102F0CF43002D03EA010A05EA0208DFF8584454
S315000103002CD1002948D100286ED001280ED004280E
S3150001031042D1F6F74BFF00F069F8002082450CBF89
S31500010320814501200121FFF7CBFE33E0F6F73EFFC1
S3150001033000F05CF80022924508BF9145DFF86C0891
S3150001034006D0012101600120DFF89018086021E044
S31500010350DFF88C280121116001601BE00022914227
S3150001036004BF9042012D17D1F6F720FF05462069FB
S31500010370400848EA400020614FF48061DFF87808C0
S31500010380B8F1000F19BF0160DFF87008DFF84C29DA
S3150001039011600160284623E0FFF77FFF00F027F890
S315000103A02269AA4348EA02022261FFF7F4FEF6F740
S315000103B0FDFE04461C20FFF74DFE0820FFF74AFE0E
S315000103C00420FFF747FE0520FFF744FE1D20FFF737
S315000103D041FE0720FFF73EFE0620FFF73BFE2046C3
S315000103E0BDE8F047F6F7DFBEBDE8F0870546D4E97C
S315000103F002013040394040EA090041EA0A01C4E9F4
S3150001040002017047DFF85408006810F0A00F0FD101
S31500010410DFF84C1808200860DFF8481808688005DE
S3150001042047BF0220DFF8B8180220DFF8B8180860C5
S31500010430704710B50446FFF7D8FBFFF72EFF00F013
S3150001044007F9012002F017FE04F19001DFF8980880
S3150001045001F0C6FADFF894180120086001F087FD63
S3150001046001F0E8FD00F096FC04F1280000F0B4FD6F
S315000104704FF44001002001F03BFF4FF40011012031
S3150001048001F036FF02F0C0FC02F07CFD10B9142128
S31500010490F6F7C4FFBDE8104002F08FBC10B5DFF8D7
S315000104A05048206810F0070F08D1DFF8481808688F
S315000104B020B1002001F08DFB401E60618020DFF835
S315000104C038180860DFF83408016821F0400101603E
S315000104D010BD10B5F6F76AFE044600F018F80028BC
S315000104E002BFDFF81C08006810F0060F0AD1FFF7FB
S315000104F0D5FFDFF86C17012008602046F6F753FE9A
S31500010500002010BD2046F6F74EFE012010BD032047
S3150001051001F0E8BE80B5010003D0DFF8EC17401EFC
S315000105200860F6F743FEDFF8D4170A6822F04002A6
S315000105300A60F6F738FEDFF8A8170220086001BD49
S315000105402DE9F84F804689469246F6F72FFE8346F7
S315000105505FEA09007D4CDFF8AC570FD000F065F873
S31500010560DFF8A817012008600420286001E0FFF7E2
S3150001057001FD2068000E10F00F00F8D1A0202860C0
S31500010580FFF7C5FF20B1032001F07CFD00F0C4FA9E
S3150001059001F0B6FEDFF86066DFF848770020F0600C
S315000105A000F043F8DFF85407016841F040010160AB
S315000105B0FF2038604FF4807060600420B8F1000FAE
S315000105C0286007D0FFF757FD01F0FCFE2020606090
S315000105D000F0A2FAB9F1000F22D0504600F0AAFAB3
S315000105E00120BAF1000FF8601AD0DFF8240741683C
S315000105F00160E069A061DFF81C0741680160DFF86E
S31500010600180741680160DFF8140741680160DFF8E7
S315000106109C0541680160DFF808073060FFF78AFD35
S315000106205846BDE8F24FF6F7BEBD10B5DFF8C8462D
S3150001063006E0DFF8D01604200860022001F0F0FE83
S3150001064004202060DFF8140600684003F1D410BDD1
S3150001065080B5DFF8D0060168DFF8CC06FFF7E5FACA
S315000106606421DFF89806F9F72BFADFF8F005002187
S31500010670016041608160BDE8014001F03DBFF8B510
S31500010680DFF8A816344C0A5CDFF86C6513000546E2
S315000106904FF400671CD0032D08BF3760521E0A5461
S315000106A0D2B25AB9032D05F10900DFF8841609D132
S315000106B00002227840F0010012B10860002016E025
S315000106C0F060FBE7042DF9D1000640F48030F4E731
S315000106D001F0D8FC032D07D1DFF8581641F61F703B
S315000106E0086037600020EBE7022D02D101200021CE
S315000106F0F4BD042DE2D1032001F0C4FC01F000FE9B
S31500010700F6F754FD05466078002608B1FFF7B3FCFD
S31500010710012001F05EFA0D4F0028386804D1000E61
S3150001072000F00F00032802D1A07820710126284687
S31500010730F6F739FD002EC1D10020E070FFF7D8FC95
S315000107404FF48050D3E7000080E100E00440084008
S315000107505C1F0021EC100846C0610020944008444B
S315000107606C0008400C620840204008400418500004
S315000107702DE9F04FDFF8C005DFF884A583B00168E5
S31500010780C2681140009100998160DFF8B0050168E7
S31500010790C26802EA01048460DFF8A4050168C26840
S315000107A002EA010585604FF6FF70FFF77FFC0646FA
S315000107B0DFF890050068C0F34070002801BFDFF83C
S315000107C088050068C0F3407000281FD0F6F7EEFCDC
S315000107D0DAF8001011F00608DAF85010DAF85C20A1
S315000107E002EA010718BF4FF00108DFF8601539402A
S315000107F0CAF85810790704D5DFF854150A78521C3F
S315000108000A70F6F7D0FC8DF8048002E08DF804003A
S31500010810002700984FF000080028C346C1463ED085
S315000108200099DFF8380409041CD50168DFF8D424DF
S31500010830DFF8D03401F4E0511160A0221A601022D1
S31500010840DFF8A0341A6011B94FF400280AE0CA048F
S3150001085048BF4FF0007805D449054CBF4FF4001846
S315000108604FF400080099890714D50068DFF894143D
S3150001087010F46040086008BF48F480180AD00104EB
S3150001088048BF48F0806805D480044CBF48F480080E
S3150001089048F080780098800448BF4FF00209DFF8DD
S315000108A0B404044235D014F4206F07D0002000F0C0
S315000108B041F9062100F033F924F4802414F0090FDC
S315000108C00AD0DFF89414202048600120DFF88C1448
S315000108D00860082100F023F914F0106F0AD0DFF840
S315000108E07814202048600021002001F07BF90921BD
S315000108F000F015F914F4202F07D0002000F01AF9A2
S31500010900072100F00CF924F48024E00348BF01F02C
S3150001091052FA60070ED5DFF8480400684FF400511B
S3150001092028B1DFF84004016048F4802802E0DFF8CE
S3150001093038040160600548BF48F0040860031CD50F
S3150001094001F011FA401E062805D8DFE800F0080B71
S31500010950080E11141400032100F0E1F80DE048F42B
S3150001096000580AE048F4806807E048F4007804E09B
S3150001097048F4807801E048F00808BDB1E80448BFB2
S3150001098048F40048E80548BF48F48038A80448BF41
S3150001099048F01008A80548BF48F02008680548BF78
S315000109A048F04008280548BF48F0800836B3B00132
S315000109B048BF49F00809700148BF49F010093001E4
S315000109C048BF49F02009700348BF4BF0040BF00300
S315000109D048BF48F40068F00248BF48F48048B002B6
S315000109E048BF48F00208300308D500F0D9F80228BC
S315000109F01CBF0328072801D148F40038002F5FD017
S31500010A00380506D50320FFF73AFE48EA00084BEA07
S31500010A10010BB80104D52B2002F057FB48F08048A2
S31500010A2017F4E00F05D1F8043AD59DF80400002823
S31500010A3036D0B80204D5292002F047FB48F0005809
S31500010A4078020FD500F068F8272002F03EFBAD4989
S31500010A50A02008601020A34908604FF48000CAF85E
S31500010A6058001AE0F80207D500F056F8282002F0DF
S31500010A702CFB48F000681CE0F8041AD500F04CF88D
S31500010A8001F0A0FCDAF8500010F4A00F11D12A20D1
S31500010A9002F01BFBB1490120086048F0805808E0CC
S31500010AA0F80406D50420FFF7EAFD48EA00084BEAF8
S31500010AB0010B780504D50220FFF7E1FD40EA09099B
S31500010AC0AA48016901EA0902D0E9020108EA00001F
S31500010AD00BEA0101FFF702FB600303D501F060F9A0
