S00F00006E6F6465746573742E7333377F
S3150000000030E600206162010079520000456201007D
S31500000010A70A0A010002000004180FAC002693008C
S3150000002000000000000000000000000000000000CA
S31500000030000000008C90010000000000000000009D
S315000000400000000000000000FFFFFFFFFFFFFFFFB2
S31500000050FFFFFFFF00D007000000000000000000C7
S31500000060FFFFFFFFFFFFFFFF28000000000000006A
S31500000070000000000000000000000000000000007A
S315000000800000000000000000D7FD0020D7FD002082
S3150000009030E6002058A401004A64010058D7002029
S311000000A07017002000F0070000000000B0
S3150000020030E600206162010079520000456201007B
S315000002104D62010049620100516201005D62010008
S315000002205D6201005D6201005D6201005D620100C8
S31500000230556201005D6201005D620100F961000026
S3150000024023970000990501002F1700005D62010049
S31500000250A1010100E10501009F050100A1050100C2
S315000002609B05010049ED00001FE600004FBA0000A3
S31500000270BB4A00005D6201005D620100436001004F
S315000002805D6201005D6201003DE600005D62010005
S315000002905D6201005D6201005D6201005D62010058
S315000002A05D6201005D6201005D6201005D62010048
S315000002B0E30501009D050100156401003B95000062
S315000002C01B0601005D620100056401005D6201001C
S315000002D05D6201005D6201005D6201005D62010018
S315000002E05D6201005D6201005D6201005D62010008
S315000002F05D6201005D6201005D6201006C496D4A4C
S3150000030001E021B1491E1369DB07FAD401B9B0E057
S31500000310506001201060106910F0060F05D04107EB
S3150000032000D5A9E0800700D5A9E000207047F0B508
S3150000033013460022002936D05D4C5E4D8BB98B42A8
S3150000034031D250F8046BEE605B1C08262E60264600
S3150000035001E036B3761E2F69FF07FAD4002EEED1E0
S315000003601FE0EFF3108672B600230EE02F6907F048
S315000003701907102F08BF2F602F693F07F6D550F8D1
S31500000380047BEF605B1C10272F608B42F4D306B909
S3150000039062B6264601E026B1761E2869C007FAD461
S315000003A00EB96FF002021046F0BD2DE9F0479A46ED
S315000003B0414B424F1C681B683B688046002043F057
S315000003C001033B60950881460C4602E0B14404EB0C
S315000003D08604A94517D208EB89063046FFF78EFF3B
S315000003E0010014D1C6F30A00C0F500608608A5EB2B
S315000003F00900B04238BF0646524631462046FFF74E
S3150000040096FF0100E2D03968490849003960BDE825
S31500000410F0872949264A0B68096828490B6843F082
S3150000042001030B608860012048604869400704D5D5
S3150000043008684008400008601EE04869800704D547
S31500000440086840084000086019E00220486001E0A2
S3150000045022B1521E4869C007FAD422B9086840087A
S315000004604000086005E00868400840000860002079
S3150000047070476FF0020070474FF0FF3070476FF023
S3150000048001007047002390E70C48016841F0010124
S31500000490016046F21A31C1644FF4807141604169CE
S315000004A0C907FCD40021C164002070470000000089
S315000004B0809698000C000E4004300E4008000E4056
S315000004C070472DE9F047DFF8DC570FF29C010FF279
S315000004D03C5A0FF22858DFF8D0970446287800F0E7
S315000004E0B7FD0027CEA603E000F03CFC7F1CBFB2A0
S315000004F0206800EB07114A68287813001AD04A458D
S3150000050009D14A69130018BF4A45EFD00A68414627
S3150000051000F09EFDEAE78B680A68514600F098FDF8
S31500000520206800EB0710C2682878002ADCD00FF29A
S31500000530E441EDE70FF2AC0100F08AFD28780FF2F6
S31500000540CC0100F085FD28780FF2F00100F080FD67
S3150000055028780FF2141100F07BFD28783146BDE8AB
S31500000560F04700F075BD0000434F4D4D414E44200D
S315000005705B504152414D45544552535D205B2D2001
S315000005804445534352495054494F4E5D0D0A20206D
S3150000059077686572653A20623D6275666665722C9B
S315000005A02073313D696E74385F742C2073323D6957
S315000005B06E7431365F742C2075313D75696E7438F2
S315000005C05F742C2075323D75696E7431365F742CFC
S315000005D02075343D75696E7433325F740D0A0D0AE9
S315000005E00000000020202120202D20526563616C30
S315000005F06C73207468652070726576696F757320F8
S31500000600636F6D6D616E640D0A00000020205B74DF
S3150000061061625D202D20417474656D707473207461
S315000006206F2074616220636F6D706C657465206302
S315000006306F6D6D616E640D0A0000000020202020A1
S315000006402A2A204E4F54453A20616C6C20696E7000
S3150000065075742076616C7565732061726520696EAC
S3150000066020686578210D0A00202020202A2A2043B0
S315000006706F6D6D616E647320617265204E4F5420FC
S31500000680636173652073656E7369746976650D0AB7
S3150000069000000000A0F141011A293CBF2030C0B281
S315000006A070472DE9F84F05460024A8680668F6B29B
S315000006B0304600F027FD5FFA80F8304600F00AFD6C
S315000006C0A1468246002606E01AF80600FFF7E2FF7A
S315000006D00AF80600761C4645F6DB42460FF2A801EC
S315000006E0504600F091FD40B94FF0010905E0387819
S315000006F00FF29C015A4600F0ABFC296820010A184B
S31500000700526813003DD0DFF8A065641CB242A4B263
S31500000710F3D151F800B0DFF88C75B9F1000FE6D1CE
S31500000720584600F085FD4045E7D1424651465846B9
S3150000073000F05EFD0028E0D10FF2B4280FF2D429B4
S315000007400FF2540A04E0414600F082FC641CA4B295
S31500000750286800EB041041680A0018BFB14210D0A7
S31500000760836802683878514600F072FC286800EB0E
S315000007700410C2683878002AE5D0494600F068FCC3
S31500000780E4E7BDE8F18F00006D6F64756C6573007A
S3150000079025700D0A0000000025702025700000005D
S315000007A070B5044688B0A068016801B10121DFF880
S315000007B0FC542970406800B10120DFF8F464307001
S315000007C00FF2600000F04FFFA068C16801B101217F
S315000007D0DFF8E0241170006900B10120DFF8D814B9
S315000007E0087008782B78079004F111010FF25C006D
S315000007F0069010780FF25C0205900FF260000490EC
S31500000800012003907BA00290307801900FF25400F3
S3150000081000900FF2580000F026FF08B070BD0000EF
S315000008200D0A00005475726E696E67206F66662049
S3150000083074616773206E6F742079657420737570A8
S31500000840706F727465640D0A000000007465787438
S3150000085000000000686561646572000064656C698B
S315000008606D000000636F6D6D616E64007B264E2027
S31500000870566572626F73697479206F7074696F6EF2
S31500000880732073657420746F3A0D0A2674750D0A09
S315000008902674750D0A2674750D0A2674750D0A26BA
S315000008A074757D0D0A000000DFF81014007C51F805
S315000008B02020DFF8F0030FF20801007800F0C8BB33
S315000008C04349204572726F723A2025700D0A000066
S315000008D038B5DFF8D043207845A500F03FFA2078F8
S315000008E00FF2340100F0B4FB00F037FA20780FF273
S315000008F04C0100F0ADFB20783FA100F0A9FB207869
S315000009000FF2440100F0A4FB20780FF24801BDE885
S31500000910344000F09DBB0000456D626572204E6F4D
S3150000092064652054657374204170706C69636174EA
S31500000930696F6E2076312E30000000004665622019
S31500000940323220323031380031363A31333A3330B0
S31500000950000000000D0A0D0A000000002DE9F24F0C
S31500000960044682B0256BDFF83CB39046002705E0CD
S315000009701FA100F06DFB7F1CBFB210356868A8B3DD
S31500000980D5F80090DDF808A000260DE01AF8010B56
S31500000990FFF780FE009019F8010BFFF77BFE009928
S315000009A0C9B28142E7D1761CB0B24045EED3206889
S315000009B0BD4E00EB07114B680A689BF80000B34276
S315000009C004D10FF2380100F043FBD4E78B680FF235
S315000009D03C0100F03DFB206800EB0710C2689BF865
S315000009E00000002AC4D00FF22C01ECE7BDE8F78F17
S315000009F00D0A0000746167002C2000002D2D2D2D9E
S31500000A00202570202D2D2D2D0D0A0000202025706B
S31500000A1020257000202D2025700D0A002DE9F043B9
S31500000A209BB00EA80FF29821342200F04DFE4FF035
S31500000A3000098DF80190A52000F097FE00F0DAFE7F
S31500000A4000F07DF9002001F005F8050005D000F062
S31500000A5071F9002000F0FEFF054600F070F9012054
S31500000A6000F0F8FF060005D000F064F9012000F060
S31500000A70F1FF064600F063F9022000F0EBFF5FEAA3
S31500000A80000805D000F056F9022000F0E3FF80468A
S31500000A9001F078F8834C5DB1002E68D0B8F1000FF4
S31500000AA06BD04FF4FD710FF24C2001F071F804E0A9
S31500000AB0002E18BFB8F1000F62D084F80090201DF8
S31500000AC001F066F9201DFFF703FF0FF238252078A5
S31500000AD00FF2382800F042F920780FF29C2100F03E
S31500000AE0B7FA6DA600F03DF9201D01F07DFB00F080
S31500000AF034F920780FF28C2100F0AAFA00F031F9CF
S31500000B00201D01F08EFB00F028F920780FF28021DD
S31500000B1000F09EFA00F025F9201D01F0E1FB00F03F
S31500000B201CF920780FF2742100F092FA00F019F9FE
S31500000B30201D02F07BFC00F010F920780FF26821EE
S31500000B4000F086FA00F00DF9201D02F082FC00F09C
S31500000B5004F920780FF2BC1100F07AFA00F001F9DE
S31500000B60201D03F08BFB4DA54DA601AF3FE0B8F16C
S31500000B70000F05D001202070A1E70220FBE72570B9
S31500000B802078FF289BD100256946284600F0B0FF53
S31500000B9038B99DF800000D2818BF0A2818BF2A2862
S31500000BA0EDD06D1CEDB2032DEEDBE9E78DF800000C
S31500000BB09DF800107A5C481C0A2A18BF0D2A18BF37
S31500000BC0002AF3D10D227A548DF8000001A99DF870
S31500000BD00020201D01F0E8F89DF8002001A90EA8CC
S31500000BE000F0BCFA9DF8009000208DF8010000F09E
S31500000BF0B0F820780DF10103322201A900F07DFF43
S31500000C000028D3D000F0AEFD00F0EAFE02F076FF39
S31500000C109DF8010020B39DF8011001A8084410F8C2
S31500000C20010C09281CD100F09CF89DF80100401E1B
S31500000C308DF8010001A99DF80120201DFFF78EFE09
S31500000C409DF801100020785400F083F8002004E09D
S31500000C5000F07AF89DF80000401C00F063F8F7D326
S31500000C609DF804002128C4D100F07BF84A460EA95D
S31500000C7001A800F073FAA9F101008DF8010000F057
S31500000C8068F8002000F04EF8B3D200F05DF89DF849
S31500000C900000401CF6E700005D0D0A002563000019
S31500000CA00D0A000024E80020C1040000F0EB00203B
S31500000CB0F1EB0020F2EB0020F3EB002028EA002005
S31500000CC00D00000000000000000000000000000011
S31500000CD0000000000000000000000000000000000E
S31500000CE000000000000000000000000000000000FE
S31500000CF000000000706C6174666F726D74657374C9
S31500000D002E6300005B494E49542000000D0A3E2028
S31500000D1000000000736574506572546573745478EE
S31500000D20000000008DF800009DF801109DF80000FD
S31500000D3088427047012300224FF416417047012371
S31500000D4000224FF4E13170473A5C2078294600F0E2
S31500000D507FB94146207800F07BB92078294600F01B
S31500000D6077B92078314600F073B980B503F0E0FB1F
S31500000D70BDE80240002051E66372617368696E66E1
S31500000D806F0000007265736574737472696E670034
S31500000D90696E6974546F6B656E730000696E697471
S31500000DA0526164696F00000073656564506E726716
S31500000DB00000000070B51346104402E0A4192C7020
S31500000DC05B1EDCB24CB101F00F060909451E0A2E66
S31500000DD02846B4BF30243724F0E7104470BDF0B580
S31500000DE0002341B1002806D501232D21B0F1004F83
S31500000DF0117018BF4042002100240FF2702555F8EB
S31500000E002470002601E0C01B761CB842FBD2F7B264
S31500000E100FB90F0005D0DBB206F13001D1545B1CCF
S31500000E200121641C092CEADBDBB23030D054581C9B
S31500000E30C0B2F0BD2DE9F24F804696B013A80190DE
S31500000E40154603A89B4603AE002700248DF8000034
S31500000E500BE0012405460198864205D300F0DCF834
S31500000E6000284FD100F0CEF86D1C9DF800002978BF
S31500000E70301A0A000BD0252903D014B906F8011B35
S31500000E80E9E7002C14BF00246D1C29780A0000F045
S31500000E90AF80B1F1250216D00B3A092A40F28980BB
S31500000EA0283A7DD00A3A12D0521E41D0521E5FD047
S31500000EB0083A5DD0121F3ED0D21E3CD0921E57D0AB
S31500000EC0D21E6DD0C7E7252006F8010BC3E7DBF875
S31500000ED0000002904FF0000A0BF1040000F1040B31
S31500000EE0D0F80090CA45B6D2029810F80A1002222D
S31500000EF03046FFF75FFF06460198864205D300F0AD
S31500000F008BF800287AD100F07DF8A9F1010082451E
S31500000F103CBF202006F8010B0198864205D300F05D
S31500000F207BF800286AD100F06DF80AF1010AD9E7CA
S31500000F305BF8040BC8E75BF8049B00F067F8002831
S31500000F405CD100F05FF84FF0000A01E00AF1010AF7
S31500000F505FFA8AFA19F80A000028F7D19DF85800B6
S31500000F6052464946C047002848D15744FFB272E767
S31500000F706C290AD16A785BF8040B752A0EBF00212A
S31500000F800121642A07D16D1C05E075295BF8040B65
S31500000F900CBF002101213246FFF721FF36185AE720
S31500000FA05BF8041B0222C9B23046FFF703FF064670
S31500000FB051E76A780124782A18BF582AF8D16D1C9F
S31500000FC00024681E322904D15BF8040B042281B286
S31500000FD0EAE734297FF43DAF5BF8049B04224FEA2D
S31500000FE019413046FFF7E6FE04221FFA89F1DCE7D5
S31500000FF000F00CF810B9F019C0B200E0002017B0EC
S31500001000BDE8F08FF719FFB203AE704706469DF8AC
S315000010105800F2B203A940479DF80000361A9DF821
S315000010205800F2B203A9404701A111E000000000F8
S315000010300D0A00000CB438B5044604AA00F010F8F6
S3150000104005462046FFF7F0FF284632BC5DF80CFB4C
S315000010500CB480B502AA00F003F802BC5DF80CFBE4
S3150000106080B503F0A5FFC0B202BD000000CA9A3BDE
S3150000107000E1F5058096980040420F00A086010029
S3150000108010270000E8030000640000000A000000CA
S31500001090DFF8B0104A69904203D3C969884200F06C
S315000010A04EB800207047002818BFFFF7F1BF012097
S315000010B07047010001D100207047DFF888104969A8
S315000010C001EB4000801E704780B5FFF7F2FFBDE8D8
S315000010D00240E8E710B5040012D0FFF7F5FF18B993
S315000010E040F2394100F027F82046FFF7E2FF38B119
S315000010F00188090402D5D0F80A0010BD083010BDD9
S31500001100002010BD10B5010013D0FFF7D2FF044632
S31500001110FFF7C9FF18B940F2534100F00CF844B18B
S315000011202088000401D5208910BD6088C0F30C001A
S3150000113010BD002010BD0FF2100000F029BD804147
S31500001140C00F704760F600206275666665722D6D89
S31500001150616E6167656D656E742E6300814233D280
S3150000116010441144401E491E10E011F8013900F8E0
S315000011700139121F11F8013900F8013911F8013946
S3150000118000F8013911F8013900F8013992B2042A40
S31500001190EBDA93B2002B1EBF11F8013900F80139C2
S315000011A0521EF6D1704711F8013B00F8013B121FA1
S315000011B011F8013B00F8013B11F8013B00F8013B37
S315000011C011F8013B00F8013B92B2042AEBDA93B224
S315000011D0002B1EBF11F8013B00F8013B521EF6D151
S315000011E07047130003D00A46194604F011B8704739
S315000011F010B500E0521E93B223B100F012F8F9D0F8
S31500001200181B10BD002010BD10B500E0521E93B291
S315000012102BB100F006F8F9D0181B40B210BD002023
S3150000122010BD10F8013B11F8014BA34270470000B6
S3150000123000F10103810704D010F8011B89B1810771
S31500001240FAD10268B2F10131914311F0803F04BF37
S3150000125050F8042FF6E710F8011B11B110F8011B26
S31500001260FBE7C01A7047000038B50446611D206AC6
S315000012702368451A2079EAB2984708B1002032BDA2
S3150000128000F018F8601D2062012032BD38B5044612
S31500001290002500E06D1CEDB2485D0028FAD12079EA
S315000012A023682A46984718B900F004F8012032BD91
S315000012B0002032BD94F82900281884F829007047C8
S315000012C02DE9F04F804608F1200785B008F10500AA
S315000012D038600E4608F11500786091460020787255
S315000012E0DFF8B44313E018B108F10500386016467C
S315000012F025B17D2000F0A0F901F8010D3868796864
S31500001300884203D300F096F9002862D0761C307824
S31500001310010000F075812528617818BF262809D0BC
S315000013207B281CBF7D28232802D10029E6D0E1E7CF
S31500001330A178FAE716F8012F252A18BF262A04D124
S3150000134000F07AF901F8012DD8E726280BD151B122
S3150000135001256E2A18BF4E2A06D000F06DF97B20B3
S3150000136001F8010D00E00025317800204E2906D055
S31500001370542923D06E2902D074291FD032E0207858
S3150000138059F804BB0028B9D035B138687B21017003
S31500001390811C39602821417000F04CF9002818D0D2
S315000013A000F03BF9002814D0002DA7D03868292179
S315000013B00170811C39607D2141709FE700F038F98A
S315000013C0002806D000F029F9002802D000F032F9F2
S315000013D0002800F07C8000F02FF93A2001F8010D7A
S315000013E0761C0120317896F801E0A1F13002D2B2E4
S315000013F0911E05293CD2BEF1640F18BFBEF1750FD0
S3150000140036D159F804CB002301211FFA8CFCBEF11A
S31500001410640FE24609D15FEA0C4E06D56FEA0C0C62
S315000014200CF1010C01231FFA8CFCBCF1000F0AD051
S315000014304FF00A0E9CFBFEFC5B1C1FFA8CFCBCF1F9
S31500001440000FF5D10BE05B1C09E0D7F800E00EF1C8
S31500001450010EC7F800E04FF0200C0EF801CD9C46B7
S315000014600CF101035FFA8CFC9445EEDB761C00E080
S3150000147000213378721E002B00F0BE80322B18BF7D
S31500001480342B00F09580482B06D0582B0FD0632BB9
S315000014900FD0642B1FD0682B00F07F806C2B52D0AE
S315000014A0702B18BF732B0BD0752B14D0782B76D0DE
S315000014B019E73868411C396059F8041B017017E7B1
S315000014C000F0B6F818B100F0A8F80028F7D100200F
S315000014D005B0BDE8F08F002919BF1FFA8AFA5146F8
S315000014E059F8041B89B229B900F0A6F8302001F892
S315000014F0010DFDE60020642B0DD10A040BD53B68D7
S315000015005B1C3B602D22B1F5004F03F8012D02D084
S31500001510494289B259B10A2291FBF2F20A23C0B2BA
S3150000152003FB12110DF80010401C91B2F2E70146C0
S31500001530481EC9B20029DCD0C0B23A681DF80010B6
S3150000154000F065F8F3E759F8041B0029CCD0002019
S3150000155000290AD53B685B1C3B602D22B1F1004F88
S3150000156003F8012D01D0494259B10A22B1FBF2F22A
S315000015700A2303FB121102ABC0B21954401C1146D8
S31500001580F2E70146481EC9B2002910D002A9C0B22E
S315000015903A68095C00F03BF8F3E700F041F80222F4
S315000015A059F8041B3868C9B2FFF704FC38609FE697
S315000015B016F8010F682818BF48280BD100F030F83C
S315000015C016F8011C386832290AD159F8041B04227E
S315000015D089B2E9E7782818BF5828F1D0761E87E641
S315000015E059F804BB04224FEA1B41FFF7E3FB3860BE
S315000015F004221FFA8BF1D7E701007FF474AE76E67A
S3150000160000F018F800283FF462AF787A60E7521CC1
S315000016103A60303102F8011D70475946404635E6BA
S31500001620386830210170811C39607821417070471B
S3150000163059F804BB404617E63968491C39607047BB
S315000016400EB410B5154909788BB0002409B90020ED
S3150000165008E000F019F801466846FFF731FE00B9C8
S31500001660012420460CE00EB410B58BB000F00CF847
S31500001670002401466846FFF723FE00B901242046F0
S315000016800BB010BC5DF810FB054900910DAA054989
S3150000169009788DF804107047F1EB0020F0EB00207C
S315000016A0DD4F000024E8002062B38B0708D0521EED
S315000016B011F8013B00F8013B00F024808B07F6D1BE
S315000016C0830740F0208000BF103A07D330B4B1E85A
S315000016D03810103AA0E83810F9D230BC530724BFAE
S315000016E0B1E80810A0E8081044BF51F8043B40F8E0
S315000016F0043BD20724BF31F8022B20F8022B44BF4B
S315000017000B7803707047083A07D3B1E80810083A17
S3150000171040F8043B40F804CBF7D25307E4E7000057
S31500001720890001EB401000F184400068704703F027
S31500001730A3BD80B50121284803F07EFE04210720C1
S3150000174004F004FB25482649264A0160042111605D
S31500001750022141620421244A1160816A41F002019A
S31500001760816201BD1D4804F055BBA52800D0704715
S3150000177080B500F005F810B11C490020086001BDD5
S315000017801648006810F0010018BF0120704738B5F0
S3150000179004460D4600F015F82A4604F00F0101B084
S315000017A003462005BDE83040000E04F0A3BB00F060
S315000017B00F010005000E30230D4A584310441C301B
S315000017C0AEE700F00F010005000E3023084A58432B
S315000017D010440C30A4E70000002508000020054056
S315000017E00108030080E200E000E100E00000A442FE
S315000017F000A0004010B501218148824C03F01CFE78
S31500001800814901200860002004F032FB01230422F4
S315000018100221052004F06EFB00F00FF80120207075
S3150000182004F05CFC01234022211D0FF2182004F075
S3150000183023FC76490860C00F10BD10B501220121B6
S31500001840042004F039F97248724C016841F0010134
S3150000185001600022C16841F08071C16000236E49B9
S315000018606E4808606E4802606E4A13600223236069
S3150000187015236D4C2360002303646C4B0B656C4988
S3150000188011604FF480716B4A1160016841F48071F8
S31500001890016010BD38B504F031FC5A4C21780025A2
S315000018A0022912BF01250321217004F02DFC05BB7E
S315000018B05C480168C9070ED55F490A6822F4406290
S315000018C00A60016849084900016001680902FCD400
S315000018D0642004F02AFC00220021042004F0ECF825
S315000018E04C490020086053490860494908600120B6
S315000018F0207031BD4648006800B10120C0B2704773
S31500001900D12202704170090A81704C490A78C2706E
S31500001910501C0870042070472DE9F84F80464D1D75
S3150000192004F048FC002782464FF6FF7B444C15E046
S3150000193008EB0700594610F8026C304604F068FCC4
S3150000194083464F4637480068C00707D534480068C5
S31500001950C00503D520680028FCD02670FFF7CAFF13
S3150000196040B3F8B2E9B2884224D204F023FCA0EBDB
S315000019700A0080B2B0F5FA7F22DCF8B210B95B2615
S315000019800127DFE707F10109FFB2012F08BF6E1F2C
S31500001990D7D0EDB2E81E874208BF5E46D1D0A81E5A
S315000019A0874208BF4FEA1B26CBD0681E8742BFD1AD
S315000019B05D26C6E7FFB2EDB2AF4208BF002000D0F9
S315000019C00120BDE8F28F10B50C46024621780020B2
S315000019D00529A4BF1046FFF79FFF0421217010BD03
S315000019E000B50A48006891B04022694604F02FFB12
S315000019F020B1C2B26946122004F0BCFC11B000BD91
S31500001A000035080030F500201088144218E900203F
S31500001A10F0ED00E0F00004E0B00F00E055CEACC5FC
S31500001A20000E00E0800E00E0100004E0FF0300401E
S31500001A300D000100040304E0001000E0D0FD0020CA
S31500001A40200000E073696C6162737675617274647C
S31500001A506F776E002DE9F04104460125200094B011
S31500001A600F4690461E4606D001281DD0102802D0EB
S31500001A70202819D029E0002103F094F80546012C0E
S31500001A8018BF202C08D0022C18BF212C04D0032C00
S31500001A901CBF222C232C25D1012E0197ADF80C80DA
S31500001AA015D14FF4805016E00AA80FF2B401242293
S31500001AB0FFF70AFE68460AA92422FFF705FE102052
S31500001AC0ADF82400ADF82600D9E701200BE0022E80
S31500001AD003D14FF44050ADF80A006946204603F0A2
S31500001AE061F80546E8B214B0BDE8F08103F01BB911
S31500001AF080B503F023F9C0B202BD80B503F070F9DA
S31500001B00C0B202BD70B582B0044600200D4616462E
S31500001B108DF8000001E0FFF725FE6B4632462946A8
S31500001B202046FFF7EAFF0028F5D176BD80B503F021
S31500001B30E2F9C0B202BD80B503F0F0FAC0B202BD50
S31500001B400CB480B50A46014602AB0448FFF772F9A9
S31500001B5002BC00205DF80CFB00000000A150000054
S31500001B600000014000C2010000000010000000005B
S31500001B700300020003000000000000000000000057
S31500001B801E1E0000002080F31188704742DE704759
S31500001B9038B504460D4604F06BFFFFF7E3FD05F08C
S31500001BA050FE2946204604F047FB2B4622460FF2FC
S31500001BB0CC110120FFF7C4FF29462046BDE834407A
S31500001BC0E4E765482DE9F047644D01682E1D4FF4A2
S31500001BD020687165016AB16561490A68F2654968FC
S31500001BE03166416A7166816AB166C16AF166016BE6
S31500001BF03167806B706796F8340040074CBFF46B12
S31500001C00B46B05F09CFE0022F2648442554A0146FC
S31500001C1024BFA2F1200AA2452746316505F19003AB
S31500001C20DFF844C1DFF844E118D3A0693064E46901
S31500001C307464746DC4F30804062C13D1704511D373
S31500001C4060450FD200884DF64264A0420AD1306842
S31500001C50586040F201787068986003E000273764A6
S31500001C60776407464248814202D2014600E0091DD8
S31500001C700846904203D20C68B4F1CD3FF7D03D49F7
S31500001C80081AB0640021002005EB8004401C0628D9
S31500001C90E167F9D3002003E0C0B205EB8004E167F9
S31500001CA0974223D252F8041D7145F9D36145F7D204
S31500001CB0CC07F5D5002405EB8409D9F87C90894535
S31500001CC002D0641C062CF6D3062CE9D1002814BFDA
S31500001CD0401E0520E0E7B16F002405EB8402641C7A
S31500001CE0D2F88070D767052CF7D319600146481ED5
S31500001CF0C9B20029EFD1706DC0F30800032810D0D7
S31500001D00042811D0052812D0062813D00C2817D085
S31500001D10122818D118480068800719D540F20258D1
S31500001D2016E040F6012813E040F6022810E040F6DF
S31500001D3003280DE0B8F5206F0AD140F6042807E025
S31500001D4040F6052804E018B13F2838BF40F60728BA
S31500001D504046BDE8F087000004ED00E000000020EA
S31500001D6000E300E030E600204A640100C004000001
S31500001D709C00002030E600201C2005400D0A5B4137
S31500001D8053534552543A25703A25645D0D0A0000B6
S31500001D900021C173C183002200F124010A708273FD
S31500001DA00068C860704700002DE9F74F82B0002038
S31500001DB08DF801000298041D2430019051E0102E88
S31500001DC03ED100F02FF90120E07202999DF8000043
S31500001DD000F03AF945E09DF8100020B99DF80100A1
S31500001DE005B0BDE8F08F0398401C0390401E0078B4
S31500001DF08DF800009DF81000401E8DF81000A846D2
S31500001E009DF80000672810D29DF800100FF2703080
S31500001E10405C00F0300600F00F08400608D5019837
S31500001E20407A804504DA012502E07B2838BF102677
S31500001E309DF800000A2818BF0D2829D1012028E0A6
S31500001E409DF80000232802D10620E07209E0202E2A
S31500001E5007D003208DF800009DF80010029800F0CE
S31500001E60E5F80398002600250028B4D19DF8100057
S31500001E706946FFF73DFE0028C1D02628AED002985D
S31500001E80012100F0D3F878208DF80000A84610262E
S31500001E9000208DF80100E07A0628E2D8DFE800F09D
S31500001EA00515599B9B6B0600DBE788E79DF801004B
S31500001EB00028D6D0207B20B10298216888470020D0
S31500001EC020730298FFF764FFCBE7102E1CBF9DF826
S31500001ED000005F2800D025B1019800780C28B8DAF8
S31500001EE073E7202E18BF302E40D1019A029912783E
S31500001EF01144002048744FF000090198C7680AE0B1
S31500001F001AF8010B00F099F81BF8011B814209D061
S31500001F1009F101091037786840B30298D7F800A094
S31500001F2000F1110B9BF800000028E9D19AF8000097
S31500001F300028EDD1A4F81A900198618BC06800EBD7
S31500001F4001108068E0610020A072019908700220EB
S31500001F50E07200F067F80DB301992B200872019822
S31500001F60C0F8048000F05EF804206EE702980321B2
S31500001F7000F05CF89AE79DF8010018B1029800F0AD
S31500001F806FF89EE79DF80000232803D1029800F021
S31500001F9067F859E7202E18D004205BE79DF800006B
S31500001FA02D2818BF2B2808D1019908720020019905
S31500001FB0486000F037F8032047E7222806D140F2B0
S31500001FC02F110FF2A410FFF7E3FD4AE77B28D2D1C9
S31500001FD04FF49E71F5E755B1019801994068497A29
S31500001FE001FB00800421E1720199486039E79DF800
S31500001FF00010782918BF582906D10199496819B9DE
S315000020000199102048722CE7032803D0202E18BF10
S31500002010302E01D007201DE7029800F040F8002876
S31500002020A8D094E70199607A48727047027C1AB981
S315000020300622C273017475E07047A0F141011A29A6
S315000020403CBF2030C0B2704738B50C4694F82450D7
S31500002050FFF7F3FF61194874681C84F8240031BD4A
S3150000206010B50446206A017831B162290CBF0121FE
S315000020700221405C2A2807D1216BE28B01EB021179
S3150000208020464968884706E0042020742046616897
S315000020908847002020742046BDE8104042E070B515
S315000020A000F108018A6990F82C600D6A137854785B
S315000020B02D2E08BF6D42752B07D1342C10D18B798C
S315000020C00E79B3421ED1052118E0732B0FD1312CA6
S315000020D007BF6FF07F037F24114B47F6FF7408E0BC
S315000020E00023312C14BF4FF6FF74FF2401E00421B6
S315000020F004E09D42A8BFAC42E1DA0621FFF796FF55
S31500002100002070BD086840F823508879401C88710B
S3150000211090782A281CBF901C8861012070BD0000A1
S315000021200080FFFFF8B50446206BE18B0FF23805FF
S3150000213000EB01100027866805E00220315C2A29A1
S3150000214018BF36187F1CA17BF8B2884209D23078B6
S315000021506228F2D14FF40F712846FFF719FD0120CE
S31500002160ECE70020A073F1BD636F6D6D616E642DA9
S31500002170696E7465727072657465722E6300000014
S3150000218000000000000000000020202020200000A9
S315000021900000000000000000000000000000000039
S315000021A02000303000000000000000300030000049
S315000021B0404142434445464748490000000000006C
S315000021C0005A5B5C5D5E5F1010101010101010104E
S315000021D01010101010101010101010300000000019
S315000021E0005A5B5C5D5E5F0010B505F004FC40F2D2
S315000021F0A174C440E0070BD5064C207805F01AFC04
S31500002200207805F0B6FC2078BDE8104005F07EBDCC
S3150000221010BD00BF24E800201F210FF22C00FFF79D
S31500002220B7BC10B502F0DDF9044602F0CFF902465C
S31500002230234604480FF220010078BDE81040FEF75F
S3150000224007BF000024E8002072657365742D74656D
S3150000225073742E630000000052455345543A2570AE
S315000022602D25700D0A00000010B5DFF8004CDFF8D0
S31500002270001C2078FEF7ECFE2078DFF8481CBDE84D
S315000022801040FEF7E5BE0178A1F130030A2B0AD310
S31500002290A1F14103062B38BF373904D3A1F16102FE
S315000022A0062A03D257390907090E00E000214078B3
S315000022B0A0F130030A2B02D2401830380CE0A0F10E
S315000022C04103062B02D24018373805E0A0F161021F
S315000022D0062A03D240185738C0B27047080970471B
S315000022E010B506F023F802001BD0DFF8804B2078EB
S315000022F0042A08BF0FF6684108D0062A08BF0FF661
S31500002300AC4103D0072A04D1DFF8BC1BFEF7A0FEC0
S3150000231003E00FF21001FEF79BFE20780FF2380162
S31500002320ADE710BD68616C537461636B496E697487
S31500002330546F6B656E73204641494C45442077695E
S31500002340746820456D6265725374617475733A20C2
S3150000235025580D0A00000000546F6B656E732061EE
S315000023607265207374696C6C20616374697665208C
S315000023707768656E207573696E6720746869732067
S315000023806170706C69636174696F6E2E0D0A00006E
S315000023902DE9F04FC1B08068DFF8D07A0568FFF705
S315000023A063FFA8B206F02CF90446A8B206F016F8A8
S315000023B08046A8B206F0AEF98346002C38781ABFDC
S315000023C04FF6FF7188450FF628412CD02346AAB256
S315000023D00FF62841FEF73CFE00250FF2A4190FF276
S315000023E0A41A0AE01DF8062038784946FEF730FEA2
S315000023F0761CF6B2A642F5DB6D1CEDB25D4510DA31
S31500002400BBF1010F234603D17F2200F069F806E0F5
S315000024102A4600F065F838785146FEF719FE002680
S31500002420E7E738785146FEF713FE41B0BDE8F08F76
S315000024302DE9F047C0B0806804684768DFF82C6A69
S31500002440FFF712FFA0B206F0DBF88146A0B205F056
S31500002450C5FF8046A0B206F05DF90546B9F1000F4A
S3150000246030781ABF4FF6FF7188450FF6843132D0A7
S31500002470A5F1010A15B1FFB2BA450BDA0FF688319C
S31500002480FEF7E6FD30780FF6B83153460022FEF728
S31500002490DFFD22E04B46A2B20FF66031FEF7D8FD13
S315000024A0012D08BF7F274B463A4600F019F835A4A0
S315000024B030782146FEF7CCFD00270FF2C40805E070
S315000024C01DF807204146FEF7C3FD7F1CFFB230789A
S315000024D04F45F5DB2146FEF7BBFD40B0BDE8F08772
S315000024E04146684605F044BF2DE9F047C2B0806812
S315000024F0DFF8D8790668FFF7B7FEB0B206F080F8C5
S315000025008146B0B205F06AFF8246B0B206F002F923
S315000025100646B9F1000F1CBF4FF6FF70824505D184
S3150000252038780FF6CC21FEF793FD28E000240FF64D
S31500002530343803E0504605F02BFF641CB4421EDA23
S31500002540002513E016FB09F0431E387809FB0452F8
S315000025504146FEF77DFD387803226946FFF7D2FA39
S315000025606846FFF790FE01A948556D1C4D45E9DB0D
S31500002570012E4B4601AA0CBF7F21E1B2DAE758E0F3
S31500002580202558000D0A00002DE9F047C2B08068EA
S3150000259007684468DFF8D458FFF766FEB8B206F05D
S315000025A02FF88046B8B205F019FF8146B8B206F09A
S315000025B0B1F80746B8F1000F28781CBF4FF6FF7137
S315000025C0894504D10FF62821FEF742FD31E07E1E33
S315000025D017B1E4B2A6420BDA0FF62C21FEF738FD4E
S315000025E028780FF65C2133460022FEF731FD20E005
S315000025F000260FF6702A11E02878A8F1010332466A
S315000026005146FEF725FD287803226946FFF77AFA38
S315000026106846FFF738FE01A98855761C4645EBDB70
S31500002620012F08BF7F24434601AA2146484605F0EC
S31500002630AFFE42B0BDE8F0872DE9F043ADF5497D28
S31500002640DFF828480FF63425FFF70EFE20784EF205
S31500002650455200F030FC20780FF62821FFF766FA85
S31500002660DFF86C0800F015FC00270FF2883802A886
S315000026704146C25D00F06AFC7F1C082FF7D3DEA737
S3150000268000F01CFC20784CF2563200F014FC207846
S315000026900FF60421FFF74AFA0126DFF8380800F0A2
S315000026A004FC00F056FC9DF8012000F054FC761E58
S315000026B0F3D100F003FC20784EF2453200F0FBFB2C
S315000026C020780FF6E811FFF731FADFF80C0800F072
S315000026D0E0FB02A800F038FC761C082EF9D300F0C7
S315000026E0EDFB20784EF6735200F0E5FB20780FF6EE
S315000026F0D011FFF71BFADFF8E40700F0D0FB002645
S3150000270004A800F021FC761C102EF9D300F0D6FBAD
S3150000271020784CF24E2200F0CEFB20780FF6AC115A
S31500002720FFF704FADFF8B80700F0B9FB002604A8A3
S3150000273000F00AFC761C102EF9D300F0BFFB2078BF
S315000027404CF6441200F0B7FB20780FF69011FFF715
S31500002750EDF90126DFF88C0700F0A7FB00F0F9FB86
S315000027609DF8012000F0F7FB761EF3D100F0A6FBE2
S3150000277020784DF2430200F09EFB20780FF66C1194
S31500002780FFF7D4F90126DFF8600700F08EFB00F0B2
S31500002790E0FB9DF8012000F0DEFB761EF3D100F091
S315000027A08DFB20784CF2431200F085FB20780FF663
S315000027B04C11FFF7BBF9DFF8340701880223F2B2A8
S315000027C0684605F0D5FD00F0C4FB9DF8012000F039
S315000027D0C2FB761C142EEEDB00F070FB20784DF267
S315000027E0463200F068FB20780FF62011FFF79EF9BD
S315000027F00126DFF8FC0600F058FB00F0AAFB9DF866
S31500002800012000F0A8FB761EF3D100F057FB2078DC
S315000028104CF2433200F04FFB20780FF60811FFF719
S3150000282085F90126DFF8CC0600F03FFB00F091FBAE
S315000028309DF8012000F08FFB761EF3D100F03EFBE1
S3150000284020784CF6535200F036FB20780FF6E8015C
S31500002850FFF76CF9DFF8A00600F01BFB02A800F0FA
S3150000286073FB761C082EF9D300F028FB20784CF277
S31500002870543200F020FB20780FF6D001FFF756F90E
S315000028800126DFF8780600F010FB00F062FB9DF8E9
S31500002890012000F060FB761EF3D100F00FFB2078DC
S315000028A04DF6540200F007FB20780FF6AC01FFF757
S315000028B03DF90126DFF8480600F0F7FA00F049FB7B
S315000028C09DF8012000F047FB761EF3D100F0F6FAE2
S315000028D020784DF2570200F0EEFA20780FF68401C8
S315000028E0FFF724F9DFF81C0600F0D9FA04A800F077
S315000028F02BFB761C102EF9D300F0E0FA20784CF270
S31500002900573200F0D8FA20780FF66C01FFF70EF96F
S31500002910DFF8F40500F0B7FA002600F014FB761C89
S31500002920042EFAD300F0CAFA20784CF6575200F07B
S31500002930C2FA20780FF65401FFF7F8F8DFF8CC0555
S3150000294000F0A1FA002600F0FEFA761C042EFAD357
S3150000295000F0B4FA20784DF2575200F0ACFA207825
S315000029600FF63C01FFF7E2F8DFF8A40500F08BFA5A
S31500002970002600F0E8FA761C042EFAD300F09EFA40
S3150000298020784CF2574200F096FA20780FF6240190
S31500002990FFF7CCF8DFF87C0500F075FA002600F0AA
S315000029A0D2FA761C042EFAD300F088FA20784CF27C
S315000029B04B2200F080FA20780FF60C01FFF7B6F8EC
S315000029C0DFF8540500F06BFA002604A800F0BCFA04
S315000029D0761C102EF9D300F071FA20784CF24232B0
S315000029E000F069FA20780FF2F871FFF79FF8DFF828
S315000029F02C0503E0202558000D0A000001885C2301
S31500002A007F22B2A805F0B4FC0026B2A800F09CFA1A
S31500002A10761C5C2EF9D300F051FA20784CF643125E
S31500002A2000F049FA20780FF2C871FFF77FF8DFF857
S31500002A30F004018814237F2210A805F099FC0026D3
S31500002A4010A800F081FA761C142EF9D300F036FA9D
S31500002A5020784DF2433200F02EFA20780FF2A8715A
S31500002A60FFF764F80126DFF8BC0400F01EFA00F058
S31500002A7070FA9DF8012000F06EFA761EF3D100F090
S31500002A801DFA20784DF2423200F015FA20780FF246
S31500002A908C71FFF74BF8DFF8900400F000FA04A8F9
S31500002AA000F052FA761C102EF9D300F007FA2078BF
S31500002AB04CF2453200F0FFF920780FF27C71FFF7F7
S31500002AC035F8DFF86804018894237F228DA805F085
S31500002AD04FFC00268DA800F037FA761C942EF9D309
S31500002AE000F0ECF920784DF2583200F0E4F9207845
S31500002AF00FF25871FFF71AF8DFF8340400F0BDF949
S31500002B00002608A800F020FA761C202EF9D300F043
S31500002B10D5F920784DF2593200F0CDF920780FF230
S31500002B204871FFF703F8DFF80C0400F0A6F9002659
S31500002B3008A800F009FA761C202EF9D300F0BEF999
S31500002B4020784CF64B2200F0B6F920780FF234715B
S31500002B50FEF7ECFFDFF8E003018822237F2284A83A
S31500002B6005F006FC002684A800F0EEF9761C222E5D
S31500002B70F9D300F0A3F920784BF2346200F09BF908
S31500002B8020780FF21471FEF7D1FFDFF8B00300F0E2
S31500002B9080F9002602A800F0D7F9761C082EF9D392
S31500002BA000F08CF920784FF6017200F084F9207855
S31500002BB00FF2F061FEF7BAFF012602237F22002101
S31500002BC0684605F0D5FB00F0C4F99DF8012000F039
S31500002BD0C2F9761EF1D100F071F920784EF2632227
S31500002BE000F069F920780FF2D461FEF79FFF042305
S31500002BF07F22012100F03EF900F0A5F9761C042E93
S31500002C00FAD300F05BF920784EF2635200F053F9E4
S31500002C1020780FF2BC61FEF789FF04237F22022190
S31500002C2000F028F9002600F08EF9761C042EFAD35F
S31500002C3000F044F920784DF2030200F03CF92078C8
S31500002C400FF2A061FEF772FF04237F22032100F03A
S31500002C5011F9002600F077F9761C042EFAD300F05D
S31500002C602DF920784DF2050200F025F920780FF2B3
S31500002C709061FEF75BFF04237F22042100F0FAF83F
S31500002C80002600F060F9761C042EFAD300F016F93F
S31500002C9020784DF2060200F00EF920780FF27C61E2
S31500002CA0FEF744FF08237F22052100F049F900269C
S31500002CB002A800F049F9761C082EF9D300F0FEF8B8
S31500002CC020784DF2070200F0F6F820780FF27061D6
S31500002CD0FEF72CFF08237F22062100F031F900269B
S31500002CE002A800F031F9761C082EF9D300F0E6F8B8
S31500002CF020784DF2080200F0DEF820780FF25C61D1
S31500002D00FEF714FF08237F22072100F019F9002699
S31500002D1002A800F019F9761C082EF9D300F0CEF8B7
S31500002D2020784DF20A0200F0C6F820780FF24461CE
S31500002D30FEF7FCFEBC237F22082155A805F018FBF0
S31500002D40002655A800F000F9761CBC2EF9D300F039
S31500002D50B5F820784DF20D0200F0ADF820780FF2AC
S31500002D603C61FEF7E3FEFE237F22092115A805F04C
S31500002D70FFFA002615A800F0E7F8761CFE2EF9D318
S31500002D8000F09CF820784DF20E0200F094F82078BE
S31500002D900FF22C61FEF7CAFEFE237F220A2115A838
S31500002DA005F0E6FA002615A800F0CEF8761CFE2EF1
S31500002DB0F9D300F083F820784DF20F0200F07BF88B
S31500002DC020780FF22461FEF7B1FE00260523F2B249
S31500002DD00B2100F0B5F84FF0000902A8414610F8A3
S31500002DE0092000F0B3F809F10109B9F1050FF4D390
S31500002DF0761C032EEADB00F061F820784DF209021A
S31500002E0000F059F820780FF20461FEF78FFE0423D4
S31500002E107F220C2100F02EF8002600F094F8761C94
S31500002E20042EFAD300F04AF820784DF2100200F092
S31500002E3042F820780FF2E851FEF778FE00250E23BF
S31500002E40EAB20D2104A805F093FA002604A800F0C2
S31500002E507BF8761C0E2EF9D36D1C102DEFDB00F0DF
S31500002E602DF80DF5497DBDE8F083000024E800202B
S31500002E70D48F010001A805F07BBA018820237F22A8
S31500002E8008A805F075BA018804237F2201A805F079
S31500002E906FBA018808237F2202A805F069BA018863
S31500002EA010237F2204A805F063BA018802237F223B
S31500002EB0684605F05DBA2946FEF7CAB82078394655
S31500002EC0FEF7C6B8E48F01000C90010024E800204C
S31500002ED01CA001001EA0010020A0010022A00100EC
S31500002EE024A0010026A0010028A001002AA00100BC
S31500002EF02CA001002EA0010030A0010032A001008C
S31500002F0034A0010036A0010038A001003AA001005B
S31500002F103CA001003EA0010040A0010042A001002B
S31500002F2044A0010046A0010048A001004AA00100FB
S31500002F304CA001004EA0010050A0010052A00100CB
S31500002F4002A805F015BA01A84146825D2078FEF771
S31500002F507FB89DF8002020784146FEF779B800003A
S31500002F6068616C537461636B496E6974546F6B6509
S31500002F706E73204641494C45442077697468204564
S31500002F804D4245525F454550524F4D5F4D46475F56
S31500002F90535441434B5F56455253494F4E5F4D493B
S31500002FA0534D415443480D0A0000000068616C53BC
S31500002FB07461636B496E6974546F6B656E732046FA
S31500002FC041494C4544207769746820454D42455235
S31500002FD05F454550524F4D5F4D46475F56455253EC
S31500002FE0494F4E5F4D49534D415443480D0A000029
S31500002FF06E6F7420666F756E640D0A005B253278FD
S315000030005D28256429203D004552524F523A2044FE
S3150000301065736972656420696E64657820697320DA
S315000030206F7574206F662072616E676520666F72B9
S31500003030207468697320746F6B656E0D0A0000005A
S315000030402020202020202056616C69642072616E49
S315000030506765206973202558207468727520255885
S315000030600D0A00006461746120627974655B2564F1
S31500003070206F662025645D3A000000005B2532580B
S315000030805D2000004D46475F454D4245525F455520
S31500003090495F3634000000004D46475F43555354A0
S315000030A04F4D5F56455253494F4E00004D46475FC0
S315000030B0435553544F4D5F4555495F363400000024
S315000030C04D46475F535452494E4700004D46475FB1
S315000030D0424F4152445F4E414D4500004D46475FC9
S315000030E04D414E55465F4944000000004D46475F3E
S315000030F05048595F434F4E46494700004D46475F8B
S315000031004153485F434F4E46494700004D46475F8F
S3150000311053594E54485F465245515F4F46465345B4
S31500003120540000004D46475F4343415F54485245B3
S3150000313053484F4C440000004D46475F455A535094
S315000031405F53544F52414745000000004D46475FCC
S315000031504354554E450000004D46475F584F5F5457
S31500003160554E45004D46475F4C4F434B42495453DD
S315000031705F504C57000000004D46475F4C4F434B95
S31500003180424954535F434C57300000004D46475F59
S315000031904C4F434B424954535F4D4C57000000007F
S315000031A04D46475F4C4F434B424954535F554C572E
S315000031B0000000004D46475F4C4F434B4249545375
S315000031C05F444C57000000004D46475F424F4F5446
S315000031D04C4F41445F4145535F4B45590000000049
S315000031E04D46475F43424B455F4441544100000012
S315000031F04D46475F494E5354414C4C4154494F4EFE
S315000032005F434F44450000004D46475F53454355D5
S31500003210524954595F434F4E464947004D46475F12
S315000032205345435552455F424F4F544C4F414445D9
S31500003230525F4B45590000004D46475F43424B45A0
S315000032405F3238334B315F44415441004D46475F4E
S315000032505349474E45445F424F4F544C4F414445B6
S31500003260525F4B45595F58004D46475F5349474E9D
S3150000327045445F424F4F544C4F414445525F4B4586
S31500003280595F59004D46475F5448524541445F4A8D
S315000032904F494E5F4B4559004D46475F4555495F7F
S315000032A036340000535441434B5F4E56444154411B
S315000032B05F56455253494F4E000000005354414358
S315000032C04B5F424F4F545F434F554E54455200009B
S315000032D0535441434B5F4E4F4E43455F434F554E0C
S315000032E05445520049505F535441434B5F4D554C32
S315000032F05449434153545F53455155454E43450048
S3150000330049505F535441434B5F53454355524954CB
S31500003310595F53455155454E4345000049505F534B
S315000033205441434B5F4D4553485F4C4F43414C5FBF
S31500003330494E544552464143455F4944000000000A
S3150000334049505F535441434B5F4D41435F45585489
S31500003350454E4445445F49440000000049505F53D0
S315000033605441434B5F504152454E545F4C4F4E477C
S315000033705F49440049505F535441434B5F4F4C44AF
S315000033805F4143544956455F4F5045524154494F5A
S315000033904E414C5F444154415345540049505F539C
S315000033A05441434B5F4143544956455F4F50455244
S315000033B04154494F4E414C5F44415441534554009A
S315000033C049505F535441434B5F50454E44494E4725
S315000033D05F4F5045524154494F4E414C5F44415412
S315000033E0415345540000000049505F535441434B3C
S315000033F05F4F5045524154494F4E414C5F444154F2
S31500003400415345545F5441494C00000049505F53B5
S315000034105441434B5F4E4F44455F44415441000085
S315000034204348494C445F5441424C450010B504465C
S31500003430002003F053FD002003F067FD012003F098
S3150000344088FC204605F005FC2046BDE8104000F04B
S315000034501FBF80B5022100F02CF9009805F04AFD47
S3150000346001BD8068DFF8D413006808700878022868
S31500003470A8BF0FF20C4305DA002814BF0FF20C4365
S315000034800FF21043DFF8B8030FF2E432D0F8F0126F
S31500003490FFE70FF2D030FEF7E6B80000F8B503F00C
S315000034A0C0FBDFF8A0430FF2804204EB8000C36844
S315000034B0DFF88C03D0F830130FF25040FEF7D3F844
S315000034C0DFF88403006805F04BFD0528054614D88F
S315000034D0DFE800F003100E090C060FF204420EE0BE
S315000034E00FF2F0320BE00FF2E03208E078A206E0CD
S315000034F078A204E00FF2C83201E00FF2F0320FF2C8
S3150000350004410FF2F8300FF2EC37FEF7ACF8002664
S31500003510F6B254F8261005F001023846FEF7A3F875
S31500003520761C6D08F0B20328F2D3BDE8F24090E0B5
S3150000353038B50446A0680568DFF80403D0F84013E0
S315000035400FF2F030FEF78FF8EDB215B1012D07D06E
S315000035500CE00FF2E830FEF786F803F089FA05E092
S315000035600FF2EC30FEF77FF803F059FB0FF2F03064
S31500003570FEF779F82046BDE832408FE7F0B50646FB
S315000035800C4685B0204602F0F4FF0746204603F0BD
S31500003590E6F805460FF244423FB9234606F111010B
S315000035A00FF22040FEF75FF810E0039723460FF274
S315000035B06040029006F1110104F01F0001900FF225
S315000035C0484000900FF21C40FEF74DF8A5420FF25E
S315000035D0C43605D02A460FF240413046FEF743F87E
S315000035E0204603F0A4F8024612F1010F0FF27830DC
S315000035F00FF27C3108BF0FF2803210D012B90FF2F1
S3150000360080320CE0DFF84402DFF84012B2FBF0F043
S3150000361001FB102131B902460FF280313046FEF728
S3150000362022F813E04FF47A71DFF82402B2FBF1F1CD
S315000036304FF47A7303FB11230078002B06BF0A466A
S315000036400FF260310FF26C31FDF702FD05B0BDE8F7
S31500003650F04066A0FEF707B810B5044603F029F857
S3150000366001462046BDE8104088E738B5044603F019
S31500003670D8FA05007248D0F810130FF2A43018BF1C
S315000036800125FDF7F0FF03F0CAFAA0680068C0B292
S3150000369002F0BEFF02460FF220210FF2B830FDF70E
S315000036A0E2FF0DB103F0E4F92046BDE83240D3E76E
S315000036B00121684602F09ABE10B5044603F0EBFC01
S315000036C004F11101BDE8104003465AA2C2E0000011
S315000036D054780000527800002DE9F84F06468946D6
S315000036E0154603F09EFA040018BF012403F0CEFA33
S315000036F0002E4FF07F0A6FF07F0B4FF000088DF819
S31500003700000008D10126022003F0C4FA642002F06A
S315000037100CFD374612E0F6D576420020F4E780200D
S3150000372002F003FD03F0C7FB83455246B8BF83464C
S3150000373082469245C8BF924680447F1E012FEEDA2C
S315000037409DF8000003F0A6FA0CB103F091F9B9F167
S31500003750000F18BF89F800A015B198FBF6F0287085
S315000037605846BDE8F28F10B500F01AF804F11101C1
S31500003770BDE8104003460FF204320FF2EC20FDF7CD
S3150000378072BF10B500F00CF803F006F804F1110151
S31500003790BDE81040034628A20FF2E820FDF763BFFC
S315000037A0044600220021012096E710B5044686B0A3
S315000037B0A068006804AA0DF11101FFF78DFF0390C0
S315000037C004F111010FF204309DF911300FF2EC22D1
S315000037D002909DF9100001900FF2E82000900FF280
S315000037E0C020FDF740FF06B010BD00007D0D0A00A9
S315000037F080B503F0CAFC034611480FF2E822D0F860
S3150000380090130FF2D020BDE80050FDF72CBF10B585
S3150000381004460B48D0F8A0130FF2D820FDF723FF7B
S31500003820A068006840B203F07FFC2046BDE8104067
S31500003830DEE700004343410045440000F4EB00206E
S31500003840B48901005CE8002068ED002040420F00CA
S3150000385024E800200FF20420FDF705BF81680968FF
S31500003860C9B28BE67B264E202674737D0D0A0000B6
S315000038705045522054657374204D6F6465000000F6
S31500003880656E61626C65642D6E657700656E61625A
S315000038906C65640064697361626C656400000000B5
S315000038A061736C65657000006177616B650000008F
S315000038B0656E6572677900007374617475730000D4
S315000038C049646C650000000052784163746976654E
S315000038D000000000547841637469766500000000BA
S315000038E0496E61637469766500000000556E6B6E03
S315000038F06F776E002026746800000000202674731F
S315000039000000000052665374617465007B264E20E9
S31500003910526164696F20706F776572207374617489
S315000039206520267473000000706F776572207374CB
S31500003930617465007B264E2000000000536C6565AF
S3150000394070696E6720726164696F2E2E2E0000000A
S3150000395057616B696E6720726164696F2E2E2E0047
S31500003960646F6E657D0D0A002026747000000000ED
S315000039706672657100000000696C6C6567616C00B9
S3150000398050657252616D526164696F436F6E66690C
S3150000399067000000202674750000000066726571DD
S315000039A04D487A00207B667265714B487A3A256CE1
S315000039B07D000000207B66726571487A3A256C7D31
S315000039C0000000007B264E20526164696F20636808
S315000039D0616E6E656C202674680000006368616E17
S315000039E06E656C007B264E20526164696F206368A9
S315000039F0616E6E656C2026746820282674642069C2
S31500003A006E202674642900006368616E0000000061
S31500003A1070616765000000005074694368616E005C
S31500003A207B264E2053657474696E67206368616EE9
S31500003A306E656C20616E642063616C69627261748C
S31500003A40696E6720286173206E6565646564292E3A
S31500003A502E2E00002674687D0D0A00007B264E205F
S31500003A602674647D0D0A00007B264E202674642091
S31500003A705B64426D5D7D0D0A0000000052535349A0
S31500003A80000000007B264E20267464205B3830320E
S31500003A902E31352E3420756E6974735D7D0D0A00E6
S31500003AA07B264E20267464202674642026746420A7
S31500003AB05B64426D5D7D0D0A000000006D696E520B
S31500003AC05353490061766752535349006D617852EA
S31500003AD0535349007B264E202674642064426D7D34
S31500003AE00D0A0000434341205468726573686F6C89
S31500003AF0640000007B264E7D0D0A000080B5002084
S31500003B0003F021FDBDE8014005F018B938B5DFF82E
S31500003B103841DFF83811607DC870607B18B105F058
S31500003B207BFA002808D505F077FA40054CBF03203C
S31500003B300120002105F0C4FAE06901224FF47A71F0
S31500003B4005F069FB050003D000F05DF90120207542
S31500003B50284632BDDFF8F010C861887DDFF8EC102A
S31500003B600871D3E770B58EB00C460CA805F04AFB79
S31500003B70054605F077FB064605F040FBBDF8361016
S31500003B80DFF8CC200B9103460FF244010FF24800F8
S31500003B900A9103950196BDF8341009910FF2800140
S31500003BA00891BDF8321007910FF27C010691BDF81D
S31500003BB0301005910FF2780104910FF27C01029109
S31500003BC00FF27C0100912146FDF74DFD0EB070BD50
S31500003BD073757370000000007B264E2026747520D6
S31500003BE026743268202674642F31303025250D0A5C
S31500003BF020202674642F3130302525202674642F2A
S31500003C003130302525202674642F3130302525208B
S31500003C102674642F31303025257D0D0A0000000002
S31500003C2063726974000000006C696D690000000031
S31500003C3074616C6B00000000757365640000000021
S31500003C40616363656C00000078E80020D8F000200E
S31500003C50543C00006D6F6465000000002DE9F04BD8
S31500003C6006468946904605F0EFFADFF8C84507098B
S31500003C7018BF7F1EA07066708C2E18BF02F0EEFF74
S31500003C8030000FF22C1BDFF82C560CD0402E1CD027
S31500003C90882E18BF892E36D08C2E21D08D2E1DD081
S31500003CA08F2E09D024E02069401C206100F0A6F880
S31500003CB048B340F2265123E0A069401CA06100F001
S31500003CC09DF800B340F22B511AE0E069401CE06118
S31500003CD000F094F8B8B140F2375111E005F0B1FAAE
S31500003CE06069401C6061287D68B140F23E5107E082
S31500003CF032460FF2D4010120FDF722FF40F24F5168
S31500003D005846FDF745FF402E84F80080C4F82890F9
S31500003D1025D1E078022822DB401EE0702089401C75
S31500003D20208105F079F900F08020B0F1004F01D034
S31500003D3000F069F805F070F9000408D505F06CF993
S31500003D4040054CBF03200120002105F0B9F9E869C0
S31500003D5000224FF47A7105F05EFA060026D000F0D4
S31500003D6052F8300018BF8F2E1ED0207902281BDB98
S31500003D70401E20716089401C6081DFF8580500787C
S31500003D8002280ADBE969DFF85005814205D101788E
S31500003D90092902DBC178491CC170688B02F0C5F99C
S31500003DA0BDE8F04BFFF7B2BE01202875BDE8F08BE9
S31500003DB07068792D636F6D6D6F6E2D74782D7465D7
S31500003DC073742E6300000000656D62657252616453
S31500003DD0696F5472616E736D6974436F6D706C6553
S31500003DE0746549737243616C6C6261636B207374B2
S31500003DF0617475733A20307825780000206A381887
S31500003E002062287D70470021002005F059B980B551
S31500003E1002F053FC00F010F8D0F8801406E080B5EC
S31500003E2002F05EFC00F008F8D0F8A0140FF2EC40A7
S31500003E30BDE80050FDF717BC0346DFF8A4040FF2F7
S31500003E40E842704730B5044683B0A068056868B29A
S31500003E5002F042FC01906BB200F026F8D0F8901404
S31500003E600FF2D040FDF7FFFBA8A0FDF7FCFB2046B4
S31500003E70BDE83E40CBE730B5044683B0A068056890
S31500003E8028B202F032FC01902BB200F00DF8D0F807
S31500003E90B0140FF2A040FDF7E6FB9CA0FDF7E3FB94
S31500003EA02046BDE83E40BAE70FF268400FF2944262
S31500003EB00090DFF82C047047000000B5DFF82414EA
S31500003EC00FF2A4420B8B0FF2B84183B0009101931D
S31500003ED000F111010FF27C4031E18168DFF8042422
S31500003EE009681183E9E72DE9F14F84B080680088FD
S31500003EF001900124401E8041C00F029002F091FE05
S31500003F0000B101208DF801004FF0000BDFF82453BB
S31500003F10DFF8A08368697C4FADF80200D9460198A6
S31500003F20012813D000F006F93878029921B10FF272
S31500003F307041FDF78DF803E0019A78A1FDF788F846
S31500003F40B8F8182000F0F1F800F0EAF8DFF8886316
S31500003F50DFF894A3802251463046FDF7A5FBDFF833
S31500003F60740300780228A4BF3078092819DB9AF870
S31500003F70011001F0200141F0C1017170A146182124
S31500003F80B1703018029919B100F805BC002004E0A0
S31500003F90019900F8051C019800123178711801F892
S31500003FA0040CDA4611E002F005F9834698F814008D
S31500003FB048B9FFF7A3FD02F0FDF8A0EB0B0080B2B5
S31500003FC0B0F5FA6FF2D995F801B0029810B90198D8
S31500003FD082454FDA00208DF8000069463878FDF7F3
S31500003FE087FD9DF80010652944D03878642906D1EC
S31500003FF000F08EF8049800F11101002007E0442932
S3150000400007D100F085F8049800F111010120FFF7AF
S31500004010A9FD0AF101001FFA80FADFF8D002007844
S3150000402020B102F0F1F908B105F01EF9B8F8180050
S3150000403002F07BF8DFF89C02007880B1B9F1000F3E
S3150000404018BFF4703078042809DB301800F8034CE8
S31500004050201231787118641C01F8020CA4B20020F9
S3150000406088F81400012068703046FFF773FD0028B9
S31500004070834698D038780FF24C315246FCF7E8FF69
S3150000408098F80D0040B1A88ABDF80210421A387897
S315000040900FF24C31FCF7DCFF38780FF268315A46E4
S315000040A0FCF7D6FFDFF848020FF274310288387841
S315000040B0FCF7CEFF38780FF28831FCF7C9FF297874
S315000040C03878002914BF0FF294310FF29831FCF7BB
S315000040D0BFFF03F015F828B16A6A38780FF28C3101
S315000040E0FCF7B6FFAA6A38780FF2AC31FCF7B0FFDE
S315000040F0642002F01AF89DF8010008B102F0B8FC3D
S3150000410005B0BDE8F08F000024E800200D0A00008D
S3150000411052460FF2B021FCF79BBF00002575000048
S3150000412038780FF2E411FCF793BF38780FF27C2150
S31500004130FCF78EBF38780FF26021FCF789BFFDF7D8
S3150000414092FA07BD38B500F03DF800F034F818BF14
S315000041500124FCF77DFF02F062FD02F05AFF02E047
S31500004160287800F00BF800F004F8F9D102F062FFAD
S315000041701DE09DF800006528704720786946FDF728
S31500004180B7BC38B500F01EF800F015F818BF0124CA
S31500004190FCF75EFF02F043FD02F05AFF02E02878CA
S315000041A0FFF7ECFFFFF7E5FFF9D102F073FF0CB163
S315000041B002F05EFC31BDDFF83C510FF24C110400F9
S315000041C02878704700208DF8000002F02ABD2DE9FE
S315000041D0F041DFF820410FF2F02120780FF2F826A7
S315000041E00FF2EC28DFF80071FCF732FF002515E02E
S315000041F07A5D20784146FCF72BFF681005EB90703E
S315000042008010B5EB800007D13878854204DA207833
S315000042102A463146FCF71CFF6D1CEDB23878401C6F
S315000042208542E5DBBDE8F0818068DFF8BC100068F8
S3150000423008707047D8F000202DE9F84304460025A1
S31500004240A068DFF8B06007680FF29829DFF8988059
S315000042507F1CFFB2802F06DAA06800EB850040685D
S3150000426008F8070005E030786B1C7A1E4946FCF713
S31500004270EFFE6D1C042DEBDBBDE8F1831A4814211B
S31500004280017001214A1E4254491C8029FAD3704705
S315000042901248194A0021016141618161C1610162CF
S315000042A01160164A1160018141810020144908609D
S315000042B07047000078E8002080680A4A007801000C
S315000042C018BF0121517302280E490CBF012000209E
S315000042D008707047F4EB002040FD0020D8F0002065
S315000042E0B489010078E80020C0FC0020F5EB00202E
S315000042F0C6FD002024E8002044F9002040F90020F3
S31500004300E4F900205BED00202765276E642E2E2E33
S315000043100000000073746174757300007B264E20E4
S3150000432026746464426D7D0061637475616C506FC0
S31500004330776572007B264E2026746464426D2026C3
S3150000434074647D00726571756573746564506F770A
S31500004350657200007B264E202674647573202674D1
S31500004360327875737D0000007472616E736D6974C6
S315000043702064656C6179202864656329000000006B
S315000043807472616E736D69742064656C617920283E
S3150000439068657829000000005478696E672000007F
S315000043A0696E66696E69746500000000207061635D
S315000043B06B65747320257520757320617061727446
S315000043C02E2000000D0A2575207061636B657473DD
S315000043D0207472616E736D69747465642E0D0A00C3
S315000043E02575206661696C65642064756520746F47
S315000043F0206368616E6E656C20627573792E0D0A96
S31500004400000000004C617374207061636B6574205A
S315000044107374617475733A2030782532780D0A000A
S315000044204C617374207061636B6574206261636BA9
S315000044306F66663A2030782532780D0A0000000053
S315000044404672616D652070656E64696E6720696E7F
S31500004450206C6173742041434B3A20005965732EDA
S315000044600D0A00004E6F2E0D0A0000005346442030
S3150000447074696D652028766961205346442073650A
S315000044806E742063616C6C6261636B293A203078CC
S315000044902532780D0A0000005346442074696D6584
S315000044A0202876696120545820636F6D706C65749E
S315000044B0652063616C6C6261636B293A20307825F4
S315000044C032780D0A00000000206C656E3A2000006C
S315000044D030782578200000000D0A307825783A20BB
S315000044E0000000007061796C6F6164206279746508
S315000044F020696E6465783A202564206973206F759B
S3150000450074206F662072616E67652E206172677512
S315000045106D656E742025642069676E6F7265642E02
S315000045200D0A0000130018BF01231A46FFF796BBB9
S3150000453010B5334886B0016841F4807101604FF4CC
S3150000454016713048016002AC2F4941602F4901675E
S315000045504FF4F071816001202D49086004F0DCFE03
S3150000456004F085FF05F05BF90FF2A800D0E90023FF
S31500004570CDE9002301208DF80300684605F0CCFA4A
S3150000458005F054FD01F024FE0FF290000FC884E8F8
S315000045900F0008208DF8140002A805F0E1FD06B012
S315000045A010BD05F0EBBD05F0EABD80B50021002089
S315000045B004F0A6FDBDE8014004F00EBE04F00DBEF9
S315000045C0002818BF04F096BE04F095BE80B503F02F
S315000045D012FA01460FF254000C2938BF00EB810095
S315000045E002BD80B503F00BFA0FF270010204120E41
S315000045F051F8221000F0FF0001EB800002BD000020
S3150000460000000E408C420E404A5D050028E216006E
S3150000461010300E400000000000000000109B01005A
S31500004620089B0100189B010000000000554E4B003E
S315000046304649420042544C004558540050575200D7
S3150000464057444700205357004352530046534800EF
S3150000465042414400464C540042524F00389B0100F0
S315000046603C9B0100949B0100B49B0100C09B010090
S31500004670C89B0100D49B0100E49B0100EC9B010058
S31500004680F89B0100089C0100289C0100012100F014
S315000046901F029140DFF84C2A05E0012100F01F02BD
S315000046A09140DFF8442A400942F820107047012162
S315000046B000F01F029140DFF8342AF4E710B5DFF866
S315000046C0304A30B1012807D0102802D0202803D064
S315000046D004E00020204410BD1C20FBE74FF4BD7110
S315000046E00FF62430FDF754FA204610BD4268928832
S315000046F04089401A824201DA012070470020704743
S3150000470070B5012884B0044604D9B0F1100101D077
S3150000471010393BD1012818BF202832D1FFF7CEFF30
S31500004720054601F0EBFC0646A86901AB6A4602A9FC
S3150000473006F0B6FD00992A89286889B200F030F89B
S31500004740304601F0E1FCA86906F021FE012818D1E7
S31500004750296828898988401A298A884211DBA8692C
S3150000476090F83110022903D106F098FD022804DAE8
S31500004770A86990F83100012803D1A869002106F044
S31500004780DFFD200014BF102CFDF72AF97FBDDFF8EE
S315000047906409416821F0020141600221016070470D
S315000047A070B500F095FB01F0A9FCE188A9420CD296
S315000047B02288521A521992FBF6F306FB1322228024
S315000047C0A288AA18511AA180E58000F0F5BCF8B5B8
S315000047D0012818BF20280C46154616D1FFF76EFF94
S315000047E00646307B10B101207073F1BD707B18B1A5
S315000047F03046BDE8F240B9E00FF2D91700F006F8EE
S3150000480018B100F003F80028FBD1F1BDB0693B46B2
S315000048102A46214606F09FBE70B505460E46FFF7AE
S315000048204DFF012D18BF202D044640D1A069016817
S3150000483090F83200E8B90420886400F06BF9A069AA
S315000048400068C16C002E07D041F00401C1640C2041
S31500004850FFF71CFF052106E021F00401C1640C20CE
S31500004860FFF71BFF0021A0690068BDE8704006F055
S3150000487009BF0420486300F04DF9A0690068816B08
S31500004880002E07D041F0040181630C20FFF7FEFEE5
S31500004890052106E021F0040181630C20FFF7FDFEEF
S315000048A00021A0690068BDE8704006F074BF70BDC5
S315000048B0F8B50446DFF8400881421D4634D000268C
S315000048C000F0ABF82DD13A893868A9B2FFF768FF36
S315000048D039680020C88002E0384600F026F82046F5
S315000048E006F0DCFC03281CDA788AF9894843396823
S315000048F08A88002A80B2EFD00B88B7F80EC04988A4
S3150000490084446145B8BF984207DB8B42E4D2FA89FA
S3150000491082189142A8BF9842DEDA0121204606F0AD
S315000049200FFD761C022ECBDBF1BD38B50446DFF851
S31500004930CC37E089658A216802466843084400F15D
S315000049400801A06906F0BFFDA06906F0A7FC0228D1
S3150000495003DBA069002106F0F3FC608AA18A401CF3
S3150000496090FBF1F201FB1200608231BDFEB50446F8
S31500004970207B68BB60680FF25D074188084400F140
S315000049800805A0696B4601AA02A906F0A9FC6068A1
S315000049908188009A891A019A8E1A4188008888426D
S315000049A00ED26089421AA0693B46294606F0D3FD1D
S315000049B070B9606861894288711A561800F1080555
S315000049C0A0693B46F2B2294606F0C5FD00B9607300
S315000049D0F7BD00002DE9F04104469846002600F098
S315000049E01CF815D178688188414534BF85884546CD
S315000049F001F084FB79687A894988ADB2691800F0BC
S31500004A0057F87A68518079688A88521B00F0C7F88F
S31500004A10761C022EE3DBBDE8F0811C21DFF8D00610
S31500004A2011FB06F14718B869A042704738B50D4624
S31500004A30FFF744FE112D044609D1A069002106F0B6
S31500004A408FFC002020732046BDE832408EE7132DF0
S31500004A5006D1A069012106F083FC0120207331BD37
S31500004A60206801880844057220680188228900F0C0
S31500004A701EF801808188491C8180A06906F087FCA8
S31500004A80226821899288891A89B220B9E2898A42E4
S31500004A90A8BF012105DA012808D1208A814205DB59
S31500004AA00021A069BDE8344006F04ABC31BD491C6E
S31500004AB091FBF2F302FB1311704780B5DFF8400655
S31500004AC00169090606D506F053FEBDE80440014615
S31500004AD00120ABE701BD80B5DFF82806016829B1E2
S31500004AE00168DFF8242611600021016000F012F849
S31500004AF00C20FFF7CBFDDFF81406016841F0040136
S31500004B0001600221DFF8EC050160416841F0020115
S31500004B10416001BD0C20CAE580B5DFF8F40504212B
S31500004B200160416821F004014160FFF7F3FF0C20AA
S31500004B30FFF7B3FDDFF8D005006810B1DFF8C41544
S31500004B400860BDE8014022E6F8B50C461546FFF7B9
S31500004B50B5FD0646EAB2306880883189891A8842EE
S31500004B6001DB0120F2BD00270DE001F0C7FA316834
S31500004B700B8814F8012B19447F1C0A7231680A88C5
S31500004B80338900F004F8AF42EFD30020F2BD521C87
S31500004B9092FBF3FC03FB1C220A808A88521C8A8043
S31500004BA001F0B2BAF8B5012804460D4603D910380B
S31500004BB001D010384DD1204600F005FB10B9204633
S31500004BC000F081F800F0ADF8064600F0AAF82200E1
S31500004BD0DFF840150CD0012C03D0102C08D0202C67
S31500004BE037D101F1D00202604FF48C720A4402E020
S31500004BF0016001F148024260402202818022428126
S31500004C00200018BF102C03D1BDE8F140FCF7F2BD1F
S31500004C10012C18BF202C52D1012C13BF202C4FF48D
S31500004C20D07008180020012C18BF202CB06110D1BC
S31500004C30DFF8E404A98CA8618030E861F181EA8C90
S31500004C4032828A4207D21C21304606F0E5FD022058
S31500004C50F2BD0120F2BDB06990F83130012B0CD0C5
S31500004C60338993FBF1F701FB1733002B02BF92FB4D
S31500004C70F1F301FB13210029E5D1294606F03EF99F
S31500004C8000BBB069017F007E0123022201F032F9E8
S31500004C90287C012808D101212046FFF7BDFDB06917
S31500004CA0002106F04DFB0AE000207082F189308970
S31500004CB090FBF1F0B08200F083FA00F081FA00F088
S31500004CC095FA0020F2BD58B50128044603D91038DC
S31500004CD001D0103812D1204600F075FAF8B92046F6
S31500004CE000F04BFA00F01DF8012C18BF202C0646E8
S31500004CF011D1B06906F0D4F910B152BD012052BDF0
S31500004D00B06990F83100012803D100212046FFF751
S31500004D1083FDFFF73CFD1C21304606F07DFD00209B
S31500004D2052BD2046CAE438B50446FFF7C7FC05461F
S31500004D302046FFF7E5FC2868808832BDF8B50646B0
S31500004D4001280F46344603D9103801D010380BD14C
S31500004D503046FFF7B3FC05463046FFF7D1FC28681E
S31500004D60808818B92620F2BD0120F2BD01F0C6F9EF
S31500004D700646286841880844007A387028684188C1
S31500004D802A89FFF794FE41808188491E012C18BFAD
S31500004D90202C81801FD1A86990F83100012803D109
S31500004DA019E02846FFF7C1FDA86906F077FA022840
S31500004DB011DA2A68E889698A53881288414389B2D8
S31500004DC040188342B8BF914205DB9A42E9D283423A
S31500004DD0A8BF9142E5DA304601F096F90020F2BD0F
S31500004DE0F8B500F074F81F4603D9103801D0103812
S31500004DF007D13878010001D0B0420AD300202870CC
S31500004E0007E00120F2BD3878411C39709DF800108A
S31500004E10295469462046FFF791FF002856D19DF890
S31500004E2000008028F5DA39780A0003D10A2818BF6D
S31500004E300028EED0B14207D3002038709DF800005C
S31500004E400D2818BF0028E4D09DF80000082818BFD8
S31500004E507F280CD138780100DBD0401E3870002145
S31500004E60C0B2295451A1204600F045F8D1E7387860
S31500004E70801C8642BCBF0D208DF800009DF80010F6
S31500004E80204600F029F89DF8000061381A2804D25F
S31500004E909DF8000020388DF800009DF800000D28D0
S31500004EA018BF0A28AFD13978002068549DF8000051
S31500004EB00D2805D10A21204600F00EF8002603E051
S31500004EC00D21204600F008F83E700020F2BD0128B2
S31500004ED004460D461646704702B5012804D9B0F1BE
S31500004EE0100101D0103904D10122694600F076F88C
S31500004EF002BD012002BD2DE9F04701288146884602
S31500004F0004D9B0F1100101D010390ED1002818BF14
S31500004F1010280CD0FFF7D2FB0646002470680188E3
S31500004F20084400F1080A002524E0012038E0404644
S31500004F30FCF77EF9C1B2404601F08BF92FE001F093
S31500004F40DDF871680B8818F8012B1944641C0A7285
S31500004F5071680A887389FFF71AFE7068008848B975
S31500004F60671BFFB23A4600F01DF870687D19EDB276
S31500004F7000F1080A98F8000050B100213046FFF70A
S31500004F80B5FB0028DBD1307B0028F6D0222007E0D5
S31500004F90E4B2A54203DA621B92B200F003F80020E5
S31500004FA0BDE8F08751464846FFF711BC08200800C7
S31500004FB010B5012804D9B0F1100301D0103B0BD174
S31500004FC013460A4601460FF21500FBF733FF00248D
S31500004FD000B90124204610BD012010BD2DE9F84F6F
S31500004FE0012881468A46934604D9B0F1100101D0C2
S31500004FF010390ED1002818BF10280CD0FFF75EFB21
S315000050000746002478680188084400F1080800264D
S315000050102DE0012042E05946504601F01AF93CE0E5
S3150000502001F06CF879680B881AF8012B19440A729A
S3150000503079680A887B89521C92FBF3FC03FB1C22CD
S315000050400A808A88521C8A8009884D1EAD4101F06B
S315000050505BF8ED0F761C55B1351BEDB22A4641467D
S31500005060FFF7A1FF78682C19E4B200F10808F0B246
S3150000507058450AD200213846FFF738FB0028CFD121
S31500005080387B0028F6D0222008E05C4505DAABEB39
S31500005090040292B24146FFF786FF0020BDE8F28F78
S315000050A0F8B50127FFF713FF03D9103801D01038E0
S315000050B016D1002C18BF102C04D13146284601F019
S315000050C0C8F80027FFF72DFE012C18BF202C05D1AC
S315000050D080693246294606F05CF907463846F2BD35
S315000050E00120F2BD00E100E080E100E080E200E0A6
S315000050F068F8002024A40040097000F0B1480000C0
S31500005100000001406C200E40A0F800204C00014039
S315000051104800014094F6002028E9002038B50546ED
S31500005120012D04D9B5F1100101D0103923D1FFF7B3
S31500005130C5FA0446280018BF102D03D16068808880
S315000051400028FBD1012D18BF202D12D16068808860
S315000051500028FBD1A06906F0BFF80028F6D1A069A7
S3150000516006F073F88006F1D5A06906F06EF88004A3
S31500005170ECD5002032BD012032BD70B50546FFF7E3
S315000051809DFA0646012D346818BF202D0DD1B06951
S3150000519090F83110012908D0022105F0C6FF002041
S315000051A0708200F00DF800F00BF800F0A7FF002168
S315000051B0A18021806180E180BDE8704000F0A4BF3D
S315000051C03046FFF7B2BB80B5012804D9B0F1100113
S315000051D001D0103906D1FFF771FA00281CBF00680C
S315000051E0002801D1012002BD002002BD00B583B018
S315000051F000200190002301200090012201210020BF
S3150000520000F03DFE07BD0000636F6D2E63000000D9
S3150000521062F30F2262F31F42401810F0030308D016
S31500005220C91A1FD3DB0748BF00F8012D28BF20F895
S31500005230022D130030B414461546103928BF20E954
S315000052403C00FAD8490728BF20E90C0048BF40F8BF
S31500005250042D890028BF20F8022D48BF00F8012D33
S3150000526030BC7047C91818BF00F8012DCB0728BFFE
S3150000527000F8012D7047000006F0D2BA890001EB54
S31500005280401000F1844002607047890001EB401035
S3150000529000F184400068704710B5DFF8C847122156
S315000052A02046FFF7F2FF0028F9D12068000C00F035
S315000052B0030010BD0122DFF8781610B5884232BF10
S315000052C00022DFF87016884201D2144600E002245C
S315000052D01021DFF86406FFF7D1FFDFF88C070168BD
S315000052E021F0807141EA0461016010BD70B5DFF8FC
S315000052F07C270FF23C041368002304EBC305CEB2EF
S315000053002D79B54203D154F83350854202D25B1C45
S31500005310052BF2D3052B0EBF032004EBC300407907
S31500005320116821F0407141EA0060106070BD000014
S3150000533040787D0100000000005A62020001000072
S31500005340C0CF6A0002000000809FD5000201000065
S31500005350406F40010202000038B500F013F841F634
S315000053607130206006F0A1FA002105E038B500F0A2
S3150000537009F841F671322260FFF7B8FF0DB100203F
S31500005380206031BDDFF8FC46256805B10125704770
S31500005390C01C0F2801D2000770474FF070407047BD
S315000053A038B50446002500F067F9DFF8C426DFF8B3
S315000053B03016944208D0DFF8BC26944206D0DFF8B7
S315000053C0B826944204D006E0086802E0486800E087
S315000053D0886800F00700401E04281CD8DFE800F0AB
S315000053E009030D06090006F097FA04E006F091FAA3
S315000053F001E006F08BFA05460DE006F049FADFF803
S3150000540068160968090E01F001010122491C02FA19
S3150000541001F1B0FBF1F5284632BDDFF86C164A689B
S31500005420D20702D40A680242FCD1704780B500F068
S31500005430DDF8401C02BD0000F8B50446200A00F065
S315000054400F000026401E09280D46DFF8B07714D855
S31500005450DFE800F0051C1413071E21132428DFF8CB
S31500005460D874C4F3043416B13046FFF7D6FF2A4683
S3150000547021463846BDE8F84000E7F1BDDFF81008E0
S3150000548000F013F8FFF716FF0837EAE71037E8E7EA
S3150000549030370126E5E738371026E2E740374FF484
S315000054A08036DEE7DFF85478DBE770B5DFF8DC1529
S315000054B0DFF8BC250E68DFF8BC15DFF8AC45012522
S315000054C010F4781075D0B0F5003F30D0B0F5802FCD
S315000054D027D0B0F5002F6CD0B0F5202F2DD0B0F529
S315000054E0402F5ED0B0F5602F3FD0B0F5901F53D05F
S315000054F0B0F5A01F2AD0B0F5B01F39D0B0F5D01F37
S3150000550022D0B0F5E01F31D0B0F5001F44D0B0F581
S31500005510281F22D0B0F5301F31D0B0F5381F4BD040
S3150000552061E006F0C4F9E168C1F308210AE006F07B
S31500005530BEF9A168C1F3082104E006F0B8F9616973
S31500005540C1F30421491C24E0104627E01046FFF76A
S3150000555027FF216A01F00F0119E01046FFF720FF2F
S315000055600646206AC0F30110C6403DE0084615E035
S315000055700846FFF715FFA16AC1F3011107E00846C7
S31500005580FFF70EFFA16A090A01F00301091D05FADA
S3150000559001F1B0FBF1F627E0DFF8DC04FFF700FFCE
S315000055A01FE0DFF85C0700F067F807281CD0092821
S315000055B019D106F07CF914E0DFF8480700F05CF832
S315000055C004280CD007280FD008280CD106F06FF954
S315000055D02168C1F30421491C01FB00F604E006F032
S315000055E081F9064600E00026304670BD030903F047
S315000055F00F0301215B1E072BDFF86C243AD8DFE886
S3150000560003F004060A0E10142339106800E05069EE
S31500005610C0F3042070471068C0F300607047D0687C
S3150000562000E09068C0F308207047DFF8DC36984247
S3150000563004D0DFF8D836984204D01BE0106A00F098
S315000056400F0013E0106A09E0DFF8C436984204D070
S31500005650DFF8C036984204D00CE0906AC0F301101F
S3150000566004E0906A000A00F00300001D01FA00F051
S31500005670401E704700207047014601F00F010120CF
S31500005680491E0729DFF890264ED8DFE801F0040FFF
S31500005690134D21334D3B506A00F0070002283FD0DE
S315000056A002D3042804D01FD305207047116910E0E7
S315000056B002207047516901F00701491E042934D8B8
S315000056C0DFE801F0120304141600F1E70620704724
S315000056D0916901F00701012906D00229E8D00429C1
S315000056E004D0052904D07047032070470A2070476C
S315000056F00B207047116811F001010FD0012914D158
S3150000570009207047DFF81416096801F030011029E6
S3150000571004D0202904D0302904D0704707207047D0
S315000057200420704708207047002070472DE9F84391
S31500005730804600260324B8F1110F0F46A14612D168
S31500005740042F02D106F0CEF808E0052F0BD1DFF8C2
S31500005750D005DFF8D0150068884204D306001CBFC8
S31500005760002104F090F908F00F00401E0728DFF82A
S31500005770A8550ED8DFE800F0043D439440789482A3
S31500005780022F6B4806D0032F29D0042F2AD0052FCD
S315000057902DD085E004244FF000090122012148465E
S315000057A000F08AF9FFF7D8FD36B11221DFF8B4020E
S315000057B0FFF76BFD0028F8D16C6000F083F8FFF767
S315000057C079FD06F065F80446FFF766FD01462046BA
S315000057D0FFF7CCFD002E63D1BDE8F443FBE04FF0AC
S315000057E00109DAE70224A146FFF764FDD5E70124A3
S315000057F0FAE705F1100404E005F1180401E005F1EB
S315000058001404012F0AD0022F0BD0032F10D0062F1D
S3150000581015D00A2F1FD00B2F1FD041E0002020608B
S315000058203EE001220121002000F046F90220F6E7C1
S3150000583001220121012000F03FF90120EFE706F0E7
S3150000584027F8FFF737FD01220221DFF8B003FFF743
S3150000585015FD0320E3E70420E1E7012201210620EC
S3150000586000F02AF90520DAE7072F02D0092F02D027
S3150000587016E0002000E00120286011E0012F06D08C
S31500005880042F16D0072F0DD0082F19D008E00020BE
S31500005890DFF888140A6822F0300242EA0010086035
S315000058A0BDE8F18301220121042000F005F9012061
S315000058B0EEE701220121022000F0FEF80220E7E7D0
S315000058C00320E5E7DFF8C803EFE5714ADFF8601467
S315000058D090421FBF6F4A90426F4A904215D06F4A5E
S315000058E0904214D06E4A904213D06E4A904212D023
S315000058F06D4A904211D06D4A904210D06C4A904247
S315000059000FD06C4A90420ED00FE008687047C86806
S31500005910704788697047C8697047086A7047886A1F
S315000059207047C86A7047086B7047002070470000D0
S315000059300148E8010190D00300400E4070B50446CE
S31500005940FFF7C3FF0646DFF8D8030568046000F0DA
S3150000595096F8052808BFFFF7FFFC18214A48FFF70D
S3150000596094FC0028F9D14A498C4208D049498C4216
S3150000597007D049498C4208BF26F0C06604E00220E1
S3150000598000E0012060F35A6600F079F8052804BFAC
S315000059902046FFF78FFCA54203D20121204604F0E2
S315000059A072F8DFF88403066000F069F8052808D16C
S315000059B005F06EFF0646FFF76FFC01463046FFF71F
S315000059C0D5FCFFF77FFFFFF775FCA54202D3BDE8C4
S315000059D0704000E070BD0121002004F054B80000C2
S315000059E080400E4070B500F049F8012200210220E7
S315000059F000F062F8217CDFF83C5300200229296878
S31500005A0008BF0120490840EA4100286008212278A1
S31500005A102846FFF733FC6868E17AC00841EAC0000F
S31500005A206860617AA08841EAC020A860EE68207AA2
S31500005A30FFF7AEFCE28806F07F6141EAC221A27A56
S31500005A401143227A41EAC2110843E860A17B607BD8
S31500005A50090141EA0030E17B0843217B40EA01402D
S31500005A60286170BD04300E4000410E4004000E4017
S31500005A7002001A0003001C00050020000446112045
S31500005A80FAE5000040000E4040410E40F0E80020DC
S31500005A9040420F0080841E0000093D00C0CF6A000E
S31500005AA0405DC6000024F400C0EA210180BA8C01E2
S31500005AB00048E80180D543022DE9F84F06288246C2
S31500005AC0904634D8DFE800F04F4A4004457A560045
S31500005AD001260220012700240029DFF81C92954D9B
S31500005AE067D0BAF1020F02BF2868C0F30110002880
S31500005AF04FF0000B0CD1904800682868C0074FF0A3
S31500005B00010B05D5286820F0300040F01000286011
S31500005B10EE6300F055F80028FBD0B8F1000F4DD029
S31500005B20394600F04EF80028FAD0BAF1020F45D1F6
S31500005B30BBF1000F42D02868C00722D501222021E0
S31500005B40022000F0C8F820E00426082003270224DB
S31500005B50C2E71026202005270424BDE74026802022
S31500005B6007270624B8E74FF480764FF4007009271C
S31500005B700824B1E74FF480464FF400400F270E2467
S31500005B80AAE70021022000F085F8022000F01CF8A8
S31500005B900446012200210220FFF78EFF2146022043
S31500005BA000F02EF8EE63394600F00BF80028FAD024
S31500005BB004E0E86300F004F80028FBD1BDE8F18FAB
S31500005BC021464846FFF761BB401E0328564912D8B6
S31500005BD0DFE800F0020C06080869C0F30800704709
S31500005BE0086800E0886800F07F0070475348006846
S31500005BF0C0F30A007047002070470000B0400E4016
S31500005C0070B5401E0D46032805F07F01464C474EF1
S31500005C103DD8DFE800F0022A101DC5F308051A2159
S31500005C203046FFF732FB0028F9D12069400A45EAE1
S31500005C304020206170BD0D4618213046FFF725FB38
S31500005C400028F9D12068C00945EAC010206070BD5F
S31500005C500D4619213046FFF718FB0028F9D1A06838
S31500005C60C00945EAC010A06070BD2348006860699D
S31500005C7020F0300040F010006061C5F3C310FFF75C
S31500005C8087FB216A2E4A114029430843206270BDD2
S31500005C900025080027480268C2F30112002A18BF2F
S31500005CA0002907D0202902D0302903D005E04FF47F
S31500005CB0000103E04FF4400100E02249C26E0A40B1
S31500005CC08A42FBD1490204D5C06F800A00F0010068
S31500005CD070470120704710B502280AD10B0004D086
S31500005CE0194B4FF480645C64196012B1BDE8104032
S31500005CF0D0E7012010BD000090400E4050410E40FC
S31500005D0006000C0098002E006006140060162A009B
S31500005D107017160070272C0070400E405C410E4034
S31500005D2010E90020012D310110400E4040410E4087
S31500005D303082E00F24400E403C300E409C400E4026
S31500005D4000F8FF0FFFF3E17F64400E4010B51B4BD8
S31500005D501C6890FAA0F2B2FA82F224EA000091409E
S31500005D600843186010BD164901200860704770B5D9
S31500005D7014480FF2580301680020002203EBC20406
S31500005D8053F832506468104E366876070DD4B5F570
S31500005D90007F18BFB5F5806F05D0B5F5006F18BF49
S31500005DA0B5F5803F01D144F48074294202D02142E6
S31500005DB008BF2843521C092AE0D370BD00500E408C
S31500005DC008500E4004500E40E841E00F010000006C
S31500005DD000000000040000000100000008000000B0
S31500005DE0010000001000000001000000000100009A
S31500005DF001000000000800001D0000000002000075
S31500005E001D000000000400001D000000000001004D
S31500005E101D0000000168C90707D58168890704D4F9
S31500005E208168C907FCD4012141607047890001EBF4
S31500005E30401000F184400260704700F1806300F179
S31500005E40C0601960026070473023464A58431044C8
S31500005E500C3000F1806006E03023424A584310447B
S31500005E600C3000F1C060012202FA01F101607047B6
S31500005E703D490A68920840EA8200086070472DE9A9
S31500005E80F04101F00308144603270F21082C1D4694
S31500005E900CD2A60000FA06F2B1403448FFF7CDFF57
S31500005EA008FA06F207FA06F131480DE0A4F10802F5
S31500005EB0960000FA06F2B1402E48FFF7BEFF08FA38
S31500005EC006F207FA06F12C48FFF7B7FF2A462146E5
S31500005ED02A482B4DFFF7AAFF069A21462846FFF7C8
S31500005EE0A5FF0120A04028612146079A2548BDE864
S31500005EF0F0419BE7F8B50446164630000D461F46AE
S31500005F0007D0002F204602D0FFF7A6FF01E0FFF7DB
S31500005F109BFF30210F22134811FB04F1082D084482
S31500005F2005D2AB00416800F015F8416006E0A5F126
S31500005F3008039B00816800F00DF881604EB9002FC0
S31500005F402946204602D0BDE8F44085E7BDE8F44086
S31500005F507AE7F1BD9A4021EA020206FA03F11143FB
S31500005F607047000000A0004044A4004000A4004088
S31500005F7008A4004004A400400CA4004010A4004063
S31500005F8014A4004028A4004010B5DFF85441DFF8FF
S31500005F905411E16103202061606110222262002217
S31500005FA00FF24410A061A2622066626201F1100045
S31500005FB06066E2621020A0662267E26662672AA136
S31500005FC00422E01DFBF770FB07220FF22811204682
S31500005FD0FBF77AFB2020A07110BD2DE9F843DFF80E
S31500005FE00071064638788946904608B9FFF7CCFF17
S31500005FF018207043384400F1600600253769F468BC
S31500006000BC4212D2B068C51B7068454588BF45467C
S31500006010C1192A464846FBF747FBB068EF19874285
S31500006020A944A8EB050808BF0027E41B444588BF20
S3150000603044463CB17068C11922464846FBF734FB1A
S315000060406519E71905B137612846BDE8F283F8B549
S3150000605004460D46164600F051F8074632462946D4
S315000060602046FFF7BAFF01E0525454000446384672
S3150000607000F04AF82046F2BD2DE9F84300F027F873
S3150000608008B9FFF781FF00F039F879690026182270
S3150000609002FB06F3FB185B6E13B1761C8E42F7DB30
S315000060A08E420CDA02FB06F1791800220C664D6668
S315000060B0C1F868800A67CA66C1F8749001E04FF0BB
S315000060C0FF36FFE700F020F83046BDE8F283044FC4
S315000060D0044638780D4690469946704754E70000C6
S315000060E000EC002074F500205465726D696E616CD9
S315000060F0000000005345474745520000EFF311806A
S31500006100602181F31188704780F311887047000081
S3150000611010B5044603E04FF47A7005F06EFC204695
S31500006120441E80B20028F6D110BD05F066BC10B53D
S31500006130044605211120FFF7F9FA0022002102206A
S31500006140FFF7BAFC1848194A01686FF3D3210160BA
S3150000615002EAC422016811430160012201210220E2
S31500006160FFF7AAFCBDE8104004211120FFF7DEBAB4
S315000061700D4800680003C00D704738B50C480C4642
S3150000618001884FF6FF75ADF8005002237F2268465E
S3150000619002F0EEF8BDF80000A84202D020800120EF
S315000061A032BD002032BD000030400E4000F80F0026
S315000061B032A0010080B503F0A1F903F0ACF980B27A
S315000061C002BD80B503F09AF9BDE8044003F0A3B917
S315000061D080B505F0BAFB074800214160001D03F0B9
S315000061E023F920B139210FF21400FBF7D1FC00206E
S315000061F002BD0000B0F9002000F008B8737973748E
S31500006200656D2D74696D65722E6300007047000020
S315000062100A46090241EA12214840C0F303114840E8
S3150000622080EA003041010206C9B2D20E41EA0221DB
S31500006230484080B27047000003460A4662A1042027
S31500006240FFE70CB480B502AA00F00AF801BC5DF8BD
S315000062500CFB0A0003D003465CA11120F1E770474E
S315000062602DE9F043A3B005460C469046FBF742FBEA
S31500006270002600287BD0564F02A878602946802049
S31500006280387002A8FBF73CFB002C787069D007E059
S315000062908DF80400012201A9002000F071F8641CA9
S315000062A0207801005DD0A0F130020A2A05D20A2129
S315000062B001FB0600A0F13006F1E7422818BF44288A
S315000062C00CD0462827D0572808D0622836D0662812
S315000062D021D06C281CD070281DD0D9E7422807D1C0
S315000062E058F8042B6946012005F0F0FB01220DE069
S315000062F0572858F8042B694604D1012005F0E6FB1F
S31500006300022203E0012005F0E1FB04226946C3E70F
S3150000631058F8046BC3E758F8041B462807D1002633
S31500006320885D00281EBF761CF6B2FF2EF8D1F2B2A9
S31500006330002000F025F8A0B90026B0E758F8045B65
S31500006340A8B20028ABD0FAF7DDFE8146A8B2FAF76C
S31500006350C1FE01465FFA89F2002000F011F800281C
S315000063609DD07868791CFBF72EFB00B9787023B0B6
S31500006370BDE8F083122804BF0020FEF7E5BB704796
S31500006380F8B515000C46124E1CD07078317873683B
S315000063900F1AFFB2EDB2BD42B8BF2F463A462146AC
S315000063A01844FAF7DBFE707838187070ED1B3C4421
S315000063B0E8B238B17068711CFBF705FB0028E4D021
S315000063C00120F2BD0020F2BD574600006C700000AF
S315000063D08CF6002080B5002300931346012202F0BC
S315000063E0D8FD01BD00F002BF00F000BF10B54C00A3
S315000063F0014600F06FFD224602F0B9FDA04201D031
S31500006400002010BD012010BD80B500F063FD05F031
S315000064109CFB00B10120C0B202BDDFF8980B407DA5
S3150000642000B101207047DFF88C2B117B01B9704752
S3150000643080B50146106A05F0DEFB20B1BDE80440D8
S3150000644040F271110AE301BD10B5DFF8684B627DB9
S31500006450010018BF012102B101229142607519D0D5
S3150000646068B16FF07F00FFF7DEFF02F0D5FDC005D3
S3150000647010D5206ABDE81040012105F078BCDFF890
S31500006480304B94F90C0000F04FFE207ABDE8104026
S3150000649000F03BBD10BDDFF81C1B497D01F0FE017D
S315000064A00843D1E780B500F015FD02F059FD00F074
S315000064B00300032801D1012002BD002002BD80B5E2
S315000064C0B0F5004F07D100F05AFEDFF8140B00F0CC
S315000064D0EAFCBDF80000DFF8D81AC883002002BD28
S315000064E02DE9F04F440900F01F050027DFF89C8BCB
S315000064F000E07F1C98F80660F8B2B04236D2D8F8B1
S315000065000800FFB250F827004FF0000C01E00CF134
S31500006510010CC67E5FFA8CFEB645EAD2D0F81CE0C6
S315000065205FFA8CFC142616FB0CF6B6449EF808603F
S3150000653006F00706A642EAD19EF80960B542E6DBF8
S315000065409EF801B09EF8009006EB0B0AAAEB090A2A
S31500006550AA45DCDB11B1AC1B4C440C7012B19EF8A1
S31500006560081011701BB1C3F800E000E00020BDE880
S31500006570F08F400918BF40F01800704710B500F0C2
S3150000658047F8040008BF00F002F8204610BD10B519
S31500006590DFF88C4B206A05F0D8FA0246206ABDE87F
S315000065A01040002105F0EDBA0B38102834BFDFF893
S315000065B0E00ADFF8700B006870473EB568460021B8
S315000065C0002200230EC0DFF8E80901788DF80010DC
S315000065D0817A0A0018BF022914D10079DFF8405BDE
S315000065E000F0BDF8044600F00EF858B1286A012202
S315000065F0002102F0B7FC00F006F818B140F25B216A
S3150000660000F07DFB37BD286A6A46214602F0E1BCF0
S315000066102DE9F041044604F01F001B2886B034D251
S31500006620002000906B46002200212046FFF758FF0D
S3150000663007002AD02046FFF7B7FF5FEA000824D0FC
S31500006640DFF87069DFF8B45A306C804515D001A8C0
S3150000665041460622FBF728F8306AC6F8408001A9B1
S3150000666005F02BFB88B9306A03A905F034FBB5F9B0
S315000066701C10306A05F0FCFA38B90098B0627762EF
S315000066800098002818BFC06801E08A200EE0F0627A
S3150000669029798C421CBF2C71FFF78FFF96F90D00EC
S315000066A0C101306A09B205F01DFD002006B0BDE843
S315000066B0F081DFF8480A00797047DFF8400AB0F940
S315000066C01C00002854BF05216FF0040108180A2198
S315000066D090FBF1F040B270470A2110FB01F004E094
S315000066E0DFF8180AB0F91C00704710B500F5D7712D
S315000066F040F27722914201D38B2010BDDFF8B448D7
S31500006700217B61B10146206A05F0B2FA18B140F268
S31500006710B92100F0F4FA206A05F0BDFA02E00A2178
S3150000672010FB01F0DFF8D4198883002010BD10B5E6
S31500006730044600F014F8FF280ED02046FFF719FF94
S3150000674050B9A4F10B00102806D2DFF8CC0ADFF806
S315000067508C1B00FB041010BD4FF0FF3010BD38B588
S315000067600446FFF721FF90B10023002200212046B6
S31500006770FFF7B6FE58B104F01F051B2D07D22046C1
S31500006780FFF7F7FE18B90B2D01DB284632BDFF20B7
S3150000679032BD7047C0B2704710F1590F01DA0020C0
S315000067A0704710F1240F01DBFF2070475A300002BA
S315000067B0362190FBF1F0C0B2704710F1630F01DA99
S315000067C00020704710F1240F01DBFF207047643072
S315000067D00002411100EB91608004000E704770B515
S315000067E0DFF8D047DFF8405B00206064687828B1A6
S315000067F002F006FD012818BF032801D1002070BD54
S31500006800E16ADFF8DC3ADFF8A82700291FBFA66A8D
S315000068103669002E022817D16364906900F5FA7074
S315000068209061E07C18B100200021642203E0E87842
S3150000683029794FF4A0722070A2806170A878A070A8
S315000068408020E080002030E0DFF8E05A9069AE4218
S3150000685013D1DFF8DC3A636400F57A709061E07C6E
S3150000686088B90879207001228B7808799A40101827
S3150000687091F903201018401E0CE0636400F5FA70CD
S315000068809061E07C18B100202080642005E0487803
S3150000689020708878607008780001A0804879A07020
S315000068A008890001E080C8880001A06000F06DFC46
S315000068B0E07094F90200010048BF4042C0B270BDCA
S315000068C070B50446DFF8EC66257896F9140008B131
S315000068D08C2070BDFFF783FFB07508B10020F075FE
S315000068E0DFF8CC06DFF8402A41780174690101F52A
S315000068F0807181619379B16C002BB37B1DBFAD1E96
S31500006900EDB221F0020141F0020173B9127862B1D1
S315000069106278920609D56FF00102327541F00101E5
S31500006920826902F50872826104E049084FF0FF307F
S3150000693049003075B164032000F0FCF86A1C306A27
S315000069404FF4807392B2214605F0D1FB691C884250
S3150000695003DA40F21B4100F0D2F9002070BD0000BE
S31500006960F8B5DFF8505695F914100024091D0429CE
S315000069700FD8DFE801F0080E10100300FFF7A0FFA4
S31500006980040008D0F2BD2C75286A02F0EFFA8D20BB
S31500006990F2BD8C20F2BD02F017FCE8B1686CDFF89E
S315000069A04019884218D1A87DB0B1DFF8240B0068E1
S315000069B0002811D5DFF81C0BC168C16001220068F0
S315000069C000F00F0002FA00F0401E014204D100F070
S315000069D025FC6420FFF7A9FBFFF790FB064695F917
S315000069E0140010F1010F1CBF95F9140010F1020FED
S315000069F029D195F91400DFF8B87540422875FFF7DC
S31500006A00D9FB7862696C387949B9FFF7A8FE014667
S31500006A10AA6C286A07F1100302F0CAFA0BE0FFF726
S31500006A209EFE07F1100100910146AA6C286AD5F86E
S31500006A3044C02B46E04760B1002028758C244FF0F7
S31500006A40FF30786202E0002028758D24286A02F063
S31500006A508DFA3046FFF758FB2046F2BDDFF8080BEB
S31500006A60FBF796B82046BDE81040FFF74DBB000087
S31500006A70F8B5FFF743FBDFF838550446A87A012836
S31500006A8003D12046FFF740FBF1BDDFF8D81ADFF847
S31500006A902465DFF8D47A402008600122306A01219B
S31500006AA002F060FADFF8EC1A4FF40010086069464D
S31500006AB00FF27C0000680090306A05F007FB18B101
S31500006AC040F2C74100F0A0FE02208DF800006946A2
S31500006AD0306A05F0D8FA18B140F2C94100F094FEC8
S31500006AE0306A02F052FA0021002002F0E9FA00F0C2
S31500006AF07DFB0120A87296F91400001D07280DD809
S31500006B00DFE800F0100C0404100808086FF003001A
S31500006B10307507E0892000F0B6FB03E040F2ED4156
S31500006B2000F072FE2046FFF7EFFAFDF73EFDF1BDDD
S31500006B30040100002DE9F04DDFF874540446A87AEC
S31500006B40A04282B063D00FF2CC01DFF84C6A09682C
S31500006B50DFF8148ADFF85C74DFF838AA009103289E
S31500006B604FF4001B4FD8DFE800F047023E2BFDF73D
S31500006B7025FD386A694605F0A9FA18B140F20A51AE
S31500006B8000F04AF802208DF800006946386A05F0E0
S31500006B907AFA18B140F20C5100F03EF868790028F4
S31500006BA014BF00220222386A022105F0BCFA18B18D
S31500006BB040F2115100F030F80320032CA87218D0CF
S31500006BC0CAF800B00220A8722879FFF7C8FD01466E
S31500006BD0386A002202F0FDF918B140F2215100F0A6
S31500006BE01BF8022C13D0002C18BF032C0FD1002049
S31500006BF0A872C6F800B00AE0022C08D1CAF800B0A4
S31500006C000220A87203E040F2375100F005F8BDE813
S31500006C10F38D0000040200004046FAF7B9BF0020D9
S31500006C2088E7DFF8D804807A7047000010B503289B
S31500006C3004460ED8DFE800F009020909FFF718FF3D
S31500006C40BDE81040002000F053BC012000F050FCCD
S31500006C50D7E1BDE8104040F25551FFE680B500F09F
S31500006C600FF804D500210175006A02F07FF9DFF8FC
S31500006C708C04407A012802D1BDE80140F8E601BD46
S31500006C80DFF8480B90F9141000297047DFF8400B25
S31500006C90407A704780B5032801DB012002BDDFF88A
S31500006CA0301B4872897A884218BFFFF7BFFF002061
S31500006CB002BD2DE97C4FDFF8146B03EA010BD6E920
S31500006CC0068929EA010528EA000402EA000A45EADB
S31500006CD00B0544EA0A044D4508BF44450DD0CDE9ED
S31500006CE000230246306A0B4605F0F2F918B140F26D
S31500006CF07D5100F004F8C6E90645BDE8738FDFF85C
S31500006D006808FAF745BF38B5AA4D0446287BF8B19E
S31500006D10200018BFDFF8BC2A06D1A87C002814BFC3
S31500006D20DFF8B42A4FF000520023DFF8A80A00214A
S31500006D30FFF7BFFF002C14BF08220022286A082193
S31500006D4005F0F1F920B1BDE8344040F2B95185E6CD
S31500006D5031BDF8B50446022C0FF6B42503DB40F22C
S31500006D60E25100F0A5F8934E307B002840F0978062
S31500006D708F4FB87A012803D04FF4BD6100F098F820
S31500006D80002107F1280002F0DBF8306218B940F262
S31500006D90EB5100F08DF8306A052105F032F818B194
S31500006DA040F2EE5100F084F8306A0FF6782105F0D3
S31500006DB0CDF918B140F2EF5100F07AF8306A05F0DB
S31500006DC0F9F918B14FF4BE6100F072F84FF0FF30D8
S31500006DD0DFF8082A06230146FFF76BFF306A4FF0FB
S31500006DE0011104F0E0FE18B140F2056100F060F810
S31500006DF0306A4FF48032002104F0C3FE306A092263
S31500006E004FF0FF3105F08FF918B140F20C6100F038
S31500006E104FF8012030730223DFF8C40900F043F86D
S31500006E20BDF80000C0054CBF0020BDF8000070731F
S31500006E3002F0CAF9FFF767FFF88BFFF740FB05F092
S31500006E4039FA00F07DF83879FFF7E2FB18B140F225
S31500006E501F6100F02DF8F87900F040F8387A00F05C
S31500006E6054F8307C00F07EF8787900F0BBF800F03A
S31500006E708CF900F059F9B07C00F078FBB7F91C00EA
S31500006E80FFF733FC388C00F07FF8788C00F094F82C
S31500006E90B87900F039F9601E8041C00FB8722046FB
S31500006EA0FFF7C4FEF1BD01887F22684605F066BA89
S31500006EB02846FAF76DBE80B500F00CF8012102F005
S31500006EC08BF810F5007F02D16FF07F0002BD8005C0
S31500006ED0001602BDDFF8F408006A704710B50446D4
S31500006EE03448017B51B1611E8941006AC90F05F022
S31500006EF0B3F918B140F25A61FFF701FF2000DFF83D
S31500006F00D01818BF0120C87110BDF8B50446FFF7A8
S31500006F10F5F805462648274E0472377BFFF77DFABB
S31500006F2000F0010080F00100074204D0306A84F0CE
S31500006F30010104F01CFF2846BDE8F240FFF7E4B863
S31500006F401C48017B01B9704780B5006ADFF89418C8
S31500006F50002205F06EF920B1BDE8044040F28561DB
S31500006F607CE501BDDFF86428117B107401B9704718
S31500006F7080B50146106A05F063F920B1BDE804400A
S31500006F804FF4D2616AE501BD0949DFF8403808844B
S31500006F90197B01B9704780B50146186A002205F0D1
S31500006FA041F920B1BDE8044040F2A16156E501BDBA
S31500006FB050EA002048ED00205049DFF81038488498
S31500006FC0197B01B9704780B50146186A002205F0A1
S31500006FD022F920B1BDE8044040F2B7613EE501BDAB
S31500006FE028A00100DFF8E8174A79824200D17047ED
S31500006FF010B58C7A4871012C02D0FFF739FD00E0FC
S3150000700010BD2046BDE8104094E5DFF8C40740797E
S31500007010704710B500F032F800F02BF80146206AF0
S31500007020012201F0CEFF20B1BDE8104040F2D96147
S3150000703014E510BD80B5FFF74DFF01F0C5FF18B18F
S3150000704040F2DE61FFF75BFEBDE80140FFF7B5BA2F
S3150000705010B500F013F800F00CF80146206A002283
S3150000706001F0AFFF20B1BDE8104040F2E961F5E460
S3150000707010BDDFF85C070079FFF771BBDFF84C47FE
S31500007080206A0122012101F06DBF00004C9D010024
S31500007090E8E80020CEE738B5214C94F91400012821
S315000070A005DB94F91400032801DA002032BDDFF86D
S315000070B02007857A022D18BF002D05D00220FFF784
S315000070C039FD6420FFF731F88020FFF72EF8206A9B
S315000070D0012101F081FF044614F5007F04D000F081
S315000070E054F88000A04201DA002400E00124012DBA
S315000070F008BFFFF7BDFC204632BD000050EA002065
S31500007100DFF8E4060078704710B50446FFF7E2FEA4
S31500007110214605F0B9F9DFF8B806847110BD000004
S3150000712048ED0020ECE8002038B504467F2C0CD151
S3150000713000F025F8DFF8B406FFF7B5FEBDF800004D
S315000071407E24C00558BFBDF80040FEF7D7FF0546B0
S31500007150FFF763F960B960B27E2805D1DFF86C16D7
S31500007160896A09B191F904007E28B8BFFFF75BF977
S31500007170DFF85C0604732846FEF7C6FF31BD4FF6FE
S31500007180FF70ADF8000002237047DFF8440690F95F
S315000071900C007E2807D1DFF83406806A08B97F2004
S315000071A0704790F90400704710B501F035FF800470
S315000071B01AD500F02BF801F02FFFC0044CBF0320B6
S315000071C00120002101F09CFF01F026FF00F0FF00E6
S315000071D04FF47A7111FB00F104F14C00BDE8104048
S315000071E0DFF80C26FFF7F6B8BDE8104010B500F042
S315000071F00DF804F14C0001F0D5FEFFF753F920B964
S31500007200BDE81040002101F07BBF10BDDFF8BC4592
S3150000721004F1640001F0C6BE404B4C0080B501F09D
S31500007220FBFE4005BDE804404CBF032001200021C1
S3150000723001F046BF10B5DFF8944594F91400032811
S315000072400DD100F04CF9DFF888154FF0FF30486299
S315000072500022216BBDE810404020FDF763B910BD48
S3150000726038B50446FFF7C2FFDFF86055FEF7A9FF01
S31500007270686314B101F0E6FF01E000206874BDE820
S31500007280314001F0AFBB38B50446DFF84415DFF8EE
S315000072903C554FF0FF304862FEF793FF686395F95F
S315000072A01400012802DABDE831407DE7A87D20B14F
S315000072B0686BA863002001F0CAFF00202875286AC1
S315000072C001F054FEA87B10B10120E87331BD2046C1
S315000072D0BDE8384000220021FDF724B98027128C32
S315000072E0B78F000010B501F06FFFDFF8E04498B1EA
S315000072F0FFF7D8F880B104F14C0001F053FE01F01D
S3150000730024FF002101F0FCFEDFF8E82442F21071B0
S3150000731004F16400FFF75EF8A07C18B1BDE81040E8
S3150000732005F0D0B810BD000084E8002040780000C9
S31500007330BD8F00002DE9F047DFF890440FF2D049E9
S31500007340206A8AB005AA022104F0D4FE050003D102
S3150000735040F6E70100F0C0F89DF81400DFF87074FD
S31500007360BDF816A0DFF8908407281CBF787900289E
S3150000737008F18C0606D1BAF1030F03DB0AF1080007
S315000073808B2805D3FFF710FF3088401C30809BE028
S31500007390002000905346206A4246294604F0B2FE79
S315000073A0504503D04FF4106100F096F801208DF897
S315000073B00800CDF804A06A46206A294604F09EFE1D
S315000073C018B140F6171100F087F898F8010000F0A0
S315000073D0070002281FD1FFF709FF94F914000328BC
S315000073E008BFBAF1060F12D19DF80D0078B198F8D2
S315000073F00100000900F0010500F071F84FF0FF30C0
S3150000740078622A4600218F20FDF78CF85CE0F87937
S31500007410002859D105E09DF80D0010B10020FFF7B6
S3150000742009FFF8799DF80D10084203D040F63F1188
S3150000743000F052F8F87960B198F80100800608D596
S31500007440387A30B1206A04F095FC30B1FFF7ACFE13
S3150000745003E0FFF7CBFE0020607498F80000401CA4
S31500007460504503D040F65F1100F036F808EB0A05E8
S3150000747038792870002068709DF80E00A87095F97C
S315000074800200FFF79AF9E870FF2028710099090CAD
S3150000749069710099090AA9710099E9719DF80C10A2
S315000074A009B14FF480417180F06005F077F8B06063
S315000074B00AF10801B088401CB080C9B2627C40461F
S315000074C001F06BFA002060740AB0BDE8F087000096
S315000074D0044008404C5008404846FAF759BB002083
S315000074E02075206A01F042BD0FF22C30FAF750BB2E
S315000074F0DFF8DC12897A012907D1DFF800130B784F
S3150000750098421CBF0870FDF75BB8704710B5DFF8EE
S31500007510C002446A002C15D4FEF74CFE001B40F254
S31500007520E93180B288420DD3DFF8A00290F9140049
S31500007530032803D1BDE8104000207BE6BDE81040DB
S315000075408920A0E610BD10B540B901F07CFEFEF71B
S31500007550D5FD0446FFF7DAFFFFF784BABDE8104011
S31500007560D4E70000084008401078000038B5974D71
S315000075700446287B60B1200002D101F025FE08B147
S31500007580402200E00022002340200021FFF791FB6B
S31500007590AC7431BD18600846186008442DE9F04700
S315000075A080461446600688B01D4648BF002002D4B7
S315000075B0200602D50120FFF795FEA003834E30D5A5
S315000075C0002070746946404604F05BFE48BB9DF897
S315000075D008008B4F02280DD1BDF8000004F0E0FF33
S315000075E0FF2815D0396831F810004FF4567108425B
S315000075F00ED116E0032814D1684604F0F0FFFF28E8
S3150000760006D0396831F810004FF45671084208D098
S31500007610306A04F033FE20B90120707404F0BEFF16
S31500007620F063600410D501F0CFFD68B1FEF73AFFB4
S3150000763050B101F096FD074601F087FD874203D061
S315000076400021384601F05CFD200744BF4046FFF7A5
S3150000765071FEE00548BFFFF7A7FD4FF4185004423E
S3150000766018BFFFF7C3FDE00244BF0120FFF7F8FD96
S31500007670600244BF0120FFF7F3FDE00144BF002094
S31500007680FFF7EEFD96F914000FF2841701286FDB61
S31500007690306ADFF83C9121034FF0FF3A36D596F970
S315000076A01410012964DB96F91410032960DA00210D
S315000076B08DF8181001218DF8141003A904F00EFBA3
S315000076C003983063FEF77DFD7063B07D20B1706B6B
S315000076D0B063002001F0BBFD96F91400012804D028
S315000076E002280ED10320307542E000203075306A42
S315000076F001F03CFCC9F824A0B07BA8B9316B00228C
S3150000770018E04FF4016100F07FF831E014F0845F77
S3150000771013D00021317501F029FC042001F097FDFA
S31500007720C9F824A0B07B10B10120F07320E000223C
S3150000773000218D20FCF7F6FE1AE0A00248BF892042
S3150000774002D4A00103D58820FFF79DFD10E060005C
S3150000775048BFFFF763FDA0000AD52A480068400429
S3150000776003D40021002001F0ABFCF07D401CF07535
S31500007770A00744BF4046FFF75DFD002C04D5FFF788
S3150000778035FD4046FFF756FD05F0020100239942FC
S3150000779011D0404601F0E2FB022802D0032802D0B5
S315000077A005E0892000E08D20FFF76DFD03E040F63F
S315000077B07B0100F029F805F004010023994218BF67
S315000077C001F052FD08B0BDE8F087000048ED00204A
S315000077D050EA002040670060400000200A00FAB32B
S315000077E02CA00100C4F90020D2FD00202EA001002B
S315000077F0E5630000E9630000A4F80020D3FD002043
S315000078001CE90020044008403846FAF7C1B90000D8
S315000078107068792E630000006C69627261696C2E73
S315000078206100000000000000010060030101010189
S315000078306400B6006400C000000000000B000000F9
S315000078400000602080F311887047000010B50446E0
S31500007850FFF7F7FF200A00283A4808BF24024FF234
S315000078600F0104804180BFF35F8FBFF34F8F36480F
S31500007870364A016801F4E06111430160BFF34F8F9E
S3150000788000BFFDE780B5002000F009F830B9BDE87B
S315000078900440E3210FF2C800FAF77AB901BD2DE9D9
S315000078A0F0422B4C216842428D1815F01F0108D07A
S315000078B0002802D44842054403E04842284400F127
S315000078C020052448A5F12006A84224BF2248864266
S315000078D003D3EFF30880854201D300202DE0FEF7A5
S315000078E00DFC81461D48006810F0010718BF04F022
S315000078F0DAFE206801468D4206D2A84224BFCD2179
S3150000790000F80119F9D206E02038002201E000F85B
S31500007910012B8842FBD32560304604F0CBFEE220E3
S3150000792001E006F8010BAE42FBD30FB104F098FE5E
S315000079304846FEF7E9FB20682038BDE8F082044897
S3150000794000687047000000200CED00E00400FA0516
S315000079509CEB002058D700207017002094ED00E023
S315000079606D6963726F2D696E7465726E616C2E63DC
S315000079700000000038B5FEF7FAF90446FEF7F3F901
S315000079800020002124FA01F2D20713D50FF280005D
S315000079901C4C30F8110006284CF23C324FF20F0313
S315000079A01DD16088984216D12188080A0C2812DA5F
S315000079B0084612E0491C89B21129E3D3124908810D
S315000079C040F201720889904204D11048D0E90023A0
S315000079D0C1E9002331BD4FF4C0606280EEE740F29A
S315000079E00725A84201BF618899422188A942E5D1AD
S315000079F062800846E2E704480089000A70470248A8
S31500007A000089704700000020B4F200209400002096
S31500007A1001040000050B060B070B00000000000028
S31500007A200103010906000105000000000000000036
S31500007A30030600002DE9F04FCF4D8046A86B4107A5
S31500007A4085B007D5296C2F6D0FF2403603910024BF
S31500007A50A14607E0E96BEF6C0FF23836DFF81C93AE
S31500007A6003916C6D00074CBF0FF230320FF23432C7
S31500007A70B9EB040A07D064204FEA5A0100FB07104D
S31500007A80B0FBFAFB01E04FF0000B03980290CDF833
S31500007A900490009433460FF214314046F9F7CAFABF
S31500007AA01FFA8AF0019000961FFA8BF3BAB20FF212
S31500007AB02C314046F9F7BEFA95F8380040070CD449
S31500007AC0AAF19C00874208D1686DAD49884204D26C
S31500007AD00FF244314046F9F7ADFA0398814528BFC5
S31500007AE0A04205D232460FF25C314046F9F7A2FABF
S31500007AF04046FAF720F8286E002804BF686E002872
S31500007B002FD00FF260310FF2A0674046F9F7A0FAC6
S31500007B10002496A6286EE040C00707D557F8242013
S31500007B20107818B131464046F9F792FA641C202CB9
S31500007B30F0DB0024686EE040C00709D507EB84003F
S31500007B40D0F88020107818B131464046F9F780FA0F
S31500007B50641C0E2CEED3404605B0BDE8F04FF9F795
S31500007B6063BA404605B0BDE8F04F0FF22831F9F789
S31500007B7061BA2DE9F8430446FFF741FF40F201518F
S31500007B80401A804D0FF2B8470FF2D0460FF2B058A8
S31500007B900FF2883913D0401E14D040F2FF11401A5C
S31500007BA013D04FF44071401A17D0401E2FD0401EFC
S31500007BB050D0401E7CD0401E00F0998095E00FF218
S31500007BC0EC2172E00FF2243193E06B6D2A6D0FF217
S31500007BD068312046F9F72EFA82E00FF2783100F08C
S31500007BE08DF8A86AC0F3400018B10FF2803100F09A
S31500007BF085F8A86AC0F3807018B10FF2AC3100F0B6
S31500007C007DF8A86AC00F6BD00FF2D0314DE00FF2AD
S31500007C10084100F073F895F8240010F0030F01D026
S31500007C2000F06FF8686AC0F3C01018B12A6B3946C5
S31500007C3000F069F80027686AF840C00706D558F8CA
S31500007C402720107810B1314600F05DF87F1C082F10
S31500007C50F1D345E00FF20C4100F050F800F051F876
S31500007C60686AC0F3802018B10FF2104100F046F8A0
S31500007C70686AC0F3C03018B12A6B394600F043F881
S31500007C800827686AF840C00706D558F827201078F4
S31500007C9010B1314600F037F87F1C102FF1D395F85C
S31500007CA0240000061CD10FF21C4100F027F817E053
S31500007CB00FF2404100F022F800F023F81027686A1E
S31500007CC0F840C00706D558F82720107810B131467D
S31500007CD000F019F87F1CFFB21A2F01DA202FEED31D
S31500007CE02046BDE8F243F9F726BFBDE8F1830FF25F
S31500007CF0204100F003F800F004F8F1E72046F9F718
S31500007D0099B92A6849462046F9F794B92DE9F0470A
S31500007D108146DFF874A00FF248550FF21848002488
S31500007D2013A614A706E04846F9F792F94846F9F76C
S31500007D3002FF641C2878B8B15AF8043B2A4641462B
S31500007D404846F9F785F900E06D1C28780028FBD134
S31500007D5015F8010F00281EBFE4B204F00300032843
S31500007D6014BF39463146DEE7BDE8F08720257000AE
S31500007D700D0A00002C2000000000002030E6002044
S31500007D809C000020440000200400002070726F63F5
S31500007D90657373006D61696E00000000546872655A
S31500007DA06164000048616E646C6572002570206D28
S31500007DB06F6465207573696E672025702073746122
S31500007DC0636B202825347820746F20253478292C7D
S31500007DD0205350203D202534780000002575206270
S31500007DE079746573207573656420282575252529A2
S31500007DF020696E20257020737461636B20286F756F
S31500007E0074206F6620257520627974657320746FFF
S31500007E1074616C2900000000537461636B205F6D10
S31500007E2061795F2068617665207573656420757079
S31500007E3020746F203130302525206F6620746F74D2
S31500007E40616C2E005350206973206F7574736964DA
S31500007E506520257020737461636B2072616E67659F
S31500007E6021000000496E746572727570747320612A
S31500007E70637469766520286F72207072652D656D52
S31500007E807074656420616E6420737461636B6564ED
S31500007E90293A00004E6F20696E74657272757074AF
S31500007EA0732061637469766500000000526573652E
S31500007EB0742063617573653A205761746368646FF3
S31500007EC06720657870697265642C206E6F20726514
S31500007ED06C6961626C6520657874726120696E6692
S31500007EE06F726D6174696F6E000000005265736594
S31500007EF0742063617573653A205761746368646FB3
S31500007F006720636175676874207769746820656E99
S31500007F1068616E63656420696E666F00496E73748E
S31500007F2072756374696F6E20616464726573733A07
S31500007F302025347800000000526573657420636163
S31500007F407573653A204173736572742025703A25FE
S31500007F506400000052657365742063617573653A49
S31500007F602048617264204661756C7400484653521D
S31500007F702E5645435454424C3A206572726F722015
S31500007F8072656164696E6720766563746F722074CA
S31500007F9061626C6520666F7220616E20657863652C
S31500007FA07074696F6E000000484653522E464F5259
S31500007FB04345443A20636F6E666967757261626C09
S31500007FC065206661756C7420636F756C64206E6FD6
S31500007FD07420616374697661746500004846535283
S31500007FE02E44454255474556543A206661756C7491
S31500007FF02072656C6174656420746F2064656275B7
S3150000800067202D20652E672E2C2065786563757494
S31500008010656420424B505400526573657420636159
S315000080207573653A204D656D6F7279204D616E618D
S3150000803067656D656E74204661756C74000000009E
S31500008040496C6C6567616C2061636365737320615D
S315000080506464726573733A2025347800434653523C
S315000080602E25700052657365742063617573653AD9
S3150000807020427573204661756C7400004164647219
S31500008080657373206973206F6620616E20696E7355
S315000080907472756374696F6E2061667465722062AE
S315000080A07573206661756C74206F63637572726593
S315000080B0642C206E6F742074686520636175736527
S315000080C02E000000434653522E286E6F6E652920FF
S315000080D06C6F6164206F722073746F7265206174B7
S315000080E020616E20696C6C6567616C2061646472E6
S315000080F06573730052657365742063617573653AC1
S31500008100205573616765204661756C740000000038
S3150000811052657365742063617573653A20446562C0
S315000081207567204D6F6E69746F72204661756C7449
S31500008130000000002570203D202534780000000056
S31500008140C4900100049101003C910100409101009E
S31500008150849101003C9101003C910100C091010015
S31500008160F091010020920100449201006C920100FE
S31500008170AC9201003C9101003C910100E8920100A3
S3150000818018930100509301008C930100BC930100E9
S315000081903C9101003C9101003C9101003C910100A1
S315000081A0F49301002494010064940100709401008A
S315000081B0809401008C94010098940100A49401001D
S315000081C0B0940100C0940100D0940100DC94010039
S315000081D0E8940100F894010004950100149501004B
S315000081E024950100309501003C9501004895010059
S315000081F05495010064950100709501008095010079
S3150000820090950100A0950100AC950100B89501007C
S31500008210C4950100D4950100E4950100F095010094
S31500008220009601000C9601001896010024960100A4
S315000082303496010044960100509601005C960100B8
S315000082406C9601007C9601008C96010098960100C0
S31500008250A4960100B0960100C0960100D0960100D8
S315000082605230005231005232005233005234005222
S31500008270350052360052370052380052390052311A
S3150000828030005231310052313200523133284C52D3
S3150000829029004D535000505350005043007850531E
S315000082A052004D535020757365640050535020752D
S315000082B07365640043535441434B20626F74746F7B
S315000082C06D004943535200534843535200494E549C
S315000082D05F4143544956453000494E545F4143542B
S315000082E049564531004346535200484653520044CE
S315000082F0465352004D4D41522F424641520041468F
S3150000830053520052657430005265743100526574E0
S315000083103200526574330052657434005265743508
S3150000832000446174300044617431000010B5974C0C
S315000083300120207082B0002004F0CEF938B1002070
S3150000834004F0CAF918B100202070492016BD022396
S315000083507F220021684600F00BF8BDF80000B0F55A
S315000083607F7F03D001202070072016BD002016BD98
S3150000837010B5FF2907DC854C247844B1BDE81040D0
S31500008380C9B204F061BCBDE8104003F0F7BF10BDF0
S315000083902DE9F0410546FF2D0E461746984615DC99
S315000083A07A4C2078C0B1607828B14FF4CE710FF2C4
S315000083B04040F9F7EDFB01206070434632463946EE
S315000083C0E8B204F0AFFD0020607005E04246394691
S315000083D0BDE8F04103F0F5BFBDE8F0814BF2346132
S315000083E0401A00F0B28040F60F31401A00F0858046
S315000083F04FF48471401A00F09680C01E77D0F4388E
S3150000840000F09380401E7CD0801E00F096800F38CE
S315000084107BD0801E65D0401E7DD04FF48071401AFF
S3150000842000F07F8040F2EC41401A00F08080401E50
S315000084305FD040F20711401A00F085804FF4427178
S31500008440401A60D0001F68D04FF42B71401A00F01C
S315000084508380801E00F08280401E00F08180401ED6
S3150000846000F08080401E00F07F80401E00F0868075
S31500008470401E7BD0C01E7BD0401E7BD0401E7BD0D2
S31500008480401E7DD0333836D0143842D040F2EB212E
S31500008490401A50D0401E4CD0C01E30D012384ED09C
S315000084A0401E4ED04FF4FF71401A38D040F2FD21E5
S315000084B0401A2CD040F60F21401A49D0E23812D08B
S315000084C04FF40071401A0AD01E3843D04FF40161B0
S315000084D0401A0AD041F28E11401A55D052E02C486B
S315000084E034E02C4832E02C4830E02C482EE02C4872
S315000084F02CE02C482AE02C4828E02C4826E02C4882
S3150000850024E02C4822E02C4820E02C481EE02C4891
S315000085101CE02C481AE02C4818E02C4816E02C48A1
S3150000852014E02C4812E02C4810E02C480EE02C48B1
S315000085300CE02C480AE02C4808E02C4806E02C48C1
S3150000854004E02C4802E02C4800E02C4800887047E4
S3150000855001207047022070470320704704207047AF
S31500008560052070470620704707207047082070478F
S31500008570092070470A2070470B2070470C2070476F
S315000085800D2070474FF6FF707047000065FC002015
S315000085901CA001001EA0010020A0010022A00100D5
S315000085A024A0010026A0010028A001002AA00100A5
S315000085B02CA001002EA0010030A0010032A0010075
S315000085C034A0010036A0010038A001003AA0010045
S315000085D03CA001003EA0010040A0010042A0010015
S315000085E044A0010046A0010048A001004AA00100E5
S315000085F04CA001004EA0010050A0010052A00100B5
S315000086004BF23461401A77D040F60F31401A71D0E0
S315000086104FF48471401A65D0C01E63D0F4385DD023
S31500008620401E67D0801E5FD00F3863D0801E61D099
S31500008630401E69D04FF48071401A65D040F2EC417B
S31500008640401A4DD0401E55D040F20711401A4FD067
S315000086504FF44271401A4FD0001F55D04FF42B7182
S31500008660401A51D0801E4FD0401E022844D9C01E49
S315000086704AD0401E42D0C01E012841D9801E41D09A
S31500008680401E43D0333835D014382BD040F2EB217E
S31500008690401A27D0401E2DD0C01E2BD012380128DC
S315000086A024D940F2FF11401A2ED040F2FD21401A83
S315000086B020D040F60F21401A26D0E2381CD04FF4C5
S315000086C00071401A18D01E381ED04FF40161401AAE
S315000086D008D041F28E11401A0CD019E05C20704788
S315000086E01420704710207047942070472020704750
S315000086F0222070470220704708207047BC20704730
S31500008700FE20704705207047042070470E207047F2
S31500008710002070474BF23461401A63D040F60F31A7
S31500008720401A5BD04FF48471401A5BD0C01E59D0FA
S31500008730F438012856D9C01E54D00F3852D0801EA6
S3150000874001284FD940F20111401A4BD040F2EC41BA
S31500008750401A012846D94FF48471401A42D04FF48A
S315000087604271401A3ED0001F3CD04FF42B71401A84
S3150000877038D0801E052884BF0838012832D9801ECB
S315000087802ED0401E30D033382CD014382AD040F2A8
S31500008790EB21401A012825D9001F23D012380128C1
S315000087A020D940F2FF11401A1CD040F2FD21401A98
S315000087B018D040F60F21401A14D0E23812D04FF4E8
S315000087C00071401A0ED01E380CD04FF40161401AC9
S315000087D008D041F28E11401A04D007E014207047E9
S315000087E00320704701207047102070470020704713
S315000087F0746F6B656E2E6300DFF86C1500220A72CB
S315000088004A82DFF8682510800020C88108827047F8
S315000088102DE9F84F8046DFF8580598F80090008853
S31500008820DFF85075ADF800008A4697F830008145AC
S3150000883093461D461ED10021DFF83C2516E07C1824
S3150000884008EB010394F831C054785B78002C02BF22
S31500008850002903F0DF030CF0DF0C634504D0022986
S3150000886004BF1378002B05D1491CC9B28142E6DB4F
S31500008870002400E00124BDF8000003F051FE10B909
S31500008880F868401CF860DFF8F404DFF8DC6401687F
S315000088907162BDF80000B08186F807A0C6F820B066
S315000088A00B98B0710A9830717571386932797B69A5
S315000088B08018386196F90600C3187B613B6AC918AF
S315000088C039623968491C3960B389796AC91879628D
S315000088D01CB1B868401CB86011E007F1B4010B6820
S315000088E05B1C0B604B68C21891F909304A609842CC
S315000088F0A8BF487291F908208242A8BF0872B078D2
S31500008900002842D0F07828BB08EB090118F80900C6
S3150000891011F8011C41EA0025708A281A80B2B0F5C8
S31500008920805FA4BF0120FFF767FFDFF840040088DF
S31500008930F0827582281A81B2002918BF002D07D04F
S3150000894080B2C82101FB00506900B0FBF1F000E0E5
S3150000895000203072707818B17868401C786012E098
S315000089603178DFF81C0431B109F1010292B24146B7
S31500008970F8F7F4FB01E080F80090708AB082307A54
S315000089807072F08A308301207070F069010002D0A5
S31500008990BDE8F24F0047BDE8F18F7CB5044660188C
S315000089A01546A0F10806FEF730FB20B12078032813
S315000089B0A4BF801E2070F078FDF7EBFE96F902103A
S315000089C001910090B179707900F00F00090241EA37
S315000089D00040F179737841EA000229462046FFF704
S315000089E017FF73BDDFF88C03C16A491CC162DFF84B
S315000089F07803018A491C018270472DE9F14FDFF89F
S31500008A0068B30FF2D8339BF800B00FF2D8390FF2E3
S31500008A10DC3C0FF2E03E0FF2E4380FF2E83ABBF12D
S31500008A20000F8CB098A299A099A19AA49AA59BA789
S31500008A309BA611D00FF2D43BCDF82CB0CDF828A0D0
S31500008A40099601910090CDF82080CDF81CE000F049
S31500008A5015F80FF240300CE0CDF828A009960191E8
S31500008A600090CDF82080CDF81CE000F007F80FF25A
S31500008A70A430F8F7E5FD0DB0BDE8F08FCDF818C0CD
S31500008A800597CDF81090039502940C9970472DE93F
S31500008A90F043DFF8D472DFF8E84225788BB03E6AFF
S31500008AA097F90600FDF778FE814638792946FDF7E5
S31500008AB071FE0A95F02279791142FA79099208969F
S31500008AC0039014BF53212021BA893879FB89079274
S31500008AD00290CDF81490A8467A6A787A06920190A8
S31500008AE097F90620B88A049200903A8B0FF26C3000
S31500008AF0F8F7B9FD387880B16AA0F8F7B4FD01251A
S31500008B0069A704E0615D3846F8F7ADFD6D1CEDB26E
S31500008B10A845F7DA65A0F8F7A6FD0BB0BDE8F04367
S31500008B200FF26C30F8F79FBD2DE9F34F85B00020AA
S31500008B308DF8100090469946FEF773F80026002738
S31500008B400400DFF84002DFF82052D0F830140FF2AC
S31500008B50483018BF0124F8F786FD9DF81800E87024
S31500008B609DF8180010B90598FFF747FF6E700120B1
S31500008B70A870FEF754F80020FFF73EFEDFF808A2C3
S31500008B8009E09AF80000F8F7B1FF20B19AF8000062
S31500008B9004A9F8F7ADFF9DF8100065282AD000203B
S31500008BA0FEF7D1FC687840B19DF8180008B9FFF7C8
S31500008BB06EFF0020761C68700DE05FEA08000AD0A0
S31500008BC0FDF79CFA8346687810B9012001F0BEFAD9
S31500008BD05846FDF799FADFF8B401007820B1FDF7A1
S31500008BE013FC08B100F040FB7F1CB9F1000FC8D0A0
S31500008BF04E45C6D10CB1FDF73BFF0020A870B8F179
S31500008C00000FE87010D0B81B039001963B460FF298
S31500008C10CC2005990FF2B42202900FF2B8200090F2
S31500008C200FF29020F8F71FFDDFF85801D0F8301446
S31500008C300FF2B020F8F717FD07B0BDE8F08F00235C
S31500008C40002203E000230022012100E00021113070
S31500008C506AE7DFF82001DFF8382100210160416072
S31500008C608160C1600161416101624162816281612D
S31500008C70C161C162B4301160416001607F2101723F
S31500008C806FF07F01417270476E756D0073657100FC
S31500008C9070657200657272006C716900656400002F
S31500008CA0667000007B000000202568007D00000043
S31500008CB08068006800B101202B490870704770B5C4
S31500008CC0294D0446A17BA87A00290EBF80F0010138
S31500008CD0A168096801B10121CAB282422DD0294892
S31500008CE0A972D0F8506410001BD031460FF2A810BC
S31500008CF0F8F7B9FC3046FFF780FE0020E870687090
S31500008D000120A870FDF7C2FFE8720020FDF7C2FF40
S31500008D10A0680068012810D1BDE870400020FFF768
S31500008D206BBDE87AFDF7B6FF31460020A870BDE8B6
S31500008D3070400FF2B010F8F796BC70BD10B50A4C33
S31500008D40A07A78B1607818B1FFF7A1FE00206070B4
S31500008D500E48007830B1FDF757FB18B1BDE810405A
S31500008D6000F082BA10BD0000E8EE002034F90020C1
S31500008D7032F9002010EF0020F6EB00203CF900202D
S31500008D80D0EF0020B489010024E80020F5EB002094
S31500008D9048F90020237B264E0D0A20202674202029
S31500008DA02026742020267420202026742020267455
S31500008DB02026742020267426742020202674202045
S31500008DC020202020202674202674202020202020E9
S31500008DD0202674267426747D0D0A00006F666C6F5B
S31500008DE00000000072737369000000006761696E1D
S31500008DF000000000737461747573000074696D651A
S31500008E00000000006C656E67746800007061796C24
S31500008E106F616400237B264E0D0A202026742020D5
S31500008E2020267420202674202020267420202674D4
S31500008E3020267420202674267420202026742020C4
S31500008E402020202020267420267420202020202068
S31500008E5020267426747D0D0A000000007B256326FB
S31500008E60357520263575202635752026337520263E
S31500008E70347520266820266420266820263468203B
S31500008E8026326820263468202664202668200000C2
S31500008E90207D0D0A000000007B264E207465737449
S31500008EA020737461727420282765276E64297D0DEE
S31500008EB00A0000007B264E2026743468202674346F
S31500008EC06820267434687D0D0A00000077616B65A2
S31500008ED0730000007061636B657473006F7468657E
S31500008EE0727300007B264E207465737420656E6471
S31500008EF07D0D0A0001468AB20AB94BF6EF610F4AA8
S31500008F00000C08BF4FF6CE201180508070470288B3
S31500008F10130448BF4A40510001801046704738B5D7
S31500008F20064C62212046FFF7F2FF054641F20B018F
S31500008F30A01CFFF7ECFF684032BD0000ECEB002000
S31500008F4038B50446194804600D46204602F04CFF29
S31500008F5029462046BDE8344002F012BF0120704782
S31500008F6004F0CDBB0846114602F05FBF70470846C5
S31500008F70114605F08ABA022070470020704700208B
S31500008F807047012070470020704708484068806895
S31500008F90004710B582B0049C0094044C6468646970
S31500008FA0A04716BD0149496889690847A0EB00201A
S31500008FB00C3002F011BE0C3002F020BE0C3002F074
S31500008FC02FBE0C3002F039BE80B504F089FE0020B9
S31500008FD002BD0C3003F0AAB80C3005F0BDBA000093
S31500008FE0CDDA00003FDB00004BDB00006FDB00004A
S31500008FF083DB0000778F00007B8F00007F8F0000EF
S31500009000838F0000878F0000784A5268002914BFBA
S31500009010104322EA000002E0744840687047F8B541
S315000090200446724F72487E680025044201D0022031
S31500009030F2BD24EA0600C0037C6007D500210020AB
S3150000904000F03EF80021002000F05AF8786800F49D
S31500009050804006F48041884205D0A00B00F0010054
S3150000906000F0B7F805462846F2BD38B55F4CA5783E
S31500009070E0786168C9031CD405F0010100F0010223
S31500009080114316D0E16841B1000706D5E168082012
S315000090908847E07800F0F700E070A06868B128071C
S315000090A00BD5A16808208847A07800F0F700A070CB
S315000090B003E0607808B100206070BDE831408DE0C3
S315000090C02DE9F04104460D46FDF718F8474F804656
S315000090D03878012698B1BE78200009D1002E1CBF31
S315000090E0B868002804D0700602D5B96840208847C1
S315000090F0BD60A6421CBFBC70FFF7B7FF00261EE08E
S315000091002DE9F04104460D46FCF7F8FF374F80463F
S315000091103878012698B1FE78200009D1002E1CBFB0
S31500009120F868002804D0700602D5F9684020884700
S31500009130FD60A6421CBFFC70FFF797FF0026404665
S31500009140FCF7E2FF3046BDE8F08128494A68097815
S31500009150002029B1510303D40120110548BF032083
S31500009160704722490A780020002A1FBF012049685B
S31500009170204A114218BF0320704738B51B4D297885
S31500009180884204461ED020000ED001211A48FCF762
S3150000919053F9122005F0F1F918B90A2005F0EDF996
S315000091A050B105F00EFA07E000210020FFF7A8FFF6
S315000091B000210020FFF784FF2C702046FDF7A3FD59
S315000091C000F00CF8002032BD0848007870470020F7
S315000091D0704700B102207047704700BF034801780E
S315000091E0002141700020FDF756B90000A4F20020CE
S315000091F0FFFC0FF800080800003508000020704743
S315000092000020704728B142F21071018041808180B0
S31500009210C1800020704738B51446FDF7A1FB05460E
S315000092206CB128000BD00C48007818B10B4901200E
S31500009230087004E0002200212846FBF773F928464F
S3150000924032BD70477047704705480078704704493B
S31500009250087070470000000056ED002057ED002012
S31500009260D4FD002001207047FDF791B970B5044682
S3150000927043380FF2880508D0401E012809D9801E00
S3150000928001280ED9C01F31D02AE0BDE8704003F096
S3150000929072BF03F048FF20B103F06DFF0028FBD139
S315000092A070BD134E307808BB01203070002003F0EB
S315000092B013FA442C11D00CD3462C05D00DD3472CD1
S315000092C007D140F6010001E040F60200FEF7BEFAC3
S315000092D003E075212846F8F75BFC0020307070BD6E
S315000092E02846BDE870408721F8F752BC70BD0000E3
S315000092F0D1FD00207047704700000000656D626573
S31500009300722D626173652D636F6E66696775726132
S3150000931074696F6E2E63000010B50FF2D4000FC88B
S315000093208AB006AC84E80F0006A800F0B8FC01A8D5
S315000093300FF2A8011422F8F7C7F969466846FCF748
S315000093401CFF18B1BDF80000ADF80A0001A8FCF733
S3150000935049FB00F03DF81A4802F0C7FA00F038F869
S3150000936004211120FCF7E2F9002200210320FCF77A
S31500009370A3FB03211348FCF7D9F903211248FCF794
S31500009380D5F903211148FCF7D1F905F06BF905F081
S315000093901DFA01A80FF268011422F8F795F901A841
S315000093A005F068FA0123042205210020FCF7A2FD3E
S315000093B0FBF71CFFF8F7BDF900200AB010BD00004E
S315000093C000F0490202001A0003001C0005002000FC
S315000093D0012201210220FCF76FBB00000000000003
S315000093E0A00068010A200706020A04070000000020
S315000093F0000108070F000A00C8002000A0000100B5
S3150000940002000000006A180006010C0000000601B8
S315000094100D000000012100F01F029140DFF8C0227C
S31500009420400942F82010704770B50546FCF766FE05
S31500009430002600242821DFF8AC2201FB06F31344A2
S315000094409B7F13B1761C042EF7DB042E08BFDFF8D2
S31500009450984208D02DB17143114401238B772E60B9
S3150000946001E0DFF88842FCF74FFE204670BD38B5B4
S31500009470DFF87C42A07808B1002032BD0120A07040
S315000094800121DFF87002DFF87052FBF7D5FF0321E8
S31500009490DFF86802FCF74AF9032028710121DFF89A
S315000094A06002FBF7C9FF284605F093FA05F10C01A7
S315000094B0012005F077FADFF84C52E869C00AC002CD
S315000094C0E86140F2FF70A861002028601F20FFF7C6
S315000094D0A1FFDFF834124FF000400860A021E869D0
S315000094E040F00100E861DFF8FC0102F095F9002088
S315000094F020706070A060E060206132BD30B500234E
S315000095007B488049C4680A68C0688442F8D19818C4
S3150000951044EB030130BD30B54FF4FA5200F004F8C5
S31500009520C00B40EA414030BDA2FB004502FB01559D
S3150000953014F5804045F1000170472DE9F041FCF734
S31500009540DDFD704D6A4F8046E869296900EA01062B
S3150000955026F00500A861700717D5012038702C6821
S3150000956000F01FF8201A00F022F800F074F82046E8
S3150000957000F081F82C68E86C797821B17968401A96
S31500009580611A8842ECD300203870F00704D5012018
S31500009590A861F868401CF8604046BDE8F041FCF759
S315000095A0B3BDE86920F00400E861786870472DE9EA
S315000095B0F04300260446002528214A4871434718EF
S315000095C0387F7D77002841D0D7E900018D4207D842
S315000095D028BF844204D2001BA941C7E9000135E037
S315000095E0F87F08B938772DE0D7E90001D7E90223DB
S315000095F0201AD7E9028965EB010105F00BFAB8EBF1
S31500009600020069EB0301C7E90001386939690128DD
S31500009610786909DB0818F428786113D3D7E90001C3
S31500009620401C61F1FF3108E0401AF428786109D343
S31500009630D7E90001401E61F10001C7E90001786920
S31500009640F4387861B86908B101207877761C042E61
S31500009650B2DBBDE8F08310B5002428212148614320
S315000096604218507F18B1116A926920469047641CCF
S31500009670042CF2DB10BDF0B54FF0FF32134600218B
S31500009680184C28254D436619367F46B12544D5E941
S3150000969000679F4203D82EBF964232463B46491C7E
S315000096A00429EEDB00244FF0FF36B34208BFB24276
S315000096B00F4912D00025AB426FF0640401D8A242D4
S315000096C000D32246114B486004241C6010185863CE
S315000096D00124586840F0040058604C70F0BD00004A
S315000096E080E200E0A8EC0020011000F0041000F079
S315000096F0D4F2002000250800F4E800200500200030
S31500009700800912000820044000E100E02020044007
S31500009710012100F01F029140624A400942F82010E0
S31500009720704700BF38B5604CE068216808405F4963
S315000097300AD5C86A0568290003D000F015F800218B
S31500009740A8474FF000400BE040000AD5886A05683C
S31500009750290003D000F008F80121A8474FF0804007
S31500009760A060BDE831400CE00021C0E900118CE0AA
S315000097704F484FF040410160416821F0404141604F
S315000097807047F0B54948826A002150F8313043B13C
S31500009790146800EBC1031CB114791D79AC4200D2E8
S315000097A01A46491C0529F0DB8262136841495BB100
S315000097B00B681B0A1B020B600B6812791A430A60BE
S315000097C04A6942F0804202E04A6922F080424A61D8
S315000097D00022C36A384C54F8325045B11E6804EB77
S315000097E0C2051EB12E791F79BE4200D22B46521CED
S315000097F0052AF0DBC3621A6862B10A6822F47F4266
S315000098000A600A68187942EA00200860486940F050
S31500009810004002E0486920F000404861F0BD10B504
S315000098202649224C012008702821204601F0F4FF29
S3150000983000F027F804F13800A062E06220480168D1
S31500009840406DC1F3074100F0FF00FF2912BFFF285A
S315000098501921902001EB810200EBD2022263C000A5
S315000098600522B0FBF2F040186063FFF781FF00208D
S31500009870FFF74EFF134901200860FFF782FF002023
S3150000988010BD28210C4801F0C7BF0F4807490068E2
S31500009890496B0006400D052290FBF2F0081A00F312
S315000098A00700704780E200E024300E40C8F4002034
S315000098B02C300E401C300E4008F50020CFFD002055
S315000098C0B081E00F00E100E020300E40890001EB9E
S315000098D0401000F1844002607047890001EB40109F
S315000098E000F18440006870472DE9F041DFF8D0664A
S315000098F0DFF8D056DFF8D04678B9306B60601120BB
S31500009900FBF7BAFE207000F041F80028FBD128686A
S31500009910000C00F00300607036E061781020C1F1A1
S3150000992002018840DFF8A476E86045F60E00D7F815
S315000099300080386000206168CA0748BF0120CA0657
S3150000994048BF40F010004A0648BF40F040004A07B2
S3150000995048BF40F00400C90548BF40F4807030603D
S3150000996000F014F80028FBD1217805291CBF11202E
S31500009970FBF7DCFE2079C0075CBF022030605FEA9F
S31500009980C87044BF00203860BDE8F0811221284627
S31500009990A3E738B5DFF8380601684068090A000C05
S315000099A001F0030400F003051221DFF81806FFF7A3
S315000099B094FF0028F8D1A54217D2022C15D1112008
S315000099C0FBF734FD04461120FBF76FFD6043DFF81B
S315000099D00416884224BFDFF80006FBF7AFFFBDE898
S315000099E0344005211120FBF7A1BE31BD10B504009E
S315000099F01CBF0020FFF778FFFFF7CBFF00F01FF832
S31500009A0004B124E027E010B504001CBF0020FFF7D6
S31500009A106BFFFFF7BEFFDFF8B405DFF8A43501687A
S31500009A2045F60E020260C9074FF420721A6044BF61
S31500009A300021016000F003F804B108E00BE0DFF854
S31500009A409C05016841F00401016030BF70470120A8
S31500009A50BDE8104048E7BDE8104001F019BFDFF847
S31500009A608005016902694AF6E853036021F4403132
S31500009A7041F4003142F44032042301615B1E02616D
S31500009A80FBD10161704738B50C46DFF858150D68F3
S31500009A9028B901F00CFFC5F30421491C4843DFF83F
S31500009AA04815097831B1DFF84415884202D22146BB
S31500009AB0022001E021460020BDE83440F8B5044606
S31500009AC0DFF82005DFF8FC7400680D4601F0EFFEB4
S31500009AD0064600F01EF80028FBD13868000C00F09E
S31500009AE00300A042214613D0022C04BF3046FBF7E8
S31500009AF03DFC1020C4F102018840F8601CB9002129
S31500009B003046FBF733FC1DB100F003F80028FBD10B
S31500009B10F1BD12213846E0E670B5DFF8B4148A6963
S31500009B200378920903B10423447804B102248578AA
S31500009B3005B10825C678012E18BF002643EA821211
S31500009B4022432A43037932431A438A610A684079D9
S31500009B5022F4403242EA0040086070BDDFF890040B
S31500009B600068032920D8DFE801F00205080B00F0A1
S31500009B70FF0006E0C0F3072003E0C0F3074000E063
S31500009B80000E1300DFF86C1408D1000330F47043A4
S31500009B900AD10B6823F4704303430B60012A0AD1F0
S31500009BA0000330F4704201D0002070474A6F22F45F
S31500009BB07042104348670120704770B500250024A5
S31500009BC052EA0322DFF8306416D0521E0CD0FF3A58
S31500009BD014D0521E0AD0FF3A12D0521E08D0FF3AB5
S31500009BE014D0521E06D015E0B2680AE0B2680EE044
S31500009BF0F26806E0F2680AE0326802E0326806E0DF
S31500009C007268C2F3072402F0FF0503E07268140EBF
S31500009C10C2F3074505600C6070BDF8B50446DFF871
S31500009C20DC53686AC007FCD4DFF8D463F06910F02F
S31500009C30030704D001220D212846FFF747FEA7425D
S31500009C4002D12CBB00221EE0032F18BF002F0FD11C
S31500009C50022C18BF012C0BD14FF40020B06000F08D
S31500009C6018F8800040F00100F06130680003FCD570
S31500009C7000F00FF844EA8000F061686AC007FCD47F
S31500009C80220018BF01222846BDE8F8400D211DE636
S31500009C90F1BD686AC007FCD4F06980087047F8B562
S31500009CA00446DFF8645302202860286800F00F009D
S31500009CB002284CD1E0884B2838BF00200DD3B0F5E0
S31500009CC0FA7F38BF4FF0805007D340F6C411884260
S31500009CD034BF4FF000504FF04050DFF83063DFF8EC
S31500009CE030333169B4F90C20DFF828731940D243B8
S31500009CF0084340EAD2703061DFF81C03016841F482
S31500009D00407101600021386A40F080703862FFF7C8
S31500009D1001FF00B1042000F043F9DFF8E8122089C2
S31500009D200880A0898880A088488000F0D2F8A07BAF
S31500009D3020B1012805D1DFF8E40201E0DFF8E002F6
S31500009D40F86060880122012100F015F808B90020AA
S31500009D50F2BD686840F4806068606078FFF75DFF78
S31500009D60A07A20280CBF0122002205213046FFF7E9
S31500009D70ADFD0120F2BD2DE9F04F89B004468846BD
S31500009D80934605A80021002200230EC002A80EC09B
S31500009D90A4F5E160B0F5966F00F28880B4F5E16F46
S31500009DA0DFF880024FF4966A02AF05AD0BD94FF487
S31500009DB0E16101914FF001090068A860010EB960E8
S31500009DC0C0F307400BE08946CDF804A04FF4167A9D
S31500009DD00068A860C0F30721B96000F0FF00A86022
S31500009DE04A46DFF830623068000F00F003008DF855
S31500009DF00100034602A905A8FFF7DFFEDFF81802F7
S31500009E000068000A00F003008DF8000003464A4689
S31500009E1003A906A8FFF7D1FE019AA868B9686D687C
S31500009E20D7F804E0DDF814C0A31A0A1AAEEB05074A
S31500009E305A43029CB2FBFAF28218A4EB0C045C4370
S31500009E407B43B3FBFAF3EF189142B4FBFAF428BF55
S31500009E50824264442AD3BE4528BFAF4226D3029825
S31500009E60A04224BF0598844220D3BBF1000F0CD03A
S31500009E7030694946B9F1000F18BF0221DFF8A83151
S31500009E80184040EA022008433061B8F1000F1CD0A8
S31500009E909DF8011000224846FFF760FE30B19DF89C
S31500009EA0001001224846FFF759FE08B900200DE0D0
S31500009EB0A74228BF3C46E72CB06928BFE724400AE2
S31500009EC049EA440141EA4020B061012009B0BDE8F9
S31500009ED0F08F10B5DFF83C114B6A0C68E4074FF0C1
S31500009EE0FF3203F0070325D5022B23D3142828D3EA
S31500009EF01438142832D30F22086820F47F4040EA31
S31500009F00022040EA023008600868C0F303223D4898
S31500009F10038803F12804521C03EB5403283302EB95
S31500009F208204B3FBF4F35B1E072B34BF1B064FF012
S31500009F30E06315E00C68E40709D4022B07D20A286F
S31500009F4001D20322D8E70A380A2807D3D3E70C68D8
S31500009F50E407D1D5022BCFD22828CCD20722CBE7D3
S31500009F600C6824F0EE64234343F480130B60B0F9CD
S31500009F700400002813D480B200F1280300EB53003C
S31500009F805308283003EB4202B0FBF2F04A68072878
S31500009F9034BF0001702022F070021043486010BDEB
S31500009FA038B504461B4D0021FFF7F1FC686AC0086E
S31500009FB044EAC0006862BDE832401248408888E73B
S31500009FC060400E4004300E40CCF2002080410E402E
S31500009FD000300E40012D3101C0EA210110ED00E0F4
S31500009FE008300E4000410E40C8F20020002D31011D
S31500009FF03083E00F6C300E401C83E00F54300E406F
S3150000A00024300E40C0FD002038300E403C300E405B
S3150000A010FEFFFFCF4C300E40E0300E40372110B728
S3150000A020774020571883E00FFD80FFFF4348016803
S3150000A030090C09048160404801607047404A4109A3
S3150000A04052F8212000F01F00C240D20706D53D4A33
S3150000A05052F82110C14001F00100704700207047FE
S3150000A0600000000070B50646072808BF032602D088
S3150000A070082808BF0226F7F783FB30B1012E04D16A
S3150000A080A520F7F772FB012400E0002404F088FA0B
S3150000A090002080F31188FAF71EFD264D761E00205B
S3150000A0A0042E286016D8DFE806F0030A0A0E12000E
S3150000A0B02548016821F00401016030BF0FE001204E
S3150000A0C0FFF794FC0BE00120FFF79DFC07E0FFF78C
S3150000A0D0C6FC04E0AF210FF27800F7F759FD1748E8
S3150000A0E0C1680068084086B22E600A20FFF7A6FF06
S3150000A0F018B91220FFF7A2FF10B146F4803028608D
S3150000A1001F20FFF79BFF18B1286840F40030286035
S3150000A1102220FFF793FF18B1286840F480202860BA
S3150000A1200CB1F7F706FBFAF7F7FCBDE8704004F050
S3150000A130E8BC0000C0F20020C4F200201CA40040CD
S3150000A14000E200E000E100E010ED00E08AE7000038
S3150000A150736C6565702D65666D33322E6300000085
S3150000A1600549027B0A7002684A6042688A60806814
S3150000A170C8600020704700BFECF9002070477047A8
S3150000A1803023DFF8E82B584310440C3000F1806090
S3150000A19007E03023DFF8D42B584310440C3000F18D
S3150000A1A0C060012202FA01F1016070471CB50093FC
S3150000A1B01346049C01940A46FBF761FE13BD193051
S3150000A1C0017E02290FD10278DFF8A01B0079302327
S3150000A1D05A4311441C31800000EB411000F18440C9
S3150000A1E00068C0B270470020704738B50022DFF81B
S3150000A1F0801B01EB820149684B7F834203D0521CCE
S3150000A200042AF4D331BD21B301F12E04E0780228EB
S3150000A2101FD10D1D0846FFF7D2FF2874687C02285F
S3150000A22004BF2078002814D100F027FF04F055FD64
S3150000A230297C09B1617829B100206070286804F092
S3150000A2401BFD31BD28B99DF8000010B1286804F047
S3150000A25005FD31BD10B5044604F1140082B0417FFE
S3150000A260022910D141780A0003D0012906D00178CD
S3150000A27021B9817A8079FFF783FF18E0817A8079A6
S3150000A280FFF787FF13E0012911D1007800280CBFE2
S3150000A290112013208DF80000204601F0FEF801225F
S3150000A2A06946204601F075F8204601F03BF900208A
S3150000A2B016BD2DE9F041044688461646FBF71EFFFB
S3150000A2C00546A088E188884207D3002030602846EA
S3150000A2D0FBF71AFFDFF89C0A1CE020881427784356
S3150000A2E02044142241460830F7F7DEF920887843E7
S3150000A2F02044083030602088E188401C90FBF1F251
S3150000A30001FB12002080A088401CA0802846FBF795
S3150000A310FBFE0020BDE8F08138B504460D46FBF78C
S3150000A320EDFEA18809B9296024E061881422514311
S3150000A3302144083129606188E288491C91FBF2F3C7
S3150000A34002FB13116180A188491EA1800EE038B579
S3150000A35005460C46FBF7D2FEA98809B9216009E03B
S3150000A360698814225143294408312160FBF7CCFE49
S3150000A370002032BDFBF7C8FEDFF8FC0932BD90F8BD
S3150000A38032100A000BD102680121D1600068016910
S3150000A390C907FCD5416F41F00101416770470129AA
S3150000A3A00ED10168496C8907FBD40268012151600E
S3150000A3B000688168C907FCD5416D41F0010141651E
S3150000A3C0704790F832100A0008D101684A6F5208A7
S3150000A3D052004A6702210068C160704701290CD10A
S3150000A3E00168496C8907FBD40168496D0268490810
S3150000A3F049005165022100684160704710B500F1BF
S3150000A4002C0286B00123137093791C0013D10268C5
S3150000A410049002F11C030FF27102039200220292D1
S3150000A4204A680192012200920A680169806804F074
S3150000A430FAFB06B010BD012BE9D000201070F8E73A
S3150000A44010B500F12D0286B00123137053791C005C
S3150000A45012D1026834320FF21D13039304900023C5
S3150000A46002934B680193012300930B68C16840680F
S3150000A47004F0D3FB06B010BD012B02D102682832CE
S3150000A480E9E700201070F5E7F8B514466946606AFA
S3150000A490FFF75DFFDFF8E018884262D004F12C0573
S3150000A4A0DFF8DC18A879020008D12268126C920540
S3150000A4B004D500F058F84FF4007015E00246012A62
S3150000A4C007D12368DB6A1B0603D500F04CF8802011
S3150000A4D016E0DFF8B01850B92068006CC00506D544
S3150000A4E000F041F84FF48070216888640DE0012A7D
S3150000A4F009D12068C06A400605D500F034F840202E
S3150000A5002168486301E000F062F8FBF7F7FD0646B4
S3150000A5100098C768380009D0009800994068896893
S3150000A520431A0098026801692046B847606A69467E
S3150000A530FFF7F2FE606A818821B100F083FE00F029
S3150000A540E3FF0CE0012020752046FFF783FE002084
S3150000A5502870687903281CBF2046FFF732FF01F0F8
S3150000A56023F80120F2BD009801610020009988605F
S3150000A57070470000F8B5144604F1280569462868B6
S3150000A580FFF7E5FEDFF8001888421ED000F01FF83E
S3150000A590FBF7B4FD06460098C768380005D000985A
S3150000A5A04368026800212046B84728686946FFF7D5
S3150000A5B0B3FE2868818821B100F044FE00F0EFFF69
S3150000A5C001E00020687100F0EFFF0120F2BD009964
S3150000A5D00020086100998860704710B9DFF81009FB
S3150000A5E07047002918BF002A02D0B2F5006F02D9C1
S3150000A5F0DFF8000970470020704710B50368DFF8E0
S3150000A600F848FF22A34240F060810B7A1C0018BF75
S3150000A610012B07D0022B18BF032B03D0042B18BF26
S3150000A620052B01D100233AE0062B18BF072B04D0D7
S3150000A630082B1CBF092B0A2B01D101232FE00B2B62
S3150000A64018BF0C2B07D00D2B18BF0E2B03D00F2BCA
S3150000A65018BF102B01D1022321E0112B18BF122B9A
S3150000A66008D0132B18BF142B04D0152B1CBF162B88
S3150000A670172B01D1032312E0182B18BF192B0BD06F
S3150000A6801A2B18BF1B2B07D01C2B18BF1D2B03D052
S3150000A6901E2B18BF1F2B01D1052300E0FF23C37516
S3150000A6A04B7A1C0018BF012B40D0022B1CBF032B7A
S3150000A6B0042B3BD0052B18BF062B04D0072B1CBF41
S3150000A6C0082B092B01D1012333E00A2B18BF0B2BD2
S3150000A6D007D00C2B18BF0D2B03D00E2B18BF0F2B3A
S3150000A6E001D1022325E0102B18BF112B08D0122B05
S3150000A6F018BF132B04D0142B1CBF152B162B01D1FE
S3150000A700032316E0172B18BF182B0BD0192B18BFD5
S3150000A7101A2B07D01B2B18BF1C2B03D01D2B18BFC1
S3150000A7201E2B01D1052304E01F2B01D1002300E0DD
S3150000A730FF2303760B7A1C003ED0012B18BF022B99
S3150000A74059D0032B1CBF042B052B54D0062B1FD02E
S3150000A750072B21D0082B23D0092B25D00A2B27D055
S3150000A7600B2B41D00C2B43D00D2B08BF082342D016
S3150000A7700E2B05D00F2B07D0102B09D0112B01D192
S3150000A780092338E0122B01D10A2334E0132B01D11F
S3150000A7900B2330E0142B01D10C232CE0152B01D117
S3150000A7A00D2328E0162B01D10E2324E0172B01D10F
S3150000A7B00F2320E0182B01D100231CE0192B08BF22
S3150000A7C0012318D01A2B08BF022314D01B2B08BF55
S3150000A7D0032310D01C2B08BF04230CD01D2B08BF4D
S3150000A7E0052308D01E2B01D1062304E01F2B01D11F
S3150000A7F0072300E0FF23C3764B7A1C003FD0012BD2
S3150000A80041D0022B43D0032B45D0042B47D0052B38
S3150000A8101FD0062B21D0072B23D0082B25D0092BA0
S3150000A82027D00A2B3FD00B2B41D00C2B08BF082278
S3150000A83042D00D2B05D00E2B07D00F2B09D0102B95
S3150000A84001D1092238E0112B01D10A2234E0122B62
S3150000A85001D10B2230E0132B01D10C222CE0142B5A
S3150000A86001D10D2228E0152B01D10E2224E0162B52
S3150000A87001D10F2220E0172B1DD0182B01D1012268
S3150000A8801AE0192B01D1022216E01A2B01D103225C
S3150000A89012E01B2B01D104220EE01C2B01D1052254
S3150000A8A00AE01D2B01D1062206E01E2B01D107224C
S3150000A8B002E01F2B00D1002202774A7C42768A7C76
S3150000A8C04277CA7C8276097D60E2DFF8D047A342F0
S3150000A8D040F04B810B7A1C0018BF012B07D0022BCE
S3150000A8E018BF032B03D0042B18BF052B01D100235F
S3150000A8F03AE0062B18BF072B04D0082B1CBF092BE8
S3150000A9000A2B01D101232FE00B2B18BF0C2B07D0EC
S3150000A9100D2B18BF0E2B03D00F2B18BF102B01D1F8
S3150000A920022321E0112B18BF122B08D0132B18BFBE
S3150000A930142B04D0152B1CBF162B172B01D1032368
S3150000A94012E0182B18BF192B0BD01A2B18BF1B2B74
S3150000A95007D01C2B18BF1D2B03D01E2B18BF1F2B77
S3150000A96001D1052300E0FF23C3754B7A1C0018BFF5
S3150000A970012B40D0022B1CBF032B042B3BD0052BF5
S3150000A98018BF062B04D0072B1CBF082B092B01D19F
S3150000A990012333E00A2B18BF0B2B07D00C2B18BF53
S3150000A9A00D2B03D00E2B18BF0F2B01D1022325E050
S3150000A9B0102B18BF112B08D0122B18BF132B04D045
S3150000A9C0142B1CBF152B162B01D1032316E0172BB6
S3150000A9D018BF182B0BD0192B18BF1A2B07D01B2BFF
S3150000A9E018BF1C2B03D01D2B18BF1E2B01D105230E
S3150000A9F004E01F2B01D1002300E0FF2303760B7A2E
S3150000AA001C003ED0012B18BF022B59D0032B1CBFB4
S3150000AA10042B052B54D0062B1FD0072B21D0082B37
S3150000AA2023D0092B25D00A2B27D00B2B41D00C2B5A
S3150000AA3043D00D2B08BF082342D00E2B05D00F2B79
S3150000AA4007D0102B09D0112B01D1092338E0122B86
S3150000AA5001D10A2334E0132B01D10B2330E0142B50
S3150000AA6001D10C232CE0152B01D10D2328E0162B48
S3150000AA7001D10E2324E0172B01D10F2320E0182B40
S3150000AA8001D100231CE0192B08BF012318D01A2B73
S3150000AA9008BF022314D01B2B08BF032310D01C2B86
S3150000AAA008BF04230CD01D2B08BF052308D01E2B7E
S3150000AAB001D1062304E01F2B01D1072300E0FF2369
S3150000AAC0C3764B7A1C0038D0012B39D0022B3AD0F2
S3150000AAD0032B3BD0042B3CD0052B1DD0062B1ED0C0
S3150000AAE0072B1FD0082B20D0092B21D00A2B33D0BF
S3150000AAF00B2B34D00C2B08BF08223FF4DDAE0D2BF8
S3150000AB0004D00E2B05D00F2B06D0102B3FF499AE98
S3150000AB10112B3FF49AAE122B3FF49BAE132B3FF44E
S3150000AB209CAE142B3FF49DAE152B3FF49EAE162B18
S3150000AB303FF49FAE172B17D0182B3FF4A0AE192B5E
S3150000AB403FF4A1AE1A2B3FF4A2AE1B2B3FF4A3AEEB
S3150000AB501C2B3FF4A4AE1D2B3FF4A5AE1E2B3FF4D9
S3150000AB60A6AE1F2B7FF4A8AEA5E6DFF8F047A342FA
S3150000AB7040F0FB800B7A1C0008BF002328D0012B75
S3150000AB8018BF022B23D0032B18BF042B1FD0052B75
S3150000AB9018BF062B1BD0072B18BF082B17D0092B65
S3150000ABA018BF0A2B13D00B2B1CBF0C2B0D2B0ED052
S3150000ABB00E2B18BF0F2B08D0102B18BF112B04D04B
S3150000ABC0122B1CBF132B142B01D1052300E0FF23EE
S3150000ABD0C3754B7A1C0018BF012B3CD0022B18BF43
S3150000ABE0032B38D0042B18BF052B34D0062B18BFE7
S3150000ABF0072B30D0082B18BF092B2CD00A2B1CBFD3
S3150000AC000B2B0C2B27D00D2B18BF0E2B08D00F2B80
S3150000AC1018BF102B04D0112B1CBF122B132B01D1E4
S3150000AC20052319E0142B18BF152B14D0162B18BFAB
S3150000AC30172B10D0182B18BF192B0CD01A2B18BF96
S3150000AC401B2B08D01C2B1CBF1D2B1E2B03D01F2B10
S3150000AC5008BF002300D0FF2303760B7A1C002AD0FE
S3150000AC60012B18BF022B30D0032B18BF042B2CD07E
S3150000AC70052B18BF062B28D0072B18BF082B24D06E
S3150000AC80092B18BF0A2B20D00B2B1CBF0C2B0D2B0E
S3150000AC901BD00E2B08BF002318D00F2B08BF012393
S3150000ACA014D0102B08BF032310D0112B08BF042388
S3150000ACB00CD0122B01D1052308E0132B08BF062365
S3150000ACC004D0142B08BF072300D0FF23C3764B7A8A
S3150000ACD01C0018BF012B42D0022B18BF032B3ED0FD
S3150000ACE0042B18BF052B3AD0062B18BF072B36D0DE
S3150000ACF0082B18BF092B32D00A2B1CBF0B2B0C2B91
S3150000AD002DD00D2B08BF002229D00E2B08BF012203
S3150000AD1025D00F2B08BF032221D0102B08BF0422F9
S3150000AD201DD0112B20D0122B08BF062217D0132BB3
S3150000AD3008BF072213D0142B18BF152B0FD0162BC4
S3150000AD4018BF172B0BD0182B18BF192B07D01A2B8F
S3150000AD5018BF1B2B03D01C2B1CBF1D2B1E2B3FF417
S3150000AD60ABAD1F2B7FF4A8AD99E507E000A000402E
S3150000AD70F4F200200A7000F00B7000F05D4810BD80
S3150000AD800D7000F00C7000F00B7000F08177002061
S3150000AD9010BD10B500F1170482B00A0021792078A1
S3150000ADA01DD001230422FBF7A5F861796078012301
S3150000ADB00222FBF79FF8A07E022809D100F034F8A2
S3150000ADC0E179E07800230422FBF794F8012017E0EC
S3150000ADD0032827D100F028F8002304221EE00023D0
S3150000ADE0FBF788F86179607800F026F8A07E0228E3
S3150000ADF00ED100F01FF8E179E07800F01DF8002090
S3150000AE00009001230122A179A078FFF7CFF909E08C
S3150000AE10032807D100F00EF800230022E179E0783C
S3150000AE20FBF768F8002016BDA179A078002301225F
S3150000AE30FBF760B8A179A07800230022FBF75AB887
S3150000AE4010B5DFF880170A7842B9002301EB8204B7
S3150000AE50521C042A6360F9D301220A70002201EB16
S3150000AE6082035C68002C18BF844202D1586000201F
S3150000AE7010BD521C042AF2D3DFF84C0710BD40F86F
S3150000AE80241F00210368198003685980036899808C
S3150000AE90017242601180426851804268918041721D
S3150000AEA0C172704710B5044603F08BFB607FDFF874
S3150000AEB01C1703F094FB0020A07520750220607516
S3150000AEC02046BDE81040FFF7C5B938B5044603F083
S3150000AED07BFE0021201D03F017FEDFF8F45628B98B
S3150000AEE0002104F1080003F00FFE00B1284632BD30
S3150000AEF0027000F0037000F000000140F0B587B06A
S3150000AF0004460D4668460FF208711C22F6F7DCFB74
S3150000AF1014B9DFF8B406AAE0002D6BD03421204620
S3150000AF2000F07AFC2046FFF78BFF0700F3D104F10F
S3150000AF303100297C01702968216000214170286850
S3150000AF40DFF8901688423CD1DFF88C062062DFF8E5
S3150000AF508C06E0604FF440202061EA69A96920462A
S3150000AF60FFF78DFF6868029001216889ADF810002F
S3150000AF70A889ADF80E00A87B8DF80C00E87B8DF84B
S3150000AF80120005208DF80D00DFF85406FAF754FA82
S3150000AF9000F07FF8206A0121FAF74EFA00F06CF80B
S3150000AFA000F077FB2868DFF83C2603214167816FB4
S3150000AFB000F068F8816720462946FFF71EFBE0B1DE
S3150000AFC055E03649884208D1DFF81C062062DFF8D2
S3150000AFD01C06E0604FF45020BEE7DFF8801388427D
S3150000AFE008D1DFF80C062062DFF80806E0604FF4AF
S3150000AFF06020B1E7DFF8000639E000F03AF80028F3
S3150000B00035D1FBF77BF80646287C032810D1286843
S3150000B010416F41F030014167416E41F004014166E4
S3150000B02095F8212095F8201041EA0221C16704E035
S3150000B030022804BF2046FFF735FF28684FF0FF318E
S3150000B0408164297C03290CBF0521042100F01AFB29
S3150000B05029684FF44060C86003F0B6FD2046FFF74C
S3150000B06034FF00F0A0FA002F14BF3846002007B0C6
S3150000B070F0BD012120468CE600208DF800006946CF
S3150000B0802868704711402A7A41EA02216A7A1143F8
S3150000B09070470121DFF86405FAF7CEB900040140D4
S3150000B0A038B5040002D1DFF8200532BD032100F0D7
S3150000B0B03CF80021204600F043F90021FFF7DAFFB3
S3150000B0C004F131056878010006D121680220C860C4
S3150000B0D008202168C8600AE0012808D1206800F02D
S3150000B0E06FFB2068416C8907FCD40A21416000216E
S3150000B0F0206AFAF7A1F92878032803D0607F002197
S3150000B10003F06DFA606803F045FDA06803F042FDA8
S3150000B11003F021FD606A0021018041808180A06AE0
S3150000B120018041808180002032BD2DE9F0435FEA35
S3150000B130000883B00D4608BFDFF88C047BD0FAF711
S3150000B140DDFF012D814608F12C0608F10407DFF822
S3150000B150B04415D1786A808810B3386803F0A4FD2E
S3150000B16000207070786A818879B300F06BF80098D7
S3150000B17000F10801386803F0D3FD0098046120E06F
S3150000B180022D03D1386A808840BB09E0032D23D104
S3150000B190786A8088002802BF386A80880028DCD157
S3150000B1A04846FAF7B1FFDFF85C0444E06946FFF76A
S3150000B1B0B3F80098D0F80CC0BCF1000F01D000F035
S3150000B1C03CF8786A81880029F0D1404600F03DF8C5
S3150000B1D08004FAD5022D01D0032D28D1786803F01A
S3150000B1E063FD00203070386A8188D1B101A9FFF76C
S3150000B1F0AEF8019800F10801786803F091FD019816
S3150000B20004610AE001A9FFF787F80198D0F80CC09D
S3150000B210BCF1000F01D000F010F8386A81880029CF
S3150000B220F0D1707903281CBF4046FFF7CAF848469C
S3150000B230FAF76AFF0020BDE8FE83836800222146F4
S3150000B240404660476946FFF782B890F832200021F1
S3150000B250130002D1006801691EE0012A1CD10068B2
S3150000B2608068820748BF0221C20748BF41F001013A
S3150000B270420748BF41F00801020748BF41F02001DC
S3150000B280C20648BF41F04001820648BF41F0800136
S3150000B290400648BF41F4005108467047406A1CE02A
S3150000B2A02DE9FC4100F046F8606A818816461F4683
S3150000B2B071B1FFF7C7FF8046A06801A903F030FD12
S3150000B2C0009828B1B8F1000F02D100F02AF802E088
S3150000B2D00020386030601EE0806A8088C0B2704707
S3150000B2E02DE9FC4100F026F8A06A818816461F4623
S3150000B2F071B1FFF7A7FF8046606801A903F010FD52
S3150000B300009828B1B8F1000F02D100F00AF802E067
S3150000B31000203860306028602046FFF796FFBDE8C1
S3150000B320F68140680199401A3060019838600098AB
S3150000B3300068704704460020009001900D46704753
S3150000B34000F11402537F032B02D1DFF8BC027047D1
S3150000B3505170022918BF1170FEF77CBF000801402A
S3150000B36010B500F11602D37E012B01D1022900D1BE
S3150000B370EFE014788C4208D0117011B900F0D2F8C1
S3150000B38003E0012908BF00F088F8002010BD007D09
S3150000B39070472DE9F041044688461646FFF71DF929
S3150000B3A0002878D1092003F0CDFD054604F12E07CB
S3150000B3B002E00DB103F0C8FCA06A808810B13878AD
S3150000B3C00028F6D03879010002D12168096905E024
S3150000B3D0012818BF002522D12168896811F00205CD
S3150000B3E01DD101000BD121680420C86020680169C5
S3150000B3F08907FCD5416F41F0020141670FE0012842
S3150000B4000DD12068416C8907FBD404214160206876
S3150000B41081688907FCD5416D41F002014165012033
S3150000B420B8703879010006D0012819D110E018F853
S3150000B430011B00F0A4F931464E1E20680029F6D102
S3150000B44001698906FCD50BE018F8011B00F0D1F95B
S3150000B45031464E1E20680029F6D181680907FCD5C1
S3150000B460C5B93879010008D12068416F21F0020181
S3150000B470416708202168C8600CE001280AD12068CD
S3150000B480416C8907FBD4416D21F00201416508201A
S3150000B490216848600020BDE8F08110B5040001D1A4
S3150000B4A0FFF7EABC94F82E0030B92046FEF787FE77
S3150000B4B010B9606803F0D2FB94F82E00401C84F8A3
S3150000B4C02E00002010BDF0B587B000F070F8A0B9CE
S3150000B4D000F061F800F01CF8049700F010F860B96D
S3150000B4E0287E48B92046FEF74AFF00F00DF8687F2F
S3150000B4F0032801D000F011F8002007B0F0BD6A461D
S3150000B500286901A9FEF7D5BE00992046FEF776BF49
S3150000B51004F114053D480590704700202870204628
S3150000B520FEF798BE10B5040001D1FFF7A5BC94F84C
S3150000B5302E0070B194F82E00012806D12046FEF7A1
S3150000B5403EFE10B9606803F097FB94F82E00401E8B
S3150000B550B5E72D4810BDF0B587B000F028F8C0B9A2
S3150000B56000F019F800F029F804976A462868FFF7F2
S3150000B570C8FF70B9687958B9FAF7C0FD0646286859
S3150000B580808818B100F00BF80120287200F00CF842
S3150000B590002007B0F0BD019502960396704700990A
S3150000B5A02046FEF74DBF07463046FAF7ADBD0446C6
S3150000B5B00D4616461F46FFF710B804F12805134836
S3150000B5C005907047F4F20020027000F0EBA1000035
S3150000B5D00E7000F0000001400032040001000C0073
S3150000B5E040410500E0E0FFFF0042040001000D00BD
S3150000B5F00052040001000E00037000F00035080040
S3150000B600097000F0087000F0057000F0017000F09D
S3150000B610050000000000000000C201000005000057
S3150000B62000100000000000000000000070B5044695
S3150000B630080015461E4604BF4648F9F736FF310096
S3150000B64006D0202E18D0402E18D0602E18D070BDEF
S3150000B6501021226822F06002226069432268324388
S3150000B66022604A0802EB4010B0FBF1F020383A495C
S3150000B67001EAC000606170BD0821EAE70621E8E73B
S3150000B6800421E6E7CA43520002F00A02C260C16022
S3150000B690704738B504460D4600F039F8A87C18B155
S3150000B6A0206840F080402060E87C18B1287D40F09A
S3150000B6B08000A065687BB5F910100843B5F90E1037
S3150000B6C0084360602B7BAA6869682046FFF7AEFFD7
S3150000B6D000F00CF8606F20F030006067606F297E24
S3150000B6E008436067FFE72878E06031BDA87DE97D03
S3150000B6F00007090500F0E04001F4E0010843206678
S3150000B700687D18B1206840F480302060704740F6AC
S3150000B710AA61C1600021016041F20501416000217A
S3150000B72081604161C1640D4A0D4981640021416710
S3150000B7308167C16790420B491EBF88420A4A904200
S3150000B74001D10022026500228265884204BF0749B2
S3150000B7500A60704740410500F8FF7F000000014085
S3150000B760F9FF010000040140000801405C040140AB
S3150000B77001690906FCD5FFE7C069C0B270470269D6
S3150000B7805206FCD541637047026CD20702D4426C64
S3150000B7900A42FCD1704738B500F00EF8E843400085
S3150000B7A000F00A002843606031BD19B1416C0029E0
S3150000B7B0FCD10121016470470D4604460221E3E7EE
S3150000B7C010B504460121FFF7F0FFEA206060002172
S3150000B7D000202060E06020616061A06340F2F970A3
S3150000B7E060630020E0636065A0652046BDE8104008
S3150000B7F0DBE738B500F005F8402100F00AF8A5624D
S3150000B80031BD04460D46A068C006FCD57047606091
S3150000B81002212046B8E70000002203F0B9BB000071
S3150000B82072B61EF0080F08D01EF0040F0BD0DFF81A
S3150000B83048E0AEE8FF1F11480AE0DFF83CE0AEE85A
S3150000B840FF1F0F4804E0DFF830E0AEE8FF1F0D48A9
S3150000B8506946EFF309828EE8070086460A480B4CD4
S3150000B860854501D3A54501D384F30888F6F7A9F9E0
S3150000B87084F30888FBF7EAFF04000020FDFFFFFFC2
S3150000B880F1FFFFFFF9FFFFFF98D7002030E6002009
S3150000B89080B500F00CF82249224A0968C1F3082154
S3150000B8A0491CB0FBF1F0106002BD1F4870471F49EC
S3150000B8B01F480A6802F00702022A09D00AD3042A9E
S3150000B8C001D002D306E0406805E04FF4004002E0F4
S3150000B8D0006800E08068C96EC1F30421491CB0FB12
S3150000B8E0F1F07047124800687047114908600F4828
S3150000B8F0006800F00700022808BFFFF7C9BF7047BD
S3150000B9000C48016841F47001016070474FF4004033
S3150000B91070474FF47A7070470548406870470000DA
S3150000B92008410E4014E9002000F0490294400E4000
S3150000B93008E9002088ED00E0012100F01F02914097
S3150000B940504A400942F82010704730B50FF26C108B
S3150000B9504D4D0FC887B003AC84E80F006846002140
S3150000B960002200230EC002208DF806000121474860
S3150000B970474CF9F761FD4FF6FF70E0616A4600211A
S3150000B980204603F07DFB00208DF80E0003A920461B
S3150000B99003F02AFB3F48F9F788FD9DF80E100122B7
S3150000B9A08A40491C8DF80E10B0FBF2F0C9B20B2983
S3150000B9B0686002D238498842E8D23848F9F775FDFE
S3150000B9C037496A68B1FBF0F336480021E3FB020110
S3150000B9D0354A002303F01EF8A86000202870A069ED
S3150000B9E020F01000A0610B20FFF7A6FF2F494FF4AF
S3150000B9F00060086007B0002030BD38B500F01BF8C5
S3150000BA0004460D4605E04FF6E85000F02AF800F02F
S3150000BA100CF800218D424FF6E950F4D88442F2D258
S3150000BA20A0B200F01EF8002032BD21484FF0FF31D1
S3150000BA3024184D41704714491A4A49680023E0FB0F
S3150000BA40012310461946184A002302F0E3BF19489D
S3150000BA500168C90604D51021816001200A490870D1
S3150000BA607047010081B00BD013490A6892B20B6887
S3150000BA70ADF80030BDF800309B1A9BB28342F6D376
S3150000BA8001B0704780E200E0E8F200200002040006
S3150000BA90008001404041050081841E0050000200E4
S3150000BAA000B0710B20A1070040420F0000E100E04A
S3150000BAB01802FFFF0C8001402480014001000000B5
S3150000BAC000000000000000000000000010B5002388
S3150000BAD0040014BF1C46C3F10304E4B25B1C0A5500
S3150000BAE0120A042BF4DB10BD0120704738B500F0B4
S3150000BAF01BF800212561E160BDE8324003F0F5BA8C
S3150000BB0038B500F011F82169E26829400D0018BF28
S3150000BB1001251143E16003F0E8FA15B10020042184
S3150000BB2034BD0020002134BD04460D4603F0E0BAC2
S3150000BB3038B5FFF7F9FF2269E1682A4021EA0205D4
S3150000BB40E56003F0D2FA284632BD8069704770B5C9
S3150000BB5082B005460C0006BF0FF25C000068206844
S3150000BB601646009006B9EE6831462846FFF7E0FF14
S3150000BB7032466946284602F007F80CB10098206064
S3150000BB8073BDF8B500F10C070C4615463846FFF7AD
S3150000BB90ABFF022628B12A4621463846FFF7D7FFD3
S3150000BBA000263046F2BD80B50C3001F00111FFF7DA
S3150000BBB09DFF002002BD0000FFFFFFFF38B50446D1
S3150000BBC00D4601F0D1FD08B9022032BDA9B22046CA
S3150000BBD0BDE8344000F04FB938B50446154689B281
S3150000BBE0FFF7ECFF010005D129462046BDE83440A9
S3150000BBF001F0DDBD32BD0C3001F0B5BE70B500F010
S3150000BC000AF8010006D1324629462046BDE87040B2
S3150000BC1001F015BE70BD044615461E4689B2CDE735
S3150000BC2070B5FFF7F8FF010006D1324629462046D7
S3150000BC30BDE8704001F0C4BD70BD70B5D4B225003A
S3150000BC4018BF012C01D0012070BD89B200F013F994
S3150000BC5006000BD10121012000F0E7F814B902F02B
S3150000BC6046F803E0012C08BF02F048F8304670BDE4
S3150000BC707CB50D466946044600F02DF89DF8001087
S3150000BC802A46204603F038FA04F10C0601463046EF
S3150000BC9001F0EEFF76BD30B583B06946044600F08C
S3150000BCA01AF804F10C05284602F018F802469DF829
S3150000BCB00010204603F088FA3EBD38B50C4600F168
S3150000BCC00C050021284601F0D3FF21462846BDE891
S3150000BCD0344001F0C0BF0C3001F0FABF0C3001F067
S3150000BCE0B0BB70B50D4682B00446287858B900211D
S3150000BCF0204602F054F80021204602F0A7F8002161
S3150000BD00204602F0ABF82878002814BF04202879D2
S3150000BD1000F027F814BF287968798DF801002046CD
S3150000BD2000F0B3F906001AD12878002814BF0220C3
S3150000BD30A87900F016F814BFA879E8798DF8010003
S3150000BD40204600F080F9060009D1287838B16988C4
S3150000BD50204602F030F80121204602F020F8304655
S3150000BD6076BD8DF8000069462878002870470C30AB
S3150000BD7002F06CB80C3002F07BB80000012070476E
S3150000BD8010B5044601F094FB08B1002010BD204612
S3150000BD9010BD70B50D00044614BF012600261F21F4
S3150000BDA0304603F065FA0020606225621F213046A6
S3150000BDB003F05EFA4FF6FF76002001E0401CC0B2A9
S3150000BDC0E968884209D2A968182212FB00F21144D8
S3150000BDD0C989B142F2DA0E00F0D13146204600F0B0
S3150000BDE04AF8304670BD704710B5044601F00BFCAA
S3150000BDF0A06A0100DFF8301208BFDFF83002886061
S3150000BE0010BD38B500F10C050C462846FFF7B6FF05
S3150000BE1028B101F074FC012801D0022032BD214670
S3150000BE202846BDE8344001F040BC10B50C4601F090
S3150000BE3051FC1CB101F063FC0128FBD110BDF0B52B
S3150000BE4004467B48066883B00D466946204601F0E5
S3150000BE503FFFB5F91220012747F6FF702479824289
S3150000BE6007D09DF80010304603F046F9A04238BFCF
S3150000BE7000273846FEBD2DE9F04F85B04FF000098A
S3150000BE808DF801900446684F8DF800900D4638688D
S3150000BE90D7F804A00290CDF804A0204600F0C1F81F
S3150000BEA08046266AD4F824B000F0EBF8002818BFC4
S3150000BEB0D34505D1BBF1000F02D0A8B240454BD007
S3150000BEC0002E1CBFB068002801D0F06808B9032016
S3150000BED09CE0CA4601E00AF1010AF068824518D2E0
S3150000BEE0B068182101FB0AF10144A8B2CA89904240
S3150000BEF022BF088AAAB29042EDD301208DF8000035
S3150000BF008B462046FFF79BFF0028E4D001208DF8E2
S3150000BF10010003A9204601F0DBFE204601F0DEFE0B
S3150000BF2082469DF80100C0B1217900F073F83868A7
S3150000BF3060B3B04223D17A680AB35A451FD1A9B279
S3150000BF40884506D00023204601F0DFFE5FEA00099F
S3150000BF5012D1C4F824B0658057E09DF8000048B1BE
S3150000BF60BBF912209DF80C10A4F10C0003F0C4F8E4
S3150000BF700146DAE7012049E000F04BF83FE00168AE
S3150000BF8021B13268914208BF416800D0316800F0A3
S3150000BF9045F881465FEA090004D1DBF8001000F09D
S3150000BFA03DF881465FEA09000FD100F06AF810B14A
S3150000BFB03E60C7F804B0C4F824B0658001235A4631
S3150000BFC0A9B2204601F0A1FE81465FEA090005D12B
S3150000BFD0BA685946A4F10C00904716E000F051F8F3
S3150000BFE098B10298386001987860386808B100F016
S3150000BFF014F800F00EF8786838B100F00EF87A6898
S3150000C00000234146204601F080FE484605B0BDE8C3
S3150000C010F08F5146204601F04BBE0168204602F0E3
S3150000C02009B9408870470000A8EB0020E7BD000072
S3150000C030A0EB002001281CBF0428022801D1012002
S3150000C04070470020704738B500F03CF840B168787A
S3150000C050FFF7F0FF20B1287869780843400701D53B
S3150000C060012032BD00F00DF828B101F048FB400771
S3150000C07001D5022032BD29462046BDE8344001F0F4
S3150000C080B1BD20467AE60C30DDE738B500F01AF887
S3150000C09038B16878FFF7CEFF00281CBF68780428FF
S3150000C0A001D1012032BDFFF7ECFF28B101F027FBDB
S3150000C0B0800701D5022032BD29462046BDE834401E
S3150000C0C001F0B8BD0D4604462878B3E70C30DCE72E
S3150000C0D030B583B00C30DDE90645CDE9004501F009
S3150000C0E060FA3EBD0C3002F071B8012070470C308A
S3150000C0F002F001B80846114601F06CBF0846114629
S3150000C10001F086BF70B50C4615461E460C30FFF78B
S3150000C110ECFF38B1049B324629462046BDE8704004
S3150000C12001F07ABA70BD0C3001F07ABC38B50D4614
S3150000C130044689B2FFF79FFE010005D1A9B2204649
S3150000C140BDE8344001F01ABC32BD000070B50C46A3
S3150000C15084B000F10C05237E627EA17E284603F0A2
S3150000C16018F9684604F10C010C22F5F79DFA6946A8
S3150000C170284602F08CF9211D2846FFF7B2FD06007D
S3150000C18003D1284603F03CF90646300005D10FF2EC
S3150000C1901C11284602F025F90646300003D1284630
S3150000C1A003F07EF806462168284600F006F8304679
S3150000C1B004B070BD0C3003F06CB870B58AB004469C
S3150000C1C00D4668460FF2C0012422F5F77DFA05B93F
S3150000C1D06D46002601E0010005D135F81610F2B2D1
S3150000C1E0204603F090F8010006D105EB4600F2B2B6
S3150000C1F0C188204603F090F8010007D105EBC60080
S3150000C20000F10C01F2B2204603F09FF8761C032ED3
S3150000C210E1DB0AB070BD032ABCBF0C3003F073B873
S3150000C22001207047032ABCBF0C3003F075B801200B
S3150000C2307047032ABCBF0C3003F087B80120704753
S3150000C24038B500F015F828B121462846BDE8344037
S3150000C25003F092B8022032BD38B500F009F828B1D3
S3150000C26021462846BDE8344003F07CB8022032BDA2
S3150000C27000F10C050C46284603F008B80C3003F014
S3150000C28097B8084601F0A8B8FFFFFFFFFFFFFFFFC2
S3150000C290FFFFFFFF0000000000000000000000009C
S3150000C2A0000000000000000000000000000002087E
S3150000C2B00000000010B50D4C207858B90C480188D4
S3150000C2C008237F22201D00F059F8201D00F003F8F6
S3150000C2D00120207010BD80B5014608220548F4F7FC
S3150000C2E03DFFBDE80140FAF72BBE0000B8F900207B
S3150000C2F052A00100C4F9002038B50C4611461A4672
S3150000C3007F2908BF002141F2F0139C4218D15549FC
S3150000C3100B6849680024D5B27DB30355641C1B0A1B
S3150000C320521EE4B2042CF6D3E4B2082C25D2D3B2C2
S3150000C330002B1FBF0155090A521E641CF4D131BDE2
S3150000C34004F47045C4F30B03B5F5805F11FB02F1ED
S3150000C35008BF43F07E630BD0B5F5005F1CBF04F445
S3150000C3607044B4F5405F08D143F07C6343F4011395
S3150000C370C918BDE83840F4F7F1BE31BD70B51E00EE
S3150000C380044615461CD04BF23460814212D1092E68
S3150000C39028BF082633467F2241F202012046FFF7D6
S3150000C3A0ABFF32460FF2D8012046F4F721FF38B929
S3150000C3B041F2F01133462A462046BDE870409BE71D
S3150000C3C070BD2DE9F84307460024F8078846154650
S3150000C3D06FF00F060FF29C0902D5652100F046F8B2
S3150000C3E0E80702D5662100F041F807F47041B1F57F
S3150000C3F0805FC7F30B000CD140F07E64B4F17E6F12
S3150000C400264604D32819401E1749884210D36B21AB
S3150000C4100CE0B1F5005F18BFB1F5405F05D140F003
S3150000C4207C6444F40114264602E0722100F01EF8F2
S3150000C430002706E0F05DFF2802D07C2100F016F808
S3150000C4407F1CAF42F6D36A084146204603F038F80F
S3150000C45028B14846BDE8F4438521F5F799BBBDE808
S3150000C460F1830000F081E00F0008E00F4846F5F781
S3150000C4708FBB00006D66672D746F6B656E2E630053
S3150000C480FFFFFFFFFFFFFFFF084602F030B8000086
S3150000C49010B504461D48D0F860150FF28C00F5F76C
S3150000C4A0E2F8A0680068C0B2FAF768F802460FF230
S3150000C4B0B8010FF2AC00F5F7D6F82046BDE81040FB
S3150000C4C0F7F7CAB8124901200870704770B50446DC
S3150000C4D0FAF7A7FB0F4E0500A0680068307018BF7A
S3150000C4E00125FAF79CFBFAF7E4F8FAF791F896F9C2
S3150000C4F000300FF2A0020FF2780004F11101F5F7F7
S3150000C500B2F805B108E070BD00000000B489010072
S3150000C510CDFD002055ED0020BDE87040FAF7A8BA21
S3150000C52000F48040704700007B264E2053657474EB
S3150000C530696E67206368616E6E656C20616E64204B
S3150000C540706572666F726D696E672066756C6C20B9
S3150000C55063616C6962726174696F6E2E2E2E0000C3
S3150000C5602674687D0D0A000073746174757300008B
S3150000C5707B264E20267464205B392E3337356B4874
S3150000C5807A20696E6372656D656E74735D7D0D0AE2
S3150000C590000000006F6666736574000001F01ABF44
S3150000C5A0F8B5274D2E68040001D1FF20F2BDF9F73A
S3150000C5B0A5FD244F29683A7821F8124036F8021B67
S3150000C5C0A142FBD1F9F7A0FD29683A78B01E401ABE
S3150000C5D04010C1B2914208BFFF20C0B2F2BD2DE9A2
S3150000C5E0F843194C174D26688146287806EBC00794
S3150000C5F0F9F784FD8046082249463846F4F7AEFD31
S3150000C600F88800E00836F188814202BF31883A880E
S3150000C6109142F7D171887A88914202BFB188BA886F
S3150000C6209142EFD14046F9F76FFD20682A78301A1B
S3150000C630C010C1B2914208BFFF20C0B2BDE8F2836C
S3150000C64020E90020F8EB002024E900200D480168CD
S3150000C65021F480310160016F490849000167704784
S3150000C66010B5F9F74BFD0446FFF7F0FF064800F05A
S3150000C6700DF8044805210167016841F48031016025
S3150000C680204624E024ED00E098E8002038B5044672
S3150000C6900525204602F03CFF10346D1EF9D1BDE899
S3150000C6A0314002F05DBF80B5FFF7D0FFBDE8014025
S3150000C6B002F056BF10B50446F9F720FD004901E027
S3150000C6C098E80020620952014A6000220A70BDE81B
S3150000C6D01040F9F719BD00007FB504460E22FF2170
S3150000C6E06846F4F77EFD1A4E4222FF213046F4F7E3
S3150000C6F078FD0E25002017490A5C012A1CBF26F882
S3150000C70010505519401C0E28F6DB0FF24C054FF45D
S3150000C710E04000F0DCF818B19D212846F5F738FA1C
S3150000C7204FF4804000F0D3F818B19F212846F5F762
S3150000C7302FFA4FF4805000F0CAF818B1A12128460C
S3150000C740F5F726FA6946204600F0EFF804B070BD0A
S3150000C750F4ED00201897010073696D2D6565707200
S3150000C7606F6D2E630000000010B5DFF8884ADFF811
S3150000C770883A2488001B06E010B5DFF8804ADFF807
S3150000C780783A24681B1B03EB4000002304E030F8D2
S3150000C790134021F813405B1C9342F8DB002010BDC8
S3150000C7A02DE9F04182B004460D4616460027DFF813
S3150000C7B0488A01E0BF1CFFB2B74217DAE819E95D03
S3150000C7C04078DFF8303A1B8801EB0020ADF8000016
S3150000C7D0012207EBD77004EB6000C01A00F09DFB46
S3150000C7E00100E7D0FCF742FD002000E00120BDE893
S3150000C7F0F681F8B504460F46154600260DE000F012
S3150000C80019F8BDF8000004EB4601000A48707F1CC9
S3150000C810BDF8000004F81600761CB6EB550FEEDBEB
S3150000C820E80706D500F006F8BDF80000611901F822
S3150000C830010CF1BD01226946B8B295E7DFF8B429CB
S3150000C840DFF8B4191288801A01EB4001022002F0C9
S3150000C850FBBDDFF8AC19DFF8AC29095C125CDFF828
S3150000C860A839185C10B102F5997292B241EAC21069
S3150000C87080B27047DFF88839DFF890291B5C012BFE
S3150000C8801CBF32F81000081802EB4000704738B59C
S3150000C8900C46DFF87C190D782A462146FFF764FF1F
S3150000C8A0208801001CBF4FF6FF7188420BD0012083
S3150000C8B000E0401CC1B2A94207D2C0B234F8101041
S3150000C8C022889142F5D0002032BD012032BDF0B55C
S3150000C8D0DFF8281987B008600C2269460020FFF7A8
S3150000C8E04BFFBDF81600BDF80C200346040A0120D4
S3150000C8F000254FF6FF763DF81570BDF80010B942D9
S3150000C90003D1B74218BF002F00D100206D1C062DA1
S3150000C910F1DBB21A914218BF0020DBB2C4F1FF016D
S3150000C9208B4218BF002007B0F0BD2DE9F24F044638
S3150000C930DFF8E0680020307070809CB0DFF8D8081F
S3150000C9400088ADF8020007A9FFF7A1FF8346012082
S3150000C950707009A9DFF8C4080588DFF8C408B0F8C4
S3150000C9600080DFF890080788BDF802A03846FFF778
S3150000C9708EFFB8B1BBF1000F3DD0BDF81C10BDF85D
S3150000C98024004FF6FE72914202D1012804D10CE038
S3150000C990012908BF90422ED00846BDF824108842CF
S3150000C9A029D202E0BBF1000F24D00020707002975C
S3150000C9B050460695CDF810800122DFF8541891F8FC
S3150000C9C000804044ADF806006946BDF80600FFF752
S3150000C9D0CBFEDFF85008008805904FF6FF79BDF8CA
S3150000C9E00000000B404518BF0F2801D1200021D0C0
S3150000C9F0002516E0012470780028D8D03846CDF8F6
S3150000CA0008A0CDF818800495D6E7059805FB00F434
S3150000CA10E01900F015FCBDF80200201800F010FC2B
S3150000CA206D1C4545F1DB012030704D20FCF71EFCE6
S3150000CA300025F7E0BDF80650012201A92846FFF7B8
S3150000CA4093FEBDF80400C04300F0FF00ADF80400FB
S3150000CA506F1CDFF8D4070588BDF80400A84218BF8C
S3150000CA6001244FF0000A20E0401CC1B2A94218D2AE
S3150000CA70C0B2DFF8B817BDF80E20834631F81B1098
S3150000CA809142F1D1FFF7E5FE4FF680710840BDF8FF
S3150000CA900C104FF680721140884204BF1C9800F8B3
S3150000CAA00BA00AF101001FFA80FABDF804008245C6
S3150000CAB007DA022203A9B8B2FFF756FEBF1C002010
S3150000CAC0D3E7002001E0401C80B2A84217DA1C9987
S3150000CAD0095C8142F7D0012411E02AF81070BDF8F4
S3150000CAE0060000EB4300401C00F0DAFABDF8020035
S3150000CAF0C0F3C710401C00EBD07007EB600704982A
S3150000CB00DFF808A7BFB287420EDA00F099F8BDF841
S3150000CB100000484508D0030A00F07F01BDF8040074
S3150000CB207F1C834202DB012400252DE0002000E06B
S3150000CB30401CA842D3DA1C9A125C9A42F8D1C0B2C1
S3150000CB40FF28CCD0DFF8B826125C7F290CBF4FF047
S3150000CB50000C8C4694450BDABDF800C0DFF8A8E659
S3150000CB601EF800E04FEA0C6C4FEADC7CF44501D07D
S3150000CB700124B4E7012AB0D07F293AF8100008BF93
S3150000CB8000210818A9E76D1CDFF8A4060088854275
S3150000CB9004DA3AF815004845F5D10124778004985F
S3150000CBA0BFB2874207DA00F04BF8BDF800007F1CE1
S3150000CBB04845F4D039E7002CFCD1029801220BA994
S3150000CBC080B2FFF7D1FDBDF82C0048450DD105E038
S3150000CBD0401C80B2202813DB2034A4B20699029AA6
S3150000CBE0891A8C4205DB0120307000201DB0BDE89B
S3150000CBF0F08FA51820220BA9A8B2FFF7B5FD0020DB
S3150000CC000BA931F810104945E2D0A8B2FFF716FE7D
S3150000CC10203CA4B2E0E70298059905FB010000F06C
S3150000CC200FFB6D1C4545F6DB01203070494600F0D0
S3150000CC3046F818B100F035F90028D6D10120D5E71D
S3150000CC400122694638468FE52DE9F0420F46DFF8A6
S3150000CC50D815DFF8B05509888F420446164699461E
S3150000CC600CD2DFF89C15C95D30467F2808BF00202E
S3150000CC70884203DAE95D894500D11CB940F2D54105
S3150000CC8000F00AFA31463846FFF7F4FD0188DFF86E
S3150000CC907805C05D60B1384600F02BFAE95D0129E0
S3150000CCA008BF207009D0022914BF2060208004E04C
S3150000CCB04A462046BDE8F0429BE5BDE8F0822DE9F4
S3150000CCC0F34FDFF83005DFF848150488DFF8440530
S3150000CCD00978407883B000281ABFDFF83C05008841
S3150000CCE020460D18DFF840050088ADF80800ADB203
S3150000CCF0C04300F0FF0000EB013000F55060ADF8D6
S3150000CD0002002B1BDFF8F00401220DF1020100F0F6
S3150000CD109BFA6E1C0100B6B23AD10025DFF80C75FD
S3150000CD2013E0E8B2FFF795FDADF80400331B37F8C2
S3150000CD301500ADF806000222DFF8BC0400F083FA05
S3150000CD40010025D1B61CB6B26D1CBDF8080085429F
S3150000CD50E7DB002500E06D1CBDF80800854280F287
S3150000CD609B80DFF8A404405D8DF80A004FF0000AAE
S3150000CD701BE001220DF102011FFA89F0FFF7F4FC16
S3150000CD80BB19DFF8740400F091F9010009F10109FB
S3150000CD907AD17F1CFFB2B7EB1B6FEADBDFF8940496
S3150000CDA0405D3618B6B20AF1010ADFF85404475D51
S3150000CDB05FFA8AF0B842CED25FFA8AF1E8B2FFF79C
S3150000CDC059FD80469DF80A00B8F80090C00140EA77
S3150000CDD00520ADF80000012FBDF800000EBF40F0A1
S3150000CDE07F005FFA8AFA4AEA0000ADF80000311BBC
S3150000CDF0DFF8040400EB41004FF6FF71771C89450C
S3150000CE001EBFBDF80010BDF810209142BFB219D167
S3150000CE109DF80C100029C6D00122694602F050FB8D
S3150000CE2001003E4630D1DFF8DC03A8F80060425D21
S3150000CE30DFF8040450F825103046FFF7B1FC00284F
S3150000CE40ACD124E0DFF8BC13495D491C01EBD1717C
S3150000CE504FEAC15B0122694602F032FB01003E4601
S3150000CE6012D1A8F800609DF80A0098B14946E8B2C8
S3150000CE7000F03FF90190331BDFF87C034FEA1B6299
S3150000CE8000F0E1F9010089D0FCF7F0F9002005B0C7
S3150000CE90BDE8F08F00277DE7DFF8780346800120A4
S3150000CEA0F5E7DFF874032DE9F0410688DFF844035F
S3150000CEB0DFF8605304886878DFF83C83002882B086
S3150000CEC012BF20463046264601226946FFF74CFC33
S3150000CED0BDF8000001280CBF4FF6FE70401EADF8ED
S3150000CEE00000DFF82C0307783846471E80B258B199
S3150000CEF016FA87F0001B012200F00FF80100F3D0AC
S3150000CF00FCF7B4F9002006E0687880F0010068704C
S3150000CF10002028700120BDE8F681694608EB400034
S3150000CF2002F0CEBA2DE9FE4F0D46DFF8FC12098855
S3150000CF308842044617461E464FF000094FF0010886
S3150000CF400CD2AF49095D38467F2808BF00208842C9
S3150000CF5004DAAC49095D8E4200D11DB940F2F9519F
S3150000CF6000F09AF839462046FFF784FC0190A94F55
S3150000CF70787820B1A948B0F800A09E4803E0A848F8
S3150000CF80B0F800A0A4483978008849B97988081A09
S3150000CF90AA4909888842B4BF43204420FCF766F9B1
S3150000CFA0019801889848005DF8B1204600F0A1F884
S3150000CFB0012E08BF297803D0022E0CBF29882968C4
S3150000CFC0814267D001980088401E00F069F89948B0
S3150000CFD0065D7888AAF10101891B814201DB0028E0
S3150000CFE037D1387868BB452046E00291CB4622E02F
S3150000CFF002980BEBDB7300EB630000F0B7F805EB70
S3150000D0000B0015F80B10407801EB0020711E8B45C4
S3150000D01080B207D1BDF8001001F0FF0100F0FF005B
S3150000D020ADF80010BDF8001088420BF1020018BFE1
S3150000D030C8465FFA80FBB345DADBB8F1000FC1D012
S3150000D04028E0BDF802100020FFF739FE10B34FF0BC
S3150000D050010978886B49401C788080B20A5D2946B0
S3150000D060FFF79EFBB0B1634C7B88248862485B1E49
S3150000D07000F01CF8010002D0FCF7F8F80AE0B9F15C
S3150000D080000F02D0FFF70DFF20B1019978880880C4
S3150000D09080197880BDE8F78F0FF2B410F4F778BDE9
S3150000D0A001220DF1020180B2FFF75EBB1B1B0122BC
S3150000D0B00DF1020100EB430002F002BA70B582B036
S3150000D0C004460025192601226946A0B2FFF74CFB4B
S3150000D0D0BDF80000641C20B14FF6FF71884203D0F2
S3150000D0E004E06D1C761EEED168B276BDE84340B210
S3150000D0F076BD38B50C460021009142490D5C2A46A2
S3150000D10021466846FFF775FB681C00EBD07004EB00
S3150000D110600080B2FFF7D2FF0028009948BFC043E5
S3150000D12041FA80F032BD70B53A48017882B00024E9
S3150000D130D1B94078002814BF37482E4805883448AE
S3150000D14006780CE0284650FA86F000F00FF8BDF895
S3150000D150000000281EBF4FF6FF718842641C30464F
S3150000D160461EC0B20028EDD1E0B276BD0122694666
S3150000D17080B2FFF7F9BAF8B5264C207800270028C8
S3150000D18035D11C480588607800281ABF22480688D1
S3150000D1902E461F4807783846471EC0B202281FDBB6
S3150000D1A0304650FA87F0FFF7E1FFBDF8000000288F
S3150000D1B0F1D01C480088FFB207FB006000F040F881
S3150000D1C00020ADF80000BB190B485B1B0122694625
S3150000D1D000F03AF8010018BFFCF748F83846F2BDEF
S3150000D1E03046FFF72BFBF8B208B901202070F8B2E1
S3150000D1F0F2BD0000689A010000D00700E8F900209F
S3150000D2001897010008970100F8960100F4ED002038
S3150000D210649A0100C8FD00206C9A01006A9A010018
S3150000D2206E9A0100669A0100729A0100DC9601006E
S3150000D230749A0100789A01002C9A0100709A0100F4
S3150000D24080B2FFF7FBBA01A900EB430002F038B940
S3150000D25073696D2D656570726F6D2D696E7465727B
S3150000D2606E616C2E63000000DFF8901904220968D5
S3150000D270C00002FA00F0084018BF0120C0B2704793
S3150000D2800422C900002814BFDFF85009DFF870092E
S3150000D29002FA01F10160704701207047704748B1FA
S3150000D2A0DFF83C296FF0FF011160000ADFF858191A
S3150000D2B00002086070472DE9F0430D46044690468B
S3150000D2C00421DFF84809DFF84879D0F80090DFF844
S3150000D2D0440904EA000205EA0103002000218B420A
S3150000D2E008BF824283B009F10C0647D0DFF828094F
S3150000D2F00068220348BFC7E90201E20248BFC7E946
S3150000D3000401E0000BD5DFF81419086800F07F402F
S3150000D310B0F1007F03D1DFF8081902200860E007AA
S3150000D3201FD500F06CF9002200F051F8012002F040
S3150000D330E6FAF08000210120FEF777FD79780029D2
S3150000D34014BFDFF8E018DFF8E0184FF400100860AB
S3150000D350786AFFF7A4FF00207862307840F0080072
S3150000D360307005F0040300218B4207D001213046BE
S3150000D370FEF7C6FB25F0040504430D43D6E912016A
S3150000D38004400D400020854208BF84420ED0B96992
S3150000D39022462B46484688474FF0FF30C7E9020031
S3150000D3A0C7E90400200744BF0020B8625FEAC870DE
S3150000D3B00BD5F9690020F86101203870080004D007
S3150000D3C0386A03B0BDE8F0430847BDE8F783002399
S3150000D3D00120002102F09DBC70B508B9012070BD86
S3150000D3E0DFF84828DFF8484851681268402303FAF6
S3150000D3F002F22368DFF8E0492468C4F38114521E60
S3150000D400032C01F1005192B29BB20BD10025EE180C
S3150000D410083E16408E5D46556D1C082DF7DB0472DE
S3150000D420002070BD022C0AD19D1E15405B1E4D5D6D
S3150000D43005801A40895C45EA01210180EFE7022058
S3150000D44070BD10B582B009B9012016BD0B7BDFF89F
S3150000D450C027002B14BFD2E90423D2E902234FF0E0
S3150000D460FF34A34208BFA24201D1022016BD00919B
S3150000D470283003F08BFB002016BD10B504461120A2
S3150000D480F8F7FAF8042802BFDFF85009006810F42C
S3150000D490403F01D0022010BD204602F0E2FC2046AB
S3150000D4A000F0C7FFDFF8DC1960200860002010BD1F
S3150000D4B02DE9F04104460FF27C0084B004F10C081B
S3150000D4C00068029008F108070026BE67C7E91066E3
S3150000D4D0BE85FE85642038867886B886F8863887C5
S3150000D4E078870D464FF6FF7038804046FFF7D4FE2A
S3150000D4F0C0B14046FFF7C1FF060013D102A940465E
S3150000D50000F02AFD0646BA6F4FF0FF31404600F0A4
S3150000D51087FA00F074F84FF0805204231046042175
S3150000D52002F0F7FB28001CBF2046A847304604B08F
S3150000D530BDE8F0810000000098B504462078810718
S3150000D5402ED5616A61B300F0FD012170606A406901
S3150000D550006810F1010F03D0BDE8924003F091BCC2
S3150000D560D4E9122303F004030027BB4203D141F0A0
S3150000D5700200207091BD4FF480312046FEF7C0FABC
S3150000D580D4E9122302400B4008BFBA4208D0A4F1E6
S3150000D5900C0001B0DFF878168969BDE890400847AD
S3150000D5A091BD2DE9DC430446DDE90867D4E91201A3
S3150000D5B09043994306EA020807EA030940EA08008D
S3150000D5C041EA0901C4E9120122F0010823F0000929
S3150000D5D000F08EFD80B100F012F807EA090106EAB4
S3150000D5E0080040F0805241F004034046494602F0EC
S3150000D5F090FB2046FFF7A0FF0020BDE8D683002061
S3150000D60001900090704700680100DFF8041608BF1B
S3150000D610DFF83C09886170472DE9F0415FEA0108AF
S3150000D62086B0044615461E461AD0280018BF002CA0
S3150000D63016D001F05DFDDFF8D875B96A8C4206D1C7
S3150000D6407988BF88ADF8001001F04FFD1DE001F0AC
S3150000D6504CFD6A4601A9204604F021F9040001D1D7
S3150000D66000201FE09DF80400002818BF08280AD0F3
S3150000D67001F03EFDBC62BDF800107980BDF80610D1
S3150000D680B98001F032FDBDF80670A8198742BDF8D1
S3150000D6900000B8BFBD1B83199BB2AAB24146012048
S3150000D6A003F09FFF06B0BDE8F08110B500F03EFE26
S3150000D6B070B1F020044201D0012010BDDFF80C0942
S3150000D6C00168090904F00F0242EA01110160002015
S3150000D6D010BD0000002300210022032807D8DFE840
S3150000D6E000F00302070A0123184602F041BC704706
S3150000D6F001230121F8E7012301210122F4E7DFF8E4
S3150000D7000405006800F07060B0F1807F18BFB0F1CA
S3150000D710007F19D0B0F1407F18D0B0F1806F1CBFE8
S3150000D720B0F1A06FB0F1E06F0ED0B0F1006F17D07E
S3150000D730B0F1106F0CD0B0F1206F1CBFB0F1306F9C
S3150000D740B0F1406F0CD005E002207047032070470F
S3150000D75005207047DFF87808006810F0060F01D042
S3150000D7600420704701207047DFF8A008006800F029
S3150000D770A000401E8041C00F704710B5044600F05F
S3150000D780BFFB204601F082FD78B1204600F010FB79
S3150000D79058B10321002003F069FF10F1010F01D1F8
S3150000D7A0032010BDDFF83C190860002010BD10B53D
S3150000D7B0FFF7E3FF040008BF02F0A3FB204610BDFD
S3150000D7C070B584B0BAB31378002B04BF5378002B1E
S3150000D7D031D070CA6B4670C312F80C3D1C000FD0D6
S3150000D7E09588BDF806406B431B19ADF806301478D2
S3150000D7F09DF801301B1B8DF8013000238DF8003099
S3150000D80001239DF8014000E05B1C01259D40A542D7
S3150000D810FAD392888DF800306E0804FB0262B2FBE0
S3150000D820F5F2ADF804209DF800208DF801206A4637
S3150000D83000F005F801E000F002F804B070BD2DE933
S3150000D840FE4F83461446FFF798FF5FEA000940F053
S3150000D8508580002CDFF8906855D094F90310E08895
S3150000D86002F06EF8A178481E8DF80800012722788C
S3150000D8706078924619B900278DF80810BA46804696
S3150000D880D04538BFD0461AB9451EAD41ED0F00E070
S3150000D8900025A08804F017FB80B2DFF850184FF679
S3150000D8A004026DB1CB6A9BB2934208BF5B1C338006
S3150000D8B00122CA624FF0080A8022CA64D04604E0F8
S3150000D8C0338893421CBFCB62328038B1421E4FF67A
S3150000D8D0FF739A4288BF1A460A6000E0086000207B
S3150000D8E001903B469DF808000090424651460BF1D8
S3150000D8F0280004F08CFA25B1DFF8C0184FF4801028
S3150000D9000860A06870602020DFF8BC18086001205D
S3150000D91004F0EAFA01F0ECFB044604F0A2FA766899
S3150000D920AEB1042004F042FA10B1042004F00EF95E
S3150000D930304604F0C8FA012200920B460246042043
S3150000D94004F014F900F0010090F0010903D104F08D
S3150000D95094FA02F0BBFA00F003F84846BDE8FE8FE1
S3150000D960204601F0C2BB38B500F0E0FC002518B136
S3150000D97060B202F00BF80546284632BD80B500209D
S3150000D98002F0E0FA002002BD012809D00BD30328DB
S3150000D99003D008D24FF0C05006E04FF0005003E02D
S3150000D9A04FF0605000E00020DFF858180A6822F0B7
S3150000D9B06052104308604FF400109A49DFF8482877
S3150000D9C00860DFF84808016821F0060141F004010B
S3150000D9D001604FF0805111600421416100207047C1
S3150000D9E0DFF82C18062008600020DFF828180860E9
S3150000D9F04FF08050DFF8201808604FF400118A4875
S3150000DA0001604FF06051016000207047002819BF87
S3150000DA100220DFF808180220DFF8041808607047B3
S3150000DA2038B500F00FFA00284ED02207DFF8F007CD
S3150000DA30DFF8E81705D52A0747BF08220A6008223B
S3150000DA400260E20705D5EA0747BF01200860012109
S3150000DA500160600708D569074CBFDFF8C817DFF813
S3150000DA60C8174FF400700860A00704D5680800F0D6
S3150000DA700100FFF7CBFFE00606D5DFF8B007E906A1
S3150000DA804CBF00211B21016014F0600F1CD004EA7A
S3150000DA900502002102F06002202ADFF8940711D067
S3150000DAA0402A0CD0602A0ED1DFF87C28136853B1C7
S3150000DAB01C68022C07D35A6942F0010103E040F2C8
S3150000DAC0011100E001210160002032BD2DE9FC4773
S3150000DAD000260D0018BF01250229804614469946E6
S3150000DAE003D100F032F8002027E001F001FB484F97
S3150000DAF08246F869010018BFA04215D10120FC61D9
S3150000DB0001900090C7F82090002200230020FFF724
S3150000DB1060FC3E70404604F0D6F902460B4600957E
S3150000DB20022004F023F80646504601F0DEFA002EE5
S3150000DB3003BF0020F86101200020BDE8F687DFF86A
S3150000DB409008D0E9000104F0AAB900B583B000201E
S3150000DB50019000220120009000230020FFF739FCED
S3150000DB60022003F0F3FF2A490020C86107BDDFF851
S3150000DB703C08274900680978800A00F0010008433C
S3150000DB807047022004F012B970B5406A00250028DB
S3150000DB9016461EBF4069002805460C46F00748BFDA
S3150000DBA004F026FAF00317D5266816F1010F0ED1F8
S3150000DBB0DFF87407016800291FBF0A68002AC868D1
S3150000DBC003F086F803F0FBF80646266002E03046CE
S3150000DBD003F057F905B12E6070BD0000EC10084641
S3150000DBE01870084438B5DFF864480B78226849781D
S3150000DBF0C2EA034242EA016527E00000EC10084051
S3150000DC00EC1008440440084018700846A0EB0020B9
S3150000DC10F8E70020010018101C510840001F0021E1
S3150000DC20004008461860084618600844301008404E
S3150000DC30F41E002138B5DFF8144822680B784978BD
S3150000DC40120C43EA024242EA0125FFF725FB00B126
S3150000DC502560002032BD70B500F0B3F9002628B16A
S3150000DC6004F12801284604F0D3F90646304670BD73
S3150000DC7070B504460D4694F86000032801D10220D1
S3150000DC8070BD261D316A357081B12046FEF7D7F882
S3150000DC9040B930622046FEF7C4F901462046FEF739
S3150000DCA0EAF803E0E9B2204600F002F8002070BD71
S3150000DCB010B50C4690F86010032901D1022010BD62
S3150000DCC0FFF7EAFA10B1E0B204F04AFA002010BDFC
S3150000DCD080B5084604F0EFF9002002BD04F0F3B960
S3150000DCE080B504F035FDBDE8014004F0C7BC80B541
S3150000DCF004F0A4FCBDE8014004F0E9BC80B504F0E2
S3150000DD009DFCBDE8014004F004BD2DE9F041044648
S3150000DD100F466069012815461E463DD000F0E8F919
S3150000DD20002839D0FFF7EBFC012803D001210120A0
S3150000DD30FEF77BF8A889D5F804803F1ABFB2402FBA
S3150000DD4006D3A968B809484308EB801807F03F07CF
S3150000DD5004F040FD404507D104F03FFDA968884224
S3150000DD6004BFF6B2002E10D0A968404604F067FD45
S3150000DD7008B1022011E004F047FD002814BFDFF8C7
S3150000DD807407DFF8780704F04CFE2046FFF7D4FB53
S3150000DD900121F8B204F0BEFD0020BDE8F081C9B251
S3150000DDA080B5002914BF20220022202100F03BBBB1
S3150000DDB0202102F058BC58B5064688B204F083F814
S3150000DDC004463046FFF768FA18B1DFF834076142B7
S3150000DDD00160002052BD00008C40084004300E4017
S3150000DDE0F8B5074600F02EF8032610B301F080F9C7
S3150000DDF00746DFF8D4130220086056480068000E74
S3150000DE0000F00F00082818BF072803D0092818BFFC
S3150000DE100C2803D17D480068800304D4E9B220466B
S3150000DE2003F044FC064600F026F8384601F05DF99A
S3150000DE3006E0EAB2214607F19000F3F735FC00262A
S3150000DE403046F2BD0C461546FFF726BAC9B2002980
S3150000DE5014BF08220022082102F0EABBC9B2002939
S3150000DE6014BF4FF4807200224FF4807102F0E0BBC1
S3150000DE70082102F0F8BBDFF894160220086070470C
S3150000DE80000000004400084000280CBFDFF83803FB
S3150000DE90DFF878064FF480710160704770B5DFF8DF
S3150000DEA06446DFF864162578DFF86426ED074FF43C
S3150000DEB0806303D505000CBF13600B602678B60798
S3150000DEC04FF4006503D506000CBF15600D6026787B
S3150000DED0760703D506000CBF53604B6023781B07FB
S3150000DEE003D508B9556070BD4D6070BD002814BFDC
S3150000DEF0DFF83003DFF830034FF4806101607047CC
S3150000DF0038B504460D46680800F00100FFF7C6FF65
S3150000DF1005F00400FFF7EAFF002005F01802182AB2
S3150000DF20DFF8F01507D02A0748BF012003D4EA0618
S3150000DF3048BF40F2011008602046FFF739FF20B1C4
S3150000DF4005F00100BDE832409EE731BD000000004B
S3150000DF509DD2000004400840F8B500F032F870B3D6
S3150000DF60A878E978884201D00120F2BD68780100DE
S3150000DF7002D1FFF735FD01E0FFF706FDA878DFF8CF
S3150000DF80986540F6FF7700280EBF3760204600F000
S3150000DF90E0F8E87840B9DFF884123763602008605B
S3150000DFA04020DFF8681509E0DFF874126020086089
S3150000DFB0204600F0E4F84020DFF83C150860002019
S3150000DFC0F2BD04460D46FFF767B90000541F002155
S3150000DFD00C50084038B50C466A4603F060FC050054
S3150000DFE018BF002C10D02078010018BF08280BD0CD
S3150000DFF001F07EF8DFF824158D62BDF800204A8016
S3150000E00062888A8001F071F8284632BD884008404F
S3150000E01010B50C46002818BF002C84B006D0032883
S3150000E02006D20022002103F03AFC08B9012056E08E
S3150000E03000680090BDF800209DF80210120401F05F
S3150000E040070002D4821F022A01D3022047E00728D4
S3150000E0500CBF012000202073080900F00100607346
S3150000E060C1F380102074C1F3C0006074C1F3401086
S3150000E070A07401F09EFB0246C0B240B3207A00B9FC
S3150000E0800222BDF80000831F9BB2D2B201A9012073
S3150000E09003F0A7FA01A841784900E1739DF904103D
S3150000E0A0A173217AD1B18178C2780079009441EACE
S3150000E0B0022141EA00409DF8091040EA0162DFF8BA
S3150000E0C0600400680023343002F014FD06E0E073BB
S3150000E0D06FF07F00A073002020602072002004B043
S3150000E0E010BD0000F81E0021B4EB00202C500840A3
S3150000E0F02046FFF7D1B8F8B50C469BB200F023F8DE
S3150000E10006DAB3FA83F1D1F1190148BF002507D425
S3150000E11000F019F8BABFB3FA83F1C1F11905062563
S3150000E1200121AB1D01FA03F6B7B291B28F4288BF47
S3150000E1300F46FFF7B1F820B1EAB23946204603F0A0
S3150000E140DEF9B0B2F2BDB3FA83F1C1F119010629C5
S3150000E150704780B5FFF7A0F880B10020FFF784F87C
S3150000E160DFF8C023012111604FF40051DFF8B82316
S3150000E170116018B1BDE80440002121E001BD10B5D1
S3150000E180FFF78AF8B8B10120FFF76EF804460121BF
S3150000E1900020FFF775F8DFF884130020886202F08C
S3150000E1A0E1F9DFF888134FF4005008601CB1BDE8B0
S3150000E1B01040012104E010BD000000004C5008464C
S3150000E1C00120FFF75DB800008840084610B50CB284
S3150000E1D014F1010F01D1012010BDFFF75DF870B1F8
S3150000E1E043F6FF70844206DA14F5804FB4BF4FF44D
S3150000E1F08040C4F30E00DFF840130860002010BD15
S3150000E200000000001860084094400846700008406E
S3150000E21070000844840008409440084444000846BE
S3150000E220440008441C6008461C6008444C00084032
S3150000E230641F00212DE9F84F054600F077F8002607
S3150000E24000286FD0DFF8E0B0DFF8F072DBF800806E
S3150000E250D7F80090D7F804A0214605F1280001F070
S3150000E2603DFADBF8004038687968DFF898224845BF
S3150000E2700ED01378870A03F0FE0307F001073B432D
S3150000E280C00A03F0FD0300F0010043EA40001070ED
S3150000E29051450FD010788B0A00F0FB0003F0010304
S3150000E2A040EA8300C90A00F0F70001F0010140EAE4
S3150000E2B0C10010704FF6FF712889884205D0526858
S3150000E2C0100002D0298928469047444525D00021D0
S3150000E2D0002C1EBF20680028A168284600F029F8F7
S3150000E2E0002C1CBF2068002801D0206918B9002224
S3150000E2F00021002402E082680168C48905F1280033
S3150000E30002F0B7FB06000DD1214605F1280002F008
S3150000E310FFFA05F1280002F0A8FB287840F0020079
S3150000E32028703046BDE8F28FF81F00210C46FEF734
S3150000E330B3BF70B50E0082B00546DFF804420AD1BD
S3150000E3400022072102F074F900F032F858B30020D9
S3150000E350C4E9000073BDFEF79FFFF8B1DFF8D011E6
S3150000E3600720086001213079207070790090684696
S3150000E37004F0C2FB0099C14000F00F0040EA011012
S3150000E3806070B079A070F079E0703168DFF8B401A0
S3150000E39001603079DFF89C11401C086007220721D4
S3150000E3A0284602F045F973BD000000005C500840A5
S3150000E3B02846FEF771BF10B5FFF7B8FF20B1E0B2EF
S3150000E3C0BDE8104001F09BBADFF87C0110BD0000EB
S3150000E3D040EE002080B503F0FBFCBDE8044003F0EE
S3150000E3E05EBD70B505460C4600F023F8CCB1A078AA
S3150000E3F0092801D3012070BDE1780929FAD200F07D
S3150000E4000F0040EA0116FFF7D3FF50B1DFF83C01D9
S3150000E41061680160DFF83801217801706178417028
S3150000E420C670002070BD02F003F900B10120C0B231
S3150000E43002BD80B5FEF730FF30B1BDE8044048218B
S3150000E440DFF80801FDF7E8B901BD0000001F002153
S3150000E450F8B5D2B2022A3CBFDBB2042B01D30120AD
S3150000E460F2BD5408DFF8EC5001272E5D03EB820263
S3150000E470C9B207FA02F2002914BF16439643FEF703
S3150000E4800BFF00B12E550020F2BD04F049BB38B594
S3150000E4900D460446298804F1380002F023FA288044
S3150000E4A004F14000698802F01DFA688004F13E001C
S3150000E4B0A98802F017FAA88004F13C00E98802F066
S3150000E4C011FAE88004F12800298902F019FA288156
S3150000E4D004F12800698902F01BFA6881FFF708FE3B
S3150000E4E018B104F1280002F0C0FA002032BD00F095
S3150000E4F00CBA0000C0CF6A0088400846E0673500C5
S3150000E500FC1E0021FCF90020A000084488400844B5
S3150000E510A0000846681F002124100840F8E70020E4
S3150000E520A0EB00202810084024100844541008448A
S3150000E530040008441800084040300840A000084085
S3150000E5404C1F0021501F002100FEFFFF041F002169
S3150000E550481F00214A1F0021C9B2FFF72CBF000047
S3150000E560002806D50B4900F00F00084410F8040CEB
S3150000E57001E00949085C400970470849420951F819
S3150000E580221000F01F00C14001F0010080F00100E0
S3150000E5907047000018ED00E000E400E000E100E054
S3150000E5A072B67047012100F01F0291401F4A04E035
S3150000E5B0012100F01F0291401D4A400942F8201037
S3150000E5C0704780B51220FFF7F3FF1220FFF7EAFF2E
S3150000E5D00A20FFF7EDFFBDE802400A20E2E738B562
S3150000E5E004460D46F7F78AFD124941F82450BDE866
S3150000E5F03240F7F789BD38B504460E4D0CE094FA63
S3150000E600A4F0B0FA80F0012181408C4355F8201027
S3150000E6100A001CBFC0B28847002CF0D131BD0649A4
S3150000E620C8680A68104045F2555210E000E100E063
S3150000E63080E200E088F400201CA40040004901E0CC
S3150000E6401CA40040C8680A6810404AF6AA22104076
S3150000E6508860D0E7002106281EBF01210728022175
S3150000E660084670472DE9F0410FF24C100FF2E9050C
S3150000E67000880FF2481884B00024ADF80800FFF7B0
S3150000E680A0FF01213048F6F7D7FE01212F48F6F703
S3150000E690D3FE02A80023075D18F8370008EBC7066B
S3150000E6A001227168F7F726FC76682946F0B2FFF773
S3150000E6B096FF012001900090012318F8370032469A
S3150000E6C03146F7F7DCFB641C022CE2DBBDE8FF8178
S3150000E6D080B5FFF7BFFF022802D01D49085C02BDC6
S3150000E6E0002002BD10B50C46FFF7B4FF02281CBF80
S3150000E6F017490C5410BD80B5FFF7ACFF022805D0B2
S3150000E70013490B5C5A1E9241D20F0A5401BD10B533
S3150000E710FFF7A0FF022815D00FF2A0010D4A11F84D
S3150000E720303001EBC0003024634340681A441C3289
S3150000E730800000EB421000F184400068401E8041DA
S3150000E740C00F10BD002010BD404105000035080077
S3150000E750BEF2002000A00040F8B50446FFF7D7FF40
S3150000E760054600262046FFF7D2FF2F46B84205464B
S3150000E770F7D1761C052EF5D32046FFF7A9FF2946CB
S3150000E7808842204602D0FFF7ADFF0BE0FFF7B3FF4C
S3150000E7902046FFF79DFF0146204604F051FA204629
S3150000E7A0FFF7A9FF2046FFF793FF01462046BDE885
S3150000E7B0F44004F045BA0000000100000500000026
S3150000E7C006000000050000000700000080B50121DA
S3150000E7D02148F6F731FE01212048F6F72DFE0023E9
S3150000E7E0042204210520F7F785FBBDE8005000232D
S3150000E7F0042205210520F7F77DBB10B500F00DF8C2
S3150000E80002F1C06204E010B500F007F802F1806280
S3150000E810012303FA00F0106010BD0FF24801104A00
S3150000E82011F830303024634301EBC0001A440C3237
S3150000E8304068704710B50FF22C01094A11F83030C4
S3150000E840302401EBC00063431A444068012303FAF5
S3150000E85000F0906110BD0000404105000035080041
S3150000E86000A00040050000000400000005000000B4
S3150000E8700500000038B5040045D0404D142221465D
S3150000E8802846F2F721FF01213D4804F0D7FA01217D
S3150000E8903C48F6F7D1FD3C48F8218160E27A217ABE
S3150000E8A041EA0221A27B41EA024141602178012925
S3150000E8B017D1022169610023072101600422617BCF
S3150000E8C0207BF7F717FB217CE07B00230422F7F778
S3150000E8D011FBA17A607A01230422F7F70BFB0020D3
S3150000E8E032BD022904D10121696105210160EAE7EF
S3150000E8F0032904D10521696101210160E9E711B904
S3150000E90069610160EBE7012032BD70B50446200065
S3150000E9101E4D15D0194E7168002049B1184804F0F3
S3150000E920B0FA716800EB5100B0FBF1F0401E000236
S3150000E9304FF603712960716908431549086001E0C3
S3150000E94003202860204600F002F8002070BD002851
S3150000E95014BF104810484FF08041016070470F49BE
S3150000E9600968002944BF0E4908607047002814BF93
S3150000E970084809484FF0004101607047CCF9002073
S3150000E9800034060000350800740008407C00084486
S3150000E9907C00084694400846944008449440084049
S3150000E9A0800008400A784B7842EA83028B7842EA74
S3150000E9B08312CB7842EA03120B7942EAC3224B79DF
S3150000E9C0897942EA033242EA4141104A0001115074
S3150000E9D070470178427841EA8201827841EA021161
S3150000E9E0C27841EA4211027941EA0221427941EABA
S3150000E9F00231827941EAC231C279007A41EA0241A2
S3150000EA0041EA404002490860704700004020044047
S3150000EA10002004401B4213D1094236D12AB1844654
S3150000EA20B0FBF2F002FB10C2704704F0A3BAFCD3AD
S3150000EA300022002370470B000200002100207047CF
S3150000EA40904271EB030CF6D370B5B1FA81F4B3FAC8
S3150000EA5083F52C1BA340C4F1200532FA05F6334397
S3150000EA60A2405FF00046E64002E05B085FEA320241
S3150000EA70841A71EB030524BF204629467641F4D358
S3150000EA8002000B003000002170BD012ACFD970B5FD
S3150000EA90140C20D0B1FA81F4B2FA82F5C4F1200444
S3150000EAA06419B4F12006D6D3B2405FF00044F440B6
S3150000EAB0002502E052085FEA3303C61A71EB020E24
S3150000EAC024BF3046714664416D41F3D302000B000A
S3150000EAD02000290070BD0C46B1FBF2F102FB114586
S3150000EAE02D0445EA1045B5FBF2F402FB145580B23D
S3150000EAF040EA0545B5FBF2F002FB105240EA04403D
S3150000EB0070BD62B67047000070B50446DFF8D003EA
S3150000EB10007810B9DFF8CC0370BD14B9DFF8C8036C
S3150000EB2070BDF7F7EBFA0021DFF8C0230B01D5180B
S3150000EB302E7B46B92160012129730021D150F7F7B8
S3150000EB40E3FA002070BD491C0829EFDBF7F7DCFA71
S3150000EB50DFF89C0370BD10B5F7F7D0FA0446002025
S3150000EB60DFF8881301EB0012127B2AB12046F7F773
S3150000EB70CBFADFF8800310BD401C0828F2DB04F056
S3150000EB80FBF9DFF85C13002008702046F7F7BCFAA3
S3150000EB90002010BD10B50446DFF84403007800B924
S3150000EBA0BAE0082C00D3B9E0F7F7A8FADFF83C136F
S3150000EBB001EB04110A7B12B100220A73E6E7F7F7AC
S3150000EBC0A3FADFF8340310BD80B50FF27430006885
S3150000EBD0009000208DF80000F7F790FADFF8001398
S3150000EBE00A7822B1F7F790FADFF8100302BD012286
S3150000EBF00A70F7F789FA0020DFF8F012002201EB1D
S3150000EC000013401C08281A73F9DB04208DF8030052
S3150000EC10684604F0C3F9002002BD10B588B000F0C4
S3150000EC2012F8002104E010B588B000F00CF80121BC
S3150000EC300B9C049400200A9C03940024029400F088
S3150000EC40B5F808B010BD0E9C0794019300920B46D0
S3150000EC500D9C069402460C9C0594704780B500F006
S3150000EC6034F801B916E0082800D315E000F030F8B2
S3150000EC7001B913E0002113E080B500F026F801B9D0
S3150000EC8008E0082800D307E000F022F801B905E003
S3150000EC90012105E0934802BD934802BD984802BD94
S3150000ECA004F075F9002002BD80B500F00EF801B938
S3150000ECB0F0E7082800D3EFE700F00AF801B9EDE71E
S3150000ECC004F0D8F9002002BD0C4685490978704742
S3150000ECD0864901EB0011097B7047814A127802B917
S3150000ECE011E0082800D201B90FE0804A02EB0012B9
S3150000ECF0127B02B90BE0834A1268C24012F001008F
S3150000ED0018BF012005E077487047774870477C4870
S3150000ED107047087000207047724810BD724810BDD9
S3150000ED2010B5FFF7D1FF01B9F6E7082800D204B9FC
S3150000ED30F4E7FFF7CDFF01B904E004F0ABF920607A
S3150000ED40002010BD6E4810BD2DE9F0416E4C2068C4
S3150000ED50E16811EA000800D5FEE70026012718EA57
S3150000ED60070F1DD06148A76000EB06152868B8B1EB
S3150000ED70A868401CA86001466A682B683046984718
S3150000ED80697B012908BF00280AD1604800EB4610BC
S3150000ED90C16821F00201C160C16921F00201C161AF
S3150000EDA0761C7F00082EDAD3BDE8F0812DE9F64FF8
S3150000EDB004464B48007885B0984608B949488BE028
S3150000EDC0082A13D2DDF840A0BAF1000F1CBFDDF807
S3150000EDD044E0BEF1000F09D0DDF850B0BBF5006F7E
S3150000EDE004DC129E012C08BF002E01D13E4873E0C0
S3150000EDF03E4800EB0217387B08B941486CE00FF239
S3150000EE001010DDF84C900FC86D4685E80F00069986
S3150000EE103E4800EB41159DF8140058B90FF200105A
S3150000EE200FC8AC46B9F1000F8CE80F000ED140F0C8
S3150000EE3040700AE00FF2F8000FC8AC46B9F1000FB7
S3150000EE408CE80F0002D140F040502860CDF80080D9
S3150000EE50ABF101002968C5F808A060F30E1129601E
S3150000EE60C5F804E01598296860F39B61012C2960B8
S3150000EE701DD1E86840F00300E86005F11008287B22
S3150000EE8000F0030040F01000E86095E80F0088E805
S3150000EE900F00132000F0030060F00F00E8616E61C0
S3150000EEA09DF81400012804BFC5F818E06E60169896
S3150000EEB0010005D1210003D1296821F480112960C0
S3150000EEC038602A461798786069460020B8607C73D7
S3150000EED0069804F087F8002007B0BDE8F08F000020
S3150000EEE0CEFD0020028000F0018000F008F3002033
S3150000EEF0048000F0058000F0068000F0038000F03A
S3150000EF00078000F020200E4060200E4088F300208D
S3150000EF1000000000000000000000000000000000EB
S3150000EF20000010300000000000000000000000009B
S3150000EF3000001003000000000000000000000000B8
S3150000EF400700000310B50446EFF31080C00719D47C
S3150000EF502046FFF712FBA8B92046FFF701FB04463F
S3150000EF60EFF3118010B1B4EB501F0BD207480068C5
S3150000EF70C0F30800002807D0103840B2FFF7F0FAB7
S3150000EF80844201D3012010BD002010BD04ED00E035
S3150000EF9000B500BF130096469446103928BFA0E876
S3150000EFA00C50FAD85FEA417C28BF0CC048BF40F835
S3150000EFB0042BC90728BF20F8022B48BF00F8012BF5
S3150000EFC000BD0000054988421FBF05498842054922
S3150000EFD0884201D10120704700207047008001401F
S3150000EFE00084014000A001402DE9F84304460D4687
S3150000EFF0FFF7E8FF2878010004BF022161600021C5
S3150000F0006162697801B140216A7A02B18022AB7AE5
S3150000F01003B12023EE7A06B1102695F8049095F8F0
S3150000F02005C095F80CE0EF7895F80280B9F1000F6D
S3150000F03018BF4FF40059BCF1000F18BF4FF0805CA9
S3150000F040BEF1000F18BF4FF0080E3F0447EA0868EC
S3150000F050AF7948EA8728EF792D7A48EA07273D43B2
S3150000F060294311431943314349EA01014CEA01019D
S3150000F0704EEA0101216008B101206060BDE8F1831C
S3150000F080F8B504460D461646FFF79CFFF07908B121
S3150000F0904FF08040317A09B14FF00051727A02B1D7
S3150000F0A01022B37A03B1042396F801C037784FEAE9
S3150000F0B00C6C4CEA876796F802C047EA0C4796F84C
S3150000F0C003C047EA0C3796F804C047EA8C2796F83F
S3150000F0D005C0B67947EA0C273E4330430843104340
S3150000F0E004EB051118430866F1BD00B962B6704716
S3150000F0F0EFF3108072B67047F8B50F46144647F620
S3150000F100FF718C4201D1FF20F2BD2D4E716800299E
S3150000F1101CBFB168002901D0F16811B92A21F8F79E
S3150000F120E3F9384603F0EEFF012F01460BD1062224
S3150000F130F16831F912108C4203DA521E12B2002A1B
S3150000F140F6D1501C39E0B1F90000A042B8BF044620
S3150000F15003DB1C488442B8BF0446A4F1C800282239
S3150000F16090FBF2F042423078034612B25D1E9542A1
S3150000F170BCBF421E12B24D6805EBC2004668B0F92C
S3150000F180020010FB046000284FBF002000F5FA7053
S3150000F1904FF47A76B0FBF6F0521C12B29A4203DABA
S3150000F1A035F832608642E6D205EBC20131F8081C1A
S3150000F1B0814238BF084600B90120C0B2F2BD00BF87
S3150000F1C0ECF90020C880FFFFD0B5274E0F467168C6
S3150000F1D000291CBFB1680029144601D0F16811B995
S3150000F1E02A21F8F781F9012F0BD1082CA8BF072493
S3150000F1F001DA200000D0641EF068E4B230F9140091
S3150000F200D0BD200001D11948D0BD384603F07AFFA1
S3150000F210022C416802DAB0F90200D0BD002F0CBF03
S3150000F220FC22F822944202DBB0F90000D0BD30780F
S3150000F230401EC0B2002200E0521C824201EBC20313
S3150000F24002DA1E89A642F7D24FF47A715A68B3F9E8
S3150000F250020011FB04F1891A00EBD07201EB620186
S3150000F26091FBF0F000B2D0BDECF900200CFEFFFFE0
S3150000F27028B90348016003480068F8F735B97047B4
S3150000F280BCEB0020A0EB002001207047802101F09C
S3150000F290EAB980B50FF28811FCF77BFD002002BDAC
S3150000F2A010B504460FF27010008886B00023ADF842
S3150000F2B00C00002203A802900021022001900020E9
S3150000F2C0009000F01DF8010009D103A80290002368
S3150000F2D00420019000220220009000F010F80100A6
S3150000F2E00BD104A80021C0E900110290009108206A
S3150000F2F001900023012200F002F806B010BD0121A2
S3150000F300204601F0C9B900B585B000F012F8022117
S3150000F31001910021009108E000B585B000F009F8E0
S3150000F3200421019102210091012101F0B5F905B0F6
S3150000F33000BD531C8DF80C10DBB20904090E8DF8C4
S3150000F3400D10002203A902917047E0B50291531CEB
S3150000F35008210191DBB2002100910122012101F077
S3150000F3609BF90EBD80B5C9B2002914BF4FF4803297
S3150000F37000224FF4803108E080B5C9B2002914BFDD
S3150000F3804FF0807200224FF0807101F051F9002099
S3150000F39002BD1206C9B2120A42EA01611B06DA0967
S3150000F3A002F4F01280B5114341F0B0020F49ECE7C8
S3150000F3B010B5FFF769FF0224A8B10D480068000EDA
S3150000F3C000F00F0002281CBF032807280BD10948AC
S3150000F3D0094904600968890302D410218160002468
S3150000F3E0064902200860204610BD0000B8011F0132
S3150000F3F00440084088400846884008408840084441
S3150000F40080B50FF2180109788DF8001001226946BF
S3150000F410FEF7E6FC02BD0000FFFF0000050000004D
S3150000F420209E010018A00100789D01000100000047
S3150000F430DFF800F0BDE70020DFF800F047E7002026
S3150000F440DFF800F0B9E7002038B504460D4603F0B2
S3150000F45061FE012C02D1FFF7EBFF02E02846FFF721
S3150000F460EBFF18B103F062FE012032BD03F05EFE31
S3150000F470002032BD10B5C20782B01BD402884FF6F9
S3150000F480FF739A4201D00A0014D18408A4008007B1
S3150000F49022684EBFC2EA0140100C41EA00400090CB
S3150000F4A003F038FE042269462046FFF7C9FF18B16B
S3150000F4B003F03CFE012016BD03F038FE002016BD09
S3150000F4C070B504460D46164604E003F02FFE241DD3
S3150000F4D02D1DB61EB6B1012E01D0A00706D535F8F2
S3150000F4E0021B2046FFF7C6FFA41C761E022EF1D390
S3150000F4F003F010FE042229462046FFF7A1FF00284C
S3150000F500E3D001E0002070BD03F010FE012070BDC5
S3150000F51012490A6842788A600278DAB14268CA609B
S3150000F520437A827A1B0643EA0272C37B42EAC342EB
S3150000F530C37A42EA8342037B42EA4342437B42EA7E
S3150000F5400342837B007A42EA032242EA400040F00B
S3150000F550010001E00020C8600861704790ED00E0FE
S3150000F560BFF35F8FBFF34F8FBFF36F8F70470000FE
S3150000F57080B5684603F0E6FDDFF83C04DFF83C148E
S3150000F580DFF83C24016148F2E67141604FF40861FE
S3150000F5900160DFF83004DFF8301441604AF63F417D
S3150000F5A011604FF0C071DFF824241160002101665C
S3150000F5B0DFF81C1401607F20DFF818140860232090
S3150000F5C0DFF81414086001BD10B5DFF81004DFF889
S3150000F5D010440168426849B10B0C1B04A34208BFE2
S3150000F5E00A600830DFF8FC138842F2D310BD10B56C
S3150000F5F000F049F8FFF7E8FFFFF7BAFFDFF8E81376
S3150000F600DFF8E843032008604FF40020DFF8E0133A
S3150000F61008600120206003F02FFADFF8D8134FF4BA
S3150000F620607008604FF040706066E06710BD10B50E
S3150000F630DFF8C03382B001221A60DFF8BC432268CB
S3150000F640120E12F00F02FAD14FF00452A2670122F5
S3150000F650E2678A0001464FF00450F2F735F8DFF80A
S3150000F6609C03E065DFF89843DFF898032168009172
S3150000F670AC21FCF7D1F8DFF89003DFF890130160B6
S3150000F6800099216013BD80B50121DFF8840303F0E2
S3150000F690D5FB0121DFF87C0303F0D0FB0121DFF865
S3150000F6A0780303F0CBFB0121DFF8700303F0C6FB00
S3150000F6B00121DFF86C0303F0C1FB0121DFF86403CD
S3150000F6C003F0BCFB0121DFF8600303F0B7FBBDE8E4
S3150000F6D004400121DFF8540303F0B0BBF8B504463B
S3150000F6E00D460FF2903600E00860002D1CBF28681A
S3150000F6F010F1010F3FD055F8042BC2F3026156F802
S3150000F700211093B2C2F307401943022808D30028F8
S3150000F7101EBF55F8042B41F8042B401EF7D1E4E731
S3150000F72055F8040B120F4FF0010C072A01F1C063C4
S3150000F73001F180670CFA00FED7D8DFE802F0050673
S3150000F740090C0E111417D0E7CEE7C0433860CCE79A
S3150000F7500A685040C8E71860C7E702F0C5FBC4E76F
S3150000F760C3F800E0C1E7C7F800E0BEE70A68024058
S3150000F7708242FBD1B9E7204602F042FE01F054F87E
S3150000F780DFF8AC02006810F4E05F03D1DFF8A412E2
S3150000F79020200860F1BDDFF860020068000E00F06E
S3150000F7A00F00022818BF032801D10120704700204E
S3150000F7B07047DFF88402016800208A0648BF0420EB
S3150000F7C0CA0644BF801CC0B20A0744BF801CC0B230
S3150000F7D04A0744BF801CC0B28A0744BF401CC0B25F
S3150000F7E0C90744BF401CC0B2704780B51120F5F769
S3150000F7F05CFEDFF84C1209688AB232B1C008C1F368
S3150000F80007414843B0FBF2F002BD002002BD38B507
S3150000F810DFF830024168006801F00702082AC0F3E9
S3150000F82044141AD20FF254239A5CC1F3CD035B1C25
S3150000F830C1F345415A43491C5143C0F3822200F0AB
S3150000F8401F0014FB02004843450006D01120F5F7BF
S3150000F8502CFE6043B0FBF5F032BD002032BD10B582
S3150000F860DFF8D841FFF7C1FFDFF8DC110A6824682A
S3150000F8702404DFF8D841246848BF400804F4C05483
S3150000F880B4F5805F02F0300303D18969490D01F0B8
S3150000F8903003102B04D0202B04D0302B08D010BD01
S3150000F8A0400810BDC2F3C421491CB0FBF1F010BDE5
S3150000F8B0800810BD10B5DFF89001016801F0300234
S3150000F8C0202A0FD1C1F3024018B1C1F3C422B2FB02
S3150000F8D0F0F011F4C01F18BF40004408032C0AD3EF
S3150000F8E0042408E0006800F4E070402816BFB0F574
S3150000F8F0807F02240124FFF7B2FF604310BDF8B5F4
S3150000F9000446FFF7F5FB0646FFF745FF0546504858
S3150000F9100068C0F38917B80544BF4E480743FFF790
S3150000F9203AFF00B900253046FFF7DFFB3FB217F577
S3150000F930007F01D12542E4D105B9474F3846F2BDD3
S3150000F94038B505460C46FFF762FF68434349B0FBEE
S3150000F950F1F0002100E0491C01228A40824203D2D4
S3150000F9601029F8D3012032BD3D4A0F20106041F026
S3150000F97010003C4908603C480068C0B2802803D0AB
S3150000F9802046BDE8324001E0022032BD374AFF2161
S3150000F990116000F0FF0036490860002070471648E5
S3150000F9A0016801F07061B1F1C06F02D1816BC906C7
S3150000F9B0F6D540214160704734410840C0E65351B6
S3150000F9C0083008409C4008407A27000F28700840FD
S3150000F9D0806D630324300844243008460080E00F1D
S3150000F9E000000840B081E00FD86008469440084601
S3150000F9F0944008400C40084604400840C01F0021BF
S3150000FA00E81F0021541F0021F01F00213F0037008E
S3150000FA1000340600000406007005060000640600B7
S3150000FA200054060000440600002406000074060088
S3150000FA3084600840106208404C000840306108406D
S3150000FA405060084054600840186008404000084074
S3150000FA500870084000FCFFFF00FEFFFF40420F0059
S3150000FA608070084480700846187008401870084472
S3150000FA70187008460000084000000021030404082E
S3150000FA8008080808012100F01F029140DFF8A82AA3
S3150000FA9005E0012100F01F029140DFF8DC26400955
S3150000FAA042F82010704780B5FFF722FBDFF8CC162E
S3150000FAB00968090E01F00F01032907D1DFF8C01606
S3150000FAC00A6822F0F00242F0E0020A600121DFF843
S3150000FAD0842A1160BDE80240FFF707BBDFF8782AE9
S3150000FAE01168D368194021EA000090600846704703
S3150000FAF00422C900002814BFDFF88806DFF8900A40
S3150000FB0002FA01F1016070470120704710B5DFF875
S3150000FB10844A01232370FDF7CEFB0020207010BD20
S3150000FB2070B5FFF7E5FADFF86016DFF86046CD78C6
S3150000FB30D1E902232E00DFF8941A04BF4FF41056C1
S3150000FB40324219BF10260E60102626600DB9D20566
S3150000FB5002D520220A6001E020212160BDE8704024
S3150000FB60FFF7C3BADFF8200600210171C17811B191
S3150000FB700021C170D4E7704710B5DFF80C46207934
S3150000FB8078B1012001F089FD58B9FFF7EBFFD4E900
S3150000FB900201BDE81040002200F4805001F000018F
S3150000FBA0B4E710BD10B5036883EA010424EA020233
S3150000FBB000F180641340236040F8042C00F1C0601B
S3150000FBC01140016010BD70B504460D461646FFF79C
S3150000FBD0A7FF4FF4004114F0AA6F18BF48F20201C4
S3150000FBE0B00748BF41F400510022DFF8A405FFF733
S3150000FBF0D9FF0021200448BF4FF48051E00348BFDD
S3150000FC0041F48071E00648BF41F40051A00648BFA8
S3150000FC1041F40071600648BF41F48061200648BF88
S3150000FC2041F400610022DFF86C05FFF7BBFF05F029
S3150000FC30040300210025AB4218BF4FF480212005A4
S3150000FC4048BF41F48031600448BF41F48011A007E9
S3150000FC5048BF41F40011A00348BF41F400217007DA
S3150000FC6048BF41F004010122DFF82C05FFF79AFF97
S3150000FC70DFF82815F00748BFDFF8C018A00048BF16
S3150000FC8041F40011600048BF41F000710022DFF826
S3150000FC90B008FFF787FF0021E00748BF01210022D7
S3150000FCA0DFF8A008FFF77EFFDFF8B018600348BF53
S3150000FCB0DFF8AC186007BDE8704048BF41F48061CA
S3150000FCC04FF4A022DFF8C0096CE710B5FFF710FA71
S3150000FCD004461C20FFF7DDFE0820FFF7DAFE0120B0
S3150000FCE0FFF7D7FE0420FFF7D4FE0520FFF7D1FE6D
S3150000FCF01D20FFF7CEFE0720FFF7CBFE0620FFF7FD
S3150000FD00C8FE2020FFF7C5FE2046BDE81040FFF7DD
S3150000FD10ECB92DE9F04702EA0009089D099AC643A5
S3150000FD20CF43002D03EA010A05EA0208DFF858442A
S3150000FD302CD1002948D100286ED001280ED00428E5
S3150000FD4042D1FFF7D5F900F069F8002082450CBFD3
S3150000FD50814501200121FFF7CBFE33E0FFF7C8F90B
S3150000FD6000F05CF80022924508BF9145DFF86C0868
S3150000FD7006D0012101600120DFF89018086021E01B
S3150000FD80DFF88C280121116001601BE000229142FE
S3150000FD9004BF9042012D17D1FFF7AAF90546206945
S3150000FDA0400848EA400020614FF48061DFF8780897
S3150000FDB0B8F1000F19BF0160DFF87008DFF84C29B1
S3150000FDC011600160284623E0FFF77FFF00F027F867
S3150000FDD02269AA4348EA02022261FFF7F4FEFFF70E
S3150000FDE087F904461C20FFF74DFE0820FFF74AFE60
S3150000FDF00420FFF747FE0520FFF744FE1D20FFF70E
S3150000FE0041FE0720FFF73EFE0620FFF73BFE204699
S3150000FE10BDE8F047FFF769B9BDE8F0870546D4E9C4
S3150000FE2002013040394040EA090041EA0A01C4E9CA
S3150000FE3002017047DFF85408006810F0A00F0FD1D8
S3150000FE40DFF84C1808200860DFF8481808688005B5
S3150000FE5047BF0220DFF8B8180220DFF8B81808609C
S3150000FE60704710B50446FFF7C2FBFFF72EFF00F000
S3150000FE7007F90120FEF749FD04F19001DFF8980823
S3150000FE8001F012FBDFF894180120086001F0D3FDA1
S3150000FE9001F034FE00F096FC04F1280000F0E5FDC8
S3150000FEA04FF44001002001F087FF4FF400110120BC
S3150000FEB001F082FF02F0D8FD02F094FE10B9142181
S3150000FEC0FFF7D6F9BDE8104002F0A7BD10B5DFF880
S3150000FED05048206810F0070F08D1DFF84818086866
S3150000FEE020B1002001F0D9FB401E60618020DFF8C0
S3150000FEF038180860DFF83408016821F04001016015
S3150000FF0010BD10B5FFF7F4F8044600F018F8002805
S3150000FF1002BFDFF81C08006810F0060F0AD1FFF7D1
S3150000FF20D5FFDFF86C17012008602046FFF7DDF8E3
S3150000FF30002010BD2046FFF7D8F8012010BD032091
S3150000FF4001F034BF80B5010003D0DFF8EC17401E86
S3150000FF500860FFF7CDF8DFF8D4170A6822F04002F0
S3150000FF600A60FFF7C2F8DFF8A8170220086001BD93
S3150000FF702DE9F84F804689469246FFF7B9F8834641
S3150000FF805FEA09007D4CDFF8AC570FD000F065F84A
S3150000FF90DFF8A817012008600420286001E0FFF7B9
S3150000FFA0FEFC2068000E10F00F00F8D1A02028609B
S3150000FFB0FFF7C5FF20B1032001F0C8FD00F0C4FA29
S3150000FFC001F002FFDFF86066DFF848770020F06096
S3150000FFD000F043F8DFF85407016841F04001016082
S3150000FFE0FF2038604FF4807060600420B8F1000F85
S3150000FFF0286007D0FFF757FD01F048FF202060601A
S3150001000000F0A2FAB9F1000F22D0504600F0AAFA88
S315000100100120BAF1000FF8601AD0DFF82407416811
S315000100200160E069A061DFF81C0741680160DFF843
S31500010030180741680160DFF8140741680160DFF8BD
S315000100409C0541680160DFF808073060FFF78AFD0B
S315000100505846BDE8F24FFFF748B810B5DFF8C84675
S3150001006006E0DFF8D01604200860022001F03CFF0C
S3150001007004202060DFF8140600684003F1D410BDA7
S3150001008080B5DFF8D0060168DFF8CC06FFF7CFFAB6
S315000100906421DFF89806FBF7BFFBDFF8F0050021C6
S315000100A0016041608160BDE8014001F089BFF8B59A
S315000100B0DFF8A816344C0A5CDFF86C6513000546B8
S315000100C04FF400671CD0032D08BF3760521E0A5437
S315000100D0D2B25AB9032D05F10900DFF8841609D108
S315000100E00002227840F0010012B10860002016E0FB
S315000100F0F060FBE7042DF9D1000640F48030F4E707
S3150001010001F024FD032D07D1DFF8581641F61F70C3
S31500010110086037600020EBE7022D02D101200021A3
S31500010120F4BD042DE2D1032001F010FD01F04CFED7
S31500010130FEF7DEFF05466078002608B1FFF7B3FC3F
S31500010140012001F0AAFA0D4F0028386804D1000EEB
S3150001015000F00F00032802D1A0782071012628465D
S31500010160FEF7C3FF002EC1D10020E070FFF7D8FCD7
S315000101704FF48050D3E7000080E100E004400840DE
S31500010180541F0021EC100846E0ED0020944008447D
S315000101906C0008400C6208402040084004185000DA
S315000101A02DE9F04FDFF8C005DFF884A583B00168BB
S315000101B0C2681140009100998160DFF8B0050168BD
S315000101C0C26802EA01048460DFF8A4050168C26816
S315000101D002EA010585604FF6FF70FFF77FFC0646D0
S315000101E0DFF890050068C0F34070002801BFDFF812
S315000101F088050068C0F3407000281FD0FEF778FF1D
S31500010200DAF8001011F00608DAF85010DAF85C2076
S3150001021002EA010718BF4FF00108DFF860153940FF
S31500010220CAF85810790704D5DFF854150A78521C14
S315000102300A70FEF75AFF8DF8048002E08DF804007B
S31500010240002700984FF000080028C346C1463ED05B
S315000102500099DFF8380409041CD50168DFF8D424B5
S31500010260DFF8D03401F4E0511160A0221A601022A7
S31500010270DFF8A0341A6011B94FF400280AE0CA0465
S3150001028048BF4FF0007805D449054CBF4FF400181C
S315000102904FF400080099890714D50068DFF8941413
S315000102A010F46040086008BF48F480180AD00104C1
S315000102B048BF48F0806805D480044CBF48F48008E4
S315000102C048F080780098800448BF4FF00209DFF8B3
S315000102D0B404044235D014F4206F07D0002000F096
S315000102E041F9062100F033F924F4802414F0090FB2
S315000102F00AD0DFF89414202048600120DFF88C141E
S315000103000860082100F023F914F0106F0AD0DFF815
S315000103107814202048600021002001F0C7F9092146
S3150001032000F015F914F4202F07D0002000F01AF977
S31500010330072100F00CF924F48024E00348BF01F002
S315000103409EFA60070ED5DFF8480400684FF40051A5
S3150001035028B1DFF84004016048F4802802E0DFF8A4
S3150001036038040160600548BF48F0040860031CD5E5
S3150001037001F05DFA401E062805D8DFE800F0080BFB
S31500010380080E11141400032100F0E1F80DE048F401
S3150001039000580AE048F4806807E048F4007804E071
S315000103A048F4807801E048F00808BDB1E80448BF88
S315000103B048F40048E80548BF48F48038A80448BF17
S315000103C048F01008A80548BF48F02008680548BF4E
S315000103D048F04008280548BF48F0800836B3B00108
S315000103E048BF49F00809700148BF49F010093001BA
S315000103F048BF49F02009700348BF4BF0040BF003D6
S3150001040048BF48F40068F00248BF48F48048B0028B
S3150001041048BF48F00208300308D500F0D9F8022891
S315000104201CBF0328072801D148F40038002F5FD0EC
S31500010430380506D50320FFF73AFE48EA00084BEADD
S31500010440010BB80104D52B20FEF789FA48F0804844
S3150001045017F4E00F05D1F8043AD59DF804000028F9
S3150001046036D0B80204D52920FEF779FA48F00058AB
S3150001047078020FD500F068F82720FEF770FAAD492B
S31500010480A02008601020A34908604FF48000CAF834
S3150001049058001AE0F80207D500F056F82820FEF7B2
S315000104A05EFA48F000681CE0F8041AD500F04CF832
S315000104B001F0ECFCDAF8500010F4A00F11D12A205B
S315000104C0FEF74DFAB1490120086048F0805808E06E
S315000104D0F80406D50420FFF7EAFD48EA00084BEACE
S315000104E0010B780504D50220FFF7E1FD40EA090971
S315000104F0AA48016901EA0902D0E9020108EA0000F5
S315000105000BEA0101FFF702FB600303D501F0ACF929
S31500010510FFF732FB6EB1B00148BF01F041FF700138
S3150001052048BF01F05AFF300103D5BDE8F74F01F08E
S3150001053055BFBDE8F78F000000E100E0041C500044
S31500010540685008403C700840042001F0FFBA0020C2
S31500010550FEF78EBE2400084014400840090A0A0925
S315000105600D0A0A0938B50446FEF7C2FD054601F033
S31500010570B7F814B1FFF7F6FA04E00648007808B9AF
S31500010580FFF7FAFA2846BDE83240FEF7AEBD000095
S31500010590EC100844D5FD002002E601E600E6FFE581
S315000105A010B57F48FFF79AFA0446E00703D500F035
S315000105B00FF800F0FDF8600707D57848007CBDE824
S315000105C0104000F00402002024E010BD94400846CB
S315000105D06D480068000E00F00F0070473870084043
S315000105E0DEE580B56F480168C26811408160C807C1
S315000105F00BD56A48007A122100F00100FEF738FE99
S31500010600BDE808400022012004E001BD3C70084617
S315000106103C7008440021FFF779BA63480168C26853
S3150001062011408160704700006450084068500846D8
S315000106302DE9F84380460C469146FEF759FD3B4F9E
S315000106403E6805464046FFF75FFA28B126EA0400F0
S3150001065004EA0901084338602846FEF746FD04EA24
S315000106600600BDE8F28338B504460D46FFF74CFA9D
S3150001067000281ABF2D490868E06F2840A84201D119
S31500010680012032BD002032BDEC10084088400840F0
S3150001069008400840001F00212DE9F84FC9B2022980
S315000106A03CBFD6B2022E82460AD2DDF828800B9CC8
S315000106B0A0453EBF092CDFB2042F01D20C9D0DB916
S315000106C0012020E00A463B460021FDF7C1FE3748DE
S315000106D0C14600EB4616FF0012E056F82900FF213D
S315000106E0B9408843A9EB0801695CB94041EA000BAE
S315000106F05046FFF709FA08B146F829B009F1010990
S31500010700A145EADB0020BDE8F28F000068500844ED
S31500010710004008460040084435FE00000C400844ED
S3150001072004000840501F002188400846F01E0021A1
S315000107300C50084088400844180008400C40084600
S31500010740680008400862084078300840E810084010
S315000107505000F002187701000065010038EE002014
S315000107606C5008466C50084460000840E010084090
S315000107700062084000E300E000E200E0FFF7BFFF8F
S31500010780D6FD0020090A0B0904400840281008403C
S31500010790B40402432410084424100846E0ED002066
S315000107A00000FFFF3070084070300840081F00212C
S315000107B00249012008600249086070472040084448
S315000107C01C40084058B5DFF87814DFF87864072034
S315000107D00860DFF8740402F054FBC408DFF86C24E7
S315000107E0002312EBC45043EB5421DFF86424FEF7D7
S315000107F011F9DFF8601408604EF6602000F06BF81E
S31500010800DFF8541440420860DFF8500401F05BFB46
S3150001081002465008002110EB843051EB944100232D
S31500010820FEF7F8F8306051BD38B5DFF81C0402F068
S3150001083028FBC408FFF73EF8DFF824140968C90B42
S3150001084001F00101E2010B000BD002F57443DFF860
S315000108501404DFF814442433B3FBF4F30360DFF824
S315000108600C04DFF80C3402EB5002B2FBF0F0DFF8B7
S315000108700424186000201268D20214D4DFF8F82389
S31500010880DFF8F83312681C68C2F38102521C650551
S3150001089048BFD00004F0FF04FF2C04D05B685B0561
S315000108A048BF00EBC20001B1C01CDFF8D4130860D9
S315000108B031BD30B5DFF89C231268C117A2FB004594
S315000108C002FB0155B4F17F4065F1FF31400E40EA6C
S315000108D0C110803830BD80B5FFF7EBFF0128B8BFE6
S315000108E0002002BD0A0008D043F2C823994203DA68
S315000108F0642902DA642100E019460180084670473E
S3150001090043F2C8229142A8BF11468181808970476E
S3150001091043F2C8229142A8BF1146C181C0897047DE
S315000109202DE9F04705000C4600F09680E0074FF4EC
S315000109307A7647F2305851D5E88A28B101F05DFD43
S31500010940E98A00F08BF800E04046FFF7C4FFCD4985
S315000109500860688A28B101F050FD698A00F07EF8C6
S3150001096000E04046FFF7B7FFC749C84FDFF82093BD
S315000109700860A88AE0B101F040FDA98A081A70430F
S31500010980A968A0F6C410A0EB010AB54800680004E6
S315000109900AD5C0485044FFF78CFFC9F80000BE488D
S315000109A05044FFF786FF09E02868AAEB000A00E039
S315000109B0C2465046FFF77DFFC9F800003860688BD4
S315000109C038B101F01AFD698B081A7043A0F6C410FC
S315000109D000E04046FFF77FFFB0490860A007DFF857
S315000109E0C09242F2107720D5E98906FB01F039B1B0
S315000109F0296879180818297911B100F5C240A8307B
S31500010A00FFF769FFA7490860288B010008D0A9688C
S31500010A1006FB00102979484419B1A349081800E0DA
S31500010A204046FFF758FFA1490860600714D5288A98
S31500010A30010014BF06FB00904046FFF74CFF9C499E
S31500010A400860A98906FB01F011B12968791808180F
S31500010A50FFF741FF97490860BDE8F087081A704320
S31500010A60A968A0F6C410401A7047072158E701216A
S31500010A7056E7826001600020704738B504460D468E
S31500010A80FEF718FF76490968090405D576498842B3
S31500010A9008BFAD00A4007548874A0A21B0FBF1F0F2
S31500010AA02919430802FB0131B1FBF0F032BD6C4953
S31500010AB040680968C000090448BFC01C70476848FF
S31500010AC00068000401D52F2070477C48016C0A0C90
S31500010AD0C1F30111491C514342F21172914202D3F1
S31500010AE04FF0FF307047006800F01F004018401CAF
S31500010AF070470000F8B5069F002F0646144643D0FE
S31500010B00387A010040D00025401E062831D8DFE89A
S31500010B1000F01126240E110406000720387238460B
S31500010B20FFF7C5FF01460020FFF7A7FF0546387A04
