S00E00006E63702D7370692E7333372C
S3150000000010D8032045430300C934000029430300E8
S31500000010A70A02020002000004180FAC0026930093
S3150000002000000000000000000000000000000000CA
S3150000003000000000245D0300000000000000000036
S315000000400000000000000000FFFFFFFFFFFFFFFFB2
S31500000050FFFFFFFFFFFFFFFFFFFFFFFFFFFFFFFFAA
S3150000006000E00F000000000000000000FFFFFFFF9F
S31500000070FFFFFFFF1C000000000000000000000062
S31500000080000000000000000027FC032027FC0320DE
S3150000009010D803203C880300C84A030038C903204F
S311000000A070170020000010000000000097
S3150000020010D8032045430300C934000029430300E6
S31500000210314303002D4303003543030041430300EC
S3150000022041430300414303004143030041430300AC
S315000002303943030041430300414303008129000081
S315000002400F7D0000A1130100691C0000414303005B
S31500000250A90F0100E9130100A7130100A91301006A
S31500000260A3130100A5780200EF7A0200797100005D
S315000002708757000041430300414303003F05000048
S3150000028041430300414303000D7B02004143030049
S31500000290414303004143030041430300414303003C
S315000002A0414303004143030041430300414303002C
S315000002B0EB130100A513010065740000231401006F
S315000002C04143030011470300414303004143030038
S315000002D041430300414303004143030041430300FC
S315000002E041430300414303004143030041430300EC
S315000002F041430300414303004143030041430300DC
S315000003004143030041430300414303006F49704AE0
S3150000031001E021B1491E1369DB07FAD401B9B0E047
S31500000320506001201060106910F0060F05D04107DB
S3150000033000D5A9E0800700D5A9E000207047F0B5F8
S3150000034013460022002936D0604C614D8BB98B4292
S3150000035031D250F8046BEE605B1C08262E602646F0
S3150000036001E036B3761E2F69FF07FAD4002EEED1D0
S315000003701FE0EFF3108672B600230EE02F6907F038
S315000003801907102F08BF2F602F693F07F6D550F8C1
S31500000390047BEF605B1C10272F608B42F4D306B9F9
S315000003A062B6264601E026B1761E2869C007FAD451
S315000003B00EB96FF002021046F0BD2DE9F0479A46DD
S315000003C0444B454F1C681B683B688046002043F041
S315000003D001033B60950881460C4602E0B14404EBFC
S315000003E08604A94517D208EB89063046FFF78EFF2B
S315000003F0010014D1C6F30A00C0F500608608A5EB1B
S315000004000900B04238BF0646524631462046FFF73D
S3150000041096FF0100E2D03968490849003960BDE815
S31500000420F0872C49294A0B6809682B490B6843F069
S3150000043001030B608860012048604869400704D5C5
S3150000044008684008400008601EE04869800704D537
S31500000450086840084000086019E00220486001E092
S3150000046022B1521E4869C007FAD422B9086840086A
S315000004704000086005E00868400840000860002069
S3150000048070476FF0020070474FF0FF3070476FF013
S3150000049001007047002390E70F48016841F0010111
S315000004A0016046F21A31C1644FF4807141604169BE
S315000004B0C907FCD44FF4007141604169C907FCD4F7
S315000004C00021C1640020704700000000809698005B
S315000004D00C000E4004300E4008000E40072802D2E1
S315000004E03549085C7047FF207047072802D2334918
S315000004F0085C7047FF20704738B50446304800EB6B
S315000005008105A8780009FFF7E9FF2071A87800F0B7
S315000005100F00FFF7EAFF6071FF2814BF01200020DB
S31500000520E8702146E878A071287860706878254DD3
S31500000530A070284600F0A3F80120A86031BD10B5D0
S31500000540214984B01CC968461CC02048204A01784D
S31500000550D36814682340DB072DD503292BD2184C0A
S3150000056012691C4B04EB8104E4781CB114B2002C14
S3150000057048BF002223F811200123174A147803FAF2
S3150000058001F121431170154A117891B100211478B7
S31500000590CC40E40708D501708B40107858401070A5
S315000005A06846FFF7A9FF1FBD491CC9B20329EED350
S315000005B01FBD032101701FBDEC5C0300F45C03004A
S315000005C0D4E1032000200040E05C0300F4FB03209C
S315000005D038200040F8E10320F5FB0320BBFA032096
S315000005E0890001EB401000F184400260704730B58D
S315000005F0002A446BDFF834511ABF1022DFF830317D
S31500000600DFF8303123400024A84237D1DFF8280133
S3150000061051B101290CD002291ED003290CD006297C
S3150000062015D0812918D023E001680468006816E017
S3150000063001680468006802E0416844684068090C83
S3150000064001F4FE41C4F303442143000C0CE081682D
S31500000650806801F00F0107E041684468406801F4D2
S31500000660FE4104F00F04214300F0F00040EA0104CB
S3150000067004FA02F0DFF8C4101843086030BD38B53C
S3150000068004460D460220A0600022A9782046FFF706
S31500000690AEFF287969786B79020242EA016242EA82
S315000006A00342EB7842EAC302EB790BB142F0005207
S315000006B02B7A0BB142F00402AB790BB142F0020285
S315000006C06B7A0BB142F00102AB78F32806D1180021
S315000006D004D10429BCBF042060F31B6218064CBF7A
S315000006E042F0E00042EA4310206115496069084083
S315000006F0A9780A0644BF21F080010843297840EA18
S315000007004140E97A09B140F4804060610221AA7A49
S315000007102046FFF765FF2879F32804F13000BDE88D
S3150000072038400CBF01220022102159E7002000406A
S31500000730FFFF00800080FFFF1082E00F34200040A2
S31500000740F8BFE1FF42DE704738B504460D4600F0BB
S31500000750F7FB01F0A4FA01F0AFFA2946204601F0B2
S31500000760B1FA2B4622466949012001F01AFC2946B6
S315000007702046BDE83440E5E765482DE9F047654D7C
S3150000078001682E1D4FF420687165016AB1656249E2
S315000007900A68F26549683166416A7166816AB166BE
S315000007A0C16AF166016B3167806B706796F8340039
S315000007B040074CBFF46BB46B01F09BFC0022F26463
S315000007C08442564A014624BFA2F1200AA245274682
S315000007D0316505F19003DFF848C1DFF848E118D329
S315000007E0A0693064E4697464746DC4F30804062C6B
S315000007F013D1704511D360450FD200884DF642647F
S31500000800A0420AD13068586040F20178706898605A
S3150000081003E000273764776407464348814202D2E3
S31500000820014600E0091D0846904203D20C68B4F167
S31500000830CD3FF7D03D49081AB0640021002005EBF2
S315000008408004401C0628E167F9D3002003E0C0B20B
S3150000085005EB8004E167974223D252F8041D7145E7
S31500000860F9D36145F7D2CC07F5D5002405EB840909
S31500000870D9F87C90894502D0641C062CF6D3062C48
S31500000880E9D1002814BF401E0520E0E7B16F00241F
S3150000089005EB8402641CD2F88070D767052CF7D369
S315000008A019600146481EC9B20029EFD1706DC0F328
S315000008B00800032810D0042811D0052812D00628D5
S315000008C013D00C2817D0122818D1194800688007B1
S315000008D019D540F2025816E040F6012813E040F61A
S315000008E0022810E040F603280DE0B8F5206F0AD183
S315000008F040F6042807E040F6052804E018B143282E
S3150000090038BF40F607284046BDE8F087FC5C030088
S3150000091004ED00E00000002000E300E010D8032012
S31500000920C84A0300DC0400009C00002010D8032005
S315000009301C20054080B5002300931346012201F0D8
S3150000094035FC01BD00F08EBE00F08CBE10B54C002B
S31500000950014600F027FD224601F007FCA04201D027
S31500000960002010BD012010BD80B500F01BFD01F078
S315000009708AFC00B10120C0B202BDDFF8180B407D31
S3150000098000B101207047DFF80C2B117B01B97047CD
S3150000099080B50146106A01F0CCFC20B1BDE80440E8
S315000009A040F27111BEE201BD80B500F0FBFC01F022
S315000009B0D5FB00F00300032801D1012002BD002071
S315000009C002BD80B5B0F5004F07D100F014FEDFF888
S315000009D0D80A00F0D0FCBDF80000DFF88C1AC883F6
S315000009E0002002BD2DE9F04F440900F01F05002745
S315000009F0DFF8808B00E07F1C98F80660F8B2B04202
S31500000A0036D2D8F80800FFB250F827004FF0000C95
S31500000A1001E00CF1010CC67E5FFA8CFEB645EAD207
S31500000A20D0F81CE05FFA8CFC142616FB0CF6B644D4
S31500000A309EF8086006F00706A642EAD19EF809600D
S31500000A40B542E6DB9EF801B09EF8009006EB0B0A75
S31500000A50AAEB090AAA45DCDB11B1AC1B4C440C70AD
S31500000A6012B19EF8081011701BB1C3F800E000E047
S31500000A700020BDE8F08F400918BF40F0180070470D
S31500000A8010B5DFF8144B206A01F0FDFB0246206A20
S31500000A90BDE81040002101F012BC0B38102834BF0D
S31500000AA0DFF8D40ADFF8F40A006870473EB56846F6
S31500000AB00021002200230EC0DFF8AC0901788DF872
S31500000AC00010817A0A0018BF022914D10079DFF8D4
S31500000AD0C85A00F0BBF8044600F00EF858B1286A70
S31500000AE00122002101F03CFB00F006F818B140F2AB
S31500000AF05B2100F06EFB37BD286A6A46214601F08D
S31500000B0076BB2DE9F041044604F01F001B2886B091
S31500000B1034D2002000906B46002200212046FFF7C9
S31500000B2061FF07002AD02046FFF7B7FF5FEA0008FB
S31500000B3024D0DFF86069DFF8445AF06B804515D0A1
S31500000B4001A84146062201F06BFC306AC6F83C80DB
S31500000B5001A901F050FC88B9306A03A901F059FCDB
S31500000B60B5F91C10306A01F021FC38B90098B06262
S31500000B7077620098002818BFC06801E08A200EE05E
S31500000B80F06229798C421CBF2C71FFF78FFF96F912
S31500000B900D00C101306A09B201F032FE002006B034
S31500000BA0BDE8F081DFF8D40900797047DFF8CC0999
S31500000BB0B0F91C00002854BF05216FF00401081885
S31500000BC00A2190FBF1F040B270470A2110FB01F0B8
S31500000BD0FFE7F8B500F5D77240F277239A4201D3C2
S31500000BE08B20F2BDDFF8AC48DFF89059A26A0A23E1
S31500000BF0002A1EBFAE7F06F0C006802E12D0A67B4E
S31500000C0086B992F9026016FB03F7B842B8BF16FB25
S31500000C1003F007DB92F9032012FB03F68642B8BF06
S31500000C2012FB03F0217B61B10146206A01F0BEFB95
S31500000C3018B140F2B92100F0CCFA206A01F0C9FBE4
S31500000C4001E010FB03F0A8830020F2BD38B504468E
S31500000C50FFF723FF90B10023002200212046FFF773
S31500000C60C1FE58B104F01F051B2D07D22046FFF721
S31500000C7002FF18B90B2D01DB284632BDFF2032BD1D
S31500000C807047C0B2704710F1630F01DA0020704759
S31500000C9010F1240F01DBFF20704764300002411180
S31500000CA000EB91608004000E704770B5DFF8E447F2
S31500000CB0DFF8985A00202064687828B101F0A4FD76
S31500000CC0012818BF032801D1002070BDE16ADFF8B2
S31500000CD0C43ADFF8A82800291FBFA66A3669002E85
S31500000CE0022817D12364906900F5FA709061E07CC0
S31500000CF018B100200021642203E0E87829794FF436
S31500000D00A0722070A2806170A878A0708020E08018
S31500000D10002030E0DFF8805A9069AE4213D1DFF848
S31500000D207C3A236400F57A709061E07C88B9087992
S31500000D30207001228B7808799A40101891F90320C7
S31500000D401018401E0CE0236400F5FA709061E07CF8
S31500000D5018B100202080642005E04878207088784B
S31500000D60607008780001A0804879A07008890001A9
S31500000D70E080C8880001A06000F043FCE07094F9B0
S31500000D800200010048BF4042C0B270BD70B50446C3
S31500000D90DFF80067257896F9140008B18C2070BD3D
S31500000DA0FFF783FFB075DFF8A429DFF8D007417895
S31500000DB00174690101F5807181619379716C002B71
S31500000DC0B37B1DBFAD1EEDB221F0020141F0020161
S31500000DD073B9127862B16278920609D56FF0010292
S31500000DE0327541F00101826902F50872826104E000
S31500000DF049084FF0FF30490030757164032000F058
S31500000E0005F96A1C306A4FF4807392B2214601F0EC
S31500000E1023FD691C884203DA40F21B4100F0D9F930
S31500000E20002070BD00000000F8B5DFF8685695F99F
S31500000E3014100024091D04290FD8DFE801F0080E5C
S31500000E4010100300FFF7A2FF040008D0F2BD2C75B6
S31500000E50286A01F089F98D20F2BD8C20F2BD01F0DF
S31500000E6017FDE8B1286CDFF82C19884218D1A87D47
S31500000E70B0B1DFF8D40A0068002811D5DFF8CC0A33
S31500000E80C168C1600122006800F00F0002FA00F09C
S31500000E90401E014204D100F0FBFB642001F0FAFC85
S31500000EA001F03CFD064695F9140010F1010F1CBF38
S31500000EB095F9140010F1020F29D195F91400DFF805
S31500000EC0BC764042287501F02FFD7862296C38798E
S31500000ED049B9FFF7BBFE01466A6C286A07F11003A1
S31500000EE001F074F90BE0FFF7B1FE07F11001009174
S31500000EF001466A6C286AD5F840C02B46E04760B1C7
S31500000F00002028758C244FF0FF30786202E0002024
S31500000F1028758D24286A01F027F9304601F03BFD3B
S31500000F202046F2BDDFF8A40AFFF70EBC2046BDE856
S31500000F30104001F030BDDFF84406C08B704700005A
S31500000F40F8B501F0EBFCDFF820550446A87A012835
S31500000F5003D1204601F01FFDF1BDDFF8741ADFF85A
S31500000F603465DFF8687A402008600122306A012182
S31500000F7001F0F6F8DFF85C1A4FF4001008606946D5
S31500000F800FF2840000680090306A01F02DFC18B161
S31500000F9040F2C74100F04AFE02208DF80000694683
S31500000FA0306A01F0FEFB18B140F2C94100F03EFE86
S31500000FB0306A01F0F7F80021002001F0EFFC00F0A4
S31500000FC051FB0120A87296F91400001D072810D8BD
S31500000FD0DFE800F0130F0707040B0B0B01F071FDA0
S31500000FE00BE06FF00300307507E0892000F085FB09
S31500000FF003E040F2ED4100F019FE204601F0CBFC83
S3150000100001F0FCFDF1BD0000040100002DE9F04DEA
S31500001010DFF854540446A87AA04282B063D00FF297
S31500001020CC01DFF8B4690968DFF8A089DFF86474D9
S31500001030DFF8A0A9009103284FF4001B4FD8DFE882
S3150000104000F047023E2B01F0E2FD386A694601F0E6
S31500001050CBFB18B140F20A5100F04AF802208DF895
S3150000106000006946386A01F09CFB18B140F20C5149
S3150000107000F03EF86879002814BF00220222386A80
S31500001080022101F009FE18B140F2115100F030F8CA
S315000010900320032CA87218D0CAF800B00220A87248
S315000010A02879FFF7D3FD0146386A002201F09FF840
S315000010B018B140F2215100F01BF8022C13D0002C7D
S315000010C018BF032C0FD10020A872C6F800B00AE0A2
S315000010D0022C08D1CAF800B00220A87203E040F240
S315000010E0375100F005F8BDE8F38D0000040200005A
S315000010F04046FFF729BBDFF8000B807A70470000F7
S3150000110010B5032804460ED8DFE800F009020909E5
S31500001110FFF716FFBDE81040002000F007BC0120D5
S3150000112000F004FCE5E1BDE8104040F25551F9E657
S3150000113080B500F00FF804D500210175006A01F0B2
S3150000114013F8DFF8B40A407A012802D1BDE801405D
S31500001150F6E601BDDFF8A40A90F9141000297047DD
S31500001160DFF8940A407A704780B5032801DB012036
S3150000117002BDDFF8841A4872897A884218BFFFF7E1
S31500001180BFFF002002BD2DE97C4FDFF8706A03EA3D
S31500001190010BD6E9068929EA010528EA000402EAD4
S315000011A0000A45EA0B0544EA0A044D4508BF4445D2
S315000011B00DD0CDE900230246306A0B4601F016FB3E
S315000011C018B140F27D5100F004F8C6E90645BDE8C5
S315000011D0738F0FF66020FFF7B7BA38B5AD4D0446EA
S315000011E0287BE8B1200018BFDFF8142A04D1A87CB8
S315000011F008B1402200E000220023DFF8040A0021A3
S31500001200FFF7C1FF002C14BF08220022286A08211C
S3150000121001F042FD20B1BDE8344040F2B95181E60B
S3150000122031BDF8B50446022C0FF6082503DB40F263
S31500001230E25100F0A5F8974E307B002840F09780E9
S31500001240894FB87A012803D04FF4BD6100F098F8B1
S31500001250002107F1280000F071FF306218B940F252
S31500001260EB5100F08DF8306A052101F058F918B1FC
S3150000127040F2EE5100F084F8306A0FF6CC1101F01E
S315000012801DFD18B140F2EF5100F07AF8306A01F016
S3150000129049FD18B14FF4BE6100F072F84FF0FF300F
S315000012A0DFF8602906230146FFF76DFF306A4FF02D
S315000012B0011101F016F818B140F2056100F060F86E
S315000012C0306A4FF48032002100F0F9FF306A0922BB
S315000012D04FF0FF3101F0E0FC18B140F20C6100F074
S315000012E04FF8012030730223DFF81C0900F043F8A1
S315000012F0BDF80000C0054CBF0020BDF800007073AB
S3150000130001F0C6FAFFF769FFF88BFFF75AFB01F009
S3150000131089FD00F085F83879FFF7F3FB18B140F244
S315000013201F6100F02DF8F87900F040F8387A00F0E7
S3150000133058F8307C00F086F8787900F0CBF800F0A9
S3150000134060F900F02DF9B07C00F02CFBB7F91C0019
S31500001350FFF73FFC388C00F089F8788C00F0A6F88F
S31500001360B87900F00EF9601E8041C00FB8722046B1
S31500001370FFF7C6FEF1BD01887F22684601F0C6BDB3
S315000013802846FFF7E1B980B500F00CF8012100F01E
S3150000139031FF10F5007F02D16FF07F0002BD80059E
S315000013A0001602BDDFF85408006A704710B50446FF
S315000013B03848017B51B1611E8941006AC90F01F0AD
S315000013C003FD18B140F25A61FFF703FF2000DFF872
S315000013D0281818BF0120C87110BDDFF81C08C07995
S315000013E07047F8B5044601F099FA05461E48294E9D
S315000013F00472377BFFF7C1FA00F0010080F00100AC
S31500001400074204D0306A84F0010101F042FE28460A
S31500001410BDE8F24001F0BFBADFF8DC07007A70479A
S315000014201C48017B01B9704780B5006ADFF8DC17FC
S31500001430002201F0B6FC20B1BDE8044040F285610F
S3150000144070E501BDDFF8B427117B107401B9704750
S3150000145080B50146106A01F0ABFC20B1BDE804403E
S315000014604FF4D2615EE501BDE8DB03204349DFF8B6
S315000014708C370884197B01B9704780B50146186A14
S31500001480002201F087FC20B1BDE8044040F2A161D2
S3150000149048E501BD48E10320DFF85C07008C704792
S315000014A0DFF85407408C7047E48103003349DFF8C6
S315000014B04C374884197B01B9704780B50146186AD4
S315000014C0002201F060FC20B1BDE8044040F2B761A3
S315000014D028E501BDDFF820174A79824200D170471E
S315000014E010B58C7A4871012C02D0FFF729FD00E077
S315000014F010BD2046BDE8104088E510B500F032F872
S3150000150000F02BF80146206A012200F068FE20B1A7
S31500001510BDE8104040F2D96104E510BD80B5FFF783
S3150000152041FF00F05FFE18B140F2DE61FFF751FEA9
S31500001530BDE80140FFF7BABA10B500F013F800F0A5
S315000015400CF80146206A002200F049FE20B1BDE8F1
S31500001550104040F2E961E5E410BDDFF89C06007931
S31500001560FFF774BBDFF89446206A0122012100F0E0
S31500001570F7BD0000447B030054DB0320E8DB0320B7
S31500001580CCE710B50446FFF70DFF214601F087FDB5
S31500001590DFF86406847110BD48E1032058DB0320A0
S315000015A038B504467F2C0CD100F025F8DFF860062C
S315000015B0FFF7E1FEBDF800007E24C00558BFBDF868
S315000015C0004001F0ABF90546FFF7D7F960B960B204
S315000015D07E2805D1DFF82416896A09B191F904003D
S315000015E07E28B8BFFFF7CFF9DFF80C06047328464C
S315000015F001F0D1F931BD4FF6FF70ADF800000223BE
S315000016007047DFF8F40590F90C007E2807D1DFF863
S31500001610EC05806A08B97F20704790F9040070478E
S3150000162010B501F03FFD80041AD500F02BF801F04B
S3150000163039FDC0044CBF03200120002101F034FD18
S3150000164001F030FD00F0FF004FF47A7111FB00F15C
S3150000165004F14800BDE81040DFF8B825FFF76AB985
S31500001660BDE8104010B500F00DF804F1480000F098
S31500001670A6FDFFF799F920B9BDE81040002101F059
S3150000168013BD10BDDFF8744504F1600000F097BD8E
S3150000169080B501F007FD4005BDE804404CBF0320BE
S315000016A00120002101F07AB910B5DFF8504594F910
S315000016B0140003280DD100F030F9DFF83C154FF087
S315000016C0FF3048620022216BBDE81040402001F047
S315000016D09CB910BD38B50446FFF7C4FFDFF81C55AA
S315000016E001F033F9686314B101F0A7F801E00020B6
S315000016F06874BDE8314001F0E4B938B50446DFF856
S31500001700F814DFF8F8544FF0FF30486201F01DF985
S31500001710686395F91400012802DABDE831407FE7D5
S31500001720A87D08B1686BA86300202875286A00F0B8
S315000017301BFDA87B10B10120E87331BD2046BDE832
S3150000174038400022002101F060B90000C4DD03200A
S3150000175010B501F09DF8DFF8A44498B1FFF724F91D
S3150000176080B104F1480000F02AFD01F09FFC002141
S3150000177001F09AFCDFF8A02442F2107104F1600037
S31500001780FFF7D8F8A07C18B1BDE8104000F06BBA9E
S3150000179010BD0000D3210000641C0000D921000008
S315000017A02DE9F043DFF854440FF28849206A89B0E6
S315000017B005AA022101F053F8050003D140F6E7011E
S315000017C000F0A8F89DF81400DFF82C64BDF8168028
S315000017D007281CBF7079002819D1B8F1060F16DB4F
S315000017E008F108008B2812D2002000904346DFF84B
S315000017F02C74206A3A46294601F039F8404503D050
S315000018004FF4106100F086F83878000602D5FFF72D
S3150000181007FF7CE001208DF80800CDF804806A46B9
S31500001820206A294601F01FF818B140F6171100F09A
S3150000183071F8787800F0070002281ED1FFF712FF32
S3150000184094F91400032808BFB8F1060F11D19DF8CA
S315000018500D0070B17878000900F0010500F05DF820
S315000018604FF0FF3070622A4600218F2001F0CDF83C
S315000018704DE0F07900284AD105E09DF80D0010B141
S315000018800020FFF711FFF0799DF80D10084203D0F4
S3150000189040F63F1100F03EF8F07958B178788006AE
S315000018A008D5307A30B1206A01F0F6FB30B1FFF787
S315000018B0B7FE03E0FFF7D6FE002060743878401CC0
S315000018C0404503D040F65F1100F024F807EB080509
S315000018D030792870002068709DF80E00A87095F980
S315000018E00200FFF7D0F9E87008F10801FF2028711F
S315000018F0C9B20098000C68710098000AA871009897
S31500001900E8713846627C01F0D3FB0020607409B0B0
S31500001910BDE8F0834846FEF717BF00202075206A11
S3150000192000F022BC0FF21430FEF70EBFDFF8C8122B
S31500001930897A012907D1DFF8E8120B7898421CBF93
S31500001940087001F066B97047044008404C500840E2
S3150000195010B5DFF8A402446A002C14D400F0E4FFAA
S31500001960001B40F2E93180B288420CD3A34890F9BB
S315000019701400032803D1BDE81040002094E6BDE81A
S3150000198010408920B9E610BD10B540B900F056FFE9
S3150000199000F0C4FF0446FFF7DBFFFFF7C7BABDE858
S315000019A01040D5E738B5954D0446287B60B1200038
S315000019B002D100F06DFF08B1402200E000220023B2
S315000019C040200021FFF7DFFBAC7431BD341C000062
S315000019D00840084018600846186008442DE9F0479A
S315000019E080461446600688B01D4648BF002002D4D3
S315000019F0200602D50120FFF7ABFEA0037F4E2DD5B2
S31500001A00002070746946404601F0F3F930BB9DF83A
S31500001A100800844F02280DD1BDF8000001F09CFC9F
S31500001A20FF2815D0396831F810004FF45671084276
S31500001A300ED113E0032811D1684601F0ACFCFF2853
S31500001A4006D0396831F810004FF45671084205D0B7
S31500001A50306A01F0CBF908B901207074600410D522
S31500001A6000F016FF68B1FEF79FFF50B101F0CAFC07
S31500001A70074601F01BFB874203D00021384601F0E0
S31500001A8013FB200744BF4046FFF78AFEE00548BF28
S31500001A90FFF7C6FD4FF41850044218BFFFF7E2FDEA
S31500001AA0E00244BF0120FFF715FE600244BF01209B
S31500001AB0FFF710FEE00144BF0020FFF70BFE96F98A
S31500001AC014000FF27017012869DB306ADFF82891DD
S31500001AD021034FF0FF3A33D596F9141001295EDB46
S31500001AE096F9141003295ADA00218DF818100121ED
S31500001AF08DF8141003A900F08FFC0398306300F0F2
S31500001B0024FF7063B07D08B1706BB06396F9140062
S31500001B10012804D002280ED1032030753FE00020B2
S31500001B203075306A00F020FBC9F824A0B07BA8B954
S31500001B30316B002218E04FF4016100F077F82EE0D7
S31500001B4014F0845F13D00021317500F00DFB0420E2
S31500001B5000F075FEC9F824A0B07B10B10120F07327
S31500001B601DE0002200218D2000F04FFF17E0A002AB
S31500001B7048BF892002D4A00103D58820FFF7BDFD08
S31500001B800DE0600048BFFFF783FDA00007D526489B
S31500001B900068400403D40021002000F0FFFEA007E7
S31500001BA044BF4046FFF780FD002C04D5FFF75AFDE1
S31500001BB04046FFF779FD05F002010023994211D056
S31500001BC0404600F0C9FA022802D0032802D005E0F8
S31500001BD0892000E08D20FFF790FD03E040F67B01B1
S31500001BE000F024F805F004010023994218BF01F023
S31500001BF05FFC08B0BDE8F087E8DB032048E103207E
S31500001C00406700600A00FA93E681030010F403209F
S31500001C10E8810300450900004909000064F003203B
S31500001C2009FC032020DB0320044008403846FEF769
S31500001C308BBD00007068792E630000006C696272CB
S31500001C4061696C2E61000000000000000100600365
S31500001C50010101016400B6006400C000000000003C
S31500001C600B0000000000704701F02EBC80B501217A
S31500001C700C4801F0EFFC0421072002F0BDF80A48E9
S31500001C800A490B4A016004211160022141620421C4
S31500001C90084A1160816A41F00201816201BD024871
S31500001CA002F0ECB8002508000020054001080300FA
S31500001CB080E200E000E100E0602080F311887047D8
S31500001CC002F0B2B903460A469DA10420FFE70CB410
S31500001CD080B502AA00F05CF801BC5DF80CFB0A00B6
S31500001CE003D0034697A11120F1E7704700B589B0EC
S31500001CF000F0A0FF00210791069105910491039140
S31500001D000291019102469049009100230FF24C2165
S31500001D100120FFF7DCFF8D48C178437802780391F4
S31500001D2081680291818801918178009143200FF2A8
S31500001D303821FFF7CCFF09B000BD85490870704710
S31500001D400EB410B5044682480078A1B080B102F006
S31500001D50F5F868B180226946022000F0B5F823AB99
S31500001D60224600210FF2791002F0D1F900F0DCF8DA
S31500001D7021B010BC5DF810FB0C220021754802F062
S31500001D8065BB744931F81020521C21F810207047A9
S31500001D902DE9F04107466E480078A2B00C46904601
S31500001DA0002690B9380018BF012F0ED0042F18BF97
S31500001DB0052F0AD0312F18BF332F06D0372F1EBF5D
S31500001DC03B2F4FF6FF718F4275D102F0B7F800280E
S31500001DD071D0802202A9384600F076F8002C68D02F
S31500001DE007E08DF80400012201A9002000F078F830
S31500001DF0641C207801005CD0A0F130020A2A05D2CA
S31500001E000A2101FB0600A0F13006F1E7422818BFBF
S31500001E1044280CD0462827D0572808D0622836D028
S31500001E20662821D06C281CD070281DD0D9E74228FE
S31500001E3007D158F8042B6946012002F032FB012233
S31500001E400DE0572858F8042B694604D1012002F00A
S31500001E5028FB022203E0012002F023FB042269464C
S31500001E60C3E758F8046BC3E758F8041B462807D1A4
S31500001E700026885D00281EBF761CF6B2FF2EF8D11C
S31500001E80F2B2002000F02CF898B90026B0E758F816
S31500001E90047BB8B20028ABD002F081FF0546B8B289
S31500001EA002F065FF0146EAB2002000F019F80028AA
S31500001EB09ED000F039F822B0BDE8F081122804BFA8
S31500001EC0002003F070BC704710B5234C61600146DA
S31500001ED02270606802F038F8607010BD00000000E3
S31500001EE0F8B515000C461C4E1CD070783178736816
S31500001EF00F1AFFB2EDB2BD42B8BF2F463A46214691
S31500001F00184402F041FA707838187070ED1B3C44A2
S31500001F10E8B238B17068711C02F079F80028E4D094
S31500001F200120F2BD0020F2BD10B50B4C6068611CAB
S31500001F3002F06DF808B1012010BD607010BD000000
S31500001F40574600006C70000010F40320A46C0300D8
S31500001F500AFC0320F0F00320FCF003204242387014
S31500001F6042424242574242004242425744420000E5
S31500001F7080B50146002009B903F043FCC0B202BD9A
S31500001F8080B50246262012B9002003F0F9FCC0B243
S31500001F9002BD80B50146002009B903F067FDC0B255
S31500001FA002BD0CB438B5044604AA00F00FF8054685
S31500001FB02046FFF7EEFF284632BC5DF80CFB80B5E5
S31500001FC008461146FFF78BFE002002BD134680B57A
S31500001FD00A460146094802F09AF8401E8041C00FA1
S31500001FE002BD38B504460D46284602F0C9FAC2B20B
S31500001FF029462046FFF7E3FF002032BDBF1F000041
S3150000200010B50446FFF758FE200A00283E4808BFD0
S3150000201024024FF20F0104804180BFF35F8FBFF3AC
S315000020204F8F3A483A4A016801F4E0611143016072
S31500002030BFF34F8F00BFFDE780B5002000F009F821
S3150000204030B9BDE80440E3210FF2DC00FEF77CBBAB
S3150000205001BD2DE9F0422F4C216842428D1815F042
S315000020601F0108D0002802D44842054403E0484234
S31500002070284400F120052848A5F12006A84224BFDF
S315000020802648864203D3EFF30880854201D3002019
S315000020902DE000F043FC81462148006810F001075E
S315000020A018BF03F078FD206801468D4206D2A8428B
S315000020B024BFCD2100F80119F9D206E0203800220C
S315000020C001E000F8012B8842FBD32560304603F07F
S315000020D069FDE22001E006F8010BAE42FBD30FB129
S315000020E003F036FD484600F056FC20682038BDE86F
S315000020F0F082084800687047064800682038704734
S315000021000848704700000000000000200CED00E0C9
S315000021100400FA0534DD032038C9032070170020B7
S3150000212094ED00E0000000206D6963726F2D696E0A
S315000021307465726E616C2E630000000038B504464B
S31500002140214804600D46204600F0DCF92946204669
S31500002150BDE8344000F0A2B90120704703F07FBF0C
S315000021600846114600F0EFB970470846114604F0DC
S315000021703FBE0220704700207047002070470120B4
S3150000218070470020704710B50C4611461A460346A4
S3150000219020460D4C64682468A04710BD0A48406874
S315000021A040680047084840688068004710B582B01C
S315000021B0049C0094044C64686469A04716BD0249F7
S315000021C0496889690847000060DE03200C3000F08A
S315000021D0A1B80C3000F0B0B80C3000F0BFB80C302D
S315000021E000F0C9B880B504F02BFA002002BD0C300F
S315000021F000F055BD0C3004F061BE00002F640000F5
S31500002200A1640000AD640000D1640000E564000034
S3150000221073210000772100007B2100007F21000050
S31500002220832100000120704738B500F01BF800211B
S315000022302561E160BDE8324004F043BE38B500F0E8
S3150000224011F82169E26829400D0018BF01251143E4
S31500002250E16004F036FE15B10020042134BD0020F3
S31500002260002134BD04460D4604F02EBE38B5FFF7F6
S31500002270F9FF2269E1682A4021EA0205E56004F0D7
S3150000228020FE284632BD8069704770B582B005468B
S315000022900C0006BF0FF25C0000682068164600902E
S315000022A006B9EE6831462846FFF7E0FF3246694632
S315000022B0284604F01AF90CB10098206073BDF8B5F1
S315000022C000F10C070C4615463846FFF7ABFF022611
S315000022D028B12A4621463846FFF7D7FF0026304662
S315000022E0F2BD80B50C3001F00111FFF79DFF002013
S315000022F002BD0000FFFFFFFF38B504460D4603F0A0
S31500002300E3FE08B9022032BDA9B22046BDE834403A
S3150000231000F03FB938B50446154689B2FFF7ECFF21
S31500002320010005D129462046BDE8344003F0EFBE42
S3150000233032BD0C3003F0C7BF70B500F00AF80100DB
S3150000234006D1324629462046BDE8704003F027BF35
S3150000235070BD044615461E4689B2CDE770B5FFF737
S31500002360F8FF010006D1324629462046BDE87040F6
S3150000237003F0D6BE70BD70B5D4B2250018BF012CCF
S3150000238001D0012070BD89B200F003F906000BD11F
S315000023900121012000F0D7F814B904F058F903E040
S315000023A0012C08BF04F05AF9304670BD7CB50D46C5
S315000023B06946044600F02DF89DF800102A4620468E
S315000023C004F086FD04F10C060146304604F000F9DF
S315000023D076BD30B583B06946044600F01AF804F1BC
S315000023E00C05284604F02AF902469DF800102046FE
S315000023F004F0D6FD3EBD38B50C4600F10C050021B3
S31500002400284604F0E5F821462846BDE8344004F0A5
S31500002410D2B80C3004F00CB90C3003F0C2BC00008A
S3150000242062B38B0708D0521E11F8013B00F8013B3E
S3150000243000F024808B07F6D1830740F0208000BF90
S31500002440103A07D330B4B1E83810103AA0E8381083
S31500002450F9D230BC530724BFB1E80810A0E8081031
S3150000246044BF51F8043B40F8043BD20724BF31F87F
S31500002470022B20F8022B44BF0B7803707047083AF2
S3150000248007D3B1E80810083A40F8043B40F804CBFB
S31500002490F7D25307E4E700000120704710B5044661
S315000024A003F0B6FC08B1002010BD204610BD70B583
S315000024B00D00044614BF012600261F21304604F0F5
S315000024C0C3FD0020606225621F21304604F0BCFD7A
S315000024D04FF6FF76002001E0401CC0B2E968884252
S315000024E009D2A968182212FB00F21144C989B14227
S315000024F0F2DA0E00F0D13146204600F04AF83046B6
S3150000250070BD704710B5044603F02DFDA06A0100AA
S31500002510DFF8301208BFDFF83002886010BD38B52A
S3150000252000F10C050C462846FFF7B6FF28B103F06C
S3150000253096FD012801D0022032BD21462846BDE87D
S31500002540344003F062BD10B50C4603F073FD1CB1B8
S3150000255003F085FD0128FBD110BDF0B504467B488C
S31500002560066883B00D466946204604F061F8B5F961
S315000025701220012747F6FF702479824207D09DF882
S315000025800010304604F0A4FCA04238BF00273846AD
S31500002590FEBD2DE9F04F85B04FF000098DF8019092
S315000025A00446684F8DF800900D463868D7F804A0A9
S315000025B00290CDF804A0204600F0C1F88046266AB5
S315000025C0D4F824B000F0EBF8002818BFD34505D1A5
S315000025D0BBF1000F02D0A8B240454BD0002E1CBF65
S315000025E0B068002801D0F06808B903209CE0CA460C
S315000025F001E00AF1010AF068824518D2B068182194
S3150000260001FB0AF10144A8B2CA89904222BF088A96
S31500002610AAB29042EDD301208DF800008B462046E9
S31500002620FFF79BFF0028E4D001208DF8010003A9E5
S31500002630204603F0FDFF204604F000F882469DF890
S315000026400100C0B1217900F073F8386860B3B04278
S3150000265023D17A680AB35A451FD1A9B2884506D054
S315000026600023204604F001F85FEA000912D1C4F8FD
S3150000267024B0658057E09DF8000048B1BBF91220F0
S315000026809DF80C10A4F10C0004F022FC0146DAE7D8
S31500002690012049E000F04BF83FE0016821B13268C3
S315000026A0914208BF416800D0316800F045F8814684
S315000026B05FEA090004D1DBF8001000F03DF881461E
S315000026C05FEA09000FD100F06AF810B13E60C7F862
S315000026D004B0C4F824B0658001235A46A9B2204646
S315000026E003F0C3FF81465FEA090005D1BA6859467F
S315000026F0A4F10C00904716E000F051F898B102984A
S31500002700386001987860386808B100F014F800F075
S315000027100EF8786838B100F00EF87A680023414662
S31500002720204603F0A2FF484605B0BDE8F08F5146AB
S31500002730204603F06DBF0168204604F02FBA40889A
S315000027407047000068DE03200325000060DE0320DA
S3150000275001281CBF0428022801D10120704700204F
S31500002760704738B500F03CF840B16878FFF7F0FFE5
S3150000277020B1287869780843400701D5012032BD89
S3150000278000F00DF828B103F06AFC400701D50220DD
S3150000279032BD29462046BDE8344003F0D3BE20466C
S315000027A07AE60C30DDE738B500F01AF838B168780B
S315000027B0FFF7CEFF00281CBF6878042801D101204E
S315000027C032BDFFF7ECFF28B103F049FC800701D5C5
S315000027D0022032BD29462046BDE8344003F0DABE69
S315000027E00D4604462878B3E70C30DCE730B583B0F5
S315000027F00C30DDE90645CDE9004503F082FB3EBD20
S315000028000C3004F097B900000020704738B5144624
S31500002810FEF70AFB05466CB128000BD00A48007883
S3150000282018B10A490120087004E000220021284658
S3150000283000F0EBF8284632BD7047704770470449F0
S31500002840087070470000000056E1032057E103209E
S3150000285010FC0320012070470C3004F000B9084634
S31500002860114604F069B80846114604F083B870B5FD
S315000028700C4615461E460C30FFF7ECFF38B1049B9C
S31500002880324629462046BDE8704003F075BB70BD50
S315000028900020704704F046BC10B5044605211120FF
S315000028A001F046F800220021022001F065F91848DF
S315000028B0184A01686FF3D321016002EAC422016855
S315000028C01143016001220121022001F055F9BDE802
S315000028D010400421112001F02BB80D4800680003B8
S315000028E0C00D704738B50C480C4601884FF6FF7589
S315000028F0ADF8005002237F22684604F0A4FCBDF820
S315000029000000A84202D02080012032BD002032BD46
S3150000291030400E4000F80F00EC810300EFF3118009
S31500002920602181F31188704780B504F07CFD04F0C6
S3150000293087FD80B202BD80B504F075FD04F080FD10
S31500002940FA21B0FBF1F080B202BD80B504F06BFD58
S31500002950BDE8044004F074BD80B504F08AFB074866
S3150000296000214160001D04F0BBFC20B139210FF2AB
S315000029701400FDF7E9FE002002BD000004F103206B
S3150000298000F008B873797374656D2D74696D65729E
S315000029902E630000704780F311887047012070474E
S315000029A038B504466048614D002912BF0021017800
S315000029B0491C01700120012104F081FE2878411C88
S315000029C089B2032004F07BFE200003D000F06AFBEE
S315000029D0002808D500F066FB40054CBF0320012007
S315000029E00021FFF7DBFF524844702846BDE8384017
S315000029F001224FF47A71FFF709BF80B5FEF798FB05
S31500002A00BDE80240312004F0BDBF38B50446402C75
S31500002A10154606D100F046FB00F08020B0F1004FCD
S31500002A2003D000210020FFF7B9FF002C3AD0402C3C
S31500002A3024D0882C18BF892C38D08C2C38D08D2CDB
S31500002A402DD08F2C39D13B48007804280FD155B1B1
S31500002A503949022008704CF25032BDE838403749F7
S31500002A60002005F069B8FEF763FB312021E0FEF790
S31500002A705FFB002D0CBF312000201AE0FEF758FB4B
S31500002A8005F0DFF828482E4900780978884204D2F4
S31500002A90BDE834400021012082E7402009E0FFF72D
S31500002AA0CBFE03E0FEF744FB002002E0FEF740FB0E
S31500002AB08D20BDE8324004F065BFBDE83440B42146
S31500002AC045E01D480078022800D0704780B51D48B3
S31500002AD00078012807D0032810D11B480078022867
S31500002AE018BF7C280AD11549002005F064F8FEF7C6
S31500002AF01FFBBDE80240002004F044BF01BD38B50D
S31500002B00FFF70CFF05460C480078002410B9FDF7C6
S31500002B102BFF04462846FFF73EFF1CB1BDE83140B7
S31500002B2000F0C6BC31BD000011FC03204CFB0320A5
S31500002B30C4DD0320F5DF03201DFC0320FB29000074
S31500002B40F8DF03201BFC03201CFC0320E9210FF205
S31500002B500800FDF7F9BD00006D61632D7068792EE0
S31500002B606300000010B54448444986B00068000E72
S31500002B7009D14AF6E850C862486B40F00400486341
S31500002B800020C86201E0022803D2086840F4005021
S31500002B90086002AC3A48016821F4401141F48811FA
S31500002BA001603848016841F48071016001203649AE
S31500002BB0086005F049F804F0C6FB05F02AF9334829
S31500002BC0D0E90023CDE9002301208DF803006846F3
S31500002BD005F0DEF905F064FCFFF7BEFE2C480FC8D1
S31500002BE084E80F0008208DF8140002A805F064FCA4
S31500002BF006B010BD40F20160FFF702BA80B50021B1
S31500002C00002000F051FABDE8014005F063BC05F074
S31500002C1062BC002818BF05F0AFBD05F0AEBD80B59B
S31500002C2005F0A5FE01461B480C2938BF00EB8100C4
S31500002C3002BD000010B505F09AFE044605F09BFEA5
S31500002C40C0B208B9012C07D1072C11D8DFE804F06F
S31500002C5004100608080A0C0E002010BD092010BD3D
S31500002C60022010BD032010BD0B2010BD062010BD94
S31500002C7044F0800010BD0000FC81E00F64310E407E
S31500002C8020400E4000000E4010300E40506D0300F4
S31500002C90086E0300186E03000C3003F072BB38B5E3
S31500002CA00D46044689B2FFF774FC010005D1A9B2AE
S31500002CB02046BDE8344003F011BB32BD70B50C466A
S31500002CC084B000F10C05237E627EA17E284605F0C5
S31500002CD0E6FE684604F10C010C22FFF7A1FB6946EB
S31500002CE0284604F087F8211D284600F08CF90600D6
S31500002CF003D1284605F00AFF0646300005D10FF23B
S31500002D001C11284604F021F80646300003D1284657
S31500002D1005F04CFE06462168284600F006F83046C7
S31500002D2004B070BD0C3005F03ABE70B58AB00446EA
S31500002D300D4668460FF2C0012422FFF781FB05B954
S31500002D406D46002601E0010005D135F81610F2B2F5
S31500002D50204605F05EFE010006D105EB4600F2B204
S31500002D60C188204605F05EFE010007D105EBC600CE
S31500002D7000F10C01F2B2204605F06DFE761C032E22
S31500002D80E1DB0AB070BD032ABCBF0C3005F041BEC2
S31500002D9001207047032ABCBF0C3005F043BE01205A
S31500002DA07047032ABCBF0C3005F055BE01207047A2
S31500002DB038B500F015F828B121462846BDE834405C
S31500002DC005F060BE022032BD38B500F009F828B122
S31500002DD021462846BDE8344005F04ABE022032BDF1
S31500002DE000F10C050C46284605F0D6BD0C3005F062
S31500002DF065BE084602F0A0BFFFFFFFFFFFFFFFFF13
S31500002E00FFFFFFFF000000000000000000000000C0
S31500002E1000000000000000000000000000000208A2
S31500002E200000000010B5144C207858B913480188EA
S31500002E3008237F22201D00F069F8201D00F011F8FC
S31500002E400120207010BD10B50B4C01460822201D34
S31500002E5001F09AFA201D00F004F80120207010BD40
S31500002E60074880B501460822064801F08DFABDE8FC
S31500002E700140FEF7D5BA000004F40320EE810300FA
S31500002E8008F4032010F4032038B50C4611461A4600
S31500002E907F2908BF002141F2F0139C4218D1544902
S31500002EA00B6849680024D5B27DB30355641C1B0A20
S31500002EB0521EE4B2042CF6D3E4B2082C25D2D3B2C7
S31500002EC0002B1FBF0155090A521E641CF4D131BDE7
S31500002ED004F47045C4F30B03B5F5805F11FB02F1F2
S31500002EE008BF43F07E630BD0B5F5005F1CBF04F44A
S31500002EF07044B4F5405F08D143F07C6343F401139A
S31500002F00C918BDE8384001F03FBA31BD70B51E00A2
S31500002F10044615461BD04BF23460814211D1092E6E
S31500002F2028BF082633467F2241F202012046FFF7DA
S31500002F30ABFF32462F49204601F08FFA38B941F2ED
S31500002F40F01133462A462046BDE870409CE770BD26
S31500002F502DE9F84307460024F807884615466FF022
S31500002F600F06DFF8949002D5652100F049F8E807CE
S31500002F7002D5662100F044F807F47041B1F5805F90
S31500002F80C7F30B000CD140F07E64B4F17E6F264689
S31500002F9004D32819401E1949884210D36B210CE02E
S31500002FA0B1F5005F18BFB1F5405F05D140F07C6414
S31500002FB044F40114264602E0722100F021F80027AD
S31500002FC006E0F05DFF2802D07C2100F019F87F1C96
S31500002FD0AF42F6D36A084146204605F0F7FD28B110
S31500002FE04846BDE8F4438521FDF7AEBBBDE8F18355
S31500002FF0F081E00F486D03003C6D03000008E00F10
S315000030004846FDF7A1BB70B50D4682B00446287848
S3150000301058B90021204603F075FB0021204603F035
S31500003020C9FB0021204603F0CDFB2878002814BFF9
S315000030300420287900F027F814BF287968798DF8DC
S3150000304001002046FFF7AFFB06001AD128780028BA
S3150000305014BF0220A87900F016F814BFA879E87901
S315000030608DF801002046FFF77CFB060009D1287881
S3150000307038B16988204603F051FB0121204603F050
S3150000308041FB304676BD8DF8000069462878002859
S3150000309070470C3003F08EBB0C3003F09DBB084626
S315000030A003F0D8BE0020704701207047002070470B
S315000030B070B50446A0480D460178164619B14188F8
S315000030C0491C418070BD204605F0ADFD80B1FEF77C
S315000030D0A3F938B1A078002E14BF40F0010000F02B
S315000030E0FE00A07029462046BDE870402E2200E072
S315000030F070BD70B504460D461646601C01F0C0F959
S3150000310010F0070F1ABF41F6490188420026012137
S31500003110002004F0D4FA2078411C89B2022004F081
S31500003120CEFA32462946204601F0D4FF18B1BDE852
S31500003130704006F099B880488188491C818070BD2E
S315000031402DE9F04FA5B002F010F87B4E8146002520
S315000031507088A84600B17580B188080003D00D209C
S3150000316004F0ADFAB5805FEA090042D001F0FFFD38
S31500003170040018BF2578601C01F082F910F0070FD3
S315000031801BBF41F649018842C3464FF02E0B484605
S3150000319001F005FE2018CBF100010844A0F108015A
S315000031A0082202A801F0F0F802AFF878FDF768FDF2
S315000031B02946FDF766FD834697F902008DF804005F
S315000031C05E480078B0B1B068002812D004A880210B
S315000031D006F040FD6B1CCDF80080DBB200224946AC
S315000031E004A801F0E3FF9DF90420B368594604A83A
S315000031F098479EE0484606F03BFE0028504D1ED0FC
S315000032000521484602F01AF882460320FEF7B9FD6A
S315000032104C4F4D490AF007003870FF20087084F8BB
S3150000322001B09DF80400A0709DF80800E0704846C3
S3150000323007F0F1F90328484602D108F045FB6AE099
S3150000324007F0D9F900F00500042807D038780328DC
S3150000325004D1484604F0E1FB00285CD106F050F8A2
S3150000326018B106F04DF8012802D13878002860D14F
S31500003270F268100004D0002148469047002858D133
S315000032802878032818BF042805D0022821D12F4802
S315000032900078C0071DD406F033F8032819D1484634
S315000032A007F071FAB0F5004F13D1484607F08EFAD1
S315000032B02749098881420CD0484607F09CF9000747
S315000032C007D4484607F097F9400632D538780128E2
S315000032D02FD12878042804BF3878012809D11D4940
S315000032E05FEACA6081F8008003D504F06EFA4FF0F9
S315000032F00108387820B101280AD0032804D00AE052
S31500003300484607F081FE06E0484608F0EDFF02E079
S31500003310484609F037F8287804280AD10D4800787D
S3150000332088F00101084204D00A490020087004F020
S315000033304CFA25B0BDE8F08F90F7032056E1032044
S315000033401AF403201BFC03201CFC03201EF403209C
S3150000335012DE03203BFB0320F8B5274D2E68040040
S3150000336001D1FF20F2BDFFF7D9FA244F29683A7838
S3150000337021F8124036F8021BA142FBD1FFF70BFBE6
S3150000338029683A78B01E401A4010C1B2914208BF6F
S31500003390FF20C0B2F2BD2DE9F843194C174D26683F
S315000033A08146287806EBC007FFF7B8FA8046082260
S315000033B04946384600F0E8FFF88800E00836F1880C
S315000033C0814202BF31883A889142F7D171887A8862
S315000033D0914202BFB188BA889142EFD14046FFF7C9
S315000033E0DAFA20682A78301AC010C1B2914208BFB2
S315000033F0FF20C0B2BDE8F28324DB0320EEDF03200A
S3150000340028DB03200020704770477047704770B56F
S31500003410044643381E4D08D0401E012809D9801E97
S3150000342001280ED9C01F31D02AE0BDE870400AF04D
S315000034307ABD0AF050FD20B10AF075FD0028FBD1D7
S3150000344070BD144E307808BB0120307000200AF0A1
S31500003450E3FD442C11D00CD3462C05D00DD3472CBC
S3150000346007D140F6010001E040F60200FEF7C8FD74
S3150000347003E0AF212846FDF767F90020307070BDE4
S315000034802846BDE87040C121FDF75EB970BD000059
S315000034902C6F030003FC0320704700207047704721
S315000034A000207047704770477047704770477047F5
S315000034B0FDF7E6BA70471CB5059C0194049C009480
S315000034C0FFF7F8FF13BD00000AF014BE890001EBF8
S315000034D0401000F1844002607047890001EB401003
S315000034E000F184400068704710B5DFF87446122179
S315000034F02046FFF7F2FF0028F9D12068000C00F003
S31500003500030010BD0122DFF8B41510B5884232BFA2
S315000035100022DFF8AC15884201D2144600E00224EE
S315000035201021DFF8A005FFF7D1FFDFF838060168A4
S3150000353021F0807141EA0461016010BD70B5DFF8C9
S315000035408825DFF824461368002304EBC305CEB2B2
S315000035502D79B54203D154F83350854202D25B1C13
S31500003560052BF2D3052B0EBF032004EBC3004079D5
S31500003570116821F0407141EA0060106070BD38B5F5
S3150000358000F013F841F6713020600AF0F8FD0021D2
S3150000359005E038B500F009F841F671322260FFF710
S315000035A0CDFF0DB10020206031BDDFF8C045256894
S315000035B005B101257047C01C0F2801D200077047CE
S315000035C04FF070407047000038B50446002500F003
S315000035D059F9DFF87825DFF8FC14944208D0DFF8B3
S315000035E07025944206D0DFF86C25944204D006E09C
S315000035F0086802E0486800E0886800F00700401E9E
S3150000360003281BD8DFE800F002050C080AF0E8FDE5
S3150000361004E00AF0EBFD01E00AF0E5FD05460DE0E9
S315000036200AF0A0FDDFF83C150968090E01F001015A
S315000036300122491C02FA01F1B0FBF1F5284632BD20
S31500003640DFF82C154A68D20702D40A680242FCD178
S315000036507047000070B5020A0C4602F00F02002106
S31500003660521E092ADFF8D45614D8DFE802F00514F2
S315000036701313071619131C20DFF84854C0F3043639
S3150000368011B10846FFF7DCFF224631462846BDE861
S3150000369070401BE770BD1035F0E730350121EDE7CE
S315000036A038351021EAE740354FF48031E6E7DFF898
S315000036B0F856E3E770B5DFF8BC14DFF890240E681F
S315000036C0DFF88C14DFF89C44012510F4781075D0CF
S315000036D0B0F5003F30D0B0F5802F27D0B0F5002FE1
S315000036E06CD0B0F5202F2DD0B0F5402F5ED0B0F5C0
S315000036F0602F3FD0B0F5901F53D0B0F5A01F2AD051
S31500003700B0F5B01F39D0B0F5D01F22D0B0F5E01F0C
S3150000371031D0B0F5001F44D0B0F5281F22D0B0F547
S31500003720301F31D0B0F5381F4BD061E00AF029FDCB
S31500003730E168C1F308210AE00AF023FDA168C1F39C
S31500003740082104E00AF01DFD6169C1F30421491C4A
S3150000375024E0104627E01046FFF736FF216A01F005
S315000037600F0119E01046FFF72FFF0646206AC0F347
S315000037700110C6403DE0084615E00846FFF724FF65
S31500003780A16AC1F3011107E00846FFF71DFFA16A10
S31500003790090A01F00301091D05FA01F1B0FBF1F672
S315000037A027E0DFF8B003FFF70FFF1FE0DFF8FC05A7
S315000037B000F068F807281CD0092819D10AF0E1FCA6
S315000037C014E0DFF8EC0500F05DF804280CD00728BB
S315000037D00FD008280CD10AF0D4FC2168C1F30421CB
S315000037E0491C01FB00F604E00AF0E6FC064600E090
S315000037F00026304670BD0000030903F00F030121C7
S315000038005B1E072BDFF85C233AD8DFE803F00406DB
S315000038100A0E10142339106800E05069C0F3042022
S3150000382070471068C0F300607047D06800E0906889
S31500003830C0F308207047DFF87C35984204D0DFF8E3
S315000038407835984204D01BE0106A00F00F0013E0B0
S31500003850106A09E0DFF86435984204D0DFF8603575
S31500003860984204D00CE0906AC0F3011004E0906A1C
S31500003870000A00F00300001D01FA00F0401E704728
S3150000388000207047014601F00F010120491E07295B
S31500003890DFF8342549D8DFE801F0040F1348202E5D
S315000038A04836506A00F0070002283AD002D30428AE
S315000038B004D01CD30520704711690FE00220704721
S315000038C0516901F00701491E03292FD8DFE801F0ED
S315000038D00F020311F2E706207047916901F0070114
S315000038E0012904D00229E9D0042902D07047032017
S315000038F070470A207047116811F001010FD00129A5
S3150000390014D109207047DFF8C414096801F03001AA
S31500003910102904D0202904D0302904D0704707206C
S315000039207047042070470820704700207047000049
S315000039302DE9F843804600260324B8F1110F0F46FF
S31500003940A14612D1042F02D10AF036FC08E0052F59
S315000039500BD1DFF87C04DFF87C140068884204D3BE
S3150000396006001CBF002104F0CAFA08F00F00401E32
S315000039700728DFF854540ED8DFE800F0043D438BE7
S31500003980406F8B79022F4D4806D0032F29D0042F84
S315000039902AD0052F2DD07CE004244FF00009012207
S315000039A00121484600F0E8F8FFF7E9FD36B112219B
S315000039B0DFF8AC01FFF791FD0028F8D16C6000F04C
S315000039C07AF8FFF79FFD0AF0CDFB0446FFF78CFD62
S315000039D001462046FFF7DDFD002E5AD1BDE8F4432F
S315000039E074E04FF00109DAE70224A146FFF78AFDE9
S315000039F0D5E70124FAE705F1100404E005F11804FF
S31500003A0001E005F11404012F08D0022F09D0032F7D
S31500003A100ED0062F13D00A2F1DD03AE000202060CA
S31500003A2037E001220121002000F0A6F80220F6E787
S31500003A3001220121012000F09FF80120EFE70AF0A2
S31500003A4091FBFFF75FFD01220221DFF8F002FFF78D
S31500003A503DFD0320E3E70420E1E7072F02D0092F0D
S31500003A6002D016E0002000E00120286011E0012FBE
S31500003A7006D0042F16D0072F0DD0082F19D008E036
S31500003A800020DFF848130A6822F0300242EA0010EC
S31500003A900860BDE8F18301220121042000F06CF8E2
S31500003AA00120EEE701220121022000F065F8022044
S31500003AB0E7E70320E5E7DFF80C03FBE50148E8014B
S31500003AC00190D00300400E4004000E40012100206A
S31500003AD004F015BA80400E4070B500F03DF80122A2
S31500003AE00021022000F048F8217CDFF8F452002083
S31500003AF00229296808BF0120490840EA41002860D8
S31500003B00082122782846FFF7E1FCA088617A41EA7D
S31500003B10C020A860EE68207AFFF74DFDE28806F027
S31500003B207F6141EAC221A27A1143227A41EAC21197
S31500003B300843E860A17B607B090141EA0030E17B34
S31500003B400843217B40EA0140286170BD02001A004B
S31500003B5003001C00050020000446112092E6000028
S31500003B6004300E4000410E402C6C030040000E4015
S31500003B7040410E401CDB03202DE9F84F0428824605
S31500003B80904673D8DFE800F04E493F034400012613
S31500003B900220012700240029DFF80892904D60D00A
S31500003BA0BAF1020F02BF2868C0F3011000284FF0D7
S31500003BB0000B0CD18B4800682868C0074FF0010B3A
S31500003BC005D5286820F0300040F010002860EE632C
S31500003BD000F04EF80028FBD0B8F1000F46D0394669
S31500003BE000F047F80028FAD0BAF1020F3ED1BBF137
S31500003BF0000F3BD02868C0071BD5012220210220D8
S31500003C0000F0C0F819E00426082003270224C2E7C2
S31500003C101026202005270424BDE7402680200727FC
S31500003C200624B8E74FF480764FF40070092708247D
S31500003C30B1E70021022000F083F8022000F01CF812
S31500003C400446012200210220FFF796FF21460220AA
S31500003C5000F02CF8EE63394600F00BF80028FAD095
S31500003C6004E0E86300F004F80028FBD1BDE8F18F1A
S31500003C7021464846FFF731BC401E0328564912D854
S31500003C80DFE800F0020C06080869C0F30800704778
S31500003C90086800E0886800F07F00704752480068B6
S31500003CA0C0F30A00704700207047000070B5401E40
S31500003CB00D46032805F07F01474C484E3DD8DFE806
S31500003CC000F0022A101DC5F308051A213046FFF739
S31500003CD004FC0028F9D12069400A45EA4020206109
S31500003CE070BD0D4618213046FFF7F7FB0028F9D1C5
S31500003CF02068C00945EAC010206070BD0D46192134
S31500003D003046FFF7EAFB0028F9D1A068C00945EA6A
S31500003D10C010A06070BD23480068606920F03000C4
S31500003D2040F010006061C5F3C310FFF744FC216A40
S31500003D302E4A114029430843206270BDB0400E4010
S31500003D4027480268C2F30112002A18BF002907D0CB
S31500003D50202902D0302903D005E04FF4000103E00A
S31500003D604FF4400100E02249C26E0A408A42FBD16C
S31500003D70490204D5C06F800A00F001007047012097
S31500003D807047000010B502280AD10B0004D0194B69
S31500003D904FF480645C64196012B1BDE81040CFE74F
S31500003DA0012010BD90400E4050410E4006000C0010
S31500003DB098002E006006140060162A007017160080
S31500003DC070272C000025080070400E405C410E4014
S31500003DD0CCDB0320012D310110400E4040410E4046
S31500003DE024400E403C300E409C400E4000F8FF0F31
S31500003DF0FF33E10764400E4010B51B4B1C6890FA78
S31500003E00A0F2B2FA82F224EA000091400843186058
S31500003E1010BD164901200860704770B51448154B4F
S31500003E2001680020002203EBC20453F83250646894
S31500003E30114E366876070DD4B5F5007F18BFB5F577
S31500003E40806F05D0B5F5006F18BFB5F5803F01D17D
S31500003E5044F48074294202D0214208BF2843521CF0
S31500003E60092AE0D370BD000000500E4008500E40F5
S31500003E7004500E40546C0300E841E00F0168C90786
S31500003E8007D58168890704D48168C907FCD4012154
S31500003E904160704780B501216B48FFF7DBFB6B493A
S31500003EA00120086000200AF0D7F90123042202212C
S31500003EB005200AF013FA0120FDF73FFF00F011F884
S31500003EC0FDF75AFF6249012008700AF0FBFA012348
S31500003ED04022604960480AF0C3FA60490860C00F92
S31500003EE002BD10B5012201210420FFF745FE5C4802
S31500003EF05C4C016841F0010101600022C16841F09B
S31500003F008071C160002358495848086058480260CB
S31500003F10584A1360022323601523574C236000235D
S31500003F200364564B0B65564911604FF48071554A30
S31500003F301160016841F48071016010BD4848006855
S31500003F4000B10120C0B27047D12202704170090A47
S31500003F5081704D490A78C270501C08700420704761
S31500003F602DE9F84F80464D1DFEF7DEFC0027824600
S31500003F704FF6FF7B454C15E008EB0700594610F855
S31500003F80026C30460AF0AAFA83464F463948006862
S31500003F90C00707D536480068C00503D52068002845
S31500003FA0FCD02670FFF7CAFF40B3F8B2E9B28842E8
S31500003FB024D2FEF7B9FCA0EB0A0080B2B0F5FA7F76
S31500003FC022DCF8B210B95B260127DFE707F1010909
S31500003FD0FFB2012F08BF6E1FD7D0EDB2E81E874291
S31500003FE008BF5E46D1D0A81E874208BF4FEA1B26EF
S31500003FF0CBD0681E8742BFD15D26C6E7FFB2EDB2C1
S31500004000AF4208BF002000D00120BDE8F28F10B5F6
S315000040100C460246217800200529A4BF1046FFF76A
S315000040209FFF0421217010BD00B50C48006891B0B7
S31500004030402269460AF0FFF920B1C2B26946122051
S31500004040FDF73CFF11B000BD003508001088144292
S31500004050F7FB0320E8E40320E85F030018DB0320F6
S31500004060F0ED00E0F00004E0B00F00E055CEACC586
S31500004070000E00E0800E00E0100004E0FF030040A8
S315000040800D000100040304E0F6FB0320200000E01D
S3150000409070B51346104402E0A4192C705B1EDCB206
S315000040A04CB101F00F060909451E0A2E2846B4BF79
S315000040B030243724F0E7104470BDF0B5002341B139
S315000040C0002806D501232D21B0F1004F117018BF2D
S315000040D04042002100249F4D55F82470002601E03F
S315000040E0C01B761CB842FBD2F7B20FB90F0005D041
S315000040F0DBB206F13001D1545B1C0121641C092C92
S31500004100EADBDBB23030D054581CC0B2F0BD2DE92A
S31500004110F24F804696B013A80190154603A89B4619
S3150000412003AE002700248DF800000BE001240546AD
S315000041300198864205D300F0DCF800284FD100F044
S31500004140CEF86D1C9DF800002978301A0A000BD0B5
S31500004150252903D014B906F8011BE9E7002C14BF82
S3150000416000246D1C29780A0000F0AF80B1F1250209
S3150000417016D00B3A092A40F28980283A7DD00A3AAD
S3150000418012D0521E41D0521E5FD0083A5DD0121F87
S315000041903ED0D21E3CD0921E57D0D21E6DD0C7E75D
S315000041A0252006F8010BC3E7DBF8000002904FF06C
S315000041B0000A0BF1040000F1040BD0F80090CA4588
S315000041C0B6D2029810F80A1002223046FFF760FFB6
S315000041D006460198864205D300F08BF800287AD16E
S315000041E000F07DF8A9F1010082453CBF202006F8C9
S315000041F0010B0198864205D300F07BF800286AD1AE
S3150000420000F06DF80AF1010AD9E75BF8040BC8E77C
S315000042105BF8049B00F067F800285CD100F05FF8BB
S315000042204FF0000A01E00AF1010A5FFA8AFA19F86A
S315000042300A000028F7D19DF8580052464946C04763
S31500004240002848D15744FFB272E76C290AD16A7830
S315000042505BF8040B752A0EBF00210121642A07D1E1
S315000042606D1C05E075295BF8040B0CBF00210121CC
S315000042703246FFF722FF36185AE75BF8041B022284
S31500004280C9B23046FFF704FF064651E76A780124B3
S31500004290782A18BF582AF8D16D1C0024681E3229C6
S315000042A004D15BF8040B042281B2EAE734297FF4D7
S315000042B03DAF5BF8049B04224FEA19413046FFF7F5
S315000042C0E7FE04221FFA89F1DCE700F00CF810B9CA
S315000042D0F019C0B200E0002017B0BDE8F08FF71962
S315000042E0FFB203AE704706469DF85800F2B203A926
S315000042F040479DF80000361A9DF85800F2B203A90F
S3150000430040472DE9F047804615461E46FDF769FEF3
S31500004310010015D10027DFF840A00BA40FF22C09ED
S3150000432000E07F1CB7420BDA701E8742EA5DB4BF1D
S315000043304B4623465146404600F01EF80100F0D099
S31500004340BDE8F08702A117E0000000002000000091
S315000043500D0A0000D06C0300C86C03000CB438B51D
S31500004360044604AAFDF732FE05462046FFF7EAFF9B
S31500004370284632BC5DF80CFB0CB480B502AAFDF7EA
S3150000438025FE02BC5DF80CFB814233D21044114479
S31500004390401E491E10E011F8013900F80139121FBC
S315000043A011F8013900F8013911F8013900F801391D
S315000043B011F8013900F8013992B2042AEBDA93B206
S315000043C0002B1EBF11F8013900F80139521EF6D133
S315000043D0704711F8013B00F8013B121F11F8013B31
S315000043E000F8013B11F8013B00F8013B11F8013BD5
S315000043F000F8013B92B2042AEBDA93B2002B1EBFFF
S3150000440011F8013B00F8013B521EF6D1704710E04F
S3150000441011F8013B00F8013B121F11F8013B00F8AF
S31500004420013B11F8013B00F8013B11F8013B00F894
S31500004430013B92B2042AEBDA93B2002B1EBF11F8AD
S31500004440013B00F8013B521EF6D17047130003D022
S315000044500A4619460AF056B8704710B500E0521ED3
S3150000446093B223B100F005F8F9D0181B10BD002057
S3150000447010BD10F8013B11F8014BA3427047000034
S315000044804178007801E00178407800EB012080B2A5
S3150000449070470170090A417070470A0A027041703C
S315000044A0704710B50023040014BF1C46C3F1030473
S315000044B0E4B25B1C0A55120A042BF4DB10BD30B5BE
S315000044C00024050014BF2546C4F10505EDB2641CA1
S315000044D04A55120A42EA03621B0A062CF1DB30BD7A
S315000044E030B54A788B78CC78097818B120461D46C5
S315000044F00C4602E0154608461A4645EA002044EAFC
S31500004500022141EA004030BD00B583B020B1062249
S31500004510684600F02AF803E006226846FFF734FFF3
S315000045209DF800209DF8010040EA02219DF8020056
S3150000453002069DF8030042EA00429DF8040042EAA2
S3150000454000229DF80500104303B000BD10B50023FE
S3150000455000E05B1CDCB28C4205D210F8014B9442A1
S31500004560F7D0002010BD012010BD10B5002304E0D7
S31500004570541EE41A0C5DC4545B1C9342F8DB10BD58
S3150000458010B5002480B14FF6FF7202E0944206D0C7
S31500004590641CA4B2035D002BF8D1944204D17921A6
S315000045A00FF2F400FCF7D0F8204610BD10F8012BEE
S315000045B011F8013B0AB19A42F8D0D01A40B27047BE
S315000045C030B5994228BF1946002303E00833401C42
S315000045D0521C9BB203F10804A14203DB0478157850
S315000045E0AC42F3D08B420CDA007812785040C043CC
S315000045F08024C0B201E064085B1C8B4201DA0442ED
S31500004600F9D198B230BDF8B555052D0E02F0070761
S3150000461004460E462A46FFF7B7FE47B1FF20615D06
S31500004620725DF840014022EA000008436055F1BD82
S3150000463000210FF27802002805E000F00F03D35C9A
S315000046405918C9B20009F8D1084670476128A8BFB1
S31500004650572107DA4128A8BF372103DA3A28B4BF21
S3150000466030210021401AC0B270474108400021F0B5
S31500004670AA3120F0553008438108800021F0CC3162
S3150000468020F0333008430109000121F0F03120F019
S315000046900F30084370470000627974652D757469A0
S315000046A06C69746965732E630000000000010102E5
S315000046B001020203010202030203030410B5DFF83C
S315000046C0DC4AFDF71DFD6061FDF716FDA06160691E
S315000046D0E06118B100F007F8652803DABDE810407C
S315000046E09D21A3E010BD10B5DFF8B04AA069E169CD
S315000046F0884202D2AF2100F0F3FBA069E169401ABB
S315000047004FF6FE71084010BDDFF8901A4A699042D4
S3150000471003D3C969884200F039BD002070470028DC
S3150000472018BFFFF7F1BF0120704730B1DFF86C1AF0
S315000047304969401A4010401C80B27047010001D1FF
S3150000474000207047DFF8541A496901EB4000801ECB
S3150000475070474088C0F30C00C01C0004800C400069
S31500004760001D80B2704710B50446FFF7F2FF04EB58
S315000047704000DFF8281A4FF6FF7300E0801CCA6974
S31500004780904202D202889A42F8D010BDDFF8101A81
S3150000479008607047DFF8081A0FF284000860704757
S315000047A02DE9F843DFF8F45980462889A0B3B8F814
S315000047B00200000430D4DFF8E8490FF264012068F3
S315000047C0DFF8E09909F0D2FE20B94FF4BA714846F5
S315000047D0FBF7BAFF002701E07F1CBFB2288987429A
S315000047E004DB4FF4BB714846FBF7AEFF286A21682D
S315000047F000EBC706306808B9316003E009F0B6FE81
S315000048000028E9D1B088401CB0804046FFF7A1FFE0
S31500004810F18801EB4000F080BDE8F1830000000064
S31500004820756E636C61696D65640000000FF6843017
S31500004830FBF78ABF70B50446DFF860098078012867
S315000048401AD12088FFF77AFF04002FD002252646CA
S315000048503046FFF7A5FF708840F40040708036F8B8
S315000048601500FFF76BFF060002D070880004EFD535
S315000048706D1C042D1ADAEAE7022817D1FEF74EF866
S3150000488005462088FFF75AFF06000AD07088800484
S3150000489003D540F2392100F023FB3088C0F30E0027
S315000048A020802846BDE87040FEF775B870BD00B59B
S315000048B0ADF5806DADB04FF49662694600F073F8C1
S315000048C00DF5806D2DB000BD2DE9F84307468846ED
S315000048D0FFF73FFF45007888C0F30D00788080041D
S315000048E022D5FEF71BF804463846FFF71EFF814621
S315000048F04046FFF71AFF0646AAB239464046FFF77A
S3150000490043FD0020DFF8941806E001EB400293898E
S315000049104B4508BF9681401C0A789042F5DB20463D
S31500004920BDE8F243FEF737B8AAB239464046BDE8BD
S31500004930F843FFF729BD10B50C4601E0FFF713FF5A
S31500004940A04202D241880904F8D510BD70B5DFF83F
S315000049504C580446A878012804BF686A00281DD16F
S31500004960204609F02AFE022818DB0021204609F01D
S3150000497034FE0DE0012100F0A0FA78B93046FFF7C9
S31500004980DDFE0088000409D43146204609F054FEB5
S3150000499006463000EED16C62012070BD2046FFF75E
S315000049A049FF002070BD2DE9F74FDFF8F0470020E2
S315000049B0E080606292B0FDF7B1FF0121A1704FF077
S315000049C0000AA188ADF802100021A180E1690191D9
S315000049D0FDF7E1FF2089C200206A92B20021FFF7AD
S315000049E035FD0DF10200FFF725FFFDF797FF217852
S315000049F062785518FDF7CFFFEDB206E004EB4600EE
S31500004A000C30FFF717FF06F1010A5FFA8AF6AE428D
S31500004A10F4DB129848B1002501E080476D1C12981E
S31500004A20EDB250F825000100F7D1D4F814904FF0FC
S31500004A30000B01250DF1080A0198814502D3BBF14F
S31500004A40000F37D0BBF1000F06D0ABF101005FFAC3
S31500004A5080FB5AF82B8004E04846FFF784FEC846E0
S31500004A608146B8F8020000F44041B1F5004FE3D1A9
S31500004A7040F48040A8F80200022638F81600FFF736
S31500004A805DFE070012D0788801040FD440F4004080
S31500004A9078803846FFF784FEBBF1100FBDBF4AF899
S31500004AA02B700BF101005FFA80FB0025761C042EAB
S31500004AB0E3DBC1E7002DB8D0656A55B12888FFF75A
S31500004AC03DFE6888000447BF002060622846FFF765
S31500004AD0B1FE0020ADF800008246606A0025A0B352
S31500004AE00088002100F0E9F9ADF80000002100F08F
S31500004AF0E4F90646BDF8000000F051F905463046D7
S31500004B0000F04DF98246BDF8500050451ADB3000E2
S31500004B1018D000F044F90746304600F028F901465F
S31500004B2013983A46FFF730FC3046FFF707FE18B1F8
S31500004B304188C1F30D0141800022606A314609F0C7
S31500004B40A5FD02E00020ADF800006669B346B04658
S31500004B500BE03088000404D5D6F80E0008B103F047
S31500004B60C6FD3046FFF7FFFD06460198864223D272
S31500004B703046FFF7EEFD81463046FFF7D6FDBDF81D
S31500004B800010884206D10AEB0500C01C80104000C8
S31500004B9000F1040970880004DBD55846FFF7C5FD0F
S31500004BA0318801F40041084330801FFA89F00BEB8D
S31500004BB0400B06EB4008D4E70220A0700DF102007E
S31500004BC0FFF738FE6846FFF735FE129860B14FF0E2
S31500004BD0000902E0804709F1010912985FFA89F994
S31500004BE050F829000100F5D16769B94611E002269F
S31500004BF039F81600FFF7A2FD20B10088C0F30E00B9
S31500004C0029F81600761C042EF2DB4846FFF7ABFDAA
S31500004C108146C145EBD30BE00746FFF7A4FD4146AD
S31500004C20FFF789FE4845F7D3019881452BD13746D2
S31500004C30474549D23846FFF796FD002F0646F6D07F
S31500004C4078880004F3D500F088F8B84204D1788853
S31500004C50C0F30D007880EAE704D201463846FFF734
S31500004C6033FEE4E7019707E03046FFF77CFD414657
S31500004C70FFF761FE37460646464504D2308800F007
S31500004C806DF88642F0D337B100F067F801001CBF1B
S31500004C903846FFF719FE0198B946C3E73846FFF7CD
S31500004CA058FD06465846FFF740FD8146720092B20F
S31500004CB039465846FFF768FB002249460DF10200C7
S31500004CC009F093FC0BEB460BFDF728FE064617E0B2
S31500004CD021784018401EC0B204EB400000218789AD
S31500004CE08181380009D0FFF729FD00F037FA00224C
S31500004CF039460DF1020009F078FC6078401E6070BC
S31500004D0060780100E4D10021201D09F09FFCFFF727
S31500004D1015FD070006D1BDF80200A080C4F81CB03E
S31500004D200020A0703046FDF736FE002FB6D1BDF844
S31500004D30000078B10446FFF701FD07001CBF0AEB2F
S31500004D4005007880204600F012F813995246284450
S31500004D50FFF71AFB15B0BDE8F08F3888C0F30E00D8
S31500004D60ECE480B5FFF7EAFCBDE80240D7E410B5F5
S31500004D70040012D0FFF7F5FF18B940F2394100F0F0
S31500004D80AFF82046FFF7DAFC38B10188090402D5EE
S31500004D90D0F80A0010BD083010BD002010BD10B5B7
S31500004DA0010013D0FFF7CAFC0446FFF7B8FC18B998
S31500004DB040F2534100F094F844B12088000401D534
S31500004DC0208910BD6088C0F30C0010BD002010BD06
S31500004DD02DE9F04104460D46FFF7B0FC060040D031
S31500004DE0FFF79DFC0FF2CC5718B940F2664100F070
S31500004DF0A0F82046FFF7D3FF80463046FFF7B3FC06
S31500004E00454504462DD003DB40F26E4100F091F893
S31500004E103088000448BF358123D475803046FFF7BB
S31500004E2098FC06EB4005FDF779FDDFF87013CA69BB
S31500004E30661B944204BFCD610026FDF7ACFDB6B2F9
S31500004E40082E06DA32462846BDE8F041FF21FFF774
S31500004E50FDBA082200212846FFF7F8FAA6F1080055
S31500004E606880BDE8F081F8B507460C46FFF766FC9A
S31500004E7006463846FFF793FF051B8442ADB21BD0AA
S31500004E8003DB4FF4936100F02BF8AEB130880004D9
S31500004E9006D5D6F80A0034812844C6F80A00F1BDC2
S31500004EA03846FFF764FF22464119FFF76DFA21469F
S31500004EB03846BDE8F4408BE7F1BD38B50C46FFF740
S31500004EC03DFC05000AD0FFF72AFC18B940F2AB41B9
S31500004ED000F006F805EB4400808832BD002032BDA4
S31500004EE00FF2D040FBF730BCF8B50C461546FFF77D
S31500004EF025FC06000FF2BC4714D0FFF710FC18B9CA
S31500004F0040F2B64100F015F82846FFF717FCFFF708
S31500004F1006FC18B940F2B74100F00BF806EB440066
S31500004F208580F1BD3846BDE8F44040F2BA41FBF752
S31500004F300BBC3846FBF708BC70B504460D46002688
S31500004F4008E0FFF72CFF294686192046FFF7B5FF34
S31500004F50B6B204462000F4D1304670BD38B5C01C48
S31500004F608E4C80104500A06AADB218B140F2CF4118
S31500004F70FFF7B6FFA069E169411AC903B5EB114F06
S31500004F8005DA690049420844A062012032BD0020CA
S31500004F9032BD82490020886270472DE9F84F0446E9
S31500004FA0E01C80107D4D40000027001DAE690FF209
S31500004FB0044AB4F5005F88461FFA80F904DB40F224
S31500004FC0E6415046FBF7C0FBFDF7A8FC8346E869BF
S31500004FD0A96A09B9301A03E05FEA080202D0081A82
S31500004FE0461008E0701A4610B0B220B940F20C51D3
S31500004FF05046FBF7A9FBB6B24E4515DBEF6907EB4A
S315000050004900E861A86A28B1B8F1000F04BF00EBB7
S315000050104900A86200207C80B880F880388004F1BE
S3150000502008016889081868815846FDF7B4FC1FB95D
S3150000503001211F2002F043FB3846BDE8F24FFFF77F
S3150000504074BBF8B504460D46164600210A20FFF744
S31500005050A4FF0746FFF772FB48B10681C0F80A4075
S31500005060018841F400410180C0F80E503846F2BD77
S3150000507070B504460D4611462846FFF78EFF0646D4
S315000050803CB1300005D0FFF772FE2A462146FFF7F5
S315000050907BF9304670BDF8B504460D46164615E058
S315000050A02846FFF77CFEB7B2874288BF07462846E8
S315000050B0FFF75DFE01463A462046FFF765F90121F6
S315000050C02846FFF7FAFE3C440546F61BB0B2002818
S315000050D0E6D1F1BD2DE9F84381460E461446FDF7AB
S315000050E01DFC2E4D8046287801002BD0401E2870CE
S315000050F0C0B205EB4000A9788789F9B981813846A5
S31500005100FFF71CFB00F02AF83846FFF730FE324660
S315000051104946FFF739F93846FFF729FE22460021AE
S315000051203044FFF793F900223946281D09F05DFA4D
S315000051304046FDF730FC0120BDE8F2836878401C4C
S315000051406870E1E7A019012180B2FFF726FF07008A
S31500005150DAD14046FDF71FFC0020EDE720B141887B
S315000051604DF6FF7211404180704738B5FDF7D6FB0A
S31500005170044600210C4809F069FA05462046FDF769
S315000051800AFC284632BD05488188481E8041C00F6A
S3150000519070470249002088807047000058F30320BA
S315000051A09CDD0320B45300005CF303202DE9F0419D
S315000051B00446884617461E464046FFF7D8FDC519E1
S315000051C04046FFF7ECFDB919884203DA40F2B151C7
S315000051D0FFF786FE300013D00698010003D1324651
S315000051E02946204604E0012832462146284603D1B6
S315000051F0BDE8F041FFF7C8B8BDE8F041FFF707B9D1
S31500005200BDE8F08110B50C46FFF7B1FD00B1005DB9
S3150000521010BD38B50C461546FFF7A9FD00B105557A
S3150000522031BD38B50446FFF7BAFD05462046FFF7FF
S315000052309EFD2946BDE83840002219E770B50D46A7
S31500005240691C0446C9B2FFF7DDFF0602294620465F
S31500005250FFF7D8FF301880B270BD00B583B00223C7
S315000052608DF80420120A8DF80520012200920A46C4
S31500005270014601A8FFF79AFF07BD10B50446FFF7E0
S3150000528043FA10B1A4F108000CE010BD10B5FFF709
S3150000529055FA040004D0FFF75CFA04EB400001E085
S315000052A0002010BDBDE81040FFF73FBAF8B5044630
S315000052B00D46FFF743FA060016D07088C0F30C07B8
S315000052C02846FFF73BFA07F00101CF19FFF741FA2D
S315000052D007EB40072046FFF7D9FFA84203D040F26C
S315000052E06E61FFF7FDFD7780F1BD2DE9F0410C46BB
S315000052F0FFF724FA05002DD06888C0F30C0606F0E7
S3150000530001008019001B04F00101471AE01C20F07F
S315000053100300284400F108082846FFF700FABFB248
S3150000532008B1A64203D240F28A61FFF7D9FDB44222
S3150000533010D0092F0EDB6C80082200214046FFF7B3
S3150000534085F8A7F10800A8F802004046BDE8F0413C
S31500005350FFF7EBB90020BDE8F08170B5044682B0D6
S315000053602068FFF78AFFADF8000000B3FFF7E6F903
S3150000537005001CD000880FF23C06000404D540F25C
S31500005380A5613046FBF7E0F96846FFF753FABDF82A
S315000053900000FFF7D3F90546FFF7C1F920B940F23F
S315000053A0AB613046FBF7D0F905F10800206073BD0C
S315000053B0000000006275666665722D6D616E61673C
S315000053C0656D656E742E6300012100F01F02914029
S315000053D0DFF85C2605E0012100F01F029140DFF8AE
S315000053E05426400942F820107047012100F01F02A0
S315000053F09140DFF84426F4E710B5DFF8404630B1B7
S31500005400012807D0102802D0202803D004E000206D
S31500005410204410BD1C20FBE74FF4BD71DFF82006C9
S31500005420FBF792F9204610BD70B5012884B00446FA
S3150000543004D9B0F1100101D010393BD1012818BFB1
S31500005440202832D1FFF7D8FF0546FDF767FA064652
S31500005450A86901AB6A4602A90AF07DFC00992A896F
S31500005460286889B200F027F83046FDF794FAA86953
S315000054700AF0E7FC012818D1296828898988401A8A
S31500005480298A884211DBA86990F83110022903D1D4
S315000054900AF05FFC022804DAA86990F831000128B6
S315000054A003D1A86900210AF0A6FC200014BF102C25
S315000054B0FEF7BAFD7FBD70B500F0B5FAFDF72EFA1E
S315000054C0E188A9420CD22288521A521992FBF6F3AD
S315000054D006FB13222280A288AA18511AA180E58011
S315000054E000F012BB70B505460E46FFF785FF012D8D
S315000054F018BF202D044640D1A069016890F83200FB
S31500005500E8B90420886400F04CF9A0690068C16C11
S31500005510002E07D041F00401C1640C20FFF754FFB0
S31500005520052106E021F00401C1640C20FFF753FFBA
S315000055300021A0690068BDE870400AF008BE04209A
S31500005540486300F02EF9A0690068816B002E07D031
S3150000555041F0040181630C20FFF736FF052106E0C8
S3150000556021F0040181630C20FFF735FF0021A069BB
S315000055700068BDE870400AF0A4BE70BDF8B50446E8
S31500005580DFF8C00481421D4634D0002600F0ABF897
S315000055902DD13A893868A9B2FFF78DFF3968002006
S315000055A0C88002E0384600F026F820460AF0D1FB13
S315000055B003281CDA788AF989484339688A88002AD8
S315000055C080B2EFD00B88B7F80EC049888444614595
S315000055D0B8BF984207DB8B42E4D2FA89821891421F
S315000055E0A8BF9842DEDA012120460AF004FC761CA8
S315000055F0022ECBDBF1BD38B50446DFF84C34E0892A
S31500005600658A216802466843084400F10801A069DA
S315000056100AF0B3FCA0690AF09CFB022803DBA06930
S3150000562000210AF0E8FB608AA18A401C90FBF1F297
S3150000563001FB1200608231BDFEB50446207B68BBCB
S3150000564060680FF25D074188084400F10805A0690B
S315000056506B4601AA02A90AF09EFB60688188009A3F
S31500005660891A019A8E1A4188008888420ED260896A
S31500005670421AA0693B4629460AF0C7FC70B9606821
S3150000568061894288711A561800F10805A0693B46DF
S31500005690F2B229460AF0B9FC00B96073F7BD000002
S315000056A02DE9F04104469846002600F01CF815D175
S315000056B078688188414534BF85884546FDF72EF9CF
S315000056C079687A894988ADB2691800F057F87A681E
S315000056D0518079688A88521B00F090F8761C022E59
S315000056E0E3DBBDE8F0811C21DFF8500311FB06F176
S315000056F04718B869A042704738B50D46FFF77CFEDB
S31500005700112D044609D1A06900210AF083FB00206F
S3150000571020732046BDE832408EE7132D06D1A069DE
S3150000572001210AF077FB0120207331BD2068018832
S315000057300844057220680188228900F01EF801805D
S315000057408188491C8180A0690AF07BFB2268218937
S315000057509288891A89B220B9E2898A42A8BF0121B2
S3150000576005DA012808D1208A814205DB0021A069DB
S31500005770BDE834400AF03FBB31BD491C91FBF2F352
S3150000578002FB1311704780B5DFF8C00201690906F4
S3150000579006D50AF083FDBDE8044001460120ABE7CB
S315000057A001BD0C2021E6F8B50C461546FFF724FE90
S315000057B00646EAB2306880883189891A884201DB58
S315000057C00120F2BD00270DE0FDF7A8F831680B882F
S315000057D014F8012B19447F1C0A7231680A88338930
S315000057E000F004F8AF42EFD30020F2BD521C92FB4A
S315000057F0F3FC03FB1C220A808A88521C8A80FDF770
S31500005800CAB8F8B5012804460D4603D9103801D0A8
S3150000581010384FD1204600F07EF910B9204600F02E
S3150000582081F800F0ABF8064600F0A8F821000ED08B
S31500005830012C03D0102C0AD0202C3BD1DFF81012FB
S315000058400160DFF8101241608021018108E0DFF875
S3150000585008120160DFF804124160402101818021B5
S315000058604181200018BF102C03D1BDE8F140FEF79E
S3150000587011BB012C18BF202C52D1012C16BF202C95
S31500005880DFF8DC010020012C18BF202CB06111D1FB
S31500005890DFF8D001A98CA861DFF8CC01E861F181BD
S315000058A0EA8C32828A4207D21C21304604F0D2F9B1
S315000058B00220F2BD0120F2BDB06990F83130012B13
S315000058C00CD0338993FBF1F701FB1733002B02BF92
S315000058D092FBF1F301FB13210029E5D129460AF0D9
S315000058E058F8F0B9B069017F007E0123022208F062
S315000058F0F5FC287C012808D101212046FFF7F2FD9E
S31500005900B06900210AF077FA0AE000207082F18976
S31500005910308990FBF1F0B08200F0FAF800F0F8F868
S315000059200020F2BD58B50128044603D9103801D02D
S31500005930103812D1204600F0EEF8E8B9204600F003
S31500005940C4F800F01BF8012C18BF202C06460FD116
S31500005950B0690AF0FEF810B152BD012052BDB0691F
S3150000596090F83100012803D100212046FFF7BAFD47
S315000059701C21304604F06EF9002052BD20463BE55E
S31500005980F8B5064601280F46344603D9103801D02B
S3150000599010380BD13046FFF72FFD05463046FFF78E
S315000059A043FD2868808818B92620F2BD0120F2BD83
S315000059B0FCF7B4FF0646286841880844007A387028
S315000059C0286841882A89FFF7D8FE41808188491EC8
S315000059D0012C18BF202C81801FD1A86990F83100B6
S315000059E0012803D119E02846FFF705FEA8690AF049
S315000059F0B0F9022811DA2A68E889698A5388128878
S31500005A00414389B240188342B8BF914205DB9A42AE
S31500005A10E9D28342A8BF9142E5DA3046FCF7BBFFE4
S31500005A200020F2BD012804460D46164670470000C8
S31500005A3000E100E080E100E080E200E0E0E3032036
S31500005A405C5D0300097000F07D5500000000014018
S31500005A50D0E2032058E3032000E2032048E20320BB
S31500005A6018E403200CDA03208CDA032038B5054647
S31500005A70012D04D9B5F1100101D0103923D1FFF75A
S31500005A80BBFC0446280018BF102D03D1606880882F
S31500005A900028FBD1012D18BF202D12D16068808807
S31500005AA00028FBD1A0690AF072F90028F6D1A06996
S31500005AB00AF026F98006F1D5A0690AF021F98004DA
S31500005AC0ECD5002032BD012032BD70B50546FFF78A
S31500005AD093FC0646012D346818BF202D0DD1B06900
S31500005AE090F83110012908D002210AF077F8002039
S31500005AF0708200F00DF800F00BF8FCF70FFF0021A4
S31500005B00A18021806180E180BDE87040FCF743BF41
S31500005B103046FFF770BD80B5012804D9B0F11001F9
S31500005B2001D0103906D1FFF767FC00281CBF0068BA
S31500005B30002801D1012002BD002002BD0D480168E8
S31500005B4021F480310160016F4908490001677047FF
S31500005B5010B5FCF7E3FE0446FFF7F0FF064800F039
S31500005B600DF8044805210167016841F480310160A0
S31500005B70204624E024ED00E05CDB032038B5044633
S31500005B80052520460AF0DEFB10346D1EF9D1BDE86E
S31500005B9031400AF0FFBB80B5FFF7D0FFBDE80140FA
S31500005BA00AF0F8BB10B50446FCF7B8FE004901E060
S31500005BB05CDB0320620952014A6000220A70BDE8DC
S31500005BC01040FCF7E8BE0000DFF8901904220968CF
S31500005BD0C00002FA00F0084018BF0120C0B27047AA
S31500005BE00422C900002814BFDFF85409DFF8700941
S31500005BF002FA01F10160704701207047704748B111
S31500005C00DFF864296FF0FF011160000ADFF85C1904
S31500005C100002086070472DE9F0430D4604469046A1
S31500005C200421DFF84C09DFF84C79D0F80090DFF852
S31500005C30480904EA000205EA0103002000218B421C
S31500005C4008BF824283B009F10C0647D0DFF82C0961
S31500005C500068220348BFC7E90201E20248BFC7E95C
S31500005C600401E0000BD5DFF81819086800F07F4042
S31500005C70B0F1007F03D1DFF80C1902200860E007BD
S31500005C801FD500F06CF9002200F051F801200AF04F
S31500005C903DFDF08000210120FCF755FC79780029B4
S31500005CA014BFDFF8E418DFF8581A4FF40010086044
S31500005CB0786AFFF7A4FF00207862307840F0080089
S31500005CC0307005F0040300218B4207D001213046D5
S31500005CD0FCF7B4FA25F0040504430D43D6E9120196
S31500005CE004400D400020854208BF84420ED0B969A9
S31500005CF022462B46484688474FF0FF30C7E9020048
S31500005D00C7E90400200744BF0020B8625FEAC870F4
S31500005D100BD5F9690020F86101203870080004D01D
S31500005D20386A03B0BDE8F0430847BDE8F7830023AF
S31500005D30012000210AF0F1BE70B508B9012070BD3E
S31500005D40DFF84828DFF8484851681268402303FA0C
S31500005D5002F22368DFF8504A2468C4F38114521E05
S31500005D60032C01F1005192B29BB20BD10025EE1823
S31500005D70083E16408E5D46556D1C082DF7DB0472F5
S31500005D80002070BD022C0AD19D1E15405B1E4D5D84
S31500005D9005801A40895C45EA01210180EFE702206F
S31500005DA070BD10B582B009B9012016BD0B7BDFF8B6
S31500005DB0C427002B14BFD2E90423D2E902234FF0F3
S31500005DC0FF34A34208BFA24201D1022016BD0091B2
S31500005DD028300BF089FD002016BD10B504461120B1
S31500005DE0FDF750FD042802BFDFF85009006810F4E3
S31500005DF0403F01D0022010BD20460AF036FF204663
S31500005E0000F0CBFFDFF8E41960200860002010BD29
S31500005E102DE9F04104460FF27C0084B004F10C0831
S31500005E200068029008F108070026BE67C7E91066F9
S31500005E30BE85FE85642038867886B886F8863887DB
S31500005E4078870D464FF6FF7038804046FFF7D4FE40
S31500005E50C0B14046FFF7C1FF060013D102A9404674
S31500005E6000F02CFD0646BA6F4FF0FF31404600F0B9
S31500005E7088FA00F074F84FF080520423104604218B
S31500005E800AF04BFE28001CBF2046A847304604B047
S31500005E90BDE8F0810000000098B50446207881072F
S31500005EA02ED5616A61B300F0FD012170606A406918
S31500005EB0006810F1010F03D0BDE892400BF07DBEE3
S31500005EC0D4E9122303F004030027BB4203D141F0B7
S31500005ED00200207091BD4FF480312046FCF7AEF9E8
S31500005EE0D4E9122302400B4008BFBA4208D0A4F1FD
S31500005EF00C0001B0DFF87C168969BDE890400847C0
S31500005F0091BD2DE9DC430446DDE90867D4E91201B9
S31500005F109043994306EA020807EA030940EA0800A3
S31500005F2041EA0901C4E9120122F0010823F000093F
S31500005F3000F092FD80B100F012F807EA090106EAC6
S31500005F40080040F0805241F00403404649460AF0FA
S31500005F50E4FD2046FFF7A0FF0020BDE8D683002021
S31500005F6001900090704700680100DFF8081608BF2E
S31500005F70DFF84409886170472DE9F0415FEA0108BE
S31500005F8086B0044615461E461AD0280018BF002CB7
S31500005F9016D000F099FFDFF8DC75B96A8C4206D19D
S31500005FA07988BF88ADF8001000F08BFF1DE000F087
S31500005FB088FF6A4601A920460CF00DFB040001D1BA
S31500005FC000201FE09DF80400002818BF08280AD00A
S31500005FD000F07AFFBC62BDF800107980BDF80610AB
S31500005FE0B98000F06EFFBDF80670A8198742BDF8AB
S31500005FF00000B8BFBD1B83199BB2AAB2414601205F
S315000060000CF08BF906B0BDE8F08110B500F042FE49
S3150000601070B1F020044201D0012010BDDFF8140950
S315000060200168090904F00F0242EA0111016000202B
S3150000603010BD0000002300210022032807D8DFE856
S3150000604000F00302070A012318460AF095BE7047BE
S3150000605001230121F8E7012301210122F4E7DFF8FA
S315000060600405006800F07060B0F1807F18BFB0F1E1
S31500006070007F19D0B0F1407F18D0B0F1806F1CBFFF
S31500006080B0F1A06FB0F1E06F0ED0B0F1006F17D095
S31500006090B0F1106F0CD0B0F1206F1CBFB0F1306FB3
S315000060A0B0F1406F0CD005E0022070470320704726
S315000060B005207047DFF8B808006810F0060F01D019
S315000060C00420704701207047DFF87C09006800F063
S315000060D0A000401E8041C00F704710B5044600F076
S315000060E0C3FB204602F058FC78B1204600F013FBB3
S315000060F058B1032100200CF055F910F1010F01D120
S31500006100032010BDDFF844190860002010BD10B54B
S31500006110FFF7E3FF040008BF0AF0F7FD204610BDB5
S3150000612070B584B0BAB31378002B04BF5378002B34
S3150000613031D070CA6B4670C312F80C3D1C000FD0EC
S315000061409588BDF806406B431B19ADF806301478E8
S315000061509DF801301B1B8DF8013000238DF80030AF
S3150000616001239DF8014000E05B1C01259D40A542EE
S31500006170FAD392888DF800306E0804FB0262B2FBF7
S31500006180F5F2ADF804209DF800208DF801206A464E
S3150000619000F005F801E000F002F804B070BD2DE94A
S315000061A0FE4F83461446FFF798FF5FEA000940F06A
S315000061B08580002CDFF8986855D094F90310E088A4
S315000061C00AF0C5FAA178481E8DF808000127227842
S315000061D06078924619B900278DF80810BA468046AD
S315000061E0D04538BFD0461AB9451EAD41ED0F00E087
S315000061F00025A0880CF003FD80B2DFF858184FF692
S3150000620004026DB1CB6A9BB2934208BF5B1C33801C
S315000062100122CA624FF0080A8022CA64D04604E00E
S31500006220338893421CBFCB62328038B1421E4FF690
S31500006230FF739A4288BF1A460A6000E00860002091
S3150000624001903B469DF808000090424651460BF1EE
S3150000625028000CF078FC25B1DFF8C8184FF4801040
S315000062600860A06870602020DFF8C418086001206C
S315000062700CF0D6FC00F028FE04460CF08EFC766886
S31500006280AEB104200CF02EFC10B104200CF0FAFA8A
S3150000629030460CF0B4FC012200920B460246042064
S315000062A00CF000FB00F0010090F0010903D10CF0A6
S315000062B080FC0AF00FFD00F003F84846BDE8FE8FAB
S315000062C0204600F0FEBD38B500F0E4FC002518B10C
S315000062D060B20AF062FA0546284632BD80B5002053
S315000062E00AF034FD002002BD012809D00BD3032893
S315000062F003D008D24FF0C05006E04FF0005003E044
S315000063004FF0605000E00020DFF860180A6822F0C5
S315000063106052104308604FF400109B49DFF8502884
S315000063200860DFF85008016821F0060141F0040119
S3150000633001604FF0805111600421416100207047D7
S31500006340DFF83418062008600020DFF830180860EF
S315000063504FF08050DFF8281808604FF40011DFF87E
S31500006360A00301604FF060510160002070470028D3
S3150000637019BF0220DFF80C180220DFF80C1808609D
S31500006380704738B500F012FA00284ED02207DFF821
S31500006390F807DFF8F01705D52A0747BF08220A6075
S315000063A008220260E20705D5EA0747BF0120086018
S315000063B001210160600708D569074CBFDFF8CC17DB
S315000063C0DFF8CC174FF400700860A00704D5680802
S315000063D000F00100FFF7CBFFE00606D5DFF8B407B3
S315000063E0E9064CBF00211B21016014F0600F1CD090
S315000063F004EA0502002102F06002202ADFF898076D
S3150000640011D0402A0CD0602A0ED1DFF884281368F8
S3150000641053B11C68022C07D35A6942F0010103E00C
S3150000642040F2011100E001210160002032BD2DE99A
S31500006430FC4700260D0018BF012502298046144698
S31500006440994603D100F032F8002027E000F03CFD29
S31500006450484F8246F869010018BFA04215D10120B5
S31500006460FC6101900090C7F82090002200230020D4
S31500006470FFF75FFC3E7040460CF0C1FB02460B4640
S31500006480009502200CF00EFA0646504600F019FD63
S31500006490002E03BF0020F86101200020BDE8F6872A
S315000064A0DFF89408D0E900010CF095BB00B583B085
S315000064B00020019000220120009000230020FFF719
S315000064C038FC02200CF0DEF92A490020C86107BD1D
S315000064D0DFF84008274900680978800A00F00100C3
S315000064E00843704702200CF0FDBA70B5406A0025DB
S315000064F0002816461EBF4069002805460C46F007D0
S3150000650048BF0CF011FCF00317D5266816F1010FF1
S315000065100ED1DFF87C07016800291FBF0A68002A30
S31500006520C8680BF071FA0BF0E6FA0646266002E040
S3150000653030460BF042FB05B12E6070BD0000000036
S31500006540EC10084638B5DFF86C480B7822684978B5
S31500006550C2EA034242EA016527E00000EC10084067
S31500006560EC100844044008401870084418700846A7
S3150000657060DE0320E0D90320010018101C510840FA
S31500006580081F0021004008461860084630100840E1
S31500006590FC1E002138B5DFF81C4822680B784978C4
S315000065A0120C43EA024242EA0125FFF725FB00B13D
S315000065B02560002032BD70B500F0B8F9002628B17C
S315000065C004F1280128460CF0BFFB0646304670BD94
S315000065D070B504460D4694F86000032801D10220E8
S315000065E070BD261D316A357081B12046FBF7B5FFB7
S315000065F040B930622046FCF7A2F801462046FBF778
S31500006600C8FF03E0E9B2204600F002F8002070BDA2
S3150000661010B50C4690F86010032901D1022010BD78
S31500006620FFF7EAFA10B1E0B20CF036FC002010BD1C
S3150000663080B508460CF0DBFB002002BD0CF0DFBB8A
S3150000664080B50CF021FFBDE801400CF0B3BE80B56B
S315000066500CF090FEBDE801400CF0D5BE80B50CF004
S3150000666089FEBDE801400CF0F0BE2DE9F04104467C
S315000066700F466069012815461E463DD000F0ECF92C
S31500006680002839D0FFF7EBFC012803D001210120B7
S31500006690FBF759FFA889D5F804803F1ABFB2402FEF
S315000066A006D3A968B809484308EB801807F03F07E6
S315000066B00CF02CFF404507D10CF02BFFA96888424F
S315000066C004BFF6B2002E10D0A96840460CF053FF66
S315000066D008B1022011E00CF033FF002814BFDFF8E8
S315000066E07807DFF87C070DF038F82046FFF7D4FB73
S315000066F00121F8B20CF0AAFF0020BDE8F0810000ED
S3150000670018600844C9B280B5002914BF20220022AF
S31500006710202100F03CBB20210AF0A9BE58B5064650
S3150000672088B20CF06CFA04463046FFF765FA18B1E9
S31500006730DFF8300761420160002052BD04300E4090
S31500006740F8B5074600F032F8032618B300F0BCFB94
S315000067500746DFF8DC130220086073480068000E65
S3150000676000F00F00082818BF072803D0092818BF13
S315000067700C2804D1DFF8D0020068800304D4E9B203
S3150000678020460BF02FFE064600F029F8384600F0AA
S3150000679098FB06E0EAB2214607F19000FBF740FEBF
S315000067A000263046F2BD00008C4008400C461546D7
S315000067B0FFF722BAC9B2002914BF08220022082115
S315000067C00AF03ABEC9B2002914BF4FF48072002203
S315000067D04FF480710AF030BE08210AF048BEDFF897
S315000067E09016022008607047000000004400084030
S315000067F000280CBFDFF83803DFF874064FF4807109
S315000068000160704770B5DFF86046DFF860162578DE
S31500006810DFF86026ED074FF4806303D505000CBF53
S3150000682013600B602678B6074FF4006503D50600A3
S315000068300CBF15600D602678760703D506000CBFE1
S3150000684053604B6023781B0703D508B9556070BDAC
S315000068504D6070BD002814BFDFF83003DFF8300349
S315000068604FF480610160704738B504460D466808EC
S3150000687000F00100FFF7C6FF05F00400FFF7EAFF8E
S31500006880002005F01802182ADFF8EC1507D02A07B1
S3150000689048BF012003D4EA0648BF40F20110086051
S315000068A02046FFF738FF20B105F00100BDE8324071
S315000068B09EE731BD00000000FD5B0000F8B500F06A
S315000068C035F870B3A878E978884201D00120F2BD86
S315000068D06878010002D1FFF733FD01E0FFF704FD00
S315000068E0A878DFF8986540F6FF7700280EBF376076
S315000068F0204600F0E2F8E87840B9DFF888123763FE
S31500006900602008604020DFF8681509E0DFF878129B
S3150000691060200860204600F0E6F84020DFF83C15CD
S3150000692008600020F2BD00000440084004460D4601
S31500006930FFF762B95C1F002138B50C466A460BF0BA
S315000069404AFE050018BF002C10D02078010018BFA1
S3150000695008280BD000F0B8FADFF824158D62BDF8D0
S3150000696000204A8062888A8000F0ABFA284632BD51
S315000069700C50084010B50C46002818BF002C84B0F7
S3150000698006D0032806D2002200210BF024FE08B907
S31500006990012056E000680090BDF800209DF8021026
S315000069A0120401F0070002D4821F022A01D302203A
S315000069B047E007280CBF012000202073080900F0DB
S315000069C001006073C1F380102074C1F3C0006074CD
S315000069D0C1F34010A07409F006FE0246C0B240B3EF
S315000069E0207A00B90222BDF80000831F9BB2D2B202
S315000069F001A901200BF091FC01A841784900E1733F
S31500006A009DF90410A173217AD1B18178C2780079F9
S31500006A10009441EA022141EA00409DF8091040EA4B
S31500006A200162DFF860040068002334300AF01EFFBC
S31500006A3006E0E0736FF07F00A073002020602072F4
S31500006A40002004B010BD000088400840001F00214F
S31500006A5094DF03202C5008402046FFF7CDB8F8B548
S31500006A600C469BB200F023F806DAB3FA83F1D1F1B3
S31500006A70190148BF002507D400F019F8BABFB3FAC8
S31500006A8083F1C1F1190506250121AB1D01FA03F6B3
S31500006A90B7B291B28F4288BF0F46FFF7ADF820B16B
S31500006AA0EAB2394620460BF0C6FBB0B2F2BDB3FAE5
S31500006AB083F1C1F119010629704780B5FFF79CF8EB
S31500006AC080B10020FFF780F8DFF8BC2301211160B8
S31500006AD04FF40051DFF8B423116018B1BDE804404B
S31500006AE0002121E001BD10B5FFF786F8B8B10120FD
S31500006AF0FFF76AF8044601210020FFF771F8DFF876
S31500006B008013002088620AF031FCDFF884134FF40A
S31500006B10005008601CB1BDE81040012104E010BD22
S31500006B20000000004C5008460120FFF759B800004D
S31500006B308840084610B50CB214F1010F01D10120AE
S31500006B4010BDFFF759F870B143F6FF70844206DABC
S31500006B5014F5804FB4BF4FF48040C4F30E00DFF845
S31500006B603C130860002010BD0000000018600840BB
S31500006B7094400846700008407000084484000840AD
S31500006B809440084444000846440008441C600846F3
S31500006B901C6008444C0008406C1F00212DE9F84F8A
S31500006BA0054600F077F8002600286FD0DFF8E0B041
S31500006BB0DFF8EC72DBF80080D7F80090D7F804A075
S31500006BC0214605F1280009F0A3FCDBF800403868EF
S31500006BD07968DFF8942248450ED01378870A03F0C7
S31500006BE0FE0307F001073B43C00A03F0FD0300F074
S31500006BF0010043EA4000107051450FD010788B0A0F
S31500006C0000F0FB0003F0010340EA8300C90A00F02C
S31500006C10F70001F0010140EAC10010704FF6FF7164
S31500006C202889884205D05268100002D02989284652
S31500006C309047444525D00021002C1EBF206800281F
S31500006C40A168284600F029F8002C1CBF20680028FF
S31500006C5001D0206918B900220021002402E08268D0
S31500006C600168C48905F128000AF0D6FD06000DD199
S31500006C70214605F128000AF039FD05F128000AF041
S31500006C80C7FD287840F0020028703046BDE8F28F34
S31500006C90F81F00210C46FEF7AFBF70B50E0082B09C
S31500006CA00546DFF800420AD1002207210AF0C4FB9C
S31500006CB000F032F858B30020C4E9000073BDFEF7B7
S31500006CC09BFFF8B1DFF8CC1107200860012130796D
S31500006CD020707079009068460CF0AAFD0099C140BA
S31500006CE000F00F0040EA01106070B079A070F079F2
S31500006CF0E0703168DFF8B00101603079DFF8981193
S31500006D00401C08600722072128460AF095FB73BD40
S31500006D10000000005C5008402846FEF76DBF10B525
S31500006D20FFF7B8FF20B1E0B2BDE8104009F0EEBCB5
S31500006D30DFF8780110BD0000E8E1032080B50BF014
S31500006D40E3FEBDE804400BF046BF70B505460C46B1
S31500006D5000F023F8CCB1A078092801D3012070BD3A
S31500006D60E1780929FAD200F00F0040EA0116FFF790
S31500006D70D3FF50B1DFF8380161680160DFF83401F4
S31500006D802178017061784170C670002070BD0AF0EC
S31500006D9053FB00B10120C0B202BD80B5FEF72CFF47
S31500006DA030B1BDE804404821DFF8040102F052BFCB
S31500006DB001BD0000081F0021F8B5D2B2022A3CBF6F
S31500006DC0DBB2042B01D30120F2BD54083A4D012752
S31500006DD02E5D03EB8202C9B207FA02F2002914BF44
S31500006DE016439643FEF708FF00B12E550020F2BD6C
S31500006DF00CF032BD38B50D460446298804F138003A
S31500006E000AF05EFC288004F1400069880AF058FC0C
S31500006E10688004F13E00A9880AF052FCA88004F1BB
S31500006E203C00E9880AF04CFCE88004F12800298936
S31500006E300AF054FC288104F1280069890AF056FCFE
S31500006E406881FFF709FE18B104F128000AF0E0FC9A
S31500006E50002032BD0CF0DBBDC0CF6A00884008467A
S31500006E60E0673500041F002140F80320A000084415
S31500006E7088400844A0000846701F002124100840DE
S31500006E80E0D9032060DE03202810084024100844BF
S31500006E9054100844040008441800084040300840D4
S31500006EA0A0000840541F0021581F002100FEFFFFCC
S31500006EB00C1F0021501F0021521F0021C9B2FFF7ED
S31500006EC02EBF00B962B67047EFF3108072B67047F6
S31500006ED0F8B50F46144647F6FF718C4201D1FF20E4
S31500006EE0F2BD2D4E716800291CBFB168002901D082
S31500006EF0F16811B92A21FAF715FD38460CF0CCFDD8
S31500006F00012F01460BD10622F16831F912108C428D
S31500006F1003DA521E12B2002AF6D1501C39E0B1F93A
S31500006F200000A042B8BF044603DB1C488442B8BF39
S31500006F300446A4F1C800282290FBF2F042423078C1
S31500006F40034612B25D1E9542BCBF421E12B24D6888
S31500006F5005EBC2004668B0F9020010FB0460002889
S31500006F604FBF002000F5FA704FF47A76B0FBF6F0CA
S31500006F70521C12B29A4203DA35F832608642E6D2E1
S31500006F8005EBC20131F8081C814238BF084600B93A
S31500006F900120C0B2F2BD00BF38F10320C880FFFF58
S31500006FA0D0B5274E0F46716800291CBFB16800296D
S31500006FB0144601D0F16811B92A21FAF7B3FC012F62
S31500006FC00BD1082CA8BF072401DA200000D0641ECC
S31500006FD0F068E4B230F91400D0BD200001D11948A0
S31500006FE0D0BD38460CF058FD022C416802DAB0F9E3
S31500006FF00200D0BD002F0CBFFC22F822944202DB17
S31500007000B0F90000D0BD3078401EC0B2002200E0CA
S31500007010521C824201EBC20302DA1E89A642F7D253
S315000070204FF47A715A68B3F9020011FB04F1891A18
S3150000703000EBD07201EB620191FBF0F000B2D0BD23
S3150000704038F103200CFEFFFF28B90348016003480E
S315000070500068FAF767BC70479CDF032060DE0320F8
S31500007060012100F01F029140514A400942F82010C8
S31500007070704730B54F48504D0FC887B003AC84E811
S315000070800F0068460021002200230EC002208DF862
S315000070900600012149484A4CFCF7DCFA4FF6FF701E
S315000070A0E0616A46002120460CF062FD00208DF862
S315000070B00E0003A920460CF00FFD4248FCF7FAFA31
S315000070C09DF80E1001228A40491C8DF80E10B0FB67
S315000070D0F2F0C9B20B29286002D23B498842E8D2B5
S315000070E03A48FCF7E7FA3A492A68B1FBF0F339481F
S315000070F00021E3FB0201384A00230CF06FFD3749FB
S315000071000860002036490870A06920F01000A061D0
S315000071100B20FFF7A5FF33494FF40060086007B066
S31500007120002030BD38B500F01BF804460D4605E0DA
S315000071304FF6E85000F02AF800F00CF800218D42D6
S315000071404FF6E950F4D88442F2D2A0B200F01EF80D
S31500007150002032BD24484FF0FF3124184D417047BE
S3150000716015491C4A09680023E0FB0123104619460D
S31500007170194A00230CF032BD1C480168C90604D523
S31500007180102181600120164908707047010081B006
S315000071900BD017490A6892B20B68ADF80030BDF8FB
S315000071A000309B1A9BB28342F6D301B070470000B1
S315000071B080E200E014780300F8EF032000020400E8
S315000071C0008001404041050081841E0050000200FD
S315000071D000B0710B20A1070040420F00FCEF032016
S315000071E008FC032000E100E01802FFFF0C800140CC
S315000071F02480014010B5324C0120207082B000205E
S3150000720006F00AFF38B1002006F006FF18B100208C
S315000072102070492016BD02237F220021684600F017
S3150000722012F8BDF80000B0F57F7F0AD0012006F005
S31500007230F3FE002006F0F0FE18B1002020704A2070
S3150000724016BD002016BD10B5FF2907DC1C4C24789E
S3150000725044B1BDE81040C9B206F092BBBDE810408B
S31500007260FBF754BE10BD2DE9F0410446FF2C0D4638
S315000072701646984615DC12480078C0B1124F387889
S3150000728020B14FF4CE710F48F9F75EFA012038703D
S3150000729043462A463146E0B206F0E0FC002038704C
S315000072A005E042463146BDE8F041FBF751BEBDE878
S315000072B0F08103490978002918BF06F0D0BD704750
S315000072C005FC0320F077030006FC0320012100F0F3
S315000072D01F029140DFF84023400942F82010704712
S315000072E070B50546FBF71AFB002600242821DFF8B7
S315000072F02C2301FB06F313449B7F13B1761C042E4B
S31500007300F7DB042E08BFDFF8184308D02DB1714310
S31500007310114401238B772E6001E0DFF80843FBF769
S315000073203AFB204670BD10B50446042C00D373E02A
S31500007330FBF7F4FA2822DFF8E41262431144002234
S315000073400A778A776BE010B5DFF8DC02017809B1BD
S31500007350002010BD01210170DFF8D002DFF8D04215
S31500007360FCF778F90321DFF8CC02FCF7E1FA0320F9
S3150000737020710121DFF8C002FCF76CF920460CF001
S31500007380BCFCDFF8B812DFF8B84201200CF09EFC16
S31500007390E069C00AC002E06140F2FF70A06100200F
S315000073A020601E20FFF792FFDFF898124FF0804012
S315000073B00860A021E06940F00100E061DFF85C02AE
S315000073C002F048FCDFF8801200200870DFF87C121B
S315000073D00870DFF87C120860DFF878120860DFF8C2
S315000073E07812086010BD10B50446042C00D313E0D3
S315000073F0FBF794FA00F009F822B9FBF7CCFADFF8AC
S31500007400640210BD00220A7709E02822DFF80C1278
S31500007410624311448A7F7047DFF8440210BDFBF7D0
S31500007420BAFA002010BD70B58A4E0023346884482D
S31500007430026830688442F9D1981844EB030170BDA4
S3150000744030B54FF4FA5200F004F8C00B40EA414060
S3150000745030BDA2FB004502FB015514F5804045F105
S31500007460000170472DE9F047FBF758FA744D824644
S31500007470E869296900EA010626F00500A861700797
S315000074801ED5714FDFF8C481DFF8DC91012038701A
S315000074902C6800F022F8201A00F026F800F078F8A0
S315000074A0204600F085F82C68E86C98F8001029B1A1
S315000074B0D9F80010401A611A8842EAD300203870C1
S315000074C0F00705D50120A86162480168491C0160E2
S315000074D05046BDE8F047FBF75EBAE86920F00400C5
S315000074E0E861D9F8000070472DE9F043002604460C
S315000074F000252821494871434718387F7D770028A1
S3150000750041D0D7E900018D4207D828BF844204D272
S31500007510001BA941C7E9000135E0F87F08B93877B3
S315000075202DE0D7E90001D7E90223201AD7E902891D
S3150000753065EB01010CF052FBB8EB020069EB0301AD
S31500007540C7E90001386939690128786909DB081833
S31500007550F428786113D3D7E90001401C61F1FF31AB
S3150000756008E0401AF428786109D3D7E90001401EE3
S3150000757061F10001C7E900017869F4387861B869FA
S3150000758008B101207877761C042EB2DBBDE8F083C3
S3150000759010B500242821214861434218507F18B1B4
S315000075A0116A926920469047641C042CF2DB10BDD8
S315000075B0F0B54FF0FF3213460021184C28254D43F5
S315000075C06619367F46B12544D5E900679F4203D840
S315000075D02EBF964232463B46491C0429EEDB00216B
S315000075E04FF0FF34A34208BFA24212D08B426FF085
S315000075F0640401D8A24200D322461B49174B0860F7
S3150000760004211960101858630121586840F00400DD
S3150000761058600E480170F0BD80E200E0A8E003204B
S31500007620011000F0041000F0FBFB03200025080009
S31500007630ACDB03200500200080091200B8DB032024
S315000076400820044000E100E0F9FB0320FAFB0320D8
S3150000765060EC032064EC032068EC03202020044047
S31500007660021000F0031000F05CEC032080B53249F4
S31500007670C86020B10120087000F008F801E0087029
S3150000768008710020BDE802400DF01EB810B52A4C66
S31500007690207838B102F0B5F9E168201DBDE8104048
S315000076A00DF00EBB10BD10B504460FF2940100207C
S315000076B0FCF762FE2046BDE810400DF0E5BB2F2822
S315000076C00ADA1E4A32F81030C918B1F5803F28BFD1
S315000076D04FF6FF7122F81010704710B504462F2C94
S315000076E004DBF5210FF26400F9F72EF8134830F8A1
S315000076F0140010BD2F2803DA104A002122F81010BA
S31500007700704738B50146FF290C4C09D1002534F8DD
S315000077101510E8B20CF0E8FE6D1C2F2DF7DB31BD1D
S3150000772034F81110BDE834400CF0DEBE5E220021B4
S315000077300248FCF78BBE0000C0F40320D0F40320FF
S3150000774049434D502052583A200000006E63702D78
S315000077506576656E74732E630000000010B5DFF861
S31500007760804304F10800FDF765F804F10A00FDF70F
S3150000777061F804F10C00FDF75DF8BDE81040DFF894
S315000077806403FDF757B810B5DFF85423DFF8583314
S3150000779014781B78234306D1DFF850331B780C2B63
S315000077A003D0022906D0002010BD012908BF02F12E
S315000077B00C0301D002F10A0301460022184606F026
S315000077C014FF0DF01DFC012010BDDFF814034179F4
S315000077D019B9012141710DF013BC7047DFF8080398
S315000077E0007800B1704710B50DF0C6FDDFF8F04225
S315000077F0208128B9002104F10A0006F027FF208124
S31500007800208928B9002104F10C0006F01FFF208111
S315000078102089002804BF207800280ED1607902282C
S3150000782003D00DF0E0FF208138B9607928B10EF061
S3150000783080F9208108B10020607110BDA8488079C8
S31500007840704780B5A0F10B01102901D3002002BDBD
S31500007850A3498871042000F02AF8012002BD000027
S315000078609F480178491E00220329027000D97047FB
S3150000787080B5DFE801F002060A0EBDE801400EF011
S3150000788045BABDE801400EF093BABDE8014001F0EB
S3150000789004BF8079F9F735F920B1F4210FF2682099
S315000078A0F8F752FFBDE801400DF0AABB01BD38B59F
S315000078B004460DF035FE8A4D687940B100206871A6
S315000078C001F01EFD032804BF40200CF0E7FE2878D7
S315000078D008B1002032BD86480078052808BF0DF0A3
S315000078E030FC2C7000F007F818B1FFF7B9FF012043
S315000078F032BD022032BD38B5FBF710F80446784D8C
S3150000790005F10A0006F054FEA0B105F10C0006F0E0
S315000079104FFE78B176486979007808430AD10DF0B0
S315000079207BFC38B973480EF01FFC00F0010080F0B4
S31500007930010500E000252046FBF72DF8284632BD5C
S3150000794010B56B49664C002008702081207060815C
S31500007950A081FDF71EFC0EF091FD60700EF08EFD0D
S31500007960A07064480EF0F4FC63480EF0F1FC4FF48E
S31500007970A05162480DF0A4F900206071BDE81040E6
S315000079800DF051BC2DE9F04104465D48544E057892
S31500007990308928B940F28F110FF26C10F8F7D4FE37
S315000079A0281FDFF85081524F0ED0801E012814D8B0
S315000079B005203870214628460EF05DFB08B900F018
S315000079C018F8002030810BE0312C05D038780228D9
S315000079D003D1200001D10120F070347100F009F8C4
S315000079E0042D04D07079012804BF02207071BDE80F
S315000079F0F08103203870002140460EF059BC38B59E
S31500007A00374D297904460DF010FD28B9297920460D
S31500007A10BDE8344005F04FBB31BD2DE9F8430446BF
S31500007A20FDF7A5F9471D05212046FDF707FC05468C
S31500007A3038460EF035FD05F44C483E5C280701D566
S31500007A40042E4AD12F4806704FF4406005424FF687
S31500007A50FF7906D0F81CFCF713FD484508BF48F02F
S31500007A60400805F44060B0F5006F06D1781DFCF7BC
S31500007A7007FD484508BF48F01008012E4CF6500097
S31500007A8015D0022E16D0032E0ED0042E08D0062EA8
S31500007A9021D0072E08D0082E15D07C2E0ED01CE043
S31500007AA020460DF025FCC0B90020BDE8F283B8F5EC
S31500007AB0484FF9D0B8F54C4F0FD1F5E7B8F54C4F14
S31500007AC0F2D08045F8E74CF64040804505D107489E
S31500007AD000780728F0E78045E6D00120E5E70000BA
S31500007AE038FB032078F7032056E1032044DE032009
S31500007AF01DFC0320E8DE032048DE0320A0F7032058
S31500007B00F5DF03201CFC03206D61632D6172626941
S31500007B107465722E6300000010B53F4A014652F8A4
S31500007B2021301C0005D0002442F82140BDE8104059
S31500007B30184710BD0020EFE72DE9F84304460E462E
S31500007B403000154603D10EF0CFFC281831E0274649
S31500007B50022F0FF2D40802DB4B2100F050F8DFF8B9
S31500007B60B89059F8270010B14C2100F048F8B5F14B
S31500007B70004F02D34D2100F042F849F8276020005B
S31500007B8002D0502100F03BF8244E254B30680122EC
S31500007B902946FAF7F8FA38B10EF0A6FC0546204653
S31500007BA0FFF7BAFF681E04E03068BDE8F243FAF753
S31500007BB0F5BABDE8F2832DE9F04105462F46022FBE
S31500007BC00E460FF2640802DB5D2100F018F8FAF7A2
S31500007BD0A5FE0446104850F82710B1420AD10021EC
S31500007BE040F8271015B1642100F009F80B48006829
S31500007BF0FAF7D8FA2046BDE8F041FAF7CCBE40467F
S31500007C00F8F7A2BD0DF08ABA010008BF01200201F3
S31500007C100449002090E7000048F8032068E10320AB
S31500007C20357B0000057C000073796D626F6C2D74E6
S31500007C30696D65722E6300000020704700B1022056
S31500007C40704701207047000010B522480FC88AB05F
S31500007C5006AC84E80F0006A800F05FFA01A81E49EA
S31500007C601422FAF7EDFB69466846FAF73BFE18B1AF
S31500007C70BDF80000ADF80A0001A8FBF72DFF00F0E3
S31500007C8037F8164806F09BFA00F032F80421112066
S31500007C90FBF74EFE002200210320FBF76DFF0321B8
S31500007CA00F48FBF745FE03210E48FBF741FE032173
S31500007CB00D48FBF73DFE0EF019FC01A80B491422F6
S31500007CC0FAF7BEFB01A80BF057FEF9F7CFFF00202D
S31500007CD00AB010BD086D0300F46C030000F0490201
S31500007CE002001A0003001C0005002000186D0300A6
S31500007CF0012201210220FBF73FBF0000012100F015
S31500007D001F029140664A400942F82010704700BFA2
S31500007D1038B5644CE068216808400BD562480068B5
S31500007D200568290003D000F016F80021A8474FF097
S31500007D3000400CE040000BD55C480068056829004F
S31500007D4003D000F008F80121A8474FF08040A0605A
S31500007D50BDE831400CE00021C0E9001193E0554830
S31500007D604FF040410160416821F040414160704759
S31500007D70F0B54E49504B0A68002053F8304044B1E4
S31500007D80156803EBC0041DB115792679B54200D2FA
S31500007D902246401C0528F0DB0A60114647480A685F
S31500007DA05AB10268120A1202026002680979114386
S31500007DB00160416941F0804102E0416921F0804162
S31500007DC0394A3F4C41610021136854F8315045B19E
S31500007DD01E6804EBC1051EB12E791F79BE4200D282
S31500007DE02B46491C0529F0DB13601A6862B102684C
S31500007DF022F47F4202600268197942EA0121016099
S31500007E00416941F0004102E0416921F000414161D0
S31500007E10F0BD80B52B490120087000F030F800F065
S31500007E202AF822492848224B08601F49086027483B
S31500007E300168406DC1F3074100F0FF00FF2912BF42
S31500007E40FF281921902001EB810200EBD2021A6073
S31500007E50C0000522B0FBF2F040181D490860FFF78C
S31500007E607EFF0020FFF74AFF1A4901200860FFF74E
S31500007E707FFF002002BD2821114801F0EBBE28211A
S31500007E800D4801F0E7BE144811490068096800066C
S31500007E90400D052290FBF2F0081A00F30700704728
S31500007EA080E200E024300E40DCEF0320D8EF032010
S31500007EB0E0EF03202C300E4080EF03201C300E40F4
S31500007EC0A8EF032002FC0320D0EF0320B081E00FCF
S31500007ED0E4EF032000E100E020300E40890001EBD2
S31500007EE0401000F1844002607047890001EB4010A9
S31500007EF000F184400068704712212846F5E738B53E
S31500007F000C46DFF84C150D6828B906F03AF9C5F3AA
S31500007F100421491C4843DFF83C15097831B1DFF8E4
S31500007F203815884202D22146022001E0214600206F
S31500007F30BDE83440F8B50446DFF81405DFF80875E7
S31500007F4000680D4606F01DF9064600F01EF80028EA
S31500007F50FBD13868000C00F00300A042214613D084
S31500007F60022C04BF3046FBF714FB1020C4F10201BB
S31500007F708840F8601CB900213046FBF70AFB1DB1AA
S31500007F8000F003F80028FBD1F1BD12213846ACE71A
S31500007F9070B5DFF8B8148A690378920903B104232F
S31500007FA0447804B10224857805B10825C678012EE7
S31500007FB018BF002643EA821222432A43037932433A
S31500007FC01A438A610A68407922F4403242EA004044
S31500007FD0086070BDDFF884040068032920D8DFE854
S31500007FE001F00205080B00F0FF0006E0C0F30720D1
S31500007FF003E0C0F3074000E0000E11000AD10003C1
S3150000800030F470410CD1DFF858140B6823F4704338
S3150000801003430B60012A0CD1000330F4704101D0F8
S3150000802000207047DFF83C140A6822F470421043BF
S3150000803008600120704770B50025002452EA03222B
S31500008040DFF8246416D0521E0CD0FF3A14D0521E0C
S315000080500AD0FF3A12D0521E08D0FF3A14D0521E50
S3150000806006D015E0B2680AE0B2680EE0F26806E0F3
S31500008070F2680AE0326802E0326806E07268C2F32B
S31500008080072402F0FF0503E07268140EC2F30745E9
S3150000809005600C6070BDF8B50446DFF8D053686A19
S315000080A0C007FCD4DFF8C863F06910F0030704D0FA
S315000080B001220D212846FFF711FFA74202D12CBB52
S315000080C000221EE0032F18BF002F0FD1022C18BF6D
S315000080D0012C0BD14FF40020B06000F018F880009E
S315000080E040F00100F06130680003FCD500F00FF8A5
S315000080F044EA8000F061686AC007FCD4220018BF19
S3150000810001222846BDE8F8400D21E7E6F1BD686A80
S31500008110C007FCD4F06980087047F8B50446DFF85C
S31500008120585302202860286800F00F00022850D11A
S31500008130E0884B2838BF00200DD3B0F5FA7F38BF52
S315000081404FF0805007D340F6C411884234BF4FF039
S3150000815000504FF04050DFF82463DFF824333169D4
S31500008160B4F90C20DFF81C731940D243084340EAE7
S31500008170D2703061DFF8EC02016841F440710160B1
S315000081800021386A40F080703862FFF7FFFE00B1C8
S31500008190042000F048F92089DFF8EC120880A08955
S315000081A0DFF8E8120880A088DFF8C812088000F01F
S315000081B0D2F8A07B20B1012805D1DFF8D40201E076
S315000081C0DFF8D002F86060880122012100F015F87E
S315000081D008B90020F2BD686840F480606860607885
S315000081E0FFF759FFA07A20280CBF012200220521A3
S315000081F03046FFF773FE0120F2BD2DE9F04F89B03E
S3150000820004468846934605A80021002200230EC096
S3150000821002A80EC0A4F5E160B0F5966F00F2888062
S31500008220B4F5E16FDFF870024FF4966A02AF05AD60
S315000082300BD94FF4E16101914FF001090068A86084
S31500008240010EB960C0F307400BE08946CDF804A0E3
S315000082504FF4167A0068A860C0F30721B96000F0F1
S31500008260FF00A8604A46DFF81C623068000F00F085
S3150000827003008DF80100034602A905A8FFF7DBFEFF
S31500008280DFF8E0010068000A00F003008DF8000046
S3150000829003464A4603A906A8FFF7CDFE019AA86839
S315000082A0B9686D68D7F804E0DDF814C0A31A0A1A95
S315000082B0AEEB05075A43029CB2FBFAF28218A4EB16
S315000082C00C045C437B43B3FBFAF3EF189142B4FB17
S315000082D0FAF428BF824264442AD3BE4528BFAF427F
S315000082E026D30298A04224BF0598844220D3BBF12E
S315000082F0000F0CD030694946B9F1000F18BF0221B2
S31500008300DFF89831184040EA022008433061B8F19E
S31500008310000F1CD09DF8011000224846FFF75AFEB8
S3150000832030B19DF8001001224846FFF753FE08B908
S3150000833000200DE0A74228BF3C46E72CB06928BFC5
S31500008340E724400A49EA440141EA4020B06101209D
S3150000835009B0BDE8F08F10B5DFF828114B6A0C683C
S31500008360E4074FF0FF3203F0070325D5022B23D392
S31500008370142828D31438142832D30F22086820F47E
S315000083807F4040EA022040EA023008603E4A086820
S315000083901288C0F3032002F12803401C02EB5302AB
S315000083A0283200EB8003B2FBF3F2521E072A34BFD9
S315000083B012064FF0E06215E00C68E40709D4022BC0
S315000083C007D20A2801D20322D8E70A380A2807D397
S315000083D0D3E70C68E407D1D5022BCFD22828CCD21C
S315000083E00722CBE70B6823F0EE631A4342F48012B0
S315000083F00A60264AB2F90020002A13D492B202F18A
S31500008400280302EB53024308283203EB4000B2FB79
S31500008410F0F04A68072834BF0001702022F070028D
S315000084201043486010BD38B50446164D0021FFF7CD
S3150000843064FD686AC00844EAC0006862BDE832406C
S315000084400C48008887E7000004300E4000300E40DC
S3150000845000410E40A8E60320002D31013083E00FD5
S315000084606C300E40EC300E401C83E00F54300E4052
S3150000847024300E4012FB032038300E403C300E40B4
S31500008480FEFFFFCF4C300E4010FB032014FB0320F1
S31500008490372110B7774020571883E00FFD80FFFF84
S315000084A004480168090C09048160014801607047AD
S315000084B0D0EC03201CA400400549027B0A70026828
S315000084C04A6042688A608068C8600020704700BFC2
S315000084D038F10320704770477CB500F0D5FE04469E
S315000084E000F0DCFE054600F006FF8F4E0094B11C3E
S315000084F0019102462B460FF294210020FBF72EFF36
S31500008500082306F112020FF2BC210020FBF7F9FE48
S315000085100020FBF717FFBDE8734000F0DEBE002029
S315000085200EF07CBF80B5FCF7DEF8BDE808400246D9
S315000085300FF29C210020FBF711BF01200FF041B97B
S3150000854030B5044699B02068FCF71AF8C5B26846FB
S31500008550642101F07FFB2168642D31BF2A46632226
S315000085604819A0F163016846FBF70EFF616868468B
S315000085700CF080F819B030BD1FB5044669466B484B
S315000085800FF0CFF968460FF0AEFA20460CF01FF850
S315000085901FBD38B50546664C04F1A4000FF031FC4A
S315000085A020460DF0BAFD0FF0ECFF00F0A2FD614889
S315000085B000F02FFE10F054F85F4803F0A4F85F486F
S315000085C01DB169780170A87802E0012101700020D0
S315000085D05B4908700FF043FC04F110000FF010FC2B
S315000085E000F0CCF9016809B1FFF7AAFFF9F757FBCC
S315000085F0544D2878FF2807D00FF097FF20B9287828
S3150000860010F03AF8FF2028700FF0CAFF00F005FEC0
S3150000861010F02FF84C480CF09AFB0FF248200CF0A3
S3150000862096FB20460DF002FE002000900023474AEC
S315000086300FF2402104F110000FF0CDFB0028D5D039
S315000086400FF23C1200F04DF8D0E7F0B583B010F011
S3150000865005F8FAF787FA10F025F8012300224FF4FF
S31500008660E1310020F9F784FC00F081F940F2A174B1
S31500008670C440E00708D5002010F018F8002010F0DC
S31500008680A9F8002010F064F92C490FF2F404012037
S31500008690087000202A4908702D480FF0B1FB2246C9
S315000086A00FF258110020FBF759FE00F0F7FD0546C2
S315000086B000F0EAFD064600F01EFE074600F01BFE2F
S315000086C00246019500963B460FF240110020FBF74B
S315000086D045FE224600F005F80020FFF75AFF00206D
S315000086E0FEBD0FF210110020FBF746BE7047704723
S315000086F00020704780B50FF24410FCF747F80FF0E2
S315000087002BFD0FF24410FCF741F809480DF0BCFDB3
S315000087100FF24410FCF73AF80E48FCF78BF8BDE868
S315000087200140FCF737B80000A4F2032010F4032040
S3150000873048F10320A18D020079850000A8F70320E7
S3150000874012FC0320F6DF0320446F0300BF42030040
S3150000875058F103201CFB032010B50B46144638B114
S315000087600146184610F020FA204610F0D1FE0120EE
S31500008770BDE8104002F091BE70477047000000004F
S3150000878069702D6D6F64656D000000006368616E31
S315000087906E656C2025752C2070616E206964203012
S315000087A0782532782C2073686F72742069642030C3
S315000087B078253278206E6574776F726B2069643A1B
S315000087C0202573006578742070616E3A20000000E1
S315000087D025752062797465732072656D61696E69AD
S315000087E06E6720617420746F70206F662068656103
S315000087F0702E000025733E200000000025732D61B9
S315000088007070207265616479000000006368616EB3
S315000088106E656C202575202830782578292C206EE9
S315000088206F64652069642030782532782C20706169
S315000088306E20696420307825327800005541525404
S31500008840206C696E6B000000617070206576656E45
S3150000885074207175657565007365744E6444617442
S3150000886061000000C4F403208D76000000000000C3
S315000088700000000054780300A34203005C78030064
S3150000888060780300A7450300647803006878030056
S31500008890A74503006478030070780300A74503002A
S315000088A07C78030080780300258500005C7803004F
S315000088B094780300D98400005C7803009C78030058
S315000088C01F8500005C780300A8780300C9970000A4
S315000088D05C780300B07803003B8500005C780300F9
S315000088E000000000000000000000000038B5FBF7A3
S315000088F094FA0446FBF78DFA0020002124FA01F2CF
S31500008900D20712D51E481F4C30F8110006284CF22B
S315000089103C324FF20F031ED16088984217D121884E
S31500008920080A0C2813DA084613E0491C89B21129F3
S31500008930E4D315490880088840F20171884205D1C0
S315000089401248D0E900231248C0E9002331BD4FF494
S31500008950C0606280EDE740F20725A84201BF61884A
S3150000896099422188A942E4D162800846E1E7064897
S315000089700088000A7047044800887047044870471A
S31500008980C45F03000000002062F60320940000206C
S31500008990E0E4032001207047802108F068BD80B51F
S315000089A00FF28811F9F783FD002002BD10B50446C9
S315000089B00FF27010008886B00023ADF80C0000227C
S315000089C003A802900021022001900020009000F0F0
S315000089D01DF8010009D103A802900023042001908C
S315000089E000220220009000F010F801000BD104A82C
S315000089F00021C0E900110290009108200190002397
S31500008A00012200F002F806B010BD0121204608F050
S31500008A1047BD00B585B000F012F802210191002192
S31500008A20009108E000B585B000F009F80421019135
S31500008A3002210091012108F033FD05B000BD531C51
S31500008A408DF80C10DBB20904090E8DF80D1000220A
S31500008A5003A902917047E0B50291531C08210191C8
S31500008A60DBB2002100910122012108F019FD0EBDA3
S31500008A7080B5C9B2002914BF4FF4803200224FF4EA
S31500008A80803108E080B5C9B2002914BF4FF080726A
S31500008A9000224FF0807108F0CFFC002002BD1206C4
S31500008AA0C9B2120A42EA01611B06DA0902F4F0129F
S31500008AB080B5114341F0B0020F49ECE710B5FFF75E
S31500008AC069FF0224A8B10D480068000E00F00F00EF
S31500008AD002281CBF032807280BD10948094904604E
S31500008AE00968890302D41021816000240649022006
S31500008AF00860204610BD0000B8011F010440084070
S31500008B0088400846884008408840084480B50FF2EF
S31500008B10180109788DF8001001226946FDF710FE4C
S31500008B2002BD0000FFFF0000050000008C7F03006F
S31500008B3060810300C87E030001000000DFF800F03A
S31500008B409DD90320DFF800F027D90320DFF800F0D5
S31500008B5099D9032038B504460D4610F0FFFC012CC8
S31500008B6002D1FFF7EBFF02E02846FFF7EBFF18B153
S31500008B7010F000FD012032BD10F0FCFC002032BDDB
S31500008B8010B5C20782B01BD402884FF6FF739A4213
S31500008B9001D00A0014D18408A400800722684EBFC1
S31500008BA0C2EA0140100C41EA0040009010F0D6FCE9
S31500008BB0042269462046FFF7C9FF18B110F0DAFC17
S31500008BC0012016BD10F0D6FC002016BD70B5044677
S31500008BD00D46164604E010F0CDFC241D2D1DB61ED4
S31500008BE0B6B1012E01D0A00706D535F8021B2046E6
S31500008BF0FFF7C6FFA41C761E022EF1D310F0AEFCC2
S31500008C00042229462046FFF7A1FF0028E3D001E011
S31500008C10002070BD10F0AEFC012070BD7047002032
S31500008C20704710F0CDBC01207047000080B50FF2F0
S31500008C304C10FBF7ABFDFEF791FD0FF24C10FBF766
S31500008C40A5FD0CF0E5FA0FF25010FBF79FFD10F0B2
S31500008C50FDFE0FF25010FBF799FD11F043F8A1A0AD
S31500008C60FBF794FD11F054FC0FF24C10FBF78EFD50
S31500008C70DFF8E40AFBF7DEFD0FF24C10FBF786FD8A
S31500008C80FFF7CCFF0FF24810FBF780FDFFF732FD30
S31500008C900FF24810FBF77AFDDFF8C00AFBF7CAFDB2
S31500008CA00FF24C10FBF772FDDFF8B40AFBF7C2FDBA
S31500008CB00FF24C10FBF76AFDDFF8A80AFBF7BAFDC6
S31500008CC00FF25410FBF762FDDFF8E80AFBF7B2FD7E
S31500008CD00FF25C10FBF75AFDDFF8DC0AFBF7AAFD82
S31500008CE00FF26010FBF752FDDFF8D00AFBF7A2FD8A
S31500008CF00FF26810FBF74AFDDFF8C40AFBF79AFD8E
S31500008D000FF26C10FBF742FDDFF8B80A0DF0BCFA63
S31500008D100FF27010FBF73AFD12F0B8F90FF26C1073
S31500008D20FBF734FD12F0F9FC0FF26810FBF72EFD8D
S31500008D30DFF8E00AFBF77EFDDFF8DC0AFBF77AFDD9
S31500008D400FF26010FBF722FDDFF8D00AFBF772FD89
S31500008D500FF27010FBF71AFD12F07FFD0FF2701084
S31500008D60FBF714FDDFF8B80AFBF764FDDFF8300BFC
S31500008D70FBF760FDBDE80140FBF70CBD4D4143200C
S31500008D8061726269746572004D414320696E64695F
S31500008D9072656374000000007265747279207461F4
S31500008DA0626C6500364C6F5750414E2066726167A3
S31500008DB06D656E74730000006D756C746963617324
S31500008DC074207461626C650077616B657570000074
S31500008DD06170706C69636174696F6E00666F726D45
S31500008DE02D656E657267792D7363616E00000000F4
S31500008DF06E6574776F726B206461746100000000A9
S31500008E00736C656570792062726F616463617374F7
S31500008E102068656164657200676C6F62616C2061D1
S31500008E20646472657373207461626C65000000008F
S31500008E306C6F63616C207365727665722064617411
S31500008E4061000000626F7264657220726F757465EE
S31500008E5072204E4420646174610000006368696C8E
S31500008E60642061646472657373207461626C65006A
S31500008E70737461636B206576656E742071756575B4
S31500008E8065000000436F4150000000004A50616BCE
S31500008E9065000000436F6D6D697373696F6E696E6F
S31500008EA0670000007363616E20726573756C74737E
S31500008EB020666F7220636F6D6D697373696F6E657F
S31500008EC07200000044544C53204A6F696E00000043
S31500008ED06C6F6F706261636B206D6573736167653C
S31500008EE0730000005544500070B5DFF86848054629
S31500008EF0E0882A0601D4062D04D140F0040005F0CE
S31500008F007F0503E011B94FF6FB7108402E46022E8D
S31500008F101CBF032E042EE08008D0052E0DD0062E91
S31500008F2018BF072E02D0F02100F0A3F9A570A07893
S31500008F3004280CBF0120002001E00325F6E70CF011
S31500008F4040F9E0884FF6F4710840062E08BF40F05D
S31500008F50020004D0022E14BF032E40F00800E08069
S31500008F6070BD10B5DFF8EC4706281CBFA1780629AE
S31500008F7001D0C10910D000F031FD00F065FD04F10B
S31500008F8008000DF0D7F800F026F800F09FFC00204E
S31500008F90BDE810400BF014BC217803290FD1A1794C
S31500008FA0C9070ED4032818BF04280AD100F016FDFD
S31500008FB000F04AFD0121002014F06DFDE7E70429C9
S31500008FC007D100F00BFD00F03FFD012002F0F8FC98
S31500008FD0DDE77020DCE710B5F2B015F0B9F810F057
S31500008FE0A2FD12F0ECFF0FF050FD10F005FB15F09E
S31500008FF0F1FC15F02DFD16F084FB0FF07AFF0FF053
S3150000900081FF16F040FF02F039FB0120F8F709F95D
S3150000901017F0ECF8FEF794FCF9F722FFDFF8344777
S315000090200020A0704FF6FE70F8F740FA0020E080AE
S3150000903017F031FA17F083FC19F0DCFC1AF0B3FFD5
S3150000904012F060FA12F0FCFBBC237F22082142A832
S31500009050FEF7F9F800F03BF901A81AF0FAFCBDF8A2
S3150000906054014FF6FF71884236D0BDF8040098BB14
S31500009070082342AA0E210DF1060017F02AFD10233F
S3150000908044AA032117F025FD082348AA022117F058
S3150000909020FD08234AAA072117F01BFD10234CAA1E
S315000090A0052117F016FD19F01DFDBDF8542101210B
S315000090B017F0F0FCDFF8082B002119F00DFD032353
S315000090C057AA002117F005FD0DF10601401AADF86B
S315000090D0040001A81AF032FDBDF8040000281EBFE6
S315000090E09DF8020000280120002100F00DF972B061
S315000090F010BD38B5DFF8001A0FF280140020088082
S31500009100FBF7DCFAFAF7C6FEDFF8F0094168C90793
S3150000911003D5006810F0300F10D10FF2680529460C
S315000091200020F8F73EFF29460120F8F73AFF2046CF
S31500009130BDE8344040F2AF11F7F706BBFEF75AF828
S3150000914020B14FF4DA712046F7F7FEFAF8F7CEFDB4
S315000091500FF24C00DFF8FC450BF01AFE607004F1CC
S3150000916008000CF0DAFFDFF85C1A00200860DFF870
S31500009170581A0860FFF7FBFB0BF051F9BDE83140C8
S3150000918029E70000537461636B2F4861726477614D
S315000091907265204D69736D617463680D0A00000085
S315000091A0000000000000000038B5FEF7A4FB30B157
S315000091B010F0B1FC00F0010080F0010400E0012491
S315000091C0FBF7E1FF20B100F00EF808B1002500E042
S315000091D00225F7F790FF00280CBF0420002045EA7F
S315000091E00401084332BDDFF8380605F0E1B980B561
S315000091F0DFF8DC090078010018BF072807D1FFF760
S31500009200D3FF00F00701481E8041C00F02BD0020B9
S3150000921002BDDFF8B4190860704710B50020F8F7F2
S31500009220B3FBDFF8B009007818B10FF23400FBF792
S315000092303EFBF8F745FDF9F762FCF9F781FF03F00D
S31500009240A4F90CF071F9DFF8844904F108000CF078
S31500009250EDFF6078BDE810400BF0C2BD00000000D5
S315000092602D8C000000000000DFF8600940780BF04C
S31500009270B7BD0FF20800F7F767BA000069702D73E3
S315000092807461636B2E630000F8F706B9DFF83C19CA
S315000092908979890758BFF8F7E9B87047F8F700B930
S315000092A0F8F704B9F7F791BC38B50446F7F78DFC23
S315000092B005460FF6681000F008F88DF8034000F038
S315000092C03DFA28460BF0C4F931BD0068009004232E
S315000092D07F220C216846FDF7B6BF80B5F7F766FC1E
S315000092E0BDE802400BF0AEB980B5F7F724FEBDE845
S315000092F002400BF079B9F7F755BCDFF8DC08704788
S31500009300DFF8C8080078704770B50446DFF84404F3
S31500009310067804700D46C188032C05D141F400413E
S31500009320C18002F065F902E0C1F30E01C1802000A0
S3150000933004BF01200BF045FF2A4631462046BDE812
S3150000934070400BF0E6BAF8B506465E220021FBF740
S315000093507DF8DFF800542878012806F1280421D08A
S31500009360DFF878781022B91C3046FBF70DF806F1C5
S3150000937010000FF09FFD06F118000FF0B5FD082252
S3150000938007F1120106F12000FAF7FEFFF8F788F858
S315000093902080F7F707FCA070A878E070F7F706FCC6
S315000093A020712CE019F0F2FA0746102207F1140199
S315000093B03046FAF7E9FF082207F1240106F12000FA
S315000093C0FAF7E2FF082207F12C0106F11000FAF77E
S315000093D0DBFF07F158000423018821807F22807A71
S315000093E0A0700C210FF63800006800906846FDF763
S315000093F02AFF9DF8030020719DF80200E070A8780E
S31500009400032804D1A87900075CBF0520E070F1BDF0
S315000094102DE9F041044620000D4604D12846BDE85A
S31500009420F0410EF06CBA012C04D1DFF8B4070EF04F
S3150000943078FA20E0022C20DBDE4E0021304605F0D3
S31500009440CCF8022704E04146304605F0F5F87F1CCB
S3150000945080465FEA080010D0FBF789FC00281CBF95
S31500009460016A0029EFD0F9B2A142ECD1811C102289
S315000094702846FAF789FF012000E00020BDE8F081C8
S3150000948000B585B0F8F708F869460EF024FA684684
S315000094900BF0F5F905B000BD2DE9FF4104460F4676
S315000094A0C44D0021284605F098F81DE0FBF75FFC47
S315000094B0060015D03078800612D5002C18BF002F74
S315000094C007D03B4622463946B01CFBF779F8B8422E
S315000094D006D13388326AF169DBB2B01C0BF059F958
S315000094E04146284605F0A8F880465FEA0800DDD127
S315000094F00FF230700FC86C4684E80F00002300227C
S31500009500002168460BF045F9BDE8FF813EB5A94C40
S315000095100021204605F061F815E0FBF728FC70B144
S315000095200178C9070BD5016A0291821CC1690191B4
S31500009530002100910121837C00200BF04BF9294684
S31500009540204605F079F805462800E6D1002002906D
S31500009550019000900023002200210BF03BF937BD5B
S315000095602DE9F04F8BB00446112200216846FAF728
S315000095706DFF0026DFF86C86DFF86C76DFF86C96F8
S3150000958046E0002208215046FAF7E0FF002854D1B1
S31500009590082251466846FAF7F7FE202EB4BF02208D
S315000095A006208DF808003868584490F911105F3984
S315000095B08DF80910007D10F00F008DF80B000EBF1E
S315000095C0FF209AF813000DF051F98DF80A00304685
S315000095D00DF0A7FB8DF80C0030460DF099FB8DF8C9
S315000095E00D009AF81500C0098DF80E00FF2C38689A
S315000095F05844407D00F007008DF80F009AF81600D9
S315000096008DF8100019D1694630460AF040FFEEB2D7
S3150000961099F80000751C864214DAFF2C18BFB44274
S31500009620F5D1182010FB06FB386800EB0B0A98F8FA
S3150000963000008642ACDB202EA3DAFF2CE7D0694679
S31500009640304607E005A8142100F004FBFF2C03D1E7
S3150000965005A9E8B20AF01BFF0BB0BDE8F08F704712
S31500009660AA210170BB214170CC218170DD21C1701E
S315000096707047DFF87C150A7882421CBF0870F9F73C
S3150000968016BF704710B504460DF071F920B9204693
S31500009690BDE8104015F0DBBD10BD00B5F7B04FF4C6
S315000096A08172002135A8FAF7D1FE35A81AF046FADC
S315000096B035A81AF045FABC22002106A8FAF7C6FE1C
S315000096C04FF6FF70ADF86400BC2306AA7F21082080
S315000096D0FDF7C9FD042200216846FAF7B7FE00F03F
S315000096E02DF80822002104A8FAF7B0FE082304AAE0
S315000096F07F210520FDF7B7FD0822002102A8FAF711
S31500009700A5FE082302AA7F210720FDF7ACFD0FF076
S3150000971011FA15F0F1FC00208DF80400042301AACB
S315000097207F210320FDF79FFD26480CF003FDFFF780
S3150000973052FC00200AF0D6FF77B000BD04236A462B
S315000097407F210C20FDF78FBD0021DFF8A8040CF067
S31500009750AFBD000018F40320D8FB0320A0F50320BA
S3150000976092F30320E0FB032038B5DFF88854DFF8D6
S31500009770884428460CF0ECFDDFF8800400780C28BD
S3150000978010D02068142804D101200AF0ABFF002075
S3150000979006E04FF4FA7128460CF08AFD2068401C5A
S315000097A0206031BD002020600320BDE83240FEF776
S315000097B07EB80000FAF3032028FB03202AFB0320CF
S315000097C02EFB032020F40320F9F714BA38B503461C
S315000097D00846154600241BB1022B0DD003D314E016
S315000097E0DFF81C1401E0DFF81C14098808237F2227
S315000097F0F9F78CFB082006E0DFF80C1409887F22B5
S31500009800F9F784FB0220287001E02C7070242046B2
S3150000981032BD000054F403202CFB03209CF40320EB
S3150000982036FB032010B584B000F03CF89DF80030FC
S31500009830014601AA20460BF08BF81FBDFEB50E4669
S31500009840174600F02FF8050025D19DF80000874245
S3150000985018BF02251FD10146FF2201A8FAF776FE9E
S3150000986008B9462517E01CB1022C0BD005D311E030
S3150000987008223146DFF8880308E008223146DFF87F
S31500009880840303E002223146DFF87C030088F9F7FF
S315000098905FFB00E07025294620460BF066F8F7BD11
S315000098A0DCFB032004466A4601A98FE780B5F9F779
S315000098B014F8BDE8044000210BF091B880B5F8F724
S315000098C0EBFFBDE8024000200BF090B870B5BF4C2E
S315000098D02078032888B07CD0012803BFC7480078C9
S315000098E00C28702076D108237F22052105A8FDF7D4
S315000098F0AAFC05A80DF078FF08237F22072103A8FC
S31500009900FDF7A1FC082203A9C048FAF73DFD08238C
S315000099107F22062101A8FDF796FC01A8F9F7A1FA16
S3150000992019F091F819F032F8054605F15806B07AA3
S31500009930FDF787FF3088F7F7B9FD05F11400FAF750
S315000099401FFEC1B205F1140001F07EFE05F12400F0
S3150000995001F048FE05F12C000FF0DAFD0FF2D420DD
S31500009960FFF7B3FCBDF80000FFF790FC9DF903007C
S31500009970F7F72BF99DF8020000F030F815F00BFF11
S315000099800FF0E2F801F011FAA078062809D10021BB
S315000099900320FFF7B9FC01220021002013F018FF75
S315000099A017E0F7F779FD800502D102F0D5FB10E04C
S315000099B0A078032818BF042804D0022805D1A0796E
S315000099C0C00702D402F00FFC03E040F28151FFF71A
S315000099D050FC00200AF0A7FD08B070BD0021FFF77B
S315000099E083BA80B51AF086FB16F0A9FF16F0B8FF09
S315000099F076488078062803D0BDE8014014F03BBCC9
S31500009A0001BD80B571480178032905D180490988CF
S31500009A104FF6FF72914201D193200BE08078042823
S31500009A2018BF702006D17B480078042818BF052887
S31500009A3004D13D20BDE802400AF030BE14F0EDFF2F
S31500009A40BDE80140FDF7C1BE00B59FB007A8602183
S31500009A5000F000F907A8FFF776FC0FF2DC100068AB
S31500009A6000909DF848008DF80300F7F715FDADF856
S31500009A7000006A4655488078062818BF9DF84700BA
S31500009A808DF8020004237F210C20FDF7ECFB0FF27A
S31500009A90AC1005A9D0E90023CDE905235E480DF0F9
S31500009AA0E6FE082305AA7F210520FDF7DCFB0FF261
S31500009AB094105649D0E90023CDE9032303A80822D0
S31500009AC0FAF762FC082303AA7F210720FDF7CBFBE8
S31500009AD00FF278104249D0E90023CDE9012301A80D
S31500009AE00822FAF751FC082301AA7F210620FDF778
S31500009AF0BAFB1FB000BD00005EF30320E881E00F53
S31500009B0080B5F7F74DFDBDE8024000200AF094BD90
S31500009B1080B5F7F776FDBDE802400AF087BD80B54F
S31500009B201BF03AFABDE802400AF066BF80B5F8F7C6
S31500009B30AFFEBDE802400AF065BF80B51BF02FFA04
S31500009B40BDE802400AF064BF80B5F8F7A1FEBDE8A3
S31500009B5002400AF07BBF80B51BF023FABDE8024045
S31500009B600AF07ABF80B5FEF767F8BDE80440014603
S31500009B7000200AF053BF80B5FEF760F8BDE802404A
S31500009B800AF053BF38B5044600216000FBF705FA1A
S31500009B90010003D10022002118200DE0FBF7E7F8B1
S31500009BA005462146F6F7D2FE18B122462946002080
S31500009BB002E0002200217020BDE838400AF03BBFD9
S31500009BC000F8FF079CF70320ACF7032018F40320E6
S31500009BD095F50320F7DF032008F40320A4F2032001
S31500009BE010F4032012F8032050DB0320F3DF0320D8
S31500009BF00CFC0320CCDD032034F4032044DE0320D8
S31500009C00E2810300EA810300EC810300ACF5032046
S31500009C1012DE03201DFC03200CF1032000000000CF
S31500009C20000000000000000000000000000000002E
S31500009C30000000000000000000000000000000001E
S31500009C40000000000000000000000000000000000E
S31500009C500000000000221BF0A7B900002DE9F84320
S31500009C600446FAF70DFC0546E01CFAF709FC064621
S31500009C70601DFAF705FC804600274FF44060054258
S31500009C8008BF40274FF44C4005422ED0680658BF07
S31500009C9047F020074FF6FF794E4508BF47F001070A
S31500009CA005D0FFF7FBFA864208BF47F0020705F426
S31500009CB04060B0F5006F03D0B0F5406F0CD014E0F3
S31500009CC0C84508BF47F004070FD0FFF7DDFA804507
S31500009CD00BD147F0080708E00822611DDFF87C0871
S31500009CE0FAF7BBFB08B947F010073846BDE8F28320
S31500009CF02DE9F04FADB080461546FBF738F806461D
S31500009D00701CFAF7BDFB8246701C0CF0C9FB304490
S31500009D10441C611C0120FAF7E3FB814600271AF474
S31500009D2040407CD0B0F5004F11D0B0F5404F08BF91
S31500009D30A4F1080700200090694620460FF0FDFCBC
S31500009D40040021D1384601F0B0FD88B967E0A01EB5
S31500009D50FAF796FBFFF796FC0700EBD1701C0FF0A5
S31500009D6006FE0700E6D101210E20FDF7A8FC56E00D
S31500009D70002E18BF002F52D0034600F074F80028BA
S31500009D804DD00120287065E0082C19D10098C0B28A
S31500009D900EF0D8FF054601A90EF0E3FF8346BBF19E
S31500009DA0000F16D125A928460EF09AFE002E1CBFDC
S31500009DB0002F002833D000F1100300F054F82EE0F5
S31500009DC0102C2CD14FF0FF35DFF89477DFF894B7DD
S31500009DD0E5E70EF0D7FF38B9002E18BF002F1ED0CA
S31500009DE000F040F860B91AE0002E18BF002F16D018
S31500009DF03278711C05A8FAF7C7FA00F033F870B18B
S31500009E00102C26D0009BDBB24A4639464046FEF768
S31500009E1006FF20B94FF440401AEA000F01D1022094
S31500009E2018E000F01AF80DF087F878B900F015F888
S31500009E3015F073FA50B900F010F802F05DF928B980
S31500009E4001210F20FDF73BFC042003E028460EF01D
S31500009E50E1FF01202DB0BDE8F08F00232A463946E8
S31500009E60484670475B463A463146701C0FF08DBD3A
S31500009E702DE9F04F85B08046FAF779FF0546681C54
S31500009E80FAF7FEFA0646E8788DF8020006F00709AA
S31500009E90F00800F0010A300A00F001008DF8030016
S31500009EA006F4405400208DF801004FF0000B681CAA
S31500009EB0FFF7D4FE074617F0440014BF0520042020
S31500009EC00121FDF7FCFB15B12878801E28704FF69E
S31500009ED0FF6000EA0601681CFAF7DBFA681C0DF061
S31500009EE026FCD0B14FF0040B002405B12C78404677
S31500009EF0FAF755FF0646681CFAF7C2FA07465FEA04
S31500009F00CB7040F1EF8000F04DFB801E5FEA8B7155
S31500009F10C0B201D5801FC0B2E5E0BAF1000F0CBF98
S31500009F20002CB4F5805F13D14EF6F7600640DFF8DB
S31500009F3038060078012818BF03284FF6FF7408D0AA
S31500009F40052818BF062804D0072806D00C282BD0D1
S31500009F5016E1B9F1000FFBD130E0B9F1030FF7D1EB
S31500009F6017F0030003D1FFF799F9A042F0D117F0DB
S31500009F701C00EDD09DF8030008B14BF0200BDFF874
S31500009F80EC0500781AEA000FAED00DF10102394651
S31500009F904046FFF7ADFE022869D1B9F1000F64D142
S31500009FA0002D45D10024A2E75FEA090106D0B9F1E8
S31500009FB0010F0ED0B9F1030FD2D0E1E00C2801D188
S31500009FC0B807FAD5B6F5004FD4D0B6F5404FF4D160
S31500009FD0D0E70A2F1CBF062F122F25D1780758BFAE
S31500009FE04FF0010B10D5DFF888050088000404D572
S31500009FF0DFF880050078042815D0DFF87C050078A6
S3150000A000022810D04FF0410B16F4404008D0B0F5AE
S3150000A010004FAFD0B0F5404F05D14BF0020BA9E78A
S3150000A020BAF1000FA6D1ABE0252FA3D0322FCEE791
S3150000A0304046FAF7B4FE064695F800A000F0B2FADC
S3150000A0400746A6EB0A00221805EB0A00411CE81990
S3150000A05092B2401CFAF798F9AAEB0700C0B22F702B
S3150000A060311A89B200F0B2F840E7B9F1030F30D1E6
S3150000A07000F098FA2844461C30460FF057FB305C37
S3150000A08004282CD14046FAF78AFE002D824689D054
S3150000A0902F7800F087FA019030460FF047FB06460E
S3150000A0A001990198AAEB01012844891B62188119BC
S3150000A0B092B2491C401CFAF767F9B81B2870681C55
S3150000A0C0FAF7DEF90146681DFAF7E3F9AAEB06018D
S3150000A0D0C7E710B94BF0100B06E70128FCD00121A9
S3150000A0E0102062E00220211AC91D8DF8001084425A
S3150000A0F0A1BF611C8E429DF800108E4240DB221AE1
S3150000A1002844411C92B2E81DFAF73EF90DB185F8D4
S3150000A11000B004220021681CFAF798F93946681D38
S3150000A120FAF7B7F99DF8010018B10321404600F08F
S3150000A13075FA681CF9F7B4F918B10721404600F022
S3150000A1406DFAB9F1010F39D15FEACB7013D502A9C7
S3150000A15040461BF054FD70B1FFF796F80146BDF876
S3150000A1600C00884207D014F039F858B1BDF80C003D
S3150000A17015F06DF830B9694640461AF04AFF08B93D
S3150000A18000201EE000F020F8404600F0FCFAB0F592
S3150000A190004F15D1404600F019FB9DF80210044609
S3150000A1A014F01AFC20B101211120FDF788FAE7E727
S3150000A1B09DF80210204614F024FC01E000F004F89B
S3150000A1C0012005B0BDE8F08F9DF800104046FAF773
S3150000A1D0FFBD2DE9F64F85B082460521FBF72EF827
S3150000A1E004465046FAF7C3FD0490C01D01900020B6
S3150000A1F00599DFF88853029008708346FFF74EF8FA
S3150000A200ADF800008046DFF87813FF200870EF1CD9
S3150000A21000F0C5F904280CBF4FF00109D94600F03B
S3150000A220BEF906280CBF01260026E00900F0010051
S3150000A23080F001008DF80C004FF67F70044000F0AE
S3150000A240AEF9052808BF4FF6FF7825D000F0A7F92C
S3150000A250032802D056EA09001ED001215046FAF71B
S3150000A2602CFE8346002201215046FAF73DFEB9F145
S3150000A270000F09D05846FAF77AFD4FF6FF7858B125
S3150000A28006990078087007E036B15846FAF76FFD70
S3150000A29010B1FAF7F8F8804600F07EF9C0074AD503
S3150000A2A000F07AF9800708D5082604F44060B0F576
S3150000A2B0406F0CD040F20B3107E0022604F44060F8
S3150000A2C0B0F5006F03D040F20F3100F061F941465E
S3150000A2D0281DFAF7DEF8A81D029032460199FAF712
S3150000A2E053F8A819871D019880190190BDF8000040
S3150000A2F0404508BF44F0400404D001463846FAF70A
S3150000A300C8F8BF1C9A480078800748BF44F4404408
S3150000A31004F44040B0F5404F06D108228F49384634
S3150000A320FAF732F8083706E0FEF7AEFF0146384680
S3150000A330FAF7AFF8BF1C00F02FF900F0050004286B
S3150000A3400ED05046FAF72BFD0646504600F036F979
S3150000A350301A210702D4C0B2672801DB44F48054C6
S3150000A360504600F03EF90199401A5FFA80F84246DD
S3150000A3703846FAF709F801984744804400F00CF98A
S3150000A380C0073DD5E008C7F17D016A1C00F0010059
S3150000A39056180100029918BF123E00290ED07949BD
S3150000A3A00978029B81F0010108430090F2B2394618
S3150000A3B050460FF0DCFE8046B8F1FF0F6ED0B8F1C4
S3150000A3C0FE0F1BD101200090A6F11202029BD2B211
S3150000A3D0394650460FF0CBFE804644F48054B8F11F
S3150000A3E0FF0F44F0080459D005215046FAF726FF1E
S3150000A3F040F0080205215046FAF72FFF47440DE0CA
S3150000A4005046FAF7CCFC0499A0EB08000E18F6B2F9
S3150000A410324641463846F9F7B7FFBF1950460AF0AB
S3150000A420CCFF08B144F010042146681CFAF731F855
S3150000A43000F0B2F800F00500042804F007060BD07F
S3150000A4402EB951480178491C0170E9700CE04F485B
S3150000A4500178491C0170E970032E05D100F0A2F8BD
S3150000A460284447494078087000F096F800F0050047
S3150000A470042858D0200756D50FF0AEF810F1010F7A
S3150000A4800CD0012E0CD1FEF73BFF032808D0B9F102
S3150000A490000F05D100F083F8032801D0002059E011
S3150000A4A000F07DF8032806D15846FAF760FC81468D
S3150000A4B00024002627E0B9F1000F05D0DFF8A490AC
S3150000A4C0FF260020102420E000F066F8C00604D520
S3150000A4D00EF058FC814601260DE068460EF047FC5A
S3150000A4E05FEA000903D14FF46C7100F051F800984F
S3150000A4F000F07F00461C00F052F80824022802D122
S3150000A500FEF78FFB01E00FF05BF80290F6B20196C2
S3150000A510002000902346781B411E4A46C9B2681C9B
S3150000A5200FF071F907445FEA0B0004D05A46012187
S3150000A5305046FAF7D9FC781B401C2870781B7F28F8
S3150000A54003DB40F2D33100F023F8059901200870AF
S3150000A5509DF80C0007B0BDE8F08F000010F4032052
S3150000A560349A01003C9A010044DE0320FDDF0320FB
S3150000A5701EF403201AF403201DFC03204CFB0320C9
S3150000A580F5DF0320FEDF03203AFB032039FB03201F
S3150000A5900FF21800F6F7D8B8504600F02CB850461F
S3150000A5A000F039B8681C0BF07BBF000069702D6D98
S3150000A5B061632D6865616465722E630080B5FAF784
S3150000A5C0D6FB60B10178CA0705D4401D0BF068FFC1
S3150000A5D0401DC0B202BD880701D50F2002BD09206B
S3150000A5E002BD38B50446FAF7C2FB05462046FFF71A
S3150000A5F0E5FF284432BD0021FAF704BE0A460021D1
S3150000A600FAF707BE80B5FAF7B2FB18B1017841F048
S3150000A6108001017001BD0421FAF7F4BD0A46FFE787
S3150000A6200421FAF7F6BD80B50521FAF707FE00F416
S3150000A630406002BD38B50446FAF799FB0546204648
S3150000A640FFF7D9FFC00701D5E81D32BD05F10A00A5
S3150000A65032BD80B5FFF7EEFFBBE038B504460D46C8
S3150000A660FFF7E8FF2946F9F714FF00F02AF84FF63E
S3150000A670FF718D4206BF4FF6DF7101EA000240F01E
S3150000A68020022046BDE838400521FAF7E6BD10B5A0
S3150000A6900C46FFF7CFFF2146BDE810400822F9F728
S3150000A6A073BE38B504460D46FFF7BDFFA84207D076
S3150000A6B000F007F84FF2FF31084045EA0002E0E7F4
S3150000A6C031BD05212046FAF7B9BD2DE9F041044612
S3150000A6D00D46FFF790FF0646F00704D48B210FF2D4
S3150000A6E05420F6F731F8B0071AD52046FAF73FFBA3
S3150000A6F080462046FAF753FB0746A0F10F0292B2B6
S3150000A70008F10F0108F10900F9F73EFEB91F89B2F9
S3150000A7102046FAF75DFB06F0FD012046FFF76EFFC7
S3150000A7204FF400612046FFF7BCFF4FF6FE708542EE
S3150000A730204607D1FFF75FFF40F020012046FFF7D4
S3150000A7405DFF0AE0FFF757FF00F0DF012046FFF745
S3150000A75055FF29462046FFF780FF0120BDE8F0811E
S3150000A76010B50446FFF75FFF48B1B0F5006F08D19A
S3150000A7702046FFF76EFF4FF6FF71884201D1012098
S3150000A78010BD002010BD80B50521FAF757FD00F475
S3150000A790404002BD38B50446FAF7E9FA05462046B8
S3150000A7A0FFF729FFC00701D5E81D32BD2046FFF798
S3150000A7B018FF05462046FFF7E6FFB0F5404F0CBFF1
S3150000A7C06FF007006FF00100284432BD80B5FFF737
S3150000A7D0E1FFBDE80240F9F753BE38B50446FFF77E
S3150000A7E00AFFC00703D5BDE83140FEF757BDFFF7A6
S3150000A7F068FF05462046FAF7BAFA0830690611D40A
S3150000A8004FF440410D4202D14FF6FF7032BD05F4C0
S3150000A8104061B1F5006F08BF001D03D0B1F5406F70
S3150000A82008BF0A30BDE83240F9F72ABE10B5044623
S3150000A830FFF7E1FE000703D52046BDE81040C5E757
S3150000A8404FF6FE7010BD2DE9F0471D46012610B1EA
S3150000A85040F6010006E0002A1ABF032640F6214012
S3150000A86040F62100002914BF4FF440414FF4004147
S3150000A87041EA000800200EF021FA18B148F4805091
S3150000A88040F00808089C16F0020714BF0F200920A4
S3150000A8902018002180B2FAF780FB814608B3FAF748
S3150000A8A07EFA82464846FAF762FA52460021F9F7DE
S3150000A8B0CDFD31464846FFF7A1FE4846FAF757FA5E
S3150000A8C0461D41463046F9F7E4FDB01C002F14BF83
S3150000A8D00823022325B1224629461844F9F754FDD8
S3150000A8E04846BDE8F087F8B504460D46681D0021C8
S3150000A8F080B2FAF752FB060001D10020F2BDFAF74A
S3150000A9004EFA07463046FAF732FA3A460021F9F788
S3150000A9109DFD04213046FFF771FE3CB13046FAF743
S3150000A92026FA2A462146401DF9F72EFD3046F2BD8D
S3150000A9300000000069702D7061636B65742D686599
S3150000A940616465722E630000DFF8F41C887070473E
S3150000A95000B583B048B100F072F86846C17941F09D
S3150000A9600201C171F8F77DFA07BDF8F779FA07BD5C
S3150000A97080B5DFF8D00C4179092905D1032000F014
S3150000A98019FABDE8014081E107291ED0491E0729B1
S3150000A99015D8DFE801F00A0406040D202011042072
S3150000A9A000E00320BDE8024004E2BDE8014056E2B3
S3150000A9B0BDE8024007207DE2BDE8014066E1BDE852
S3150000A9C0044040F2753101F09CBAC07A18B1BDE876
S3150000A9D0014001F033BA01BDDFF8680C417907295F
S3150000A9E000D0704780B5C07A032818BF07280ED15B
S3150000A9F0DFF87C0C008900F00CFF08D0FCF7E5FEC0
S3150000AA00BDE804409621DFF8280D0BF051BC01BDCE
S3150000AA10DFF8600C00B5007883B020B1DFF8140DC4
S3150000AA200CF0E2FE07BD00F00AF89DF8000000F009
S3150000AA30FD008DF8000068460CF0D6FE07BD042127
S3150000AA406846F5F783BF2DE9F84304468846DFF8E4
S3150000AA50289C5E2200214846F9F7F8FC10220021C6
S3150000AA604846F9F7F3FC05220FF25401DFF8D45BF0
S3150000AA700FF254064846F9F787FC09F12807022029
S3150000AA80F870032038714FF6FF7038800020E88197
S3150000AA900DE018EA000F09D0B078F2782118484482
S3150000AAA0F9F772FCE88931880843E881361D308859
S3150000AAB00100EED194F82A00B870BDE8F1830000D9
S3150000AAC0656D62657200000001000010020010084A
S3150000AAD0040020080800280210002B0120002C0189
S3150000AAE040002D108000180800013D2000015D0186
S3150000AAF00000000038B504460D46FEF701FC20B103
S3150000AB00BDE83240702009F03EBE00F009F8002092
S3150000AB1009F039FE29462046BDE8344018F070BEDB
S3150000AB20294620468FE7F8B500F08AF8002802BFCC
S3150000AB30DFF82C0C00780C2826D100211020FAF71B
S3150000AB402CFADFF8007B388208B918201DE00020B7
S3150000AB5009F0DDFC00210220FEF7D6FB4FF6FB7064
S3150000AB6000EA0501FFF7DDFF0DF079FF388AFAF7F5
S3150000AB70FEF81022FF21F9F769FC3146BDE8F840DE
S3150000AB80052202200BF05CB87020BDE8F24000F010
S3150000AB90D3BDF8B5DFF8AC7A0446F8890D46160041
S3150000ABA019BF00F04F014F2900F04700472801D098
S3150000ABB0022019E0FEF7A4FB002802BFDFF8A00B75
S3150000ABC000780C280FD1DFF8B00A80F82B50204609
S3150000ABD0FEF768FB0120F8713E72002009F09DFC2B
S3150000ABE0BDE8F14052E07020BDE8F24009F095BCA6
S3150000ABF070B500F025F8002802BFDFF8640B007876
S3150000AC000C2818D1FFF78CFFDFF86C4ADFF8345AAE
S3150000AC1094F92C00FEF746FB0DF036FF6E6110210D
S3150000AC20204600F011FD0020E871287209F075FC3D
S3150000AC30BDE870402AE0BDE87040702009F06DBCA8
S3150000AC4004460D461646FEF75BBB80B5FEF758FB7D
S3150000AC50042802BFDFF8EC09C07A002803D100F00F
S3150000AC60AFFE002000E07020BDE8024009F061BCA4
S3150000AC7020F08001042900D0704780B50121FEF73D
S3150000AC8033F9DFF8BC1C0020087001BD80B5FFF762
S3150000AC90BFFEF8F7E5F8DFF8E00990F82B0020F0A2
S3150000ACA08001042908D101210320FEF71DF9DFF8F0
S3150000ACB0800A0BF04DFB02E00121FEF715F900F0CA
S3150000ACC0DDFC00210220FEF71FFBDFF878190220C9
S3150000ACD008710120BDE80240ECE0DFF8DC1C0870DA
S3150000ACE0704738B50446DFF85C09008A0D46FAF766
S3150000ACF03EF810B1204400F80B5C31BD2DE9FC4153
S3150000AD0006460F4690461C46FFF782FEDFF834598A
S3150000AD10687920B1702000F00FFD002043E00EF0AE
S3150000AD20E8F83046FCF78DFD3846FEF7BBFA40469C
S3150000AD30FEF7B6FA0C98DFF8746C0021FEF7D4F82B
S3150000AD40308840F0010030800020FEF79FFA089915
S3150000AD50204600F079FC07206871308840F40040F6
S3150000AD603080A87B400704D5DFF8500C00F03AFC91
S3150000AD7004E0FFF764FE684600F034FC0A980EF023
S3150000AD80C7FB0B980EF0E8FBFEF72BFE012018F030
S3150000AD90D1FCDFF8AC088078FFF7DAFDFEF754FE49
S3150000ADA000F02EF90120BDE8F681DFF8981807209B
S3150000ADB04871704770B5DFF88C486679054600F033
S3150000ADC05DFC012E08D12079010005D0401E2071BE
S3150000ADD00120BDE870406DE0A079010012D0401E50
S3150000ADE0A0710BF04BFBDFF85858297800F048FFAC
S3150000ADF005F108000BF05CFA0820607128788000E5
S3150000AE00287070BDDFF8700890F82B00FFF730FF50
S3150000AE10F8F726F829460020FEF776FABDE87040D6
S3150000AE2000F079BD10B50C468AB001460822684686
S3150000AE30F9F79BFB2022002102A8F9F707FB02AADB
S3150000AE40082168461BF034F8082202A92046F9F7C3
S3150000AE508CFBE07940F00200E0710AB010BD10B53D
S3150000AE60DFF8E047607A401CC0B21B280EDA616941
S3150000AE70C140C907F7D56072FCF7E3FCE07958B921
S3150000AE8000F0D8FB072807D0012206E0BDE81040F5
S3150000AE900022032100203DE200220021002012F0C2
S3150000AEA05AFEBDE810404FF49671DFF89C0C0BF08B
S3150000AEB0FFB900002DE9FF410646684600F027FC71
S3150000AEC0DFF87C47DFF87C57DFF8AC77DFF84C8C8F
S3150000AED000F015FC6E7107F128066879401E0628F9
S3150000AEE000F28780DFE800F0041F505C5F85660093
S3150000AEF04FF6FF776078E78078B1308801E00BF095
S3150000AF00BDFAB842FBD0FEF7CBF9A078FFF720FDDB
S3150000AF100A206872FFF7A3FF70E069690522032023
S3150000AF200AF08EFE6AE0DFF8241CE0780978084013
S3150000AF30DFF8841A097808420AD0A86920B94FF4C4
S3150000AF4042714046F5F700FCA9696846884755E016
S3150000AF500022082105F12C00F9F7F8FA28B105F1CD
S3150000AF602C01DFF8D007FFF75DFF05F12C00F7F79E
S3150000AF7078FF97F85D30298807F13D02684610F0A2
S3150000AF802CFFDFF8F81C10E0012017F074F920B947
S3150000AF9040F227314046F5F7D7FB42F6E06104E080
S3150000AFA041F2883101E04FF4967104F108000BF08C
S3150000AFB07FF923E000F0AFFC00F03CFB062807D148
S3150000AFC000F01EF801220021002012F001FC0DE025
S3150000AFD0072802D100F014F808E0A078FFF7B8FCC3
S3150000AFE0F078FFF745FE172000F0EAFCFEF72CFD8F
S3150000AFF004E04FF454714046F5F7A6FBBDE8FF8127
S3150000B00000210320FEF780B92DE9F04192B0804679
S3150000B0100AF008FE05464046F9F7C1FE441B4046C5
S3150000B020F9F7A5FE0619F6B21A2EC0F28E80404632
S3150000B030FFF7A9FBB0F5004F78D04046FFF7A3FB1A
S3150000B040B0F5004F72D0422200216846F9F7FEF9AA
S3150000B05008AC2878A07040466F78FFF79BFB014646
S3150000B060082206A8F9F790F91022A91C6846F9F7F4
S3150000B0708BF9082205F1120104A8F9F785F90321D5
S3150000B0804046FAF7BFF8E07001214046FAF7BAF8F1
S3150000B090607102214046FAF7B5F8A0714046F9F70B
S3150000B0A066FE0830F9F7ECF9ADF8200007F001006C
S3150000B0B02071F80800F001008DF840003809E071B1
S3150000B0C005F11A073544381DA8420AD238781228E5
S3150000B0D004BF7878022804D1B81CF9F7D1F9A08307
S3150000B0E03F1D381DA8420AD238780F2804BF787849
S3150000B0F0022804D1B81CF9F7C3F9E0833F1DB81C38
S3150000B100A8420BD23878082808D17A78112A05D2B5
S3150000B110A276B91C0DF12A00F9F736F9DFF82405F5
S3150000B1204079012803D1684600F013F80DE0DFF8F6
S3150000B13030060078012803D1684609F007FA04E0D2
S3150000B140052804BF684616F0BEF912B0BDE8F081C6
S3150000B15000BF2DE9F84FDFF8E894DFF8E8448046B1
S3150000B160B9F8060008F1200700F053FB94F9020035
S3150000B17097F906100CBF4FF0010A4FF0000A8842FB
S3150000B180F879B4BF01250025421E9241D20F8DF8F1
S3150000B1900120E1784A1E9241DFF89C1C0978D20F03
S3150000B1A08DF80020062962790CBF01260026012AA7
S3150000B1B009D1022807DBB878032804D1072903D16F
S3150000B1C098F8400078B989E0387938B1B97E080036
S3150000B1D004D008F12A0015F05DFB20B9A07B00F031
S3150000B1E0470047287AD10022082104F12400F9F704
S3150000B1F0ADF978B90022082108F11800F9F7A6F987
S3150000B20040B9082208F1180104F12400F9F725F9DC
S3150000B210002863D1A07BDFF860B4C0070CD50022FC
S3150000B22010215846F9F792F930B91022414658468E
S3150000B230F9F713F9002851D1A07B40070CD500225D
S3150000B24008210BF12000F9F781F928B900F048F838
S3150000B250F9F703F9002841D1A17B09070BF1280072
S3150000B26003D501883A88914238D19DF801109DF89E
S3150000B27000209DF800302940324311409DF80120FE
S3150000B280324382F001022B4341EA0A011A4011437C
S3150000B29024D0F9788170B979A17039880180414646
S3150000B2A000F0C8F907280CBFF88BB88B2080102255
S3150000B2B0F879E0705846F9F767F800F011F8F9F7F1
S3150000B2C063F84FF6FE70A9F8060008F1180104F1BC
S3150000B2D01C00BDE8F84F0822F9F756B8BDE8F18F13
S3150000B2E0082208F110010BF12000704738B5DFF88D
S3150000B2F0884304F12805A878FCF7A3FA2888FDF707
S3150000B300CFFF04F1200000F06DF92046BDE834407F
S3150000B310102199E1F0B5020085B040F09180C94D49
S3150000B320D54C6879012833D10022082105F11C008B
S3150000B330F9F70CF9B8B9FFF7D9FFE87970B100F061
S3150000B34079F9062808D10022082104F11800F9F736
S3150000B350FDF808B1062002E0072000E0022005B053
S3150000B360BDE8F040A6E5287A68B1FFF7BFFF1AF0FE
S3150000B370E2FE012018F0DEF90720687105B0BDE88D
S3150000B380F04000F0EDBC05B0BDE8F040022011E54C
S3150000B390022903D105B0BDE8F040E3E1042904D158
S3150000B3A005B0BDE8F04016F041B8032941D1288A1E
S3150000B3B0F9F7DDFCEB8903F00806320004F12801F9
S3150000B3C04FF6FF770FD14FF0000C00281CBF30F866
S3150000B3D01C20BA4208D10CF101025FFA82FCBCF1D2
S3150000B3E0080FF2DB1CE00A88BA4218D018064CBFD8
S3150000B3F004F11800002003909B074CBF04F11003D2
S3150000B4000023002001900293102000902346CE785E
S3150000B41091F90410A87A0496FFF770FC16E01EB99D
S3150000B42005B0BDE8F040D7E105B0BDE8F0407020BA
S3150000B43082E105290AD105B0BDE8F04016F066B8EC
S3150000B440022903D105B0BDE8F04075E105B0F0BDB5
S3150000B4507C484079062804BF0720FFF72BBD7047BC
S3150000B46038B5784D0446687903280DD110F086FA70
S3150000B4701CB1BDE8324004201CE5092068714FF478
S3150000B480FA61BDE8344010E531BD6E4840790228C6
S3150000B49004BF0420FFF78EBC70476A494979022928
S3150000B4A009D130B1DFF890090078062818BF0720C7
S3150000B4B000E504207EE47047DFF87C1C4A7800280B
S3150000B4C014BF42F0010002F0FE0048707047DFF83A
S3150000B4D0680C40786BE070B50C0086B00646DFF865
S3150000B4E0145C03D11A20287000203DE06846142120
S3150000B4F0FEF7B0FB112CA8BF102408208DF8000021
S3150000B5008DF80140224631460DF10200F8F73CFF66
S3150000B510DFF8246CA21C92B2694606F11A00F8F70D
S3150000B52033FF3019122100F81C1F02214170DFF889
S3150000B530241C0A88120A82700988C170717809076A
S3150000B5400ED50F21017102214171DFF8F81C0A881E
S3150000B550120A82710988C1717078000748BF241DDC
S3150000B56004F1200028700120FFF7A6FF06B070BD89
S3150000B57010B5040004D0FDF7C3FE08B1702003E047
S3150000B580204600F005F80020BDE8104009F086B915
S3150000B590DFF8A41B4A78002814BF42F0080002F026
S3150000B5A0F70048707047DFF8900B4078C00800F04D
S3150000B5B00100704780B523484079022818BF032848
S3150000B5C00CD007280CD1DFF8700B4078C00705D4E3
S3150000B5D017F0DCF990F85600400601D5012002BDAF
S3150000B5E0002002BD01460822DFF86C0CF8F7CCBE3D
S3150000B5F010B5DFF8B8432088000403D440F2375171
S3150000B60000F0A6FBDFF8EC1A1A2008700321DFF819
S3150000B610280B0170417841F0200141702078C00765
S3150000B62003D400F007F8022803D1BDE8104012F059
S3150000B630A5BF10BDDFF800080078704700000000C5
S3150000B6400CDE032090F5032070B50D46112D04463F
S3150000B650A8BF1025DFF8E06A10220021B01CF8F719
S3150000B660F5FE2A462146B01CBDE87040F8F78CBEB0
S3150000B670D4F503200EFC032030F5032038B5DFF89F
S3150000B680DC5BDFF82C4400206871E8724FF6FE7030
S3150000B690FDF7FCFD15F053F94FF6FF70E080082228
S3150000B6A0002105F11C00F8F7D1FEFF2020710020D3
S3150000B6B0DFF8AC1BBD4D08702888C0F30E0028804B
S3150000B6C00EF031FA10F07BFCDFF8981B00200870B2
S3150000B6D012F03EFD14F0D7FB14F0DDFE14F011F865
S3150000B6E012F070FF0020FFF7E7FE0120207000F047
S3150000B6F006F828884FF6FE710840288031BD04F10F
S3150000B70008000AF025BEDFF8541B8861704780B533
S3150000B710DFF89C13C9884FF6FF72914201D10020D1
S3150000B72002BD0146DFF8400B0CF0FBF8012002BD1C
S3150000B73020DE032008F4032010B50446DFF81C1BA6
S3150000B74000200882FDF7DCFD20B92046BDE8104048
S3150000B75008F0DDBEBDE8104001210020FDF7D4BD94
S3150000B76044DE0320F8B5DFF8F45A288AF9F7FFFA21
S3150000B770FF240027060014D00020315CA21F91424E
S3150000B780BCBF8C1DE4B2401C1028F6DB0020315CE7
S3150000B790A142BCBF7F1CFFB2401C1028F7DB38005B
S3150000B7A003D1BDE8F2400120C6E70AF067FE90FB30
S3150000B7B0F7F107FB1101C9B20020325CA24206DA9A
S3150000B7C00A0002D10B30A87204E0491EC9B2401C1F
S3150000B7D01028F2DBBDE8F14070B5DFF8804A208A18
S3150000B7E0F9F7C5FA054600260AF048FE00F011F8FA
S3150000B7F01EBF002D25F81600761C082EF4DBA17A54
S3150000B800BDE87040012000FA01F1052203200AF08C
S3150000B81017BA4FF6FF718842704770B5044620008C
S3150000B8200FBFDFF8480A0120A0400843DFF82C1AB2
S3150000B83098B0154648611E465E2200216846F8F714
S3150000B84005FE1E99082208A8F8F79EFD32462946ED
S3150000B8506846F8F799FD1F9E102231460DF12D001E
S3150000B860F8F792FD1D9D0822294604A8F8F78CFDDD
S3150000B87020998DF82A4030460DF096F928460DF0AD
S3150000B88047FE1C9847214FF6FF7290421CBFADF849
S3150000B89028004F216846FFF72DF918B070BD014604
S3150000B8A01022DFF8CC09F8F76FBD38B50446DFF88B
S3150000B8B0AC5900F01CF820B12046BDE832401AF021
S3150000B8C060BF05F1340032BD38B5DFF89059044643
S3150000B8D06879042802D100F00AF810B168790728BF
S3150000B8E004D12046BDE8324000F04CBD31BD0022F7
S3150000B8F0102105F13400F8F729BEDFF83C05007881
S3150000B900072805D0DFF854094079022802D1032020
S3150000B910FFF7D0BA704710220021DFF85409F8F774
S3150000B92095BD80B5FFF7F7FFDFF8300940790428A9
S3150000B93004D1BDE802400520FFF7BCBA01BD0000F6
S3150000B94017FC032010B55A4C60791B2811DB0B201D
S3150000B950607104F120000AF0FBFC00F0F0F8DFF85B
S3150000B960FC180020C8720021BDE810400420FDF735
S3150000B970CBBC17F00BF85A3015F0F4FC0146607991
S3150000B980C140C90748BF12F072F86079401C607167
S3150000B990322104F12000BDE810400AF089BC80B5D0
S3150000B9A0FBF74CFFDFF8B418087301BD1EF4032043
S3150000B9B0DFF8C4087047000012FC032050F503208E
S3150000B9C0002100E001212DE9F041DFF890680446EE
S3150000B9D0707907280D464ED1F07ADFF8D480010041
S3150000B9E00AD0062818BF072845D108F10800BDE887
S3150000B9F0F04100210AF05CBCDFF880783878002836
S3150000BA0014BF00200220B071280028D100F0B9FB35
S3150000BA1007207071DFF868080188C1F30E01018004
S3150000BA2000F02BF84FF6FF70A8F80600DFF80804C0
S3150000BA300078022818BF13F00BF80822002106F13F
S3150000BA401C00F8F703FD387848B912F081FBDFF8DF
S3150000BA501018002008704FF6FE70FDF717FCDFF88F
S3150000BA601468802200213046F8F7F0FCB470357176
S3150000BA70BDE8F0411EE0BDE8F08180B514F05FFF3F
S3150000BA800EF051F810F09BFADFF8D8170020087076
S3150000BA9014F0F9F914F0FFFC13F033FE12F092FDE6
S3150000BAA0DFF8DC0701884FF6FE721140018001BD08
S3150000BAB00CDE032038B5DFF8A417A44CDFF8B45722
S3150000BAC00020C872FF202071FFF719FE0120687060
S3150000BAD008220220287000214FF6FF702881A5F861
S3150000BAE0440005F10A00F8F7B1FCFFF7A3FDE87082
S3150000BAF020F08000042807D101210320FDF7F4F986
S3150000BB0004F114000AF024FCDFF870070078BDE8A1
S3150000BB103240002814BF02200120B9E0A8C200006C
S3150000BB2080B5DFF860070AF013FC00F008F8DFF8CC
S3150000BB302C170020C8721220BDE8024040E7DFF84B
S3150000BB403407C078FFF794B814DE0320A8F7032063
S3150000BB502DE9F041DFF80457DFF81847EF7A16F0C1
S3150000BB6015FF00280FBF012690F85600400900F087
S3150000BB700106207910B10020E8727CE0022FDFF880
S3150000BB80CC8121D12078010032D0401EDFF8EC169E
S3150000BB902070C0B2097880B900291EBFDFF8E80618
S3150000BBA00078002803D012F0D3FA0220207000207B
S3150000BBB0DFF8AC160870012003E0002914BF02204C
S3150000BBC00120BDE8F04163E0A879010018BF012F0C
S3150000BBD00ED0401EA8710AF051FC617800F050F8B2
S3150000BBE000F0BAF80420E87260788000607042E0E5
S3150000BBF0FDF786FB052804BFA078142808D117F0A6
S3150000BC00A9FC28B10020E87217F043FC15200BE0D0
S3150000BC10FDF776FB05280AD116F0F2FE38B10020B2
S3150000BC20E87217F03CFC1620BDE8F041C8E6FDF7C7
S3150000BC3067FB052812D1FFF7FDFC022818BF06286E
S3150000BC400CD15EB11AF077FA0020E872FDF7FCFE1F
S3150000BC50BDE8F04100210320FDF756BB18F0A3F91B
S3150000BC600DF050F90820E872002108F12000BDE827
S3150000BC70F0410AF01DBBBDE8F0810000400D030055
S3150000BC804FF47A72514390FBF1F201FB12017047B7
S3150000BC902DE9F0410646DFF8B48086B008F10800C9
S3150000BCA00AF056FBDFF8B455012EEE7204D045D3E8
S3150000BCB0032E0FD006D341E0002011F0D9FD40F24B
S3150000BCC0EE2104E0012011F0D3FD40F2E24100F044
S3150000BCD043F837E0DFF89C6501A906F10A000BF08E
S3150000BCE020FE41F6583100F037F8F41C524F207808
S3150000BCF0FEF7BEFF3878042808D1DFF8901501203A
S3150000BD000870962108F114000AF0D2FA607830B96A
S3150000BD10082206F10A0105F11C00F8F735FB387810
S3150000BD2096F8312004280CBF012300230020009040
S3150000BD3006F1210101A811F00EFE03E040F61801FC
S3150000BD4000F006F806B0BDE8F08100000CDE032026
S3150000BD500FF25450F4F7F8BC08F108000AF0A8BA3C
S3150000BD602DE9F041344D2878062882B003D140F6FB
S3150000BD701E01FFF7EDFFDFF8E444DFF81465DFF896
S3150000BD80F4840020E07208F1020706F108000AF0C8
S3150000BD90DFFAFFF735F9B87818B1FFF76EFE12F043
S3150000BDA0D7F9DFF8C004007868B9F88808F10A0105
S3150000BDB00AF0FCFB08F134010A7B8B6800924A68A2
S3150000BDC009680BF091F82878042804D1DFF8BC1430
S3150000BDD00020087012E002280CD1DFF8A4040078D5
S3150000BDE0C00758BF1AF062FD38781AF02FFF1AF014
S3150000BDF08CF903E0032808BF1AF058FDFDF724FE6E
S3150000BE003878122806D10B20707106F120000AF04E
S3150000BE109FFA0CE011280AD1FBF710FD0146207BA2
S3150000BE20884204D04FF47A72032116F0C9FEBDE8A9
S3150000BE30F34116F0E9BD00001AF4032070B5DFF8EF
S3150000BE401C44DFF83004E17A491E062900F1080592
S3150000BE504FF6FF7651D8DFE801F025393E19500438
S3150000BE600C000020E0724FF6FE70DFF82814088000
S3150000BE7008E0DFF81C5405F114000AF069FAEE80B8
S3150000BE800020E0721420BDE8704099E5C01C41789E
S3150000BE9011B10020E07270BD0078FEF7E9FEBDE842
S3150000BEA0704007E62888B0420ED0A87C022803DA44
S3150000BEB0287E202808DB01E003281ADADFF8D813E9
S3150000BEC0287E0978884214D2022013E02888B042DE
S3150000BED00FD1022003E0A98FB14203D10320BDE8B0
S3150000BEE0704035E600F144013C222846F8F74CFA4A
S3150000BEF0AE870320BDE87040CAE6BDE8704040F654
S3150000BF00AB010FF2A430F4F71FBCD449C97A032958
S3150000BF1005D1002818BFFFF723BF032018E6704796
S3150000BF2038B50D4604462888FFF773FC27D02B7ECC
S3150000BF30217E05F1130204F113001AF080F910B105
S3150000BF4001281EDB1BE0A17CA87C884221D1288821
S3150000BF50C0F30900411E20888941C0F30902501E22
S3150000BF608041C00FB0EBD17F15D1E868E2680102CD
S3150000BF701302090E1B0E8B4205D0994201DA0120ED
S3150000BF8032BD002032BD0BB9904202D1298A228AE5
S3150000BF9091428041C00F32BD70B5154682B004464D
S3150000BFA01E463C22F8F7F0F92846FEF7F3FB014659
S3150000BFB00822A01CF8F7E8F9B27B716B04F11900AE
S3150000BFC0F8F7E2F9B07B84F829000020B16EF8F7A3
S3150000BFD087FA44F82C0F0020F16EF8F781FA6060BA
S3150000BFE068460CF06BFE28B170680099814238BF34
S3150000BFF00CF0FBFD7068A060B07C207373BD2DE96A
S3150000C000F04F8B460BF11C0691B08046B06D019047
S3150000C010022140460BF1C004F9F7F4F825680746FB
S3150000C02029460020F8F75CFA814695F806A06A7959
S3150000C030019851461AF03CF910B917F0F0FE55E098
S3150000C04030880199ADF8080005220DF11B00F8F7BC
S3150000C0509BF98DF820A078B20AF030FE07460AF068
S3150000C06055FE2479824620460AF050FE0546308861
S3150000C07080050BD189480268100007D069460BF18C
S3150000C0801300904710B19DF8000003E05046A84207
S3150000C09088BF28468DF81A00E019ADF8180029F077
S3150000C0A07F4005909DF81A0000B3724E06F1080114
S3150000C0B002A8FFF735FF60B13C2206F1080106F140
S3150000C0C04400F8F761F95B46424602A906F108000A
S3150000C0D00AE006F1440102A8FFF722FF30B15B46F1
S3150000C0E0424602A906F14400FFF756FF11B0BDE82B
S3150000C0F0F08F0000A0F2032070B5044608465749A9
S3150000C100C97A032915460CD15A4E082206F10A01AE
S3150000C110F8F7A3F928B9F06BA84204D1706B8442F2
S3150000C12005D2002070BD3CBF281A4028F9D274639E
S3150000C130F563012070BD0000A4F203204D48836B17
S3150000C140934201D3002070470181511C8163012075
S3150000C15070470000DEDF032080B5FDF795F84D49F6
S3150000C160088000F00EF83D48072141710621C17292
S3150000C17040F2DC514A480AF09BF8BDE8014011F054
S3150000C1804DBB00210520FDF7BFB87FB53348C17A06
S3150000C190062927D10021C17200253948414E018860
S3150000C1A041F4004141F00101018003200021FDF727
S3150000C1B0ABF83B480AF0CCF812F099FC12F0DEF925
S3150000C1C012F056FD04460AE03268694602EBC500E5
S3150000C1D00BF0A7FB0221684611F05DFC6D1CEDB269
S3150000C1E0A542F1DB7FBD10B5FFF7CBFF1B48284CFE
S3150000C1F007214171C172FDF747F800F47C40E080E9
S3150000C200FFF718FA042804D1002104F114000AF0FB
S3150000C2104FF811F067FC04F10800BDE8104040F249
S3150000C220DC510AF045B880B50C48C17A072908D117
S3150000C2300021C172FEF7E5FEBDE8024018480AF08B
S3150000C24087B801BDE0DF03200448C07A072804BF91
S3150000C2500A20FFF77DBC7047B6F2032090F5032055
S3150000C2608EF303208DF30320ACF5032000F8FF07BF
S3150000C270C4F50320D4F50320DEF503202CF80320B3
S3150000C2801EF403202CDE032012F8032017FC0320E3
S3150000C2900CDE032028DF032055DF0320D4F703201C
S3150000C2A014DE032028DB03206A6F696E2E6300000C
S3150000C2B070B516F06BFB304C90F8560000074CBF7B
S3150000C2C025780025284609F071FC06000BD009F0F8
S3150000C2D0A9FC2A46211DF8F757F83046BDE87040FC
S3150000C2E00121FBF750BA70BD30B585B00446F8F7AA
S3150000C2F03EFD451D28460AF0D3F8285C072821D1C3
S3150000C300FCF7C2FF4FF6FF7188421EBF1B4C207818
S3150000C31003282ED0042818BF07282AD0184D2846EF
S3150000C32009F022FF28BB2078062802D017F077FDF7
S3150000C330F8B10AF0A3F800F07F00411C284609F086
S3150000C340B7FF16E0042814D12046FEF71CFAB0F514
S3150000C350404F204605D1FEF71DFA69460BF0E1FA7B
S3150000C36004E0FEF733FA69460BF0B5FA684611F0B9
S3150000C370E1FB05B030BD0000A0F203201AF4032053
S3150000C38068DD03202DE9F04794B080460121F8F7D7
S3150000C39039FF824602214046DFF8A87CF8F732FFD3
S3150000C3A038704046FEF737F9072804BF97F90000B2
S3150000C3B0F7F778F801F071F800F00500042803D1CA
S3150000C3C040460BF0E8F9DDE005214046F8F736FF78
S3150000C3D00006C00E10F0010533D040460AF0E9FA17
S3150000C3E00AF015FD6946404619F009FC48B3FCF70A
S3150000C3F04BFFBDF8041081422ED14046F8F7B7FC3A
S3150000C40081464046FEF7DAF804464046F8F7C7FC90
S3150000C4109DF80010001B461AF6B209EB04003246DE
S3150000C4200144F7F7B1FF311989B24046F8F7D0FC5D
S3150000C430BDF802104046FEF710F901F02EF801F0A3
S3150000C44027F840460DF052FC10B340460DF062FC52
S3150000C4505FEA000813D195E09DF801000228FADB97
S3150000C460404619F0F2FB4FF6FE714046FEF72DF9F5
S3150000C47000230022FF21404600F0A4FC82E0524641
S3150000C4800121F8F7C6FE3A7802214046F8F7C1FEC8
S3150000C49002A9404619F090FB002873D00DF1130055
S3150000C4A00CF0EBFF00286DD1002210210DF12300C6
S3150000C4B0F8F74CF8002865D19DF82300FF280CBF3B
S3150000C4C0142012200121FBF7FAF825B102A94046F3
S3150000C4D000F03FF956E0DFF8A85C287850B102A8D2
S3150000C4E000F079F830B16A6810004BD04146002060
S3150000C4F0904747E09DF83800112843D102A81AF06A
S3150000C5009FFD00283ED0DFF87C2CBDF84C00128839
S3150000C51090421EBFDFF8702C128890421EBFDFF8D3
S3150000C5206C2C1288904219D10DF123000BF008FAF9
S3150000C53040B30DF12B000BF084F920B90DF12B005F
S3150000C5400BF0A3F9F0B10DF113000BF0F9F9C8B136
S3150000C550002202A940460FF029FA13E044F64C5196
S3150000C56088420FD19DF82300FF280CBF00224246C7
S3150000C57002A940460FF0B2FE20B140460AF019FA71
S3150000C5800AF045FC14B0BDE8F087F0B593B00FF2A1
S3150000C5900C64DFF8B05ADFF8E86C15E0002130468D
S3150000C5A002F054F807466FF07F0028706946384657
S3150000C5B019F002FB20B940F209112046F4F7C4F83D
S3150000C5C06946384600F0C5F8304601F0F1FF00280C
S3150000C5D0E4D013B0F0BD38B5DFF8A84C218801B31C
S3150000C5E000F130052978112909D11AF029FD30B159
S3150000C5F02088698A81421CBFA98A81420FD0287887
S3150000C60006280ED16868F7F73EFF2188884206D0D3
S3150000C6106868801CF7F737FF2188884201D101201E
S3150000C62032BD002032BD2DE9F041DFF8544B0546FE
S3150000C630207894B08846B0B32846FDF7ECFF03286F
S3150000C64031D008F11B0708F13406787D3A280DD160
S3150000C65030680078B074643825D02138032822D990
S3150000C660163820D0801E01281DD911E011280FD1BF
S3150000C67040461AF0E5FC58B1308A44F64C518842DF
S3150000C6801FBF40F2222188424FF2BF0188420AD0E2
S3150000C690694638460BF026F938B1FCF7F5FDBDF8CA
S3150000C6A00010884201D100201AE03878FF280CD10A
S3150000C6B02846F8F7B6FD050011D001A919F07CFA55
S3150000C6C001A9284600F06FFD03E04146284600F028
S3150000C6D06AFD6268100002D02946002090470120BA
S3150000C6E014B0BDE8F0812DE9F04780460D46FDF710
S3150000C6F078FF0646686BB11D471A4046F8F74FFBB0
S3150000C7000446301DF7F7BFFE81464046F8F72FFB7B
S3150000C710696B611A00EB010AE86A2838B11D884284
S3150000C720BFB203D040F2671100F034FA696B1FFA0A
S3150000C7308AF2B01DF7F728FEE11B89B24046F8F7EA
S3150000C74047FB301DA9EB0701BDE8F04789B2F7F7B3
S3150000C750A4BE2DE9F84380468946FEF767F80646EB
S3150000C760484612F015FFC8B94FF6FE75AE42DFF81F
S3150000C770D478DFF8E84C03D009F10B0020607E8006
S3150000C7804946404600F00CF8002121607D8028B122
S3150000C7904946404600F004F80028F9D1BDE8F18387
S3150000C7A02DE9F04F82468B4697B00BF11B000BF03C
S3150000C7B0ECF806460BF11B001AF0D4FC814666B96C
S3150000C7C05046FDF718FF000707D50BF11B0012F0C6
S3150000C7D0DCFDFF2818BF012500D100255046FDF7D6
S3150000C7E00AFF00070BF10907DFF8584818D5002E95
S3150000C7F008BF002D14D1B87CFF2811D00BF11B0106
S3150000C8000BF10B0013F043FB50B9608869460BF03F
S3150000C81062F853466A46002101201AF079FE01E1CA
S3150000C82055EA06004FF6FE782AD05046FDF7FEFF81
S3150000C8300546454509D15046FDF7A5FFB0F5004F21
S3150000C84003D15046FDF705FF0546454518D0284655
S3150000C85011F0C4FC18B1284612F0E6FC80B10BF1C9
S3150000C8600B000BF059F820B90BF10B0017F055FE31
S3150000C87030B101232A460BF11301002013F0B6FD57
S3150000C8805046FDF780FFFF25B0F5404F504604D1D6
S3150000C890FDF780FF00F01AFB09E0FDF774FFB0F525
S3150000C8A0004F05D15046FDF791FFF6F755FD0546B9
S3150000C8B094F90010284612F0EAFA59EA06004DD01B
S3150000C8C00BF12C00017929293ED13978002902BFC4
S3150000C8D0006880786D282DD15046F8F760FA00215F
S3150000C8E0F8F75BFB0028814699D05046F8F757FACF
S3150000C8F004465046F8F73BFA05464846F8F737FA35
S3150000C90022462946F7F740FD04A9484619F054F98E
S3150000C91004A94846FFF7E7FE04A9484619F04CF972
S3150000C92004A94846FFF77FFE30BB04A9484600F03D
S3150000C930A0F821E059465046FFF7D5FE5946504625
S3150000C94019F03AF901206EE059465046FFF76BFEA2
S3150000C95090B95946504600F08CF80DE0DFF8000B10
S3150000C9600078022808D17878022805DA5B46524614
S3150000C970002103201AF0B6FD00F05FFB00F0010075
S3150000C98080F0010030434DD1787802284ADB0BF164
S3150000C9900B000AF0D5FF002844D10BF11B000AF06A
S3150000C9A0CFFF00283ED1002210210BF10B00F7F734
S3150000C9B0CDFD002836D10BF11B000BF011F888BB1A
S3150000C9C00BF11B000BF013F860BB0BF11B000AF018
S3150000C9D0E7FF38BB7878401E78705146584619F004
S3150000C9E0F5F85046FDF70EFEB87CFF2810D14FF63D
S3150000C9F0FF715046FDF769FE09F040FDDFF8642A35
S3150000CA00127801219140491E01EA0003022205E045
S3150000CA1041465046FDF759FE0023FF22594650462F
S3150000CA2000F0A6F9002017B0BDE8F08FF8B504466F
S3150000CA300121F8F742FADFF8485810B900222146DA
S3150000CA4011E001212046F8F777FA06460021F8F7AB
S3150000CA50A4FA07000CD0F8F78AF932462146F8F70F
S3150000CA601AFB002239462846BDE8F84001F0BDBD54
S3150000CA70F1BDF8B50D4605F13006044637783A2F74
S3150000CA8013D0112F0FD17068801DF7F7FCFC60B929
S3150000CA902888B0F5A06F0FDD2B4622460021022024
S3150000CAA01AF020FDF1BD062FF2D1294620461AF0D4
S3150000CAB0FDF90028ECD0F1BD694605F11B000AF02E
S3150000CAC011FF08B3BDF80000DFF89C190818082804
S3150000CAD01AD2112F5DD1DFF89419BDF8000009783C
S3150000CAE000F0070001F00701884252D1FCF7CCFBA9
S3150000CAF0DFF87C19098888424BD128461AF0A0FA3B
S3150000CB00284615F0FCF9F1BD062F39D0112F15D0A6
S3150000CB10292F3AD03A2F3CD12888042839DB70686F
S3150000CB200078B075042170684078F07528461AF0D0
S3150000CB3077F92946204600F054F8F1BD28461AF048
S3150000CB407FFA30B32046FDF766FD032804D1294657
S3150000CB50204619F089FDF1BDB08A44F64C51884251
S3150000CB6009D1E87EFF280CBF00222246294620462E
S3150000CB700FF0B4FBF1BD294620460DF0D1FDF1BD05
S3150000CB80294620461AF0EBFCF1BD40F2772100F071
S3150000CB9001F8F1BD0FF20400F3F7D6BD64697370B6
S3150000CBA0617463682E63000070B50D460446E86B39
S3150000CBB0B0B12046F8F7DBF806462046F8F7EFF85E
S3150000CBC0EA6BB5F840103044801A814203D040F237
S3150000CBD08221FFF7DFFF2846BDE87040FAF763BD04
S3150000CBE070BD2DE9F041884608F13C0598B006462F
S3150000CBF02868002878D0A97A012956D080296FD1D3
S3150000CC0041463046FFF7D0FF08F11B000AF0BDFE93
S3150000CC10070008D0102208F11B010DF12300F7F7D9
S3150000CC20B3FB002400E008243046FDF7E4FCC00610
S3150000CC3048BF44F020043046FDF7DDFCDFF83468D9
S3150000CC403388C006A88848BF44F02004834208D22F
S3150000CC50C21A286892B200211844F7F7F7FB308809
S3150000CC60A880002FA888059014BF08F11B03002395
S3150000CC70286804902246002003900021812002901B
S3150000CC804020019008F10B00009006A81AF0FAF96E
S3150000CC90040029D0FDF7B6FC00200090FF230122F6
S3150000CCA006A9204600F023F81EE000F11C056A469E
S3150000CCB0802128461AF0BFFCB0B100F0BEF900078B
S3150000CCC012D5002128460AF00DFE68B99DF800002D
S3150000CCD00123002205F1080113F05CFC012803D1B1
S3150000CCE041463046FFF760FF18B0BDE8F081F8B561
S3150000CCF004460D4616461F461AF02AF905F11B0092
S3150000CD000AF043FE20B905F11B000AF069FE30B1B6
S3150000CD101EB100F0DFF80120F2BD0020F2BD36B1F1
S3150000CD2005F11B001AF01EFA08B100F0D3F8069BB5
S3150000CD303A462946204601B0BDE8F04018E038B52D
S3150000CD4004460D4605F11B000AF0B6FD18B100F0C9
S3150000CD50C1F8012032BD05F11B001AF003FA08B133
S3150000CD6000F0B8F829462046BDE834400023FF22EB
S3150000CD70F8B5044601F11B0715461E4638460AF06B
S3150000CD800FFE18B938460AF01BFE28B1F87B0128B9
S3150000CD9004BF204608F008FD38460AF028FE18B9F8
S3150000CDA038460AF0FDFD10B1FF2D08BF00253246BA
S3150000CDB02946387801B0FF282046BDE8F0400CBF70
S3150000CDC0012300232DE9F0410D46FF2D92B00446C4
S3150000CDD016461F4608BF0225FDF70DFCC0074FF695
S3150000CDE0FE781CD52046FDF71EFCB0F5006F16D167
S3150000CDF000F02AF9404504D02046FDF7FCFB8006EA
S3150000CE000DD50021204600F03FFA00285BD001280E
S3150000CE1005D11722062120460CF064FE2FE0002FD4
S3150000CE2014BF152013200121FAF749FC05212046DD
S3150000CE30F8F704FA00070CD46946204618F0BCFE41
S3150000CE4038B16846FFF7C7FB00F0010080F0010724
S3150000CE5000E001272046FDF7E6FBB0F5006F03D0A2
S3150000CE60B0F5406F13D029E000F0EEF8404508D148
S3150000CE70C3484268100002D0214600209047012096
S3150000CE8021E000F0E1F812F0C3F938420EE0204646
S3150000CE90FDF7D0FB00F01AF8FF280FD0DFF8D81501
S3150000CEA0096811F81000400708D5002F06D0204663
S3150000CEB008F0C3F9401E8041C00F04E032462946FF
S3150000CEC020460CF00FFE12B0BDE8F08101460020AE
S3150000CED011F09EBE29462046A8E538B504462588A9
S3150000CEE02846FDF788FB00F0050004283CD02846BC
S3150000CEF0FDF781FBC00726D52846FDF794FBB0F564
S3150000CF00006F20D12846FDF7A4FB4FF6FE7188423C
S3150000CF1004D02846FDF76FFB800614D5012128466C
S3150000CF2000F0B2F968B101280DD1A17801F00F0126
S3150000CF30C1F106018840172110FB01F0A080BA203C
S3150000CF4032BDA92032BD2846FDF765FB01280BD16D
S3150000CF50284610F024FC010002D02080182032BDA3
S3150000CF6020880028FAD132BD002032BDF8B504462B
S3150000CF700D466E1EB641FDF756FB074605212046B7
S3150000CF80F8F75CF9F60F00F00700032815D12046E4
S3150000CF90F7F7EDFE441D204609F082FA205C0428CE
S3150000CFA04AD1FCF7ADF9032846D10EB119F045FD7B
S3150000CFB02846BDE8F24007F071BB3EBBB7F5006FEF
S3150000CFC03AD100F041F8402D064615D100F035F86B
S3150000CFD0C00711D5B0050FD12046FDF70CFB0007A1
S3150000CFE0354603D5304611F0ADFC0546284609F016
S3150000CFF055FC002109F0C9FB4FF6FE7086421BDA8C
S3150000D000BDE8F44001210920FAF759BBFF20B7F526
S3150000D010404F05D12046FDF70DFBFFF757FF06E011
S3150000D020B7F5004F03D100F00FF8F6F795F9BDE814
S3150000D030F440002111F02BBFF1BDDFF84004007869
S3150000D04070470000E4DF03202046FDF702BB38B539
S3150000D0500446FDF7E8FA0546DFF8040400780328DD
S3150000D06018BF042805D0022812D1FFF7E6FFC00733
S3150000D0700ED42046FDF7BFFA00071AD4B5F5006FA7
S3150000D08008D1FFF7E1FFDFF8F8130988884210D0CE
S3150000D090002032BDB5F5406FFAD12046FDF7CAFA39
S3150000D0A00822DFF8E013F7F7D8F9401E8041C00FD9
S3150000D0B032BD012032BD2DE9F84381460E46FDF70B
S3150000D0C0B2FA00250746B7F5006F03D14846FDF7CB
S3150000D0D0C0FA01E04FF6FE70002FDFF8AC73DFF800
S3150000D0E0AC431BBF4FF6FF7188424FF00108A846BC
S3150000D0F039786068491C081860604846FFF7A7FF42
S3150000D10058B1402E08D12078401C2070C0B20428A7
S3150000D11003DB0720FEF754FC2570300006D10125FD
S3150000D120B8F1000F0FD001210B2015E0312E08BFFA
S3150000D1300026F5D08D2EF3D1B8F1000F14BF0C20C8
S3150000D1400820012108E030000CBF0620072001213D
S3150000D150FAF7B5FA39780A20FAF7B1FA31464846AD
S3150000D16008F0D8FB50B9314648460CF0F3FC28B914
S3150000D1702A4631464846BDE8F843F7E6BDE8F1835E
S3150000D180A8F70320DCDF0320DEDF0320E0DF032037
S3150000D19038B504460D460DF0AFF929462046BDE8E0
S3150000D1A038400022E2E6F8B50D460446687AE8B94A
S3150000D1B0288805F13007A0F108067968E86AB2B256
S3150000D1C0F7F7E2F8E86A78602E80387868722046C9
S3150000D1D0F7F7E5FDA0F1080189B22046F7F7F8FD5B
S3150000D1E021462846BDE8F44018F0F0BCF1BD30B544
S3150000D1F0054605F47F40B0F57C4F85B04FF6FF74C9
S3150000D2003BD1B5F57C4F02D116F059FF36E04FF60B
S3150000D2101040854219DA102200216846F7F716F900
S3150000D2206946E8B21AF0EEF9402826DB00224021D2
S3150000D230684617F06BF94FF6FE75A8421ED1684690
S3150000D24017F067F9A84219D117E04FF63042954218
S3150000D25004DA05F00F0017F030FA0FE04FF6384009
S3150000D26085420ADA82480088A04206D07F4B1B78A6
S3150000D27003F007031A43954200D0204605B030BD9F
S3150000D28036FB032034FB03202DE9F04196B00D4612
S3150000D2904FF6FF768046ADF8046002A918F0AFFCA1
S3150000D2A0A8B3BDF80C00ADF8040010F097FF30B33A
S3150000D2B0BDF8040011F0CBFFF0B94046FDF791F937
S3150000D2C09DF808100844851DBDF80A0004A90AF057
S3150000D2D002FB4046F7F763FD06464046F7F747FD73
S3150000D2E0711B401880B200902B4604AA0021012031
S3150000D2F01AF0B8F80020AEE0BDF80C7091E0BDF869
S3150000D3000C0011F01FFB0746B742F7D1F2E75B4C62
S3150000D3105B4F207800073FD504A9404618F04CFC27
S3150000D3200DF12B0012F031F8FF2803D011F05FFF4A
S3150000D330074676E00DF12B000BF0C8FD28B90DF17C
S3150000D3402B0017F0EAF8002850D001A90DF12B00A8
S3150000D3500AF0C8FAE8B1BDF8040010F03FFF002853
S3150000D360C8D1BDF8040000F47F40B0F57C4F07D16A
S3150000D370BDF80400FFF73BFFB042ADF80400B9D09A
S3150000D380BDF8040011F0DEFAB04223D0BDF80470F7
S3150000D39043E02078000704D439884046FDF795F924
S3150000D3A058E06A4680210DF12B001AF044F9002856
S3150000D3B051D09DF8000001230DF102020DF1330159
S3150000D3C013F0E8F8022846D1BDF8020011F0BAFAC7
S3150000D3D0B04201D101203EE0BDF802104046FDF703
S3150000D3E074F900F05AF800F053F833E00DF11B0120
S3150000D3F00DF12B0017F005F906464FF6FE77BE42F3
S3150000D40023D0FBF741FF864218BF374605D10DF101
S3150000D4101B000BF02DFE002817D000F03EF800F0A0
S3150000D42037F800F03AF8800610D54046FDF711F9B6
S3150000D4303946884208BF002D08D1BDF8040009F01E
S3150000D440FDF901211E20FAF73AF953E7394640461D
S3150000D450FDF703F9022016B0BDE8F081B0F703200E
S3150000D4601AF40320FCDF0320D003FFFF52F403204D
S3150000D47056F40320E8DF032020DB03201EF40320FC
S3150000D48012DE0320ACF5032011FC0320B4F70320C1
S3150000D49040F008014046FDF7B1B84046FDF7ABB88D
S3150000D4A010B5DFF8004BDFF8003B2488001B06E0D0
S3150000D4B010B5DFF8F84ADFF8F03A24681B1B03EBD7
S3150000D4C04000002304E030F8134021F813405B1CB1
S3150000D4D09342F8DB002010BD2DE9F04182B00446EE
S3150000D4E00D4616460027DFF8C08A01E0BF1CFFB2D2
S3150000D4F0B74217DAE819E95D4078DFF8A83A1B88E1
S3150000D50001EB0020ADF80000012207EBD77004EB19
S3150000D5106000C01A00F09DFB0100E7D0F5F777FF29
S3150000D520002000E00120BDE8F681F8B504460F466C
S3150000D530154600260DE000F019F8BDF8000004EBD2
S3150000D5404601000A48707F1CBDF8000004F816006A
S3150000D550761CB6EB550FEEDBE80706D500F006F8AD
S3150000D560BDF80000611901F8010CF1BD0122694600
S3150000D570B8B295E7DFF82C2ADFF82C1A1288801A41
S3150000D58001EB40010220FBF7E5BADFF8241ADFF8C9
S3150000D590242A095C125CDFF8203A185C10B102F507
S3150000D5A0997292B241EAC21080B27047DFF8003A2F
S3150000D5B0DFF8082A1B5C012B1CBF32F81000081884
S3150000D5C002EB4000704738B50C46DFF8F4190D78C9
S3150000D5D02A462146FFF764FF208801001CBF4FF64C
S3150000D5E0FF7188420BD0012000E0401CC1B2A94265
S3150000D5F007D2C0B234F8101022889142F5D000202C
S3150000D60032BD012032BDF0B5DFF8A01987B0086041
S3150000D6100C2269460020FFF74BFFBDF81600BDF847
S3150000D6200C200346040A012000254FF6FF763DF83C
S3150000D6301570BDF80010B94203D1B74218BF002FCC
S3150000D64000D100206D1C062DF1DBB21A914218BFE5
S3150000D6500020DBB2C4F1FF018B4218BF002007B0E7
S3150000D660F0BD2DE9F24F0446DFF85869002030700E
S3150000D67070809CB0DFF850090088ADF8020007A959
S3150000D680FFF7A1FF83460120707009A9DFF83C0966
S3150000D6900588DFF83C09B0F80080DFF8080907883C
S3150000D6A0BDF802A03846FFF78EFFB8B1BBF1000FF8
S3150000D6B03DD0BDF81C10BDF824004FF6FE72914215
S3150000D6C002D1012804D10CE0012908BF90422ED0D6
S3150000D6D00846BDF82410884229D202E0BBF1000FAB
S3150000D6E024D000207070029750460695CDF8108021
S3150000D6F00122DFF8CC1891F800804044ADF806000E
S3150000D7006946BDF80600FFF7CBFEDFF8C8080088BB
S3150000D71005904FF6FF79BDF80000000B404518BF95
S3150000D7200F2801D1200021D0002516E001247078B1
S3150000D7300028D8D03846CDF808A0CDF81880049532
S3150000D740D6E7059805FB00F4E01900F051FCBDF89A
S3150000D7500200201800F04CFC6D1C4545F1DB012051
S3150000D76030704D20F5F753FE0025F7E0BDF8065062
S3150000D770012201A92846FFF793FEBDF80400C04325
S3150000D78000F0FF00ADF804006F1CDFF84C080588B8
S3150000D790BDF80400A84218BF01244FF0000A20E09B
S3150000D7A0401CC1B2A94218D2C0B2DFF83018BDF889
S3150000D7B00E20834631F81B109142F1D1FFF7E5FEAA
S3150000D7C04FF680710840BDF80C104FF6807211407C
S3150000D7D0884204BF1C9800F80BA00AF101001FFA4A
S3150000D7E080FABDF80400824507DA022203A9B8B21E
S3150000D7F0FFF756FEBF1C0020D3E7002001E0401CC7
S3150000D80080B2A84217DA1C99095C8142F7D001243C
S3150000D81011E02AF81070BDF8060000EB4300401C2A
S3150000D82000F0DAFABDF80200C0F3C710401C00EBA6
S3150000D830D07007EB60070498DFF880A7BFB2874275
S3150000D8400EDA00F099F8BDF80000484508D0030A42
S3150000D85000F07F01BDF804007F1C834202DB012437
S3150000D86000252DE0002000E0401CA842D3DA1C9AD7
S3150000D870125C9A42F8D1C0B2FF28CCD0DFF830272C
S3150000D880125C7F290CBF4FF0000C8C4694450BDAD6
S3150000D890BDF800C0DFF820E71EF800E04FEA0C6C88
S3150000D8A04FEADC7CF44501D00124B4E7012AB0D06C
S3150000D8B07F293AF8100008BF00210818A9E76D1C57
S3150000D8C0DFF81C070088854204DA3AF81500484557
S3150000D8D0F5D1012477800498BFB2874207DA00F0B9
S3150000D8E04BF8BDF800007F1C4845F4D039E7002C02
S3150000D8F0FCD1029801220BA980B2FFF7D1FDBDF839
S3150000D9002C0048450DD105E0401C80B2202813DBD1
S3150000D9102034A4B20699029A891A8C4205DB0120AA
S3150000D920307000201DB0BDE8F08FA51820220BA98D
S3150000D930A8B2FFF7B5FD00200BA931F81010494534
S3150000D940E2D0A8B2FFF716FE203CA4B2E0E70298A8
S3150000D950059905FB010000F04BFB6D1C4545F6DB08
S3150000D96001203070494600F046F818B100F035F94C
S3150000D9700028D6D10120D5E70122694638468FE531
S3150000D9802DE9F0420F46DFF85016DFF828560988D1
S3150000D9908F420446164699460CD2DFF81416C95D26
S3150000D9A030467F2808BF0020884203DAE95D8945B2
S3150000D9B000D11CB940F2D54100F00AFA314638468A
S3150000D9C0FFF7F4FD0188DFF8F005C05D60B1384669
S3150000D9D000F02BFAE95D012908BF207009D0022961
S3150000D9E014BF2060208004E04A462046BDE8F0428D
S3150000D9F09BE5BDE8F0822DE9F34FDFF8A805DFF8D7
S3150000DA00C0150488DFF8BC050978407883B0002883
S3150000DA101ABFDFF8B405008820460D18DFF8B805F0
S3150000DA200088ADF80800ADB2C04300F0FF0000EB7F
S3150000DA30013000F55060ADF802002B1BDFF86805D9
S3150000DA4001220DF1020100F0D7FA6E1C0100B6B2F8
S3150000DA503AD10025DFF8847513E0E8B2FFF795FDAB
S3150000DA60ADF80400331B37F81500ADF806000222A6
S3150000DA70DFF8340500F0BFFA010025D1B61CB6B2B6
S3150000DA806D1CBDF808008542E7DB002500E06D1C33
S3150000DA90BDF80800854280F29B80DFF81C05405DDA
S3150000DAA08DF80A004FF0000A1BE001220DF1020179
S3150000DAB01FFA89F0FFF7F4FCBB19DFF8EC0400F05D
S3150000DAC091F9010009F101097AD17F1CFFB2B7EB88
S3150000DAD01B6FEADBDFF80C05405D3618B6B20AF1BB
S3150000DAE0010ADFF8CC04475D5FFA8AF0B842CED26D
S3150000DAF05FFA8AF1E8B2FFF759FD80469DF80A0001
S3150000DB00B8F80090C00140EA0520ADF80000012FEA
S3150000DB10BDF800000EBF40F07F005FFA8AFA4AEABD
S3150000DB200000ADF80000311BDFF87C0400EB41007B
S3150000DB304FF6FF71771C89451EBFBDF80010BDF872
S3150000DB4010209142BFB219D19DF80C100029C6D001
S3150000DB5001226946FBF73AF801003E4630D1DFF86C
S3150000DB605404A8F80060425DDFF87C0450F82510E4
S3150000DB703046FFF7B1FC0028ACD124E0DFF83414BE
S3150000DB80495D491C01EBD1714FEAC15B012269462F
S3150000DB90FBF71CF801003E4612D1A8F800609DF87C
S3150000DBA00A0098B14946E8B200F03FF90190331BEC
S3150000DBB0DFF8F4034FEA1B6200F01DFA010089D07A
S3150000DBC0F5F725FC002005B0BDE8F08F00277DE7BE
S3150000DBD0DFF8F00346800120F5E7DFF8EC032DE9D6
S3150000DBE0F0410688DFF8BC03DFF8D853048868786C
S3150000DBF0DFF8B483002882B012BF2046304626469E
S3150000DC0001226946FFF74CFCBDF8000001280CBF55
S3150000DC104FF6FE70401EADF80000DFF8A40307784B
S3150000DC203846471E80B258B116FA87F0001B01220B
S3150000DC3000F00FF80100F3D0F5F7E9FB002006E04D
S3150000DC40687880F001006870002028700120BDE827
S3150000DC50F681694608EB4000FAF7B8BF2DE9FE4F9A
S3150000DC600D46DFF8741309888842044617461E4697
S3150000DC704FF000094FF001080CD2CD49095D384636
S3150000DC807F2808BF0020884204DACA49095D8E420F
S3150000DC9000D11DB940F2F95100F09AF839462046F4
S3150000DCA0FFF784FC0190C74F787820B1C748B0F8D9
S3150000DCB000A0BC4803E0C648B0F800A0C2483978C6
S3150000DCC0008849B97988081AC84909888842B4BFC2
S3150000DCD043204420F5F79BFB01980188B648005D78
S3150000DCE0F8B1204600F0A1F8012E08BF297803D02C
S3150000DCF0022E0CBF29882968814267D001980088C6
S3150000DD00401E00F069F8B748065D7888AAF101015F
S3150000DD10891B814201DB002837D1387868BB452052
S3150000DD2046E00291CB4622E002980BEBDB7300EB58
S3150000DD30630000F0F3F805EB0B0015F80B104078C4
S3150000DD4001EB0020711E8B4580B207D1BDF8001093
S3150000DD5001F0FF0100F0FF00ADF80010BDF8001063
S3150000DD6088420BF1020018BFC8465FFA80FBB34534
S3150000DD70DADBB8F1000FC1D028E0BDF802100020B0
S3150000DD80FFF739FE10B34FF0010978888949401C26
S3150000DD90788080B20A5D2946FFF79EFBB0B1814CC0
S3150000DDA07B88248880485B1E00F01CF8010002D0A6
S3150000DDB0F5F72DFB0AE0B9F1000F02D0FFF70DFFD2
S3150000DDC020B101997888088080197880BDE8F78F9E
S3150000DDD00FF22C20F2F7B8BC01220DF1020180B23D
S3150000DDE0FFF75EBB1B1B01220DF1020100EB430096
S3150000DDF0FAF7ECBE70B582B004460025192601225A
S3150000DE006946A0B2FFF74CFBBDF80000641C20B1C8
S3150000DE104FF6FF71884203D004E06D1C761EEED1EA
S3150000DE2068B276BDE84340B276BD38B50C460021EF
S3150000DE30009160490D5C2A4621466846FFF775FB4E
S3150000DE40681C00EBD07004EB600080B2FFF7D2FFD5
S3150000DE500028009948BFC04341FA80F032BDF0B5B2
S3150000DE605D4909880446554883B0264630F8165061
S3150000DE708C4202D25048805D18B940F23D71FFF7DE
S3150000DE80A7FF4C48865D701C00EBD07005EB600761
S3150000DE90B8B2FFF7AFFF19280FD210FA87F0414F3B
S3150000DEA0414B3F880021ADF80410C01B012201A997
S3150000DEB003EB4000FAF78AFE60B129462046FFF7D9
S3150000DEC0B4FF00903346401C00907F2269462046EE
S3150000DED0FFF7C4FEF7BD70B53A48017882B000245A
S3150000DEE0D1B94078002814BF37482E4805883448F1
S3150000DEF006780CE0284650FA86F000F00FF8BDF8D8
S3150000DF00000000281EBF4FF6FF718842641C304691
S3150000DF10461EC0B20028EDD1E0B276BD01226946A8
S3150000DF2080B2FFF7BDBAF8B5264C20780027002846
S3150000DF3035D11C480588607800281ABF2248068813
S3150000DF402E461F4807783846471EC0B202281FDBF8
S3150000DF50304650FA87F0FFF7E1FFBDF800000028D1
S3150000DF60F1D01C480088FFB207FB006000F040F8C3
S3150000DF700020ADF80000BB190B485B1B0122694667
S3150000DF8000F03AF8010018BFF5F741FA3846F2BD3D
S3150000DF903046FFF7EFFAF8B208B901202070F8B260
S3150000DFA0F2BD0000F281030000E00F0080F20320C2
S3150000DFB0A874030098740300887403008CEC032093
S3150000DFC01982030020FB0320F6810300F48103007D
S3150000DFD0F8810300F0810300FC8103006C740300E8
S3150000DFE0FE810300B86E0300B8770300FA810300D0
S3150000DFF080B2FFF7BFBA01A900EB4300FAF7E6BD0E
S3150000E00073696D2D656570726F6D2D696E746572BD
S3150000E0106E616C2E630000002DE9F04F85B08046DE
S3150000E0200E22FF216846F6F711FADFF8A8A0422271
S3150000E030FF215046F6F70AFA0E250027264CDFF890
S3150000E0409C90274EF05D19F807B0E15D401C00EB8F
S3150000E050D070401001B11930401C00FB0BF2214872
S3150000E06030F81710204892B2F3F76AFEBBF1010FA1
S3150000E0701CBF2AF817505D447F1C0E2FE2DB1B489D
S3150000E0800E2340F21C4240F28B21F3F759FE4FF467
S3150000E090E040FFF7B8FA164D18B19D212846F2F771
S3150000E0A053FB4FF48040FFF7AEFA18B19F21284684
S3150000E0B0F2F74AFB4FF48050FFF7A5FA18B1A121F9
S3150000E0C02846F2F741FB69464046FFF7CAFA05B013
S3150000E0D0BDE8F08F8CEC032088740300A87403005D
S3150000E0E0987403006C7403006C6E0300886E030062
S3150000E0F05C6E030072B61EF0080F08D01EF0040F07
S3150000E1000BD0DFF848E0AEE8FF1F11480AE0DFF861
S3150000E1103CE0AEE8FF1F0F4804E0DFF830E0AEE871
S3150000E120FF1F0D486946EFF309828EE80700864611
S3150000E1300A480B4C854501D3A54501D384F30888CD
S3150000E140F2F71AFB84F30888F3F75AFF040000205D
S3150000E150FDFFFFFFF1FFFFFFF9FFFFFF78C9032077
S3150000E16010D8032080B500F00CF82249224A09682D
S3150000E170C1F30821491CB0FBF1F0106002BD1F4835
S3150000E18070471F48016801F00701022909D00AD328
S3150000E190042901D002D306E01A4905E04FF40041F4
S3150000E1A003E0194900E019490968C06EC0F304206C
S3150000E1B0401CB1FBF0F070471348006870471249E5
S3150000E1C008600F48006800F00700022808BFFFF744
S3150000E1D0C9BF70470E48016841F47001016070477D
S3150000E1E04FF4004070474FF47A7070470548006856
S3150000E1F07047000008410E40C8DB032000F04902CA
S3150000E20094400E40C4DB0320C0DB0320CCDB03209C
S3150000E21088ED00E0890001EB401000F184400260C7
S3150000E220704700F1806300F1C060196002607047BA
S3150000E2303023464A584310440C3000F1806006E013
S3150000E2403023424A584310440C3000F1C06001228A
S3150000E25002FA01F1016070473D490A68920840EAF6
S3150000E2608200086070472DE9F04101F0030814466A
S3150000E27003270F21082C1D460CD2A60000FA06F231
S3150000E280B1403448FFF7CDFF08FA06F207FA06F167
S3150000E29031480DE0A4F10802960000FA06F2B140FA
S3150000E2A02E48FFF7BEFF08FA06F207FA06F12C48D9
S3150000E2B0FFF7B7FF2A4621462A482B4DFFF7AAFF4C
S3150000E2C0069A21462846FFF7A5FF0120A0402861AF
S3150000E2D02146079A2548BDE8F0419BE7F8B5044674
S3150000E2E0164630000D461F4607D0002F204602D0A6
S3150000E2F0FFF7A6FF01E0FFF79BFF30210F2213482F
S3150000E30011FB04F1082D084405D2AB00416800F06A
S3150000E31015F8416006E0A5F108039B00816800F04E
S3150000E3200DF881604EB9002F2946204602D0BDE87F
S3150000E330F44085E7BDE8F4407AE7F1BD9A4021EA6A
S3150000E340020206FA03F111437047000000A00040E4
S3150000E35044A4004000A4004008A4004004A40040D7
S3150000E3600CA4004010A4004014A4004028A40040BF
S3150000E37010B5DFF85411DFF85441E1610320206144
S3150000E3806061102121620021DFF84401A061A162D1
S3150000E39020666162E16221670422DFF83801606667
S3150000E3A01020A066E1666167E01D29A1F4F738F840
S3150000E3B00722DFF824112046F4F742F82020A07146
S3150000E3C010BD2DE9F843DFF8047106463878894612
S3150000E3D0904608B9FFF7CCFF18207043384400F187
S3150000E3E0600600253769F468BC4212D2B068C51BC6
S3150000E3F07068454588BF4546C1192A464846F4F720
S3150000E4000FF8B068EF198742A944A8EB050808BFC2
S3150000E4100027E41B444588BF44463CB17068C119D7
S3150000E42022464846F3F7FCFF6519E71905B137613F
S3150000E4302846BDE8F283F8B504460D461646F4F7BD
S3150000E4406DFA0746324629462046FFF7BAFF01E035
S3150000E4505254540004463846F4F79DFA2046F2BD5D
S3150000E4602DE9F84300F027F808B9FFF781FFF4F724
S3150000E47055FA79690026182202FB06F3FB185B6E33
S3150000E48013B1761C8E42F7DB8E420CDA02FB06F1E4
S3150000E490791800220C664D66C1F868800A67CA665C
S3150000E4A0C1F8749001E04FF0FF36FFE7F4F773FA16
S3150000E4B03046BDE8F283054F044638780D4690464F
S3150000E4C09946704754E700006CEC032000E00320F7
S3150000E4D0486E03007CEC0320546E03000A460902D2
S3150000E4E041EA12214840C0F30311484080EA003057
S3150000E4F041010206C9B2D20E41EA0221484080B269
S3150000E5007047000062F30F2262F31F42401810F0BA
S3150000E510030308D0C91A1FD3DB0748BF00F8012D33
S3150000E52028BF20F8022D130030B4144615461039C2
S3150000E53028BF20E93C00FAD8490728BF20E90C008B
S3150000E54048BF40F8042D890028BF20F8022D48BF97
S3150000E55000F8012D30BC7047C91818BF00F8012D0E
S3150000E560CB0728BF00F8012D70470000820707D0AF
S3150000E57010F8012B11F8013BBAB19A42F6D014E01B
S3150000E58002680B689A42A2F1013301BF934313F06C
S3150000E590803F50F8042F51F8043FF3D010F8012BB8
S3150000E5A011F8013B0AB19A42F8D0D01A7047000020
S3150000E5B00188481E8041C00F704738B504460025C3
S3150000E5C054B1002100F009F803E0204600F034F8C9
S3150000E5D06D1C0100F9D1A8B232BD008802001CBF33
S3150000E5E0C9B2F6F76ABC002070472DE9F04104462F
S3150000E5F00D4627883800164608BFA84608D0F1B24F
S3150000E600F6F75BFC80462A46F1B23846F6F76CFC14
S3150000E610424600F003F82580BDE8F081F1B22846B5
S3150000E620F6F762BC38B5044600222588FFF7DDFF01
S3150000E630280018BF258031BD008881420A4601D1D5
S3150000E6400020704700211046F6F737BCF8B504469F
S3150000E6500D462688300001D10020F2BDC9B2F6F77A
S3150000E6602CFCB042074602D10020208007E0E9B228
S3150000E670F6F723FC0246E9B23046F6F735FC2A46A1
S3150000E68000213846F6F730FC3846F2BD2DE9F8434E
S3150000E69004468846278816460FB9002026E03D46E0
S3150000E6A02846F6F77CFB814605E00546F6F777FB3C
S3150000E6B048441FFA80F9F1B22846F6F7FEFB4045BA
S3150000E6C011D1F1B2F6F7F9FB0246FFF7A7FF47456E
S3150000E6D003D1BD4208BF002525800022F1B2404685
S3150000E6E0F6F702FC01E0B842DFD14846BDE8F28306
S3150000E6F02DE9F8430D46044690462F4605E041466F
S3150000E7002046FFF7A3FFBF1BBFB28FB1208878B1A9
S3150000E71041462046FFF761FF8146F6F740FB064675
S3150000E720B742ECDAF11B89B24846F6F79CFB0027A4
S3150000E730E81B80B2BDE8F2832DE9F0470C46078856
S3150000E740200092461E46B84623D00FF26C193FB9F8
S3150000E750C92102E0B84503D1D6214846F1F7F4FFB6
S3150000E760F1B24046F6F7A9FB8046F6F718FB0546D8
S3150000E770A1B28D4288BF0D464046F6F7F8FA01462B
S3150000E7802A465046F5F700FE641BA0B20028AA44AC
S3150000E790E0D1BDE8F08770B504462588280008D08A
S3150000E7A00121F6F78AFB064600220121FFF737FF13
S3150000E7B0268070BD2DE9F84F0D46044690461F464B
S3150000E7C00021FFF70AFF8146002603E0494600F0D4
S3150000E7D045F881465FEA090019D0F6F7C8FA83467C
S3150000E7E04846F6F7DCFA0BEB000A02E06088834441
S3150000E7F0761CD3453EBFA188B0B28842E6D24146D8
S3150000E8005846A8470028F1D007B13E805846BDE8D3
S3150000E810F28F70B504460D46A08801001CD0401E3C
S3150000E820A84219DB00212046FFF7D7FE064660887E
S3150000E83015FB00F504E02D1A314600F00FF80646E8
S3150000E840300009D0F6F7ABFAADB28542F3DA3046BE
S3150000E850F6F78DFA284470BD002070BD2046EBE621
S3150000E86070B504460D46E088010009D0401EE080E0
S3150000E8702046A188491CA180491EBDE87040C8E712
S3150000E880608810FB05F0002180B2F6F786FB0600D3
S3150000E89001D1002070BD002231462046FFF7A5FEBB
S3150000E8A0A088401CA080681EE0803046BDE870400D
S3150000E8B0F6F75DBA000000006275666665722D7136
S3150000E8C0756575652E6300003023DFF868245843AC
S3150000E8D010440C3000F1806007E03023DFF8542448
S3150000E8E0584310440C3000F1C060012202FA01F1D5
S3150000E8F0016070471CB500931346049C01940A46B8
S3150000E900FFF7B1FC13BD1930017E02290FD1027841
S3150000E910DFF82014007930235A4311441C3180005B
S3150000E92000EB411000F184400068C0B2704700203F
S3150000E930704738B50022DFF8003453F822104C7FB8
S3150000E940844203D0521C042AF7D331BD21B301F10E
S3150000E9502E04E07802281FD10D1D0846FFF7D3FFCD
S3150000E9602874687C022804BF2078002814D101F09E
S3150000E970DFF818F060FF297C09B1617829B1002021
S3150000E9806070286818F026FF31BD28B99DF8000090
S3150000E99010B1286818F010FF31BD10B5044604F117
S3150000E9A0140082B0417F022910D141780A0003D0B9
S3150000E9B0012906D0017821B9817A8079FFF784FF91
S3150000E9C018E0817A8079FFF788FF13E0012911D1D9
S3150000E9D0007800280CBF112013208DF80000204677
S3150000E9E001F0B5FA01226946204601F02CFA2046CC
S3150000E9F001F0F2FA002016BD2DE9F04104468846E2
S3150000EA001646F3F78BFF0546A088E188884206D3B1
S3150000EA10002030602846F3F7BEFFC8481CE0208877
S3150000EA20142778432044142241460830F3F7F8FCB3
S3150000EA30208878432044083030602088E188401CD4
S3150000EA4090FBF1F201FB12002080A088401CA08000
S3150000EA502846F3F7A0FF0020BDE8F08138B504464C
S3150000EA600D46F3F75BFFA18809B9296024E06188A8
S3150000EA70142251432144083129606188E288491CE7
S3150000EA8091FBF2F302FB13116180A188491EA1805C
S3150000EA900EE038B505460C46F3F740FFA98809B9DC
S3150000EAA0216009E069881422514329440831216014
S3150000EAB0F3F771FF002032BDF3F76DFFA04832BDBA
S3150000EAC090F832100A000BD102680121D16000686B
S3150000EAD00169C907FCD5416F41F0010141677047E3
S3150000EAE001290ED10168496C8907FBD4026801210E
S3150000EAF0516000688168C907FCD5416D41F001018C
S3150000EB004165704790F832100A0008D101684A6FD3
S3150000EB10520852004A6702210068C1607047012905
S3150000EB200CD10168496C8907FBD40168496D0268FC
S3150000EB30490849005165022100684160704710B5D7
S3150000EB4000F12C0286B00123137093791C0013D1B7
S3150000EB500268049002F11C030FF271020392002274
S3150000EB6002924A680192012200920A68016980684D
S3150000EB7018F007FE06B010BD012BE9D0002010707A
S3150000EB80F8E710B500F12D0286B001231370537912
S3150000EB901C0012D1026834320FF21513039304904D
S3150000EBA0002302934B680193012300930B68C1680D
S3150000EBB0406818F0E0FD06B010BD012B02D10268D6
S3150000EBC02832E9E700201070F5E70000F8B5144692
S3150000EBD06946606AFFF75DFF5949884260D004F1D3
S3150000EBE02C055849A879020008D12268126C9205B2
S3150000EBF004D500F057F84FF4007014E00246012ADD
S3150000EC0007D12368DB6A1B0603D500F04BF880208A
S3150000EC1015E04D4950B92068006CC00506D500F0D6
S3150000EC2041F84FF48070216888640DE0012A09D10B
S3150000EC302068C06A400605D500F034F840202168F7
S3150000EC40486301E000F060F8F3F768FE06460098B6
S3150000EC50C768380009D00098009940688968431A47
S3150000EC600098026801692046B847606A6946FFF75E
S3150000EC70F5FE606A818821B101F03FF801F09EF946
S3150000EC800CE0012020752046FFF787FE0020287043
S3150000EC90687903281CBF2046FFF734FF01F0DEF930
S3150000ECA00120F2BD0098016100200099886070473C
S3150000ECB0F8B5144604F1280569462868FFF7E9FE09
S3150000ECC01F4988421ED000F01FF8F3F727FE0646BC
S3150000ECD00098C768380005D000984368026800218C
S3150000ECE02046B84728686946FFF7B8FE2868818835
S3150000ECF021B101F002F801F0ACF901E000206871E1
S3150000ED0001F0ACF90120F2BD0099002008610099DC
S3150000ED108860704710B9DFF8E40A7047002918BF09
S3150000ED20002A02D0B2F5006F02D9DFF8D40A704784
S3150000ED300020704700A00040E8EF03200A7000F0B2
S3150000ED400B7000F00D7000F00C7000F010B5036849
S3150000ED50DFF8B04AFF22A34240F05E810B7A1C0026
S3150000ED6018BF012B07D0022B18BF032B03D0042B8F
S3150000ED7018BF052B01D100233AE0062B18BF072B3D
S3150000ED8004D0082B1CBF092B0A2B01D101232FE02D
S3150000ED900B2B18BF0C2B07D00D2B18BF0E2B03D037
S3150000EDA00F2B18BF102B01D1022321E0112B18BF06
S3150000EDB0122B08D0132B18BF142B04D0152B1CBFF5
S3150000EDC0162B172B01D1032312E0182B18BF192B72
S3150000EDD00BD01A2B18BF1B2B07D01C2B18BF1D2BB3
S3150000EDE003D01E2B18BF1F2B01D1052300E0FF23E4
S3150000EDF000F012FD18BF012B40D0022B1CBF032BC5
S3150000EE00042B3BD0052B18BF062B04D0072B1CBFA9
S3150000EE10082B092B01D1012333E00A2B18BF0B2B3A
S3150000EE2007D00C2B18BF0D2B03D00E2B18BF0F2BA2
S3150000EE3001D1022325E0102B18BF112B08D0122B6D
S3150000EE4018BF132B04D0142B1CBF152B162B01D166
S3150000EE50032316E0172B18BF182B0BD0192B18BF3E
S3150000EE601A2B07D01B2B18BF1C2B03D01D2B18BF2A
S3150000EE701E2B01D1052304E01F2B01D1002300E046
S3150000EE80FF2300F0C5FC3ED0012B18BF022B59D042
S3150000EE90032B1CBF042B052B54D0062B1FD0072B8E
S3150000EEA021D0082B23D0092B25D00A2B27D00B2BBA
S3150000EEB041D00C2B43D00D2B08BF082342D00E2B7C
S3150000EEC005D00F2B07D0102B09D0112B01D1092308
S3150000EED038E0122B01D10A2334E0132B01D10B2386
S3150000EEE030E0142B01D10C232CE0152B01D10D237E
S3150000EEF028E0162B01D10E2324E0172B01D10F2376
S3150000EF0020E0182B01D100231CE0192B08BF012398
S3150000EF1018D01A2B08BF022314D01B2B08BF0323BB
S3150000EF2010D01C2B08BF04230CD01D2B08BF0523B3
S3150000EF3008D01E2B01D1062304E01F2B01D1072385
S3150000EF4000E0FF2300F060FC3FD0012B41D0022BF4
S3150000EF5043D0032B45D0042B47D0052B1FD0062BBF
S3150000EF6021D0072B23D0082B25D0092B27D00A2BFD
S3150000EF703FD00B2B41D00C2B08BF082242D00D2BC3
S3150000EF8005D00E2B07D00F2B09D0102B01D109224B
S3150000EF9038E0112B01D10A2234E0122B01D10B22C9
S3150000EFA030E0132B01D10C222CE0142B01D10D22C1
S3150000EFB028E0152B01D10E2224E0162B01D10F22B9
S3150000EFC020E0172B1DD0182B01D101221AE0192B96
S3150000EFD001D1022216E01A2B01D1032212E01B2BCB
S3150000EFE001D104220EE01C2B01D105220AE01D2BC3
S3150000EFF001D1062206E01E2B01D1072202E01F2BBB
S3150000F00000D1002202774A7C42768A7C4277CA7C0B
S3150000F0108276097D00F007BCDFF80049A34240F084
S3150000F02048810B7A1C0018BF012B07D0022B18BF92
S3150000F030032B03D0042B18BF052B01D100233AE084
S3150000F040062B18BF072B04D0082B1CBF092B0A2B35
S3150000F05001D101232FE00B2B18BF0C2B07D00D2B52
S3150000F06018BF0E2B03D00F2B18BF102B01D1022374
S3150000F07021E0112B18BF122B08D0132B18BF142B0D
S3150000F08004D0152B1CBF162B172B01D1032312E01E
S3150000F090182B18BF192B0BD01A2B18BF1B2B07D0F8
S3150000F0A01C2B18BF1D2B03D01E2B18BF1F2B01D1E5
S3150000F0B0052300E0FF2300F0AFFB18BF012B40D073
S3150000F0C0022B1CBF032B042B3BD0052B18BF062B92
S3150000F0D004D0072B1CBF082B092B01D1012333E0D9
S3150000F0E00A2B18BF0B2B07D00C2B18BF0D2B03D0E8
S3150000F0F00E2B18BF0F2B01D1022325E0102B18BFB2
S3150000F100112B08D0122B18BF132B04D0142B1CBFA5
S3150000F110152B162B01D1032316E0172B18BF182B1E
S3150000F1200BD0192B18BF1A2B07D01B2B18BF1C2B63
S3150000F13003D01D2B18BF1E2B01D1052304E01F2B66
S3150000F14001D1002300E0FF2300F062FB3ED0012B3B
S3150000F15018BF022B59D0032B1CBF042B052B54D0F0
S3150000F160062B1FD0072B21D0082B23D0092B25D007
S3150000F1700A2B27D00B2B41D00C2B43D00D2B08BFCD
S3150000F180082342D00E2B05D00F2B07D0102B09D009
S3150000F190112B01D1092338E0122B01D10A2334E0C7
S3150000F1A0132B01D10B2330E0142B01D10C232CE0BF
S3150000F1B0152B01D10D2328E0162B01D10E2324E0B7
S3150000F1C0172B01D10F2320E0182B01D100231CE0BF
S3150000F1D0192B08BF012318D01A2B08BF022314D0FD
S3150000F1E01B2B08BF032310D01C2B08BF04230CD0F5
S3150000F1F01D2B08BF052308D01E2B01D1062304E0D2
S3150000F2001F2B01D1072300E0FF2300F0FDFA38D0C1
S3150000F210012B39D0022B3AD0032B3BD0042B3CD008
S3150000F220052B1DD0062B1ED0072B1FD0082B20D058
S3150000F230092B21D00A2B33D00B2B34D00C2B08BF33
S3150000F24008223FF4DFAE0D2B04D00E2B05D00F2B7A
S3150000F25006D0102B3FF49BAE112B3FF49CAE122B25
S3150000F2603FF49DAE132B3FF49EAE142B3FF49FAE9E
S3150000F270152B3FF4A0AE162B3FF4A1AE172B17D0DB
S3150000F280182B3FF4A2AE192B3FF4A3AE1A2B3FF472
S3150000F290A4AE1B2B3FF4A5AE1C2B3FF4A6AE1D2B34
S3150000F2A03FF4A7AE1E2B3FF4A8AE1F2B7FF4AAAEE9
S3150000F2B0A7E6DFF87048A34240F04A810B7A1C00AB
S3150000F2C018BF012B04D0022B1CBF032B042B01D12A
S3150000F2D000233AE0052B1CBF062B072B01D1082380
S3150000F2E033E0082B31D0092B18BF0A2B04D00B2B87
S3150000F2F01CBF0C2B0D2B01D1012326E00E2B18BFB2
S3150000F3000F2B18D0102B18BF112B14D0122B18BF8F
S3150000F310132B10D0142B18BF152B0CD0162B18BF7F
S3150000F320172B08D0182B18BF192B04D01A2B1CBF6B
S3150000F3301B2B1C2B01D1052307E01D2B1CBF1E2BED
S3150000F3401F2B01D10A2300E0FF2300F065FA18BF46
S3150000F350012B40D0022B18BF032B3CD0042B18BF27
S3150000F360052B03D0062B18BF072B01D1082335E048
S3150000F370082B18BF092B04D00A2B1CBF0B2B0C2BF8
S3150000F38001D101232AE00D2B18BF0E2B18D00F2B0D
S3150000F39018BF102B14D0112B18BF122B10D0132B03
S3150000F3A018BF142B0CD0152B18BF162B08D0172BF3
S3150000F3B018BF182B04D0192B1CBF1A2B1B2B01D1DD
S3150000F3C005230BE01C2B1CBF1D2B1E2B01D10A2372
S3150000F3D004E01F2B01D1002300E0FF2300F018FA00
S3150000F3E027D0012B29D0022B2BD0032B2DD0042B79
S3150000F3F02FD0052B49D0062B4BD0072B4DD0082BF1
S3150000F4000FD0092B19D00A2B1BD00B2B1DD00C2B80
S3150000F4101FD00D2B21D00E2B37D00F2B39D0102B10
S3150000F42001D103233CE0112B08BF042338D0122B53
S3150000F43001D1052334E0132B01D1062330E0142B30
S3150000F44001D107232CE0152B01D1082328E0162B28
S3150000F45001D1092324E0172B01D10A2320E0182B20
S3150000F46008BF0B231CD0192B08BF0C2318D01A2B4E
S3150000F47008BF0D2314D01B2B08BF0E2310D01C2B46
S3150000F48008BF0F230CD01D2B01D1002308E01E2B33
S3150000F49001D1012304E01F2B01D1022300E0FF2349
S3150000F4A000F0B2F925D0012B26D0022B28D0032B51
S3150000F4B029D0042B41D0052B42D0062B43D0072B55
S3150000F4C00ED0082B15D0092B16D00A2B18D00B2BD3
S3150000F4D019D00C2B1AD00D2B2FD00E2B30D00F2B72
S3150000F4E03FF47BAD102B08BF04220AD0112B2ED07F
S3150000F4F0122B3FF47EAD132B3FF47FAD142B01D1BD
S3150000F50008227FE5152B3FF442AD162B3FF443ADA1
S3150000F510172B08BF0B22F4D0182B08BF0C22F0D0F3
S3150000F520192B08BF0D22ECD01A2B08BF0E22E8D0EB
S3150000F5301B2B08BF0F22E4D01C2B3FF462AD1D2B02
S3150000F5403FF443AD1E2B3FF444AD1F2BD9D14CE500
S3150000F550DFF89847A34240F04F810B7A1C001CBF8E
S3150000F560012B022B09D0032B43D0042B18BF052BEC
S3150000F57003D0062B18BF072B01D1032339E0082B34
S3150000F58037D0092B08BF082333D00A2B18BF0B2B03
S3150000F59007D00C2B18BF0D2B03D00E2B18BF0F2B2B
S3150000F5A001D1012325E0102B14BF112B092320D0F4
S3150000F5B0122B18BF132B07D0142B18BF152B03D0F3
S3150000F5C0162B18BF172B01D1022312E0182B18BFD8
S3150000F5D0192B04D01A2B1CBF1B2B1C2B01D1052366
S3150000F5E007E01D2B1CBF1E2B1F2B01D10A2300E099
S3150000F5F0FF2300F011F91CBF012B022B40D0032B77
S3150000F60041D0042B1CBF052B062B39D0072B0CBF72
S3150000F6100823082B37D0092B18BF0A2B07D00B2B32
S3150000F62018BF0C2B03D00D2B18BF0E2B01D10123B5
S3150000F63029E00F2B14BF102B092324D0112B18BF40
S3150000F640122B07D0132B18BF142B03D0152B18BF62
S3150000F650162B01D1022316E0172B18BF182B04D046
S3150000F660192B1CBF1A2B1B2B01D105230BE01C2BBE
S3150000F6701CBF1D2B1E2B01D10A2304E01F2B01D119
S3150000F680032300E0FF2300F0C3F81BD0012B1DD09D
S3150000F690022B1FD0032B39D0042B3BD0052B3DD09A
S3150000F6A0062B3FD0072B41D0082B4BD0092B21D05E
S3150000F6B00A2B08BF062348D00B2B08BF072344D0CC
S3150000F6C00C2B01D1082340E00D2B01D109233CE08E
S3150000F6D00E2B01D10A2338E00F2B17D0102B21D087
S3150000F6E0112B23D0122B25D0132B27D0142B29D046
S3150000F6F0152B01D1032328E0162B08BF042324D0A1
S3150000F700172B08BF052320D0182B01D10B231CE093
S3150000F710192B01D10C2318E01A2B01D10D2314E06B
S3150000F7201B2B01D10E2310E01C2B01D10F230CE063
S3150000F7301D2B01D1002308E01E2B01D1012304E07B
S3150000F7401F2B01D1022300E0FF2300F05DF81AD041
S3150000F750012B1BD0022B34D0032B35D0042B36D0F3
S3150000F760052B37D0062B38D0072B3FD0082B1CD0C3
S3150000F770092B08BF062221D00A2B08BF07221DD05D
S3150000F7800B2B38D00C2B3FF402AC0D2B3FF403AC03
S3150000F7900E2B16D00F2B1DD0102B1ED0112B1FD0C9
S3150000F7A0122B20D0132B21D0142B3FF416AC152B83
S3150000F7B008BF042202D0162B08BF05223FF422AC54
S3150000F7C0172B3FF4ECAB182B3FF4EDAB192B3FF4A2
S3150000F7D0EEAB1A2B3FF4EFAB1B2B3FF4F0AB1C2B1D
S3150000F7E03FF40FAC1D2B3FF4F0AB1E2B3FF4F1ABF7
S3150000F7F01F2B7FF407AC83E612E00000027000F0D6
S3150000F800037000F000000140C3764B7A1C0070477D
S3150000F81003760B7A1C007047C3754B7A1C00704741
S3150000F820DFF8540810BD8177002010BD10B500F137
S3150000F830170482B00A00217920781DD00123042202
S3150000F840FEF74CFD6179607801230222FEF746FD42
S3150000F850A07E022809D100F034F8E179E07800238F
S3150000F8600422FEF73BFD012017E0032827D100F014
S3150000F87028F8002304221EE00023FEF72FFD6179FD
S3150000F880607800F026F8A07E02280ED100F01FF85E
S3150000F890E179E07800F01DF80020009001230122B4
S3150000F8A0A179A078FFF726F809E0032807D100F030
S3150000F8B00EF800230022E179E078FEF70FFD002024
S3150000F8C016BDA179A07800230122FEF707BDA17914
S3150000F8D0A07800230022FEF701BD10B5DFF89C27B3
S3150000F8E0DFF89C1713783BB9002441F823405B1CD2
S3150000F8F0042BFAD301231370002251F82230002B77
S3150000F90018BF834203D141F82200002010BD521CCB
S3150000F910042AF2D3DFF86C0710BD00000004014092
S3150000F92040F8241F00210368198003685980036882
S3150000F93099800172426011804268518042689180CC
S3150000F9404172C172704710B5044618F0A2F8607F84
S3150000F950DFF8341718F0ABF80020A07520750220E8
S3150000F96060752046BDE81040FFF717B838B5044665
S3150000F97017F0D8FE0021201D17F074FEDFF80C5793
S3150000F98028B9002104F1080017F06CFE00B12846E2
S3150000F99032BDF0B587B004460D466846DFF8F0166E
S3150000F9A01C22F2F74DFD14B9DFF8D806B7E0002D9A
S3150000F9B078D034212046FAF74DF92046FFF78DFF1F
S3150000F9C00700F3D104F13100297C01702968216018
S3150000F9D0002141702868DFF8BC1688423CD1DFF868
S3150000F9E0B8062062DFF8B406E0604FF440202061DC
S3150000F9F0EA69A9692046FFF793FF6868029001212A
S3150000FA006889ADF81000A889ADF80E00A87B8DF8BE
S3150000FA100C00E87B8DF8120005208DF80D00DFF84C
S3150000FA208006F3F717FE00F088F8206A0121F3F745
S3150000FA3011FE00F07CF800F091FB2868DFF86426E0
S3150000FA4003214167816F00F07DF8816720462946D2
S3150000FA50FFF77CF948B362E0DFF84C16884208D11C
S3150000FA60DFF848062062DFF84806E0604FF45020D1
S3150000FA70BDE72C49884208D1DFF838062062DFF856
S3150000FA803806E0604FF46020B1E7DFF86012884284
S3150000FA9008D1DFF828062062DFF82406E0604FF47C
S3150000FAA07020A4E7DFF8D00539E000F03DF8002823
S3150000FAB035D1F2F733FF0646287C032810D1286893
S3150000FAC0416F41F030014167416E41F004014166EA
S3150000FAD095F8212095F8201041EA0221C16704E03B
S3150000FAE0022804BF2046FFF72EFF28684FF0FF319B
S3150000FAF08164297C03290CBF0521042100F027FB22
S3150000FB0029684FF44060C86017F00CFE2046FFF7E6
S3150000FB102DFF00F0A2FA002F14BF3846002007B0D0
S3150000FB20F0BD000000080140012120467EE60020CD
S3150000FB308DF800006946286870470121DFF88405C2
S3150000FB40F3F788BD11402A7A41EA02216A7A114305
S3150000FB50704738B5040002D1DFF8280532BD03210D
S3150000FB6000F03CF80021204600F045F90021FFF79F
S3150000FB70DCFF04F131056878010006D12168022016
S3150000FB80C86008202168C8600AE0012808D12068FA
S3150000FB9000F0ACFB2068416C8907FCD40A21416067
S3150000FBA00021206AF3F756FD2878032803D0607FEA
S3150000FBB0002117F07CFF606817F09AFDA06817F027
S3150000FBC097FD17F076FD606A0021018041808180F3
S3150000FBD0A06A018041808180002032BD2DE9F0437A
S3150000FBE05FEA000883B00D4608BFDFF898047BD0B3
S3150000FBF0F2F794FE012D814608F12C0608F1040760
S3150000FC00DFF8C44415D1786A808810B3386817F0D5
S3150000FC10F9FD00207070786A818879B300F06DF87C
S3150000FC20009800F10801386817F028FE0098046172
S3150000FC3020E0022D03D1386A808840BB09E0032DFD
S3150000FC4023D1786A8088002802BF386A8088002815
S3150000FC50DCD14846F2F79FFEDFF8700444E06946BF
S3150000FC60FEF7FCFE0098D0F80CC0BCF1000F01D0E6
S3150000FC7000F03EF8786A81880029F0D1404600F00D
S3150000FC803FF88004FAD5022D01D0032D28D17868DB
S3150000FC9017F0B8FD00203070386A8188D1B101A90B
S3150000FCA0FEF7F7FE019800F10801786817F0E6FD07
S3150000FCB0019804610AE001A9FEF7D0FE0198D0F888
S3150000FCC00CC0BCF1000F01D000F012F8386A818830
S3150000FCD00029F0D1707903281CBF4046FEF712FFB9
S3150000FCE04846F2F758FE0020BDE8FE83000C0140AE
S3150000FCF0836800222146404660476946FEF7C9BE32
S3150000FD0090F832200021130002D1006801691EE03C
S3150000FD10012A1CD100688068820748BF0221C207F9
S3150000FD2048BF41F00101420748BF41F00801020700
S3150000FD3048BF41F02001C20648BF41F0400182069B
S3150000FD4048BF41F08001400648BF41F400510846D3
S3150000FD507047406A1CE02DE9FC4100F046F8606AF5
S3150000FD60818816461F4671B1FFF7C7FF8046A06817
S3150000FD7001A917F083FD009828B1B8F1000F02D150
S3150000FD8000F02AF802E00020386030601EE0806A49
S3150000FD908088C0B270472DE9FC4100F026F8A06AC1
S3150000FDA0818816461F4671B1FFF7A7FF8046606837
S3150000FDB001A917F063FD009828B1B8F1000F02D130
S3150000FDC000F00AF802E00020386030602860204623
S3150000FDD0FFF796FFBDE8F68140680199401A30604A
S3150000FDE0019838600098006870470446002000902B
S3150000FDF001900D46704700F11402537F032B02D188
S3150000FE00DFF8CC0270475170022918BF1170FEF757
S3150000FE10C4BD000010B500F11602D37E012B01D13E
S3150000FE20022900D1EFE014788C4208D0117011B984
S3150000FE3000F0D2F803E0012908BF00F088F800209E
S3150000FE4010BD007D70472DE9F041044688461646F0
S3150000FE50FEF760FF002878D1092017F063FE0546FB
S3150000FE6004F12E0702E00DB117F01CFDA06A808890
S3150000FE7010B138780028F6D03879010002D121680F
S3150000FE80096905E0012818BF002522D12168896883
S3150000FE9011F002051DD101000BD121680420C860B4
S3150000FEA0206801698907FCD5416F41F0020141676D
S3150000FEB00FE001280DD12068416C8907FBD404218D
S3150000FEC04160206881688907FCD5416D41F00201D7
S3150000FED041650120B8703879010006D0012819D192
S3150000FEE010E018F8011B00F0E0F931464E1E2068BC
S3150000FEF00029F6D101698906FCD50BE018F8011B2B
S3150000FF0000F00DFA31464E1E20680029F6D18168B0
S3150000FF100907FCD5C5B93879010008D12068416FB9
S3150000FF2021F00201416708202168C8600CE0012821
S3150000FF300AD12068416C8907FBD4416D21F002018A
S3150000FF4041650820216848600020BDE8F08110B5B1
S3150000FF50040001D1FFF7DEBC94F82E0030B920462C
S3150000FF60FEF7D1FC10B9606817F026FC94F82E0055
S3150000FF70401C84F82E00002010BDF0B587B000F0BC
S3150000FF8070F8A0B900F061F800F01CF8049700F0D2
S3150000FF9010F860B9287E48B92046FEF791FD00F0BA
S3150000FFA00DF8687F032801D000F011F8002007B093
S3150000FFB0F0BD6A46286901A9FEF71EBD00992046D4
S3150000FFC0FEF7BDBD04F114054248059070470020B8
S3150000FFD028702046FEF7E1BC10B5040001D1FFF7FA
S3150000FFE099BC94F82E0070B194F82E00012806D121
S3150000FFF02046FEF788FC10B9606817F0EBFB94F812
S315000100002E00401EB5E7324810BDF0B587B000F0AE
S3150001001028F8C0B900F019F800F029F804976A46E3
S315000100202868FFF7C8FF70B9687958B9F2F776FC06
S3150001003006462868808818B100F00BF8012028725E
S3150001004000F00CF8002007B0F0BD0195029603966A
S31500010050704700992046FEF794BD07463046F2F7F1
S315000100609ABC04460D4616461F46FEF753BE04F1DA
S315000100702805184805907047037000F007FC032017
S31500010080E8EF0320027000F033E900000E7000F083
S31500010090F8770300000001400042040001000C0053
S315000100A040410500E0E0FFFF00040140005204006A
S315000100B001000D000062040001000E000072040040
S315000100C001000F0000350800097000F0087000F00B
S315000100D0057000F0017000F070B504460800154681
S315000100E01E4604BF6648F3F7E5FA310006D0202E16
S315000100F018D0402E18D0602E18D070BD102122685D
S3150001010022F06002226069432268324322604A0873
S3150001011002EB4010B0FBF1F020385A4901EAC00069
S31500010120606170BD0821EAE70621E8E70421E6E7F8
S3150001013038B504460800154604BF5148F3F7BAFA24
S31500010140401E6900B0FBF1F00002606131BDCA4397
S31500010150520002F00A02C260C160704738B5044617
S315000101600D4600F066F8A87C18B1206840F0804082
S315000101702060E87C18B1287D40F08000A065687B8E
S31500010180B5F910100843B5F90E10084360602B7BD2
S31500010190AA6869682046FFF79FFF00F039F8606F8B
S315000101A020F030006067606F297E084360672CE0AD
S315000101B038B504460D4600F03CF8A87B08B14FF46B
S315000101C080602168B5F91020104340F00100084312
S315000101D02060287D08B14FF0005021680843206057
S315000101E0A87C18B1E87C40F08000A065287B40F42B
S315000101F080506060AA6869682046FFF799FF687BAE
S3150001020008B11020E06000F003F82878E06031BD05
S31500010210A87DE97D0007090500F0E04001F4E00151
S3150001022008432066687D18B1206840F4803020605C
S31500010230704740F6AA61C1600021016041F20501E3
S315000102404160002181604161C1640F4B0F49104A31
S315000102508164002141678167C167984218BF904256
S315000102600C4904D00C4B984218BF884201D1002397
S31500010270036500238365904214BF8842C3657047B6
S3150001028040410500F8FF7F0000000140F9FF010031
S3150001029000040140000C0140000801400169090603
S315000102A0FCD5FFE7C069C0B2704702695206FCD5AA
S315000102B041637047026CD20702D4426C0A42FCD1F8
S315000102C0704738B500F00EF8E843400000F00A0028
S315000102D02843606031BD19B1416C0029FCD101216F
S315000102E0016470470D4604460221E3E710B5044652
S315000102F00121FFF7F0FFEA20606000210020206065
S31500010300E06020616061A06340F2F97060630020E3
S31500010310E0636065A0652046BDE81040DBE738B5BF
S3150001032000F005F8402100F00AF8A56231BD044647
S315000103300D46A068C006FCD57047606002212046C4
S31500010340B8E7000012490A6842788A600278DAB191
S315000103504268CA60437A827A1B0643EA0272C37B09
S3150001036042EAC342C37A42EA8342037B42EA4342F8
S31500010370437B42EA0342837B007A42EA032242EA52
S31500010380400040F0010001E00020C86008617047AC
S3150001039090ED00E0BFF35F8FBFF34F8FBFF36F8F19
S315000103A07047000080B5684617F0E2FBDFF81804D5
S315000103B0DFF81814DFF81824016148F2E67141608C
S315000103C04FF408610160DFF80C04DFF80C1441609A
S315000103D04AF63F4111604FF0C071DFF80024116009
S315000103E000210166DFF8F81301607F20DFF8F413BE
S315000103F008602320DFF8F013086001BD10B5DFF8AF
S31500010400EC03DFF8EC430168426849B10B0C1B04AD
S31500010410A34208BF0A600830DFF8D8138842F2D336
S3150001042010BD10B500F049F8FFF7E8FFFFF7BAFF76
S31500010430DFF8C413DFF8C443032008604FF400203B
S31500010440DFF8BC1308600120206003F0B1F9DFF882
S31500010450B4134FF4607008604FF040706066E06757
S3150001046010BD10B5DFF89C3382B001221A60DFF8A7
S3150001047098432268120E12F00F02FAD14FF004527D
S31500010480A2670122E2678A0001464FF00450F1F7A4
S31500010490D7FFDFF87803E065DFF87443DFF874030C
S315000104A021680091A421F9F7D5FBDFF86C03DFF889
S315000104B06C1301600099216013BD80B50121DFF83D
S315000104C0600317F06FFB0121DFF8580317F06AFB91
S315000104D00121DFF8540317F065FB0121DFF84C0316
S315000104E017F060FB0121DFF8480317F05BFB0121E0
S315000104F0DFF8400317F056FB0121DFF83C0317F044
S3150001050051FBBDE804400121DFF8300317F04ABB77
S31500010510F8B504460D460FF2643600E00860002D7A
S315000105201CBF286810F1010F3FD055F8042BC2F308
S31500010530026156F8211093B2C2F30740194302280B
S3150001054008D300281EBF55F8042B41F8042B401E82
S31500010550F7D1E4E755F8040B120F4FF0010C072A07
S3150001056001F1C06301F180670CFA00FED7D8DFE81C
S3150001057002F00506090C0E111417D0E7CEE7C043A9
S315000105803860CCE70A685040C8E71860C7E702F050
S3150001059047FBC4E7C3F800E0C1E7C7F800E0BEE7E0
S315000105A00A6802408242FBD1B9E7204602F0C4FD47
S315000105B001F03EF8DFF88802006810F4E05F03D12D
S315000105C0DFF8801220200860F1BDDFF83C020068E8
S315000105D0000E00F00F00022818BF032801D10120E8
S315000105E0704700207047DFF86002016800208A0624
S315000105F048BF0420CA0644BF801CC0B20A0744BFD4
S31500010600801CC0B24A0744BF801CC0B28A0744BFDF
S31500010610401CC0B2C90744BF401CC0B2704780B578
S315000106201120F3F747F8DFF8241209688AB232B1CC
S31500010630C008C1F307414843B0FBF2F002BD0020F8
S3150001064002BD38B5DFF808024168006801F007020B
S31500010650082AC0F344141AD20FF228239A5CC1F374
S31500010660CD035B1CC1F345415A43491C5143C0F3B9
S31500010670822200F01F0014FB02004843450006D009
S315000106801120F3F717F86043B0FBF5F032BD0020F7
S3150001069032BD80B5FFF7C3FFDFF8B811096801F075
S315000106A03002102A04D0202A04D0302A08D002BDF4
S315000106B0400802BDC1F3C421491CB0FBF1F002BDE3
S315000106C0800802BD10B56348016801F03002202A96
S315000106D00FD1C1F3024018B1C1F3C422B2FBF0F04D
S315000106E011F4C01F18BF40004408032C0AD3042488
S315000106F008E0006800F4E070402816BFB0F5807F7E
S3150001070002240124FFF7C5FF604310BDF8B5044676
S31500010710F6F7DAFB0646FFF758FF05464E4800682E
S31500010720C0F38917B80544BF4C480743FFF74DFF8F
S3150001073000B900253046F6F7C4FB3FB217F5007F36
S3150001074001D12542E4D105B9454F3846F2BD38B548
S3150001075005460C46FFF775FF68434249B0FBF1F0C9
S31500010760002100E0491C01228A40824203D210295D
S31500010770F8D3012032BD3C4A0F20106041F0100031
S315000107803A4908603A480068C0B2802803D020463A
S31500010790BDE8324001E0022032BD364AFF21116038
S315000107A000F0FF00344908600020704716480168D0
S315000107B001F07061B1F1C06F02D1816BC906F6D546
S315000107C0402141607047000034410840C0E6535162
S315000107D0083008409C4008407A27000F28700840DE
S315000107E0806D630324300844243008460080E00FFE
S315000107F000000840B081E00FD860084694400846E2
S31500010800944008400C40084604400840C01F00219F
S31500010810E81F00215C1F0021F01F00213F00370067
S315000108200034060000040600700506000064060098
S315000108300054060000440600002406000074060069
S3150001084084600840106208404C000840506008402F
S3150001085054600840186008400870084000FCFFFF1B
S3150001086000FEFFFF40420F0080700844807008467A
S3150001087018700840187008441870084600000840AF
S31500010880000000210304040808080808012100F0FB
S315000108901F029140DFF8A82A05E0012100F01F029E
S315000108A09140DFF8DC26400942F82010704780B5F8
S315000108B0F6F70AFBDFF8CC160968090E01F00F01FD
S315000108C0032907D1DFF8C0160A6822F0F00242F0C8
S315000108D0E0020A600121DFF8842A1160BDE80240C6
S315000108E0F6F7EFBADFF8782A1168D368194021EADA
S315000108F000009060084670470422C900002814BF12
S31500010900DFF88806DFF8900A02FA01F10160704704
S315000109100120704710B5DFF8844A01232370F5F7EB
S315000109207AF90020207010BD70B5F6F7CDFADFF820
S315000109306016DFF86046CD78D1E902232E00DFF894
S31500010940941A04BF4FF41056324219BF10260E6096
S31500010950102626600DB9D20502D520220A6001E0D3
S3150001096020212160BDE87040F6F7ABBADFF820061A
S3150001097000210171C17811B10021C170D4E770471E
S3150001098010B5DFF80C46207978B1012001F021FD80
S3150001099058B9FFF7EBFFD4E90201BDE81040002288
S315000109A000F4805001F00001B4E710BD10B50368F2
S315000109B083EA010424EA020200F180641340236001
S315000109C040F8042C00F1C0601140016010BD70B503
S315000109D004460D461646FFF7A7FF4FF4004114F0F3
S315000109E0AA6F18BF48F20201B00748BF41F400518F
S315000109F00022DFF8A405FFF7D9FF0021200448BF34
S31500010A004FF48051E00348BF41F48071E00648BFCE
S31500010A1041F40051A00648BF41F40071600648BF89
S31500010A2041F48061200648BF41F400610022DFF8ED
S31500010A306C05FFF7BBFF05F0040300210025AB425F
S31500010A4018BF4FF48021200548BF41F4803160046E
S31500010A5048BF41F48011A00748BF41F40011A0032B
S31500010A6048BF41F40021700748BF41F0040101224B
S31500010A70DFF82C05FFF79AFFDFF82815F00748BFC6
S31500010A80DFF8C018A00048BF41F40011600048BF5C
S31500010A9041F000710022DFF8B008FFF787FF00215F
S31500010AA0E00748BF01210022DFF8A008FFF77EFF1B
S31500010AB0DFF8B018600348BFDFF8AC186007BDE87F
S31500010AC0704048BF41F480614FF4A022DFF8C009AD
S31500010AD06CE710B5F6F7F8F904461C20FFF7DDFEC2
S31500010AE00820FFF7DAFE0120FFF7D7FE0420FFF703
S31500010AF0D4FE0520FFF7D1FE1D20FFF7CEFE07200D
S31500010B00FFF7CBFE0620FFF7C8FE1F20FFF7C5FE45
S31500010B102046BDE81040F6F7D4B92DE9F04702EAC0
S31500010B200009089D099AC643CF43002D03EA010A2D
