S01A0000657A73702D7370692D626F6F746C6F616465722E73333747
S315000000000004002079000000850000008500000043
S31500000010A70B0A0100000000040103650040000070
S3150000002004180000C71300009916000078060000A7
S3150000003000000000000000000000000000000000BA
S3150000004000000000000000000000000000000000AA
S31500000050FFFFFFFF054800680549884205D10548AE
S31500000060016842685FEA010D1047704704500E4070
S315000000700000010000400000FFF7ECFF00F00BF865
S3150000008000F040F803E000005FEA000D70474FF40F
S31500000090017000F0DDB838B500F020F94FF20F041A
S315000000A0564D28B140F2052028806C80012032BDD3
S315000000B053480068400515D56888A04212D12888A3
S315000000C040F2022188421CBF40F20621884215D028
S315000000D040F2011188421EBFB0F58A7F40F211112D
S315000000E088420BD0474C208A40F6A721884205D18A
S315000000F02068FFF7C9FF6068804700BF002032BD57
S315000001000000000070B582B004003F4872B6006877
S31500000110050E684600F048F98F2D10DA3B483C4D35
S31500000120016841F0040202604FF0501300223026AD
S315000001305643521CAB51062AF9D3016001E0902DBB
S3150000014006DA34480168C909C90141F02001016095
S315000001509DF80100012804D12F48016841F00401EF
S31500000160016000202D49086000F065F92448006808
S31500000170800A10F001050CBF29482A4802E0CD216B
S3150000018000F8011B28498842F9D328482849294AFA
S3150000019003E010F8013B01F8013B9142F9D32648F0
S315000001A02649002201E000F8012B8842FBD300F02B
S315000001B071F9124A50884FF20F03984240F2052116
S315000001C00AD113888B4205D035B1180A012818BF09
S315000001D0022801D1194601E004B900210648018030
S315000001E04CF23C30508000F066F900F091F94FF483
S315000001F0017000F02DF873BD000E002000000020F5
S3150000020004500E4000400000FC81E00FB0400E405C
S3150000021000A000402C400E4064310E40B40AC64394
S31500000220000000209C00002000040020D4250000CF
S315000002300004002074040020740400200E0E002028
S31500000240890001EB401000F1844002607047000015
S3150000025010B504461A484AF6E8510160C162016BBE
S3150000026001F00F01022913D1164A01211160806B9A
S3150000027000F00300012818BF022809D100221C2122
S315000002801148FFF7DDFF002200211048FFF7D8FFD5
S31500000290200A00280E4808BF24024FF20F010480EE
S315000002A04180BFF35F8FBFF34F8F0A480A4A016848
S315000002B001F4E06111430160BFF34F8F00BFFDE71A
S315000002C008300E404040084060300E4074300E400A
S315000002D0000000200CED00E00400FA0538B501210D
S315000002E02C482D4C00F078FA0121204600F074FAD3
S315000002F0012302220621052000F00CFE274940209A
S31500000300086000250A2000BF401EFCD1C8202449F1
S31500000310096809B9012501E0401EF8D10023002231
S315000003200621052000F0F6FD0021204600F054FAD3
S31500000330284632BD80B500F035FEBDE8014000F02C
S3150000034047BE0000052800D9704710B5DFE800F069
S315000003501721030F1C17134C2088411E2180C0B99A
S31500000360012000F038FE42F21070208010BD0120FE
S3150000037000F030FEBDE81040002000F02CBEBDE8C5
S315000003801040002000F025BEBDE81040002000F01F
S3150000039021BE10BD4041050000250800FCA0004616
S315000003A0982114420C0E00200B494A680B689200F3
S315000003B002F03C02C3F381131A4382700A6802F00A
S315000003C03F0242708A68C96802F0F002C1F3031165
S315000003D01143017070470000E0FF0FE080B500F0A8
S315000003E00CF82549254A0968C1F30821491CB0FBC8
S315000003F0F1F0106002BD22487047224922480A687F
S3150000040002F00702022A09D00AD3042A01D002D335
S3150000041006E0406805E04FF4004002E0006800E0B6
S315000004208068C96EC1F30421491CB0FBF1F0704726
S315000004301548006870471548016841F4700101606D
S315000004401348416941F400514161016889088900F6
S315000004500160416B490849004163016A21F08051FE
S31500000460016270474FF4004070474FF47A7070474E
S31500000470054840687047000008410E4010040020FF
S3150000048000F0490294400E400404002088ED00E08C
S3150000049040300E40602080F31188704710B5084B3D
S315000004A01C6890FAA0F2B2FA82F224EA00009140A7
S315000004B00843186010BD034901200860704700001A
S315000004C000500E4008500E400078704730B5DBB043
S315000004D00446214636A800F085FD002000904FF422
S315000004E00263504A36A901A800F06DFF0FF27C1294
S315000004F00FF2841001A901F0CFF8054600F05FFD68
S3150000050028001CBF214600F0DCFD28465BB030BD4C
S3150000051080B5FFF70FFF01F0DDF800F050FD01F0A8
S3150000052009F90020FFF70EFF07E01A2000F0C9FEC8
S3150000053001220021522000F023F800F040FD0220A5
S31500000540FFF700FF684601F0C7F80028F5D19DF8CF
S3150000055000005128E9D03449002008700120FFF737
S31500000560B5FF20B90520FFF7EDFE012000E00420CD
S31500000570FFF7E8FE40F20120FFF76AFE002002BD09
S31500000580F8B506460F461546284C0FF2B8011D224F
S31500000590204601F0D0F80A2204F13401201D01F0B2
S315000005A0CAF82348018808237F2204F10E0001F0CF
S315000005B02FF9522EA6761BD13520207006220FF277
S315000005C0A40104F12E0001F0B6F80120E076022322
S315000005D0184801887F2204F11C0001F019F9164819
S315000005E0018810237F2204F11E0001F011F902E0B8
S315000005F01D202070E776012D12D12078A0F11B0571
S31500000600012001F05FF90D48FD2101704570EAB245
S3150000061004F11A01801C01F08EF8094901200870C6
S31500000620F1BD0000E00500200B0E0020A005002013
S31500000630D2250000D0250000CE25000010050020A0
S315000006400A0E00200063CC00FFFF0000000000003F
S315000006500000FFFFFFFFFFFFFFFF7C656D0100004D
S3150000066000000000000418006503000007250000D4
S315000006707F250000C9040000451200007F1200001B
S31500000680890001EB401000F1844002607047890048
S3150000069001EB401000F18440006870470122DFF84A
S315000006A0401610B5884232BF0022DFF8381688425D
S315000006B001D2144600E002241021DFF82C06FFF7D1
S315000006C0DFFFDFF83407016821F0807141EA046139
S315000006D0016010BDDFF81416DFF814360A6802F060
S315000006E04072984238BF002204D3DFF81037984290
S315000006F038BF0122086820F0407040EA02600860B6
S31500000700704738B500F013F841F671302060FFF7F6
S3150000071072FE002105E038B500F009F841F67132A5
S315000007202260FFF7D7FF0DB10020206031BDDFF852
S31500000730D046256805B101257047C01C0F2801D297
S31500000740000770474FF070407047000038B5044608
S31500000750002500F0FBF8DFF89426DFF8281694420F
S3150000076008D0DFF88C26944206D0DFF8882694421B
S3150000077004D006E0086802E0486800E0886800F0F7
S315000007800700401E03281BD8DFE800F002050C080E
S31500000790FFF768FE04E0FFF76BFE01E0FFF765FE7A
S315000007A005460DE0FFF71AFEDFF84C160968090E3C
S315000007B001F001010122491C02FA01F1B0FBF1F539
S315000007C0284632BDDFF83C164A68D20702D40A68CA
S315000007D00242FCD17047000070B5020A0C4602F0D6
S315000007E00F020021521E092ADFF8245614D8DFE82A
S315000007F002F005141313071619131C20DFF8E8542A
S31500000800C0F3043611B10846FFF7DCFF2246314635
S315000008102846BDE8704033E770BD1035F0E7303547
S315000008200121EDE738351021EAE740354FF48031F4
S31500000830E6E7DFF8E055E3E770B5DFF8CC15DFF85B
S31500000840AC250E68DFF8A815DFF8AC45012510F4D5
S3150000085078105DD0B0F5003F2AD0B0F5802F21D0BA
S31500000860B0F5002F54D0B0F5202F27D0B0F5402F8B
S3150000087046D0B0F5602F66D0B0F5901F3BD0B0F5EE
S31500000880A01F24D0B0F5B01F2AD0B0F5D01F1CD0C1
S31500000890B0F5E01F22D0B0F5001F2CD0B0F5381F00
S315000008A039D04FE0FFF7A9FDE168C1F308210AE05E
S315000008B0FFF7A3FDA168C1F3082104E0FFF79DFD42
S315000008C06169C1F30421491C12E0104615E0104687
S315000008D0FFF73CFF216A01F00F0107E008460CE034
S315000008E00846FFF733FFA16A01F0030105FA01F19B
S315000008F0B0FBF1F627E0DFF8FC04FFF727FF1FE067
S31500000900DFF8140500F022F807281CD0092819D1B1
S31500000910FFF773FD14E0DFF8040500F017F804286C
S315000009200CD007280FD008280CD1FFF766FD2168E8
S31500000930C1F30421491C01FB00F604E0FFF778FD32
S31500000940064600E00026304670BD0000014601F074
S315000009500F010120491E0729DFF8C82449D8DFE81E
S3150000096001F0040F1348202E4836506A00F00700A5
S3150000097002283AD002D3042804D01CD3052070479D
S3150000098011690FE002207047516901F00701491E05
S3150000099003292FD8DFE801F00F020311F2E7062042
S315000009A07047916901F00701012904D00229E9D0B5
S315000009B0042902D07047032070470A207047116847
S315000009C011F001010FD0012914D109207047DFF879
S315000009D05814096801F03001102904D0202904D0E8
S315000009E0302904D07047072070470420704708203C
S315000009F0704700207047000070B500F00F00032418
S31500000A000325401E0728DFF81C640FD8DFE800F036
S31500000A10042E347C31607C6A0229DFF8C40206D0D9
S31500000A2003291AD004291AD005291DD070BD042423
S31500000A30002501220121284600F0BAF8FFF761FEE1
S31500000A407460DFF8DC03FFF7F7FEFFF727FEFFF71A
S31500000A50C5FCBDE8704000215DE60125E9E70224FA
S31500000A600225FFF71BFEE4E70124FAE706F110046E
S31500000A7004E006F1180401E006F11404012908D087
S31500000A80022909D003290ED0062913D00A291DD020
S31500000A9070BD0020206070BD01220121002000F001
S31500000AA087F80220F6E701220121012000F080F8F4
S31500000AB00120EFE7FFF792FCFFF7F0FD012200218E
S31500000AC0DFF84C03FFF7DCFD0320E3E70420E1E752
S31500000AD0072902D0092902D070BD002000E00120BC
S31500000AE0306070BD012906D0042915D007290CD025
S31500000AF0082918D070BD0020DFF82C130A6822F0F0
S31500000B00300242EA0010086070BD01220121042073
S31500000B1000F04EF80120EFE701220121022000F04B
S31500000B2047F80220E8E70320E6E770B500F03DF855
S31500000B3001220021022000F03BF8217CDFF8F05270
S31500000B4000200229296808BF0120490840EA41001F
S31500000B502860082122782846FFF792FD6868E17A26
S31500000B60C00841EAC0006860617AA08841EAC020F6
S31500000B70A860EE68207AFFF7E0FDE28806F07F6164
S31500000B8041EAC221A27A1143227A41EAC2110843FC
S31500000B90E860A17B607B090141EA0030E17B084304
S31500000BA0217B40EA0140286170BD04461120CDE654
S31500000BB02DE9F84F04288246904671D8DFE800F008
S31500000BC04C473D034200012602200127002400294C
S31500000BD0DFF83892964D5ED0BAF1020F02BF286850
S31500000BE0C0F3011000284FF0000B0AD12868C00797
S31500000BF04FF0010B05D5286820F0300040F01000BA
S31500000C002860EE6300F04EF80028FBD0B8F1000F24
S31500000C1046D0394600F047F80028FAD0BAF1020F5C
S31500000C203ED1BBF1000F3BD02868C0071BD501227F
S31500000C302021022000F0C9F819E004260820032725
S31500000C400224C4E71026202005270424BFE74026F7
S31500000C50802007270624BAE74FF480764FF4007009
S31500000C6009270824B3E70021022000F08DF80220AE
S31500000C7000F01CF80446012200210220FFF798FF2D
S31500000C802146022000F036F8EE63394600F00BF8F4
S31500000C900028FAD004E0E86300F004F80028FBD14D
S31500000CA0BDE8F18F21464846FFF7F1BC401E0328F8
S31500000CB05E4912D8DFE800F0020C06080869C0F3A6
S31500000CC008007047086800E0886800F07F007047F9
S31500000CD058480068C0F30A007047002070470000BB
S31500000CE00148E8010190D00300400E4004000E4088
S31500000CF041787D0170B5401E0D46032805F07F0141
S31500000D004A4C404E3DD8DFE800F0022A101DC5F3DC
S31500000D1008051A213046FFF7BAFC0028F9D12069E8
S31500000D20400A45EA4020206170BD0D461821304634
S31500000D30FFF7ADFC0028F9D12068C00945EAC010CC
S31500000D40206070BD0D4619213046FFF7A0FC002833
S31500000D50F9D1A068C00945EAC010A06070BD2B4853
S31500000D600068606920F0300040F010006061C5F353
S31500000D70C310FFF7E2FC216A2F4A114029430843BA
S31500000D80206270BD80400E4029480268C2F30112FD
S31500000D90002A18BF002907D0202902D0302903D005
S31500000DA005E04FF4000103E04FF4400100E0234961
S31500000DB0C26E0A408A42FBD1490204D5C06F800A3E
S31500000DC000F0010070470120704710B502280AD1D3
S31500000DD00B0004D01A4B4FF480645C64196012B1A6
S31500000DE0BDE81040D0E7012010BD000002001A0047
S31500000DF003001C000500200000410E40015A62025B
S31500000E0040000E4040410E400004002090400E403D
S31500000E10B0400E4050410E4006000C0098002E00D7
S31500000E200005080070400E405C410E4010400E4028
S31500000E3024400E409C400E4000F8FF0FFF03E107E0
S31500000E4064400E40890001EB401000F184400260CE
S31500000E50704700F1806300F1C0601960026070475E
S31500000E603023484A584310440C3000F1806006E0B5
S31500000E703023444A584310440C3000F1C06001222C
S31500000E8002FA01F10160704710B530240A463D4B65
S31500000E906043BDE810404FF001111844D9E72DE931
S31500000EA0F04101F00308144603270F21082C1D46C4
S31500000EB00CD2A60000FA06F2B1403348FFF7C9FF8C
S31500000EC008FA06F207FA06F130480DE0A4F1080226
S31500000ED0960000FA06F2B1402D48FFF7BAFF08FA6D
S31500000EE006F207FA06F12B48FFF7B3FF2A4621461A
S31500000EF029482A4DFFF7A6FF069A21462846FFF7FE
S31500000F00A1FF0120A04028612146079A2448BDE898
S31500000F10F04197E7F8B50446164630000D461F46E1
S31500000F2007D0002F204602D0FFF7A2FF01E0FFF70F
S31500000F3097FF30210F22134811FB04F1082D0844B6
S31500000F4005D2AB00416800F015F8416006E0A5F156
S31500000F5008039B00816800F00DF881604EB9002FF0
S31500000F602946204602D0BDE8F44081E7BDE8F440BA
S31500000F7076E7F1BD9A4021EA020206FA03F111432F
S31500000F807047000000A0004000A4004008A40040F4
S31500000F9004A400400CA4004010A4004014A4004087
S31500000FA028A4004080B501210648FFF715FC04215E
S31500000FB00720FFF773FA04490448086001BD024898
S31500000FC000F096BD0005080000200540010803005A
S31500000FD07047704770477047002914BF01210221EE
S31500000FE04160704730B589B00170012201290CBFFC
S31500000FF080214021818042700021C1800181827060
S315000010000121BE48FFF7E8FB0121BD48FFF7E4FBDD
S315000010100FF208300FC804AC6D4684E80F000020BC
S315000010208DF8100004A9B74C204600F07BFD0FF2A6
S31500001030FC200FC885E80F0002208DF80300002071
S315000010408DF8000001208DF80C006946AE4D28464B
S3150000105000F068FD4FF6FF70E061E86109B030BD51
S315000010602DE9F04104460D46A64F9046012100F0B9
S3150000107026F80020A54E78623060FFF7A0FF012C0D
S315000010800FD135B900F03AFB00F0010080F0010005
S3150000109002E0284600F020FB28B900F00FF80020F7
S315000010A00AE0012008E030684045E6D35FEA080020
S315000010B0E3D000F003F81620BDE8F08100213846A1
S315000010C08AE780B50A4601461820FFF759FA01203B
S315000010D000F0F8FBBDE80140F7E070B5044682B0C9
S315000010E00020208148F6581220786946FFF7B8FF9D
S315000010F008B11C2076BD9DF80000032818BF1828EB
S3150000110001D1182076BD042801D1172076BD01280B
S3150000111001D0212076BD002500E06D1CA188EDB22E
S31500001120091D8D420BDA601900F10A01207840F2A0
S315000011304A22FFF795FF0028EFD0262076BD00252E
S31500001140002006E00146EDB260196D1C007B00F040
S3150000115035FDA288E9B29142F4D3A37AE17AC9189F
S31500001160FF2901D0222076BDA5182E7BB6EB102FC5
S3150000117001D0232076BD697BC0B2814201D02420F4
S3150000118076BDA078834207D0401EC0B2834201D10B
S31500001190272076BD252076BD901C20810220E08088
S315000011A0002076BD38B504466078012804D02CD3DB
S315000011B0032828D01FD328E0022060702046FFF7BE
S315000011C08CFF05462078012804BF284600F079F8F0
S315000011D00DB100F0AFFA272D19D1A0782278411E63
S315000011E0C9B20620FFF7CCF9002DE7D10320FFF79F
S315000011F0A9F8002032BD00F09DFA00F04AF8A07868
S31500001200401CA070DAE7172032BD182032BDA806B0
S3150000121003D52278A1781520E4E7680603D4182DB3
S3150000122018BF1C2D07D121782846FFF74AFF042056
S315000012306070284632BD172DD6D100F02AF803205B
S315000012406070E0E7F8B504460D461646002707E04D
S31500001250E088411C2044E180BFB2807AE8557F1CBB
S31500001260B8B2B04209D2E08821898842F0D320463C
S31500001270FFF798FF0100EBD0F2BD0020F2BD10B5DC
S315000012800446FFF78FFF00F004F800F01EF8172061
S3150000129010BD2278A1780620FFF772B980B51C49E7
S315000012A0FD220A70887001224A70012000E00020A9
S315000012B000F0EAFB00F033FB0028F8D1154908706E
S315000012C001BD010008BF1920E8E710B582B0124C35
S315000012D0207860B1002000F0D7FB0028F8D000206D
S315000012E000F0F0FA012000F0CFFB0020207040F261
S315000012F04A2269460120FFF7B3FE13BD000204002F
S315000013000012040000800140008401402484014052
S3150000131010050020090E00200A0E00200100000022
S3150000132000000000000000000000000001000000B6
S31500001330000000000000000000000000418AB1F536
S31500001340847F09DDCF49096890F868000902B0EB8F
S31500001350116F01D00020704701207047F8B5044690
S315000013600D4616461F4607E03046A047294600F0C0
S3150000137038FC05467F1E761CB8B20028F4D12846F4
S31500001380F2BD38B50C46154605E0014614F8010BCA
S3150000139000F027FC6D1EA9B20029F6D132BDF8B5C2
S315000013A004460D4616461F46286823683A463146C7
S315000013B09847040005D1E8683A463146FFF7E1FF51
S315000013C0E8602046F2BD10B5029C8472038142603B
S315000013D001604FF0FF31C1600021017410BD2DE99D
S315000013E0F84F8B4604469BF81B70D068A649802FA1
S315000013F0A8BF802788421E4651D1002E4DD0B06826
S3150000140000904FF0FF384FF000090BEB490000F158
S31500001410480A9AF800500BE0FFF7D1FD00984FF408
S315000014200063EA024146FFF799FF6D1C8046ADB2A4
S315000014309AF80100A84205DA09F10109B9F1060F87
S3150000144002DAE2E7FF2DE7D1DBF844006FEA080194
S31500001450884224D1A068736800BA7A08594698472A
S31500001460C8B9E06805BAA06802BAB0683B464FF052
S31500001470FF31FFF773FFC04385420CD140F6A7202A
S31500001480ABF810000122A068736800BA0BF11001D6
S315000014901030984708B1422002E0172000E04320B0
S315000014A0BDE8F28F2DE9F04F894609F1040583B0B6
S315000014B08046D5F800A0A888ADF804001646042397
S315000014C052464046FFF76BFF01007DD1BAF8000097
S315000014D040BA80B20090BAF8020044BAA4B2E0075B
S315000014E006D500984FF20861884218BF46206BD196
S315000014F0B4F5026FC8BF4E2066DC002C63D000989E
S31500001500DFF888B109F13C0748B14FF60441401AAB
S3150000151000F09D80FF3859D0FE3857D0AFE0287BC9
S3150000152008B1512050E08D2C28BF4F204CD22346C5
S3150000153009F1180200F0ADF8010045D1FA78802AC9
S31500001540A8BF802202F10C00844201BFA88A40BADB
S3150000155000F47F40B0F5007F31D1E88A40BA4EF200
S315000015605031884202BF288E40F6A721884226D1F4
S31500001570688E00F47F40B0F5807F01BFA86900BA8D
S31500001580DBF81C1088421AD14FF6FF70288609F145
S3150000159024014FF0FF30FFF7F4FEE96909BAC943A9
S315000015A0884204BF3878042809D17878182818BFEB
S315000015B0062804D109F12400FFF7C0FE08B945202A
S315000015C002E0012028730020BDE8FE8F287B00285A
S315000015D03FD0042300F05CF80100F5D1DAF80000F2
S315000015E005BADBF81C00241F8542A4B238BF482088
S315000015F0EAD3F96B6019884228BF4920E4D20098E3
S315000016004FF6035188420AD14EB13268294602206C
S31500001610904720B14A20D7E7E41BA4B2ED19002C6D
S31500001620D1D0BDF804008442B4BF274607463B46E6
S3150000163000F02EF80100C7D1002EEDD073687A08AD
S315000016405146284698470028E6D04B20BCE7287B21
S3150000165008B94120B8E7042C18BF4C20B4D12A6839
S31500001660042300F016F80100AED133464A4609F1CC
S31500001670240109F1140003B0BDE8F04FAFE64420A1
S31500001680A2E70000FC81E00FE320BBDE00000000C3
S3150000169052464946404682E670B50D4604462889BC
S315000016A08028164603DA4F2070BDA87A78B93246EC
S315000016B029462046FFF7F6FE0028F6D0172807D160
S315000016C0286861688847172802D1002070BD50201D
S315000016D070BD000000F0E1B810B5044600F00EF849
S315000016E050B1124812498278114489782170817864
S315000016F0491C8170002010BD012010BD10B50B4C97
S31500001700207888B900F0C0F978B1607840B100203F
S3150000171000F0D8F8012000F0B7F90020607010BD85
S31500001720012020700020A070012010BD090E0020AD
S31500001730800400207047814212D210441144401E9A
S31500001740491E93B2002B1EBF11F8013900F801396A
S31500001750521EF6D1704711F8013B00F8013B521EAC
S3150000176093B2002BF7D1704710B500E0521E93B22A
S3150000177023B100F005F8F9D0181B10BD002010BDEC
S3150000178010F8013B11F8014BA342704738B50C46DF
S3150000179011461A467F2908BF002141F2F0139C42E8
S315000017A018D12D490B6849680024D5B27DB303557D
S315000017B0641C1B0A521EE4B2042CF6D3E4B2082CB5
S315000017C025D2D3B2002B1FBF0155090A521E641C35
S315000017D0F4D131BD04F47045C4F30B03B5F5805F55
S315000017E011FB02F108BF43F07E630BD0B5F5005F35
S315000017F01CBF04F47044B4F5405F08D143F07C6329
S3150000180043F40113C918BDE83840FFF794BF31BD52
S3150000181070B51E00044615461CD04BF2346081425A
S3150000182012D1092E28BF082633467F2241F2020133
S315000018302046FFF7ABFF32460FF220012046FFF7A6
S3150000184093FF38B941F2F01133462A462046BDE8E7
S3150000185070409BE770BD0000F081E00FFFFFFFFFC7
S31500001860FFFFFFFF30239C4A584310441C30890079
S3150000187001EB401000F184400068704780B50921F3
S315000018800220FFF7EFFF00B10120C0B202BD93486E
S3150000189000214171817100F0BEB980B58F480021E9
S315000018A081700121C170017100210170092141700F
S315000018B000F00FFAFFF7EBFF00F02FFABDE801404A
S315000018C000F046BA80B560B105210520FFF7CAFFD2
S315000018D028B1FFF7D3FF10B181491020086000201E
S315000018E000E001207D49C87001BD7C490A7922B912
S315000018F00870012200200A714870704710B504462E
S3150000190000F055FA77484078A72807BF7648047054
S315000019100320FFF7EAFFBDE810400120B4E06F485E
S31500001920807970472DE9F8436C4C6D4D94F804901E
S3150000193080465FEA090004D0FFF7A0FF08B1102037
S315000019402860A078694EC0B11020286001E0FFF73A
S3150000195036FB05210520FFF785FF0028F7D010206C
S3150000196030600020A070E07820B9322000F0CCFA78
S31500001970102028600020BDE8F28360795A4F18EAEB
S31500001980000F27D0B9F1000F06D0002020710222E7
S3150000199021463846FFF7CFFEE07808B110203060C8
S315000019A03878052803DAA720B87003200DE0FE2852
S315000019B018BFFD2806D179787918A720887078781D
S315000019C0C01C02E0A72078700220A071A07900F068
S315000019D0FCF9CDE7A0790028CCD100F0FCF930B9AC
S315000019E0FFF74CFF18B100F0FDF900F0E5F900F043
S315000019F006FA0028BED0012060711020306000F089
S31500001A000AFA384D00BB00F008FA0028B2D0287850
S31500001A100A2806D00B2808D0FD2818BFFE2806D0B5
S31500001A20A8E78220FFF76AFFA4E7C120FAE76878F3
S31500001A30862805DBFFF72BFF0120FFF756FF99E706
S31500001A4000F0EFF9002895D000F0B0F900F0AFF9FA
S31500001A5000F0B1F9207918B1012000F015F889E7F6
S31500001A60687828448078A72803D00320FFF73DFF35
S31500001A70F2E72878FE2803D10420FFF736FFEBE7CC
S31500001A80FD203870012076E770B5144E174D0446D8
S31500001A90B07900F0D1F918B11020286001207071DA
S31500001AA000F0D4F908B10120B07000F0D7F978B190
S31500001AB010202860B07900F00EFA10B90220FFF766
S31500001AC014FFFFF7E4FEF07810B90549102008600E
S31500001AD02046BDE8704025E700A00040020E002029
S31500001AE0FCA000448004002010050020FCA0004655
S31500001AF00168C90707D58168890704D48168C907C1
S31500001B00FCD4012141607047044988421CBF044946
S31500001B10884201D1012070470020704700800140B3
S31500001B20008401402DE9F84304460D46FFF7ECFF1B
S31500001B302878010004BF0221616000216162697892
S31500001B4001B140216A7A02B18022AB7A03B1202327
S31500001B50EE7A06B1102695F8049095F805C095F82A
S31500001B600CE0EF7895F80280B9F1000F18BF4FF43A
S31500001B700059BCF1000F18BF4FF0805CBEF1000F9A
S31500001B8018BF4FF0080E3F0447EA0868AF7948EAE5
S31500001B908728EF792D7A48EA07273D4329431143E1
S31500001BA01943314349EA01014CEA01014EEA0101B8
S31500001BB0216008B101206060BDE8F1830A46090290
S31500001BC041EA12214840C0F30311484080EA003040
S31500001BD041010206C9B2D20E41EA0221484080B252
S31500001BE070470A0A484000F0FF0008214308C00772
S31500001BF046BF034858401846491EF7D15040704723
S31500001C002083B8ED1CB500931346049C01940A4644
S31500001C10FFF745F913BD70B5954C0FF2D421954DDC
S31500001C20954E204600F088F90020A067A06F6979DC
S31500001C300843A067A06F297940EA0120A067A06F3A
S31500001C40A97940EA0160A067A06FE97940EA0140FE
S31500001C50A0678A49606F40F001006067606F40F0DE
S31500001C6002006067606F40F004006067606F40F0DC
S31500001C700800606782487067824808608249E06CA5
S31500001C8040F00400E0644FF0FF30B06400203060A4
S31500001C9070614FF4807008600021204600F045F91D
S31500001CA005F12C0205F11C01002000F0D5F9774959
S31500001CB0012008600521204600F037F974480068C5
S31500001CC030B1F06C734940F00100F0640120086007
S31500001CD070BD00B585B068460FF20021142200F0F1
S31500001CE011FA6846FEF721FF04211120FEF784FE53
S31500001CF001216948FEF770FD01216848FEF76CFD79
S31500001D0001216748FEF768FD664800F081F96649DB
S31500001D104FF48070086005B000BD80B50123022233
S31500001D2006210220FFF7F6F80023042207210220ED
S31500001D30FFF7F0F80123022208210220FFF7EAF854
S31500001D40BDE800500123032209210220FFF7E2B873
S31500001D5010B5564C82B0002060600090012300222E
S31500001D6005210520FFF74EFF01230322052105204B
S31500001D70FFF7D0F8002020600090002301220921FF
S31500001D800220FFF73FFF0123042204210520FFF76D
S31500001D90C1F84748016821F0701141F04011016017
S31500001DA00121BDE81C400520FFF76EB87047374992
S31500001DB001200860704770473E48016841F0010104
S31500001DC0016001203349086070473B4901F1100268
S31500001DD0012000F041B92848006810F0010018BF42
S31500001DE001207047354881B001688DF80010016800
S31500001DF08DF8001000688DF8000001B0704730487B
S31500001E001F4AC16E8A4202D30068C00701D501206D
S31500001E10704700207047002070472A482A4900680A
S31500001E2005E02848164900684A788918C91C88427E
S31500001E308041C043C00F70472249114A09688A424F
S31500001E4002D208B901207047002070471F48016878
S31500001E50890601D520213BE0002070471B48016818
S31500001E60890502D54FF4007132E00020704700006A
S31500001E70000401401404002020200E40C4200E401F
S31500001E80800400201005002080E200E020200E449F
S31500001E90A40F144220200E464041050000250800EC
S31500001EA0003204007004002080E100E010A400402D
S31500001EB0F0A000406C200E40500400201C0401409D
S31500001EC028200E4094200E40820400201CA40040CE
S31500001ED0816001207047012070470000000000006B
S31500001EE0A00055010A200706020A040700000000A8
S31500001EF00500000000000000E803000005000100E6
S31500001F00000000000000000000F028B938B50446C3
S31500001F100800154604BF3948FEF78EFC401E6900CE
S31500001F20B0FBF1F00002606131BDCA43520002F01D
S31500001F300A02C260C160704738B504460D4600F01B
S31500001F403CF8A87B08B14FF480602168B5F91020F1
S31500001F50104340F0010008432060287D08B14FF08F
S31500001F600050216808432060A87C18B1E87C40F046
S31500001F708000A065287B40F480506060AA6869688C
S31500001F802046FFF7C3FF687B08B11020E06000F031
S31500001F9003F82878E06031BDA87DE97D00070905D2
S31500001FA000F0E04001F4E00108432066687D18B1C6
S31500001FB0206840F480302060704740F6AA61C16016
S31500001FC00021016041F2050141600021816041610B
S31500001FD0C1640B4A0B498164002141678167C1676F
S31500001FE09042094912BF884200220265002282659A
S31500001FF0884204BF05490A60704700004041050059
S3150000200000000140F9FF0100000401405C040140AA
S3150000201010B5044601213448FEF7DEFB62782178CC
S315000020203248120242EA0161A2781143016000219E
S315000020300162C16241634FF00041C1664FF0FF315A
S3150000204081664FF480702A492A4A0860E17849017E
S3150000205011702949086010BD70B50C46012101FABE
S3150000206000F530232549214E584308442168016074
S31500002070617B8160E37AA17A1B0543EA0141237BF8
S3150000208041EA43514160910889008161B56600F0DB
S31500002090ABF8F16E2943F166217A11B1716B2943D0
S315000020A07163617A11B1F16A2943F162316822796B
S315000020B0130004D0D243120262F47F4211406279C7
S315000020C0130018BF41EA0221A279130018BF9143F9
S315000020D0E279130018BF1143316009490D60F563B9
S315000020E0BDE8704000F086B80045080000200E40AC
S315000020F080E200E008E400E000E100E080200E401D
S3150000210028200E44103A07D330B4B1E83810103AFC
S31500002110A0E83810F9D230BC530724BFB1E8081044
S31500002120A0E8081044BF51F8043B40F8043BD2072E
S3150000213024BF31F8022B20F8022B44BF0B78037022
S315000021407047083A07D3B1E80810083A40F8043B4C
S3150000215040F804CBF7D25307E4E7000038B500F0A7
S315000021601BF804460D4605E04FF6E85000F020F84F
S3150000217000F00CF800218D424FF6E950F4D8844265
S31500002180F2D2A0B200F014F8002032BD14484FF08D
S31500002190FF3124184D4170470E490F4A4968002304
S315000021A0E0FB0123104619460C4A002300F026B82E
S315000021B0010081B00BD00B490A6892B20B68ADF8EA
S315000021C00030BDF800309B1A9BB28342F6D301B0B3
S315000021D0704700007404002020A1070040420F0051
S315000021E01802FFFF24800140EFF31180602181F384
S315000021F01188704780F31188704700001B4213D185
S31500002200094236D12AB18446B0FBF2F002FB10C275
S31500002210704700F06BB8FCD30022002370470B0018
S315000022200200002100207047904271EB030CF6D3A8
S3150000223070B5B1FA81F4B3FA83F52C1BA340C4F14F
S31500002240200532FA05F63343A2405FF00046E64029
S3150000225002E05B085FEA3202841A71EB030524BFD1
S31500002260204629467641F4D302000B0030000021B7
S3150000227070BD012ACFD970B5140C20D0B1FA81F403
S31500002280B2FA82F5C4F120046419B4F12006D6D35B
S31500002290B2405FF00044F440002502E052085FEAD5
S315000022A03303C61A71EB020E24BF304671466441F1
S315000022B06D41F3D302000B002000290070BD0C46CF
S315000022C0B1FBF2F102FB11452D0445EA1045B5FBC1
S315000022D0F2F402FB145580B240EA0545B5FBF2F074
S315000022E002FB105240EA044070BD00007047000037
S315000022F0794841F6713181630168490849000160F6
S3150000230070477548016849084900016000218163EA
S3150000231070477249724A01E021B1491E1369DB0711
S31500002320FAD401B9BAE0506001201060106910F0CB
S31500002330060F05D0410700D5B3E0800700D5B3E00E
S3150000234000207047F0B513460022002936D0634CB2
S31500002350634D8BB98B4231D250F8046BEE605B1C37
S3150000236008262E60264601E036B3761E2F69FF0743
S31500002370FAD4002EEED11FE0EFF3108672B60023DA
S315000023800EE02F6907F01907102F08BF2F602F697D
S315000023903F07F6D550F8047BEF605B1C10272F60D3
S315000023A08B42F4D306B962B6264601E026B1761E04
S315000023B02869C007FAD40EB96FF002021046F0BDC4
S315000023C02DE9F84F444F0D4639680446002041F088
S315000023D001019B4639604FEA92088146AA4602E00F
S315000023E0B1440AEB860AC14517D204EB890630468A
S315000023F0FFF78FFF010022D1C6F30A00C0F5006087
S315000024008608A8EB0900B04238BF06465A46314650
S315000024105046FFF797FF0100E2D021682A689142F3
S3150000242009D02046FFF775FF010004D15A46012165
S315000024302846FFF787FF3968490849003960BDE833
S31500002440F28F2549254A0B6843F001030B6088602B
S31500002450012048604869400704D5086840084000E4
S3150000246008601EE04869800704D5086840084000F7
S31500002470086019E00220486001E022B1521E486956
S31500002480C007FAD422B9086840084000086005E091
S315000024900868400840000860002070476FF002009E
S315000024A070474FF0FF3070476FF001007047002310
S315000024B086E70948016841F00101016046F21A31D8
S315000024C0C1644FF4807141604169C907FCD40021A1
S315000024D0C16400207047000008000E4080969800F6
S315000024E00C000E404EF68851CEF20001086840F40A
S315000024F070000860BFF34F8FBFF36F8F4FF000700F
S31500002500E1EE100A704738B504460D46FFF7F0FEB7
S31500002510012C02D1FFF7CDFF02E02846FFF791FF1D
S3150000252018B1FFF7EEFE012032BDFFF7EAFE0020EC
S3150000253032BD10B5C20782B01BD402884FF6FF73B6
S315000025409A4201D00A0014D18408A40080072268A8
S315000025504EBFC2EA0140100C41EA00400090FFF76E
S31500002560C7FE042269462046FFF7A1FF18B1FFF710
S31500002570C8FE012016BDFFF7C4FE002016BD70B5CB
S3150000258004460D46164604E0FFF7BBFE241D2D1D2E
S31500002590B61EB6B1012E01D0A00706D535F8021B2E
S315000025A02046FFF7C6FFA41C761E022EF1D3FFF7C6
S315000025B09FFE042229462046FFF779FF0028E3D034
S315000025C001E0002070BDFFF79CFE012070BD2A10BF
S315000025D03A1034B6C0EA210100F04902008000003A
S315000025E0C0EA2101C0EA2101000401400B0B0B0BDC
S315000025F00000000008000000FF00000001010000CC
S315000026000000000000000D000000000000000000B7
S3150000261000000000D00810031C04014080040020C4
S315000026200000000002000D00000000000000000095
S3150000263000000000D00810301005002034040140CE
S30D00002640000000000700000382
S7050000007981
