S00E00006E63702D7370692E7333372C
S3150000000058E5002075AE02006941000059AE0200B5
S31500000010A70A0A010002000004180FAC0062930050
S3150000002000000000000000000000000000000000CA
S31500000030000000004CC402000000000000000000A8
S315000000400000000000000000FFFFFFFFFFFFFFFFB2
S31500000050FFFFFFFF00700700000000000000000027
S31500000060FFFFFFFFFFFFFFFF28000000000000006A
S31500000070000000000000000000000000000000007A
S31500000080000000000000000081FF002081FF00202A
S3150000009058E5002000D40200C6B10200F8DB0020BB
S311000000A090120020000008000000000084
S3150000020058E5002075AE02006941000059AE0200B3
S3150000021061AE02005DAE020065AE020071AE020084
S3150000022071AE020071AE020071AE020071AE020044
S3150000023069AE020071AE020071AE02003D2A0000F6
S31500000240439A000045370100111C000071AE020000
S315000002504D3301008D3701004B3701004D3701004A
S3150000026047370100F11502003B180200C97800006B
S315000002706F5A000071AE020071AE02002305000045
S3150000028071AE020071AE02005918020071AE020092
S3150000029071AE020071AE020071AE020071AE0200D4
S315000002A071AE020071AE020071AE020071AE0200C4
S315000002B08F3701004937010091B10200FB7D000034
S315000002C0C737010071AE020081B1020071AE0200B3
S315000002D071AE020071AE020071AE020071AE020094
S315000002E071AE020071AE020071AE020071AE020084
S315000002F071AE020071AE020071AE02006C496D4A29
S3150000030001E021B1491E1369DB07FAD401B9B0E057
S31500000310506001201060106910F0060F05D04107EB
S3150000032000D5A9E0800700D5A9E000207047F0B508
S3150000033013460022002936D05D4C5E4D8BB98B42A8
S3150000034031D250F8046BEE605B1C08262E60264600
S3150000035001E036B3761E2F69FF07FAD4002EEED1E0
S315000003601FE0EFF3108672B600230EE02F6907F048
S315000003701907102F08BF2F602F693F07F6D550F8D1
S31500000380047BEF605B1C10272F608B42F4D306B909
S3150000039062B6264601E026B1761E2869C007FAD461
S315000003A00EB96FF002021046F0BD2DE9F0479A46ED
S315000003B0414B424F1C681B683B688046002043F057
S315000003C001033B60950881460C4602E0B14404EB0C
S315000003D08604A94517D208EB89063046FFF78EFF3B
S315000003E0010014D1C6F30A00C0F500608608A5EB2B
S315000003F00900B04238BF0646524631462046FFF74E
S3150000040096FF0100E2D03968490849003960BDE825
S31500000410F0872949264A0B68096828490B6843F082
S3150000042001030B608860012048604869400704D5D5
S3150000043008684008400008601EE04869800704D547
S31500000440086840084000086019E00220486001E0A2
S3150000045022B1521E4869C007FAD422B9086840087A
S315000004604000086005E00868400840000860002079
S3150000047070476FF0020070474FF0FF3070476FF023
S3150000048001007047002390E70C48016841F0010124
S31500000490016046F21A31C1644FF4807141604169CE
S315000004A0C907FCD40021C164002070470000000089
S315000004B0809698000C000E4004300E4008000E4056
S315000004C0072802D23549085C7047FF207047072885
S315000004D002D23349085C7047FF20704738B504469E
S315000004E0304800EB8105A8780009FFF7E9FF207185
S315000004F0A87800F00F00FFF7EAFF6071FF2814BF2D
S3150000050001200020E8702146E878A0712878607004
S315000005106878254DA070284600F0A3F80120A86051
S3150000052031BD10B5214984B01CC968461CC020489D
S31500000530204A0178D36814682340DB072DD50329A8
S315000005402BD2184C12691C4B04EB8104E4781CB1C5
S3150000055014B2002C48BF002223F811200123174AA9
S31500000560147803FA01F121431170154A117891B1FB
S3150000057000211478CC40E40708D501708B40107830
S31500000580584010706846FFF7A9FF1FBD491CC9B245
S315000005900329EED31FBD032101701FBD28C402002D
S315000005A030C40200E4ED0020002000401CC402001C
S315000005B03DFF00203820004008EE00203EFF0020CE
S315000005C03CFF0020890001EB401000F184400260EE
S315000005D0704730B5002A446BDFF834511ABF102239
S315000005E0DFF83031DFF8303123400024A84237D11C
S315000005F0DFF8280151B101290CD002291ED00329A8
S315000006000CD0062915D0812918D023E0016804688A
S31500000610006816E001680468006802E04168446802
S315000006204068090C01F4FE41C4F303442143000C65
S315000006300CE08168806801F00F0107E041684468BA
S31500000640406801F4FE4104F00F04214300F0F0007D
S3150000065040EA010404FA02F0DFF8C4101843086007
S3150000066030BD38B504460D460220A0600022A978A8
S315000006702046FFF7AEFF287969786B79020242EAD5
S31500000680016242EA0342EB7842EAC302EB790BB11C
S3150000069042F000522B7A0BB142F00402AB790BB157
S315000006A042F002026B7A0BB142F00102AB78F328FA
S315000006B006D1180004D10429BCBF042060F31B62D4
S315000006C018064CBF42F0E00042EA4310206115498B
S315000006D060690840A9780A0644BF21F080010843F2
S315000006E0297840EA4140E97A09B140F480406061E6
S315000006F00221AA7A2046FFF765FF2879F32804F13C
S315000007003000BDE838400CBF01220022102159E715
S3150000071000200040FFFF00800080FFFF1082E00FF6
S3150000072034200040F8BFE1FF42DE704738B504468A
S315000007300D4600F0FFFB01F086FA01F0A5FA294606
S31500000740204601F0CAFA2B4622466949012001F0EB
S3150000075064FC29462046BDE83440E5E765482DE9B6
S31500000760F047654D01682E1D4FF420687165016ADA
S31500000770B16562490A68F26549683166416A71661F
S31500000780816AB166C16AF166016B3167806B706719
S3150000079096F8340040074CBFF46BB46B01F0C9FC0B
S315000007A00022F2648442564A014624BFA2F1200A7E
S315000007B0A2452746316505F19003DFF848C1DFF809
S315000007C048E118D3A0693064E4697464746DC4F3B5
S315000007D00804062C13D1704511D360450FD200884A
S315000007E04DF64264A0420AD13068586040F2017862
S315000007F07068986003E000273764776407464348CB
S31500000800814202D2014600E0091D0846904203D209
S315000008100C68B4F1CD3FF7D03D49081AB064002109
S31500000820002005EB8004401C0628E167F9D3002070
S3150000083003E0C0B205EB8004E167974223D252F889
S31500000840041D7145F9D36145F7D2CC07F5D50024CF
S3150000085005EB8409D9F87C90894502D0641C062CE6
S31500000860F6D3062CE9D1002814BF401E0520E0E788
S31500000870B16F002405EB8402641CD2F88070D76740
S31500000880052CF7D319600146481EC9B20029EFD1DD
S31500000890706DC0F30800032810D0042811D0052875
S315000008A012D0062813D00C2817D0122818D11948B0
S315000008B00068800719D540F2025816E040F6012874
S315000008C013E040F6022810E040F603280DE0B8F5E4
S315000008D0206F0AD140F6042807E040F6052804E018
S315000008E018B13F2838BF40F607284046BDE8F087D4
S315000008F038C4020004ED00E00000002000E300E040
S3150000090058E50020C6B10200C00400009C0000208B
S3150000091058E500201C20054080B5002300931346AF
S31500000920012201F063FC01BD00F08CBE00F08ABE1E
S3150000093010B54C00014600F026FD224601F035FCBC
S31500000940A04201D0002010BD012010BD80B500F0EE
S315000009501AFD01F0B8FC00B10120C0B202BDDFF8FB
S31500000960280B407D00B101207047DFF81C2B117B5E
S3150000097001B9704780B50146106A01F0FAFC20B152
S31500000980BDE8044040F27111C6E201BD80B500F039
S31500000990FAFC01F003FC00F00300032801D101205A
S315000009A002BD002002BD80B5B0F5004F07D100F0B2
S315000009B012FEDFF8D80A00F0CFFCBDF80000DFF821
S315000009C0941BC883002002BD2DE9F04F440900F0B6
S315000009D01F050027DFF8808B00E07F1C98F8066073
S315000009E0F8B2B04236D2D8F80800FFB250F8270065
S315000009F04FF0000C01E00CF1010CC67E5FFA8CFE94
S31500000A00B645EAD2D0F81CE05FFA8CFC142616FB39
S31500000A100CF6B6449EF8086006F00706A642EAD130
S31500000A209EF80960B542E6DB9EF801B09EF800909C
S31500000A3006EB0B0AAAEB090AAA45DCDB11B1AC1BD3
S31500000A404C440C7012B19EF8081011701BB1C3F81B
S31500000A5000E000E00020BDE8F08F400918BF40F03C
S31500000A601800704710B5DFF8104B206A01F02BFC18
S31500000A700246206ABDE81040002101F040BC0B3858
S31500000A80102834BFDFF8D40ADFF8F00A0068704790
S31500000A903EB568460021002200230EC0DFF8AC09EF
S31500000AA001788DF80010817A0A0018BF022914D146
S31500000AB00079DFF8C45A00F0BBF8044600F00EF8DF
S31500000AC058B1286A0122002101F06AFB00F006F8FD
S31500000AD018B140F25B2100F06DFB37BD286A6A460B
S31500000AE0214601F0A4BB2DE9F041044604F01F00A5
S31500000AF01B2886B034D2002000906B4600220021CD
S31500000B002046FFF761FF07002AD02046FFF7B7FF10
S31500000B105FEA000824D0DFF87069DFF8385AF06B16
S31500000B20804515D001A84146062201F099FC306A9D
S31500000B30C6F83C8001A901F07EFC88B9306A03A999
S31500000B4001F087FCB5F91C10306A01F04FFC38B98A
S31500000B500098B06277620098002818BFC06801E06C
S31500000B608A200EE0F06229798C421CBF2C71FFF7B7
S31500000B708FFF96F90D00C101306A09B201F060FEDF
S31500000B80002006B0BDE8F081DFF8C809007970479B
S31500000B90DFF8C009B0F91C00002854BF05216FF02A
S31500000BA0040108180A2190FBF1F040B270470A21AF
S31500000BB010FB01F0FFE7F8B500F5D77240F2772396
S31500000BC09A4201D38B20F2BDDFF8BC48DFF8845986
S31500000BD0A26A0A23002A1EBFAE7F06F0C006802E38
S31500000BE012D0A67B86B992F9026016FB03F7B842CB
S31500000BF0B8BF16FB03F007DB92F9032012FB03F6DE
S31500000C008642B8BF12FB03F0217B61B10146206A20
S31500000C1001F0ECFB18B140F2B92100F0CBFA206AE2
S31500000C2001F0F7FB01E010FB03F0A8830020F2BD02
S31500000C3038B50446FFF723FF90B1002300220021B8
S31500000C402046FFF7C1FE58B104F01F051B2D07D241
S31500000C502046FFF702FF18B90B2D01DB284632BDEF
S31500000C60FF2032BD0FF208014008085C7047000003
S31500000C70504030007047C0B2704710F1630F01DA80
S31500000C800020704710F1240F01DBFF20704764300D
S31500000C900002411100EB91608004000E704770B5B0
S31500000CA0DFF8E447DFF8C05A00202064687828B1EE
S31500000CB001F0CAFD012818BF032801D1002070BD2C
S31500000CC0E16ADFF8A83ADFF88C2800291FBFA66A78
S31500000CD03669002E022817D12364906900F5FA7050
S31500000CE09061E07C18B100200021642203E0E878DE
S31500000CF029794FF4A0722070A2806170A878A07044
S31500000D008020E080002030E0DFF8645A9069AE422F
S31500000D1013D1DFF8603A236400F57A709061E07CC5
S31500000D2088B90879207001228B7808799A401018C2
S31500000D3091F903201018401E0CE0236400F5FA70A8
S31500000D409061E07C18B100202080642005E048789E
S31500000D5020708878607008780001A0804879A070BB
S31500000D6008890001E080C8880001A06000F039FC15
S31500000D70E07094F90200010048BF4042C0B270BD65
S31500000D8070B50446DFF80067257896F9140008B1B7
S31500000D908C2070BDFFF783FFB075DFF8CC29DFF834
S31500000DA0B40741780174690101F580718161937915
S31500000DB0716C002BB37B1DBFAD1EEDB221F002019D
S31500000DC041F0020173B9127862B16278920609D5D0
S31500000DD06FF00102327541F00101826902F5087275
S31500000DE0826104E049084FF0FF30490030757164B4
S31500000DF0032000F007F96A1C306A4FF4807392B240
S31500000E00214601F04AFD691C884203DA40F21B4183
S31500000E1000F0D0F9002070BD00000000F8B5DFF842
S31500000E20685695F914100024091D04290FD8DFE827
S31500000E3001F0080E10100300FFF7A2FF040008D00F
S31500000E40F2BD2C75286A01F0AFF98D20F2BD8C2019
S31500000E50F2BD01F03EFDE8B1286CDFF810198842BA
S31500000E6018D1A87DB0B1DFF8A00A0068002811D516
S31500000E70DFF8D00AC168C1600122006800F00F00E7
S31500000E8002FA00F0401E014204D100F0F1FB64209A
S31500000E9001F023FD01F066FD064695F9140010F1F8
S31500000EA0010F1CBF95F9140010F1020F29D195F915
S31500000EB01400DFF8A0764042287501F059FD7862EB
S31500000EC0296C387949B9FFF7B3FE01466A6C286A7E
S31500000ED007F1100301F09AF90BE0FFF7A9FE07F1FD
S31500000EE01001009101466A6C286AD5F840C02B466D
S31500000EF0E04760B1002028758C244FF0FF307862FF
S31500000F0002E0002028758D24286A01F04DF930464C
S31500000F1001F09FFD2046F2BDDFF8700AFFF706BC20
S31500000F202046BDE8104001F094BDDFF82806C08BCE
S31500000F3070470000F8B501F015FDDFF810550446BE
S31500000F40A87A012803D1204601F083FDF1BDDFF820
S31500000F50401ADFF83465DFF8347A40200860012251
S31500000F60306A012101F01CF9DFF8281A4FF400104D
S31500000F70086069460FF2880000680090306A01F048
S31500000F8053FC20B140F2C7413846FFF7CFFB0220A1
S31500000F908DF800006946306A01F023FC20B140F26A
S31500000FA0C9413846FFF7C2FB306A01F01BF9002140
S31500000FB0002001F051FD00F045FB0120A87296F9D2
S31500000FC01400001D072810D8DFE800F0140F0707EB
S31500000FD0040B0B0B01F0FAFE0CE06FF0030030750A
S31500000FE008E0892000F079FB04E040F2ED41384644
S31500000FF0FFF79CFB204601F02CFD01F086FFF1BDBA
S31500001000040100002DE9F04DDFF840540446A87AAB
S31500001010A04282B063D00FF2CC01DFF87C69096888
S31500001020DFF86889DFF86074DFF868A900910328A3
S315000010304FF4001B4FD8DFE800F047023E2B01F0CB
S315000010406DFF386A694601F0EFFB18B140F20A51AC
S3150000105000F04AF802208DF800006946386A01F06F
S31500001060C0FB18B140F20C5100F03EF86879002838
S3150000107014BF00220222386A022101F085FF18B14E
S3150000108040F2115100F030F80320032CA87218D05A
S31500001090CAF800B00220A8722879FFF7C9FD0146F8
S315000010A0386A002201F0C3F818B140F2215100F06D
S315000010B01BF8022C13D0002C18BF032C0FD10020D4
S315000010C0A872C6F800B00AE0022C08D1CAF800B02F
S315000010D00220A87203E040F2375100F005F8BDE89F
S315000010E0F38D0000040200004046FFF71FBB0020FE
S315000010F088E7DFF8AC0A807A70470000032805D835
S31500001100DFE800F00302030314E77BE740F25551E2
S3150000111002E780B500F00FF804D500210175006ADA
S3150000112001F042F8DFF8780A407A012802D1BDE8DA
S315000011300140FFE601BDDFF86C0A90F914100029A2
S315000011407047DFF85C0A407A704780B5032801DBF8
S31500001150012002BDDFF8481A4872897A884218BF12
S31500001160FFF7CCFF002002BD2DE97C4FDFF8346A83
S3150000117003EA010BD6E9068929EA010528EA0004F3
S3150000118002EA000A45EA0B0544EA0A044D4508BF8F
S3150000119044450DD0CDE900230246306A0B4601F0E6
S315000011A045FB18B140F27D5100F004F8C6E906454A
S315000011B0BDE8738F0FF62420FFF7B8BA38B5B24DE5
S315000011C00446287BE8B1200018BFDFF8DC2904D1EB
S315000011D0A87C08B1402200E000220023DFF8C809FD
S315000011E00021FFF7C1FF002C14BF08220022286A45
S315000011F0082101F0C9FE20B1BDE8344040F2B951E2
S315000012008AE631BDF8B50446022C0FF6D01503DB8D
S3150000121040F2E25100F0A5F89B4E307B002840F0EA
S3150000122097808A4FB87A012803D04FF4BD6100F049
S3150000123098F8002107F1280000F0A0FF306218B9E5
S3150000124040F2EB5100F08DF8306A052101F087F984
S3150000125018B140F2EE5100F084F8306A0FF69011A2
S3150000126001F0A4FE18B140F2EF5100F07AF8306AAE
S3150000127001F0D0FE18B14FF4BE6100F072F84FF0E5
S31500001280FF30DFF8282906230146FFF76DFF306A95
S315000012904FF0011101F045F818B140F2056100F078
S315000012A060F8306A4FF48032002101F028F8306A85
S315000012B009224FF0FF3101F067FE18B140F20C61D0
S315000012C000F04FF8012030730223DFF8E40800F045
S315000012D043F8BDF80000C0054CBF0020BDF8000073
S315000012E0707301F0F6FAFFF769FFF88BFFF75BFB07
S315000012F001F010FF00F085F83879FFF7F4FB18B11C
S3150000130040F21F6100F02DF8F87900F040F8387AC5
S3150000131000F058F8307C00F086F8787900F0CCF8C8
S3150000132000F05FF900F02CF9B07C00F01BFBB7F978
S315000013301C00FFF740FC388C00F08AF8788C00F02F
S31500001340A7F8B87900F00DF9601E8041C00FB87299
S315000013502046FFF7D3FEF1BD01887F22684601F0E3
S3150000136027BF2846FFF7E2B980B500F00CF8012147
S3150000137000F060FF10F5007F02D16FF07F0002BD24
S315000013808005001602BDDFF81C08006A704710B51C
S3150000139004463D48017B51B1611E8941006AC90F6F
S315000013A001F08AFE18B140F25A61FFF703FF2000F0
S315000013B0DFF8EC1718BF0120C87110BDDFF8E00791
S315000013C0C0797047F8B5044601F0CCFA05461F48C7
S315000013D02D4E0472377BFFF7C2FA00F0010080F051
S315000013E00100074204D0306A84F0010101F0A3FF36
S315000013F02846BDE8F24001F02CBBDFF8A407007ACE
S3150000140070472148017B01B9704780B5006ADFF853
S31500001410A417002201F03DFE20B1BDE8044040F2D1
S31500001420856179E501BDDFF87C27117B107401B970
S31500001430704780B50146106A01F032FE20B1BDE862
S3150000144004404FF4D26167E501BD000048E9002081
S315000014504049DFF850370884197B01B9704780B5D9
S315000014600146186A002201F00DFE20B1BDE80440D5
S3150000147040F2A16150E501BDDFF82407008C7047FA
S31500001480DFF81C07408C704748ED0020D8CE0200DC
S315000014903049DFF810374884197B01B9704780B5A9
S315000014A00146186A002201F0E6FD20B1BDE80440BD
S315000014B040F2B76130E501BDDFF8E4164A798242B1
S315000014C000D1704710B58C7A4871012C05D0FFF712
S315000014D031FD2046BDE8104094E510BD10B500F082
S315000014E032F800F02BF80146206A012200F097FE40
S315000014F020B1BDE8104040F2D9610DE510BD80B5C0
S31500001500FFF741FF00F08EFE18B140F2DE61FFF7F3
S3150000151051FEBDE80140FFF7BBBA10B500F013F865
S3150000152000F00CF80146206A002200F078FE20B197
S31500001530BDE8104040F2E961EEE410BDDFF8600658
S315000015400079FFF775BBDFF85C46206A01220121AE
S3150000155000F026BE48E90020F0CB0200C8E80020D3
S31500001560CDE710B50446FFF70EFF214601F0E9FE70
S31500001570DFF82C06847110BD48ED0020CCE8002071
S3150000158038B504467F2C0CD100F025F8DFF8280684
S31500001590FFF7E2FEBDF800007E24C00558BFBDF887
S315000015A0004001F0DFF90546FFF7D9F960B960B2EE
S315000015B07E2805D1DFF8EC15896A09B191F9040096
S315000015C07E28B8BFFFF7D1F9DFF8D40504732846A3
S315000015D001F03FFA31BD4FF6FF70ADF8000002236F
S315000015E07047DFF8BC0590F90C007E2807D1DFF8BC
S315000015F0B405806A08B97F20704790F904007047E7
S3150000160010B501F0A1FE80041AD500F02BF801F008
S315000016109BFEC0044CBF03200120002101F096FE72
S3150000162001F092FE00F0FF004FF47A7111FB00F119
S3150000163004F14800BDE81040DFF88025FFF76CB9DB
S31500001640BDE8104010B500F00DF804F1480000F0B8
S31500001650D6FDFFF79BF920B9BDE81040002101F047
S3150000166075BE10BDDFF83C4504F1600000F0C7BD53
S3150000167080B501F069FE4005BDE804404CBF03207B
S315000016800120002101F0E8B910B5DFF8184594F9FA
S31500001690140003280DD100F02DF9DFF804154FF0E2
S315000016A0FF3048620022216BBDE81040402001F067
S315000016B000BA10BD38B50446FFF7C4FFDFF8E4549E
S315000016C001F067F9686314B101F0D7F801E0002072
S315000016D06874BDE8314001F079BB38B50446DFF8DF
S315000016E0C014DFF8C0544FF0FF30486201F051F9E2
S315000016F0686395F91400012802DABDE831407FE7F6
S31500001700A87D08B1686BA86300F062FAA87B10B1E7
S315000017100120E87331BD2046BDE838400022002193
S3150000172001F0C7B910B501F0D4F8DFF8784498B1E4
S31500001730FFF72CF980B104F1480000F060FD01F0DC
S3150000174007FE002101F002FEDFF8742442F2107158
S3150000175004F16000FFF7E0F8A07C18B1BDE8104086
S3150000176000F055BA10BD0000F4EA00201322000074
S315000017700C1C0000192200002DE9F043DFF8244478
S315000017800FF25849206A89B005AA022101F088F8AB
S31500001790050003D140F6E70100F0A9F89DF8140012
S315000017A0DFF8FC63BDF8168007281CBF7079002897
S315000017B019D1B8F1060F16DB08F108008B2812D2F2
S315000017C0002000904346DFF8FC73206A3A4629461B
S315000017D001F06EF8404503D04FF4106100F087F831
S315000017E03878000602D5FFF70BFF7DE001208DF863
S315000017F00800CDF804806A46206A294601F054F8AC
S3150000180018B140F6171100F072F8787800F007006A
S3150000181002281ED1FFF716FF94F91400032808BF0B
S31500001820B8F1060F11D19DF80D0070B17878000956
S3150000183000F0010500F05EF84FF0FF3070622A46B6
S3150000184000218F2001F035F94EE0F07900284BD1C8
S3150000185005E09DF80D0010B10020FFF715FFF079A7
S315000018609DF80D10084203D040F63F1100F03FF8F6
S31500001870F07958B17878800608D5307A30B1206A88
S3150000188001F05CFD30B1FFF7BBFE03E0FFF7DAFEC7
S31500001890002060743878401C404503D040F65F1144
S315000018A000F025F807EB08053079287001F059FE9D
S315000018B068709DF80E00A87095F90200FFF7DDF933
S315000018C0E87008F10801FF202871C9B20098000CE1
S315000018D068710098000AA8710098E8713846627C21
S315000018E001F02FFA0020607409B0BDE8F083484685
S315000018F0FEF71CBF00202075206A00F055BC0FF2D1
S31500001900E420FEF713BF00000440084010B5A448C9
S31500001910446A002C14D401F02BF8001B40F2E93184
S3150000192080B288420CD39F4890F91400032803D153
S31500001930BDE810400020A7E6BDE810408920CCE6AF
S3150000194010BD00004C50084010B540B900F096FF9D
S3150000195001F008F80446FFF7D9FFFFF7E1BABDE842
S315000019601040D3E738B58F4D0446287B60B1200080
S3150000197002D100F0AEFF08B1402200E000220023B1
S3150000198040200021FFF7F0FBAC7431BDDC1B0000EA
S315000019900840084018600846186008442DE9F047DA
S315000019A081461446600688B0984648BF002002D497
S315000019B0200602D50120FFF7B5FEA003794D25D5F7
S315000019C0002068746946484601F08BFBF0B99DF823
S315000019D0080002280ED1BDF8000002F05FF8FF28CB
S315000019E00ED07949096831F810004FF4E6610842D3
S315000019F006D10BE0032809D1684602F0C2F828B1E7
S31500001A00286A01F06BFB08B901206874600410D5E0
S31500001A1000F05FFF68B1FEF7B9FF50B102F04AFB74
S31500001A20064601F095FC864203D00021304601F0BF
S31500001A308DFC200744BF4846FFF79EFEE00548BFE1
S31500001A40FFF7DEFD4FF41850044218BFFFF7FAFD0A
S31500001A50E00244BF0120FFF72DFE600244BF0120D3
S31500001A60FFF728FEE00144BF0020FFF723FE95F9AB
S31500001A7014000FF2681A012864DB286A484E210315
S31500001A804FF0FF3730D595F9141001295ADB95F937
S31500001A901410032956DA00218DF8181001218DF84B
S31500001AA0141003A900F0D8FC0398286300F071FF16
S31500001AB06863A87D08B1686BA86395F914000128CE
S31500001AC004D002280AD1032028753BE000F080F8F4
S31500001AD07762A87BA8B9296B002218E04FF4016150
S31500001AE05046FEF723FE2DE014F0845F12D000214D
S31500001AF0297500F059FB042000F0C1FE7762A87B2F
S31500001B0010B10120E8731DE0002200218D2000F0B5
S31500001B10D0FF17E0A00248BF892002D4A00103D558
S31500001B208820FFF7DAFD0DE0600048BFFFF7A0FD53
S31500001B30A00007D525480068400403D400210020F2
S31500001B4000F08AFFA00744BF4846FFF79DFD002C22
S31500001B5004D5FFF777FD4846FFF796FD08F002012A
S31500001B600023994212D0484600F016FB022802D004
S31500001B70032802D005E0892000E08D20FFF7ADFDA7
S31500001B8004E040F67B015046FEF7D0FD08F0040164
S31500001B900023994218BF02F0E5FA08B0BDE8F087C5
S31500001BA048E9002048ED0020406700600A00FA93EB
S31500001BB0DCCE0200F0F80020DECE0200290900008B
S31500001BC02D090000F8F500206CE8002004400840CC
S31500001BD000202875286A00F0E7BA00007068792EA0
S31500001BE0630000006C69627261696C2E610000001E
S31500001BF00000000001006003010101016400B6005D
S31500001C006400C000000000000B00000000007047E8
S31500001C1002F0AABA80B50121154802F071FB042131
S31500001C20072002F0EBFF13481349144A0160042110
S31500001C301160022141620421114A1160816A41F05A
S31500001C400201816201BD0B4803F01AB8A52800D035
S31500001C50704780B500F005F810B10A490020086009
S31500001C6001BD0448006810F0010018BF012070474C
S31500001C7000250800002005400108030080E200E07E
S31500001C8000E100E00000A442602080F31188704764
S31500001C9070B503F0EAF8AD4C204603F0C3FCD8B9A2
S31500001CA0204603F075FCFF28044615D0A8490968AC
S31500001CB0085C851EE9B2204603F0ECFB0646E9B255
S31500001CC0204603F0E5FA2146304600F0ECF82046BF
S31500001CD0BDE8704003F07CB970BD03460A4699A181
S31500001CE00420FFE70CB480B502AA00F031F801BC6D
S31500001CF05DF80CFB0A0003D0034693A11120F1E71F
S31500001D00704700B587B001F00FF9002105910491E5
S31500001D1002466221039100230021029101910120D4
S31500001D208C4900910FF23C21FFF7DCFF8A4881794C
S31500001D30C3788278039101880291417901910179F2
S31500001D40009142200FF22821FFF7CCFF07B000BD1B
S31500001D502DE9F04F85B005460C46904603F0C1FCD0
S31500001D600026F8B903F00AF8E0B1012003F0C5F83F
S31500001D708246BAF1FF0F15D0002103F0B9F82946C3
S31500001D8001A803F001F805469CB900F087F830B9C0
S31500001D90504603F061F810B1042003F093FC50465E
S31500001DA003F016F905B0BDE8F08F8DF80420012583
S31500001DB0641C20780100E8D0A0F130010A2905D280
S31500001DC00A2101FB0600A0F13006F1E700F066F8F3
S31500001DD00028E4D122780025422A01A80ED0442A00
S31500001DE01AD0462A25D0572A0DD0622A3AD0662A1A
S31500001DF02AD06C2A25D0702A26D0D6E758F8040BAC
S31500001E008DF80400D3E758F8041B8DF8041002255A
S31500001E100904090E4170CBE758F8041B8DF804102D
S31500001E200A0A427004250A0C8270080E8DF8070013
S31500001E30BEE758F8041B504603F0DCF90028B7D07B
S31500001E40ADE758F8046BB3E7012358F8041B662A7C
S31500001E5008BF0223F2B2504603F0ABF9002808BFD0
S31500001E600026ECE73A4858F8047B006810F80A9018
S31500001E70FFB2FF2F9CD010F807B00BEB0901C9B2D7
S31500001E80504603F005FA002889D1CDF800B00023AA
S31500001E903A464946504603F032FB89E72A4601A9ED
S31500001EA0504603F0A5B92DE9F043122885B08046C7
S31500001EB00D4609D03A281FD04FF6FE71884204BF5E
S31500001EC0284602F0FAF836E02148244F0068465DBD
S31500001ED00BE0284603F006F801462246002003F0F0
S31500001EE003FE3868455D203EF6B2FF2D23D0212E35
S31500001EF0ACBF20243446ECE703F0CAFF8146FFF767
S31500001F00BFFA0646FEF744FE0746FEF73DFE0446C8
S31500001F10FFF7B2FA02460F480FF25C010390CDF8C4
S31500001F20109023460E48006840880290019600975C
S31500001F303B20FFF7D7FE2946404605B0BDE8F043F3
S31500001F4003F0F0BB574600006C70000094EA0020D6
S31500001F5058E80020F0F8002000CC020060E80020DD
S31500001F60DCF8002042423870424242425742420068
S31500001F704242424257420000574242575738704247
S31500001F80000000002DE9F04104460125200094B030
S31500001F900F4690461E4606D001281DD0102802D0B6
S31500001FA0202819D028E0002103F0CCFD0546012C9D
S31500001FB018BF202C08D0022C18BF212C04D0032CCB
S31500001FC01CBF222C232C24D1012E0197ADF80C80A6
S31500001FD014D14FF4805015E00AA81649242200F0C7
S31500001FE04FFA68460AA9242200F04AFA1020ADF8F2
S31500001FF02400ADF82600DAE701200BE0022E03D11B
S315000020004FF44050ADF80A006946204603F09AFDA9
S315000020100546E8B214B0BDE8F0810CB480B50A46B6
S31500002020014602AB044804F036F802BC00205DF815
S315000020300CFB000060C70200CD5C0000704700008A
S3150000204010B50446FFF720FE200A00283E4808BFC8
S3150000205024024FF20F0104804180BFF35F8FBFF36C
S315000020604F8F3A483A4A016801F4E0611143016032
S31500002070BFF34F8F00BFFDE780B5002000F009F8E1
S3150000208030B9BDE80440E3210FF2DC00FEF74EBB99
S3150000209001BD2DE9F0422F4C216842428D1815F002
S315000020A01F0108D0002802D44842054403E04842F4
S315000020B0284400F120052848A5F12006A84224BF9F
S315000020C02648864203D3EFF30880854201D30020D9
S315000020D02DE000F047FC81462148006810F001071A
S315000020E018BF04F002F9206801468D4206D2A842C4
S315000020F024BFCD2100F80119F9D206E020380022CC
S3150000210001E000F8012B8842FBD32560304604F03D
S31500002110F3F8E22001E006F8010BAE42FBD30FB163
S3150000212004F0C0F8484600F094FC20682038BDE86A
S31500002130F0820848006870470648006820387047F3
S315000021400848704700000000000000200CED00E089
S315000021500400FA0598EA0020F8DB0020901200201F
S3150000216094ED00E0000000206D6963726F2D696ECA
S315000021707465726E616C2E630000000038B504460B
S31500002180214804600D46204600F0DCF92946204629
S31500002190BDE8344000F0A2B90120704704F009BB45
S315000021A00846114600F0EFB970470846114605F09B
S315000021B0C6B90220704700207047002070470120F2
S315000021C070470020704710B50C4611461A46034664
S315000021D020460D4C64682468A04710BD0A48406834
S315000021E040680047084840688068004710B582B0DC
S315000021F0049C0094044C64686469A04716BD0249B7
S31500002200496889690847000034EB00200C3000F06B
S31500002210A1B80C3000F0B0B80C3000F0BFB80C30EC
S3150000222000F0C9B880B504F0B5FD002002BD0C3041
S3150000223000F0ADBE0C3005F0E9B90000816B00007E
S31500002240F36B0000FF6B0000236C0000376C00008E
S31500002250B3210000B7210000BB210000BF21000010
S31500002260C32100000120704738B500F01BF800219B
S315000022702561E160BDE8324005F0CBB938B500F024
S3150000228011F82169E26829400D0018BF01251143A4
S31500002290E16005F0BEF915B10020042134BD00202F
S315000022A0002134BD04460D4605F0B6B938B5FFF732
S315000022B0F9FF2269E1682A4021EA0205E56005F096
S315000022C0A8F9284632BD8069704770B582B00546C8
S315000022D00C0006BF0FF25C000068206816460090EE
S315000022E006B9EE6831462846FFF7E0FF32466946F2
S315000022F0284604F0A3FC0CB10098206073BDF8B525
S3150000230000F10C070C4615463846FFF7ABFF0226D0
S3150000231028B12A4621463846FFF7D7FF0026304621
S31500002320F2BD80B50C3001F00111FFF79DFF0020D2
S3150000233002BD0000FFFFFFFF38B504460D4604F05E
S315000023406DFA08B9022032BDA9B22046BDE8344074
S3150000235000F03FB938B50446154689B2FFF7ECFFE1
S31500002360010005D129462046BDE8344004F079BA7B
S3150000237032BD0C3004F051BB70B500F00AF8010014
S3150000238006D1324629462046BDE8704004F0B1BA6F
S3150000239070BD044615461E4689B2CDE770B5FFF7F7
S315000023A0F8FF010006D1324629462046BDE87040B6
S315000023B004F060BA70BD70B5D4B2250018BF012C08
S315000023C001D0012070BD89B200F003F906000BD1DF
S315000023D00121012000F0D7F814B904F0E2FC03E073
S315000023E0012C08BF04F0E4FC304670BD7CB50D46F8
S315000023F06946044600F02DF89DF800102A4620464E
S3150000240005F00EF904F10C060146304604F08AFC8C
S3150000241076BD30B583B06946044600F01AF804F17B
S315000024200C05284604F0B4FC02469DF80010204630
S3150000243005F05EF93EBD38B50C4600F10C050021ED
S31500002440284604F06FFC21462846BDE8344004F0D7
S315000024505CBC0C3004F096BC0C3004F04CB80000A8
S3150000246062B38B0708D0521E11F8013B00F8013BFE
S3150000247000F024808B07F6D1830740F0208000BF50
S31500002480103A07D330B4B1E83810103AA0E8381043
S31500002490F9D230BC530724BFB1E80810A0E80810F1
S315000024A044BF51F8043B40F8043BD20724BF31F83F
S315000024B0022B20F8022B44BF0B7803707047083AB2
S315000024C007D3B1E80810083A40F8043B40F804CBBB
S315000024D0F7D25307E4E700000120704710B5044621
S315000024E004F040F808B1002010BD204610BD70B5BC
S315000024F00D00044614BF012600261F21304605F0B4
S315000025004BF90020606225621F21304605F044F930
S315000025104FF6FF76002001E0401CC0B2E968884211
S3150000252009D2A968182212FB00F21144C989B142E6
S31500002530F2DA0E00F0D13146204600F04AF8304675
S3150000254070BD704710B5044604F0B7F8A06A0100E4
S31500002550DFF8301208BFDFF83002886010BD38B5EA
S3150000256000F10C050C462846FFF7B6FF28B104F02B
S3150000257020F9012801D0022032BD21462846BDE8B7
S31500002580344004F0ECB810B50C4604F0FDF81CB16C
S3150000259004F00FF90128FBD110BDF0B504467B48C5
S315000025A0066883B00D466946204604F0EBFBB5F994
S315000025B01220012747F6FF702479824207D09DF842
S315000025C00010304605F02CF8A04238BF00273846E8
S315000025D0FEBD2DE9F04F85B04FF000098DF8019052
S315000025E00446684F8DF800900D463868D7F804A069
S315000025F00290CDF804A0204600F0C1F88046266A75
S31500002600D4F824B000F0EBF8002818BFD34505D164
S31500002610BBF1000F02D0A8B240454BD0002E1CBF24
S31500002620B068002801D0F06808B903209CE0CA46CB
S3150000263001E00AF1010AF068824518D2B068182153
S3150000264001FB0AF10144A8B2CA89904222BF088A56
S31500002650AAB29042EDD301208DF800008B462046A9
S31500002660FFF79BFF0028E4D001208DF8010003A9A5
S31500002670204604F087FB204604F08AFB82469DF83C
S315000026800100C0B1217900F073F8386860B3B04238
S3150000269023D17A680AB35A451FD1A9B2884506D014
S315000026A00023204604F08BFB5FEA000912D1C4F830
S315000026B024B0658057E09DF8000048B1BBF91220B0
S315000026C09DF80C10A4F10C0004F0AAFF0146DAE70D
S315000026D0012049E000F04BF83FE0016821B1326883
S315000026E0914208BF416800D0316800F045F8814644
S315000026F05FEA090004D1DBF8001000F03DF88146DE
S315000027005FEA09000FD100F06AF810B13E60C7F821
S3150000271004B0C4F824B0658001235A46A9B2204605
S3150000272004F04DFB81465FEA090005D1BA685946B7
S31500002730A4F10C00904716E000F051F898B1029809
S31500002740386001987860386808B100F014F800F035
S315000027500EF8786838B100F00EF87A680023414622
S31500002760204604F02CFB484605B0BDE8F08F5146E4
S31500002770204604F0F7BA0168204604F0B5BD40884B
S31500002780704700003CEB00204325000034EB00209E
S3150000279001281CBF0428022801D10120704700200F
S315000027A0704738B500F03CF840B16878FFF7F0FFA5
S315000027B020B1287869780843400701D5012032BD49
S315000027C000F00DF828B103F0F4FF400701D5022010
S315000027D032BD29462046BDE8344004F05DBA2046A5
S315000027E07AE60C30DDE738B500F01AF838B16878CB
S315000027F0FFF7CEFF00281CBF6878042801D101200E
S3150000280032BDFFF7ECFF28B103F0D3FF800701D5F7
S31500002810022032BD29462046BDE8344004F064BAA1
S315000028200D4604462878B3E70C30DCE730B583B0B4
S315000028300C30DDE90645CDE9004503F00CFF3EBD51
S315000028400C3004F01DBD00000020704738B514465A
S31500002850FEF7E4FA05466CB128000BD00A4800786A
S3150000286018B10A490120087004E000220021284618
S3150000287000F01FF9284632BD70477047704704497B
S31500002880087070470000000056ED002057ED00204C
S315000028906DFF00207047012070470C3004F085BCA6
S315000028A00846114604F0F0BB0846114604F00ABC7F
S315000028B070B50C4615461E460C30FFF7ECFF38B1D6
S315000028C0049B324629462046BDE8704003F0FEBE12
S315000028D070BD002070470000704704F0CBBF10B5F4
S315000028E004460521112001F07DFE00220021022070
S315000028F002F03AF81848194A01686FF3D3210160CB
S3150000290002EAC4220168114301600122012102206A
S3150000291002F02AF8BDE810400421112001F062BE41
S315000029200D4800680003C00D704738B50C480C46CA
S3150000293001884FF6FF75ADF8005002237F226846E6
S3150000294005F023F8BDF80000A84202D0208001203F
S3150000295032BD002032BD000030400E4000F80F00AE
S31500002960E2CE0200EFF31180602181F311887047F7
S3150000297080B505F023FA05F02EFA80B202BD80B5C7
S3150000298005F01CFA05F027FAFA21B0FBF1F080B247
S3150000299002BD80B505F012FABDE8044005F01BBA89
S315000029A080B504F00EFF184800214160001D05F0B7
S315000029B06BF820B139210FF28800FDF7B7FE002031
S315000029C002BD114901200870704770B5044682B0F7
S315000029D02268002502B91BE000F00DF801201BE07B
S315000029E070B50C4682B02268002502B910E000F0EE
S315000029F002F8022010E0044E044B357000950021C9
S31500002A00706805F0C4B8000084F60020C3290000F1
S31500002A1005F0FAFA002076BD05F08AFB307828B971
S31500002A207068214605F084F9852501E0256035703A
S31500002A30284676BD014600220020D1E700F008B8FE
S31500002A4073797374656D2D74696D65722E630000FC
S31500002A50704780F31188704701207047DFF8F40350
S31500002A60002120F8801B0022FF2101704170C270F6
S31500002A70027141718271704738B50446402C154683
S31500002A8006D100F061FC00F08020B0F1004F03D0C9
S31500002A9000210020FFF7E0FFDFF8BC03290018BF84
S31500002AA001210470417000F08DF9BDE8314001F05C
S31500002AB058BB70B504460D4616468D2C08BFFFF769
S31500002AC0DBFE324629462046BDE87040D4E7F8B51D
S31500002AD0DFF88043FFF746FF04F180056E79FF2E8D
S31500002AE068D0FF216971FFF7B4FF30001CBF402E8C
S31500002AF08F2E1BD103F06BFA400917D0E01C05F0AE
S31500002B0018FB00F44060B0F5406F05D104F10801F0
S31500002B10002005F035FC05E004F1080005F009FB8E
S31500002B2000F0BCFFA1780D3105F087FE002E20785D
S31500002B3016BF8F2E01270027022802D0CE2100F0D3
S31500002B40A7F8380011D0A01C00F0D5F868B1A87914
S31500002B5038B1012020702921BDE8F440BF4805F0B6
S31500002B6087BEFEF7D6FA312021E0FEF7D2FA402ED4
S31500002B7010D105F088FF6078411E6170A0B12878F9
S31500002B8006F03AF801460022042000F02FFEBDE8C8
S31500002B90F1403BE08D2E07D1287806F02DF801464E
S31500002BA00022202000F022FE07B100263046BDE8B4
S31500002BB0F240B3E0FFF74DFF2078032804BF002062
S31500002BC000F0ACF804F1810002F0E2FCFF280AD024
S31500002BD0E978491EE97006F011FB207818B9BDE8BE
S31500002BE0F14006F0C2B9F1BD71E780B500F0ACFB6B
S31500002BF040054CBF032001200021FFF72DFFBDE853
S31500002C00084001224FF47A7195481BE180B50120F6
S31500002C1006F0C0FD06F05EFD9249C0B9487830B1B5
S31500002C2000F092FB00280BD5FFF753FE40B100F0F1
S31500002C308BFB40054CBF032001200021FFF70CFF52
S31500002C4001224FF47A71864800F0FCF81BE0012857
S31500002C500DD10020487000F077FB40054CBF0220E4
S31500002C600020814940F01100FFF7F6FE0BE0022834
S31500002C7005D1002200218D20FFF7FEFE03E040F281
S31500002C80751100F005F8BDE80240002006F082BD8F
S31500002C900FF2EC10FDF74ABD38B5044600208DF85A
S31500002CA000006C4D287818B14FF4C071FFF7F0FFA3
S31500002CB00220287085F880406A46A91C204606F046
S31500002CC02BF868494870694800786870FFF79EFFDE
S31500002CD031BD06F07CBC010080B508BF01200201B1
S31500002CE06349002006F06CFD002002BD604900200B
S31500002CF006F0A5BD704710B5441C204605F019FA2C
S31500002D0000F00700032807D1204605F035FF205CB8
S31500002D10042801D1012010BD002010BD38B504469D
S31500002D204C4D7E220021A81C06F001FE00202870D2
S31500002D3006F01BF995F880102046BDE8344006F0F1
S31500002D4015B970B504460D461646FEF756FB60B13A
S31500002D503EB12046FFF7CFFF18B1607840F0200063
S31500002D6002E0607800F0DF0060702946204602F03D
S31500002D70B2F90146FF2924D0364D3E4E05F18104B5
S31500002D80204602F0F0FB15F8830F401C2870C0B2F5
S31500002D90318881420BD26878401C687007E0204673
S31500002DA002F0F6FB02F014F92878401E28703088ED
S31500002DB029788842F3D300F005F8BDE8704001F0A9
S31500002DC0D0B970BD2C48007805F042BE10B5214C34
S31500002DD02078012806D1214900200870FEF799F9CC
S31500002DE00320207010BD10B51C4900200870002477
S31500002DF0FFF7B8FD17490A78012A02D103220124F8
S31500002E000A70FFF726FE2CB1FEF783F9BDE81040E5
S31500002E10312083E710BD0F480178481E8041C00F5E
S31500002E207047FEF792B9FEF78CB90A4890F88310FE
S31500002E30002904BF813002F0F5BB002070470F481F
S31500002E4002F0F7BBFFF702BD02480078012818BF61
S31500002E500020704704F9002089F900208CF9002031
S31500002E6006F90020F4EA0020EB2B0000F1EB00202D
S31500002E70D32C0000B0EB002061FF002085F9002074
S31500002E806C6F7765722D6D61632D65667233322EB8
S31500002E906300000010B5354886B0016841F48071C2
S31500002EA001604FF416713248016002AC314941604D
S31500002EB0314901674FF4F071816001202F490860A4
S31500002EC006F05CFD04F013FE06F03DFE2C48D0E94A
S31500002ED00023CDE9002301208DF80300684606F0A3
S31500002EE0C4FF05F095F8FFF75BFD26480FC884E898
S31500002EF00F0008208DF8140002A807F043FA06B068
S31500002F0010BD07F04DBA07F04CBA80B5002100207D
S31500002F1000F01CFABDE8014007F044BA07F043BAD6
S31500002F20032004F099BD000010B507F07EFA0446B0
S31500002F3007F07FFAC0B208B9012C07D1072C11D8C7
S31500002F40DFE804F004100608080A0C0E002010BD85
S31500002F50092010BD022010BD032010BD0B2010BD9E
S31500002F60062010BD44F0800010BD000000000E4099
S31500002F708C420E404A5D050028E2160010300E40D5
S31500002F802CC60200E4C602000C3003F0A3BD38B51F
S31500002F900D46044689B2FFF71CFB010005D1A9B214
S31500002FA02046BDE8344003F043BD32BD70B50C4643
S31500002FB084B000F10C05237E627EA17E284607F0D0
S31500002FC0CAFA684604F10C010C22FFF749FA694671
S31500002FD0284604F0B6FA211D284600F066F90600D8
S31500002FE003D1284607F0EEFA0646300005D10FF267
S31500002FF01C11284604F04FFA0646300003D1284635
S3150000300007F030FA06462168284600F006F83046F2
S3150000301004B070BD0C3007F01EBA70B58AB0044615
S315000030200D4668460FF2C0012422FFF729FA05B9BA
S315000030306D46002601E0010005D135F81610F2B202
S31500003040204607F042FA010006D105EB4600F2B22F
S31500003050C188204607F042FA010007D105EBC600F9
S3150000306000F10C01F2B2204607F051FA761C032E4D
S31500003070E1DB0AB070BD032ABCBF0C3007F025BAED
S3150000308001207047032ABCBF0C3007F027BA012085
S315000030907047032ABCBF0C3007F039BA01207047CD
S315000030A038B500F015F828B121462846BDE8344069
S315000030B007F044BA022032BD38B500F009F828B14D
S315000030C021462846BDE8344007F02EBA022032BD1C
S315000030D000F10C050C46284607F0BAB90C3007F08B
S315000030E049BA084603F0D2B9FFFFFFFFFFFFFFFF13
S315000030F0FFFFFFFF000000000000000000000000CE
S3150000310000000000000000000000000000000208AF
S315000031100000000003480188034808237F2200F0CE
S3150000312047B800BFECCE0200F0F8002038B50C46D8
S3150000313011461A467F2908BF002141F2F0139C422E
S3150000314018D154490B6849680024D5B27DB303559C
S31500003150641C1B0A521EE4B2042CF6D3E4B2082CFB
S3150000316025D2D3B2002B1FBF0155090A521E641C7B
S31500003170F4D131BD04F47045C4F30B03B5F5805F9B
S3150000318011FB02F108BF43F07E630BD0B5F5005F7B
S315000031901CBF04F47044B4F5405F08D143F07C636F
S315000031A043F40113C918BDE8384006F07DBB31BDB4
S315000031B070B51E00044615461BD04BF234608142A2
S315000031C011D1092E28BF082633467F2241F202017B
S315000031D02046FFF7ABFF32462F49204606F0AEFBEE
S315000031E038B941F2F01133462A462046BDE8704010
S315000031F09CE770BD2DE9F84307460024F80788468A
S3150000320015466FF00F06DFF8949002D5652100F0A1
S3150000321049F8E80702D5662100F044F807F4704142
S31500003220B1F5805FC7F30B000CD140F07E64B4F1BA
S315000032307E6F264604D32819401E1949884210D3AA
S315000032406B210CE0B1F5005F18BFB1F5405F05D109
S3150000325040F07C6444F40114264602E0722100F03A
S3150000326021F8002706E0F05DFF2802D07C2100F05F
S3150000327019F87F1CAF42F6D36A084146204607F08C
S3150000328001FA28B14846BDE8F4438521FDF74EBA58
S31500003290BDE8F183F081E00F24C6020018C60200E3
S315000032A00008E00F4846FDF741BA70B50D4682B0FA
S315000032B00446287858B90021204603F0CAFD0021AB
S315000032C0204603F01DFE0021204603F021FE28784B
S315000032D0002814BF0420287900F027F814BF2879A5
S315000032E068798DF801002046FFF77DFA06001AD1AD
S315000032F02878002814BF0220A87900F016F814BF19
S31500003300A879E8798DF801002046FFF74AFA060009
S3150000331009D1287838B16988204603F0A6FD012135
S31500003320204603F096FD304676BD8DF800006946CE
S315000033302878002870470C3003F0E2BD0C3003F00B
S31500003340F1BD084604F02DB90020704701207047F2
S31500003350002070472DE9F84FDFF8F446DFF8F45601
S315000033602068DFF8F4B6DFF8F496DFF8F4A6E86133
S31500003370286200264FF6FF7828E02068F6B248213A
S3150000338011FB06F1471848220021384606F0CFFA0D
S3150000339099F800003870A7F8028000203873787317
S315000033A0761C0B20B8731420F8734FF6FE70388223
S315000033B0A7F8128007F0A4F9387607F0A1F9787615
S315000033C007F09EF9B8769BF80000F876F0B29AF806
S315000033D000108842D1D3281DBDE8F84F0222FF21F4
S315000033E006F0A5BA2DE9F041DFF878560FF2946899
S315000033F0044695F9000010F1010F03DA5C214046FE
S31500003400FDF794F9DFF8587639788C42264605D3CD
S31500003410FE2E03D05E214046FDF788F92878DFF8B6
S315000034203416401C287040B208440474387884422C
S31500003430DFF81C06006828BF0E78482212FB06F249
S315000034401044C861BDE8F08110B5DFF8184694F95C
S315000034500000002802D56F2100F0A6F82078DFF8DA
S31500003460F415401E207040B2DFF8F4450A7824783F
S3150000347000284EBF10460818007CA04238BF0246FE
S31500003480DFF8CC05006848235A431044C86110BDD4
S3150000349010B50020DFF8BC1500E0401C00F07EF8F7
S315000034A008D2DFF8AC35C0B21B68CA6900F070F804
S315000034B0F3D110BD8A2167E0DFF8A80590F9000076
S315000034C010F1010F01D10120704700207047FE2046
S315000034D088E7DFF880050078704738B50446FFF7BF
S315000034E0EBFFDFF8705550B9DFF8780590F900006A
S315000034F02844007CFE2802D0A62100F055F8DFF80B
S31500003500601509788C4201D3B12032BDDFF8400541
S315000035102C704821006811FB04F10844E861002082
S3150000352032BD38B5DFF83C05DFF8285590F9004084
S315000035302819007CFE2807D0FFF7BEFF20B9C3215B
S3150000354000F032F8FF2032BD611E00E0491E49B28C
S31500003550080004D46818007CFE28F7D032BD28780D
S3150000356032BD10B50020DFF8EC1400E0401C00F07E
S3150000357015F808D2DFF8D834C0B21B680A6A00F022
S3150000358007F8F3D110BDE22100F00EF8FF2010BDC0
S31500003590482414FB00F423449A427047DFF8C034F1
S315000035A01B78C2B29A4270470FF2D840FDF7BEB8F8
S315000035B010B5FDF7E9FADFF89C44216A897B884259
S315000035C003D00846FDF78FFA50B9FDF7E1FA014638
S315000035D0206A90F90F00814204D0FDF7E8FA08B19D
S315000035E0012010BD206A008AFDF732FF206A408A5A
S315000035F0FDF74EFF206A007B012818BF0020FDF76B
S3150000360012FF002010BDDFF8581410B50978884263
S31500003610044603D34FF48371FFF7C6FFDFF848046F
S31500003620007808B9702010BDDFF8240400F06BF8AC
S31500003630DFF820140862BDE81040B9E7DFF8281467
S315000036400870704710B5DFF824440020207006F09B
S3150000365000F820B92046BDE8104005F0FFB800F09C
S3150000366058F8DFF8FC130978884206D3FFF710FFF5
S31500003670044600F010F818B12046BDE81040C2E735
S3150000368010BDDFF8D003006A008A7047DFF8C40374
S31500003690006A408A7047DFF8B81309684822504329
S315000036A00844407B02281CBF1128432801D1012071
S315000036B0704700207047DFF8981309684822504386
S315000036C00844007B01281CBF0228032801D10120E1
S315000036D070470020704710B5002400E0641C00F01D
S315000036E02CF80ED2FFF7D7FF0028F7D0D848E4B25F
S315000036F000F009F8007B012818BF0228EED1204609
S3150000370010BDFF2010BD0068482111FB04F10844DC
S31500003710704710B5002400E0641C00F00EF80AD2D1
S31500003720FFF7C9FF0028F7D0E0B2FFF7B4FF002883
S31500003730F2D0E0B210BDFF2010BDC9490978E0B251
S315000037408842704770B500240025C54E08E0FFF793
S3150000375049FE02F021FC00B10124FFF775FE6D1C45
S315000037603178E8B28842F2D3204670BD80B5FFF7C3
S31500003770D0FFFF2801D0012002BD002002BD38B5D0
S31500003780BB4C054620680321A94088432060FFF70B
S315000037907FFE2168A8400843206031BDB44909680E
S315000037A0C14001F00300704738B504460D46FE20BF
S315000037B0FFF718FE2946204607F02BF9BDE83140F1
S315000037C042E610B50446FE20FFF70CFE204607F041
S315000037D067FABDE8104037E682B08DF80010DDE9E3
S315000037E0002311461A4602B007F0C2BA32B586B0B7
S315000037F004468DF8042002F0EBFA0546204602F056
S31500003800F5FA80F001010D420DD0BDF8180002F066
S31500003810E4FB8DF80000FF2804BF00208DF80000AF
S31500003820CDF808D01AE0294308BF06A815D00542EE
S3150000383014D0BDF8180002F0D0FB8DF80000FF2868
S3150000384004BF00208DF800009DF800008DF80C00E4
S31500003850BDF81800ADF80E0003A80290FE20FFF791
S31500003860C1FDDDE901010A460146204607F080FA5E
S31500003870FFF7EAFD07B030BDF8B5794E754D044641
S315000038803078687000270DE0FFF7ACFDE869416904
S31500003890FFB244F8371004EBC701C07E08717F1CE5
S315000038A0FFF7D2FD3178F8B28842EDD3F1BDF8B515
S315000038B004460025674E0DE02846FFF793FDF069A4
S315000038C054F8371041616D1C04EBC7010979C176C4
S315000038D0FFF7BAFD6249707809788142EDB238BFC8
S315000038E008462F468742E7DBF1BD38B5FFF7D0FD26
S315000038F05B4A584B1278002100E0491CCCB2944236
S315000039000ED29C78C9B20C1994FBF2F502FB154451
S31500003910E4B21C442579854202D0FF2DEDD12071F9
S3150000392031BD70B54B4C4E4EA078317820440579A8
S315000039308D4203D340F22921FFF736FEA0782218E4
S31500003940FF211171401C317890FBF1F201FB12004E
S31500003950A070284670BD3F48817808440079FF284A
S3150000396001D0012070470020704710B5FFF7FEFE1A
S3150000397070B1384CE069007B042809D11420FFF7A8
S31500003980FEFE04F10800BDE81040642104F070BF9B
S31500003990BDE8104005F01CBC80B52E490020087219
S315000039A01420FFF7FBFEFFF71DFD05F011FCBDE837
S315000039B0014049E52DE9F8438146FFF769FDB9F174
S315000039C0040F0FF2C0082B4C224F2B4D2B4E35D82F
S315000039D0DFE809F0030A0A1B1B00F86900F1280159
S315000039E000200860886030E0FFF7C0FE20B14FF489
S315000039F018714046FCF79AFEF869316840F8281FAE
S31500003A0021688160297801711FE02A783568F96993
S31500003A100E2313FB02F6354413FB00F32B4441F847
S31500003A20283F236803EB8202154B1B7802EB8302C7
S31500003A3002EB800088600120087106E04046BDE880
S31500003A40F44340F27121FCF771BEBDE8F18300003A
S31500003A5090E80020C0F80020CCEB00204AFF0020B0
S31500003A60C0EB0020F0EB0020EFEB0020E4F8002094
S31500003A70ECF8002098E80020C1EB002094E8002034
S31500003A80BBEB0020656D6265722D6D756C74692DDA
S31500003A906E6574776F726B2E63000000F8B50F4D7C
S31500003AA02E68040001D1FF20F2BDFEF75BFF0C4F2C
S31500003AB029683A7821F8124036F8021BA142FBD158
S31500003AC0FEF7C7FF29683A78B01E401A4010C1B207
S31500003AD0914208BFFF20C0B2F2BD00BF68E80020D7
S31500003AE0BBEB0020DFF8A01500200870FF21DFF8EF
S31500003AF09C05017001717047F8B50446FEF738FF62
S31500003B000546DFF88C05DFF884750688204605F043
S31500003B104FF8B0F5006F16D1204605F06DF8FFF7A7
S31500003B20BDFFFF280DD000F038FA2146381D01F000
S31500003B301AFDDFF85405017881B10089A9190E1A1A
S31500003B4010E09320F2BDFF21384601F037FD05282D
S31500003B5002DA21463846EAE73920F2BD05813146C8
S31500003B6004F086FEB2B20321204604F098FF032239
S31500003B700521204604F09EFF204601F01BFA002096
S31500003B80F2BDF8B50446DFF804050078FF2813D027
S31500003B90DFF8005529680E5C3746384605F01DF8F3
S31500003BA001460822204605F0C9FE08B90120F2BDEB
S31500003BB02868C75DB742F0D10020F2BD2DE9F84371
S31500003BC0044604F09EFF000B00F00106204605F0B7
S31500003BD028F80546204605F013F8B0F5404F14D1F5
S31500003BE0002E62D02946002000F092F90446FF2CF0
S31500003BF05BD0002105F0F8F9002856D000F0AEF9A8
S31500003C0040F080020521204646E0284604F091FA5D
S31500003C100546FFF743FF0446FF2C08BF002045D0AA
S31500003C2001200021224607F077F9DFF86C24D2E95B
S31500003C30008948EA000349EA0107C2E90037A6B34A
S31500003C40DFF85864336833F814704FF4E6631F42A4
S31500003C502BD0BB0623D5280A8DF801008DF800501D
S31500003C606946012000F054F90546FF2D08D1306859
S31500003C7030F814104FF6DF72114020F8141014E0DB
S31500003C80002105F0B1F980B10521284604F019FF9D
S31500003C9040F080020521284604F00CFF05E0D2E939
S31500003CA0024520432943C2E902010120BDE8F2830F
S31500003CB038B5044604F07CFFB0F5006F0CBF012553
S31500003CC00025204604F089FF04462146284600F0D8
S31500003CD01FF9FF2810D18DB1204604F02AFAFFF70C
S31500003CE0DDFEFF280AD0DFF8B413096831F81000AA
S31500003CF04FF4E261084201D0012032BD002032BDFE
S31500003D002DE9F04107460C4604F052FFDFF87C53DC
S31500003D10B0F5006F0CBF281D28460078FF2846D056
S31500003D20DFF870130968085C0646B7423CD1FEF717
S31500003D3019FE80460521304604F0C3FE00F07F00E0
S31500003D40471EFAB20521304604F0B4FE200018BF23
S31500003D50312C01D0FFB207BBFEF704FE0746304602
S31500003D6004F026FFB0F5006F314605D1281D01F09D
S31500003D7025FC00F0F7F802E0284601F01FFC384663
S31500003D80FEF767FE4046FEF764FE2146304608F021
S31500003D907FF8304601F01CF904E000F0E3F84046F5
S31500003DA0FEF757FE012003E08E5D8642BDD100205E
S31500003DB0BDE8F08110B5FEF7DBFDB34C218920810B
S31500003DC0411A88B200F0F2F84FF6FF71884202D12C
S31500003DD00020207010BD01462046BDE8104004F0CA
S31500003DE047BD4FF6FF70E1E02DE9F84F00F08AF885
S31500003DF008BF904200F08480012793460024904635
S31500003E00FEF7B0FD8246A4480025D0E900010BEA82
S31500003E10010207EA0006AA4208BFAE421DD0FE43D1
S31500003E206FEA0B099C4A304001EA0901C2E9000128
S31500003E300125D2E902010BEA010307EA0002434524
S31500003E4008BF424509D09448934AD0E90201304060
S31500003E5001EA0901C2E90201A8465046FEF7F9FD4A
S31500003E60002D3FD08D48006830F81400810739D501
S31500003E708B49096831F81450B8F1000F06D000F4E8
S31500003E809870102808BF4FF0010A01D04FF0000AC1
S31500003E9084480078C0070AD583490968002041F89C
S31500003EA0240082480068015D41F0F00101558AF066
S31500003EB0010018EA000F09D07848006830F814109D
S31500003EC041F4006120F8141005F0E0F8002000909D
S31500003ED02B461A226BA1032001F0FBFB5146284614
S31500003EE008F044FC4FEA4B0040EAD77B7F00641C95
S31500003EF0402C05DA00F006F808BF90427FF47FAF49
S31500003F00BDE8F18F64480022D0E900019142704774
S31500003F102DE9F04188465D4900281ABF091D022592
S31500003F2008250878FF2816D05A4E31680F5C3C46A3
S31500003F3000F014F800060AD4204604F04EFE0146AE
S31500003F402A46404605F0FAFC08B9204604E03068E7
S31500003F50045DBC42ECD1FF20BDE8F081052120467E
S31500003F6004F0AFBD70B50021202004F0A5F9474844
S31500003F700079FF2810D0474C21680D5C2E4630464C
S31500003F8004F03AFEFFF78AFDFF2801D000F005F89D
S31500003F902068865DAE42F2D170BD4049096831F8AD
S31500003FA0102042F0200221F8102070472DE9F84F2A
S31500003FB080460FF2FC00354E0068364F00904FF6F3
S31500003FC0FF7A344600E0341DFEF7CCFC814606E05D
S31500003FD0204601F0DDFA2946684601F0C4FA20467B
S31500003FE001F020FB40B938682178455C032128465A
S31500003FF004F04CFD8045EBD2301D844208BFFFF72C
S31500004000B1FF4846FEF725FD2078FF2819D039680C
S3150000401011F800904D460321284604F037FDA0EB29
S31500004020080B1FFA8BF20321284604F038FD386886
S31500004030455D51461FFA8BFA8A4588BF8A464D452B
S31500004040E9D1301D8442BED1684601F0EBFAA8B929
S31500004050684601F09DFA044604F05DFDFFF7C2F9DB
S31500004060FFF77CFF000603D44221204607F010FF2D
S31500004070204600F0ADFFFFF7E7F9E5E71FFA8AF003
S31500004080BDE8F28F42574200F8F8002048EB0020C6
S3150000409094EB002064E80020C0ED00206CE80020CE
S315000040A068E800209CFA002070E80020B8E80020AC
S315000040B0FF00000000207047704770470198704766
S315000040C070477047702008F09EBB70B504464338B1
S315000040D01E4D08D0401E012809D9801E01280ED980
S315000040E0C01F32D02AE0BDE8704009F0BFBE09F01B
S315000040F0EEFE20B109F0BAFE0028FBD170BD144EC9
S31500004100307810BB01203070002009F01BFF442CD2
S3150000411011D00CD3462C05D00DD3472C07D140F631
S31500004120010001E040F60200FDF78AFF03E0EE2100
S315000041302846FCF7FBFA0020307070BD2846BDE823
S3150000414070404FF48071FCF7F1BA70BDF4C60200FE
S315000041504DFF0020704700207047704770470020D1
S3150000416070477047FCF77EBC09F03EBF890001EB43
S31500004170401000F1844002607047890001EB401056
S3150000418000F184400068704710B5DFF888471221B7
S315000041902046FFF7F2FF0028F9D12068000C00F056
S315000041A0030010BD0122DFF8401610B5884232BF69
S315000041B00022DFF83816884201D2144600E00224B5
S315000041C01021DFF82C06FFF7D1FFDFF86007016842
S315000041D021F0807141EA0461016010BD70B5DFF81D
S315000041E01426DFF84C471368002304EBC305CEB250
S315000041F02D79B54203D154F83350854202D25B1C67
S31500004200052BF2D3052B0EBF032004EBC300407928
S31500004210116821F0407141EA0060106070BD38B548
S3150000422000F013F841F67130206009F022FF0021FA
S3150000423005E038B500F009F841F671322260FFF763
S31500004240CDFF0DB10020206031BDDFF8E8462568BE
S3150000425005B101257047C01C0F2801D20007704721
S315000042604FF070407047000038B50446002500F056
S315000042705FF9DFF8A426DFF82416944208D0DFF8A9
S315000042809C26944206D0DFF89826944204D006E095
S31500004290086802E0486800E0886800F00700401EF1
S315000042A004281CD8DFE800F009030D06090009F010
S315000042B017FF04E009F011FF01E009F00BFF0546C6
S315000042C00DE009F0C9FEDFF864160968090E01F071
S315000042D001010122491C02FA01F1B0FBF1F5284661
S315000042E032BDDFF854164A68D20702D40A68024281
S315000042F0FCD1704780B500F0D5F8401C02BD000027
S3150000430070B5020A0C4602F00F020021521E092A5D
S31500004310DFF8285814D8DFE802F00514131307163F
S3150000432019131C20DFF8C854C0F3043611B108462F
S31500004330FFF7D7FF224631462846BDE8704015E70D
S3150000434070BD1035F0E730350121EDE73835102125
S31500004350EAE740354FF48031E6E7DFF84C58E3E70B
S3150000436070B5DFF8D815DFF8B0250E68DFF8AC15A4
S31500004370DFF8B845012510F4781075D0B0F5003F88
S3150000438030D0B0F5802F27D0B0F5002F6CD0B0F527
S31500004390202F2DD0B0F5402F5ED0B0F5602F3FD046
S315000043A0B0F5901F53D0B0F5A01F2AD0B0F5B01FBE
S315000043B039D0B0F5D01F22D0B0F5E01F31D0B0F51E
S315000043C0001F44D0B0F5281F22D0B0F5301F31D0E1
S315000043D0B0F5381F4BD061E009F04DFEE168C1F33E
S315000043E008210AE009F047FEA168C1F3082104E0AC
S315000043F009F041FE6169C1F30421491C24E010461D
S3150000440027E01046FFF730FF216A01F00F0119E09F
S315000044101046FFF729FF0646206AC0F30110C64082
S315000044203DE0084615E00846FFF71EFFA16AC1F306
S31500004430011107E00846FFF717FFA16A090A01F014
S315000044400301091D05FA01F1B0FBF1F627E0DFF8DB
S31500004450D004FFF709FF1FE0DFF8500700F068F807
S3150000446007281CD0092819D109F005FE14E0DFF849
S31500004470400700F05DF804280CD007280FD0082864
S315000044800CD109F0F8FD2168C1F30421491C01FB98
S3150000449000F604E009F00AFE064600E00026304673
S315000044A070BD0000030903F00F0301215B1E072BFB
S315000044B0DFF878243AD8DFE803F004060A0E101471
S315000044C02339106800E05069C0F304207047106873
S315000044D0C0F300607047D06800E09068C0F3082021
S315000044E07047DFF8D036984204D0DFF8CC369842D1
S315000044F004D01BE0106A00F00F0013E0106A09E018
S31500004500DFF8B836984204D0DFF8B436984204D0C3
S315000045100CE0906AC0F3011004E0906A000A00F013
S315000045200300001D01FA00F0401E7047002070478E
S31500004530014601F00F010120491E0729DFF88826F0
S315000045404ED8DFE801F0040F134D21334D3B506A7E
S3150000455000F0070002283FD002D3042804D01FD35E
S3150000456005207047116910E002207047516901F07B
S315000045700701491E042934D8DFE801F012030414A8
S315000045801600F1E706207047916901F0070101293D
S3150000459006D00229E8D0042904D0052904D07047A2
S315000045A0032070470A2070470B207047116811F0EE
S315000045B001010FD0012914D109207047DFF80C162C
S315000045C0096801F03001102904D0202904D03029CF
S315000045D004D07047072070470420704708207047B2
S315000045E0002070472DE9F843804600260324B8F1E1
S315000045F0110F0F46A14612D1042F02D109F056FD24
S3150000460008E0052F0BD1DFF8C805DFF8C8150068EC
S31500004610884204D306001CBF002105F0DCFB08F02D
S315000046200F00401E0728DFF8A0550ED8DFE800F07F
S31500004630043D439440789482022F6B4806D0032FA2
S3150000464029D0042F2AD0052F2DD085E004244FF041
S31500004650000901220121484600F086F9FFF7DFFD37
S3150000466036B11221DFF8AC02FFF787FD0028F8D13A
S315000046706C6000F083F8FFF795FD09F0EDFC044649
S31500004680FFF782FD01462046FFF7D3FD002E63D1DA
S31500004690BDE8F443FDE04FF00109DAE70224A14644
S315000046A0FFF780FDD5E70124FAE705F1100404E0E1
S315000046B005F1180401E005F11404012F0AD0022FB8
S315000046C00BD0032F10D0062F15D00A2F1FD00B2F7B
S315000046D01FD041E0002020603EE0012201210020A1
S315000046E000F042F90220F6E701220121012000F044
S315000046F03BF90120EFE709F0AFFCFFF753FD01227C
S315000047000221DFF83804FFF731FD0320E3E7042038
S31500004710E1E701220121062000F026F90520DAE76B
S31500004720072F02D0092F02D016E0002000E001205A
S31500004730286011E0012F06D0042F16D0072F0DD0C8
S31500004740082F19D008E00020DFF880140A6822F04C
S31500004750300242EA00100860BDE8F183012201211F
S31500004760042000F001F90120EEE7012201210220D8
S3150000477000F0FAF80220E7E70320E5E7DFF8440453
S31500004780EEE56F4ADFF8581490421FBF6D4A90421B
S315000047906D4A904215D06D4A904214D06C4A9042B0
S315000047A013D06C4A904212D06B4A904211D06B4A99
S315000047B0904210D06A4A90420FD06A4A90420ED078
S315000047C00FE008687047C868704788697047C8690D
S315000047D07047086A7047886A7047C86A7047086BEE
S315000047E070470020704700000148E8010190D0039F
S315000047F000400E4004000E4070B50446FFF7C1FFAE
S315000048000646DFF8CC030568046000F08CF805283E
S3150000481008BFFFF704FD18214748FFF7AEFC002844
S31500004820F9D147498C4208D046498C4207D04649BF
S315000048308C4208BF26F0C06604E0022000E001209A
S3150000484060F35A6600F06FF8052804BF2046FFF7AC
S31500004850A9FCA54203D20121204605F0BCFADFF8E7
S315000048607803066000F05FF8052808D109F0F4FB2C
S315000048700646FFF789FC01463046FFF7DAFCFFF7EC
S315000048807DFFFFF78FFCA54202D3BDE8704000E034
S3150000489070BD0121002005F09EBA000080400E4048
S315000048A070B500F03FF801220021022000F05CF80C
S315000048B0217CDFF8305300200229296808BF012037
S315000048C0490840EA41002860082122782846FFF777
S315000048D04DFCA088617A41EAC020A860EE68207A83
S315000048E0FFF7B9FCE28806F07F6141EAC221A27AAD
S315000048F01143227A41EAC2110843E860A17B607B3A
S31500004900090141EA0030E17B0843217B40EA01408E
S31500004910286170BD04300E4002001A0003001C001E
S31500004920050020000446112002E6000000410E406A
S31500004930F4C4020040000E4040410E4050E8002002
S3150000494040420F0080841E0000093D00C0CF6A006F
S31500004950405DC6000024F400C0EA210180BA8C0143
S315000049600048E80180D543022DE9F84F0628824623
S31500004970904634D8DFE800F04F4A4004457A5600A6
S3150000498001260220012700240029DFF81892954D00
S3150000499067D0BAF1020F02BF2868C0F301100028E1
S315000049A04FF0000B0CD1904800682868C0074FF004
S315000049B0010B05D5286820F0300040F01000286073
S315000049C0EE6300F055F80028FBD0B8F1000F4DD08B
S315000049D0394600F04EF80028FAD0BAF1020F45D158
S315000049E0BBF1000F42D02868C00722D50122202142
S315000049F0022000F0C6F820E004260820032702243F
S31500004A00C2E71026202005270424BDE74026802083
S31500004A1007270624B8E74FF480764FF4007009277D
S31500004A200824B1E74FF480464FF400400F270E24C8
S31500004A30AAE70021022000F083F8022000F01CF80B
S31500004A400446012200210220FFF78EFF21460220A4
S31500004A5000F02CF8EE63394600F00BF80028FAD087
S31500004A6004E0E86300F004F80028FBD1BDE8F18F0C
S31500004A7021464846FFF781BB401E0328564912D8F7
S31500004A80DFE800F0020C06080869C0F3080070476A
S31500004A90086800E0886800F07F00704753480068A7
S31500004AA0C0F30A00704700207047000070B5401E32
S31500004AB00D46032805F07F01474C484E3DD8DFE8F8
S31500004AC000F0022A101DC5F308051A213046FFF72B
S31500004AD054FB0028F9D12069400A45EA40202061AC
S31500004AE070BD0D4618213046FFF747FB0028F9D167
S31500004AF02068C00945EAC010206070BD0D46192126
S31500004B003046FFF73AFB0028F9D1A068C00945EA0C
S31500004B10C010A06070BD23480068606920F03000B6
S31500004B2040F010006061C5F3C310FFF794FB216AE3
S31500004B302F4A114029430843206270BDB0400E4001
S31500004B4028480268C2F30112002A18BF002907D0BC
S31500004B50202902D0302903D005E04FF4000103E0FC
S31500004B604FF4400100E02349C26E0A408A42FBD15D
S31500004B70490204D5C06F800A00F001007047012089
S31500004B80704710B502280AD10B0004D01A4B4FF417
S31500004B9080645C64196012B1BDE81040D0E7012062
S31500004BA010BD000090400E4050410E4006000C0023
S31500004BB098002E006006140060162A007017160072
S31500004BC070272C000025080070400E405C410E4006
S31500004BD044E90020012D310110400E4040410E40B5
S31500004BE03082E00F24400E403C300E409C400E4088
S31500004BF000F8FF0FFFF3E17F64400E4010B51B4B3A
S31500004C001C6890FAA0F2B2FA82F224EA00009140FF
S31500004C100843186010BD164901200860704770B53A
S31500004C201448154B01680020002203EBC20453F818
S31500004C3032506468114E366876070DD4B5F5007F9C
S31500004C4018BFB5F5806F05D0B5F5006F18BFB5F57F
S31500004C50803F01D144F48074294202D0214208BF2A
S31500004C602843521C092AE0D370BD000000500E40B4
S31500004C7008500E4004500E401CC50200E841E00FEB
S31500004C800168C90707D58168890704D48168C907FF
S31500004C90FCD401214160704780B501217E48FFF7B1
S31500004CA02FFB7E4901200860002009F04FFA0123FE
S31500004CB004220221052009F096FA012000F0CCFC1E
S31500004CC000F00EF800F0F9FC09F080FB0123402209
S31500004CD07349744809F048FB73490860C00F02BD68
S31500004CE010B5012201210420FFF73EFE6F48704CEB
S31500004CF0016841F0010101600022C16841F0807144
S31500004D00C16000236B496C4808606C4802606C4ABD
S31500004D1013600223236015236A4C23600023036477
S31500004D20694B0B65694911604FF48071684A1160DF
S31500004D30016841F48071016010BD80B5604801686A
S31500004D40C9070ED563490A6822F440620A60016801
S31500004D5049084900016001680902FCD46420FDF796
S31500004D60BCFD002200210420FFF7FEFD5049002073
S31500004D700860574908604D49086001BD4B48006806
S31500004D8000B10120C0B27047D12202704170090AF9
S31500004D90817051490A78C270501C0870042070470F
S31500004DA02DE9F84FDFF834A1DFF834810446DAF84C
S31500004DB00000005D461DFDF7DBFDF6B20025009004
S31500004DC04FF6FF7B18E0A91EC9B2204600F0A7FAED
S31500004DD00746594609F006FB83464D4638480068A3
S31500004DE0C00709D535480068C00505D5D8F80000C4
S31500004DF00028FBD088F80070FFF7C0FFEDB228B39B
S31500004E00B54223DAFDF7B4FD0099401A80B2B0F539
S31500004E10FA7F1BDC15B95B270125DFE7012D05F1BC
S31500004E20010903D1DAF80000075DD6E7F01E8542D6
S31500004E3008BF5F46D1D0B01E854208BF4FEA1B2788
S31500004E40CBD0701E8542BED15D27C6E7B5420CBFEA
S31500004E5000200120BDE8F28F20490968095C042979
S31500004E60A8BFFFF79DBF0120704710B50E48006828
S31500004E7090B04022694609F062FA58B1C1B268465C
S31500004E8000F029F9044621461220FDF70CF82046C9
S31500004E9000F09EF810B010BD0035080010881442CE
S31500004EA068F00020B0C402004CE80020F0ED00E0FD
S31500004EB0F00004E0B00F00E055CEACC5000E00E0F7
S31500004EC0800E00E0100004E0FF0300400D0001002A
S31500004ED0040304E0001000E03FFF002058E8002033
S31500004EE0200000E0DFF81C17096801EB401070474E
S31500004EF0DFF814271268115470472DE9F0410400B9
S31500004F0035D0FDF72FFDDFF80417DFF804370E78EC
S31500004F10FF228046FE2EDFF8FC061BD100260E700F
S31500004F20DFF8F4C6DFF8F46637781F70002708E06C
S31500004F3007F1010E05F807E0DCF80050EA555FFAC4
S31500004F408EF796F800E005687745F1DB05EB0E066F
S31500004F5006F8012C1E78A6420BD24046FDF779FDD5
S31500004F60052000F0AFFB00211B20FEF735FCFF20DB
S31500004F701EE0361B1E70DFF8A8360E780F78D3F8C1
S31500004F8000E001250EF80750641E056815F807E0D5
S31500004F9081F800E05FFA84FEBEF1000FEED1EA551B
S31500004FA000213046FFF7A4FF4046FDF752FD30468C
S31500004FB0BDE8F08110B50446FDF7D4FCDFF86016B5
S31500004FC009680A5D521C0A55BDE81040FDF741BD4F
S31500004FD02DE9F041054600F031F80446FDF7C2FC24
S31500004FE0DFF82826DFF82836DFF82866DFF830866F
S31500004FF0FF2D1FD0D8F800104F5D7F1E4F557F271D
S31500005000D8F800E01EF80510394213D13168495D21
S3150000501000270EF805701F787F1C1F70FF29376860
S3150000502092F800E007F805E0157006BF2546FF2454
S315000050300D46DDE7BDE8F041FDF70BBD80B5DFF8B5
S31500005040E0150968095C090603D5FFF74BFF0078F0
S3150000505002BDFF2002BDB0B504460D46FFF7EEFFC8
S31500005060FF2818BFFFF7B4FFFF2DDFF8B47504D192
S315000050703868015D01F07F0106E02846FFF79AFFD8
S315000050803868015D41F0800101552046FFF72AFF8F
S315000050900570B0BD0EB478B504460120FFF72DFFAC
S315000050A00546FFF71FFF0646FF2D08BFFF200FD05E
S315000050B0E1B22846FFF71CFF05A8002104E050F8DE
S315000050C0042B06F8012B491CC9B2A142F7D3284686
S315000050D072BC5DF810FB70B504460D4605F11F0065
S315000050E00004400D82B0C0B2FFF707FF0646FF2E50
S315000050F00CD02946FFF7FCFE3CB1012000902B4660
S3150000510000223146204600F002F8304676BD73B5DF
S3150000511000F0D0F8405C15461E467119884203DA45
S3150000512040F2651100F0EBF830000CD0294601A8DA
S3150000513000F0E9F8024606989DF804100090334600
S31500005140204600F001F873BD2DE9F843089CDFF80E
S31500005150C4840546894616461F460BE06A5C4254DF
S31500005160491CB142FADBD8F80000BF1BAD1910F894
S3150000517009900026F8B2D0B14846FFF7B3FE801971
S3150000518056FA87F12029B9BFFFB23E46C6F120067E
S31500005190F6B22100324604D10146284604F084FBCB
S315000051A0E1E7012C08BF2946F8D00021D9E7BDE880
S315000051B0F1832DE9F04100F07DF882B0055D884667
S315000051C016467119C9B2A9421F4605DB30000CD03C
S315000051D0204600F05DF808B1182007E00097334636
S315000051E02A4621464046FFF792FF0020BDE8F68199
S315000051F00123DEE70A4600E0521C1378002BFBD1A0
S31500005200521A0223D2B2D4E72DE9F041054601F144
S315000052101F00C70402F11F00C0043F0E000E07B9AD
S31500005220012700B9012087422CD0DFF8E8431BDABA
S31500005230C01BC0B2FFF761FE8046B8F1FF0F08BF82
S31500005240002020D07F1E00F020F82668305CFF2862
S3150000525004D000F01AF8305CFFF7BAFE00F015F83B
S31500005260216801F800800DE08A420BD2411EC9B2C6
S3150000527000F00CF805462068405DFFF7A9FE21689E
S31500005280FF2048550120BDE8F081F9B2284616E016
S3150000529038B500F00FF80D46015D2A462046FFF7A7
S315000052A0B3FF28B129462046FFF722FE002032BD73
S315000052B0182032BD0446DFF850030068704704E04A
S315000052C0DFF850231268105C491ECAB2002AF7D1D3
S315000052D0704711B50C46DFF83013096881B0095CD8
S315000052E08C4203D340F2012100F009F8214601A8BF
S315000052F000F009F8044600F033F9204416BD0FF219
S315000053004830FBF713BA38B504460D46E904207851
S31500005310090EFFF7D4FF207005F01F0032BD80B5DF
S31500005320FFF7D7FF007802BD10B51446FFF7D1FF8F
S31500005330047010BDB0B5FFF7BDFF82B0055DFF2C50
S3150000534003D140F22121FFF7DAFF05F11F00000427
S31500005350400DC0B2FFF7D1FD0746FF2F0AD0294600
S31500005360FFF7C6FD0095002322460021384600F0CF
S31500005370C6F83846B6BDF8B504460D4616460120B1
S31500005380FFF7BBFD0746FFF7ADFDFF2F01D1FF205D
S31500005390F2BD33462A462021204400F020F8211889
S315000053A0C9B23846FFF7A4FD3846F2BD10B582B043
S315000053B004AC009400F001F816BD10B514461A4668
S315000053C0029B2044091BBDE81040C9B207E00CB49B
S315000053D080B502AAFFF7CFFF02BC5DF80CFB2DE9F2
S315000053E0F047814614469A464F46002588460AE00D
S315000053F03246384604F058FA7019BF19451EEDB208
S315000054006D1C641CEDB245453BDA2078010038D0AE
S31500005410312818BF32280ED15AF8041B07F8011B91
S315000054203228EDD16D1CEDB2A845A4BF081207F8CD
S31500005430010BE5DA25E034280ED1291D5AF8040BB4
S3150000544088451EDB3870010A7970ED1C010C000ED0
S31500005450B970F8703F1DD2E7A0F133025AF8041B69
S31500005460072A38BFA0F1300607D3A0F14102072A68
S3150000547034BFA0F137065AF8046BF6B270194045EE
S31500005480B6DBA7EB0900C0B2BDE8F0875F49FE2096
S315000054900870704770B500F027F800F003F8301870
S315000054A080B270BD06022946204638E700B583B0B3
S315000054B002238DF80420120A8DF80520012200929D
S315000054C017E0F8B500F010F8FFF7ECFF8619E91CB5
S315000054D0C9B2FFF7E9FF0702A91CC9B2FFF7E4FF4B
S315000054E0C01906EB0040F2BD0D46691C0446C9B260
S315000054F015E70A46014601A8FFF709FE07BD2DE993
S31500005500FC4405B40A9C20001F4627D089B2684691
S31500005510FFF7F9FE0646B9B201A8FFF7F4FE074603
S31500005520BE42A8BF3046A4B2C0F120002546C0B294
S31500005530A842B8BF054600F013F882469DF8000061
S31500005540FFF7D0FC2A460AEB0701304404F0ACF919
S31500005550641BA919EF19A0B20028D7D1BDE8FF84B2
S315000055609DF80400BEE470B504460D46FDF7FAF951
S31500005570294B21781B68FF2908BF5D5503D01944C4
S315000055800E785E550D702570BDE87040FDF761BA66
S3150000559038B50446FDF7E6F92178FF22FF2908BF52
S315000055A0FF2507D01C4B1B685D5C8D420EBF227029
S315000055B05A5D5A54FDF74DFA284632BDF8B50446F1
S315000055C00D46FDF7CFF921780026FF2915D0124B9D
S315000055D01B680A46012602E0761C3A46F6B29F5C34
S315000055E0AF4208D1DF5D9F54A94206D18A4208BF67
S315000055F0FF22227001E08F42EED1FDF72AFA3046F3
S31500005600F2BD000054E8002058E80020D6EB002048
S31500005610B9EB002060E8002064E80020B8EB002029
S315000056205CE800200078FF2801D1012070470020A7
S31500005630704710B5044602E0FFF7CAFC2046FFF7A4
S31500005640A7FFFF28F8D110BD7061636B65742D62EA
S3150000565075666665722E63002F49087070470EB432
S3150000566030B504462C48007820B3FFF787FB08B313
S31500005670FCF7E4FC0120FFF740FC0546FF2D19D09E
S31500005680FFF730FC0221FFF77FFB01462846FFF7B4
S315000056902FFC03AB22462946204800F0FCFC30B123
S315000056A02846FFF7D9FB10B1042000F00BF8284676
S315000056B0FFF78EFC30BC5DF810FB0C220021184869
S315000056C004F035B9164931F81020521C21F8102083
S315000056D070470CB480B502AAFCF73AFB01BC5DF832
S315000056E00CFB0D490978A1B9010018BF012810D09B
S315000056F0042818BF05280CD0312818BF332808D035
S3150000570037281EBF3B284FF6FF71884201D0012083
S31500005710704700207047000058FF0020F15100003C
S315000057208CF60020302818BF322806D034281CBF3B
S315000057303628382801D00020704701207047000025
S31500005740012100F01F029140DFF8C42505E0012188
S3150000575000F01F029140DFF8BC25400942F82010F6
S315000057607047012100F01F029140DFF8AC25F4E7F5
S3150000577010B5DFF8A84530B1012807D0102802D0AF
S31500005780202803D004E00020204410BD1C20FBE7A5
S315000057904FF4BD71DFF88805FAF7C8FF204610BD43
S315000057A070B500F08FFAFDF7DDF8E188A9420CD25A
S315000057B02288521A521992FBF6F306FB1322228014
S315000057C0A288AA18511AA180E58000F0E6BA70B541
S315000057D005460E46FFF7CCFF012D18BF202D0446C7
S315000057E040D1A069016890F83200E8B904208864C5
S315000057F000F062F9A0690068C16C002E07D041F084
S315000058000401C1640C20FFF79BFF052106E021F08F
S315000058100401C1640C20FFF79AFF0021A06900680B
S31500005820BDE8704008F02DBE0420486300F044F93E
S31500005830A0690068816B002E07D041F004018163E6
S315000058400C20FFF77DFF052106E021F004018163AE
S315000058500C20FFF77CFF0021A0690068BDE87040BE
S3150000586008F0C5BE70BDF8B50446DFF8B80481423D
S315000058701D4634D0002600F0AAF82DD13A893868A2
S31500005880A9B2FFF78DFF39680020C88002E03846CC
S3150000589000F026F8204609F07BFF03281CDA788AF8
S315000058A0F989484339688A88002A80B2EFD00B8884
S315000058B0B7F80EC0498884446145B8BF984207DBF3
S315000058C08B42E4D2FA8982189142A8BF9842DEDA66
S315000058D00121204609F091FF761C022ECBDBF1BD9B
S315000058E038B50446DFF84034E089658A2168024607
S315000058F06843084400F10801A0690AF042F8A0696B
S3150000590009F046FF022803DBA069002109F075FFB4
S31500005910608AA18A401C90FBF1F201FB12006082B2
S3150000592031BDFEB50446207B68BB60680FF259079F
S315000059304188084400F10805A0696B4601AA02A93E
S3150000594009F02BFF60688188009A891A019A8E1ADD
S315000059504188008888420ED26089421AA0693B4677
S3150000596029460AF056F870B9606861894288711A4A
S31500005970561800F10805A0693B46F2B229460AF01E
S3150000598048F800B96073F7BD2DE9F0410446984622
S31500005990002600F01CF815D178688188414534BF8F
S315000059A085884546FCF7DEFF79687A894988ADB275
S315000059B0691800F057F87A68518079688A88521B0E
S315000059C000F0BDF8761C022EE3DBBDE8F0811C2159
S315000059D0DFF8480311FB06F14718B869A042704783
S315000059E038B50D46FFF7C4FE112D044609D1A0694E
S315000059F0002109F013FF002020732046BDE8324045
S31500005A008FE7132D06D1A069012109F007FF0120B8
S31500005A10207331BD2068018808440572206801881A
S31500005A20228900F01EF801808188491C8180A069C6
S31500005A3009F00BFF226821899288891A89B220B958
S31500005A40E2898A42A8BF012105DA012808D1208A05
S31500005A50814205DB0021A069BDE8344009F0CDBED6
S31500005A6031BD491C91FBF2F302FB1311704780B55F
S31500005A70DFF8B8020169090606D508F0A5FDBDE8FC
S31500005A80044001460120ABE701BD80B5DFF8A00266
S31500005A90016829B10168DFF89C22116000210160CC
S31500005AA000F00AF80C20FFF74BFEDFF88C020168C5
S31500005AB041F00401016001BD0C2052E680B5DFF81B
S31500005AC07C0204210160416821F004014160FFF776
S31500005AD0F3FF0C20FFF73BFEDFF85802006810B119
S31500005AE0DFF84C12086001BDF8B50C461546FFF705
S31500005AF03FFE0646EAB2306880883189891A8842B4
S31500005B0001DB0120F2BD00270DE0FCF72BFF316819
S31500005B100B8814F8012B19447F1C0A7231680A8815
S31500005B20338900F004F8AF42EFD30020F2BD521CD7
S31500005B3092FBF3FC03FB1C220A808A88521C8A8093
S31500005B40FCF787BFF8B5012804460D4603D910387F
S31500005B5001D010384FD1204600F026F910B9204662
S31500005B6000F081F800F0ABF8064600F0A8F8210036
S31500005B700ED0012C03D0102C0AD0202C3BD1DFF8FC
S31500005B80C0110160DFF8BC1141608021018108E08D
S31500005B90DFF8B4110160DFF8B411416040210181E2
S31500005BA080214181200018BF102C03D1BDE8F140AF
S31500005BB0FFF772B8012C18BF202C52D1012C16BF4A
S31500005BC0202CDFF88C010020012C18BF202CB0619E
S31500005BD011D1DFF88001A98CA861DFF87C01E861AA
S31500005BE0F181EA8C32828A4207D21C21304609F0C2
S31500005BF071FF0220F2BD0120F2BDB06990F831308C
S31500005C00012B0CD0338993FBF1F701FB1733002BE3
S31500005C1002BF92FBF1F301FB13210029E5D12946CE
S31500005C2009F0E6FBF0B9B069017F007E012302228C
S31500005C3008F0D9FA287C012808D101212046FFF76F
S31500005C40C6FDB069002109F0D8FD0AE00020708287
S31500005C50F189308990FBF1F0B08200F0A2F800F0F3
S31500005C60A0F80020F2BD58B50128044603D9103823
S31500005C7001D0103812D1204600F096F8E8B9204637
S31500005C8000F06CF800F01BF8012C18BF202C06461B
S31500005C900FD1B06909F07EFC10B152BD012052BD92
S31500005CA0B06990F83100012803D100212046FFF7A2
S31500005CB08EFD1C21304609F00DFF002052BD204606
S31500005CC056E5012804460D4616467047F8B50127E5
S31500005CD0FFF7F7FF03D9103801D0103816D1002C82
S31500005CE018BF102C04D131462846FCF703F80027CC
S31500005CF0FFF7E5FF012C18BF202C05D1806932463D
S31500005D00294609F0A4FD07463846F2BD0120F2BD3A
S31500005D1000E100E080E100E080E200E0F0EF00203A
S31500005D2084C40200097000F06758000000000140BA
S31500005D306C200E405CF000204C0001404800014001
S31500005D40E0EE002068EF002010EE002058EE002064
S31500005D5028F000204CE70020CCE7002070B505466F
S31500005D60FFF706FD0646012D346818BF202D0DD11C
S31500005D70B06990F83110012908D0022109F04FFCD2
S31500005D800020708200F00DF800F00BF8FCF7EAFD39
S31500005D900021A18021806180E180BDE87040FCF790
S31500005DA058BE3046FFF79CBD80B5012804D9B0F136
S31500005DB0100101D0103906D1FFF7DAFC00281CBF0C
S31500005DC00068002801D1012002BD002002BD0000AC
S31500005DD000210FF23422535C834201D10120704727
S31500005DE0491CC9B20829F6D30020704700210FF2DA
S31500005DF02022535C834201D101207047491CC9B25D
S31500005E000829F6D300207047794800684088704713
S31500005E1077480068001D704775480068C07E704767
S31500005E2073490968C876704738B5714D714C296851
S31500005E3048730228704915D12868007B04281CBFC6
S31500005E40084602F00BFD2868007B03281EBF0428C5
S31500005E50204602F003FD28684069C00054BF902424
S31500005E60BC2405E0002008702070912409F04AFE49
S31500005E70204609F053FE50B9234613225BA10320A6
S31500005E80FFF727FC2046BDE83240FDF79ABC31BD3E
S31500005E9057480068407B00F00F0070475448006880
S31500005EA0407B00F00F00022801D10120704700203E
S31500005EB0704780B509F012FEB8B109F027FEA0B10F
S31500005EC04E48FFF7AFFB80B14D48FFF7ABFB60B123
S31500005ED00AF0A4FB48B109F032FE30B9BDE804402F
S31500005EE04FF0FF31474802F01DBD002002BD38B516
S31500005EF00446FFF7D3FF3E4D28B92868407B0328A8
S31500005F0001D0932032BD0AF020FD20812868C07B95
S31500005F10A0722868807BE07220460CF052F90020BF
S31500005F20207304F1140104F110000CF01EFAE08154
S31500005F30002032BD70B52E4D2E680C46FFF7AEFF21
S31500005F4020B9707B032801D0932070BDF07B2070B0
S31500005F502868807BFAF781FD60702868807B00F0F6
S31500005F601F00A070002070BD10B5002300E05B1C70
S31500005F70DCB28C4205D210F8014B9442F7D00020D7
S31500005F8010BD012010BD80B50821FAF7D1FC08B17B
S31500005F90002002BDA52002BD15480068407B0128EF
S31500005FA01CBF3128332801D10120704700207047DB
S31500005FB010B50446FAF7FBFD010002D10C49096849
S31500005FC0CC7310BD0A48006890F90F007047084866
S31500005FD00068807B70470120704705480068807B19
S31500005FE0400918BF0120704700000000424200002F
S31500005FF0DCF80020C8FA0020DCF7002054EB002073
S3150000600008EB0020A80901000001020304051D2079
S315000060100203040508090A0B70B51346104402E092
S31500006020A4192C705B1EDCB24CB101F00F060909F5
S31500006030451E0A2E2846B4BF30243724F0E7104404
S3150000604070BDF0B5002341B1002806D501232D21EE
S31500006050B0F1004F117018BF4042002100248B4D53
S3150000606055F82470002601E0C01B761CB842FBD20E
S31500006070F7B20FB90F0005D0DBB206F13001D154EB
S315000060805B1C0121641C092CEADBDBB23030D054E6
S31500006090581CC0B2F0BD2DE9F24F804696B013A849
S315000060A00190154603A89B4603AE002700248DF8F1
S315000060B000000BE0012405460198864205D300F056
S315000060C0DCF800284FD100F0CEF86D1C9DF80000DA
S315000060D02978301A0A000BD0252903D014B906F8FE
S315000060E0011BE9E7002C14BF00246D1C29780A0067
S315000060F000F0AF80B1F1250216D00B3A092A40F222
S315000061008980283A7DD00A3A12D0521E41D0521EBA
S315000061105FD0083A5DD0121F3ED0D21E3CD0921EF0
S3150000612057D0D21E6DD0C7E7252006F8010BC3E76E
S31500006130DBF8000002904FF0000A0BF1040000F1BA
S31500006140040BD0F80090CA45B6D2029810F80A108F
S3150000615002223046FFF760FF06460198864205D3C5
S3150000616000F08BF800287AD100F07DF8A9F1010043
S3150000617082453CBF202006F8010B0198864205D3D4
S3150000618000F07BF800286AD100F06DF80AF1010AE8
S31500006190D9E75BF8040BC8E75BF8049B00F067F8E7
S315000061A000285CD100F05FF84FF0000A01E00AF128
S315000061B0010A5FFA8AFA19F80A000028F7D19DF851
S315000061C0580052464946C047002848D15744FFB2B6
S315000061D072E76C290AD16A785BF8040B752A0EBF40
S315000061E000210121642A07D16D1C05E075295BF8A1
S315000061F0040B0CBF002101213246FFF722FF36189F
S315000062005AE75BF8041B0222C9B23046FFF704FFC7
S31500006210064651E76A780124782A18BF582AF8D129
S315000062206D1C0024681E322904D15BF8040B04227D
S3150000623081B2EAE734297FF43DAF5BF8049B042280
S315000062404FEA19413046FFF7E7FE04221FFA89F1AB
S31500006250DCE700F00CF810B9F019C0B200E000203D
S3150000626017B0BDE8F08FF719FFB203AE70470646C8
S315000062709DF85800F2B203A940479DF80000361A6F
S315000062809DF85800F2B203A94047000064C5020019
S315000062900D48016821F480310160016F4908490009
S315000062A00167704710B5FCF75DFB0446FFF7F0FF8A
S315000062B0064800F00DF8044805210167016841F41D
S315000062C080310160204624E024ED00E0D0E8002083
S315000062D038B50446052520460CF0F0F910346D1E3D
S315000062E0F9D1BDE831400CF011BA80B5FFF7D0FF07
S315000062F0BDE801400CF00ABA10B50446FCF732FBC3
S31500006300004901E0D0E80020620952014A600022FB
S315000063100A70BDE81040FCF79CBB0000DFF890193E
S3150000632004220968C00002FA00F0084018BF0120E4
S31500006330C0B270470422C900002814BFDFF8500914
S31500006340DFF8700902FA01F1016070470120704719
S31500006350704748B1DFF83C296FF0FF011160000A71
S31500006360DFF858190002086070472DE9F0430D4622
S31500006370044690460421DFF84809DFF84879D0F84A
S315000063800090DFF8440904EA000205EA0103002050
S3150000639000218B4208BF824283B009F10C0647D028
S315000063A0DFF828090068220348BFC7E90201E202B4
S315000063B048BFC7E90401E0000BD5DFF814190868E7
S315000063C000F07F40B0F1007F03D1DFF8081902200A
S315000063D00860E0071FD500F06CF9002200F051F8C4
S315000063E001200CF062FBF08000210120FCF7CBF8C5
S315000063F07978002914BFDFF8E018DFF8E0184FF4C9
S3150000640000100860786AFFF7A4FF002078623078F1
S3150000641040F00800307005F0040300218B4207D0DD
S3150000642001213046FBF72AFF25F0040504430D43FE
S31500006430D6E9120104400D400020854208BF84427F
S315000064400ED0B96922462B46484688474FF0FF30A2
S31500006450C7E90200C7E90400200744BF0020B8626C
S315000064605FEAC8700BD5F9690020F8610120387021
S31500006470080004D0386A03B0BDE8F0430847BDE819
S31500006480F7830023012000210CF019BD70B508B96F
S31500006490012070BDDFF84828DFF8484851681268C7
S315000064A0402303FA02F22368DFF8E0492468C4F3C4
S315000064B08114521E032C01F1005192B29BB20BD1F2
S315000064C00025EE18083E16408E5D46556D1C082DBB
S315000064D0F7DB0472002070BD022C0AD19D1E154008
S315000064E05B1E4D5D05801A40895C45EA01210180ED
S315000064F0EFE7022070BD10B582B009B9012016BDC4
S315000065000B7BDFF8C027002B14BFD2E90423D2E9A6
S3150000651002234FF0FF34A34208BFA24201D102205A
S3150000652016BD009128300DF007FC002016BD10B5F1
S3150000653004461120FDF7FCFF042802BFDFF85009CE
S31500006540006810F4403F01D0022010BD20460CF038
S315000065505EFD204600F0C7FFDFF8DC19602008600A
S31500006560002010BD2DE9F04104460FF27C0084B0F6
S3150000657004F10C080068029008F108070026BE67BF
S31500006580C7E91066BE85FE85642038867886B8869B
S31500006590F886388778870D464FF6FF703880404674
S315000065A0FFF7D4FEC0B14046FFF7C1FF060013D186
S315000065B002A9404600F02AFD0646BA6F4FF0FF31A9
S315000065C0404600F087FA00F074F84FF0805204233A
S315000065D0104604210CF073FC28001CBF2046A84777
S315000065E0304604B0BDE8F0810000000098B50446CE
S315000065F0207881072ED5616A61B300F0FD01217014
S31500006600606A4069006810F1010F03D0BDE892404E
S315000066100DF00DBDD4E9122303F004030027BB429D
S3150000662003D141F00200207091BD4FF48031204625
S31500006630FBF724FED4E9122302400B4008BFBA42FE
S3150000664008D0A4F10C0001B0DFF878168969BDE81E
S315000066509040084791BD2DE9DC430446DDE9086713
S31500006660D4E912019043994306EA020807EA0309AE
S3150000667040EA080041EA0901C4E9120122F00108D2
S3150000668023F0000900F08EFD80B100F012F807EA51
S31500006690090106EA080040F0805241F00403404632
S315000066A049460CF00CFC2046FFF7A0FF0020BDE891
S315000066B0D683002001900090704700680100DFF843
S315000066C0041608BFDFF83C09886170472DE9F041E0
S315000066D05FEA010886B0044615461E461AD0280011
S315000066E018BF002C16D000F097FFDFF8D875B96AEE
S315000066F08C4206D17988BF88ADF8001000F089FF7A
S315000067001DE000F086FF6A4601A920460EF09DF9BD
S31500006710040001D100201FE09DF80400002818BFE6
S3150000672008280AD000F078FFBC62BDF80010798016
S31500006730BDF80610B98000F06CFFBDF80670A81908
S315000067408742BDF80000B8BFBD1B83199BB2AAB231
S31500006750414601200EF01BF806B0BDE8F08110B5E9
S3150000676000F03EFE70B1F020044201D0012010BDC1
S31500006770DFF80C090168090904F00F0242EA011169
S315000067800160002010BD0000002300210022032824
S3150000679007D8DFE800F00302070A012318460CF0C9
S315000067A0BDBC704701230121F8E701230121012225
S315000067B0F4E7DFF80405006800F07060B0F1807F50
S315000067C018BFB0F1007F19D0B0F1407F18D0B0F1FA
S315000067D0806F1CBFB0F1A06FB0F1E06F0ED0B0F1CA
S315000067E0006F17D0B0F1106F0CD0B0F1206F1CBF46
S315000067F0B0F1306FB0F1406F0CD005E00220704769
S315000068000320704705207047DFF87808006810F00D
S31500006810060F01D00420704701207047DFF8A0085A
S31500006820006800F0A000401E8041C00F704710B500
S31500006830044600F0BFFB204603F00AFE78B120466E
S3150000684000F010FB58B1032100200DF0E5FF10F118
S31500006850010F01D1032010BDDFF83C1908600020AC
S3150000686010BD10B5FFF7E3FF040008BF0CF01FFCD6
S31500006870204610BD70B584B0BAB31378002B04BFA0
S315000068805378002B31D070CA6B4670C312F80C3D9A
S315000068901C000FD09588BDF806406B431B19ADF858
S315000068A0063014789DF801301B1B8DF8013000234B
S315000068B08DF8003001239DF8014000E05B1C0125A6
S315000068C09D40A542FAD392888DF800306E0804FBED
S315000068D00262B2FBF5F2ADF804209DF800208DF8B7
S315000068E001206A4600F005F801E000F002F804B065
S315000068F070BD2DE9FE4F83461446FFF798FF5FEA09
S31500006900000940F08580002CDFF8906855D094F996
S315000069100310E0880CF0EAF8A178481E8DF808000C
S31500006920012722786078924619B900278DF8081059
S31500006930BA468046D04538BFD0461AB9451EAD4145
S31500006940ED0F00E00025A0880EF093FB80B2DFF883
S3150000695050184FF604026DB1CB6A9BB2934208BF42
S315000069605B1C33800122CA624FF0080A8022CA6487
S31500006970D04604E0338893421CBFCB62328038B1E4
S31500006980421E4FF6FF739A4288BF1A460A6000E01D
S315000069900860002001903B469DF8080000904246A2
S315000069A051460BF128000EF008FB25B1DFF8C018A0
S315000069B04FF480100860A06870602020DFF8BC18D3
S315000069C0086001200EF066FB00F026FE04460EF07D
S315000069D01EFB7668AEB104200EF0BEFA10B104209C
S315000069E00EF08AF930460EF044FB012200920B4667
S315000069F0024604200EF090F900F0010090F0010923
S31500006A0003D10EF010FB0CF037FB00F003F84846FC
S31500006A10BDE8FE8F204600F0FCBD38B500F0E0FC76
S31500006A20002518B160B20CF087F80546284632BD3D
S31500006A3080B500200CF05CFB002002BD012809D0C7
S31500006A400BD3032803D008D24FF0C05006E04FF016
S31500006A50005003E04FF0605000E00020DFF85818C7
S31500006A600A6822F06052104308604FF400109A49F9
S31500006A70DFF848280860DFF84808016821F00601B9
S31500006A8041F0040101604FF0805111600421416121
S31500006A9000207047DFF82C18062008600020DFF879
S31500006AA0281808604FF08050DFF8201808604FF46F
S31500006AB000118A4801604FF0605101600020704764
S31500006AC0002819BF0220DFF808180220DFF8041892
S31500006AD00860704738B500F00FFA00284ED022073C
S31500006AE0DFF8F007DFF8E81705D52A0747BF0822C1
S31500006AF00A6008220260E20705D5EA0747BF0120BF
S31500006B00086001210160600708D569074CBFDFF8FE
S31500006B10C817DFF8C8174FF400700860A00704D53F
S31500006B20680800F00100FFF7CBFFE00606D5DFF8A6
S31500006B30B007E9064CBF00211B21016014F0600F6D
S31500006B401CD004EA0502002102F06002202ADFF8C8
S31500006B50940711D0402A0CD0602A0ED1DFF87C2889
S31500006B60136853B11C68022C07D35A6942F001011D
S31500006B7003E040F2011100E001210160002032BD76
S31500006B802DE9FC4700260D0018BF01250229804685
S31500006B901446994603D100F032F8002027E000F0B1
S31500006BA03BFD484F8246F869010018BFA04215D147
S31500006BB00120FC6101900090C7F82090002200237C
S31500006BC00020FFF760FC3E7040460EF052FA024687
S31500006BD00B46009502200EF09FF80646504600F040
S31500006BE018FD002E03BF0020F86101200020BDE83B
S31500006BF0F687DFF89008D0E900010EF026BA00B556
S31500006C0083B0002001900022012000900023002084
S31500006C10FFF739FC02200EF06FF82A490020C86100
S31500006C2007BDDFF83C08274900680978800A00F0AC
S31500006C3001000843704702200EF08EB970B5406A15
S31500006C400025002816461EBF4069002805460C464A
S31500006C50F00748BF0EF0A2FAF00317D5266816F122
S31500006C60010F0ED1DFF87407016800291FBF0A68FB
S31500006C70002AC8680DF002F90DF077F9064626607D
S31500006C8002E030460DF0D3F905B12E6070BD00006C
S31500006C90EC1008461870084438B5DFF864480B78DD
S31500006CA022684978C2EA034242EA016527E0000009
S31500006CB0EC100840EC1008440440084018700846E0
S31500006CC034EB002020E70020010018101C5108407A
S31500006CD0001F002100400846186008461860084456
S31500006CE030100840F41E002138B5DFF81448226839
S31500006CF00B784978120C43EA024242EA0125FFF773
S31500006D0025FB00B12560002032BD70B500F0B3F957
S31500006D10002628B104F1280128460EF04FFA06464F
S31500006D20304670BD70B504460D4694F860000328E1
S31500006D3001D1022070BD261D316A357081B1204611
S31500006D40FBF72BFC40B930622046FBF718FD0146E5
S31500006D502046FBF73EFC03E0E9B2204600F002F8CD
S31500006D60002070BD10B50C4690F86010032901D1C3
S31500006D70022010BDFFF7EAFA10B1E0B20EF0C6FA33
S31500006D80002010BD80B508460EF06BFA002002BD4B
S31500006D900EF06FBA80B50EF0B1FDBDE801400EF001
S31500006DA043BD80B50EF020FDBDE801400EF065BD87
S31500006DB080B50EF019FDBDE801400EF080BD2DE94D
S31500006DC0F04104460F466069012815461E463DD02F
S31500006DD000F0E8F9002839D0FFF7EBFC012803D0D2
S31500006DE001210120FBF7CFFBA889D5F804803F1AC3
S31500006DF0BFB2402F06D3A968B809484308EB8018EC
S31500006E0007F03F070EF0BCFD404507D10EF0BBFD75
S31500006E10A968884204BFF6B2002E10D0A968404681
S31500006E200EF0E3FD08B1022011E00EF0C3FD0028CC
S31500006E3014BFDFF87407DFF878070EF0C8FE2046A7
S31500006E40FFF7D4FB0121F8B20EF03AFE0020BDE8B0
S31500006E50F081C9B280B5002914BF2022002220216A
S31500006E6000F03BBB20210CF0D4BC58B5064688B2D6
S31500006E700EF0FFF804463046FFF768FA18B1DFF85F
S31500006E80340761420160002052BD00008C4008407A
S31500006E9004300E40F8B5074600F02EF8032610B36E
S31500006EA000F0BAFB0746DFF8D41302200860564804
S31500006EB00068000E00F00F00082818BF072803D04E
S31500006EC0092818BF0C2803D17D480068800304D424
S31500006ED0E9B220460DF0C0FC064600F026F838461A
S31500006EE000F097FB06E0EAB2214607F19000FBF7B7
S31500006EF0B7FA00263046F2BD0C461546FFF726BA0D
S31500006F00C9B2002914BF0822002208210CF066BC71
S31500006F10C9B2002914BF4FF4807200224FF4807169
S31500006F200CF05CBC08210CF074BCDFF8941602204F
S31500006F3008607047000000004400084000280CBFAD
S31500006F40DFF83803DFF878064FF480710160704788
S31500006F5070B5DFF86446DFF864162578DFF8642636
S31500006F60ED074FF4806303D505000CBF13600B607B
S31500006F702678B6074FF4006503D506000CBF1560EA
S31500006F800D602678760703D506000CBF53604B606C
S31500006F9023781B0703D508B9556070BD4D6070BDD9
S31500006FA0002814BFDFF83003DFF830034FF48061A8
S31500006FB00160704738B504460D46680800F00100C8
S31500006FC0FFF7C6FF05F00400FFF7EAFF002005F013
S31500006FD01802182ADFF8F01507D02A0748BF012043
S31500006FE003D4EA0648BF40F2011008602046FFF7C6
S31500006FF039FF20B105F00100BDE832409EE731BD02
S31500007000000000005163000004400840F8B500F09D
S3150000701032F870B3A878E978884201D00120F2BD31
S315000070206878010002D1FFF735FD01E0FFF706FDA4
S31500007030A878DFF8986540F6FF7700280EBF37601E
S31500007040204600F0E0F8E87840B9DFF884123763AC
S31500007050602008604020DFF8681509E0DFF8741248
S3150000706060200860204600F0E4F84020DFF83C1578
S3150000707008600020F2BD04460D46FFF767B9000020
S31500007080541F00210C50084038B50C466A460DF0D6
S31500007090DCFC050018BF002C10D02078010018BFBA
S315000070A008280BD000F0B8FADFF824158D62BDF879
S315000070B000204A8062888A8000F0ABFA284632BDFA
S315000070C08840084010B50C46002818BF002C84B034
S315000070D006D0032806D2002200210DF0B6FC08B91E
S315000070E0012056E000680090BDF800209DF80210CF
S315000070F0120401F0070002D4821F022A01D30220E3
S3150000710047E007280CBF012000202073080900F083
S3150000711001006073C1F380102074C1F3C000607475
S31500007120C1F34010A0740BF01AFC0246C0B240B383
S31500007130207A00B90222BDF80000831F9BB2D2B2AA
S3150000714001A901200DF023FB01A841784900E17354
S315000071509DF90410A173217AD1B18178C2780079A2
S31500007160009441EA022141EA00409DF8091040EAF4
S315000071700162DFF860040068002334300CF090FDF3
S3150000718006E0E0736FF07F00A0730020206020729D
S31500007190002004B010BD0000F81E002158EB0020AE
S315000071A02C5008402046FFF7D1B8F8B50C469BB2E4
S315000071B000F023F806DAB3FA83F1D1F1190148BFDA
S315000071C0002507D400F019F8BABFB3FA83F1C1F16C
S315000071D0190506250121AB1D01FA03F6B7B291B2D6
S315000071E08F4288BF0F46FFF7B1F820B1EAB23946A1
S315000071F020460DF05AFAB0B2F2BDB3FA83F1C1F1EE
S3150000720019010629704780B5FFF7A0F880B1002064
S31500007210FFF784F8DFF8C023012111604FF4005115
S31500007220DFF8B823116018B1BDE80440002121E061
S3150000723001BD10B5FFF78AF8B8B10120FFF76EF867
S31500007240044601210020FFF775F8DFF884130020BB
S3150000725088620CF05DFADFF888134FF4005008607E
S315000072601CB1BDE81040012104E010BD0000000083
S315000072704C5008460120FFF75DB8000088400846DC
S3150000728010B50CB214F1010F01D1012010BDFFF7AA
S315000072905DF870B143F6FF70844206DA14F5804F4C
S315000072A0B4BF4FF48040C4F30E00DFF8401308600B
S315000072B0002010BD000000001860084094400846F9
S315000072C07000084070000844840008409440084458
S315000072D044000846440008441C6008461C600844F4
S315000072E04C000840641F00212DE9F84F054600F0C8
S315000072F077F8002600286FD0DFF8E0B0DFF8F072EC
S31500007300DBF80080D7F80090D7F804A0214605F1F5
S3150000731028000BF0B9FADBF8004038687968DFF826
S31500007320982248450ED01378870A03F0FE0307F02B
S3150000733001073B43C00A03F0FD0300F0010043EAE6
S315000073404000107051450FD010788B0A00F0FB00FA
S3150000735003F0010340EA8300C90A00F0F70001F0D8
S31500007360010140EAC10010704FF6FF71288988427A
S3150000737005D05268100002D0298928469047444516
S3150000738025D00021002C1EBF20680028A1682846B1
S3150000739000F029F8002C1CBF2068002801D02069C5
S315000073A018B900220021002402E082680168C4891D
S315000073B005F128000CF033FC06000DD1214605F13D
S315000073C028000CF07BFB05F128000CF024FC287843
S315000073D040F0020028703046BDE8F28FF81F002109
S315000073E00C46FEF7B3BF70B50E0082B00546DFF857
S315000073F004420AD1002207210CF0F0F900F032F81D
S3150000740058B30020C4E9000073BDFEF79FFFF8B132
S31500007410DFF8D011072008600121307920707079DB
S31500007420009068460EF03EFC0099C14000F00F0047
S3150000743040EA01106070B079A070F079E0703168B0
S31500007440DFF8B40101603079DFF89C11401C086058
S315000074500722072128460CF0C1F973BD0000000081
S315000074605C5008402846FEF771BF10B5FFF7B8FF1D
S3150000747020B1E0B2BDE810400BF017BBDFF87C018D
S3150000748010BD0000F8ED002080B50DF077FDBDE8D9
S3150000749004400DF0DABD70B505460C4600F023F841
S315000074A0CCB1A078092801D3012070BDE178092963
S315000074B0FAD200F00F0040EA0116FFF7D3FF50B1F1
S315000074C0DFF83C0161680160DFF83801217801705E
S315000074D061784170C670002070BD0CF07FF900B174
S315000074E00120C0B202BD80B5FEF730FF30B1BDE865
S315000074F004404821DFF8080108F0ECBA01BD00009D
S31500007500001F0021F8B5D2B2022A3CBFDBB2042B21
S3150000751001D30120F2BD5408DFF8EC5001272E5D9F
S3150000752003EB8202C9B207FA02F2002914BF16431E
S315000075309643FEF70BFF00B12E550020F2BD0EF06C
S31500007540C5BB38B50D460446298804F138000CF051
S315000075509FFA288004F1400069880CF099FA688047
S3150000756004F13E00A9880CF093FAA88004F13C00CF
S31500007570E9880CF08DFAE88004F1280029890CF0DE
S3150000758095FA288104F1280069890CF097FA688138
S31500007590FFF708FE18B104F128000CF03CFB0020B0
S315000075A032BD0EF06EBC0000C0CF6A0088400846AF
S315000075B0E0673500FC1E002158FC0020A0000844AE
S315000075C088400844A0000846681F0021241008408F
S315000075D020E7002034EB002028100840241008443F
S315000075E0541008440400084418000840403008407D
S315000075F0A00008404C1F0021501F002100FEFFFF85
S31500007600041F0021481F00214A1F0021C9B2FFF7AD
S315000076102CBF00B962B67047EFF3108072B67047A0
S31500007620F8B50F46144647F6FF718C4201D1FF208C
S31500007630F2BD2D4E716800291CBFB168002901D02A
S31500007640F16811B92A21FAF75AF938460EF05EFCAC
S31500007650012F01460BD10622F16831F912108C4236
S3150000766003DA521E12B2002AF6D1501C39E0B1F9E3
S315000076700000A042B8BF044603DB1C488442B8BFE2
S315000076800446A4F1C800282290FBF2F0424230786A
S31500007690034612B25D1E9542BCBF421E12B24D6831
S315000076A005EBC2004668B0F9020010FB0460002832
S315000076B04FBF002000F5FA704FF47A76B0FBF6F073
S315000076C0521C12B29A4203DA35F832608642E6D28A
S315000076D005EBC20131F8081C814238BF084600B9E3
S315000076E00120C0B2F2BD00BF90F80020C880FFFFA5
S315000076F0D0B5274E0F46716800291CBFB168002916
S31500007700144601D0F16811B92A21FAF7F8F8012FC9
S315000077100BD1082CA8BF072401DA200000D0641E74
S31500007720F068E4B230F91400D0BD200001D1194848
S31500007730D0BD38460EF0EAFB022C416802DAB0F9F9
S315000077400200D0BD002F0CBFFC22F822944202DBBF
S31500007750B0F90000D0BD3078401EC0B2002200E073
S31500007760521C824201EBC20302DA1E89A642F7D2FC
S315000077704FF47A715A68B3F9020011FB04F1891AC1
S3150000778000EBD07201EB620191FBF0F000B2D0BDCC
S3150000779090F800200CFEFFFF28B90348016003485B
S315000077A00068FAF7ACB8704760EB002034EB0020B5
S315000077B0012100F01F029140514A400942F8201071
S315000077C0704730B54F48504D0FC887B003AC84E8BA
S315000077D00F0068460021002200230EC002208DF80B
S315000077E00600012149484A4CFCF78AFD4FF6FF7016
S315000077F0E0616A46002120460EF0EEFB00208DF87F
S315000078000E0003A920460EF09BFB4248FCF7A8FD9C
S315000078109DF80E1001228A40491C8DF80E10B0FB0F
S31500007820F2F0C9B20B29286002D23B498842E8D25D
S315000078303A48FCF795FD3A492A68B1FBF0F3394816
S315000078400021E3FB0201384A00230EF0FBFB374917
S315000078500860002036490870A06920F01000A06179
S315000078600B20FFF7A5FF33494FF40060086007B00F
S31500007870002030BD38B500F01BF804460D4605E083
S315000078804FF6E85000F02AF800F00CF800218D427F
S315000078904FF6E950F4D88442F2D2A0B200F01EF8B6
S315000078A0002032BD24484FF0FF3124184D41704767
S315000078B015491C4A09680023E0FB012310461946B6
S315000078C0194A00230EF0BEBB1C480168C90604D540
S315000078D0102181600120164908707047010081B0AF
S315000078E00BD017490A6892B20B68ADF80030BDF8A4
S315000078F000309B1A9BB28342F6D301B0704700005A
S3150000790080E200E0BCCB02008CF5002000020400FF
S31500007910008001404041050081841E0050000200A5
S3150000792000B0710B20A1070040420F0090F5002027
S3150000793057FF002000E100E01802FFFF0C80014025
S315000079402480014010B5DFF820410120207082B06C
S31500007950002006F0F7FA38B1002006F0F3FA18B165
S3150000796000202070492016BD02237F220021684690
S3150000797000F00BF8BDF80000B0F57F7F03D00020C3
S315000079802070072016BD002016BD10B5FF2908DCA3
S31500007990DFF8D440247844B1BDE81040C9B205F000
S315000079A019BDBDE81040FBF703BC10BD38B5FF2973
S315000079B0044609DC2C48007838B3204601B0BDE8FF
S315000079C03040C9B205F03ABD00257F2A08BF002223
S315000079D012FB03F001F47043C1F30B02B3F5805FB1
S315000079E008BF42F07E6108D001F47041B1F5405FF6
S315000079F005D142F07C6141F40111451804E040F2E2
S31500007A008D111A48F8F792FE256031BD2DE9F04137
S31500007A100446FF2C0D461646984615DC124800789B
S31500007A20C0B1134F387820B14FF4CE710F48F8F734
S31500007A307DFE0120387043462A463146E0B206F004
S31500007A402FF80020387005E042463146BDE8F04187
S31500007A50FBF7D0BBBDE8F08103490978002918BFC0
S31500007A6006F076B97047000054FF002098CB02005C
S31500007A7055FF0020012100F01F029140DFF830255C
S31500007A80400942F82010704770B50546FAF76AFFBC
S31500007A90002600242821DFF81C2501FB06F31344E9
S31500007AA09B7F13B1761C042EF7DB042E08BFDFF88C
S31500007AB0084508D02DB17143114401238B772E6000
S31500007AC001E0DFF8F844FAF7C4FF204670BD10B5B0
S31500007AD00446042C00D324E1FAF744FF2822DFF8F9
S31500007AE0D4146243114400220A778A771CE110B548
S31500007AF0DFF8CC04017809B1002010BD0121017026
S31500007B00DFF8C004DFF8C044FCF7FAFB0321DFF816
S31500007B10BC04FCF767FD032020710121DFF8B004E7
S31500007B20FCF7EEFB20460EF01CFBDFF8A814DFF88E
S31500007B30A84401200EF0FEFAE069C00AC002E06126
S31500007B4040F2FF70A061002020601F20FFF792FF27
S31500007B50DFF888144FF000400860A021E06940F08B
S31500007B600100E061DFF84C0407F0B4FFDFF87014A1
S31500007B7000200870DFF86C140870DFF86C140860D9
S31500007B80DFF868140860DFF86814086010BD2DE996
S31500007B90FE4F0546042D8B46144699464FF00008C5
S31500007BA028BFDFF854040ED2FAF7DCFE0290282133
S31500007BB0DFF8000469434618B07F28B90298FAF73F
S31500007BC048FFDFF8380488E00C9F34B9B9F1000F9C
S31500007BD002D039462846C8477BE0610CE003DFF84F
S31500007BE0F853D5F800A0C6F8189000F078F8C6E962
S31500007BF00201BBF1010F0ED14FF47A726243CDE957
S31500007C0000280246F420A0FB0249DDE90001001B22
S31500007C1030617A207061D6E90201401C61F1FF31C2
S31500007C20C6E900010120307786F81FB03762DFF819
S31500007C30B003007800284CD1DFF8AC73386810F137
S31500007C40010F02D03868401C3860DFF89843DFF82F
S31500007C50B0932078A8B9C9F800A00420A8616FF0F5
S31500007C606402D6E90001414501D8904200D310468E
S31500007C705044E864E86940F00400E861012020709F
S31500007C8022E0386801281FD186F81C8000F0F0F841
S31500007C90AAEB000000F0F3F800F045F9B8F1000F88
S31500007CA004BF01203077504600F04DF9D5F800A00A
S31500007CB0E86C217808F1010831B1D9F80010401AB2
S31500007CC0AAEB01018842E1D3386810B13868401E3A
S31500007CD038600298FAF7BDFE0020BDE8FE8F10F569
S31500007CE07A6041F100014FF4FA5200230EF0AAB96E
S31500007CF010B50446042C00D313E0FAF733FE00F067
S31500007D0009F822B9FAF7A5FEDFF8F00210BD002245
S31500007D100A7709E02822DFF89C12624311448A7F21
S31500007D207047DFF8D40210BDFAF793FE002010BDAD
S31500007D302DE9F0410446042C0E4628BFDFF8B802B0
S31500007D403AD20EB99D4837E0FAF70CFEFFF7E2FF8C
S31500007D5022B9FAF77EFEDFF8A4022DE00A7F22B9E7
S31500007D60FAF777FEDFF89C0226E0D1E900489A4947
S31500007D700F68A3490D68FAF76CFE781B0021884549
S31500007D8004D8844238BF4FF4804010D3221A68EBDF
S31500007D900103DB0043EA5273D2004FF47A74A4FB6A
S31500007DA0020104FB031110F5804041F10001C00BF4
S31500007DB040EA414030600020BDE8F08170B58B4E4E
S31500007DC0002334688448026830688442F9D19818E0
S31500007DD044EB030170BD30B54FF4FA5200F004F8DD
S31500007DE0C00B40EA414030BDA2FB004502FB0155F5
S31500007DF014F5804045F1000170472DE9F047FAF788
S31500007E00B1FD754D8246E869296900EA010626F04A
S31500007E100500A86170071ED5714FDFF8C881DFF82D
S31500007E20E091012038702C6800F022F8201A00F04A
S31500007E3026F800F078F8204600F085F82C68E86C03
S31500007E4098F8001029B1D9F80010401A611A884232
S31500007E50EAD300203870F00705D50120A8616348F1
S31500007E600168491C01605046BDE8F047FAF7F1BDCC
S31500007E70E86920F00400E861D9F8000070472DE9B0
S31500007E80F04300260446002528214A487143471836
S31500007E90387F7D77002841D0D7E900018D4207D889
S31500007EA028BF844204D2001BA941C7E9000135E07E
S31500007EB0F87F08B938772DE0D7E90001D7E9022322
S31500007EC0201AD7E9028965EB01010EF0BBF8B8EB81
S31500007ED0020069EB0301C7E9000138693969012825
S31500007EE0786909DB0818F428786113D3D7E900010B
S31500007EF0401C61F1FF3108E0401AF428786109D38B
S31500007F00D7E90001401E61F10001C7E90001786967
S31500007F10F4387861B86908B101207877761C042EA8
S31500007F20B2DBBDE8F08310B5002428212148614367
S31500007F304218507F18B1116A926920469047641C16
S31500007F40042CF2DB10BDF0B54FF0FF3213460021D2
S31500007F50184C28254D436619367F46B12544D5E988
S31500007F6000679F4203D82EBF964232463B46491CC5
S31500007F700429EEDB00214FF0FF34A34208BFA242E2
S31500007F8012D08B426FF0640401D8A24200D322467D
S31500007F901B49184B08600421196010185863012109
S31500007FA0586840F0040058600E480170F0BD0000AB
S31500007FB080E200E0A8EC0020011000F0041000F0C0
S31500007FC050FF00200025080020E9002005002000C1
S31500007FD0800912002CE900200820044000E100E09E
S31500007FE04EFF00204FFF0020A4F20020A8F2002040
S31500007FF0ACF2002020200440021000F0031000F034
S31500008000A0F20020051000F0002080F311887047D0
S3150000801042480168090C090481603F4801607047C5
S315000080203F4A410952F8212000F01F00C240D20702
S3150000803006D53C4A52F82110C14001F001007047B4
S31500008040002070470000000070B50646072808BFEC
S31500008050032602D0082808BF0226F9F702FE30B12F
S31500008060012E04D1A520F9F7F1FD012400E000243A
S315000080700EF0B8F8002080F31188FDF706FD254DB7
S31500008080761E0020042E286016D8DFE806F0030AC4
S315000080900A0E12002448016821F00401016030BF75
S315000080A00EE0012001F04AFE0AE0012001F053FE35
S315000080B006E001F07CFE03E0AF211C48F8F736FB32
S315000080C01648C1680068084086B22E600A20FFF78D
S315000080D0A7FF18B91220FFF7A3FF10B146F48030AE
S315000080E028601F20FFF79CFF18B1286840F4003075
S315000080F028602220FFF794FF18B1286840F48020FA
S3150000810028600CB1F9F786FDFDF7D8FCBDE8704094
S315000081100EF06AB814F4002018F400201CA40040E5
S3150000812000E200E000E100E010ED00E0F4C702002C
S315000081308AE741780078FFE700EB012080B27047BC
S315000081400170090A4170704710B50023040014BF7E
S315000081501C46C3F10304E4B25B1C0A55120A042B45
S31500008160F4DB10BD30B54A788B78CC78097818B135
S3150000817020461D460C4602E0154608461A4645EAC4
S31500008180002044EA022141EA004030BD2DE9FF47C4
S315000081900024DFF85C5606E0FBF724F90EF0A8F899
S315000081A0FBF752F9641C2978E0B28842F4D3DFF871
S315000081B04446DFF844562078DFF84096DFF84086DC
S315000081C000F040F8002101F0B2FB2278286809216E
S315000081D001F0ADFB002601AF2EE00B23F2B2162113
S315000081E001A8FFF7D2FB787A397A01EB0020D8F89C
S315000081F00010F6B2B24621F81A0081B200291EBF5D
S3150000820080B24FF6FF71884204D0B97A0022304618
S3150000821000F01DF80123324619216846FFF7B5FB29
S315000082202968BDF8000001F80A006FF07F00D9F850
S31500008230001001F80A00761C2178F0B28842CCD3EF
S31500008240BDE8FF874200DFF8BC0500687047DFF82D
S31500008250B4351B6809074CBF0021042141F4805145
S3150000826041F0020123F810100021DFF89C351B684D
S3150000827043F820101102DFF89425126822F8101036
S31500008280704710B5DFF888150C78210008BF012467
S31500008290FBF704FC0146FF290DD0DFF870050268E4
S315000082A032F8113018001ABFA3EB131000EB0410BC
S315000082B0200222F8110010BD70B5DFF84845246889
S315000082C00022002302E024F813505B1CDFF824553B
S315000082D02D78AB4209DA34F813506E07F5D5012232
S315000082E00E0014BF05438543EDE7104670BD00211F
S315000082F000E0491CDFF8FC341B78CAB29A420AD265
S31500008300DFF800251268C9B232F811200240824215
S31500008310EFD101207047002070472DE9FE43064645
S315000083200C461546DFF8D884DFF8C89401E0EFB1B3
S31500008330761C99F80010F0B288421ED2D8F80000D8
S31500008340F6B230F816700B23324600F09EF9002C78
S31500008350EDD0002F1CBF4FF6FF708742E8D00822F1
S315000083606946204601F0EAFA0028E1D19DF80A00A4
S3150000837000F0EF002870304600E0FF20BDE8FE83E5
S3150000838080B56A46FFF7C9FF02BDFEB504460D4635
S3150000839016461F4608223146684601F085FA00F067
S315000083A0B8F98DF80A703946089A2046FFF74FFF4C
S315000083B0FFF749FF30F8141041F4804120F81410FB
S315000083C000F0ADF9DFF8300402680F2111550123E2
S315000083D00068021921461920FFF718FB00F0D2F9B0
S315000083E020F814500022DFF82C0400682C30416875
S315000083F00078201841F8202030460DF0A4FFDFF861
S31500008400FC130968085530460DF09EFF0120FEBD9D
S315000084102DE9FC4F85B080468A4601AA41460020D8
S31500008420FFF77BFF0546FF2D4FF0000BDFF8E463F7
S31500008430DFF8CC7313D09DF804009DF81410884221
S3150000844002BF396831F815108A4508D00EF033FBA3
S3150000845008B900F083F8284600F097F9FF254FF693
S31500008460FF79CA4512D002A9504608F030FAC0B9C1
S315000084700022082102A8FDF777FD90B9082202A97B
S31500008480404601F05BFA60B1CA460AE0FF2D08D00B
S315000084900EF011FB08B900F061F8284600F075F9F6
S315000084A0FF259DF814108907504604D5484552D13A
S315000084B00EF09BFB4FE0FF2D09D040460DF043FF29
S315000084C0CE490968485540460DF03EFF22E0D24CA1
S315000084D0D24922780978914215D0484502D10EF04A
S315000084E084FB824600210020FFF74AFF0546FF2D48
S315000084F009D010989DF814300090424651462846FF
S31500008500FFF743FF08B9484625E02078401C207055
S3150000851009F0D9F99DF81810284600F0BAF8FAF7CC
S31500008520D6FF08F00AFA0146386830F8150001222D
S315000085300EF0D4FC0EF0BFFA40B930682C305FFA6A
S315000085408BF241680078281841F82020FAF77CFF62
S31500008550386830F8150007B0BDE8F08F30682C3069
S3150000856041680078281851F820B07047A549096875
S3150000857000204EF6FF7305E031F810201A4021F86E
S315000085801020401C9B4A12789042F5DB704780B55C
S3150000859001460020FFF7F4FEFF2802D14FF6FF70D8
S315000085A002BDBDE802409749096811F81010890715
S315000085B004D59349096831F8100070474FF6FF70EB
S315000085C07047FEB5954A127890420C4606D28D4EFB
S315000085D03168054611F81510890701D49320FEBDB0
S315000085E000F051F89DF80A7000F048F8B80748BF47
S315000085F0022003D438074CBF03200420207200F069
S31500008600C1F830F8150060817C480068405D6073F1
S31500008610306810F8150000F00100207376480068F5
S31500008620405DA0730020FEBD80B5FBF737FAFF283A
S3150000863008D07449096831F810000006800E00F071
S31500008640010002BD002002BD80B5FBF727FAFF2816
S3150000865001D0012002BD002002BD10B584B00C4639
S31500008660FBF71CFA0246FF2A05D000F00DF800F0D1
S3150000867005F8012000E0002004B010BD082269467C
S31500008680204601F011B902460B2316216846FFF772
S315000086907CB97FB501F001050446280026460FD0B7
S315000086A069462046FFF78DFF50B9FFF7CCFD30F83D
S315000086B016000006800E00F0010168460EF06EFFFF
S315000086C020460FF036FA00953346232247A10320B1
S315000086D0FCF7FFFFFAF7FBFE294620460FF0BDFF29
S315000086E0FAF7B2FE7FBDFEB5454F0446386826460A
S315000086F030F8160088420D460AD00B232246FFF7B3
S31500008700C4FF00F006F800F00AF8386820F81650A2
S31500008710F7BD280A8DF809008DF8085070470B231D
S315000087206A4621461620FFF771B938B5044600F0AF
S3150000873029F8254630F8150018B337480178491E40
S31500008740017009F0C0F800212046FFF7CCFF2D4943
S315000087500968002021F815006FF07F002749096895
S31500008760485500202949096821F81500204600F0DF
S3150000877063F8BDE8384000224FF6FF711120FBF781
S3150000878035B831BD1E4800687047244910B50978D0
S31500008790884204460CD2FFF7F5FF30F8140038B1D2
S315000087A000212046FFF775FF2046BDE81040BCE7D4
S315000087B010BD38B500240F4D04E00021E0B2FFF7EC
S315000087C092FF641C2878E1B28142F6D3124A002156
S315000087D01170FFF737FD01F0AAF828784200BDE8CE
S315000087E038400A480068002101F0A1B84242420020
S315000087F0C0EB0020BBEB0020B8E8002074E80020A6
S3150000880068E800206CE8002070E8002078E8002086
S31500008810C5FA0020DCF8002072FF0020CDEB002016
S31500008820008F8E8C8000000070207047702070478B
S3150000883070207047702070477047704738B544788D
S315000088404568FAF78FF800F09CF85B1BB3F1004F10
S3150000885098BF5550BDE83240FAF7FBB810B500F0A6
S315000088607BF86060042020702046BDE81040E5E7F4
S3150000887038B504460D46FAF78CF8281860600120D2
S3150000888020702046BDE83240D8E710B5044620786F
S3150000889001000CD0042806D0FAF77BF86168421A6A
S315000088A0B2F1004F01D8002010BD081A10BD4FF0DC
S315000088B0FF3010BD70B500F04FF80546FAF752F8D4
S315000088C0064660686FF0004100F02CF84019206001
S315000088D03046BDE87040FAF7BCB8F8B504460D4618
S315000088E01646FAF756F8002156B1FF22327007E015
S315000088F0121AAA4202D2154606B13170491C083432
S3150000890022680AB92846F2BD13781F00F6D0042B58
S3150000891004D05268831AB3F1004FE9D806B131701A
S315000089200020F2BD0022D8E738B500F015F805465C
S315000089300EE001780A000AD0042904D04168691AB9
S31500008940B1F1004F03D804210170616888470834EB
S3150000895020680028EDD131BD0446FAF71AB810B5E3
S31500008960FFF7FAFF00F00DF8C01AB0F1004F07D874
S3150000897054186068FFF7D8FF2046BDE8104099E715
S3150000898010BD0C2111FB04F1354A5358704770B5E0
S31500008990344E3549097804467078884204D3E52177
S315000089A00FF2C800F7F7C2FE7578681C70700C21CC
S315000089B02B4811FB05F1084401214460017200E0D7
S315000089C04D7054F8081B0029FAD1FFF773FF2846AB
S315000089D070BDF8B54FF0FF310C2400916043204D77
S315000089E0204E284400210172307820B30FF080FF1A
S315000089F028B94FF48F710FF27400F7F797FEF9F765
S31500008A00C8FF002105E0009B9A4288BF1A460092E3
S31500008A10491C7378CAB29A4211D2C9B214FB01F347
S31500008A20EA58871AB7F1004F05D92B44121A1B7A58
S31500008A300BB9002AE7D1FFF7E7FA0020F2BD684636
S31500008A40FBF78DFB10B96846F9F7BFFF0120F2BDB1
S31500008A500C23034A58431044012101727047000059
S31500008A6030F2002073FF00200FCF02006576656E9E
S31500008A70742D636F6E74726F6C2E630000207047E6
S31500008A8000B10220704701207047000010B50C4667
S31500008A90FCF728FA2044BDE81040FFF74ABB38B57A
S31500008AA00C461546FCF71EFA29462044BDE834401C
S31500008AB0FFF746BB38B50C461546FCF713FA0555C5
S31500008AC031BD10B50C46FCF70DFA005D10BD80B542
S31500008AD000F01CF800F07DF801D1082002BD062048
S31500008AE002BD38B50446FCF7FDF905462046FFF7FA
S31500008AF0EEFF284432BD80B500F003F800F0010017
S31500008B0002BD0121C2E70A460121C8E780B5FCF78C
S31500008B10E9F9407802BD80B5FFF7F3FF800B02BD8F
S31500008B2080B5FCF7DFF9417841F01001417001BDD5
S31500008B3010B50446FFF7EAFF00F04BF804D06621B3
S31500008B400FF28010F7F7F2FD2046BDE8104006212F
S31500008B509CE738B504460D46FFF7D8FF00F039F814
S31500008B6004D06C210FF25C10F7F7E0FD2A46204690
S31500008B70BDE83840062192E780B5FFF7DAFA0146EC
S31500008B808A0A42EAA2030FF24C1003F00F03C05CFC
S31500008B904B0701D4030001D1FF2002BD490605D4CD
S31500008BA012F003011CBF12F03001801CC0B202BDDE
S31500008BB010B50446FFF7AAFF00F00BF802D14FF4F8
S31500008BC0006010BD06212046FFF760FF00F44060FC
S31500008BD010BD00F00C000428704738B50446FCF7B9
S31500008BE081F905462046FFF791FFFFF7F2FF0CBF1C
S31500008BF006200B20284432BD80B5FFF7EEFF32E099
S31500008C0010B50446FFF782FFFFF7E3FF02D14FF4EA
S31500008C10004010BD06212046FFF738FF00F4404013
S31500008C2010BD70B50446FCF75DF905462046FFF712
S31500008C306DFFFFF7CEFF01D1A81D70BDA81DFFF780
S31500008C409BFF06462046FFF7DBFFB0F5004F0CBF43
S31500008C506FF001006FF00700A9190844801D70BD70
S31500008C6080B5FFF7DEFFBDE80240FFF762BAF8B550
S31500008C7004460D4616460120FCF73FF90746FF2F2E
S31500008C801ED0FAF705FCC4F30D0141EA803189B222
S31500008C903846FFF738FF3846FFF719FF01463846D2
S31500008CA0FCF726F931463846FCF7D5F942F20C00B6
S31500008CB02040042803D129463846FFF74AFF3846A4
S31500008CC0F2BD00007061636B65742D686561646553
S31500008CD0722E63000300070D000000000700090F55
S31500008CE00D000F1538B5DFF8B049DFF8B059002090
S31500008CF0E0602074FF20607601F002FD2870F9F72D
S31500008D00ADFE01206076207C40F002002074281D14
S31500008D10FFF7A4FD002032BD2DE9FE4F81460D462A
S31500008D201446FFF7D4FE8DF80600DFF8747938682C
S31500008D309DF8061010F80900DFF85C89401A8DF8D6
S31500008D4005004846FFF7E2FE00F00C0004280CBFC1
S31500008D50012600264846FCF771F98DF80400FF2825
S31500008D600EBF4FF0000B396811F800B000200290DA
S31500008D708246FF2088F818006F1CDFF82809006873
S31500008D80007B032818BF042802D10FF0C4FD31E090
S31500008D904846FFF7BBFE0C21084218D15CB3484693
S31500008DA0FFF79FFEFFF7C5F982464FF440411AEAE6
S31500008DB0010F07D05FEA8A5004D5DFF8EC080DF002
S31500008DC0C2FA17E0DFF8DC080068C07B12E094B155
S31500008DD04846FFF7EDFEB0F5406F484604D1FFF771
S31500008DE0FCFEFFF7D4FB01E0FFF706FFFAF756FE9D
S31500008DF00DF0ABFA207030001DD04846FFF798FE04
S31500008E0004464FF6FF7048F6410A844218BF48F6FA
S31500008E10610AFAF73BFC0146F81CFFF791F9214677
S31500008E20781DFFF78DF9FAF72CFC0146F81DFFF7C0
S31500008E3087F909370297002000909DF805309DF8C4
S31500008E40062049463846FCF762F99DF80500BBF155
S31500008E50000F074409D0002000905B469DF80410DF
S31500008E6000223846FCF753F95F4476B14846FFF7CF
S31500008E7038FE407880072FD5029868B3391A4A46DB
S31500008E80C9B202F0B6FA074426E0A878697801EB81
S31500008E90002080B2C10901F0010181F001064FF600
S31500008EA07F7101EA000A0AF0070003280CD169461F
S31500008EB048460FF049FD681CFFF75EFE9DF800105E
S31500008EC008182844407805E0DFF8E007007809280C
S31500008ED002D1072088F818004846FAF7E9FE08B1DB
S31500008EE04AF0100A5146681CFFF72AF91AF0070FD4
S31500008EF005D1DFF8A8070178491C017005E0DFF805
S31500008F00A4070068017E491C0176781BE970401CA5
S31500008F102870781B7F2802DBE92100F02FFB304602
S31500008F20BDE8FE8F70B5DFF870670446F0680D4641
S31500008F3008B1002070BDF9F76EFF48B1307C0028FB
S31500008F4004BF307A002803D115B1A047012070BDB7
S31500008F50307CF46040F004003074DFF85407FFF70B
S31500008F607DFC022070BD0121DCE790E038B50446A7
S31500008F70DFF82407007E0D46811F012903D821460C
S31500008F800FF015FF78B92846FFF7C5FDFAF72AFA5C
S31500008F9021462846FAF7B4FE18B92146284602F0BB
S31500008FA077FFFAF751FA2846FCF712F8BDE8314088
S31500008FB0FBF7D7B8DFF8E416002008716BE080B540
S31500008FC000F047FB70B1DFF8D4060079002801BF36
S31500008FD0DFF8C406017C0F22114203D1007A08B9DA
S31500008FE0012002BD002002BDF8B50446DFF8C40624
S31500008FF00078002802BFDFF8A066F06800280D465A
S3150000900026D1DFF8A80600780B2818BF022D1FD13D
S31500009010F9F7A8FC327A082A074617DA012D08BFA5
S31500009020B45404D03146701C00F03EFC3470307AE3
S31500009030401C30723846F9F70CFD2046FBF7BAFFA4
S31500009040DFF86C06FFF70AFC0120F2BDF9F701FD17
S315000090500020F2BD38B50446F9F784FC0546DFF872
S315000090603806017A69B101782170017A4A1E0272C6
S31500009070411CD2B200F018FC2846F9F7EAFC0120A0
S3150000908032BD2846F9F7E5FC002032BD00BFDFF807
S315000090902006FFF7E3BB70B582B0F9F7BCFE0028E7
S315000090A000F09580DFF8F045207C800706D5607ECD
S315000090B0F9F7B7FE207C00F0FD002074207CC00785
S315000090C002D4FAF748FCA0B1207C00F0FE00207420
S315000090D0FAF727FCFAF786F90FF0FFFF8DF8000084
S315000090E0FFF719FDFAF78FFA002850D004202076F2
S315000090F052E06846FFF7AEFF0028DFF8B05553D0C0
S315000091009DF80000FFF702FD012400F00C000C287A
S3150000911024D19DF80000FFF7E4FC06469DF8000008
S315000091200DF101010FF010FC3046FFF725FD9DF80B
S3150000913001100818811D9DF80000C9B2FCF7EFF870
S315000091402978072902D1062808D106E001291CBF83
S315000091500529092902D1072800D100249DF800001D
S31500009160FFF7D4FC00F00C00082804D12878092861
S3150000917014BF032800249DF80000FFF7CCFC054629
S31500009180FAF730F91CB12846FAF73DFA20B99DF8EE
S315000091900000F9F781FD04E09DF800104120FFF77B
S315000091A0E5FEFAF751F973BD28780B2802D110F0C5
S315000091B09FFA60B9207C410707D5E168002200F0DC
S315000091C0FB00E2602074884773BDFAF73BFA73BD73
S315000091D080B5FAF78AFBDFF8C004017C41F0010193
S315000091E00174DFF8CC04BDE80240FFF737BBDFF8B7
S315000091F0A804017C01F0FE01017470472DE9F04FCF
S31500009200DFF89C94A5B0044602A80021C0E900112D
S3150000921002AE2046FBF766FE082305788178407883
S3150000922000EB0127002000902146D9F80000005DE0
S31500009230A0F10802D2B202A8FBF769FF707800F02D
S315000092400F00FAF7CFF8DFF86C040078BFB2A84633
S3150000925020B3DFF86474386800281ED0F078F7F77A
S3150000926009FD4146F7F707FD804696F9026004A816
S31500009270802106F02FFC002000906B1CDBB2002240
S31500009280214604A8FBF743FFFAF721F93B6832466B
S31500009290414604A89847FAF7D7F8A8E007F0070070
S315000092A00228FAD0FF208DF804002046FBF71AFEAC
S315000092B000F1010A5046FFF75FFC8346A5EB0B0061
S315000092C0851E6DB2002DE8D401208DF800006B4696
S315000092D0012221460020FAF740FF9DF800000028F1
S315000092E01DD0B80506D507F00700032818BF17F0EC
S315000092F0070F10D101A9504610F0F8FB002876D1CF
S3150000930007F0070001280BD19DF804000AEB0B01BA
S3150000931003F04CF920B99DF80400FBF759FE66E00E
S315000093209DF80400D9F800100F5CDFF89013096867
S315000093300C54D9F80000005D00F120019DF80400EE
S31500009340C9B2FBF7D5FD9DF80400FFF7DFFB00F07F
S315000093500C0004281CBF5D444FF0000B68B280B2BD
S3150000936000900BF101039DF804009BB2224639469A
S31500009370FCF7C5F8E9199DF80400C9B2FBF788FFA8
S31500009380CF497078097800F00F00884203DB4FF46C
S31500009390257100F0F3F89DF80400FFF7B2FB717831
S315000093A0C0F30D0040EA81319DF8040089B2FFF751
S315000093B0AAFBF078F7F75EFC4146F7F75CFC02463D
S315000093C09DF804000321FFF775FBB2789DF80400B1
S315000093D00421FFF76FFB9DF808209DF80400052186
S315000093E0FFF768FB9DF80440204600F008F8204689
S315000093F0FBF7EEFDFAF728F825B0BDE8F08F2DE96A
S31500009400F8430446FF2C03D140F2BD2100F0B6F824
S3150000941000F0B9F800F0B6F800F00C0008284DD0BE
S3150000942005F00C000C287CD12046FFF75AFB0646B7
S31500009430FEF77FFE6946804620460FF085FA002833
S3150000944008F44C453FD02046FFF741FB074630461F
S31500009450FFF792FB9DF80010C0190918C9B2204603
S31500009460FBF75DFF07464FF4406018EA000F4FF622
S31500009470FF7906D0F01CFEF75CFE484508BF45F0B4
S31500009480400508F44060B0F5006F06D1701DFEF788
S3150000949050FE484508BF45F010059DF8000000281D
S315000094A018BF072F68D1012F4CF6500028D0022F85
S315000094B029D0042F08D0062F31D0072F31D0082FFE
S315000094C028D07C2F22D057E0B5F5484F18BFB5F508
S315000094D0084F05D0B5F54C4F18BFB5F50C4F4BD11D
S315000094E02046FAF76BFBE0B1280403D52046FFF7C8
S315000094F0B7FB8146002249460220FAF777F93BE09E
S31500009500B5F5484F0DD0B5F54C4F06E0B5F54C4FC7
S3150000951007D001E04CF64040854202D02CE085425F
S315000095202AD12046FFF7EDFA00F02CF800F00C00E7
S31500009530082816D0A80614D54FF6DF7000EA0501F4
S315000095402046FFF7E0FA2046FFF7C1FA0546204617
S31500009550FFF7C7FAFFF710FB4119C9B22046FBF720
S3150000956097FE21465748FBF7FEFF2046FBF722FDF4
S3150000957055480078FFF76CFABDE8F1830FF28010CA
S31500009580F7F7D4B805462046FFF7C0BA38B50C46FB
S31500009590024600210820FFF76AFB0546FF2D01D190
S315000095A0012032BD2146FFF71FFD04462846FBF782
S315000095B00FFD84F0010032BD0121E7E7364A536909
S315000095C00BB17020704750610846F9F784BB38B577
S315000095D0314C65691DB940F27E31FFF7CFFF00209F
S315000095E06061A84731BD2C494A69824203D10020F7
S315000095F04861F9F77BBB70474FF6FF71884200D18F
S31500009600704780B501463148FFF7D8FF38B1BDE84D
S3150000961004404FF464710FF2E800F7F787B801BD14
S3150000962010B51D4C627E90420FD06076F9F7F3FBC1
S3150000963020B1607EBDE81040F9F7F3BB207C40F016
S3150000964002002074BDE8104021E510BD1248407E9E
S31500009650704780B5154800780B2801D0002002BD60
S31500009660F9F7D9FB00B1012002BD80B5FFF7F1FF84
S3150000967030B1F7F76BF918B1BDE80140FAF772BDE2
S3150000968001BD80B5FFF7F1FFBDE804404FF4A051DE
S315000096900F48FFF7EDB8000028FA002064FA002012
S315000096A058E80020DCF80020B0F70020E2EB0020AC
S315000096B068FA002056ED002060FA002060E80020DD
S315000096C0C0EB002054EB002061FF0020C18C01009C
S315000096D070FA002010B5F9F737FE0446F9F7F9F8E5
S315000096E060B104F44030B0F5403F01D1022010BD16
S315000096F0B0F5003F01D1012010BD002010BD0000D3
S3150000970075707065722D6D61632E630038B51C48E7
S315000097101C4D0088ADF8000001211B48FAF7F0FD4A
S3150000972001211A48FAF7ECFD00241DF8040005EBA8
S31500009730C00115F8300049680023042204F053FDE7
S31500009740641C022CF1D331BD10B500F00DF802F106
S31500009750C06204E010B500F007F802F18062012350
S3150000976003FA00F0106010BD0649094A11F83030BE
S315000097703024634301EBC0001A440C324068704742
S31500009780CECB020008C602004041050000350800A5
S3150000979000A0004000281CBF0020FFF7D5BFD9E776
S315000097A010B53A4A014652F821301C0005D0002473
S315000097B042F82140BDE81040184710BD0020EFE7F1
S315000097C02DE9F84304460E463000154603D110F045
S315000097D04BFA281831E02746022F0FF2BC0802DBAD
S315000097E04B2100F050F8DFF8A49059F8270010B18B
S315000097F04C2100F048F8B5F1004F02D34D2100F09E
S3150000980042F849F82760200002D0502100F03BF8CA
S315000098101F4E204B306801222946F8F7D4FC38B198
S3150000982010F022FA05462046FFF7BAFF681E04E04C
S315000098303068BDE8F243F8F7D1BCBDE8F2832DE904
S31500009840F04105462F46022F0E460FF24C0802DB6A
S315000098505D2100F018F8F9F785F804460B4850F832
S315000098602710B1420AD1002140F8271015B1642112
S3150000987000F009F806480068F8F7B4FC2046BDE891
S31500009880F041F9F7E6B84046F6F750BF60FC002015
S3150000989068ED0020BD97000073796D626F6C2D74C2
S315000098A0696D65722E630000814233D21044114403
S315000098B0401E491E10E011F8013900F80139121F47
S315000098C011F8013900F8013911F8013900F80139A8
S315000098D011F8013900F8013992B2042AEBDA93B291
S315000098E0002B1EBF11F8013900F80139521EF6D1BE
S315000098F0704711F8013B00F8013B121F11F8013BBC
S3150000990000F8013B11F8013B00F8013B11F8013B5F
S3150000991000F8013B92B2042AEBDA93B2002B1EBF89
S3150000992011F8013B00F8013B521EF6D170471300B7
S3150000993003D00A46194610F099B9704710B500E0F1
S31500009940521E93B223B100F012F8F9D0181B10BDC5
S31500009950002010BD10B500E0521E93B22BB100F0EE
S3150000996006F8F9D0181B40B210BD002010BD10F843
S31500009970013B11F8014BA3427047000010B5224885
S315000099800FC88AB006AC84E80F0006A800F031FBC9
S3150000999001A81E491422F8F773FD69466846F8F7D0
S315000099A0C4FF18B1BDF80000ADF80A0001A8FAF727
S315000099B077FF00F037F8164804F07BFB00F032F82A
S315000099C004211120FAF70EFE002200210320FAF7E7
S315000099D0CBFF03210F48FAF705FE03210E48FAF7DD
S315000099E001FE03210D48FAF7FDFDFFF78FFE01A8E2
S315000099F00B491422F8F744FD01A80CF0F7F9F8F723
S31500009A0009F900200AB010BDE4C50200D0C5020065
S31500009A1000F0490202001A0003001C0005002000A5
S31500009A20F4C50200012201210220FAF79DBF0000C1
S31500009A30012100F01F029140664A400942F82010B9
S31500009A40704700BF38B5644CE068216808400BD504
S31500009A50624800680568290003D000F016F8002166
S31500009A60A8474FF000400CE040000BD55C4800686A
S31500009A700568290003D000F008F80121A8474FF037
S31500009A808040A060BDE831400CE00021C0E9001133
S31500009A9093E055484FF040410160416821F0404154
S31500009AA041607047F0B54E49504B0A68002053F8A4
S31500009AB0304044B1156803EBC0041DB11579267911
S31500009AC0B54200D22246401C0528F0DB0A6011464A
S31500009AD047480A685AB10268120A1202026002680E
S31500009AE0097911430160416941F0804102E0416911
S31500009AF021F08041394A3F4C41610021136854F8F6
S31500009B00315045B11E6804EBC1051EB12E791F798F
S31500009B10BE4200D22B46491C0529F0DB13601A68A9
S31500009B2062B1026822F47F4202600268197942EA51
S31500009B3001210160416941F0004102E0416921F0E3
S31500009B4000414161F0BD80B52B490120087000F04D
S31500009B5030F800F02AF822492848224B08601F49AD
S31500009B60086027480168406DC1F3074100F0FF0017
S31500009B70FF2912BFFF281921902001EB810200EB7B
S31500009B80D2021A60C0000522B0FBF2F040181D494F
S31500009B900860FFF77EFF0020FFF74AFF1A49012001
S31500009BA00860FFF77FFF002002BD2821114805F05D
S31500009BB091BF28210D4805F08DBF14481149006852
S31500009BC009680006400D052290FBF2F0081A00F322
S31500009BD00700704780E200E024300E4070F5002058
S31500009BE06CF5002074F500202C300E4014F5002092
S31500009BF01C300E403CF5002053FF002064F5002089
S31500009C00B081E00F78F5002000E100E020300E4042
S31500009C10890001EB401000F1844002607047890022
S31500009C2001EB401000F18440006870472DE9F843CD
S31500009C30DFF8D846DFF8D866DFF8D856DFF8D886DA
S31500009C40DFF8D87680B9206B38601120FAF770FCFF
S31500009C5088F8000000F042F80028FBD12868000CC4
S31500009C6000F00300307037E031781020C1F10201B6
S31500009C708840DFF8AC66E86045F60E00D6F800903E
S31500009C80306000203968CA0748BF0120CA0648BFAD
S31500009C9040F010004A0648BF40F040004A0748BF5F
S31500009CA040F00400C90548BF40F48070206000F011
S31500009CB015F80028FBD198F8001005291CBF1120C3
S31500009CC0FAF790FC3878C0075CBF022020605FEA94
S31500009CD0C97044BF00203060BDE8F18312212846D8
S31500009CE09DE738B5DFF83C0601684068090A000CB4
S31500009CF001F0030400F003051221DFF81806FFF750
S31500009D008EFF0028F8D1A54217D2022C15D11120BA
S31500009D10FAF7F0FA04461120FAF722FB6043DFF85F
S31500009D200816884224BFDFF80406FAF765FDBDE889
S31500009D30344005211120FAF755BC31BD10B5040099
S31500009D401CBF0020FFF772FFFFF7CBFF00F01FF8E4
S31500009D5004B124E027E010B504001CBF0020FFF783
S31500009D6065FFFFF7BEFFDFF8B805DFF8A03501682D
S31500009D7045F60E020260C9074FF420721A6044BF0E
S31500009D800021016000F003F804B108E00BE0DFF801
S31500009D90A005016841F00401016030BF7047012051
S31500009DA0BDE8104042E7BDE8104004F055B9DFF8C1
S31500009DB08405016902694AF6E853036021F44031DB
S31500009DC041F4003142F44032042301615B1E02611A
S31500009DD0FBD10161704738B50C46DFF85C150D689C
S31500009DE028B904F048F9C5F30421491C4843DFF8B3
S31500009DF04C15097831B1DFF84815884202D2214660
S31500009E00022001E021460020BDE83440F8B50446B2
S31500009E10DFF82405DFF8FC7400680D4604F02BF922
S31500009E20064612213846FFF7FAFE0028F9D13868AF
S31500009E30000C00F00300A042214615D0022C04BFFE
S31500009E403046FAF7F6F91020C4F102018840F860AE
S31500009E501CB900213046FAF7ECF92DB1122138462B
S31500009E60FFF7DDFE0028F9D1F1BD70B5DFF8B414B7
S31500009E708A690378920903B10423447804B1022461
S31500009E80857805B10825C678012E18BF002643EA55
S31500009E90821222432A43037932431A438A610A68AB
S31500009EA0407922F4403242EA0040086070BD00006A
S31500009EB0DFF890040068032920D8DFE801F00205E6
S31500009EC0080B00F0FF0006E0C0F3072003E0C0F334
S31500009ED0074000E0000E1300DFF86C1408D1000301
S31500009EE030F470430AD10B6823F4704303430B60CC
S31500009EF0012A0AD1000330F4704201D000207047D5
S31500009F004A6F22F47042104348670120704770B5CB
S31500009F100025002452EA0322DFF8306416D0521ED0
S31500009F200CD0FF3A14D0521E0AD0FF3A12D0521E5D
S31500009F3008D0FF3A14D0521E06D015E0B2680AE0E7
S31500009F40B2680EE0F26806E0F2680AE0326802E003
S31500009F50326806E07268C2F3072402F0FF0503E0E8
S31500009F607268140EC2F3074505600C6070BDF8B543
S31500009F700446DFF8DC53686AC007FCD4DFF8D46314
S31500009F80F06910F0030704D001220D212846FFF7DF
S31500009F903FFEA74202D12CBB00221EE0032F18BFB2
S31500009FA0002F0FD1022C18BF012C0BD14FF400202B
S31500009FB0B06000F018F8800040F00100F0613068F1
S31500009FC00003FCD500F00FF844EA8000F061686AEF
S31500009FD0C007FCD4220018BF01222846BDE8F8407D
S31500009FE00D2115E6F1BD686AC007FCD4F06980084A
S31500009FF0704770B50446E0884B2838BF00200DD363
S3150000A000B0F5FA7F38BF4FF0805007D340F6C41141
S3150000A010884234BF4FF000504FF04050DFF83C53B9
S3150000A020DFF83C332969B4F90C20DFF838631940AE
S3150000A030D243084340EAD2702861DFF82C03016856
S3150000A04041F4407101600021306A40F08070306256
S3150000A0503046FFF7E4FD00B1042000F046F9208900
S3150000A060DFF808130880A089DFF804130880A088A9
S3150000A070DFF8E412088000F0D0F8A07B20B10128B8
S3150000A08005D1DFF8F00201E0DFF8EC02F06060884D
S3150000A0900122012100F013F880B1286840F48060A5
S3150000A0A028606078FFF763FFA07A20280CBF0122A2
S3150000A0B0002205212846FFF7ABFD012070BD2DE9E2
S3150000A0C0F04F89B004468846934605A80021002231
S3150000A0D000230EC002A80EC0A4F5E160B0F5966F8D
S3150000A0E000F28880B4F5E16FDFF890024FF4966ACB
S3150000A0F002AF05AD0BD94FF4E16101914FF00109B3
S3150000A1000068A860010EB960C0F307400BE08946FD
S3150000A110CDF804A04FF4167A0068A860C0F30721B2
S3150000A120B96000F0FF00A8604A46DFF83862306880
S3150000A130000F00F003008DF80100034602A905A8F0
S3150000A140FFF7E5FEDFF820020068000A00F00300D2
S3150000A1508DF8000003464A4603A906A8FFF7D7FE76
S3150000A160019AA868B9686D68D7F804E0DDF814C0EC
S3150000A170A31A0A1AAEEB05075A43029CB2FBFAF27F
S3150000A1808218A4EB0C045C437B43B3FBFAF3EF1891
S3150000A1909142B4FBFAF428BF824264442AD3BE45F6
S3150000A1A028BFAF4226D30298A04224BF0598844216
S3150000A1B020D3BBF1000F0CD030694946B9F1000F2E
S3150000A1C018BF0221DFF8B831184040EA02200843E0
S3150000A1D03061B8F1000F1CD09DF8011000224846EE
S3150000A1E0FFF766FE30B19DF8001001224846FFF7E2
S3150000A1F05FFE08B900200DE0A74228BF3C46E72CC9
S3150000A200B06928BFE724400A49EA440141EA4020F0
S3150000A210B061012009B0BDE8F08F10B5DFF8441138
S3150000A2204B6A0C68E4074FF0FF3203F0070325D5AD
S3150000A230022B23D3142828D31438142832D30F2200
S3150000A240086820F47F4040EA022040EA02300860B5
S3150000A250464A08681288C0F3032002F12803401C0E
S3150000A26002EB5302283200EB8003B2FBF3F2521EDC
S3150000A270072A34BF12064FF0E06215E00C68E407C7
S3150000A28009D4022B07D20A2801D20322D8E70A38BA
S3150000A2900A2807D3D3E70C68E407D1D5022BCFD21F
S3150000A2A02828CCD20722CBE70B6823F0EE631A43AB
S3150000A2B042F480120A602E4AB2F90020002A13D412
S3150000A2C092B202F1280302EB53024308283203EB51
S3150000A2D04000B2FBF0F04A68072834BF0001702046
S3150000A2E022F070021043486010BD38B504461D4D7B
S3150000A2F00021FFF7F4FC686AC00844EAC0006862FF
S3150000A300BDE832401448008887E7000060400E40F0
S3150000A31042FF002004300E4041FF00202CF20020B6
S3150000A32080410E4000300E40012D3101C0EA21016E
S3150000A33010ED00E008300E4000410E4028F20020EB
S3150000A340002D31013083E00F6C300E401C83E00F8E
S3150000A35054300E4024300E4002F900203C300E40AE
S3150000A360FEFFFFCF4C300E40E0300E40E6F60020F8
S3150000A3701CFF0020372110B7774020571883E00FC5
S3150000A380FD80FFFF0549027B0A7002684A60426849
S3150000A3908A608068C8600020704700BF90F800207F
S3150000A3A0704770477047704738B5FAF738FC04466F
S3150000A3B0FAF731FC0020002124FA01F2D20712D567
S3150000A3C01D481E4C30F8110006284CF23C324FF264
S3150000A3D00F031ED16088984217D12188080A0C28DD
S3150000A3E013DA084613E0491C89B21129E4D314494B
S3150000A3F00880088840F20171884205D11148D0E9E9
S3150000A40000231148C0E9002331BD4FF4C0606280CB
S3150000A410EDE740F20725A84201BF618899422188ED
S3150000A420A942E4D162800846E1E705480088000AAF
S3150000A43070470348008870478CC402000000002063
S3150000A440AEF600209400002060F000200120704746
S3150000A450802109F0DEB980B50FF28811F8F747F8C8
S3150000A460002002BD10B504460FF27010008886B0B9
S3150000A4700023ADF80C00002203A802900021022060
S3150000A48001900020009000F01DF8010009D103A8FA
S3150000A490029000230420019000220220009000F088
S3150000A4A010F801000BD104A80021C0E900110290A8
S3150000A4B00091082001900023012200F002F806B066
S3150000A4C010BD0121204609F0BDB900B585B000F0E8
S3150000A4D012F8022101910021009108E000B585B033
S3150000A4E000F009F80421019102210091012109F0EF
S3150000A4F0A9F905B000BD531C8DF80C10DBB2090498
S3150000A500090E8DF80D10002203A902917047E0B5DF
S3150000A5100291531C08210191DBB200210091012216
S3150000A520012109F08FF90EBD80B5C9B2002914BF0B
S3150000A5304FF4803200224FF4803108E080B5C9B272
S3150000A540002914BF4FF0807200224FF0807109F08D
S3150000A55045F9002002BD1206C9B2120A42EA01619B
S3150000A5601B06DA0902F4F01280B5114341F0B0027D
S3150000A5700F49ECE710B5FFF769FF0224A8B10D48B3
S3150000A5800068000E00F00F0002281CBF03280728F1
S3150000A5900BD10948094904600968890302D41021CE
S3150000A5A081600024064902200860204610BD000094
S3150000A5B0B8011F010440084088400846884008400A
S3150000A5C08840084480B50FF2180109788DF800100C
S3150000A5D001226946FCF75EFC02BD0000FFFF000099
S3150000A5E005000000D8CC0200D0CE020030CC02001C
S3150000A5F001000000DFF800F0E5E60020DFF800F0DB
S3150000A6006FE60020DFF800F0E1E6002038B50446EA
S3150000A6100D460FF05FFB012C02D1FFF7EBFF02E0C6
S3150000A6202846FFF7EBFF18B10FF060FB012032BDA3
S3150000A6300FF05CFB002032BD10B5C20782B01BD400
S3150000A64002884FF6FF739A4201D00A0014D184089B
S3150000A650A400800722684EBFC2EA0140100C41EAFE
S3150000A660004000900FF036FB042269462046FFF7B3
S3150000A670C9FF18B10FF03AFB012016BD0FF036FBEB
S3150000A680002016BD70B504460D46164604E00FF0D0
S3150000A6902DFB241D2D1DB61EB6B1012E01D0A0071F
S3150000A6A006D535F8021B2046FFF7C6FFA41C761E0A
S3150000A6B0022EF1D30FF00EFB042229462046FFF7A7
S3150000A6C0A1FF0028E3D001E0002070BD0FF00EFBD3
S3150000A6D0012070BD01468AB20AB94BF6EF610F4AF6
S3150000A6E01180000C0E4908BF4FF6CE200880704737
S3150000A6F00288130448BF4A40510001801046704743
S3150000A70010B562210548FFF7F3FF044641F20B013D
S3150000A7100348FFF7EDFF604010BD000098EB0020F6
S3150000A7209AEB002038B504460029104601461A4621
S3150000A730204602D00FF02FFB01E00FF0FDFA054690
S3150000A740002C1EBF04980028A04203D021461422E4
S3150000A750F7F796FE284632BD0246022000291CBFA6
S3150000A76010460FF075BB70470246022000291CBF39
S3150000A77010460FF000BC70471CB504460020ADF82B
S3150000A78000002078F8B902202072A0780A280AD0A2
S3150000A790102810D101A80FF0D6FD6070BDF8040096
S3150000A7A0ADF8000004E00020607068460FF09EFEE1
S3150000A7B00120207001E0207828B1BDF8001004F1D6
S3150000A7C00900FDF7BDFC13BD38B504462078002806
S3150000A7D004BFA078102812D104F109010120FDF769
S3150000A7E0C1FC054604F10D00FDF7A3FCADF8000021
S3150000A7F0694628460FF07CFD60700120207031BD4F
S3150000A80076490978027856290CBF012100212ABB16
S3150000A8108270012202704278130006D1704A09B193
S3150000A820117811E0C07810707047052A05D16D4A7D
S3150000A83061B1117841F0500106E0062A0CD16A4A4E
S3150000A84021B1117841F06001C1707047C17801F003
S3150000A8500F01C1701170704700210170704710B56B
S3150000A86004462078B8B900F045F806D01E2807D06F
S3150000A870242807D0362808D00BE0FBF7CDFA06E0EF
S3150000A8805A4800E05A48007801E05A480088A080FB
S3150000A89010BD0020207010BD10B50446207840BBC6
S3150000A8A000F028F806D01E280AD0242812D0362810
S3150000A8B019D01CE0A088BDE81040C0B2FBF7B0BAC2
S3150000A8C04D48A188007888420AD3C9B2474810F09B
S3150000A8D047FC06E0A1880B2902DA4548017010BD45
S3150000A8E03620A07010BDA0884249088010BD002007
S3150000A8F0207010BD012020700020A07060780D2807
S3150000A900704700002DE9F04F1646012E89B08046AB
S3150000A91089469A4612D10124002506A80FF0F0FDBB
S3150000A920022755EA0401DFF8B8B005D058B9BDF8DA
S3150000A9301800800707D535B1032715E00024032E3C
S3150000A940EAD10125E9E79BF8000005280AD8DFE8E7
S3150000A95000F0030605090841012705E085B1002737
S3150000A96002E02746022F0BD005F0E7FF824507D00D
S3150000A9705146404610F021FE4946404610F05CFE26
S3150000A980019753469BF800000090324649464046E0
S3150000A990F9F794FB044624208DF8080041460DF192
S3150000A9A00900FDF7CDFB082249460DF10B00FEF725
S3150000A9B07BFF8DF813608DF8144051460DF115009C
S3150000A9C0FDF7BEFB0F2102A800F085F8204609B06E
S3150000A9D0BDE8F08F002DC2D0AEE7000069FF002071
S3150000A9E0D9EB002047FF0020CBEB0020CAEB00206C
S3150000A9F04BFF002092EB00200DCF020080B56E21A8
S3150000AA008DF800108DF801000221684600F063F809
S3150000AA1001BD10B584B00C469B218DF800100822AC
S3150000AA2001460DF10100FEF73FFF8DF809400A21AE
S3150000AA30684600F050F81FBD70B50446A148A24E06
S3150000AA40006882B0055D00F027F88DF800003088B8
S3150000AA50411E89B26846FAF756FC9C499DF80020CB
S3150000AA6009688C542900318808BF20251F31081A2F
S3150000AA704019308073BD38B5934D0446288809B116
S3150000AA80A04207D2014600F007F82246FAF7BCFBBF
S3150000AA9008B12C80012032BD8D480078704710B572
S3150000AAA08B49097882B08DF8001001466846FAF79E
S3150000AAB02AFC04469DF80000FAF714FA204416BD55
S3150000AAC080B5FFF7ECFF007802BD10B50C46FFF726
S3150000AAD0E6FF047010BD80B5002200920023FF221D
S3150000AAE000F001F802BD2DE9FC4509B4FFF7D4FFDB
S3150000AAF083B088468DF805001646F8F712FD8246A3
S3150000AB00744800780025824504DB88210FF24C202A
S3150000AB10F5F70CFE0398414610F0E0FD002800F022
S3150000AB209C80FF2E05D03046FAF744FA6548006847
S3150000AB30855D694C2078FF2812D0FAF77FFAFF2846
S3150000AB4018BFFAF745FA6549207809680A5C02F0E9
S3150000AB507F020A542078FAF72DFA2078FFF76CFF67
S3150000AB605F4F78880E9C40440019401D012180B239
S3150000AB70FFF781FF40B901203870FF2E1CBF304619
S3150000AB80FAF726FA002069E005EB08002018011DF7
S3150000AB907888C9B2FFF799FF524801787888401C37
S3150000ABA000F05FF84FEA4A1040F080017888801C78
S3150000ABB0C9B200F056F87888C01CFF2100F051F8A1
S3150000ABC07888001D002100F04CF87888411D89B274
S3150000ABD00DF10500FAF797FB024601200090434667
S3150000ABE09DF805100398FAF7AFFAFF2E0DD0304600
S3150000ABF0FFF722FF788800954044411DFFF74CFF80
S3150000AC000023324689B2FAF77AFC200014D0FFF707
S3150000AC1043FF8DF80400788828184044411D89B206
S3150000AC2001A8FAF770FB0121009102469DF8041075
S3150000AC3004982346FAF788FA05EB0801788809197B
S3150000AC40491D08187880012010F099FD26480178E2
S3150000AC50012912BF022900210170012007B0BDE8B9
S3150000AC60F08580B231E738B50D00044606D0AD1F39
S3150000AC70A8B2FFF714FF0078401C45191849498807
S3150000AC80A8B2884209D2681D80B2FFF708FF007893
S3150000AC90A042EDD1A81D80B232BD4FF6FF7032BD85
S3150000ACA010B582B0044619208DF800008DF80140D9
S3150000ACB002216846FFF70FFF902C02D10B490220B4
S3150000ACC0087013BD58E8002036FF002060E8002019
S3150000ACD0FBEB0020C0EB0020EAEB00205CE8002044
S3150000ACE038FF002066FF00206CFF002067FF002071
S3150000ACF080B548228DF801008DF802108DF80020ED
S3150000AD0020E010B582B00C46D22100F020F88DF874
S3150000AD10034004216846FFF7DEFE13BD80B5F2212D
S3150000AD208DF800108DF8010002210CE00249096837
S3150000AD30497B022902D07047DCF8002080B50D213E
S3150000AD4000F005F803216846FFF7C5FE01BD8DF842
S3150000AD50001001460DF10100FDF7F2B9737461634D
S3150000AD606B2D63616C6C6261636B732E6300000014
S3150000AD702DE9F6410546DDE9000101462846F9F7C9
S3150000AD809BF92846FBF724F807462846FBF72EF8DA
S3150000AD9000213A469DF80040024203D187F00102A5
S3150000ADA0104301D1019801782E464FF6FF780FB374
S3150000ADB0212E1FDA422002294A4A0ADA10FB01F044
S3150000ADC0104430F81610414514D0491C20F81610CE
S3150000ADD010E00FD1002102EB460300FB01F733F828
S3150000ADE007E0C6451CBF0EF1010E23F807E0491C1B
S3150000ADF00229F2DB3C4B3D4933F8160031F8167058
S3150000AE0087429241D243D20F47451CBF7F1C21F88F
S3150000AE101670092E9F8A18BF0B2E07D18B8A04EB5A
S3150000AE20030EBE4510DAE3188B820EE01D2E0CD100
S3150000AE30B1F83AE05B8FA6449E4505DA31F8163044
S3150000AE40E31821F8163000E08F8231F8161081429F
S3150000AE5003D312B92846FFF761FF00270FF2A400BB
S3150000AE60C15DA94204D07F1CFFB2112FF8DB20E0A0
S3150000AE70112F1EDAF8F755FB05461D480078854266
S3150000AE8004DBD7210FF27000F5F750FC2221194898
S3150000AE9011FB05F1084430F8171041451CBF491C49
S3150000AEA020F81710092E18BF0B2E02D1818A091916
S3150000AEB08182BDE8F38180B5502200210B48FEF760
S3150000AEC036FDBDE80840442200210A48FEF72FBDA2
S3150000AED05022FF210448FEF72ABD034A22F810102B
S3150000AEE070470000D4FB002040FB0020F0FA002051
S3150000AEF0C0EB002090FB0020636F756E7465727363
S3150000AF002E630000000102030405060708090A0B68
S3150000AF10151618191A000000D2B2203A22BF00FAFC
S3150000AF2002F1002070475242D041D2F120029140F6
S3150000AF304140D040904041407047000038B5DFF8AE
S3150000AF406818DFF86858002008700024DFF86018D9
S3150000AF5008700CF09FFB10F013FD10F016FE10F0B9
S3150000AF60AFFEFDF713F910F0E3FF11F006F811F04C
S3150000AF700BFE08E0F8F736FA0BF007FA11F0BCFF03
S3150000AF80F8F762FA641C2978E0B28842F2D3BDE889
S3150000AF90314012F07FBA80B5F8F7BBFBFF2807D126
S3150000AFA00CF078FB10F0ECFCFDF7F0F810F0C0FFA9
S3150000AFB00BF0EBF911F0A0FFBDE8014012F06ABA00
S3150000AFC0DFF8F0070068407B11281CBF43284128A2
S3150000AFD001D1012070470020704710B50446FDF7E7
S3150000AFE080FD801CFDF7A5F801F070FA204602DB13
S3150000AFF0BDE8104026E000F082F8401E8041C00FF8
S3150000B00010BD30B585B0044612F023FE0FF22C02B7
S3150000B01003A9D2E90035C1E9003500210091421C9F
S3150000B020052300F0F5FE052201A903A8FEF792FC10
S3150000B030401E8041C00F05B030BD00000013000067
S3150000B040000000002DE9F041044610F051FC0028F4
S3150000B0503BD100F055F918BF04294FF6FF7505D10D
S3150000B0604188A94231D02046FDF773FDDFF8480735
S3150000B07002880221204610F013FD30B32046FDF76A
S3150000B08030FD0646F77905F058FC8046301DFDF781
S3150000B09050F84246394610F03DFC20B9F7210FF230
S3150000B0A05420F5F743FBB01CFDF743F8A84204BF54
S3150000B0B020460EF0D9FA30780321084203D1012147
S3150000B0C0204601F0B9FA012000E00020BDE8F08139
S3150000B0D038B50446DFF8800C0068005D851AEDB2CD
S3150000B0E0681A80B200908B189BB222462046FAF767
S3150000B0F006FA29462046BDE83440FAF7C9B82DE9D4
S3150000B100FE4F002582460195FDF7EBFC0646301DF5
S3150000B110FDF70FF80746B01CFDF70BF880463078B0
S3150000B12000F0C00002903846F8F7B8FC8DF802002F
S3150000B130FF2814BF4FF00109A946307803210842C1
S3150000B14008D105F0FAFB874202D05FEA090402D073
S3150000B150012400E00024B079002879D005F0EDFB49
S3150000B160C346834510D105F0E8FB83460020DFF88F
S3150000B170481609884218D2B25946504600F0F7F8E8
S3150000B180002865D00020B3E000F0BAF802D1B0F88C
S3150000B19002B0EBE70429FAD04046FDF755FA20B98C
S3150000B1A05046FDF7AEFC400513D570784007DDD557
S3150000B1B0504612F06FFC00F0A9F8401C4200D2B2D3
S3150000B1C029465046FFF784FF707800F0FB00707048
S3150000B1D0CCE7707840071BD5504612F05BFC00F0B8
S3150000B1E095F806466F1CF9B200F00FFA002E18BF4C
S3150000B1F0FF2805D10022F9B25046FAF795F8B5E7CF
S3150000B20005EB4000811CC9B25046FAF743F9ACE79A
S3150000B21001AA694640460CF0F9FB834604B302983E
S3150000B220802804D040281BD19DF80000C0B130789A
S3150000B23000F03F0030703846FDF706FA10B905F009
S3150000B2407CFB07463A460021404612F0B9FE00282C
S3150000B2504DD0C8220721504610F0C2FD012047E01C
S3150000B2600198B8B30CF023FB8DF801000198007922
S3150000B27000F0300002909DF80100FF2805D14FF440
S3150000B280AF710FF27000F5F751FA1CB3029810284F
S3150000B29011D020281ED1B9F1000F07D09DF8021059
S3150000B2A09DF801000CF073FC28B113E001980079B9
S3150000B2B00C2108420ED0F3795A464146384613F01F
S3150000B2C003FA01980079019900F0F30040F00400B8
S3150000B2D0087101259DF8000028B1012140460BF0B8
S3150000B2E007FB20B1C346002D89D030203FE702205E
S3150000B2F0BDE8FE8F6E6574776F726B2E630000007B
S3150000B300DFF8580C0068017B03297047054629467B
S3150000B3105046FAF704B8010018BF022801D00220EF
S3150000B3207047DFF83C1C08700020704738B50446AB
S3150000B33001F0C4F818BF04280D4601D1012032BD22
S3150000B3404FF6F9718C421CBF4FF6F8718C4201D052
S3150000B350702032BD05F0F1FA02462946204612F069
S3150000B3602FFE00F0010080F0010032BD0022F8B58A
S3150000B37004460D461646FDF7B4FB2946007801F053
S3150000B38091F80CBF012700272046FDF7E2FB05F0E8
S3150000B390D4FA854215D02846FDF746F940B9DFF8BC
S3150000B3A0C40B017832462046BDE8F84010F078BB61
S3150000B3B06FB905F0C2FA00232246294613F0F7FDBD
S3150000B3C028B10121204601F037F90120F2BD2046BF
S3150000B3D0FDF797FB400505D52046BDE8F440002162
S3150000B3E004F07EBB2046F8F787FB401E8041C00F65
S3150000B3F0F2BD2DE9F041044616468846304612F065
S3150000B40028FC07463046FDF762FB3E1AF6B2A7193E
S3150000B410A8EB060292B2394607F10E00FEF744FA8F
S3150000B4202820A055DFF88C53286890F82000787300
S3150000B43011F070FD0246791C0120FCF785FE0822FA
S3150000B440DFF8241B781DFEF72FFA286890F82000F5
S3150000B4500FF0C7FD08F10E0133460022C9B220469F
S3150000B46011F07EFF1220BDE8F0812DE9F04F85B086
S3150000B47082460D4612F0EDFB064601A8102104F0A7
S3150000B48029FB5046FDF754FB83465046FDF71FFB4C
S3150000B490074606F10E0189B2504612F013FB00284A
S3150000B4A053D0002000900E233246514601A8F9F7EA
S3150000B4B02EFE0DF105010120FCF754FE80469DF895
S3150000B4C004009DF81190282840F095800822DFF8A6
S3150000B4D0981A0DF10900FEF731FA002835D04846D2
S3150000B4E00FF07FFDB34C38BB206890F82000A9EB25
S3150000B4F0000000F0FF00802828DA0FF00BFE01287C
S3150000B50006D00FF007FE022820D10FF0EEFDE8B9B5
S3150000B510F7F73FFADFF8C47C06463868311A00911F
S3150000B52020B10FF0FAFD009981420FD300210020CF
S3150000B53005F0FAFD3E6009E0012000900023324646
S3150000B5403946504611F041FF002854D0504612F0BB
S3150000B55085FA59460DF1090013F043FEFE2806460A
S3150000B56049D0FF2829D158460AF06CFF0646FF2E1F
S3150000B57004D00DF109010BF0F3F91EE000F091FF84
S3150000B58007D1504612F065FB014600F03EF8082848
S3150000B5902FD020682C3041780078814204D300F007
S3150000B5A0DEFB00F093FF26DA0DF1090158460BF099
S3150000B5B0BEF858460AF046FF0646216891F8201064
S3150000B5C0894504D0494601200FF0CBFA98B120688E
S3150000B5D090F82000814503D1304613F06AFE20B969
S3150000B5E04146304613F0E4FD70B14146304613F053
S3150000B5F0F1FD012008E05046FDF7FEFA0146002263
S3150000B6001920F8F7F3F8002013E35046F9F787BE40
S3150000B61038B5DFF8CC0BF9F7BBFF0446FF2C1DD07D
S3150000B6200321DFF8C05BFDF74CFA287004212046A1
S3150000B630FDF747FA687005212046FDF742FAA87023
S3150000B6400120FEF7A7F8204600F009F82046F9F792
S3150000B650BFFCBDE832400020FEF79CB831BD70B596
S3150000B66082B00446FDF752FA00F00C052046FDF7BD
S3150000B67052FAF7F7B7FE2046FDF748FA00F00C003D
S3150000B680082842D1062200212046FFF721FD204648
S3150000B690F9F728FC0EF047F98DF801008DF8024005
S3150000B6A09DF8010048B92046F9F71CFC01460DF14A
S3150000B6B001000EF08BF98DF800009DF8010080283E
S3150000B6C004BF9DF80000012806D1F7F700FF2046C9
S3150000B6D010F0E2FDF7F7B8FE9DF80100402805D10D
S3150000B6E0F7F7F5FE204610F0D7FD0BE0802804D1D1
S3150000B6F0684614F014F8002852D1F7F7E8FE6846B9
S3150000B7000DF014F8F7F7A0FE4AE02046FDF7A8FA78
S3150000B7100646042D204613D1FDF7F3F9000519D48A
S3150000B720022000223146F8F761F80C2D14D121468B
S3150000B730012014F060FC78B1204605F0F7FE2FE0FA
S3150000B740FDF736FAB0F5006FEAD100F015FC00F00F
S3150000B7500FFCE5D10020E4E71DB9204606F0CFF83E
S3150000B7601EE0042D1CD113480568687B022807D00B
S3150000B770FFF726FC20B9687B332818BF31280FD184
S3150000B7802046FDF7AEF9007800F03C000C2807D003
S3150000B7902146022014F02FFC10B1204600F00EF8CE
S3150000B7A0F7F752FE73BD000098F70020C0EB0020AB
S3150000B7B094FA0020DCF8002028FF00202DE9F04F45
S3150000B7C085B08046FDF78DF905464046FDF7B0F990
S3150000B7D08146281DFCF7ADFCADF8040000F0BFFA69
S3150000B7E08346284612F052FA03902878697800F0CA
S3150000B7F059FE0CBF01240024480800F00100029005
S3150000B8004FF6F870834501F001008DF80600ACBFD5
S3150000B81001260026404612F01CFA82466878400946
S3150000B82000F001008DF80700287800F03C01082997
S3150000B83049D1DFF82425126812F80820924542D231
S3150000B84014B9032108423ED1029850B100F033FEEC
S3150000B850C07E002837D029464046FFF706FE00285E
S3150000B86031D064B14146032014F0C5FB38B900F06D
S3150000B870E3F90E2827DB002E25D10146C4E100F0AE
S3150000B880DBF90746029880B900F015FEC07E60B16C
S3150000B890CDF800B005F051F8009989B2814212D175
S3150000B8A094B1062F18BF072F0DD100F004FE417B7F
S3150000B8B0022961D1029911B9C07E00285CD148469F
S3150000B8C00BF0C9FA28B1B4E107F003000128ECD067
S3150000B8D0AFE1CDF8009005F030F8009989B28142C9
S3150000B8E012D100F0EBFD18BF042809D105F025F8A8
S3150000B8F0014600F0E0FD40880D2214F0D9FB98E1E6
S3150000B90001200BF0A5F994E14846FCF79DFE68B9C5
S3150000B91005F01BF84FF6FF71884207D0DFF8A80B39
S3150000B92000780B2804BF48460AF018FD4846FCF785
S3150000B9308BFE78B105F009F800F01AFB0AD0DFF8A3
S3150000B940880B00780B2805D10CB1062F02D048468B
S3150000B950FCF797FC0399BDF8040001220BF0A1F94E
S3150000B96000281DD1284612F086F9014600225846C5
S3150000B9700BF097F9002813D19DF8070048B1484607
S3150000B980F8F78CF8FF280BD01CB9687800F0DF00B8
S3150000B99068704FF6FC70834503D100F08FFD04D12B
S3150000B9A047E14FF6FD70834504D100F084FD007B2E
S3150000B9B00428F5D0A87901001CBF401EA87168783C
S3150000B9C040072DD50020029002AABDF804000DF113
S3150000B9D001010CF01BF8029810B30BF068FF8DF80C
S3150000B9E000005846F8F75AF80299097901F0300331
S3150000B9F0102B1CBF01F00C02082A03D0029A01F09A
S3150000BA00F30111710299097901F03301202907D157
S3150000BA10FF2805D001469DF8000001220CF0A0F891
S3150000BA204846F8F73BF8FF280AD0DFF8401C0978AB
S3150000BA30C90705D5DFF8382C1268002142F8201016
S3150000BA409DF80600304378D1E979BDF8040010F07E
S3150000BA505EFA04F083FD08B1039820B1BDF8040036
S3150000BA60494600F0DAF904F068FF584565D05846B3
S3150000BA70FCF7EAFD204206D0012F04D100225146F0
S3150000BA80404612F0B7FC5846FCF7DEFD204201D0D6
S3150000BA90032F6FD06CB95846FCF7C6FD48B1BDF808
S3150000BAA0040000234246594613F081FA002840F06C
S3150000BAB0BC80DFF8C00B007848B9BDF80400FCF77D
S3150000BAC0C3FD20B95846FCF7BFFD002834D0D4B1D9
S3150000BAD0052F18D104F031FF8DF8000004F02DFF7A
S3150000BAE0000A8DF80100022269464046F9F780FBFC
S3150000BAF0002821D10AF10101C9B24046F9F7E9FB54
S3150000BB000178491C0170687840070AD5404611F053
S3150000BB10C1FF411CC9B24046F9F7DBFB0178491E5B
S3150000BB2001704046FFF7EBFA4046FDF765F801461F
S3150000BB3000221C20F7F75AFE7BE0002C68D0002379
S3150000BB40524641460220F8F708FB781E0C2859D8C1
S3150000BB50DFE800F0070710151C363D4347474C50F9
S3150000BB605400022F0CBF012200225146404612F01B
S3150000BB7041FC5EE05146404614F0CEFA59E0BDF86D
S3150000BB8004005246414614F013FC52E00AF101014A
S3150000BB90C9B200F052F80546DFF8DC4A0398206087
S3150000BBA0F7F795FC0AF10200C0B2009043462168FF
S3150000BBB0BDF804002A460BF0A2F9F7F745FC38E079
S3150000BBC053462A464146012005F047FB31E05246DE
S3150000BBD04146012005F0FCFB2BE0404614F0A2FD97
S3150000BBE027E0404606F0F9FB1EB31AE0404611F086
S3150000BBF043F81EE0404611F092F81AE040460CF079
S3150000BC0089FE16E0AEB93946484600F047FD10E019
S3150000BC109DF8060020B1287A00F044FC09D100E026
S3150000BC201EB1404600F00CF803E00021404600F04B
S3150000BC3003FD05B0BDE8F08F51464046F9F76FBBEE
S3150000BC402DE9F84F8346FCF74CFF05465846FCF7AE
S3150000BC506FFF0646281DFCF76CFA00F07FF8804659
S3150000BC6095F807903046FCF7EFFC82462946584681
S3150000BC7000F078F80446022C6BD032464946384626
S3150000BC800FF0FAFD002864D1009704F056FE0099E3
S3150000BC9089B281425DD0DFF8E409007860B9012CF1
S3150000BCA006D004F05BFC18B1284611F0EFFF18B17E
S3150000BCB03146384600F0B1F83246494638460FF06C
S3150000BCC029FE002845D028780321084203D1002107
S3150000BCD0584600F0B1FCA87900281FBFDFF8A0097C
S3150000BCE00068007B032834D0042832D06878C00767
S3150000BCF015D52E7A40460BF062FC40B1F10806F0ED
S3150000BD00E00001F01C01084340F0010006E006F0E7
S3150000BD101C001C2803D005281BDB301F28724FF699
S3150000BD20FF7529465846FCF714FFBAF1000F18BFF5
S3150000BD30002203D1FEF7E4FC00F03F020221584640
S3150000BD400FF0AEFEA84504D15846BDE8F24F0DF0FF
S3150000BD508BBCBDE8F18F000058E800200746A81C00
S3150000BD60FCF7E7B9FEB504460878032108424DD131
S3150000BD702146042014F03FF9002847D0204611F050
S3150000BD8068FF00F00FFC032108423FD1204611F066
S3150000BD9060FF00F007FC0321084237D12046FFF779
S3150000BDA030F9002832D0204611F0D6FF0546A91CEE
S3150000BDB0C9B200F0F8FB0602691CC9B200F0F3FB39
S3150000BDC0361805F10B01C9B200F0EDFB074600205D
S3150000BDD00090EA1C082300F01BF82046FCF7A8FE9A
S3150000BDE03A46B1B204F072FB012201A9B0B20AF0E0
S3150000BDF058FF08B10220FEBD04F09FFD20B91E21A8
S3150000BE004FF6F970FFF792FA0120FEBD0020FEBD45
S3150000BE10D2B2214601A8F9F77AB938B504460D46DB
S3150000BE20FCF712FC00281CBF2046A84205D0F7F7F5
S3150000BE3035FEBDE83240FCF7A8BC31BD10B519226D
S3150000BE404AA10320F9F745FCDFF834482068417B16
S3150000BE50022918BF032901D0932010BD007B0328B7
S3150000BE6018BF042802D103F053FE08B1702010BD9C
S3150000BE700AF0BCF92068407B032805D10021012087
S3150000BE8005F052F9012010BDFDF7A2F9002010BD02
S3150000BE902DE9F0410446884600265FEA080008BFFF
S3150000BEA0012603D0B8F1310F08BFB0462046FCF793
S3150000BEB02DFE00F00C00082814D1DFF8C867347096
S3150000BEC0F7F705FB4146204610F041FB28B920460E
S3150000BED0F9F7B4F841460CF047FCF7F7B5FAFF203E
S3150000BEE0307039E02046FCF711FE0C210842DFF8DD
S3150000BEF0987708D100F040F83A78BDE8F04101465D
S3150000BF000120F7F773BC2046FCF752FE0325B0F577
S3150000BF10006F06D100F030F800F02AF808BF0125BE
S3150000BF2003D05FEA080018BF052500F025F83A7827
S3150000BF3001462846F7F75AFC414620460DF011FC0B
S3150000BF4050B9414620460FF050FE28B932464146C8
S3150000BF502046BDE8F04112E0BDE8F081DCF80020A3
S3150000BF60ECEB0020EBEB0020F0F800204200000094
S3150000BF704FF6FF71884270472046FCF73DBE2DE91B
S3150000BF80F04F83B007460E461446FCF7BFFD00F09F
S3150000BF900C000C28DFF8E886384662D1FCF7A1FDD4
S3150000BFA08246FCF7E9FD50444FF0FF090178DFF8BF
S3150000BFB0D456012906D0022912D0042924D07C297E
S3150000BFC041D004E14EB99AF804009AF8031001EB47
S3150000BFD0002080B204F0BDFCF9E005F04BFCF6E071
S3150000BFE0002E04BFC178002908D18278407800EB82
S3150000BFF00220394680B20EF0C6FCA8E00AF105011F
S3150000C0000020FCF7BDF9ACE0D8F80000407B022820
S3150000C010E5D130000AD110F0A0FDC00702D410F01F
S3150000C02096FD08B90AF064F904B93126334622228E
S3150000C0306DA10320F9F74DFB2F70F7F748FA30464C
S3150000C04000F074FB08E02F70F7F741FA3846F8F76E
S3150000C050F5FF31460CF0ABFBF7F7F6F985F80090E3
S3150000C060B5E0FCF73EFD0446201DFCF762F881466C
S3150000C070A01CFCF75EF805464FF6F87B5D450ADA2C
S3150000C080D8F8000030F8441F491C0180310002D066
S3150000C0904188491C4180207800F00301012963D1C1
S3150000C0A0384611F0D6FD01463846F9F738F9042826
S3150000C0B006D0072810D00B2818BF0D2804D086E01C
S3150000C0C0384614F07FFA82E0D8F80000007B042896
S3150000C0D07DD1FDF77DF87AE0204611F0CCFD01A96F
S3150000C0E0002200280A6072D001460020FCF748F9B9
S3150000C0F00446384611F0ADFD00210091421C032391
S3150000C100D2B2394601A8F9F702F8002E02BFD8F8D4
S3150000C1100000407B022823D101A8817801BB40782A
S3150000C1209DF8041001EB00252046FF280CD0DFF80F
S3150000C1305C15096831F810204FF6FF331A4021F8D4
S3150000C1401020A9B2FCF7CFFAA8B20BF0CCFB384608
S3150000C150FCF752FD014600221020F7F747FB36E0B8
S3150000C1602046FCF712FB32E0032108422FD104F0EF
S3150000C170E4FB814504D03846FCF7C3FCC00606D56F
S3150000C18030000CBF00216621384614F0A1FEF6B13E
S3150000C1905D451CDA6078800810F0010604D1284657
S3150000C1A00BF0B4FC074600E000272846FCF73CFAF3
S3150000C1B010B1062277B906E00EB10B22FAE747B9AD
S3150000C1C0DFF8CC0402782946484613F071FFBDE833
S3150000C1D0F78F0C2249462846F7E7000074F800203E
S3150000C1E054EB0020C5FA0020424200002DE9F04F32
S3150000C1F0044685B094F800A05046FCF78CFCF7F78F
S3150000C200F1F85046FCF76DFC0746381DFBF791FF29
S3150000C210ADF80200B81CFBF78CFF8046504611F0C3
S3150000C22018FD81464946FFF7F0F98DF80000387889
S3150000C23000F038F90CBF9DF80050FF25F6F798FB83
S3150000C240A188461A04F079FBBDF802108842F879F5
S3150000C2508DF801000CBF4FF0010B4FF0000BBDF83D
S3150000C26002000AF0F8FDB6B298B15046FCF739FC68
S3150000C270801CFBF75EFF00F029F9C0F203819DF8F0
S3150000C2800100002840F0FE805046FEF7BAFE002866
S3150000C29007D040460AF0DFFD28B14046FCF7D4F946
S3150000C2A0002800F0EF8000F009F918BF042821D11A
S3150000C2B0062D18BF042D66D0FEF782FE20B19DF82C
S3150000C2C0000000F0EFF815D0F9F7E8FD30B900F0FE
S3150000C2D0F2F8407B00F00F00042851D104F02DFB4A
S3150000C2E00146381DFBF72CFF00F0E5F84188504663
S3150000C2F0FCF72FFC012D46D15046FCF719FCFFF741
S3150000C30037FE40D1002300F0D1F8060069D07279DB
S3150000C3109DF80D108A4207D209F10501C9B25046AF
S3150000C320F9F702F800F0B7F8FEF7EAF97E2190FB7C
S3150000C330F1F17E2202FB110000F580706080182169
S3150000C3409DF80E00084213D060780F21084208BFFE
S3150000C350BBF1000F0CD1F7F7BAF8384611F096FC8E
S3150000C36001467279BDF802000CF0A8F9F7F76CF8EF
S3150000C370F7F76AF89DF80F00002800F08A807FE042
S3150000C3802820608082E04FF6F870804502DA7878DF
S3150000C390C0072BD500F092F818BF042826D040F627
S3150000C3A0B93086426EDAFEF7ABF900F03F00C0F511
S3150000C3B0FA7060800FF0FCFA0546FF2D617814BF15
S3150000C3C000200120090959D01BEA000F56D1F9793E
S3150000C3D0BDF802000FF046FA00281CBF416811F1B3
S3150000C3E0010F4FD0407AA8424CDA47E0022D25D102
S3150000C3F0012300F05BF8054604F09FFA0146BDF8FC
S3150000C4000A00814202D0FCF71FF960B3002D39D033
S3150000C4106B8801224946504611F08FFF00F04BF819
S3150000C420417E491C4176F971BDF80600698888424B
S3150000C43001D000F030F84FF4C8701EE0032D12D181
S3150000C440BBF1000F0FD009F10101C9B2FFF7DDF80A
S3150000C4500C2808D10AF04DFBFFF78AFD03D00146F0
S3150000C4605046FCF776FB607800090BD1FB2E09DA03
S3150000C470FEF746F900F01F0010306080F6F7E4FF83
S3150000C480012006E0607800F0F0006070F6F7DCFF4F
S3150000C4900020FFF7CEBB607800F0F000801C6070D3
S3150000C4A07047287800F003000128704701AA494622
S3150000C4B0504611F073BE72480068704770480068B5
S3150000C4C0007B032870470000E2EB00204FF6F8716E
S3150000C4D088427047F0B5044683B025782846FCF7B5
S3150000C4E01AFBF6F77FFF2846FCF7FBFA0546281DE0
S3150000C4F0FBF71FFEFFF732FC0546F6F739FAA1886F
S3150000C500461A38460AF0A7FC50BB28460AF0A3FC98
S3150000C51018B12846FCF798F810B3FFF7CFFF18BFFD
S3150000C52004281DD0607800091AD1B6B2B6F5C86FD6
S3150000C53016DC019001AA694628460BF067FA014607
S3150000C5409DF8000080B94FF6FF7081420CD020782C
S3150000C550FCF7FFFA00206080F6F776FF0120FEBDAB
S3150000C560607800F0F0006070F6F76EFF0020FEBD08
S3150000C57070B50446FCF7B5FA0546204611F069FB8E
S3150000C58000F010F806462046FCF7D2FAFFF79EFFA9
S3150000C59004DAFFF786FF08BF022E01D1012070BD25
S3150000C5A0002070BD01462046F8F7B9BE2DE9F041DE
S3150000C5B080460C46FCF7AAFA00F00C0008282FD09B
S3150000C5C0201DFBF7B6FD0546E6794046FCF7B0FAB6
S3150000C5D007464046FCF795FA00060ED5284800683F
S3150000C5E0017B042904BF417B022906D140884FF60E
S3150000C5F0FF71884218BFF7F7B8F9A01CFBF799FD41
S3150000C600FFF764FF02DA6078C0070BD520780321B4
S3150000C610084205D13A46314628460FF02DF905E085
S3150000C620012007E0314628460FF05CFC00F00100CF
S3150000C63080F00100BDE8F08110B5044641B1FF224B
S3150000C6400321FCF737FA002204212046FCF732FAD0
S3150000C65021461048F8F787FF2046F8F7ABFC0E484E
S3150000C6600078BDE81040FCF7F3B900009CFA002002
S3150000C67070E80020BAEB0020B4F90020E6F90020AB
S3150000C680DCF80020EAEB002064FF00206CE80020C4
S3150000C690ECEB002008EB002061FF002030B585B0F0
S3150000C6A0044603208DF808000D4613208DF8090076
S3150000C6B004F043F98DF80A0004F03FF9000A8DF8FA
S3150000C6C00B008DF80C50002001900090052302AA63
S3150000C6D00021204611F097FA0546FF2D05D0214688
S3150000C6E0FEF744FE2846F8F773FC05B030BD00009F
S3150000C6F010B50446F6F7F1FEFFF7A0FB010018BFE0
S3150000C70000F014F80C21304811FB04F1084482793A
S3150000C71081880068BDE8104014F0ECBD0020E7E712
S3150000C7200120E5E70220E3E70320E1E710B582B048
S3150000C7300446F6F7F6FE0C21484323490844210037
S3150000C74017BF312C0021017A491C0172C279017A86
S3150000C75091420AD30021017243208DF800008DF822
S3150000C760014002216846FEF7B6F913BD174909785C
S3150000C770312900D0704780B544218DF8001001465C
S3150000C7800DF10100FBF7DCFC03216846FEF7A3F977
S3150000C79001BD38B50E4C0C4B24780C256C43B0F516
S3150000C7A0004FB8BF0429234401DB702032BDDA7183
S3150000C7B0988099719A799988186814F09BFDBDE85C
S3150000C7C03140FFF73BBB0000A4EA0020DDEB002070
S3150000C7D06AFF00202A480168491C016011F8010D12
S3150000C7E0704738B50446264D084629682246FDF7A7
S3150000C7F05BF828682044286031BD214A1168084446
S3150000C8001060084670471F491F4B0A681B68D31AF9
S3150000C810DC2BB8BF10700868401C0860704710B564
S3150000C8200446C0B2FFF7EFFF200A48E010B5FFF755
S3150000C830D1FF00F042F904EB002080B210BD10B524
S3150000C840044680B2FFF7EBFF200CB7E010B5FFF708
S3150000C850EDFF00F05EF804EB004010BD38B5094C62
S3150000C860094A2368126805469A1AAA18DD2A03DAC5
S3150000C87002461846FDF718F820682844206031BDA6
S3150000C88098F600209CF600209CF9002010B500F0D8
S3150000C89042F8FFF7CBFF2081FFF79CFFA072FFF75E
S3150000C8A099FFE072FFF796FF2073FFF7BFFFE08165
S3150000C8B0FFF790FF2074FFF7C9FF606110BDBDE868
S3150000C8C01040A0E710B500F024F82080FFF7AEFF77
S3150000C8D06080FFF77FFF2071FFF77CFF6071FFF735
S3150000C8E0A5FFE080FFF7A2FF2081FFF773FFA0728C
S3150000C8F010BD10B500F00AF8A078E0E710B500F01A
S3150000C90008F82080FFF766FFA07010BD0446208857
S3150000C91085E704468AE704462146082061E710B504
S3150000C92000F0CBF8A070FFF781FF2080211D00F0FA
S3150000C930C2F8FFF74FFF00B10120E070FFF74AFF92
S3150000C9402073FFF747FF607310BD10B504462146FC
S3150000C95000F07FF82069BDE8104070E710B5044686
S3150000C960214600F078F8FFF771FF206110BD10B581
S3150000C970FFF7CFFF208010BD207944E710B50446AD
S3150000C980FFF7CDFF04F1100000F01BF804F11C01C5
S3150000C99000F091F8FFF74AFF24F8240FFFF746FF4F
S3150000C9A06080FFF717FF2071FFF714FF6071FFF734
S3150000C9B011FFA071FFF70EFFE07110BDBDE810403A
S3150000C9C02DE710B50446FFF741FF2060FFF73EFF55
S3150000C9D06060FFF72BFF208110BD10B500F010F846
S3150000C9E000F08CF8E088FFF71AFF2089FFF717FFA1
S3150000C9F06089FFF714FFA089FFF711FFA07B5EE7B0
S3150000CA00044620681BE710B50446FFF71FFF2060A9
S3150000CA10FFF70CFFA080FFF709FFE080FFF706FF96
S3150000CA202081FFF703FF6081FFF700FFA081FFF77A
S3150000CA30D1FEA07310BD10B5FFF7E2FFFFF79CFF14
S3150000CA40611D00F006F804F11501BDE81040102044
S3150000CA5004E7102002E71020C3E610B50446207A4A
S3150000CA60FFF7D1FE207A010006D12068FFF7E7FE26
S3150000CA702068FFF7E4FE04E0022802D1214600F018
S3150000CA8002F8607A1BE70820E8E610B500F015F812
S3150000CA900100207206D1FFF7D9FE2060FFF7D6FE0F
S3150000CAA0206004E0022802D1214600F004F8FFF7D6
S3150000CAB091FE607210BD082093E604468AE638B5FA
S3150000CAC0044602252078FFF79EFE2078401E0128A6
S3150000CAD006D96089FFF7A3FEA11CFFF7D4FF09E082
S3150000CAE000F00CF800F00CF800F008F800F008F878
S3150000CAF000F004F80C346D1EE4D131BDA0888EE63A
S3150000CB0060888CE610B504462078FFF77CFE6068E6
S3150000CB10FFF795FE04F10800FFF79FFFA08AFFF7D5
S3150000CB207EFEA07DFFF76FFEA069FFF788FE04F189
S3150000CB301C01FFF78EFF04F12C00FFF7C0FF14F86D
S3150000CB40440FFFF760FE6078B9E610B5FFF7DEFE2A
S3150000CB50FFF7D6FFA08831E710B5FFF7DAFE208091
S3150000CB60FFF764FE6080FFF761FEA08010BD30B560
S3150000CB7002F8010B002312E031F8234002F8014BC2
S3150000CB8031F82340240A02F8014B01EB83045B1CB5
S3150000CB90658802F8015B6488240A02F8014B834227
S3150000CBA0EADB30BD0CB4F8B505460C4606AE08E027
S3150000CBB056F8040B290003D00078FFF71EFE3860F4
S3150000CBC0641C2078010037D056F8047B622827D0F1
S3150000CBD07028EDD0732818BF752804D076280CD09D
S3150000CBE0772814D0ECE7280003D0FFF7F3FD387060
S3150000CBF0E6E73878FFF707FEE2E7280003D0FFF7FD
S3150000CC0015FE3880DCE73888FFF709FED8E72800EC
S3150000CC1002D0FFF71BFED2E73868FFF710FECFE71A
S3150000CC2056F8040B00782900394602D0FFF7D9FDE3
S3150000CC30C6E7FFF713FEC3E7F1BC5DF80CFB000087
S3150000CC4010B5DFF8304CDFF8303C2488001B03EBCE
S3150000CC504000002304E030F8134021F813405B1C29
S3150000CC609342F8DB002010BDDFF8082CDFF8081C23
S3150000CC701288801A01EB40010220FDF7C7BCF8B507
S3150000CC8004460F461546DFF8F06BE8B200B34FF6E0
S3150000CC90FF70ADF80000002017F8011B0DF800101A
S3150000CCA0401C6D1EC0B2022802DAE9B20029F3D197
S3150000CCB0DFF8C00B0088A4B2201A0122694606EBF1
S3150000CCC04000FDF7DFFC641C0100DED000F0FABB7B
S3150000CCD00120F2BD70B582B004460D461646F0B28C
S3150000CCE078B101F013F8641C00201DF8001005F857
S3150000CCF0011B401C761EC0B20228F0DAF1B20029F0
S3150000CD00F3D173BDDFF8741BDFF8742B095C125C7A
S3150000CD10DFF8C03C185C10B102F5997292B241EA94
S3150000CD20C21080B27047DFF8543BDFF8AC2C1B5CB6
S3150000CD30012B1CBF32F81000081802EB40007047A8
S3150000CD4030B591B004460D4604E0401C80B2202860
S3150000CD500BDB2034A1B28D4210D320226946A0B24B
S3150000CD60FFF76EFF00204FF6FF723DF8101091425C
S3150000CD70EBD0A0B2FFF778FF203CEAE711B030BD58
S3150000CD8010B5044661882088FFF7DAFF0120A071FC
S3150000CD90DFF8481C208809784018DFF8F41C098859
S3150000CDA000EB4100801DA08010BD10B5DFF8304CAF
S3150000CDB000F088F800F04EF900F049F904F1080196
S3150000CDC0DFF8D00C8160446004F11001C16010BD31
S3150000CDD02DE9F04301F044F885B00578A846B8F18E
S3150000CDE0070F03DB40F2D32100F024FB0020A071E3
S3150000CDF06A1C208892B201A9FFF722FFBDF8040041
S3150000CE004FF6FF76B04218BF002856D00DF1040940
S3150000CE10301A39F8181081424FD1012704E0BDF8C5
S3150000CE200410884249D17F1C474514DA39F81700A7
S3150000CE300100F4D1DFF8601C0A88208812FB072164
S3150000CE4041187A437118101889B280B2FFF778FF3B
S3150000CE500220A071E7E7A079022830D020882818A0
S3150000CE60C01C00F0F8FFBDF80000000B404524D1BF
S3150000CE7020882818401D00F0EEFFBDF80010BDF810
S3150000CE800000711A000A01F0FF01884215D1032043
S3150000CE90A071012220882818401C0DF1020180B2E1
S3150000CEA0FFF7CEFEBDF80200FF2802D10420A071D4
S3150000CEB005E0B04218BF002801D000F003F805B025
S3150000CEC0BDE8F08320465BE770B5DFF8144BDFF86A
S3150000CED0C45BDFF8A4690020A071A073A07582B0BE
S3150000CEE004F10800A8606C6004F11000E8602046B8
S3150000CEF0FFF76EFF04F10800FFF76AFF04F1100068
S3150000CF00FFF766FFA179A07B042908D10021042838
S3150000CF10ADF800102CD1FFF748FF012076BDA17DAA
S3150000CF20042812D100200429ADF80000F3D0FFF741
S3150000CF30C9FF00F08CF8DFF8A43A208900F08DF8DC
S3150000CF40060026D10320A07334E0042929D100204D
S3150000CF50ADF80000FFF7B6FF00F07CF8DFF87C3A8A
S3150000CF60208A00F07AF8060013D10320A07518E095
S3150000CF70A07D0428CFD000F06DF800F068F8DFF847
S3150000CF805C3A208800F069F8060002D10320A071FF
S3150000CF900AE03046F7F799F81EB140F2C73100F0C3
S3150000CFA049FAA079032805D1A07B012804BFA07DFA
S3150000CFB0012843D0A079032801BFA17B0329A17DC5
S3150000CFC001293BD0022801BFA17B0329A17D0129AC
S3150000CFD00DD0012801BFA17B0329A17D012906D01F
S3150000CFE0012801BFA17B0329A17D032904D104F1F6
S3150000CFF0080004F1100125E0012801BFA17B0229E8
S3150000D000A17D03290DD0012801BFA17B0129A17DA6
S3150000D010032906D0032801BFA17B0129A17D03298D
S3150000D02004D104F11000214608340BE0032801BFA7
S3150000D030A07B0128A07D02287FF46DAF204604F175
S3150000D040080110346860EC60A960002076BD04F128
S3150000D050100095E604F1080092E61B781818DFF830
S3150000D06014381B88401CC01A0122694606EB400092
S3150000D070FDF708BB2DE9F04F00F0F2FEDFF81C9A31
S3150000D0800078DFF8C8AC85B00D46ADF80C0001227B
S3150000D0902088BDF80C100818461D0DF10201B0B22B
S3150000D0A0FFF7CEFDBDF80200000AADF80200761CBF
S3150000D0B0DFF8DC09B0F80080BDF8020040451CBF6F
S3150000D0C00120287000271BE0401CC1B2414515D243
S3150000D0D0C0B283463AF81B10BDF80A209142F3D13C
S3150000D0E0FFF710FE4FF680710840BDF808104FF6A6
S3150000D0F080721140884208BF09F80B707F1CBFB2CE
S3150000D100BDF80200874207DA022202A9B0B2FFF791
S3150000D11097FDB61C0020D8E7002101E0491C89B222
S3150000D120414509DA19F801008842F7D00120287034
S3150000D13002E022F8176006466088C01EB6B2B0420A
S3150000D1404FF6FF7A6BDB012269463046FFF778FD22
S3150000D150BDF80000FF27504561D0701C01220DF17B
S3150000D160060180B2FFF76CFDBDF80010BDF80600A1
S3150000D170AAEB0101884261D1BDF80010BDF800009C
S3150000D18001F07F0ABDF80210F61C000A884255DA43
S3150000D190002100E0491C414504DA19F801208242C9
S3150000D1A0F8D1CFB22388BDF80CC0634403EB40002E
S3150000D1B0801D00F05EFDBDF804006188C0F3C71055
S3150000D1C0401C00EBD07006EB600082B2914235D372
S3150000D1D0FF2FB0D0DFF8A416C95DBAF17F0F0CBFE0
S3150000D1E0002252468A4208DABDF80020DFF8E4370A
S3150000D1F0DB5D1206D20F9A4202D0012129709AE70E
S3150000D2000129DFF8EC2C94D0BAF17F0F32F8171011
S3150000D21008BF4FF0000A514422F811608BE7A68040
S3150000D2206088B1B288420BD301226946B0B2FFF7DB
S3150000D23007FDBDF80000761C5045F1D0012028708E
S3150000D24000F00EBD2DE9F04182B0DFF8F81BDFF8E3
S3150000D2508C37DFF840488DF80000DFF818060288A2
S3150000D260DFF87C07028009884180DFF824181D78E2
S3150000D2700E88DFF8F43BAA1802EB4602921D828064
S3150000D28000228271DFF8042C12880281AA1802EBB0
S3150000D2904602921D1B888281438100228273DFF839
S3150000D2A0F03BDFF8F02B12880282AA1802EB460147
S3150000D2B0891D1B88818243820021817514F05CF8E8
S3150000D2C000284DD1FFF700FE9DF8001008438DF8A9
S3150000D2D000000122606800882818801CA11C80B20A
S3150000D2E0FFF7AEFC9DF8000000283CD16068DFF82F
S3150000D2F0E8866946FFF7BEFEDFF8F80B0788A068E8
S3150000D3008179032921D16946FFF7B4FE6168DFF808
S3150000D3106C2500200FE0B04202DA135C012B09D124
S3150000D32038F81030B1F800E0734524BFB1F802C0F8
S3150000D3309C450AD2401CB842EDDB02208871A168E8
S3150000D34060686160E168A160E06000204FF6FF72EE
S3150000D35000E0401CB84206DA38F810109142F8D1C5
S3150000D36001208DF80000607828B101208DF80000BA
S3150000D3700020607013E09DF8000068B960680088BE
S3150000D380281800F0BCFCBDF80200C0F30310012809
S3150000D39008BF8DF8000002D09DF80000B8B14D20FE
S3150000D3A0F6F793FE6088401C6080E068FFF7E8FCB3
S3150000D3B09DF8000000F053F838B100F087F820B16E
S3150000D3C09DF8000000F064FA08B9012000E0002092
S3150000D3D0BDE8F681F8B50D46DFF8B416098817469C
S3150000D3E07F2F08BF00278D423EBFDFF89014495DAE
S3150000D3F08F4204461E4605D2DFF88414495D8E42EC
S3150000D40000D11CB940F2536100F014F839462846A1
S3150000D410FFF789FCDFF8301A0088495D29B101461B
S3150000D420284600F078FC2060F1BD32462146BDE872
S3150000D430F8404FE40FF6F420F3F778B910B5044638
S3150000D44008461146FFF76FFCDFF82824008812888B
S3150000D450DFF8A41A801A01EB4000206010BDF8B571
S3150000D460DFF83016DFF81044DFF8E058002814BF64
S3150000D470C8688868DFF86415008809784018861D32
S3150000D480B6B2002702E0B61CB6B27F1C00F09FFAC7
S3150000D490874215DAF8B2FFF735FCADF80000022234
S3150000D4A035F81700DFF8543A1B88ADF802006946D4
S3150000D4B0F01A04EB4000FDF7E5F80100E3D001E0C7
S3150000D4C00120F2BDF6F701FE0020F2BD2DE9FF476F
S3150000D4D0DFF8BC05DFF8041500880978DFF89883C3
S3150000D4E0ADF80A000025DFF8AC05C06800884018D2
S3150000D4F0BDF80A1000EB4100861DB6B200E06D1CB7
S3150000D500BDF80A00854280F2AC80DFF8C804405DB1
S3150000D5108DF808004FF0000A63E0ADF802004FF600
S3150000D520FF70BDF80210401AADF806004FF6FF7204
S3150000D530D048BDF800100488301B761C914208EBD9
S3150000D5404000B6B216D100F09EF801001CD100F0E2
S3150000D5509FF8010018D1B61CB6B2C9483E80425D9C
S3150000D560DFF89C0950F825103046FFF788FB0028A5
S3150000D57030D17FE0C249495D491C01EBD1714FEAC8
S3150000D580C15900F080F8010071D100F081F8010066
S3150000D5906DD1B61CB6B23E809DF80800002841D079
S3150000D5A000200390DFF8EC04007828B103AA69464E
S3150000D5B0A8B213F0E5FE05E0BDF80010E8B200F0F1
S3150000D5C0AAFB0390301B4FEA196203A900F00AFA7E
S3150000D5D001004CD1DFF82C09405D3618B6B20AF1CD
S3150000D5E0010AA648445D5FFA8AF0A04287D25FFA34
S3150000D5F08AF1E8B2FFF797FB07463888ADF80000D6
S3150000D6009DF80800C00140EA0520ADF80200012C93
S3150000D610BDF802000EBF40F07F005FFA8AFA4AEAC0
S3150000D62000007AE700270CE000F027F8FFF708FB78
S3150000D630B819001B012201A900F0D4F9010016D186
S3150000D6407F1CFFB2B7EB196FC4DADFF84804007825
S3150000D6500028BDF80000E7D000F00FF813F08EFEAA
S3150000D660E6E7DFF83004C0688680012002E0F6F7BE
S3150000D6702CFD002004B0BDE8F087411CADF8001079
S3150000D680012201A9704701220DF10201FCF7FABF40
S3150000D690301B01220DF1060108EB4000FCF7F2BF3A
S3150000D6A02DE9F64F8046DFF86038DFF858081B682A
S3150000D6B00C2685B0415CDFF854080288500892FBBE
S3150000D6C0F6F63618B3424FF00009019128BF481804
S3150000D6D008D2182692FBF6F2801A834203D301EB96
S3150000D6E0510080B201900026DFF8A87300E0761C96
S3150000D6F000F06DF9864280F2AE80002441E00122FE
S3150000D7000DF102011FFA8BF0FFF79AFABB68DFF8FA
S3150000D71064C19B88BCF800C05748EB18A3EB0C0308
S3150000D720012200F0AFF801000BF1010B16D16D1CC0
S3150000D7300498EDB28542E2DBBDF80010BB684FF6F7
S3150000D740FF70401AADF8020001224A489B880588FE
S3150000D75049489B1E5B1B00F095F8010073D1BB681E
S3150000D76045489B88DB1E5B1B012200F06FFB010016
S3150000D77069D1B868039A8188118081885144818073
S3150000D780641C3E48855DE0B2A842B0D2E1B2F0B278
S3150000D790FFF7C9FA0390B0F800B03948805D401C25
S3150000D7A000EBD070C005000E0490BDF81400864250
S3150000D7B002BF9DF81810E0B28842E1D0786802886E
S3150000D7C0934524BF40885845DAD301981FFA88F854
S3150000D7D080454CDADFF82C0710F806A0B868828876
S3150000D7E041885244D21C914203DA012078704520C8
S3150000D7F029E07849895DCA0142EA0622ADF800208F
S3150000D800012DBDF800200EBF42F07F02E4B2224394
S3150000D810ADF80020D0448288D21C4FF001098280E6
S3150000D820B9B15946F0B200F076FABB68114D049AC8
S3150000D83002909B882D8810485B1B02A900F024F8F3
S3150000D84001003FF479AFF6F740FC002007B0BDE8D1
S3150000D850F08F00256CE7B9F1000F08D17968022036
S3150000D8608871B96878687960F968B960F8600120EC
S3150000D870ECE70000F2CE020000700700C8C8020004
S3150000D880A8C802000DF1020100EB4300FCF7FABE46
S3150000D8902DE9FE4F5FEA000B7E4DDFF85C8614BF74
S3150000D8A0E868A86801220088019000F090F8C0F1AD
S3150000D8B0FF0101F0FF0141EA0020ADF802000DF181
S3150000D8C002014648047801980619DFF830060788F1
S3150000D8D0701DC01B00F086F8010053D140F622707F
S3150000D8E040EA0430ADF802000122F01CC01B0DF125
S3150000D8F0020100F077F8010044D1B01CC01B0122E0
S3150000D900A91C08EB4000FCF7BDFE01003AD1701CD3
S3150000D910C01B08EB40095FEA0B004FF6FE7A05D004
S3150000D920FF2000F063F801002CD109E06868008848
S3150000D93001226946FFF784F9BDF80000012802D1EB
S3150000D940ADF800A002E0401EADF800004FF6FF70F3
S3150000D950BDF80010401AADF808000122F01B02A91C
S3150000D96000F040F801000DD12046441E80B270B18F
S3150000D970019810FA84F0C01B0122694600F032F8C3
S3150000D9800100F1D0F6F7A1FB0020BDE8FE8FBBF148
S3150000D990000F17D0E968032088716868FFF7F0F96F
S3150000D9A0A868FFF7EDF9EA686868A968AA60A86040
S3150000D9B06960E8606A600020E96000F017F801001D
S3150000D9C0E0D102E0A968032088710120DDE7304834
S3150000D9D00088704788C80200D0F2002010CF0200ED
S3150000D9E00CEB002008EB4000FCF74CBEADF8020043
S3150000D9F001220DF102014846FCF744BEF8B5044683
S3150000DA00DFF8000582B0455CA088134662882E18B0
S3150000DA10F61CB24204DA1F4901204870452033E063
S3150000DA20C01CDFF8EC24A08080B2525C1946FFF7D8
S3150000DA3026F960B3DFF8C404DFF8BC740688A08852
S3150000DA40C01E801B012202A907EB4000FCF71AFE4C
S3150000DA50010019D1BDF808104FF6FF70401AADF855
S3150000DA6000000122A088801E801B694607EB40004B
S3150000DA70FCF708FE010007D10899A0880880A08855
S3150000DA804019A0800120FEBDF6F71FFB0020FEBD59
S3150000DA90FECE0200A0F80020F0CE0200F4F3002033
S3150000DAA02DE9F84F84B0044688469146F4F7CBF842
S3150000DAB0FFF78DFFADF806000127B9F17F0F08BF0C
S3150000DAC04FF0000984423EBFDFF84814095D8945DE
S3150000DAD009D2DFF83C149DF81000095D884202D196
S3150000DAE0B8F1000F03D140F6C401FFF7A3FC494685
S3150000DAF02046FFF718F901250646DFF81C04817950
S3150000DB00B6F800A002291FBF817B0229807D02286A
S3150000DB1002D14320F6F7D9FACB48005D80B35146CF
S3150000DB20204600F0F8F8D8F80010814256D0AAF145
S3150000DB30030000F09EF8DFF8E453DFF8C8336868A6
S3150000DB4042881B5D8188D21ED21A8A4207DB31B118
S3150000DB50A9680A889245A4BF4988514575DBE868DB
S3150000DB608079D5F808A0022839D14420F6F7ADFA15
S3150000DB70E8688079012832D04520F6F7A6FA55E004
S3150000DB809DF8100002904FF0000B22E00BEBDB70CB
S3150000DB900AEB600000F05FF908EB0B0018F80B10B9
S3150000DBA0407801EB00200299491E8B4580B207D1CF
S3150000DBB0BDF8001001F0FF0100F0FF00ADF8001005
S3150000DBC0BDF8001088420BF1020018BF00255FFA6D
S3150000DBD080FB02988345D9DB002DA8D040E0A868D9
S3150000DBE08179012914D10020FFF739FC002837D0AC
S3150000DBF00020FFF74DFE002832D0C948BDF8063098
S3150000DC00007800EB4300C01D4A46214680B204E07E
S3150000DC10032911D14A4621460020FFF741FD28B1CC
S3150000DC2000F021F85046FFF7E9FEC8B93846471E0E
S3150000DC30C0B2002812D113E002290CBF40F6B3117E
S3150000DC4040F6B511FFF7F6FB0AE000F00CF8FFF717
S3150000DC50D5FE28B93846471EC0B200287FF447AF24
S3150000DC6005B0BDE8F08F00964246BDF80430214667
S3150000DC707047012201A980B2FEF7E2BF70B50446E3
S3150000DC80A648A74B40681B7882B00088C01800F0F1
S3150000DC9036F8BDF802000025C0F3031001281AD19A
S3150000DCA0192600F033F8BDF80000641C30B14FF4BB
S3150000DCB07F41401A06D0FF381CD005E0AD1C761E09
S3150000DCC0EFD117E06D1C15E0BDF80000C0B200B939
S3150000DCD06D1CED430EE0192600F018F8BDF80000A3
S3150000DCE0641C20B14FF6FF71884203D004E06D1C1E
S3150000DCF0761EF1D168B276BDE84340B276BDC01C4F
S3150000DD0001220DF1020180B2FEF79ABF0122694697
S3150000DD10A0B2FEF795BF38B50C46002100917C49AC
S3150000DD200D5C2A4669462046FEF7D4FF681C00EBC8
S3150000DD30D07004EB600080B2FFF7A0FF00280099C6
S3150000DD4048BFC04341FA80F032BD000048C8020017
S3150000DD50F0B5744909880446654883B0264630F80C
S3150000DD6016508C4202D23848805D18B940F66A21B6
S3150000DD70FFF760FB6648865D701C00EBD07005EB14
S3150000DD806007B8B2FFF77AFF19280FD210FA87F0AA
S3150000DD905A4F594B3F880021ADF80410C01B012291
S3150000DDA001A903EB4000FCF76DFC60B12946204653
S3150000DDB0FFF7B1FF00903346401C00907F22694672
S3150000DDC02046FFF76DFEF7BD70B500F049F80678FE
S3150000DDD082B0354629464D1EC9B22088022922DB6B
S3150000DDE050FA85F000F037F8BDF800000028F1D0B1
S3150000DDF04D4920880988EDB26943081880B2FEF7BC
S3150000DE0033FF0020ADF80000012223883B4C3A483E
S3150000DE102488EB181B1B00F019F8010018BFF6F751
S3150000DE2054F9284676BDFEF71FFF0120A0713D4933
S3150000DE3020880988801900EB4100801DA080E8B287
S3150000DE4076BD0000F4CE020088C80200694600EBE9
S3150000DE504300FCF717BC0122694680B2FEF7F0BE0C
S3150000DE6004462F4870470000F8CE02002A48817900
S3150000DE70022908D0817B022908BF083003D0817DA2
S3150000DE80022901D110309FE700207047F6CE02002C
S3150000DE90FCCE0200FACE020070B5FFF7E1FF06786D
S3150000DEA082B000250CE0208850FA86F0FFF7D3FFF9
S3150000DEB0BDF8000000281EBF4FF6FF7188426D1C9A
S3150000DEC03046461EC0B20028EDD1E8B276BD1248F3
S3150000DED08179022908D0817B022908BF083003D046
S3150000DEE0817D022901D11030D6E70020704700005D
S3150000DEF0D0F2002000CF020000700700F2CE020030
S3150000DF0018CB0200D4C70200D0C70200EECE020032
S3150000DF10A8C80200C8C802000CEB0020A0F8002028
S3150000DF2010CF0200FECE0200F0CE020073696D2D06
S3150000DF30656570726F6D322D696E7465726E616C97
S3150000DF402E6300002DE9F84F8046DFF87C902022F2
S3150000DF50FF214846FBF7EBFCDFF870B04FF49172F7
S3150000DF60FF215846FBF7E3FC20250024184EDFF876
S3150000DF7064A01AF804001849375D095D401C00EBDF
S3150000DF80D070401001B11930C01C00FB07F21348D5
S3150000DF9030F814101248F7F762FB012F1CBF2BF85C
S3150000DFA014507D19641C202CE3DB0E4820234FF40B
S3150000DFB0805240F2BA51F7F752FB49464046BDE857
S3150000DFC0F44FFFF73FB900BFF4F30020D0F2002072
S3150000DFD0C8C80200A8C8020088C8020048C80200D3
S3150000DFE084C70200A0C7020072B61EF0080F08D050
S3150000DFF01EF0040F0BD0DFF848E0AEE8FF1F114813
S3150000E0000AE0DFF83CE0AEE8FF1F0F4804E0DFF867
S3150000E01030E0AEE8FF1F0D486946EFF309828EE84F
S3150000E020070086460A480B4C854501D3A54501D312
S3150000E03084F30888F2F792FB84F30888F4F700F873
S3150000E04004000020FDFFFFFFF1FFFFFFF9FFFFFFC8
S3150000E05038DC002058E5002080B500F00CF8224995
S3150000E060224A0968C1F30821491CB0FBF1F010608F
S3150000E07002BD1F4870471F48016801F007010229C9
S3150000E08009D00AD3042901D002D306E01A4905E0D3
S3150000E0904FF4004103E0194900E019490968C06ED0
S3150000E0A0C0F30420401CB1FBF0F070471348006831
S3150000E0B07047124908600F48006800F00700022800
S3150000E0C008BFFFF7C9BF70470E48016841F47001E9
S3150000E0D0016070474FF4004070474FF47A70704704
S3150000E0E0054800687047000008410E4040E90020DE
S3150000E0F000F0490294400E403CE9002038E9002037
S3150000E10044E9002088ED00E0890001EB401000F1B1
S3150000E11084400260704700F1806300F1C0601960BE
S3150000E1200260704730234B4A584310440C3000F1CC
S3150000E130806006E03023474A584310440C3000F113
S3150000E140C060012202FA01F10160704742490A6883
S3150000E150920840EA82000860704710B530240A46EB
S3150000E1603C4B6043BDE810404FF001111844D2E724
S3150000E1702DE9F04101F00308144603270F21082C6E
S3150000E1801D460CD2A60000FA06F2B1403348FFF74E
S3150000E190C2FF08FA06F207FA06F131480DE0A4F1CB
S3150000E1A00802960000FA06F2B1402E48FFF7B3FFC8
S3150000E1B008FA06F207FA06F12B48FFF7ACFF2A46E3
S3150000E1C021462A482A4DFFF79FFF069A21462846F0
S3150000E1D0FFF79AFF0120A04028612146079A2548AB
S3150000E1E0BDE8F04190E7F8B50446164630000D4606
S3150000E1F01F4607D0002F204602D0FFF79BFF01E005
S3150000E200FFF790FF30210F22124811FB04F1082D71
S3150000E210084405D2AB00416800F015F8416006E0FD
S3150000E220A5F108039B00816800F00DF881604EB9E6
S3150000E230002F2946204602D0BDE8F4407AE7BDE823
S3150000E240F4406FE7F1BD9A4021EA020206FA03F1B3
S3150000E2501143704700A0004044A4004000A40040C1
S3150000E26008A4004004A400400CA4004010A40040F0
S3150000E27014A4004028A4004010B5DFF85411DFF8BC
S3150000E2805441E16103202061606110212162002177
S3150000E290DFF84401A061A16220666162E162216744
S3150000E2A00422DFF8380160661020A066E166616727
S3150000E2B0E01D29A1F4F7D4F80722DFF8241120463F
S3150000E2C0F4F7DEF82020A07110BD2DE9F843DFF841
S3150000E2D00471064638788946904608B9FFF7CCFFA0
S3150000E2E018207043384400F1600600253769F46849
S3150000E2F0BC4212D2B068C51B7068454588BF45460A
S3150000E300C1192A464846F4F7ABF8B068EF198742B8
S3150000E310A944A8EB050808BF0027E41B444588BFAD
S3150000E32044463CB17068C11922464846F4F798F84D
S3150000E3306519E71905B137612846BDE8F283F8B5D6
S3150000E34004460D461646F4F70DFB074632462946A7
S3150000E3502046FFF7BAFF01E05254540004463846FF
S3150000E360F4F777FB2046F2BD2DE9F84300F027F8D5
S3150000E37008B9FFF781FFF4F7F5FA79690026182244
S3150000E38002FB06F3FB185B6E13B1761C8E42F7DBBD
S3150000E3908E420CDA02FB06F1791800220C664D66F5
S3150000E3A0C1F868800A67CA66C1F8749001E04FF048
S3150000E3B0FF36FFE7F4F74DFB3046BDE8F283054F25
S3150000E3C0044638780D4690469946704754E7000053
S3150000E3D0B0F2002000EC00204CC70200C0F2002082
S3150000E3E058C702000A46090241EA12214840C0F312
S3150000E3F00311484080EA003041010206C9B2D20E3C
S3150000E40041EA0221484080B27047000070B50446D8
S3150000E410080015461E4604BF6448F5F7A1FF310003
S3150000E42006D0202E18D0402E18D0602E18D070BDE1
S3150000E4301021226822F0600222606943226832437A
S3150000E44022604A0802EB4010B0FBF1F02038584930
S3150000E45001EAC000606170BD0821EAE70621E8E72D
S3150000E4600421E6E738B504460800154604BF4F48C0
S3150000E470F5F776FF401E6900B0FBF1F0000260611F
S3150000E48031BDCA43520002F00A02C260C160704741
S3150000E49038B504460D4600F066F8A87C18B1206829
S3150000E4A040F080402060E87C18B1287D40F0800074
S3150000E4B0A065687BB5F910100843B5F90E1008433E
S3150000E4C060602B7BAA6869682046FFF79FFF00F013
S3150000E4D039F8606F20F030006067606F297E08436E
S3150000E4E060672CE038B504460D4600F03CF8A87B82
S3150000E4F008B14FF480602168B5F91020104340F050
S3150000E500010008432060287D08B14FF000502168C3
S3150000E51008432060A87C18B1E87C40F08000A06524
S3150000E520287B40F480506060AA6869682046FFF73F
S3150000E53099FF687B08B11020E06000F003F82878A6
S3150000E540E06031BDA87DE97D0007090500F0E040E7
S3150000E55001F4E00108432066687D18B1206840F4A4
S3150000E56080302060704740F6AA61C16000210160DA
S3150000E57041F205014160002181604161C1640D4A9B
S3150000E5800D498164002141678167C16790420B494B
S3150000E5901EBF88420A4A904201D10022026500222B
S3150000E5A08265884204BF07490A60704740410500FA
S3150000E5B0F8FF7F0000000140F9FF01000004014060
S3150000E5C0000801405C04014001690906FCD5FFE72B
S3150000E5D0C069C0B2704702695206FCD541637047F4
S3150000E5E0026CD20702D4426C0A42FCD1704738B59D
S3150000E5F000F00EF8E843400000F00A00284360608F
S3150000E60031BD19B1416C0029FCD10121016470476B
S3150000E6100D4604460221E3E710B504460121FFF743
S3150000E620F0FFEA206060002100202060E0602061A9
S3150000E6306061A06340F2F97060630020E06360658A
S3150000E640A0652046BDE81040DBE738B500F005F8C8
S3150000E650402100F00AF8A56231BD04460D46A068C7
S3150000E660C006FCD57047606002212046B8E700006E
S3150000E6703023DFF8E82B584310440C3000F180605B
S3150000E68007E03023DFF8D42B584310440C3000F158
S3150000E690C060012202FA01F1016070471CB50093C7
S3150000E6A01346049C01940A46FFF762FD13BD193018
S3150000E6B0017E02290FD10278DFF8A01B00793023F2
S3150000E6C05A4311441C31800000EB411000F1844094
S3150000E6D00068C0B270470020704738B50022DFF8E6
S3150000E6E0803B53F822104C7F844203D0521C042AEC
S3150000E6F0F7D331BD21B301F12E04E07802281FD1F2
S3150000E7000D1D0846FFF7D3FF2874687C022804BF56
S3150000E7102078002814D100F02AFF12F01CFF297C73
S3150000E72009B1617829B100206070286812F0E2FE14
S3150000E73031BD28B99DF8000010B1286812F0CCFE52
S3150000E74031BD10B5044604F1140082B0417F0229A0
S3150000E75010D141780A0003D0012906D0017821B9E9
S3150000E760817A8079FFF784FF18E0817A8079FFF754
S3150000E77088FF13E0012911D1007800280CBF112071
S3150000E78013208DF80000204601F0E5F801226946C5
S3150000E790204601F05CF8204601F022F9002016BD63
S3150000E7A02DE9F041044688461646F4F7DBF805469F
S3150000E7B0A088E188884207D3002030602846F4F715
S3150000E7C048F9DFF8A00A1CE0208814277843204483
S3150000E7D0142241460830F3F743FE2088784320444C
S3150000E7E0083030602088E188401C90FBF1F201FB84
S3150000E7F012002080A088401CA0802846F4F729F942
S3150000E8000020BDE8F08138B504460D46F4F7AAF8B5
S3150000E810A18809B9296024E0618814225143214462
S3150000E820083129606188E288491C91FBF2F302FBFA
S3150000E83013116180A188491EA1800EE038B50546F6
S3150000E8400C46F4F78FF8A98809B9216009E06988B0
S3150000E85014225143294408312160F4F7FAF80020C4
S3150000E86032BDF4F7F6F8DFF8000A32BD90F8321040
S3150000E8700A000BD102680121D16000680169C9074D
S3150000E880FCD5416F41F001014167704701290ED166
S3150000E8900168496C8907FBD4026801215160006850
S3150000E8A08168C907FCD5416D41F00101416570479A
S3150000E8B090F832100A0008D101684A6F52085200D7
S3150000E8C04A6702210068C160704701290CD10168BE
S3150000E8D0496C8907FBD40168496D026849084900FB
S3150000E8E05165022100684160704710B500F12C02A5
S3150000E8F086B00123137093791C0013D1026804902B
S3150000E90002F11C030FF271020392002202924A687E
S3150000E9100192012200920A680169806812F0C1FD25
S3150000E92006B010BD012BE9D000201070F8E710B535
S3150000E93000F12D0286B00123137053791C0012D109
S3150000E940026834320FF21D130393049000230293DE
S3150000E9504B680193012300930B68C168406812F06D
S3150000E9609AFD06B010BD012B02D102682832E9E7F4
S3150000E97000201070F5E70000F8B514466946606A95
S3150000E980FFF75CFFDFF8E018884262D004F12C053F
S3150000E990DFF8DC18A879020008D12268126C92050B
S3150000E9A004D500F058F84FF4007015E00246012A2D
S3150000E9B007D12368DB6A1B0603D500F04CF88020DC
S3150000E9C016E0DFF8B01850B92068006CC00506D50F
S3150000E9D000F041F84FF48070216888640DE0012A48
S3150000E9E009D12068C06A400605D500F034F84020F9
S3150000E9F02168486301E000F062F8F3F7B3FF0646CA
S3150000EA000098C768380009D000980099406889685E
S3150000EA10431A0098026801692046B847606A694649
S3150000EA20FFF7F1FE606A818821B100F085FE00F0F3
S3150000EA30C9FF0CE0012020752046FFF782FE00206A
S3150000EA402870687903281CBF2046FFF731FF01F0C4
S3150000EA5009F80120F2BD0098016100200099886044
S3150000EA6070470000F8B5144604F128056946286881
S3150000EA70FFF7E4FEDFF8001888421ED000F01FF80A
S3150000EA80F3F770FF06460098C768380005D000986F
S3150000EA904368026800212046B84728686946FFF7A0
S3150000EAA0B2FE2868818821B100F046FE00F0D5FF4D
S3150000EAB001E00020687100F0D5FF0120F2BD009949
S3150000EAC00020086100998860704710B9DFF81409C2
S3150000EAD07047002918BF002A02D0B2F5006F02D98C
S3150000EAE0DFF8040970470020704710B50368DFF8A7
S3150000EAF0FC48FF22A34240F060810B7A1C0018BF3D
S3150000EB00012B07D0022B18BF032B03D0042B18BFF1
S3150000EB10052B01D100233AE0062B18BF072B04D0A2
S3150000EB20082B1CBF092B0A2B01D101232FE00B2B2D
S3150000EB3018BF0C2B07D00D2B18BF0E2B03D00F2B95
S3150000EB4018BF102B01D1022321E0112B18BF122B65
S3150000EB5008D0132B18BF142B04D0152B1CBF162B53
S3150000EB60172B01D1032312E0182B18BF192B0BD03A
S3150000EB701A2B18BF1B2B07D01C2B18BF1D2B03D01D
S3150000EB801E2B18BF1F2B01D1052300E0FF23C375E1
S3150000EB904B7A1C0018BF012B40D0022B1CBF032B45
S3150000EBA0042B3BD0052B18BF062B04D0072B1CBF0C
S3150000EBB0082B092B01D1012333E00A2B18BF0B2B9D
S3150000EBC007D00C2B18BF0D2B03D00E2B18BF0F2B05
S3150000EBD001D1022325E0102B18BF112B08D0122BD0
S3150000EBE018BF132B04D0142B1CBF152B162B01D1C9
S3150000EBF0032316E0172B18BF182B0BD0192B18BFA1
S3150000EC001A2B07D01B2B18BF1C2B03D01D2B18BF8C
S3150000EC101E2B01D1052304E01F2B01D1002300E0A8
S3150000EC20FF2303760B7A1C003ED0012B18BF022B64
S3150000EC3059D0032B1CBF042B052B54D0062B1FD0F9
S3150000EC40072B21D0082B23D0092B25D00A2B27D020
S3150000EC500B2B41D00C2B43D00D2B08BF082342D0E1
S3150000EC600E2B05D00F2B07D0102B09D0112B01D15D
S3150000EC70092338E0122B01D10A2334E0132B01D1EA
S3150000EC800B2330E0142B01D10C232CE0152B01D1E2
S3150000EC900D2328E0162B01D10E2324E0172B01D1DA
S3150000ECA00F2320E0182B01D100231CE0192B08BFED
S3150000ECB0012318D01A2B08BF022314D01B2B08BF20
S3150000ECC0032310D01C2B08BF04230CD01D2B08BF18
S3150000ECD0052308D01E2B01D1062304E01F2B01D1EA
S3150000ECE0072300E0FF23C3764B7A1C003FD0012B9D
S3150000ECF041D0022B43D0032B45D0042B47D0052B04
S3150000ED001FD0062B21D0072B23D0082B25D0092B6B
S3150000ED1027D00A2B3FD00B2B41D00C2B08BF082243
S3150000ED2042D00D2B05D00E2B07D00F2B09D0102B60
S3150000ED3001D1092238E0112B01D10A2234E0122B2D
S3150000ED4001D10B2230E0132B01D10C222CE0142B25
S3150000ED5001D10D2228E0152B01D10E2224E0162B1D
S3150000ED6001D10F2220E0172B1DD0182B01D1012233
S3150000ED701AE0192B01D1022216E01A2B01D1032227
S3150000ED8012E01B2B01D104220EE01C2B01D105221F
S3150000ED900AE01D2B01D1062206E01E2B01D1072217
S3150000EDA002E01F2B00D1002202774A7C42768A7C41
S3150000EDB04277CA7C8276097D60E2DFF8BC47A342CF
S3150000EDC040F04B810B7A1C0018BF012B07D0022B99
S3150000EDD018BF032B03D0042B18BF052B01D100232A
S3150000EDE03AE0062B18BF072B04D0082B1CBF092BB3
S3150000EDF00A2B01D101232FE00B2B18BF0C2B07D0B8
S3150000EE000D2B18BF0E2B03D00F2B18BF102B01D1C3
S3150000EE10022321E0112B18BF122B08D0132B18BF89
S3150000EE20142B04D0152B1CBF162B172B01D1032333
S3150000EE3012E0182B18BF192B0BD01A2B18BF1B2B3F
S3150000EE4007D01C2B18BF1D2B03D01E2B18BF1F2B42
S3150000EE5001D1052300E0FF23C3754B7A1C0018BFC0
S3150000EE60012B40D0022B1CBF032B042B3BD0052BC0
S3150000EE7018BF062B04D0072B1CBF082B092B01D16A
S3150000EE80012333E00A2B18BF0B2B07D00C2B18BF1E
S3150000EE900D2B03D00E2B18BF0F2B01D1022325E01B
S3150000EEA0102B18BF112B08D0122B18BF132B04D010
S3150000EEB0142B1CBF152B162B01D1032316E0172B81
S3150000EEC018BF182B0BD0192B18BF1A2B07D01B2BCA
S3150000EED018BF1C2B03D01D2B18BF1E2B01D10523D9
S3150000EEE004E01F2B01D1002300E0FF2303760B7AF9
S3150000EEF01C003ED0012B18BF022B59D0032B1CBF80
S3150000EF00042B052B54D0062B1FD0072B21D0082B02
S3150000EF1023D0092B25D00A2B27D00B2B41D00C2B25
S3150000EF2043D00D2B08BF082342D00E2B05D00F2B44
S3150000EF3007D0102B09D0112B01D1092338E0122B51
S3150000EF4001D10A2334E0132B01D10B2330E0142B1B
S3150000EF5001D10C232CE0152B01D10D2328E0162B13
S3150000EF6001D10E2324E0172B01D10F2320E0182B0B
S3150000EF7001D100231CE0192B08BF012318D01A2B3E
S3150000EF8008BF022314D01B2B08BF032310D01C2B51
S3150000EF9008BF04230CD01D2B08BF052308D01E2B49
S3150000EFA001D1062304E01F2B01D1072300E0FF2334
S3150000EFB0C3764B7A1C0038D0012B39D0022B3AD0BD
S3150000EFC0032B3BD0042B3CD0052B1DD0062B1ED08B
S3150000EFD0072B1FD0082B20D0092B21D00A2B33D08A
S3150000EFE00B2B34D00C2B08BF08223FF4DDAE0D2BC3
S3150000EFF004D00E2B05D00F2B06D0102B3FF499AE64
S3150000F000112B3FF49AAE122B3FF49BAE132B3FF419
S3150000F0109CAE142B3FF49DAE152B3FF49EAE162BE3
S3150000F0203FF49FAE172B17D0182B3FF4A0AE192B29
S3150000F0303FF4A1AE1A2B3FF4A2AE1B2B3FF4A3AEB6
S3150000F0401C2B3FF4A4AE1D2B3FF4A5AE1E2B3FF4A4
S3150000F050A6AE1F2B7FF4A8AEA5E6DFF8BC47A342F9
S3150000F06040F0FB800B7A1C0008BF002328D0012B40
S3150000F07018BF022B23D0032B18BF042B1FD0052B40
S3150000F08018BF062B1BD0072B18BF082B17D0092B30
S3150000F09018BF0A2B13D00B2B1CBF0C2B0D2B0ED01D
S3150000F0A00E2B18BF0F2B08D0102B18BF112B04D016
S3150000F0B0122B1CBF132B142B01D1052300E0FF23B9
S3150000F0C0C3754B7A1C0018BF012B3CD0022B18BF0E
S3150000F0D0032B38D0042B18BF052B34D0062B18BFB2
S3150000F0E0072B30D0082B18BF092B2CD00A2B1CBF9E
S3150000F0F00B2B0C2B27D00D2B18BF0E2B08D00F2B4C
S3150000F10018BF102B04D0112B1CBF122B132B01D1AF
S3150000F110052319E0142B18BF152B14D0162B18BF76
S3150000F120172B10D0182B18BF192B0CD01A2B18BF61
S3150000F1301B2B08D01C2B1CBF1D2B1E2B03D01F2BDB
S3150000F14008BF002300D0FF2303760B7A1C002AD0C9
S3150000F150012B18BF022B30D0032B18BF042B2CD049
S3150000F160052B18BF062B28D0072B18BF082B24D039
S3150000F170092B18BF0A2B20D00B2B1CBF0C2B0D2BD9
S3150000F1801BD00E2B08BF002318D00F2B08BF01235E
S3150000F19014D0102B08BF032310D0112B08BF042353
S3150000F1A00CD0122B01D1052308E0132B08BF062330
S3150000F1B004D0142B08BF072300D0FF23C3764B7A55
S3150000F1C01C0018BF012B42D0022B18BF032B3ED0C8
S3150000F1D0042B18BF052B3AD0062B18BF072B36D0A9
S3150000F1E0082B18BF092B32D00A2B1CBF0B2B0C2B5C
S3150000F1F02DD00D2B08BF002229D00E2B08BF0122CF
S3150000F20025D00F2B08BF032221D0102B08BF0422C4
S3150000F2101DD0112B20D0122B08BF062217D0132B7E
S3150000F22008BF072213D0142B18BF152B0FD0162B8F
S3150000F23018BF172B0BD0182B18BF192B07D01A2B5A
S3150000F24018BF1B2B03D01C2B1CBF1D2B1E2B3FF4E2
S3150000F250ABAD1F2B7FF4A8AD99E507E000A00040F9
S3150000F2607CF500200A7000F00B7000F05E4810BDBF
S3150000F2700D7000F00C7000F00B7000F0817700202C
S3150000F28010BD10B500F1170482B00A00217920786C
S3150000F2901DD001230422FEF7A6FF617960780123C1
S3150000F2A00222FEF7A0FFA07E022809D100F034F862
S3150000F2B0E179E07800230422FEF795FF012017E0AC
S3150000F2C0032827D100F028F8002304221EE000239B
S3150000F2D0FEF789FF6179607800F026F8A07E0228A3
S3150000F2E00ED100F01FF8E179E07800F01DF800205B
S3150000F2F0009001230122A179A078FFF7CFF909E058
S3150000F300032807D100F00EF800230022E179E07807
S3150000F310FEF769FF002016BDA179A078002301221F
S3150000F320FEF761BFA179A07800230022FEF75BBF3C
S3150000F33010B5DFF84C27DFF84C1713783BB90024DB
S3150000F34041F823405B1C042BFAD3012313700022DF
S3150000F35051F82230002B18BF834203D141F8220016
S3150000F360002010BD521C042AF2D3DFF81C0710BD82
S3150000F37040F8241F00210368198003685980036838
S3150000F3809980017242601180426851804268918082
S3150000F3904172C172704710B5044612F020FA607FC0
S3150000F3A0DFF8E81612F029FA0020A0752075022071
S3150000F3B060752046BDE81040FFF7C3B938B504466E
S3150000F3C012F040F80021201D11F0DCFFDFF8C056D6
S3150000F3D028B9002104F1080011F0D4FF00B1284635
S3150000F3E032BD0000027000F0037000F00000014022
S3150000F3F0F0B587B004460D466846DFF898161C221D
S3150000F400F3F73EF814B9DFF88006AAE0002D6BD0BA
S3150000F4103421204600F05EFB2046FFF789FF0700F7
S3150000F420F3D104F13100297C0170296821600021A3
S3150000F43041702868DFF8601688423CD1DFF85C0628
S3150000F4402062DFF85C06E0604FF440202061EA6944
S3150000F450A9692046FFF78CFF686802900121688938
S3150000F460ADF81000A889ADF80E00A87B8DF80C0049
S3150000F470E87B8DF8120005208DF80D00DFF82406D4
S3150000F480F4F73EFF00F081F8206A0121F4F738FF17
S3150000F49000F06CF8FEF7FCFF2868DFF80C26032165
S3150000F4A04167816F00F06AF8816720462946FFF7B9
S3150000F4B01CFBE0B155E03049884208D1DFF8EC0585
S3150000F4C02062DFF8EC05E0604FF45020BEE7DFF87D
S3150000F4D04813884208D1DFF8DC052062DFF8D8053A
S3150000F4E0E0604FF46020B1E7DFF8D00539E000F0C6
S3150000F4F03AF8002835D1F3F735FA0646287C032872
S3150000F50010D12868416F41F030014167416E41F0EA
S3150000F5100401416695F8212095F8201041EA022160
S3150000F520C16704E0022804BF2046FFF734FF2868BD
S3150000F5304FF0FF318164297C03290CBF052104218A
S3150000F540FEF79FFF29684FF44060C86011F07AFF0C
S3150000F5502046FFF733FF00F084FA002F14BF384629
S3150000F560002007B0F0BD012120468AE600208DF874
S3150000F57000006946286870470004014011402A7A55
S3150000F58041EA02216A7A114370470121DFF830050A
S3150000F590F4F7B6BE38B5040002D1DFF8EC0432BD8C
S3150000F5A0032100F03CF80021204600F026F9002156
S3150000F5B0FFF7DAFF04F131056878010006D121680A
S3150000F5C00220C86008202168C8600AE0012808D126
S3150000F5D02068FFF721F82068416C8907FCD40A21CE
S3150000F5E041600021206AF4F78BFE2878032803D0B7
S3150000F5F0607F002112F001F9606811F009FFA06830
S3150000F60011F006FF11F0E5FE606A002101804180DD
S3150000F6108180A06A018041808180002032BD2DE971
S3150000F620F0435FEA000883B00D4608BFDFF85804D0
S3150000F6307BD0F3F797F9012D814608F12C0608F1E6
S3150000F6400407DFF8804415D1786A808810B33868DB
S3150000F65011F068FF00207070786A818879B300F035
S3150000F6606BF8009800F10801386811F0ADFF0098BA
S3150000F670046120E0022D03D1386A808840BB09E08E
S3150000F680032D23D1786A8088002802BF386A8088D3
S3150000F6900028DCD14846F3F7DCF9DFF82C0444E017
S3150000F6A06946FFF7B0F80098D0F80CC0BCF1000F1F
S3150000F6B001D000F03CF8786A81880029F0D14046F4
S3150000F6C000F03DF88004FAD5022D01D0032D28D193
S3150000F6D0786811F027FF00203070386A8188D1B130
S3150000F6E001A9FFF7ABF8019800F10801786811F05D
S3150000F6F06BFF019804610AE001A9FFF784F80198FD
S3150000F700D0F80CC0BCF1000F01D000F010F8386A38
S3150000F71081880029F0D1707903281CBF4046FFF785
S3150000F720C7F84846F3F795F90020BDE8FE838368DD
S3150000F73000222146404660476946FFF77FB890F8A9
S3150000F74032200021130002D1006801691EE0012A5F
S3150000F7501CD100688068820748BF0221C20748BFE3
S3150000F76041F00101420748BF41F00801020748BFC6
S3150000F77041F02001C20648BF41F04001820648BF61
S3150000F78041F08001400648BF41F4005108467047E9
S3150000F790406AFFE78088C0B270472DE9FC4100F05F
S3150000F7A026F8A06A818816461F4671B1FFF7C4FF86
S3150000F7B08046606801A911F007FF009828B1B8F1EA
S3150000F7C0000F02D100F00AF802E000203860306035
S3150000F7D028602046FFF7B3FFBDE8F681406801992F
S3150000F7E0401A3060019838600098006870470446F7
S3150000F7F00020009001900D46704700F11402537FDF
S3150000F800032B02D1DFF8C40270475170022918BFDA
S3150000F8101170FEF796BF00000008014010B500F118
S3150000F8201602D37E012B01D1022900D1EFE0147814
S3150000F8308C4208D0117011B900F0D2F803E001290A
S3150000F84008BF00F088F8002010BD007D70472DE944
S3150000F850F041044688461646FFF737F9002878D166
S3150000F860092012F005F8054604F12E0702E00DB155
S3150000F87011F0BEFEA06A808810B138780028F6D054
S3150000F8803879010002D12168096905E0012818BF0D
S3150000F890002522D12168896811F002051DD10100D9
S3150000F8A00BD121680420C860206801698907FCD54E
S3150000F8B0416F41F0020141670FE001280DD1206838
S3150000F8C0416C8907FBD4042141602068816889075F
S3150000F8D0FCD5416D41F0020141650120B8703879CF
S3150000F8E0010006D0012819D110E018F8011BFEF717
S3150000F8F072FE31464E1E20680029F6D1016989063E
S3150000F900FCD50BE018F8011BFEF79FFE31464E1E94
S3150000F91020680029F6D181680907FCD5C5B9387970
S3150000F920010008D12068416F21F0020141670820DB
S3150000F9302168C8600CE001280AD12068416C89075B
S3150000F940FBD4416D21F00201416508202168486021
S3150000F9500020BDE8F08110B5040001D1FFF705BD18
S3150000F96094F82E0030B92046FEF7A1FE10B9606863
S3150000F97011F0B2FD94F82E00401C84F82E000020F1
S3150000F98010BDF0B587B000F070F8A0B900F061F8CE
S3150000F99000F01CF8049700F010F860B9287E48B90A
S3150000F9A02046FEF763FF00F00DF8687F032801D0BC
S3150000F9B000F011F8002007B0F0BD6A46286901A9D9
S3150000F9C0FEF7EEBE00992046FEF78FBF04F1140540
S3150000F9D03F4805907047002028702046FEF7B1BECC
S3150000F9E010B5040001D1FFF7C0BC94F82E0070B129
S3150000F9F094F82E00012806D12046FEF758FE10B9CD
S3150000FA00606811F077FD94F82E00401EB5E72F4888
S3150000FA1010BDF0B587B000F028F8C0B900F019F8AD
S3150000FA2000F029F804976A462868FFF7C8FF70B9FE
S3150000FA30687958B9F2F796FF06462868808818B1A3
S3150000FA4000F00BF80120287200F00CF8002007B037
S3150000FA50F0BD019502960396704700992046FEF781
S3150000FA6066BF07463046F2F7F4BF04460D46164613
S3150000FA701F46FFF72AB804F1280515480590704778
S3150000FA8056FF00207CF50020027000F0DBE6000047
S3150000FA900E7000F0A0CB020000000140003204000E
S3150000FAA001000C0040410500E0E0FFFF00420400B9
S3150000FAB001000D000052040001000E00037000F06A
S3150000FAC000350800097000F0087000F0057000F0BD
S3150000FAD0017000F0002211F0F1BE0000F3F7A5B9A5
S3150000FAE0F9F782BAF9F76BBA80B5F9F7FBF84FF474
S3150000FAF0A0510348F8F7BCFEBDE80140F3F7F2BF9A
S3150000FB0070FA0020F9F773BBF3F799B9F3F783B9E5
S3150000FB10DFF8A00A007C00B101207047DFF8941AD4
S3150000FB200A7C062A18BFFFF7F3BF80B5902803D1D9
S3150000FB300020087412F0A4F9BDE80140E8E7DFF8F8
S3150000FB40740A007C042801D1012070470020704708
S3150000FB5070B5164604460D46FF22F6F705FA28B993
S3150000FB60002229462046F6F7FFF950B146B169084A
S3150000FB702046F0F7DDFE08B9A52070BD002070BD57
S3150000FB80702070BD70B50546084614461E463246BE
S3150000FB900821FFF7DDFF010015D132460221284674
S3150000FBA0FFF7D6FF01000ED12078010018BFFF280D
S3150000FBB006D0DFF8041AC140C80703D5702070BD0F
S3150000FBC019202070002070BD10B5441A48BF644249
S3150000FBD0C92C0A4602DB884203D201E0884200D3E0
S3150000FBE00246904201D1012010BD002010BD70B523
S3150000FBF00446DFF8C809006886B00D46407B0F2131
S3150000FC00084206BF94F828000228702040D101233C
S3150000FC10A21C211D2046FFF7B5FF060038D194F837
S3150000FC20260000F0820040F0010012F063FB94F819
S3150000FC302800DFF880194874182200216846F9F771
S3150000FC4076FE0822211D6846F9F72EFE2088ADF8BB
S3150000FC5008008DF80A5041F60631A0788DF80B00A1
S3150000FC6003208DF80C00DFF858090590002012F0EB
S3150000FC702EFCA18C94F82820080008BF4FF441718F
S3150000FC806B46012001F0FDF80646F3F7DBFC304633
S3150000FC9006B070BD2DE9F041DFF820490646206820
S3150000FCA08EB0407B00F00F052C22314602A8F9F7F2
S3150000FCB0FBFD012D18BF042D2ED0DFF8F858287C47
S3150000FCC050BB96F82800401E032825D812F003FBE7
S3150000FCD0C00723D400F039FE074602F05AFB8046DF
S3150000FCE0684602F06EFA0822311D6846F9F726FECC
S3150000FCF0002849D1707B4146FFF766FF00283AD0BD
S3150000FD0000F01BFE01460122304600F027F9DFF81D
S3150000FD10B4180020087035E0702061E00121002051
S3150000FD200AF00DFC07005AD112F054FE0FF6E40259
S3150000FD304FF6FF71012002F041F996F826000027E0
S3150000FD40C0070ED500220821301DF6F70DF940B97F
S3150000FD500822311D03A8F9F7A7FD3088ADF8080081
S3150000FD6006E00822002103A8F9F7E1FDADF80870C6
S3150000FD708DF8157017E0F6F72AF902464146304627
S3150000FD800FF0D2FF00202BE00822694603A8F9F7FE
S3150000FD908BFDADF808708DF8158096F828000228BE
S3150000FDA00CBF01270227B0788DF80A00032002F065
S3150000FDB0C3F802A938460FF0BCFE07000BD1216834
S3150000FDC0012048734FF4A0510420287405F118004F
S3150000FDD0F8F74EFD03E000F034F802F0ADF83846CF
S3150000FDE00EB0BDE8F08180B512F0A9FA002002BD80
S3150000FDF030B58BB004460D462C2200216846F9F733
S3150000FE0096FD41F60630ADF80000102205F1150109
S3150000FE100DF10200F9F748FD102221460DF11200FE
S3150000FE20F9F742FD284612F08AFA68460AF0CCFA3B
S3150000FE300BB030BDDFF87C07007C012818BF00201E
S3150000FE407047DFF87007407C010003D1DFF86C07CC
S3150000FE500068007B7047DFF85C17487470472DE92F
S3150000FE60F843DFF85847DFF84C67777C81468846C9
S3150000FE702068317C407B15460A0018BF062900F031
S3150000FE800F0041D1012818BF04283DD012F023FAF3
S3150000FE90C00707D5FFF7D5FF01281CBF48F6990014
S3150000FEA000F057FD12F017FA40F0020012F022FAA5
S3150000FEB00FF068FA48460FF043FAC6F82C9020680F
S3150000FEC04069400800F00100F074F6F77BF83075E1
S3150000FED04046F6F76DF8804698B9681E032813D891
S3150000FEE001203074757404224946092008F04DFD3E
S3150000FEF0804630B10020307496F91400F6F758F8B1
S3150000FF0077744046BDE8F2837020FBE770B50400C5
S3150000FF10DFF8A056DFF8B06608D13078FF2805D0A4
S3150000FF2005F12000F8F79AFC002070BD287C58B92E
S3150000FF30F9F78CFB30700020F9F772FB214605F1CA
S3150000FF402000F8F795FCEFE7702070BDDFF8641627
S3150000FF50002081F820007047F9F762BB70B50546AE
S3150000FF60DFF86006DFF86466418014462888308131
S3150000FF70A878F072F6F726F8B0720822291D3046E6
S3150000FF80F9F792FC687B3074DFF834067061032061
S3150000FF903073200009D112F09EF9C00705D404225F
S3150000FFA04FF6FD71002010F059F99120F5F73CFF4E
S3150000FFB0DFF8000603210174002CBDE8704014BF71
S3150000FFC04FF400614FF400711830F8F751BC38B5A2
S3150000FFD0DFF8E04500202076207C03283FD112F090
S3150000FFE07AF9DFF8E0552978002914BF4FF6FF614A
S3150000FFF04FF6FF7108404FF6FE71084012F07AF98D
S31500010000DFF8B81501202870002009684873FFF74A
S3150001001018FF0328BCBF06202074FAF7BCFFE07C5A
S31500010020012814BF41F6043141F60631002012F0D1
S315000100304EFAFFF706FF02466988DFF89035002081
S3150001004000F01FFFFFF7FDFE03281DDB4FF40061E3
S3150001005004F11800F8F70CFC0720207414E00728B7
S3150001006006D1002020740021012001F05DF80BE08B
S31500010070042818BF052807D1FFF7E3FE01F05CFF4E
S315000100800020207400F0A4F8BDE83140F3F7DABA95
S31500010090F0B5DFF820750446387C012883B00D469B
S315000100A0164615D1F0F770FD009001962B462246B3
S315000100B00FF258510020F5F78AF9DFF81415FF28D9
S315000100C0087005D002203874BDE8F74008F00FBD6E
S315000100D0F7BD70B5DFF8DC44217C94F914000129E1
S315000100E08AB00BD100212174F5F762FFF3F7EFF91E
S315000100F0002012F0ADFDF3F7A7F964E0022964D1FF
S31500010100F5F756FFF3F7E3F9012012F0A1FDF3F736
S315000101109BF91822002103A8F9F709FC207DDFF8D5
S31500010120B0548DF816000C212878F5F7F8F88DF8FB
S315000101301700012303208DF818000DF11702002086
S315000101408DF81C0003A9DFF87804089005A8FFF7CD
S3150001015019FD06460020F5F767FE300007D103AB0F
S3150001016002224FF44171002000F08BFE064636BB99
S3150001017001A80021C0E9001128780821F5F7A1F9A5
S31500010180064628780D21F5F7CAF8002000900823C5
S315000101902978002201A8F4F7BAFF2878F4F718FFA6
S315000101A0FF2028700023012201A930460FF01FFC11
S315000101B04FF4005104F11800F8F75AFB03E0002050
S315000101C0207400F005F8012000E000200AB070BD9F
S315000101D000B585B000F04DF99DF8030000F0C7F9B0
S315000101E094231322C7A10320F5F773FA9420F3F79A
S315000101F0E8FAFFF726FE032809DBDFF8C0030068EB
S3150001020040884FF6FF71884208BF032000D00220C4
S31500010210F5F70AFE05B000BDF8B504460D461646CB
S315000102201F460FF025FDECB9684601F0B2FF932891
S3150001023008BF002D07D112F04EF800F0020040F081
S31500010240800012F057F8002239463046FFF786FE45
S315000102500120F5F7E9FDF3F73AF9304612F037FDDB
S31500010260F3F7F2F8F1BDF0B504460D46D14E8BB069
S315000102700122002130460AF0B7FC684612F042F826
S315000102800DF11503002241F60631402012F0E8F87F
S31500010290D04F082206F1300107F11C00F9F704FBE3
S315000102A0082206F13801381DF9F7FEFA3C80BD70C7
S315000102B0338DB17C3A460020FFF7AEFF01200BB02B
S315000102C0F0BD2DE9F04304460D461646B94F89B0F7
S315000102D09846082205F11C0107F13000F9F7E4FA06
S315000102E0DFF8F49299F80000022803D111F0F3FF28
S315000102F0C00712D599F80000012804D133882A468F
S315000103002146FFF789FF022C08D1FFF79AFD032842
S3150001031003DB11F0E0FFC00704D479E0FFF791FD9C
S31500010320032875DA288B12F073FDFF2870D005AB10
S31500010330424605F11001002012F07DFD002867D12B
S315000103400E22314601A8F9F7AFFABDF80C00BDF847
S315000103500A10884204D20020ADF80A00ADF80C005C
S31500010360BDF80800BDF80610884204D20020ADF899
S315000103700600ADF80800BDF81000BDF80E10884261
S3150001038004D20020ADF80E00ADF81000BDF8100043
S31500010390BDF80E30BDF80A20BDF808100090BDF872
S315000103A0060011F06DFF98BB200004BFA878002855
S315000103B002D1F5F70CFEA870282229468548F9F7DF
S315000103C073FABC74BC463088388505A80FC88CE81A
S315000103D00F000023AA1C291D2846FFF7D3FB50B99D
S315000103E00822291D07F13800F9F75EFAA97828884D
S315000103F0FFF739FF12E020000AD1042107F1380086
S31500010400F0F796FAF86A754A032108F0DBFD05E074
S3150001041033882A4621460120FFF7FEFE09B0BDE8D2
S31500010420F0837FB5634915460A7C042A1C461FD111
S3150001043000220A760A7410B1FFF7CAFE7FBD00F0EA
S315000104407CFA06467DB100F014F8082202A9201DA7
S31500010450F9F72AFA9DF80300A070BDF80000208084
S3150001046001F097FF6073012231462046FFF776FDC2
S315000104707FBD102307226946012012F048BD30B521
S3150001048083B004460D46684601F09BFE0822694684
S31500010490201DF9F753FA80B900F057FA21888142F5
S315000104A00BD101F076FF0146607BFFF78DFB20B192
S315000104B0002229462046FFF751FD37BD80B50120B0
S315000104C011F018FF3B490020087401BD70B50446C0
S315000104D00D461646FFF7B5FC032811DA40480078A9
S315000104E070B1AC420CD1B0070AD5284605F0B4FF6D
S315000104F030B1007920B9BDE870403A48F8F7AEB995
S3150001050070BD00004242000010237F221A21F7F736
S315000105103CBA28237F221B21F7F737BA10B50C46C0
S31500010520FFF7F2FF2046BDE81040F2E7024610232E
S315000105307F211A20F7F76ABA80B511F0CCFE000ABE
S3150001054000F0010080F0010002BD80B511F0C3FE8C
S3150001055010F4807018BF0120C0B202BD80B511F041
S31500010560BAFE10F4807018BF0120C0B202BD1E4948
S3150001057009780B2901D03D20704710490968887315
S31500010580F3F716B80D480068807B704780B51749A8
S315000105901748086011F09FFEC00702D405490620DE
S315000105A0087401BD0C48007870470B49087000209B
S315000105B070470000E4F70020FF0700F8DCF8002090
S315000105C000F8FF07AAEB0020E8EB002024F8002042
S315000105D0E9EB00203CF80020D3EB00206702010084
S315000105E072FF0020C8FA0020E2EB002024FA002066
S315000105F008CC020010B5044611F06DFE4FF6FD71F0
S3150001060008402043BDE8104011F074BE3834313241
S3150001061000000000000000000000000001207047FB
S3150001062070470120704701207047B52070470000D0
S3150001063010B512F03FFDF4F72FFB102012F03CFD30
S315000106400006DFF81C430FD5002012F035FD000629
S315000106500AD56068800717D52068800714D5F7F793
S3150001066071F9010012D010BD102012F025FD00060F
S31500010670F5D4002012F020FD0006F0D56068C00711
S3150001068002D520688007EAD4B02010BDF2F748FCF5
S315000106900120F0F7B7FD12F057FD12F093FF06F0B7
S315000106A0C1FDF1F72EFB0FF20030F8F770F9DFF814
S315000106B0B4120870F2F74EFEFFF716FAFAF73EFC8F
S315000106C012F0CEFF12F0D9FFFFF760FF002010BD38
S315000106D02DE9F0470BF0ECF807F057F80020F1F799
S315000106E033F9F2F781FADFF880824046F4F79AFF90
S315000106F008B9FAF78DFFDFF874924846F4F792FFCE
S3150001070008B90EF063FA05F0E3FDF3F76DFBDFF8C8
S315000107105462DFF85C523078DFF858A2F8F71FF917
S3150001072012F0B2FF0027002409E0F2F75BFE286809
S31500010730007B042808BF0127F2F786FE641C9AF89D
S315000107400010E0B28842F0D3002F1EBFDFF8280266
S315000107500078002805D000F02AF8102808BF10F00C
S31500010760F9F9F1F795FAFFF75BFFF2F7FBF80746A0
S31500010770FFF7B4F968B14046F4F754FF48B148466B
S31500010780F4F750FF28B1FFF749FF10B13078F8F7B9
S3150001079020F93846F2F75DF9F2F78EFE18B940F204
S315000107A0AB1100F057F8BDE8F047F2F795B8F8B588
S315000107B0FFF798F930B10BF0C6F900F0010080F0AF
S315000107C0010400E00124F0F794FC00280CBF042585
S315000107D00025FFF783F948B16348F4F723FF28B1F1
S315000107E06248F4F71FFF08B1002000E002206349C8
S315000107F0097801B12021604A127802B11022604BBA
S315000108001B7803B140235F4E36780EB14FF4007664
S315000108105D4F3F780FB14FF480672C432043084367
S315000108201043184330433843F2BD80B52D224BA106
S315000108300320F4F74EFFFFF755F918B94FF4EE719F
S3150001084000F008F8F0F776FBFFF75EF9BDE8014026
S31500010850F4F773BA0FF24010EFF768BF80B5F4F7FB
S315000108603FFA2E223DA10320F4F733FFF2F7DBFA1C
S31500010870F0F7C8FC4548007808B110F05BF8444829
S31500010880007808B106F093F84248007818B1BDE83F
S31500010890014011F0EEBF01BD38B504463448006889
S315000108A0007B032818BF04280BD02046F7F76FFEFC
S315000108B04FF6FF75A84204BF204605F098FDA842F1
S315000108C004D12046BDE8324006F0A3BD32BD70B565
S315000108D004464FF6F87084420D4601DB012070BDD7
S315000108E02000234E07D13068007D800703D42846B7
S315000108F011F04DFEB8B930684288944205D1011D08
S3150001090008222846F8F7D0FF0DE0007B032818BF20
S3150001091004280AD020460EF0FDFBFF2805D0294603
S315000109200EF01CFC08B1002070BD2946204606F0D9
S31500010930B1FD401E8041C00F70BD0D480068008AA0
S3150001094070470B4909680882704709480068408A60
S315000109507047074909684882704700004200000055
S31500010960E881E00F61FF002054EB002008EB002036
S31500010970DCF80020C0EB0020A4F6002098F7002048
S31500010980FCF7002094FA0020A4FA0020C8FA0020FF
S31500010990DCF70020D4F700207A69676265652D735C
S315000109A07461636B2E6300008CF90020E72D000053
S315000109B068FA0020B58F0000F8F80020B53D000068
S315000109C058F70020AD8B0100F8F90020B9BC0100F1
S315000109D0E4FA00201FBE010008FA0020C1960100BA
S315000109E098F70020C9170100A8F700208518010013
S315000109F0A4F60020510B020090F70020290E0100F9
S31500010A006CF8002009020200A4F900200925010062
S31500010A10CCF900206D690200DCF70020AF69010006
S31500010A20C8FA002035090200D4F700207328020015
S31500010A30DCF90020633A0200FCF70020CFFF00003A
S31500010A40E4F800204536000094FA00207BCD010031
S31500010A50ACFA002011CE0100A4FA0020C7CD010096
S31500010A6040F70020351F0200E8F60020A7A101008B
S31500010A702CF7002025C5010088FA002045630100F6
S31500010A8034F700208BC20100BCF70020E7220100E9
S31500010A9010F7002045BF010094F9002095280000B9
S31500010AA070FA002083960000C8F8002099390000EA
S31500010AB00000000000000000DFF86C2A12681278BE
S31500010AC082420AD019B1012A03D1022805D0002099
S31500010AD07047022A08BF0128F9D101207047DFF8C3
S31500010AE0D81C8875704710B5DFF83C4A2068407BF2
S31500010AF0112805D040F203110FF20C00EFF716FE94
S31500010B0021684120487310BD6173736F6369617415
S31500010B10696F6E2E6300000080B50220F2F73EFE7B
S31500010B20F2F760FC00F04FFC042805D1DFF8880CD1
